:020000040800F2
:1000000000000420A5670008216600082566000896
:10001000296600082D66000831660008F5670008AB
:10002000000000000000000000000000A10801081E
:10003000356600080000000031080108CDE0000826
:10004000F5670008F5670008F5670008F567000820
:10005000F5670008F5670008F5670008F567000810
:10006000F5670008F5670008F5670008F567000800
:10007000F5670008F5670008F5670008F5670008F0
:10008000F5670008F5670008F5670008F5670008E0
:10009000F5670008F5670008F5670008F5670008D0
:1000A000F5670008F5670008F5670008F5670008C0
:1000B000F56700083966000845660008F56700081E
:1000C000F5670008F5670008F5670008F5670008A0
:1000D000F5670008F5670008F56700085166000835
:1000E0005D660008F567000869660008F5670008A6
:1000F000F5670008F5670008F5670008F567000870
:10010000F56700087566000881660008F567000855
:10011000F5670008F5670008F5670008F56700084F
:10012000F56700088D66000899660008F567000805
:10013000A5660008F5670008F5670008F567000880
:10014000F5670008F5670008B1660008F567000864
:10015000F5670008F5670008F5670008F56700080F
:10016000F5670008BD660008F5670008F567000838
:10017000F567000800000000F567000800000000B7
:10018000C9660008F5670008F5670008F56700080C
:10019000F5670008F5670008F5670008F5670008CF
:1001A000F5670008F5670008F5670008F5670008BF
:1001B000F567000800000000D5660008F567000834
:1001C000F567000800000000F5670008F567000803
:1001D000F5670008F5670008F5670008F56700088F
:1001E000F5670008F5670008F5670008F56700087F
:0401F000000000000B
:1002000010B5054C237833B9044B13B10448AFF350
:1002100000800123237010BDC002032000000000F5
:10022000F80D010808B5034B1BB103490348AFF3B0
:10023000008008BD00000000C4020320F80D010882
:10024000034613F8012B002AFBD1181A0138704716
:10025000704700BF01F0A4BFF0B5274C274E9BB0FC
:100260004FF0FF332822694620680EF0A3FD2828AE
:10027000F6D1039805F024FD0546002834D1029BF1
:100280009BB929460AAA009802F02CF80FF098FAB8
:100290000AA90246684602F0B7F90FF091FA0AA9D6
:1002A0000246684601F062FFDAE7B3F1005FF4D17D
:1002B00040F20272009B9342EFD10822039900277B
:1002C000914228BF11460D46C6E90577B760019FE8
:1002D0000B490C48C6E90037F56005F0FDFC3046D7
:1002E000084901F0E3FDD8E74FF0FF332A462068C4
:1002F0000AA90EF05FFDC2E760280320F002032088
:100300009005FA0BE40203202DE9F0431F4D9BB04A
:10031000DFF8808001AE0AAF002404EBC401C4F111
:1003200024024FF0FF33286806EB81010EF042FDF6
:100330000444232CF1D9049805F0C2FC039B8146A8
:10034000B3F1005F00D0A0B9114807F0EDFC50B147
:100350003A4631460E4807F0B1FBD8F80C3001336D
:10036000C8F80C30D8E74FF0FF3201210FF0BCFC89
:10037000EAE70024A9EB040239194FF0FF3328689B
:100380000EF018FD04444C45F4D3DDE75C2803204F
:10039000042703200000032000B583B001F076FF9E
:1003A00001F06AFC03221849184806F01DFE03F00C
:1003B0003FFD00F0DDFE03F0EFFD0FF001FA01F06C
:1003C000CFFE13480BF080F912480BF045F9124CA0
:1003D0000FF0F6F9019003F031FD019803F0E2FD12
:1003E000019800F0C7FE237813B9019802F06CF869
:1003F000019801F0C5FE019802F0F4F80A2101A865
:100400000FF01EF9E4E700BF604D0320F42703203E
:100410003C240320A4230320760003202DE9F0418F
:100420000026214DDFF88C80204FA6B012E010F09E
:10043000A1F898F8003033B10B9B23B164200DF084
:10044000FDFE01F019FC00220223114638680096D7
:100450000FF0CCFC4FF0FF32012100200FF044FCE4
:1004600010F07AF8124807F0B5FD044606A91048C6
:1004700007F020FC02A90E4807F044FC542229464C
:1004800011A8AC6010F060FC094B1E66189BB3F518
:10049000003FCCD9AB689B02C9D5012385F8203039
:1004A0000B9301F091FCC2E700000320C41B032062
:1004B00004270320E002032000232DE9F04F85B03C
:1004C000DFF8B482A64FDFF8B4B2A64EA64DDFF82F
:1004D000B0A20DF10E098DF80B3014E028680EF073
:1004E00073FB012809D94FF0FF330222286803A9C2
:1004F0000EF060FC022800F0968000214FF0FF32E1
:1005000008460FF0F1FBD8F800000EF05DFB002864
:1005100049D130680EF058FB0128DFD94FF0FF3386
:100520000222306803A90EF045FC0228D6D1BDF89E
:100530000C20B2F5845FD1D86AB10024121B39199E
:100540004FF0FF3330680EF035FCBDF80C2020442E
:1005500084B2A242F2D10FF033F9844B3946BDF890
:100560000C20CDF8009003F063FABDF80E30002B9C
:10057000B4D07F48494604464FF0FF33022200685A
:100580000EF030FBBDF80E204FF0FF3377492068A6
:100590000EF028FB002202231146DBF80000009237
:1005A0000FF024FC9AE74FF0FF330122D8F8000047
:1005B0000DF10B010EF0FEFB0128AAD1D8F80000C6
:1005C0000EF002FB0128A4D94FF0FF330222D8F825
:1005D000000003A90EF0EEFB02289AD1BDF80C2012
:1005E000B2F5845F95D8002A40F0AA809DF80B40B0
:1005F000002C56D10FF0E4F85C4B5949BDF80C20A3
:10060000CDF8009005F0DAFABDF80E30002B7DD160
:100610000FF0D6F8554B5249BDF80C20CDF800909C
:1006200005F01CFB75E7BDF80C20B2F5805FBFF448
:1006300064AF6AB10024121B39194FF0FF332868E8
:100640000EF0B8FBBDF80C20204484B2A242F2D1D7
:100650000FF0B6F8454B3946BDF80C20CDF80090A8
:1006600005F026FCBDF80E30002B3FF446AF49469E
:100670004FF0FF330222DAF800000EF0B3FABDF8B3
:100680000E204FF0FF333949DAF800000EF0AAFAD5
:10069000002202231146DBF8000000920FF0A6FBB7
:1006A0002BE70FF08DF8314B2D49BDF80C20CDF81C
:1006B000009005F0ABFABDF80E30002BA8D02B4906
:1006C0000A787F2A08D1022BA2D98B78A3F11102D4
:1006D000012A9DD9312B9BD02648494604464FF02C
:1006E000FF33022200680EF07DFABDF80E204FF0B5
:1006F000FF331E4920680EF075FA002202231146CE
:10070000DBF8000000920FF071FB81E719484946C1
:100710004FF0FF33022200680EF064FA1548BDF86E
:100720000E204FF0FF33114900680EF05BFA0223F0
:1007300022462146DBF8000000940FF057FB67E7E4
:100740000024121B4FF0FF333919D8F800000EF0C7
:1007500031FBBDF80C2023189CB2A242F1D145E731
:10076000E44F02202003032018030320603F0220EF
:100770001C0303202403032028030320040903206F
:10078000140303202DE9F04FDFF8C89185B0664FC0
:10079000664EDFF8C4A1664D09F19C0B0DF1080807
:1007A0001AE030680EF010FA012844D828680EF0DC
:1007B0000BFA01280AD94FF0FF33022228680DF105
:1007C00006010EF0F7FA022800F08B8000214FF0AE
:1007D000FF3208460FF088FA38680EF0F5F9012864
:1007E000DFD94FF0FF330222524938680EF0E2FAA7
:1007F0000228D6D1B9F89420B2F5845FD1D872B16D
:100800000024121B0BEB04014FF0FF3338680EF08D
:10081000D1FAB9F89420204484B2A242F1D10EF06A
:10082000CFFF0146444802F0F9FA80B330680EF079
:10083000CBF90128BAD94FF0FF3302223F49306883
:100840000EF0B8FA0228B1D1BAF89420B2F5845F5C
:10085000ACD872B100243A49121B21444FF0FF3347
:1008600030680EF0A7FABAF89420204484B2A2426D
:10087000F1D10EF0A5FF0146324802F0CFFA002870
:1008800094D11BE0304B93F823010DF0D7FC0EF010
:1008900097FF05F099F8012883D038680EF094F995
:1008A00001283FF67EAF294B1B78002BEAD10A20A6
:1008B000EBE7274B93F823010DF0C0FC0EF080FF0F
:1008C00003F03AF801283FF471AF30680EF07CF97C
:1008D00001283FF66BAF1D4B1B78002BE9D10A2096
:1008E000EAE7BDF80620082A3FF670AF72B100248F
:1008F000121B08EB04014FF0FF3328680EF05AFA80
:10090000BDF80620204484B2A242F1D10EF058FF77
:100910004146BDF8062005F065FA01283FF456AFC0
:100920000A200DF08BFCF1E7240303201C030320B5
:1009300014030320FC70022068600220BC3C0320EA
:10094000C43C0320282C032068800220760003206A
:10095000284C032068700220283C032001F024BCAE
:1009600001F026BC002001F027BC00BF0022024B92
:1009700002481A600AF0A8BEDC020320F02303201C
:10098000014B1868704700BFDC0203200000000024
:1009900010B59EB0482200210CA810F049F90023A0
:1009A0004FF40070CDE90233CDE90433CDE90733CC
:1009B000CDE90933019306930B9309F063FA08B16B
:1009C00072B6FEE701230222169311931993179230
:1009D00010231D9207229FED1E7BCDE91A320324BE
:1009E000042312900CA81C938DED0C7B189409F035
:1009F00085FC034608B172B6FEE70F22214601A826
:100A0000CDE9033305930294019209F023FB0346D9
:100A100008B172B6FEE7104A4FF0005C916D4BF6DC
:100A20007F3441F080719165926D069302F080727F
:100A3000009208932222202306A8CDE90A230099D8
:100A4000CDF81CC009940AF0B9FB1EB010BD00BF60
:100A5000290000000000010000100240F0B595B030
:100A600072B64FF00062AA4B9A60BFF34F8F62B626
:100A7000002405F0C1FEFFF78BFFCDE90E44CDE960
:100A80001044A44D1294EB6C4FF4604143F0040306
:100A9000EB64EB6C224603F004030793079BEB6CBB
:100AA0009D4843F08003EB64EB6C012603F0800368
:100AB0000893089BEB6C43F00103EB64EB6C03F0D1
:100AC00001030993099BEB6C43F00203EB64EB6CAD
:100AD00003F002030A930A9B07F014FF224640F238
:100AE00001118E4807F00EFF224641F2E4018C48C6
:100AF00007F008FF4FF4604387480EA9CDE90E3692
:100B00001094119407F050FD40F2011383480EA990
:100B1000CDE90E36CDE9104407F046FD41F2E4037D
:100B20007F480EA9CDE90E36CDE9104407F03CFD13
:100B30004FF4007379480EA9CDE90E34109607F0F2
:100B400033FD082377480EA9CDE90E34109407F041
:100B50002BFDAB6C052143F00403AB64AB6C224668
:100B600003F004030493049BAB6C1D203343AB647C
:100B7000AB6C33400593059BAB6C43F00203AB6455
:100B8000AB6C03F002030693069B06F01FFB1D20CF
:100B900006F056FB224605211E2006F017FB1E20FC
:100BA00006F04EFB22460521502006F00FFB502098
:100BB00006F046FB204608F023FA08B172B6FEE7BD
:100BC00008F032FA034640B95748584AC0E90023B2
:100BD0000AF01CFB18B172B6FEE772B6FEE7544A83
:100BE000544B1070544A4FF440711A6010229960AF
:100BF0009A619A620F2113223C2404275860D8601E
:100C00009874D8631846C3E90D661E825E615E6201
:100C1000DC61D9621A621F6306F0A6FD034650BB71
:100C20000BAD0B90CDE90E00CDE91000CDE912001F
:100C3000C5E901004FF480704FF4301C03214FF4DC
:100C400080523E4CC4E90233C4E90A3384F82030B0
:100C500084F838303A4B20832046C4E90467C4F84E
:100C600004C0E161626384F83060236005F0E8FD50
:100C700018B172B6FEE772B6FEE70B902946204621
:100C800006F02CFA08B172B6FEE706230F937F2315
:100C900011932C4B109013900EA9204612970E938F
:100CA00005F0FCFE08B172B6FEE7274B20460E9316
:100CB0000C230EA90F9305F0F1FE08B172B6FEE702
:100CC000224B20460E9312230EA90F9305F0E6FE49
:100CD000034608B172B6FEE71D48C0E905338380BC
:100CE0001C4B0662036006F0DDFA08B172B6FEE73F
:100CF00000234FF4027102221748C372174B818000
:100D0000C0F80720036008F099F948B372B6FEE70F
:100D100000ED00E000100240000802420000024224
:100D200000040242001C02420826032000080C4274
:100D3000E00203200427032000A40040F42703203E
:100D400000800242400020190002B0250004002A61
:100D500068270320003002407C20032000D400409C
:100D600041F63F76414C424ACDE90E00C4E901000C
:100D70001090A06120462260E6600AF095FE0346CE
:100D800008B172B6FEE720460EA90E9310930AF042
:100D9000BDFE034608B172B6FEE7364CCDE90E3310
:100DA0001093A360A36142F20F73334A2046C4E953
:100DB0000023E6600AF078FE034608B172B6FEE74B
:100DC00020460EA90E9310930AF0A0FE034608B128
:100DD00072B6FEE74F264FF6FF742848284AC0E94E
:100DE00004338360836102604660C4600AF05CFE85
:100DF000034608B172B6FEE72248C0E90163C0E9C4
:100E00000343C0E90533204B03600AF04DFE08B1EF
:100E100072B6FEE74FF080414FF0FF321B4C0B9053
:100E2000CDE90E00CDE91000C5E90100C4E90100DB
:100E30002061A06120462160E2600AF035FE08B121
:100E400072B6FEE74FF4805320460EA90E930AF0C7
:100E500079FC034608B172B6FEE7294620460B939B
:100E60000D930AF053FE98B172B6FEE7F02303200B
:100E7000001400403C24032000100040A423032061
:100E800000440140582303200048014088240320E7
:100E900000246E4A01216E4B009246F20600224663
:100EA000CDE901440DF038FE02466A4E6A4D0096C7
:100EB0000121CDE90144694B2A6046F20600224631
:100EC0000DF02AFE664B674A01210092CDE90144EC
:100ED00022461860644B46F206000DF01DFE634E7C
:100EE000634B224600930121CDE90144614B306000
:100EF00046F206000DF010FE5F4B224600935F4B5A
:100F00000121CDE9014418605D4B4FF47A600DF08A
:100F100003FE5C4F5C4B224600930121CDE9014466
:100F20005A4B38604FF47A600DF0F6FD584B22466C
:100F30000093584B0121CDE901441860564B4FF402
:100F4000A0400DF0E9FD554B22460093544B012182
:100F5000CDE901441860534B4FF4A0400DF0DCFD87
:100F6000514B186001F00EFC0EF02AFC33462A4665
:100F70004E49009701F016FB4D4803F045F84D48E7
:100F800001F0D4F84C484D4A4D4900F05BFE0EA8E4
:100F90000E9401F0EDFB20B90E9B13B9494801F006
:100FA000BFFB0DF0A1F80021474A48480DF0ECF8CE
:100FB0000446474B0021474A47481C600DF0E4F8BF
:100FC0000446464B0021464A46481C600DF0DCF8BA
:100FD00004463B4B0021444A44481C600DF0D4F8C1
:100FE0000446434B0021434A43481C600DF0CCF8B3
:100FF0000446324B0021414A41481C600DF0C4F8C0
:1010000004462A4B00213F4A3F481C600DF0BCF8C3
:1010100004463E4B00213E4A3E481C600DF0B4F8A9
:1010200004463D4B00213D4A3D481C600DF0ACF8A4
:1010300004463C4B00213C4A3C481C600DF0A4F89F
:101040003B4B18600DF072F8FEE700BF2804032048
:1010500058DF01200404032028030320507F0120CF
:1010600024030320E0030320481F01202003032062
:10107000BC03032040BF0020980303201C0303206F
:10108000A0AF0020180303207403032000A0002059
:101090005003032014030320005000202C030320DE
:1010A00060280320000000205C280320B40D0320EA
:1010B0000826032068270320042703206412032046
:1010C000C41B0320040072016010010855020008CF
:1010D000782003203C1001085902000874200320E6
:1010E0001810010809030008F40F0108990300080B
:1010F00014170320D00F01081D040008AC0F0108CD
:10110000B9040008880F01088507000804090320B6
:10111000640F01085D09000854040320400F010812
:1011200061090008500403201C0F0108650900082C
:101130004C040320094A0368934206D0084A9342AC
:101140000AD0084A934205D07047074A1368013312
:101150001360704701F01CB805F060BB001400403C
:10116000002C014000100040DC02032072B6FEE7B4
:10117000704700BF38B51A4C1A4D236828881B6881
:1011800019499B6880B298472368A8881B6817494B
:101190009B6980B298472368287B9B7C95F8201038
:1011A000134A93B100F040FC2368A87D1B681149E5
:1011B0009B6C98472368688B1B680F499B6D80B2B6
:1011C000984723689B7C1BB938BD00F001FCEBE716
:1011D0000A4B0B491879BDE8384000F031BC00BF1C
:1011E000DC0003205400032084290320F829032075
:1011F0006C2A0320E02A0320542B0320C400032080
:10120000C82B03200870704700787047030A0870E5
:101210004B707047012994BF00780088704700BF69
:10122000012908D94FF6FE2302889A4203D8981A5A
:10123000C0F34F0070470020704700BF012911D94B
:101240004378FA2B07D8084AC3EB0330A2FB0020EF
:10125000C0F30F10704740F6FF72FF2B0CBF002049
:101260001046704700207047D34D6210022907D9FD
:101270004FF6FF73B0F80100984208BF0020704796
:1012800000207047042907D94FF6FF73B0F8030018
:10129000984208BF0020704700207047012907D9F5
:1012A0004FF6FF730088984208BF4FF40060704704
:1012B0000020704701290ED94FF6FF73008898422D
:1012C00009D047F27F53984238BF1846A0F5EA404C
:1012D0007F3880B270474FF400607047032986BFA3
:1012E000C078C0F381000020704700BF09B10078CA
:1012F00070470846704700BF012906D9437803F0BC
:101300000F03013BDBB2022B01D900207047024AD8
:1013100032F81300704700BF9410010819B101782A
:10132000C1F3810070470846704700BF032986BF9C
:10133000C07800F003000020704700BF034600B5EE
:1013400083B008465BBA02220DF10601ADF8063003
:1013500004F0C2FC03B000BD8446002310B50C4667
:1013600082B00DF1060002226146ADF8063004F0AD
:10137000B3FCBDF80600012C98BFC0B240BA80B2E1
:1013800002B010BD002300B5012983B0ADF80630CE
:1013900002D8184603B000BD014602220DF1060036
:1013A00004F09AFC9DF8060003B000BD38B50D4668
:1013B00004460822FF21284604F08AFCB4F5FB4FBE
:1013C0000ADAC4F5FA447F34640004F0FE03C4F37F
:1013D00007242B706C7038BD002423466C702B7072
:1013E00038BD00BF38B50D460822FF210446284607
:1013F00004F06EFCFA2204FB02F2044BA3FB02137E
:10140000D21A03EB5203DB0A6B7038BD01011000E6
:1014100038B50C4605460822FF21204604F058FC4A
:101420002B0A6570A37038BD38B50C4605460822F6
:10143000FF21204604F04CFC2B0AE570237138BDD7
:1014400038B50C4605460822FF21204604F040FC32
:101450002B0A2570637038BD38B50C460822054646
:10146000FF21204604F034FC48F6802247F27F53E7
:10147000954294BF5B199B189BB21A0A2370627045
:1014800038BD00BF38B50D4604460822FF21284666
:101490007D3404F01DFCAC7038BD00BF38B50D467E
:1014A00004460822FF21284604F012FCEB78A40031
:1014B00023F00C0304F00C042343EB7038BD00BF91
:1014C00038B50C4605460822FF21204604F000FCF2
:1014D000257038BDFF2838B50D460FD9C3B2002B93
:1014E0000CBF012403240822FF21284604F0F0FB4E
:1014F0006B7823F00F031C436C7038BD031E18BFBC
:1015000001235C00EFE700BF38B50D460446082212
:10151000FF21284604F0DCFB2B78A40023F00C0309
:1015200004F00C0423432B7038BD00BF38B50C46C3
:1015300005460822FF21204604F0CAFBE37805F0A7
:10154000030523F003032B43E37038BD38B50D4684
:1015500004460822FF21284604F0BAFB012C0AD0D9
:10156000022C05D0032C0CBFD723FF23AB7038BD52
:10157000C723AB7038BDC323AB7038BD38B50C463C
:1015800005460822FF21204604F0A2FBEBB2022B05
:1015900012D0032B09D0042B0CBF51230023FF2DA5
:1015A00088BF43F00403237038BD1123FF2D88BF8B
:1015B00043F00403237038BD0123FF2D88BF43F09F
:1015C0000403237038BD00BF38B50C460546082219
:1015D000FF21204604F07CFB15F0080F0CBF002112
:1015E000FA2115F0100F0CBF0022FA2215F0200F7F
:1015F0000CBF0023FA2315F0400F0CBF0020FA2087
:1016000015F0800FE0700CBF0020FA2015F0010FDC
:1016100021700CBF0021FA2115F0020F62700CBF7F
:101620000022FA2215F0040FA3700CBF0023FA2346
:1016300020716171A271E37138BD00BF022906D922
:1016400080787D38C0B2812888BF00207047002094
:10165000704700BF032906D9C0787D38C0B2812801
:1016600088BF002070470020704700BF02290FD9B3
:10167000837803F00C02042A01D001207047C3F3E1
:101680000113012B06D0002B0CBF02200120704754
:10169000002070470320704707292DD9037842782E
:1016A000A3F1FA03B3FA83F3FA2A4FEA53138278C9
:1016B0004FEAC30308BF43F01003FA2AC27808BFF9
:1016C00043F02003FA2A027908BF43F04003FA2AC4
:1016D000427908BF43F08003FA2A827908BF43F0B9
:1016E0000103FA2AC27908BF43F00203FA2A08BFAD
:1016F00043F0040318467047002070470078704795
:10170000D9B103789A09012A0ED003F03002102AC9
:1017100015D003F00302012A14BF0120022003F0B8
:101720000C03042B06D0704703F00C03042B4FF07E
:101730000400F8D140F47F4070470846704703200A
:10174000EDE700BF00787047007870470078704779
:1017500000787047087070470870704708707047CD
:101760000870704708707047030A08704B70704724
:10177000012994BF00780088704700BF38B50D4636
:101780000822FF210446284604F0A2FAFA2204FBAC
:1017900002F2044BA3FB0213D21A03EB5203DB0A3F
:1017A0006B7038BD01011000012911D94378FA2B63
:1017B00007D8084AC3EB0330A2FB0020C0F30F1088
:1017C000704740F6FF72FF2B0CBF00201046704799
:1017D00000207047D34D6210034600B583B0084621
:1017E0005BBA02220DF10601ADF8063004F074FA7E
:1017F00003B000BD034600B583B008465BBA0222C1
:101800000DF10601ADF8063004F066FA03B000BD34
:10181000034600B583B008465BBA02220DF106010B
:10182000ADF8063004F058FA03B000BD034600B529
:1018300083B008465BBA02220DF10601ADF806300E
:1018400004F04AFA03B000BD034600B583B0084671
:101850005BBA02220DF10601ADF8063004F03CFA45
:1018600003B000BD034600B583B008465BBA022250
:101870000DF10601ADF8063004F02EFA03B000BDFC
:10188000034600B583B008465BBA02220DF106019B
:10189000ADF8063004F020FA03B000BD8446002302
:1018A00010B50C4682B00DF1060002226146ADF87B
:1018B000063004F011FABDF80600012C98BFC0B242
:1018C00040BA80B202B010BD8446002310B50C4669
:1018D00082B00DF1060002226146ADF8063004F038
:1018E000FBF9BDF80600012C98BFC0B240BA80B227
:1018F00002B010BD8446002310B50C4682B00DF135
:10190000060002226146ADF8063004F0E5F9BDF8A4
:101910000600012C98BFC0B240BA80B202B010BD20
:101920008446002310B50C4682B00DF10600022259
:101930006146ADF8063004F0CFF9BDF80600012C81
:1019400098BFC0B240BA80B202B010BD8446002336
:1019500010B50C4682B00DF1060002226146ADF8CA
:10196000063004F0B9F9BDF80600012C98BFC0B2EA
:1019700040BA80B202B010BD8446002310B50C46B8
:1019800082B00DF1060002226146ADF8063004F087
:10199000A3F9BDF80600012C98BFC0B240BA80B2CE
:1019A00002B010BD8446002310B50C4682B00DF184
:1019B000060002226146ADF8063004F08DF9BDF84C
:1019C0000600012C98BFC0B240BA80B202B010BD70
:1019D00070B515460E46044682B028460822FF21FF
:1019E00004F076F944EA0624022228460DF10601A5
:1019F000ADF8064004F070F902B070BD002300B5E8
:101A0000012983B0ADF8063002D8184603B000BDF6
:101A1000014602220DF1060004F05EF9BDF8060051
:101A2000000A03B000BD00BF38B5154604460822C1
:101A3000FF2128467D3404F04BF9EC7038BD00BF1F
:101A400038B50D4604460822FF21284604F040F927
:101A5000A31EDBB2042B06D8054A0649D25CCB5C38
:101A60002A706B7038BDFC2300226B702A7038BD61
:101A70008C10010884100108012918D9037803F09B
:101A80000302012A17D003F00C02042A15D003F038
:101A90003002102A0DD003F0C003402B0FD0437842
:101AA00003F00303012B0CBF062001207047002028
:101AB00070470520704702207047032070470420BC
:101AC000704700BF2DE9F04F3A4B8346984283B0F0
:101AD00007D8394B984260D94FF028094FF448761F
:101AE00009E036494FF02509B1FBFBF1C9B21929CC
:101AF00040F2EE265BD90124304B0134A4B2B3FB93
:101B0000F4F1B1FBFBF1C9B21929F6D8B4F5806F35
:101B10003FD201202A4BCDF804B01F6823186FF084
:101B2000004C4FF47A759B461FFA83FAA1F1020E1E
:101B3000BEEB510F4FEA51031ADD01F1FF385FFA96
:101B400088F805FB03F2B2FBF1F2B21A002AB8BF23
:101B50005242624509DA914507DB00209446A8EB22
:101B60000302D2B2FB617C613A6201337345E8DB68
:101B7000124B1FFA8BF4B3FBFAF1019BB4F5806FA3
:101B8000B1FBF3F10AF1010AC9B203D004F1010B70
:101B9000CCE7012003B0BDE8F08F08494FF02B09D6
:101BA000B1FBFBF1C9B2192940F26B36A3D801246D
:101BB000AFE700BF00350C0020A10700005A620209
:101BC000542903204FF08041022201232DE9F041E6
:101BD000174C0025C4E91123164E174FDFF860801B
:101BE000E16311E0D8F800202365937C003B18BF27
:101BF000012312493868A36405F0A0FE78B96B1C74
:101C0000022B4FF0010511D056F8043B2564E36424
:101C1000002BE7D06FF0604201232265E9E7FFF770
:101C2000A5FA6B1C022B4FF00105EDD1BDE8F08148
:101C300000000320AC110108542903203C000320BC
:101C4000DC00032038B50C46064D0749074B0A60F7
:101C50002860074901201C600CF0FEFC054B186051
:101C600038BD00BF542903204C29032050290320EC
:101C700064280320B4280320F0B54D4E83B03068AB
:101C800005F006FF306805F06FFD00286FD10022D7
:101C9000484D402148482A71EA602A616A61AA6178
:101CA000AA60EA6185F8202006F02CFE306805F075
:101CB000EFFE0C2202233068C0E90D2305F054FD2D
:101CC000002871D100240222012340F2FF71C5E9EE
:101CD0000B233A4FA9636C6202E001340C2C0ED046
:101CE00037F8023B36493068AC626B6305F026FE7C
:101CF0000028F2D00134FFF739FA0C2CF0D1FFF7AD
:101D000061FF0023022230681146009305F042FE75
:101D1000002846D1306805F05FFE00283ED1002241
:101D20000121306806F006F8A8BB002206213068C1
:101D300006F000F860BB07224FF4F051306805F060
:101D4000F9FF10BB07228021306805F0F3FFC8B906
:101D500000221C49306805F0EDFF80B900224FF4E5
:101D60006021306805F0E6FF20B903B0F0BDFFF751
:101D7000FDF98CE703B0BDE8F040FFF7F7B9FFF7D6
:101D8000F5F9EBE7FFF7F2F9E2E7FFF7EFF9D9E74B
:101D9000FFF7ECF9CFE7FFF7E9F9C6E7FFF7E6F958
:101DA000BDE7FFF7E3F9B5E7FFF7E0F98AE700BF22
:101DB000542903200000032000040242B41101084A
:101DC0002400032000407100014B186805F060BE3C
:101DD00054290320FFF7F6BE082824D8DFE800F0D6
:101DE000080C1014171A1D2005001448FFF76ABECE
:101DF00042F21070FFF766BE44F62060FFF762BE45
:101E00004CF25030FFF75EBE0D48FFF75BBE0D4849
:101E1000FFF758BE0C48FFF755BE0C48FFF752BEFF
:101E20000B48FFF74FBE0B4AA0F51C53103B9342E3
:101E300001D901207047FFF745BE00BF40420F00A7
:101E4000A086010048E8010090D0030020A107000F
:101E500000350C00301B0F000346054A197800209E
:101E600051615978D16199781162DB78936170473B
:101E7000042703200246024B00209A61704700BFEE
:101E800004270320034600B5064A93F801E093F8BF
:101E900000C082F810E004499B7881F800C05374B8
:101EA000002000BD04270320E00203202DE9F047B5
:101EB000054682B0C0680F4603F002FFAB68B3F17D
:101EC000005F3ED00646824600F12409264C4FF0C2
:101ED000FF3120680CF07EFC0128F8D1DFF89480F7
:101EE000D8F800000CF05CFE484517D202251F4AC6
:101EF00013792B431371002320681A4619460CF0FE
:101F00000FFB1B4A02231268106800221146009240
:101F10000DF06CFF284602B0BDE8F08729464FF06F
:101F2000FF332422D8F800000CF05CFE054686B989
:101F30004D450CD00D4A0125137943F00803137168
:101F4000D9E74FF0000A4FF024095646BEE70025B6
:101F5000D1E7524639464FF0FF33D8F800000CF075
:101F600041FE0544E4E700BFB4280320000003203D
:101F7000502903205C2803202DE9F04700250C465A
:101F800082B0C9070646019516D4A20707D50221DB
:101F9000314A137943F001031371336819656307FC
:101FA00038D4019B2BB14FF0E0234FF08052C3F89F
:101FB000042D02B0BDE8F087DFF8A890DFF8988024
:101FC00040214A46254B05F0DBFDD8F81430D9F8FE
:101FD0000C000133C8F8143003F072FEDFF888A05B
:101FE0000746DAF800000CF0DBFD07F12803984201
:101FF00024D349462822DAF8000001AB0CF08CFE0D
:10200000002FC2D03A46DAF80000144901AB0CF0B8
:1020100083FEBAE70424104B11499A69086801321B
:102020009A611A79002142F008021A713368006837
:102030000DEB04021C650DF0F9FFB2E7D8F818307B
:1020400029460133C8F81830054B01AA1B681868E7
:102050000DF0ECFF99E700BF000003200C290320DE
:102060004C290320E428032060280320002110B518
:102070000A4A0B4C1268236982B01068013301AA26
:10208000236101910DF0D2FF019B2BB14FF0E023B2
:102090004FF08052C3F8042D02B010BD5029032028
:1020A00000000320002110B50A4A0B4C1268E369B6
:1020B00082B01068013301AAE36101910DF0B6FF0F
:1020C000019B2BB14FF0E0234FF08052C3F8042D59
:1020D00002B010BD4C2903200000032038B50C4687
:1020E000104D294605F0E6FDA10303D5EB68A3B921
:1020F0000D4A1360620309D52B690B4A012B137932
:102100000CBF43F0040303F0FB031371230303D557
:102110000122054B83F8202038BD4FF00042024BCE
:102120001A60E7E7B828032000000320704700BFCB
:1021300091B14FF0FF3210B4084C014410F8013B4C
:102140005340DBB254F82330884283EA1222F5D19F
:10215000D0435DF8044B704708467047CC11010826
:102160000022014B1A6070475C290320034B1B6857
:102170009B7C03B9704700F0A9BE00BFDC000320C0
:10218000024A136801331360704700BF5C290320C3
:10219000024A136801331360704700BF58290320B7
:1021A00000200DF0D7B900BF00200DF0D3B900BF5B
:1021B00000200DF0CFB900BF00200DF0CBB900BF5B
:1021C000124B1B68198901B310B400245B68104AD4
:1021D00003EB411CD3E90001C2E900019868996949
:1021E0009061D8682033506153F8100C6345C2E900
:1021F000024053F80C0C02F1740242F8100C42F841
:10220000041CE7D15DF8044B70477047DC000320E5
:1022100060290320F0B50024051B18BF01250746DF
:10222000154B6D4285B003F52E76EDB218460822A7
:1022300029460EF0FDFC03467433B342C0E9114455
:10224000F4D10FB105B0F0BD0C4A0D4D02AC92E8CF
:1022500003000822CDE9000195E8030084E80300AB
:102260006946084803F038FD08222146064803F075
:1022700033FD05B0F0BD00BF84290320B80E01086E
:10228000180E01086C2A0320E02A0320002208B55A
:102290000549064B09681A70887CFFF7BBFFBDE84B
:1022A0000840FFF78DBF00BFDC000320760003204D
:1022B00098B138B5094B1A6882420DD00122084CFA
:1022C00018602578807CEDB22270FFF7A3FFFFF73E
:1022D00077FFFFF77FFD257038BD7047DC000320D6
:1022E0007600032000293CD0F0B5744B83B01D6804
:1022F000AF7C6FB906462C8A44B1EB6803EBC40C83
:102300001C68B4420FD008336345F9D103B0F0BD67
:10231000C0F30743EF2B4FEA1024C0F31126EAD88D
:10232000674E2640E7E71C79E7B1B6F56F4F49D015
:102330004FF6D4539E4266D04FF602739E4200F091
:10234000AD800F2C10D12B681046DB6F00929847A0
:10235000009A137803F00303032BD7D0594B18834B
:10236000D4E77047082C3BD02B68104603EBC4031E
:102370005B689847102CC9D801A353F824F000BF1C
:10238000292400085D24000863240008692400084B
:102390006F240008752400087B24000881240008AD
:1023A000872400084124000849240008512400081B
:1023B00057240008352400083B2400085D2300084A
:1023C0002F240008C0F30720132860D05A289DD17D
:1023D0002B6810465B6D98473A4AC3B2D37595E7B0
:1023E0002B6810465B6C0091019298470099354C20
:1023F000C0B20129207389D0019A1046FFF7FEFA76
:1024000084F8200082E7C3B2212B4ED05A2B7FF4F0
:102410007DAF2B681046DB6C9847C3B2032B3FF4AB
:1024200075AF284A937571E7264B58806EE7254BA8
:10243000D8836BE7234B188268E7224B988365E7C4
:10244000204BC0B2987561E71E4BC0B2D8755DE7EE
:102450001C4B58835AE71B4B588257E7194B18807F
:1024600054E7184BD88051E7164B98804EE7154B30
:1024700098824BE7134B588148E7124B188145E788
:10248000104BD88142E70F4BC0B218733EE72B6860
:102490001046DB6A98470B4B588137E71046FFF729
:1024A000EBFA084B83F8200030E72B6810465B6F8F
:1024B0009847044AC3B2938328E700BFDC00032097
:1024C00000FF030054000320324B1B78002B5FD128
:1024D0002DE9F04FDFF8C0A003F0FF06DAF8003076
:1024E00083B01B89002B50D0DFF8B08007464446EC
:1024F0003546DFF8AC900AE0DAF8003001351A8989
:10250000ABB29A4204F1740406F174063DD9E36E4D
:10251000626EFB1A9342EFD3B4F9703006F12400D7
:1025200000EBE300002B404408DBB4F868300222E3
:102530005BBA01A9ADF8043003F0CEFBB4F97230F8
:1025400004F1240B002B4FEAE30112DB5846FFF79E
:10255000EFFD0422B4F972300190002BB8BF0733AD
:1025600006F1240000EBE30040440DEB020103F010
:10257000B3FBD9F80030594623612046FFF796FC9B
:10258000A36EE7660133A366B6E703B0BDE8F08F3C
:10259000704700BF76000320DC0003206029032081
:1025A0000000032010B50B4C216004460A490A6064
:1025B0000A490B4A0B60029B136000F06BF820463F
:1025C00003F0B6F9204601F0A5F9204603F0EAFB36
:1025D000002010BD242C0320202C03201C2C0320C1
:1025E000182C032038B5054603F0C2F904462846E6
:1025F00001F09CF9034628461C4303F0DFFBE4B2DC
:102600002043C0B238BD00BF70B51E4B82B01B68FE
:1026100004460D46164603F0E1F9012813D01A4B83
:102620003246294620461B6801F090F901281FD048
:10263000164B3246294620461B6803F0E9FB012869
:102640000BD002B070BD0022114B11461B681868F8
:10265000022300920DF0CAFBE1E700220C4902239D
:1026600009680868114600920DF0C0FB02B070BD09
:102670000022074B11461B681868022300920DF0D8
:10268000B5FBD5E7202C03201C2C0320182C03209D
:10269000242C032000B583B0102001A900F09EF87F
:1026A00008B903B000BD0021102000F07FF8003809
:1026B00018BF012003B000BD00B583B0102001A9F0
:1026C00000F08CF820B90146019820B903B000BD94
:1026D000012003B000BD102000F068F8003818BFDA
:1026E000012003B000BD00BF70B5002682B00446D3
:1026F0000D46102001A9019600F070F810B9019B59
:10270000A34202D8012002B070BD04F11100294695
:1027100080B200F063F8801B18BF012002B070BDCA
:10272000002210B5114B82B01B78019213B91846E4
:1027300002B010BD044601A9102000F04FF840B9C6
:1027400001981130FF2804D8214680B200F02EF8FD
:1027500018B10123184602B010BD019910200131B3
:1027600000F024F8031E18BF0123E0E777000320E0
:10277000014608B5102000F031F8003818BF0120DC
:1027800008BD00BF10B505F027FC00200AF07CFD55
:10279000044618B905F034FC204610BD00200AF0AC
:1027A00041F905F02DFC204610BD00BF38B50446A8
:1027B0000D4605F011FC204629460BF00DF8C30527
:1027C000044603D405F01CFC204638BD0AF004FA88
:1027D0000443A4B205F014FC204638BD0AF05EBBE9
:1027E00084462DE9F8430CF50055104695F827214D
:1027F0000CF580540F461E46B4F89210B4F894308D
:1028000072B3002940F08E80072B40F2A0803E2B4F
:1028100040F2B9804FF04008B3F5805F4246C146B0
:102820005FD21B0A43F010030370B4F894300CF528
:1028300084514370023A1C31023003F04DFA0122F8
:102840000223A8F1020887F80090A4F89280A5F866
:102850001C2184F891300120C4F89860BDE8F88309
:10286000B1B307224FF008085B1A1FFA83F9B5F8D5
:102870001C31914503F00F0343F0200300F8013BA6
:10288000B4F8923003F5845303F11C030CEB0301FD
:102890004CD903F021FA87F80080B4F89230B5F8EB
:1028A0001C21013B9844A4F8928095F822313BB159
:1028B000B2FBF3F103FB112313B9022384F8913027
:1028C0000132A5F81C210120C4F89860BDE8F88306
:1028D000072B3CD94FF00808B3F5805F4246C1464C
:1028E0009FD310230360B4F894300CF584511B0A75
:1028F0000371B4F89430063A43711C31063003F08A
:10290000EBF901220223A8F1060887F80090A4F849
:102910009280A5F81C2184F891300120C4F89860B9
:10292000BDE8F8833F224FF040089DE74A4603F098
:10293000D3F9032309F101023A7084F89130B4F815
:102940009230B5F81C219944A4F89290B8E700F8A9
:10295000013B0CF58451B4F894201C3103F0BCF910
:1029600001210322B4F894300B443B70B4F8943046
:102970000120A4F89230A5F81C1184F89120C4F825
:102980009860BDE8F8830170B4F894300CF5845178
:102990004370B4F894201C31023003F09DF9B4F870
:1029A0009430012103220233DFE700BF70B5002419
:1029B0000E4600F580530470C0F802400473846032
:1029C000C3F89240C3F89840A3F88E40A3F8904013
:1029D00000F50053054621464FF48452C3E94744AD
:1029E000C3F82861C3F824410D300EF021F94FF4EB
:1029F0008452A8182146BDE870401C300EF018B96A
:102A0000F0B591B0169D0446856019B396461278CC
:102A10008C46100903281DD8DFE800F0024C7A220A
:102A2000003B18BF012304F5005282F826312378B9
:102A300023B10621002382F8241123709EF8005050
:102A4000BCF1080F05F00F0500F2D1800123002D25
:102A500040F0D680237B012B00F0A78011B0F0BDA1
:102A600004F5805797F8911002F00F0204F5005614
:102A70004B1E012A86F82121DBB200F00B81022ACD
:102A800000F01181002A40F0FB80BCF1010F00F042
:102A90001E819EF80130BCF1020F86F8223101D070
:102AA0009EF80220022986F82321D3D1012387F83A
:102AB0009130CFE7003B18BF012304F5005686F89C
:102AC0002631227822B1062286F8242100222270A3
:102AD000BCF1070FBED99EF800209EF8010002F05D
:102AE0000F01014340F09C80DEF8022012BA072A51
:102AF000B0D9B2F5845F40F2F0800222072086F858
:102B00001E2186F82401217096F81F21322159E0F8
:102B10002378012B9ED104F58057B7F88E1002F070
:102B20000F0201F00F039A4240F0A2806088A38850
:102B300097F890201B1A9BB2002A00F0BE80551E09
:102B4000AEB29E4280F0BC80944583D14A1C92B2C2
:102B5000EDB20D30A7F88E200EF101012A46204477
:102B600003F0BAF86388A2882B449BB29A42638030
:102B700000F0B08004F5005696F81F21002A3FF4BB
:102B800069AFB7F88E30013B93FBF2F102FB1133D2
:102B9000002B7FF45FAF96F8263196F81E11003BAC
:102BA00018BF012341F030010CE004F5005696F8FF
:102BB000263196F81E11003B18BF012396F81F21FD
:102BC00041F0300100208DF8012003228DF8001023
:102BD00096F820112073D6F828015B058DF80210B5
:102BE00083616946C260FFF761F911B0F0BD002D45
:102BF0007FF430AF9EF801500223002D3FF42AAF3E
:102C0000ACEB03018D423FF725AF0EEB03012A46E3
:102C100004F10D0003F060F802236580237019E7CA
:102C2000120202F470620243072A7FF613AF0221F8
:102C30000B46ACEB0303DDB204F58057A280714470
:102C40002A4687F890C004F10D0003F045F80123EF
:102C500000226580237086F81E21A7F88E3096F832
:102C600026313021003B18BF012396F81F21A9E728
:102C70000421002304F5005282F824112370E9E6B0
:102C8000012B3FF6E7AE0522032386F8252187F8BE
:102C90009130DFE6012B3FF6DDAE0223C7F89850F6
:102CA00087F89130D6E6012B3FF6D4AE08220323F5
:102CB00086F8252187F89130CCE6072B3FF6CAAE7F
:102CC0009C457FF6C7AE4A1C92B2DDB241E786F85A
:102CD0002221E7E602232370BCE606210B46A8E783
:102CE0000378012B01D0002070478268064B891AB7
:102CF0009942F8DD0321002300F5005282F82411E7
:102D000003700020704700BF400D03002DE9F04123
:102D100000F58055144695F8912092B0561E012E6C
:102D200005D9032A0ED0002012B0BDE8F081D5F8F5
:102D30009830394ECB1AB3420BD9022300F500501C
:102D400080F825310023012085F8913012B0BDE8CC
:102D5000F081012AE7D100F5005696F9237196F823
:102D60002321002F05DA0F32D2B2082A8CBF7F222E
:102D700001229A42D7D80B4602AA0DF10701FFF7AC
:102D80002FFD9DF80780B8F1080F38D9B8F10C0F66
:102D900037D9B8F1100F36D9B8F1140F35D9B8F1C9
:102DA000180F34D9B8F1200F33D9B8F1310F34BF2F
:102DB0000E270F27384602F083FF80450AD2A0EB8A
:102DC0000802013AD2B202AB0021013203EB080043
:102DD0000DF02EFFE76096F82731003B18BF012366
:102DE0005B05A36102E0012002F096FF204602A9E4
:102DF000FFF75CF80028F6D195F8912091E7474657
:102E0000D8E70927D6E70A27D4E70B27D2E70C270C
:102E1000D0E70D27CEE700BF400D030000F580523C
:102E2000B2F89430B3F5845F14D892F891309BB91E
:102E300000F5005300204FF0010CA2F89200A3F817
:102E40001C01C2F8981093F8261183F8271182F814
:102E500091C07047012070474FF0090C00F50053F6
:102E600083F825C1E6E700BF830F032BC0F30D40B5
:102E700020D0012B0ED0B3B9B0F5B97F21D01F23DC
:102E80005FFA80FC000A012281F800C048708B7054
:102E9000CA70704740F263539842F0D102204FF05D
:102EA000740C0D23EFE79128E9D10B204FF0380C7B
:102EB0000223E8E72928E2D102204FF07F0C092302
:102EC000E1E70B204FF0EF0CDDE700BF2DE9F04FFD
:102ED000456893B0B5F1804F02D013B0BDE8F08FD4
:102EE0000668C068C6F307470C4602F0E9FEEA2F01
:102EF000C6F3072832D0EC2FEFD1B8F15A0FECD13E
:102F00000728EAD92378102BE7D1E3793002C549A5
:102F1000A27980B20143647908201B0443EA0223AA
:102F2000234300224FF0FF34099123FA00F18DF87A
:102F300021308DF822101B0C0C9007A909A8CDE9AF
:102F40000D22CDE90F220A958DF823300B921192B4
:102F500007948DF82040FEF7A9FFBEE70228BCD9F0
:102F6000B8F1FF0F23D0B8F15A0FB6D1A37861782A
:102F700022781B0443EA01231343B3F56E4F40F05C
:102F8000C480A94A33029BB21A4300234FF0804504
:102F90000824A64909A8CDE90A53CDE90C43CDE997
:102FA0000E33CDE910330992FEF780FF95E7A37841
:102FB000617822781B0443EA01231343B3F56E4F73
:102FC00000F02E814FF6C552934200F0CB804FF6B1
:102FD000CA62934281D14FF0000904A8CDF8109045
:102FE000FFF7C6FB924B049AB3F81EA0012ACAF35E
:102FF000400A4FEA8A1A4AF03F0A5FFA8AF440F21E
:103000002981920002321FFA82FA8A4B0AF10601E4
:10301000A3FB0103C91A03EB5103C3F387074FF066
:10302000804385490A930991082120230C91834903
:1030300007AA08910DF1240B4FEA1A218DF81E10F2
:10304000584611468DF81C301546CDE90D99CDE94D
:103050000F99CDF82C90CDF844908DF81DA08DF8E7
:103060001F70FEF723FF764B0993002F3FF435AF17
:10307000CDE9027B4FF00108A3460DF1230608229B
:10308000FF21284602F024FE334656469A4608F1B0
:10309000FF34C4EBC4048DF81C80A4B20195A64291
:1030A0001ADDA3B243B3012B2DD0A7B2023F05A96D
:1030B000B810CDF8149007F00307FFF715FB05983B
:1030C00006A9FFF7D1FE0DEB07031B7E05F8013FB4
:1030D000AA4504F10104E2D15346019D0398294613
:1030E000B24608F101081E46FEF7E0FE029B5FFAB9
:1030F00088F84345C3D2F0E605F801BFAA4504F1BC
:103100000104CED1E8E7FF23E0E74FF6C552934232
:1031100028D04FF6CA6293423FF45DAF08270022E1
:10312000FF240A956FF0FE0506FA07F0454980B2C4
:103130000143099123FA07F18DF821308DF822100F
:103140001B0C07A909A8CDE90B27CDE90D22CDE974
:103150000F228DF82330119207958DF82040FEF74D
:10316000A5FEBAE6384802F0CBFD00224FF08041C0
:103170000824314DCDE90A12099505462021CDE9F3
:103180000C42CDE90E22CDE91022304A294B08929B
:10319000AA1D8DF81C10A3FB0213D21A07A803EB7B
:1031A000520325FA04F10DF1240BC3F387088DF8BF
:1031B0001E100746014658468DF81D508DF81F8099
:1031C000FEF774FE1E4B0993B8F1000F3FF485AE75
:1031D0000124DFF874900DF12306A4EB090A0822FC
:1031E000FF21384602F074FD3A46631EC3EBC30369
:1031F0009BB2013B8DF81C404B440AEB03018D420E
:1032000005DD13F8011F02F8011F9642F5D10134C4
:1032100039465846E4B2FEF749FEA045DFD25CE6E7
:103220000B4AB2E65A00EC1C5A00EE18E4150108ED
:1032300054000320254992245AFFEC1CFFCAFE00CB
:103240005AFFEB1C5A00E818CC150108FFC5FD0019
:103250005AFFEE1808224FF0804316490C9209914C
:1032600007A908460D46FF210A93CDE90D99CDE93E
:103270000F99CDF82C90CDF8449002F029FDFF2253
:10328000049B8DF81C40012B8DF81D2006D0CDF835
:103290001E90294609A8FEF709FE1EE606A9484623
:1032A000CDF81890FFF720FA06980DF11E01FFF7F0
:1032B000DBFDEEE75ACAFE182DE9F043144602780A
:1032C0000646013A1D4685B0092A11D8DFE812F0FA
:1032D0001C0010000A008A01100010000A001000F3
:1032E00066010A00012900F08A817F22122101E093
:1032F0007F221121032322703278A17062702B800B
:10330000002005B0BDE8F0830229EED141232370EF
:10331000437863709E2BE8D801A252F823F000BFD7
:103320007738000855380008EB3200088D37000860
:1033300083370008793700086F37000865370008C1
:10334000EB320008EB320008EB320008EB320008E9
:103350004F3700083F370008353700083537000879
:103360001538000813370008EB3200082D38000824
:10337000EB32000821380008EB320008EB3200087D
:10338000EB320008EB320008EB320008EB320008A9
:10339000E9370008EB320008EB320008C9370008B3
:1033A0000938000809370008EB320008EB32000842
:1033B000EB320008EB320008EB320008EB32000879
:1033C000EB320008EB320008EB320008EB32000869
:1033D000EB320008EB32000813370008EB3200082C
:1033E0001337000809370008EB320008D538000809
:1033F000C9380008EB320008EB320008EB32000855
:10340000EB320008EB320008EB320008EB32000828
:10341000BD380008EB320008B1380008EB32000874
:10342000A5380008EB320008993800080937000871
:103430008D38000813370008833800081337000858
:10344000EB3200082737000827370008EB32000866
:10345000273700080937000809370008EB32000851
:10346000EB320008A3370008EB320008EB3200080B
:10347000EB3200081D3700081D370008EB3200084A
:10348000EB320008EB320008EB320008EB320008A8
:10349000EB320008EB320008EB320008EB32000898
:1034A00097370008EB320008FF370008F3370008B1
:1034B000EB320008EB320008EB320008EB32000878
:1034C000EB32000841380008EB320008EB3200080C
:1034D000EB320008EB320008EB320008EB32000858
:1034E000EB320008EB320008EB320008EB32000848
:1034F000EB320008EB320008EB320008EB32000838
:10350000EB320008EB320008EB320008EB32000827
:10351000EB320008EB320008EB320008EB32000817
:1035200035380008EB320008EB320008EB320008B7
:10353000EB320008EB320008EB320008AD37000830
:10354000EB320008EB320008EB320008EB320008E7
:10355000EB320008EB3200081D370008EB320008A0
:10356000EB320008EB320008EB320008EB320008C7
:10357000EB320008EB320008EB320008EB320008B7
:10358000EB320008EB320008EB320008EB320008A7
:10359000EB320008BD3700080937000802297FF424
:1035A000A4AE49232370437863700A2B3FF69DAE87
:1035B00001A252F823F000BF57360008EB32000892
:1035C00077360008EB32000865360008EB32000859
:1035D000F9360008EB320008EB320008EB32000845
:1035E000DB36000801297FF480AE0191FFF764F813
:1035F000019968BB337840332370298080E602A8A4
:10360000FFF7B6F820BB029B5A1C52002A80327882
:1036100063704032DBB22270002B3FF471AE07467C
:1036200004F1020904F103080CE0039B1A0E09F8E7
:1036300017201B0C9DF8082008F817300137BA42F4
:103640007FF65EAE384603A9FFF74EF80028ECD0AF
:103650007F2210214EE644F254020623C4F80220D1
:103660002B804DE601239E49A370E01C02F040FB35
:1036700013232B8044E614230120E61CA07031465E
:103680002B80FFF7ABF8E11D05460220FFF7A6F8F7
:10369000034604F10B0103201D43FFF79FF8034687
:1036A00004F10F010420ADB21D43FFF797F8034664
:1036B00004F113010520ADB245EA0304FFF78EF8CB
:1036C000A4B244EA00039BB2002B3FF419AE1122CE
:1036D0000021304602F0FCFA12E60123E61CA3703A
:1036E00014220021304602F0F3FA30467D4902F000
:1036F000FFFA17232B8003E6782207237A49A27169
:10370000C4F802102B80FBE5042200232A8063808A
:10371000F6E5032200232A80A370F1E5032280232B
:103720002A80A370ECE50322704B2A805B881B097A
:10373000A370E5E503228A232A80A370E0E5032233
:103740006B4B2A809B8AC3F30723A370D8E504231D
:10375000674A2B809388C3F34A13A3709388DB00D6
:10376000E370CDE5032288232A80A370C8E50322F5
:103770007E232A80A370C3E5032274232A80A370CA
:10378000BEE503224C232A80A370B9E5042202235C
:103790002A806380B4E50622564B2A80C4F80230A2
:1037A000AEE5032201232A80A370A9E507210023A7
:1037B000514A2980C4F80220A371A1E50622002302
:1037C0002A80C4F802309BE504232B800BF0F8FF1D
:1037D0004A4DA5FB00239B0BA3700BF0F1FFA5FB4B
:1037E00000539B09E3708BE503220A232A80A37010
:1037F00086E504224FF413432A80638080E5032288
:103800007D232A80A3707BE506223D4B2A80C4F8E5
:10381000023075E504224FF41C532A8063806FE563
:1038200004224FF47F432A80638069E503232B80C1
:10383000A37065E50622334B2A80C4F802305FE5A9
:103840000023092140F269122980C4F80220E38094
:10385000237255E503A8FEF78BFF08B100230393FD
:1038600000230621039A298002F07F02A270E370F0
:103870002371637144E50622234B2A80C4F8023089
:103880003EE5032251232A80A37039E504224FF438
:103890009C532A80638033E504224BF635732A80DB
:1038A00063802DE50622194B2A80C4F8023027E5F3
:1038B000042243F60B132A80638021E5042248F694
:1038C00013232A8063801BE50622114B2A80C4F84B
:1038D000023015E5032264232A80A37010E500BF9F
:1038E000C40E0108D40E010801123456C40003208E
:1038F0005400032060800001010C9500D34D62103C
:103900008005B0150204000CBE1FA8137EDC8C01DC
:103910008C92802308B503490348FFF747F800203D
:1039200008BD00BF78000320282C03200146014871
:10393000FFF7D6B9282C03200146024A0248FFF7B8
:10394000E5B900BFA0000320282C03202DE9F04199
:103950000446D0E90050B0F1804F884616461F4615
:1039600082B008D018B940F2E6739D421AD0002008
:1039700002B0BDE8F081C5F30743EF2BF7D1C5F3E3
:1039800007235A2BF3D105F10F03DBB2092BEED835
:103990002B029BB205F0E0551D4345F46F0545F041
:1039A0005A0501E040F2EE751C4BC3E900501C4B78
:1039B000C3E9005098F800301A4D0F2B03D82B782C
:1039C0000BB100232B70E06802F07AF90096A3692E
:1039D0000146A3F50013B3FA83F3424611485B098D
:1039E000FFF70EF82A78022AC1D14FF0FF330E49B3
:1039F00038680BF0F7F84FF0FF3304460B496A883C
:103A000038680BF0EFF86B8804440233A34201D00E
:103A1000FDF7ACFB002301202B70A9E7A0000320D9
:103A200078000320282C03202A2C0320352C032087
:103A30000020F0B4049F4E4D4E4E388037602B600E
:103A4000002A4ED00846114602781C460F2A4AD951
:103A5000103A762A3DD8DFE802F0553C3C3C3C3C2D
:103A60003C3C3C3C3C3C3C3C3C3C3C3C3C3C3C3C96
:103A70003C3C4B693C3C3C3C3C3C3C3C3C3C3C3C4A
:103A80003C3C3C3C3C3C3C3C613C3C3C3C3C3C3C51
:103A90003C3C3C3C3C3C3C3C3C3C3C3C3C3C3C3C66
:103AA0003C3C3C3C3C3C3C3C3C3C3C3C3C3C3C3C56
:103AB0003C3C3C3C3C3C3C3C3C3C3C3C3C3C3C3C46
:103AC0003C3C3C3C3C3C3C3C3C3C3C3C3C3C3C3C36
:103AD0003C007F221121032322700278A1706270C2
:103AE0003B80F0BC70473B462246F0BCFFF7E4BB8E
:103AF000012904D04378012B2BD0022B21D07F2227
:103B00001221E8E70129FAD0437803F0FB03812B67
:103B1000F5D15022012322703B80E2E70129EED04B
:103B20004378012B11D0022BE9D1DAE70129E6D045
:103B30004378012B14D0022BE1D100220E4B1A70D6
:103B4000CFE701220C4B1A70CBE77E2222703B801C
:103B5000C7E7094A13700278403222703B80C0E701
:103B60000021054A11700278403222703B80B8E78C
:103B7000584D0320544D032076000320814204D980
:103B800000F17840B0F5802F01D30020704701F19B
:103B900078410139B1F5802F2CBF002001207047FA
:103BA000814208D9B0F1005F05D3044881428CBF3F
:103BB0000020012070470020704700BF0000042053
:103BC000814211D9B0F1005F10D31A4B994219D933
:103BD000194B984208D9194881428CBF0020012016
:103BE0007047B0F1006F15D200207047144B984217
:103BF0000AD8144B9842F4D9134881428CBF002054
:103C00000120704701207047104881428CBF00207E
:103C1000012070470E4B9942E6D80E4BB3F8E030C6
:103C2000B3F5007FEED00C4881428CBF002001200C
:103C3000704700BF000004203F20024040210240A6
:103C4000FFFFF90BFFFFF80B0080F90B0002FA0BE6
:103C5000000008080005FA0B0000040800B58BB04E
:103C600001A804F0B5FB0598AA3818BF01200BB0D5
:103C700000BD00BF00B58BB072B601A804F0A8FB70
:103C800004214FF40052079B019143F08063CDE97A
:103C9000062304F0A1F918B162B601200BB000BDF3
:103CA00004F0BAF90028F7D101A804F06FFA10B9AE
:103CB00004F0D4F9F0E704F0C3F904F0A1F9EBE75C
:103CC00010B58AB004F088F9044604F0A5F904435D
:103CD00001A804F07DFB04214FF480729DF81E3092
:103CE000E4B2C3F3001383F001031B05CDE90623FF
:103CF000019134B104F0A4F904F082F901200AB072
:103D000010BD01A804F042FA0028F3D104F0A6F98E
:103D1000044604F095F9044304F072F9E4B2204338
:103D2000C0B2003818BF01200AB010BD30B58BB04A
:103D300004F052F9044601A804F04AFB0023802253
:103D40000798022110F4801FCDE9033200930CBFC5
:103D500002230123019101A86946029304F0CEFBDE
:103D6000054604F04DF928432043C0B2003818BF7F
:103D700001200BB030BD00BF70B504F02DF9054631
:103D80000F4C104ED4E90023B3F1FF3F08BFB2F14E
:103D9000FF3F04F5802107D0012004F09BF90028A3
:103DA00018BF45F00105EDB20834B442EAD104F081
:103DB00027F92843C0B2003818BF012070BD00BFEA
:103DC00000E0030800000408002330B58FB0009322
:103DD00004F002F90223044605A8019304F0F8FA5E
:103DE0000B9B042213F4801F4FF07C0014BF0223AE
:103DF0000123694603900DEB02000492029304F044
:103E00007DFB054604F0FCF8054344EA0500C0B21A
:103E1000003818BF01200FB030BD00BF014608B503
:103E2000012004F057F9003818BF012008BD00BF79
:103E30000022014B1A6070475C4D0320514930B499
:103E40000A884AB1B2F57B6F68D24F4BC2EB02329F
:103E5000A3FB0232C2F3CF224C4C4B8822804BB1E1
:103E6000B3F57B6F5DD2484AC3EB0333A2FB032358
:103E7000C3F3CF23464D8A8863802B68B2F5506F19
:103E8000A0EB03030FD30122642B227120D92860F9
:103E90004FF0000C94E807003E4B84F808C003C3C1
:103EA00030BC1A807047B2F5406F17D2B2F5306F50
:103EB0003AD2B2F5206F21D2B2F5E06F48D2B2F516
:103EC000807F4DD94FF0000C642B84F804C039D8A2
:103ED0004FF0000C84F808C030BC70470322642BFC
:103EE0002271F5D92B4B28601B79012BD0D1637936
:103EF000062B01D8013BDBB26371C9E70522642BB5
:103F00002271E5D9234B28601B79012BC0D1E388AE
:103F100083F4807323F0FF03E380B9E740F6FF7278
:103F20009AE740F6FF73A5E70422642B2271CFD9EC
:103F3000184B28601B79012BAAD1A37983F00103C8
:103F4000E380A5E7134B28601B79012BA0D1A1E7E3
:103F50000622642B4FF0010C2271BBD9286099E72F
:103F60000222642B2271B3D90A4B28601B79012BE2
:103F70008ED163799A1FD2B2F82A84BF0133DBB2A3
:103F8000637185E7604D0320BFBF8C82C4000320AE
:103F90005C4D0320D00003200022014B1A707047B3
:103FA000664D0320154B164A1B781188B2F802C0E3
:103FB000507963B9134B1980A3F804C01873107AB1
:103FC0001179D288987583F820105A8370471F2979
:103FD0000C4B08D91980A3F804C00028EED1D98968
:103FE000C9B21973EBE7BCF11F0FF3D8598889B236
:103FF0001980D98889B29980EFE700BF664D032008
:10400000C400032054000320014B1860704700BF18
:10401000684D0320704700BF00B5044B83B018689B
:1040200001A907F0D9F9019803B000BD684D03203C
:104030000D4B02781B68403201291A700FD900B568
:10404000A1F1020E10FA8EFE024610F801CF724561
:1040500003F801CFF8D1054B1B68198000BD034B55
:104060001B681980704700BF944D0320904D0320BA
:1040700030B54378044685B013B98378442B0FD00C
:104080007F204FF0310C03213C4B3D4A1B681268E6
:104090001870207883F802C05870118005B030BDC8
:1040A0000B2903D07F204FF0130CECE7354B197828
:1040B000022903D04FF07F0C7F20E4E71B7F022B07
:1040C00011D1314D6B7B13F0FB030FD07F202425E2
:1040D00003212A4B2A4A1B681268187020789D70A9
:1040E00058701180DAE74FF0330CE5E7D0F80300A1
:1040F000AB6001232B73D4F8073000BA1BBAC11888
:104100006B6001922860FFF739FD1C4B19681C4B4E
:10411000D3F800C040B36B68019A13F0070F0AD0C0
:104120007F2370200B70032394F800E0887081F8DF
:1041300001E0ACF8003023786A734FF20F042025B9
:1041400040338DF80C3003AA4B1EC81C8DF80D505F
:10415000ADF80E4012F8011B03F8011F8342F9D19C
:104160000423ACF8003099E77F22312003230A7042
:10417000227888704A70ACF800308FE7944D0320A5
:10418000904D0320704D03209C4D032003780F2B8E
:1041900040F283802DE9F047A3F1100204460D465A
:1041A0008EB0772A7FD8DFE812F0420232027E001A
:1041B0007E00C5017E007E007E007E00AC017E0098
:1041C0007E007E007E007E007E007E007E00F80184
:1041D000E20108027E007E006C019F01920115023F
:1041E0007E0085017E002202D5017E005C017E00FA
:1041F0007E0048012201ED00DD00D0007E007E003F
:104200007E007E00320105017E007E007E007E0081
:104210007E007E007E007E007E007E007E007E00AE
:104220007E007E007E007E007E007E007E007E009E
:104230007E007E007E007E007E007E007E007E008E
:104240007E007E007E007E007E007E007E007E007E
:104250007E007E007E007E007E007E007E007E006E
:104260007E007E007E007E007E007E007E007E005E
:104270007E007E007E007E007E007E007E007E004E
:104280007E007E007E007E007E007E007E007E003E
:104290001501C300B300A6008D00A24BA24A1B6803
:1042A0001268FFF709B87F20112503219E4B9D4A14
:1042B0001B681268187020789D70587011800EB0BD
:1042C000BDE8F087012D40F2FA84427802F07F03C6
:1042D000012B00F01485032B00F0FF847F201225B2
:1042E0000321914B8F4A1B681268187020789D70CB
:1042F00058701180E3E77F20112503218A4B894AFA
:104300001B681268187020789D7058701180D6E76D
:10431000022D00F0A8847F2013250321824B814ABF
:104320001B681268187020789D7058701180C6E75D
:104330007F20122503217C4B7A4A1B681268187073
:1043400020789D7058701180B9E77F2011250321D6
:10435000754B744A1B681268187020789D705870ED
:104360001180ACE7704B6F4A012D1B68166800F096
:10437000A9837F2113200322197021789870597026
:1043800032809CE7012D40F23B83684E737B012B0A
:1043900000F01A85644A6349022B1268086800F02D
:1043A000C2857F21242503231170217895705170D7
:1043B000038084E7022D00F06D847F201325032104
:1043C000594B584A1B681268187020789D705870B5
:1043D000118074E77F2011250321534B514A1B683C
:1043E0001268187020789D705870118067E7022D50
:1043F00000F22D817F20132503214B4B494A1B6876
:104400001268187020789D705870118057E7012D40
:1044100040F20383437803F00F02042A00F0C184C2
:104420007F2012250321404B3E4A1B6812681870FA
:1044300020789D705870118041E73D4BB3F8E03013
:10444000B3F5007F00F09C847F2011250321364BBB
:10445000344A1B681268187020789D70587011805B
:104460002DE7032D00F2FB807F20132503212E4B27
:104470002C4A1B681268187020789D705870118043
:104480001DE7012D40F2E382467806F07F06012EFB
:1044900000F0CD84022E00F0EB847F201225032152
:1044A000214B204A1B681268187020789D70587044
:1044B000118004E77F20112503211B4B194A1B683B
:1044C0001268187020789D7058701180F7E67F2070
:1044D00011250321144B134A1B68126818702078A9
:1044E0009D7058701180EAE67F20112503210E4B44
:1044F0000C4A1B681268187020789D7058701180E3
:10450000DDE6094F022D3B6800F242827F20132531
:104510000321044A1870207812689D705870118029
:10452000CDE600BF904D0320944D03209C4D032009
:104530000005FA0B042D00F0B3827F201325032120
:10454000A44BA54A1B681268187020789D7058709B
:104550001180B4E67F20112503219E4B9E4A1B68E3
:104560001268187020789D7058701180A7E6012D90
:1045700040F26082437803F00F02042A00F0448482
:104580007F2012250321934B934A1B6812681870F1
:1045900020789D705870118091E6032D00F0A18263
:1045A0007F20132503218B4B8B4A1B6812681870E0
:1045B00020789D705870118081E67F20112503219D
:1045C000844B854A1B681268187020789D7058705B
:1045D000118074E67F20112503217E4B7E4A1B68E3
:1045E0001268187020789D705870118067E6022D4F
:1045F00000F2F5817F2013250321764B764A1B6854
:104600001268187020789D705870118057E6714BB1
:10461000714A022D1B68166800F026827F21132044
:1046200003221970217898705970328047E6022D64
:1046300000F0F1827F2013250321664B664A1B6838
:104640001268187020789D705870118037E6022229
:10465000294620460EB0BDE8F047FFF709BD90F9A6
:1046600001204378002ABCBF03F07F0343704388D6
:10467000B8BF01265BBA9BB2A8BF0026B3F5097F7D
:1046800000F35F85B3F5007F2ADBA3F50073242BCD
:1046900026D8DFE813F0ED00D600C500B200A30075
:1046A00090006800590050014801250025002500B0
:1046B0002500250025001401FF0025002500250008
:1046C00025002500250025002500250025002500C2
:1046D00025002500250041012601760143003D000B
:1046E0007F20312103223B4B1B6818702078997082
:1046F000394958700B681A80002E3FF4E0AD354AF6
:10470000126812787F2A3FF4DAAD00221A80D6E5CB
:10471000052D00F069877F201321E3E7042DFAD1EE
:10472000FDF7AAFA0A2009F089FD2A4B1A682A4BDC
:104730001B6821784031117061785170A1789170B7
:10474000E178D1701D80D7E7224A234B042D1268EF
:104750001B6800F02D877F21132011702178907045
:1047600051700325EEE70B2DD5D9456887682DBA22
:104770003FBA28467919FFF723FA0028B0D0394606
:104780002846FDF7D5FC01460827124B25781A6804
:10479000403515706078104B5070A0781B68907091
:1047A000E078D171D070080E1071080CF94050718A
:1047B00091711F80A0E7074A074B062D11681B68FF
:1047C00000F002877F2213200A70227888704A70D6
:1047D000032290E7944D0320904D03207120042183
:1047E000AB4B1A68AB4B107060781B685070A078A8
:1047F0009070E078D07019807EE7A54B7120196821
:10480000AB1E0A46087014FA83F3214614F8010F10
:104810008B4202F8010FF8D19E4B1B681D806BE79D
:10482000FFF7AAFA9A4B1A689A4B1B68002800F007
:104830000F877F21722011702178032590705170AD
:1048400080E7FFF7C1FA924B1A68924B1B68002869
:10485000EFD12146207840301070A81E14FA80F065
:104860000C4611F8017F844202F8017FF8D169E714
:10487000874A884B042D12681B687FF46CAF41781F
:10488000012900F09487022940F08987002082499D
:1048900008704EE7042D7FF43EAF804B1A78022A51
:1048A00000F0AA877F227F200321794B1B681870B4
:1048B00020789A70774A5870136819801CE7042D85
:1048C0007FF429AF754B1A78022AEBD11B7F022B9C
:1048D00040F08F874378012B00F0CF877F20122193
:1048E00000E7052D7FF417AF0079FDF7C3FAFDF758
:1048F000C3F90A2009F0A2FC0420654B21781A684C
:10490000644B40311B68117061785170A1789170CF
:10491000E178D1701880EFE6072D7FF4FCAE04300B
:10492000FDF79AFAE3E75D4B1B7F022B00F011863F
:104930007F203321D6E6082D7FF4EDAE4378012B9E
:10494000CCD1C379042B7FF4CBAE80792279637903
:10495000000240EA026040EA034040F00400FDF734
:10496000DFFE002800F056857F2072250321484A8B
:10497000484B12681B681070207895705070198031
:10498000BAE6072D7FF4C7AE0430FDF77BFAAEE739
:10499000592204211A70427899705A70427802F0B4
:1049A0007F02012A00F09C82022A00F093827F2578
:1049B00012260320374A1D70257811689E705D709D
:1049C000088094F90130002BBFF679AC3B681B7866
:1049D0007F2B3FF474AC0021136819806FE42F4BD8
:1049E0001E78022E00F055827F220320284B294991
:1049F0001B6809681A7024789A705C7008805EE4FD
:104A00007F2013250321224B224A1B68126818704D
:104A100020789D705870118051E47F201325032168
:104A20001B4B1C4A1B681268187020789D705870C8
:104A3000118044E47F2013250321154B154A1B6880
:104A40001268187020789D705870118037E47F20AC
:104A5000132503210E4B0F4A1B681268187020782B
:104A60009D70587011802AE40C4A1278012A00F0D7
:104A70007682427802F07F02012A00F0A9837F212A
:104A8000122003221970217898705970328016E430
:104A9000944D0320904D032076000320704D032099
:104AA0004378FF2B00F072827F2031250321A74B32
:104AB000A74A1B681268187020789D705870118082
:104AC000FFF7FDBBA34A517B032900F032837F210E
:104AD0002420032219702178987059703280FFF7D2
:104AE000EEBBB0F8012052BA90B20022A0F50071DE
:104AF000B1F5007FCDE90122CDE903220092C0F09B
:104B00006B82A0F57142843A0C2A08D8DFE802F0E3
:104B100072076C63070707075A07070715007F200E
:104B200031250321894B8A4A1B6812681870207846
:104B30009D7058701180FFF7C2BB69460120FDF7D8
:104B40004DFE01A905460220FDF748FE034602A9D5
:104B500003201D43FDF742FE034603A90420ADB226
:104B60001D43FDF73BFE034604A90520ADB21D43DE
:104B7000FDF734FEADB20543ADB2112269460DF129
:104B8000170001F0A9F8002DC9D1142523786F4A28
:104B900066781168A2784033681E8DF814308DF85D
:104BA00016208DF8156005AA4B1E11FA80F012F838
:104BB000011B03F8011F8342F9D1654B1B681D805F
:104BC000FFF77DBB0C2264490DF1170001F084F85A
:104BD0000F252378DBE7042260490DF1170001F06F
:104BE0007BF807252378D2E75D4A042512788DF8F3
:104BF0001720CCE70C225B490DF1170001F06CF88F
:104C000020230922584909A88DF82330192501F0DD
:104C100063F82378BBE7437803F07F03022B00F0AF
:104C20005B82032B00F04482012B40F06A82002259
:104C30004B494E48C1E903220B70464B02605A7340
:104C40004A610A778A6194F901306278002BFFF695
:104C500036AB50203D4B3E491B6809685A701870AE
:104C60000D80FFF72CBB427802F07F03012B00F090
:104C70007F81022B00F053827F2012250321334BCA
:104C8000334A1B681268187020789D705870118024
:104C9000FFF715BB4378002B00F09381802B3FF486
:104CA0000EAB7F2012250321284B294A1B6812686E
:104CB000187020789D7058701180FFF700BB7F201E
:104CC00013250321214B224A1B6812681870207893
:104CD0009D7058701180FFF7F2BA244D29680029A1
:104CE00040F02E817F202225184A19491268096850
:104CF00010702078957050700B80FFF7E0BA022D8D
:104D000000F037828378103B032B00F2F285DFE856
:104D100003F01917021B164B144A136094F9013063
:104D2000002BFFF6CCAA0221084A237812684033F0
:104D3000074D137060782B6850701980FFF7BFBA69
:104D40000C4BE9E70C4BE7E70C4BE5E7944D0320F0
:104D5000904D03209C4D03209005FA0BFC0E01089A
:104D6000704D0320E40E0108F00E0108984D032059
:104D700020A1070090D0030048E8010040420F0046
:104D8000022D00F23C817F2013250321B14BB24A52
:104D90001B681268187020789D7058701180FFF79A
:104DA0008EBA03F0F002402A40F22C817F201225B7
:104DB0000321A84BA84A1B681268187020789D70C0
:104DC00058701180FFF77BBAA91E11F007051FFA72
:104DD00081F840F09A80B36872684344934200F2CD
:104DE0009480327B4378934200F042847F20732585
:104DF0000321984B984A1B681268187020789D70A0
:104E000058701180FFF75BBA03F0F002402A40F2BD
:104E100029817F20122503218E4B8F4A1B6812683F
:104E2000187020789D7058701180FFF748BA40F2D2
:104E30006713ADF81430FFF7EFF8884A884B42400B
:104E4000C3E903021E7794F9013000BA002BCDF8B4
:104E50001600FFF634AA06217E4B05981B687E4A91
:104E60001860BDF81800126898801180FFF727BA03
:104E7000062D00F0CB817F2013250321754B764A48
:104E80001B681268187020789D7058701180FFF7A9
:104E900016BA4FF28412B0F8013058BA80B220F03E
:104EA0000801914200F0F68049F2F102934200F0CD
:104EB0006382072D00F057837F2013250321654B64
:104EC000654A1B681268187020789D7058701180B0
:104ED000FFF7F5B9032D00F0CE817F25132668E595
:104EE000032DFAD1002205A8DA70FDF741FC5A4AD9
:104EF0003B681668002800F024837F211970722116
:104F000020789970587035805BE57F2071250321EA
:104F1000504B514A1B681268187020789D70587069
:104F20001180FFF7CCB9022D00F061817F2171253E
:104F3000032311702178957051700380FFF7BFB97A
:104F4000130600F12481C7200221424B424A1B680C
:104F500012681870607858701180FFF7B0B97F221E
:104F600003211A7000789A7058703180FFF7A7B942
:104F700011063FF5A4A9C521364B374A1B681268B4
:104F80001970417859701580FFF799B98378FF2B14
:104F90007FF48AADC378FF2B7FF486ADFDF78CFBE1
:104FA000002800F01D847F2072250321294B2A4A06
:104FB0001B681268187020789D7058701180FFF778
:104FC0007EB97E21234B244A1B68126819704178F0
:104FD00059701580FFF773B96946FDF7FFFB00288C
:104FE00000F027817F2131201A4B1B4A1B68126871
:104FF00019702178987059701580FFF760B90122F7
:10500000FFF726BB1B095A1DAA4280F2D380002B52
:1050100000F0A7820027591E0530C90010F8012FA3
:105020008A4008393A4311F1080F97B2F6D19E1D14
:10503000F3199D4200F072827F2013250321054B56
:10504000054A1B681268187020789D70587011808E
:10505000FFF735B9944D0320904D03207856341254
:10506000704D0320AF4A1278012A00F032811B09EB
:105070009A1D954200F0EE817F2013250321AA4B53
:10508000AA4A1B681268187020789D7058701180A9
:10509000FFF715B97F2031250321A34BA34A1B68D5
:1050A0001268187020789D7058701180FFF707B94A
:1050B0009F4A928A92B2B2F5805FC0F041817F2010
:1050C0008825994A99491268096810702078957066
:1050D00050700B80FFF7F3B8954B9B8A9BB2B3F5EA
:1050E000805FC0F003817F20222503218E4B8F4AF1
:1050F0001B681268187020789D7058701180FFF737
:10510000DEB87F2012250321874B884A1B6812686E
:10511000187020789D7058701180FFF7D0B8120673
:105120003FF5CDA8294620460EB0BDE8F047FEF772
:105130007FBF04215173027840321A703580FFF727
:10514000BEB8B3F57F4F00F050814FF60172934225
:105150007FF4C6AA042D7FF4DEAA4378012B7FF4E6
:10516000BDAB704B1A78022A00F07C837E22FFF7D9
:105170009ABB7F20132503216B4B6C4A1B68126876
:10518000187020789D7058701180FFF798B801232F
:10519000684C26782370FCF717FE4FF47A7009F0FC
:1051A0004DF8F6B22868FCF717FEFCF765FD26708F
:1051B000FFF785B87F20132503215B4B5B4A1B68F3
:1051C0001268187020789D7058701180FFF777B8BA
:1051D00051221A7042785A70358090F90130002BB4
:1051E000BFF66DA80EB0BDE8F04702F049B8317BBC
:1051F00063788B4200F050817F2173250323117067
:105200002178957051700380FFF759B8454B9A6922
:10521000042A40F20B817F2036250321424B434A6A
:105220001B681268187020789D7058701180FFF705
:1052300046B860782378A478403304228DF81500AE
:1052400069460DF117008DF814308DF8164000F006
:1052500043FD354B0DF113021868431E063012F85A
:10526000011F03F8011F9842F9D107222F4B1B6839
:105270001A80FFF724B8002205A8DA70FDF778FA43
:105280008146002840F02D81059B002B00F0AA826A
:1052900080466E4612E09DF803203B685A55BDF8E3
:1052A000022003F82820009A2B44120A9A70009AD0
:1052B000DA70059B0435984580F01F8140463146E1
:1052C000FDF712FA08F101080028E4D04FF00109B7
:1052D000EFE77F220320144B14491B6809681A70FA
:1052E00024789A705C700880FEF7E9BF00230D4AAD
:1052F0001148C2E90333114903604B7353611377BB
:10530000936194F901306078002B1570FEF6D7AFE9
:105310005021054B054A1B6812685870197015809A
:10532000FEF7CDBF704D0320944D0320904D032018
:105330005400032076000320984D03209C4D032049
:105340000022B349B348C1E903220B70B24B427348
:105350001A604A610A778A6194F901306078934251
:10536000FEF6ADAF5021AD4BAD4A1B6812685870C8
:1053700019701580FEF7A3BF142D7FF49DADD4F8EE
:1053800003100120FDF712FAD4F807100546304645
:10539000FDF70CFA0346D4F80B1003201D43FDF76C
:1053A00005FA0346D4F80F100420ADB21D43FDF7F3
:1053B000FDF90346E17C0520ADB21D43FDF7F6F98A
:1053C000ADB245EA00039BB2944A95491268096858
:1053D000002B00F0F0817F207225032310702078CD
:1053E000957050700B80FEF76ABF042D7FF493A96F
:1053F0004378012B7FF472AA854B1A78022A7FF436
:10540000B5AE1B7F022B40F0F481FEF78FFC002825
:105410007FF4AAAA04212046FEF70AFE804B1B68EF
:105420001A88002A3EF44BAFFFF766B958685969ED
:10543000411A092900F2FA807F2037250321774B92
:10544000774A1B681268187020789D705870118018
:10545000FEF735BF002B00F08D800026013B411D7B
:10546000DB0011F8012F9A40083B13F1080F46EAC0
:105470000206F6D140F6FE739E427CD97F2031258C
:105480000321664B664A1B681268187020789D706D
:1054900058701180FEF713BF013333732378002156
:1054A00040331370637802F8013FB3680BE034684F
:1054B0000131E35CB1F57F6F02F8013FB36803F19E
:1054C0000103B36003D07468A342F0D389B2726859
:1054D000023193420180FEF4F2AE03237373FEF7B0
:1054E000EEBE7F2272203B681A7021784C4A5970B8
:1054F000987013681D80FFF764BAB9F1000F00F0CF
:1055000071817F213B687225197003212078444AFC
:1055100058709D7013681980FFF753BA3C4B1A7886
:10552000022A00F0F0807F227F2503203B4B3C497C
:105530001B6809681D7024789A705C700880FEF7FB
:10554000BEBE062005995971090A19713080FFF70E
:1055500038BABFF34F8FBFF36F8F431D9847FFF7E4
:10556000CBB91F4663E5D4F8031009BAFDF71EF95D
:10557000034629E71E46D4F802502DBA7119284671
:10558000FEF71EFB254B264A1B681168002800F019
:105590001D812278ED1A40321A709A1902E0E85CF7
:1055A00003F8010F9A42FAD1731C0B80FEF787BEF5
:1055B0004178012900F0D980022940F0F0800020D4
:1055C00018490870FFF7B5B8828840F6FB7052BAE8
:1055D00092B2824240F2CD807F2231200A7022783E
:1055E00088704A70FFF7F4B84378012B7FF476A9EE
:1055F0000379002B00F04A81012B7FF471A80A483F
:10560000FCF756FE29462046FEF712FD06E700BFCE
:10561000704D03209C4D0320984D0320944D032092
:10562000904D0320664D0320EC150108197F0129D8
:1056300000F0EF807F2024250321B64BB64A1B687B
:105640001268187020789D7058701180FEF737BE70
:105650002146207840301070A81E14FA80F00C46C5
:1056600011F8017F844202F8017FF8D1FFF76AB890
:105670000133337302F0B0FCB8F1000F5ED027465F
:10568000AA46A946B0683B797A791B0403EB02630A
:10569000FA78397A03EB02237A7A090401EB026182
:1056A000BA780AF1080A134419EB0302FB790837A8
:1056B00001EB0323316801F58021084417F8021C2F
:1056C0000B44FEF7ABFB40EA0503B068D04500F1A0
:1056D0000800DDB2B060D6D802F092FCD6E9013203
:1056E0009A4224BF0323737385B37F217220032260
:1056F000884B1B681970217898705970864B1B680D
:105700001A80FEF7DCBD1B7F022B2CD1D4F802508F
:105710002DBA28467919FEF743FA002840F0BE80DA
:105720007F20312503217B4B7B4A1B681268187050
:1057300020789D7058701180FEF7C1BD02F060FCAA
:10574000D6E901239A4201D8032373730220714AD8
:105750007149237812686478096840331370547073
:105760000880FEF7ACBD3322DEE66C480170FEF720
:10577000E0BF71200870084665784D70A5788D707F
:10578000E4780021151F00F8034F02E000F8011F24
:1057900001318D42FADC043292B2FEF7ACBF7F21B8
:1057A00012201170217890705170FEF7DABF5C48BA
:1057B0000170FEF7BEBF60782378A5785070032093
:1057C0004033137095700880FEF779BD7F20312536
:1057D0000322187020789D7058700A80FEF76FBD04
:1057E0000121A0E44C4A9B00116803330B80FFF7B2
:1057F000E8B83322FFF757B81B7F022BF9D1437863
:10580000012B7FF46BA8FEF75BFA00287FF4ACA8AD
:1058100000E6D4F802101D6909BA8D4212D00027A3
:105820007F2658613525032001329A61394A3A4969
:1058300012681F7716702378096853709570088076
:10584000FEF73DBD1E7794F90130002BFEF637AD13
:1058500040F267212F4A304B12681B6811801E806E
:10586000FEF72DBD1B7F022BC3D12E4B5B7B042B80
:10587000C9D07F202221FEF735BFFEF7EFF900BB2C
:10588000FEF7F8F900287FF46FA8C3E52648FCF777
:105890000FFD29462046FEF7CBFBBFE5022F23D0A4
:1058A000042F1CD0082F12D06FF00603E21D1B1B23
:1058B00002E012F8011F29709918B942F9D3314654
:1058C00031E40BF0A5FA00287FF44EA8A2E5A16808
:1058D000E0680BBA02BA3146C5E9002323E4A368A5
:1058E00031461BBA2B601EE4238931465BBA2B80FC
:1058F00019E47F22002631200321064B0B4D1B6843
:105900002E601A70044A247812685C7098701180B6
:10591000FEF7D5BC944D0320904D0320664D032027
:10592000760003209C4D032000160108984D0320AB
:1059300038B500240122094B09490A4D4C735860BF
:1059400009490A48C3E90344C3E905442C601A70B5
:105950001C77FDF72BF8204638BD00BF704D0320A3
:105960009C4D0320984D0320E00003206860022036
:10597000114B01461A78032A02D01048FDF7B0B93E
:1059800041F288305A688A1A8242F6D900224FF0D2
:10599000010C0B4810B40B4C427383F800C01A770B
:1059A000226006485DF8044BC3E90322C3E90522DF
:1059B0005960FDF795B900BF704D03206860022063
:1059C0009C4D0320984D03200146024A0248FDF7F2
:1059D0009DB900BF08010320686002202DE9F04353
:1059E000002585B004468DF80D50ADF80E50D0E975
:1059F0000050B0F1804F0F4690461E46C5F38269B5
:105A00000CD038B940F2E2739D4263D040F2DF73AC
:105A10009D420ED0002005B0BDE8F083C5F30743DA
:105A2000DA2BC5F3072200F09980DB2BF2D1FF2A95
:105A3000F0D1E06800F044F90028EBD03B780F2B60
:105A4000E8D8002B00F09680072BE3D8013883427A
:105A5000E0D8A2690137ADF80E30A2F5001201239B
:105A6000B2FA82F28DF80D30504B520983F826219C
:105A70006168B1F1804F00F08F8040F2EA7200213E
:105A80004B484C4B0260C3E9002141604FF0FF33AB
:105A900001220DF10D01306809F0A4F84FF0FF3339
:105AA000022204460DF10E01306809F09BF802460F
:105AB0004FF0FF33144439463068BDF80E2009F02A
:105AC00091F8BDF80E3004440333A34244D0FBF7F1
:105AD0004DFB41E040F2EA73364AC2E90030344AF5
