:020000040800F2
:10000000000004203DA20008B9A00008BDA000081F
:10001000C1A00008C5A00008C9A000088DA2000862
:100020000000000000000000000000007143010813
:10003000CDA000080000000001430108C11A01081A
:100040008DA200088DA200088DA200088DA20008D4
:100050008DA200088DA200088DA200088DA20008C4
:100060008DA200088DA200088DA200088DA20008B4
:100070008DA200088DA200088DA200088DA20008A4
:100080008DA200088DA200088DA200088DA2000894
:100090008DA200088DA200088DA200088DA2000884
:1000A0008DA200088DA200088DA200088DA2000874
:1000B0008DA20008D1A00008DDA000088DA20008D4
:1000C0008DA200088DA200088DA200088DA2000854
:1000D0008DA200088DA200088DA20008E9A00008EA
:1000E000F5A000088DA2000801A100088DA200085B
:1000F0008DA200088DA200088DA200088DA2000824
:100100008DA200080DA1000819A100088DA2000809
:100110008DA200088DA200088DA200088DA2000803
:100120008DA2000825A1000831A100088DA20008B9
:100130003DA100088DA200088DA200088DA2000834
:100140008DA200088DA2000849A100088DA2000818
:100150008DA200088DA200088DA200088DA20008C3
:100160008DA2000855A100088DA200088DA20008EC
:100170008DA20008000000008DA200080000000011
:1001800061A100088DA200088DA200088DA20008C0
:100190008DA200088DA200088DA200088DA2000883
:1001A0008DA200088DA200088DA200088DA2000873
:1001B0008DA20008000000006DA100088DA20008BB
:1001C0008DA20008000000008DA200088DA200088A
:1001D0008DA200088DA200088DA200088DA2000843
:1001E0008DA200088DA200088DA200088DA2000833
:0401F000000000000B
:1002000010B5054C237833B9044B13B10448AFF350
:1002100000800123237010BD600303200000000054
:100220008C4D010808B5034B1BB103490348AFF3DC
:10023000008008BD00000000640303208C4D01080D
:10024000034613F8012B002AFBD1181A0138704716
:10025000704700BF30B5214C214D83B04FF0FF33C4
:10026000022220680DF1060112F0C2FA022807D01E
:100270002B78012B29D001211A4809F0C9F9EDE7A3
:1002800042F20303BDF806209A42F1D816494FF016
:10029000FF33206812F0ACFABDF806108142E7D1B6
:1002A000114805F02FFD0028D8D12B78BDF8061095
:1002B000012B0D480DD004F0CFFF0128CED12B78B3
:1002C000B3FA83F35B092B70C8E7084809F00EFA0C
:1002D000C4E703F05DFE0128C0D1F0E778040320F5
:1002E0004C040320D04D010840B80020B04D010857
:1002F0002DE9F04F834C9BB0DFF82482824F834E70
:100300000AAD4FF0FF3328226946206812F070FAD8
:100310002828F6D1039809F025FB8346002840F0F1
:100320009380029B002B70D10098D8F8003098423F
:1003300000F092802A46594605F082FD12F0BCFF7B
:1003400029460246684605F03BFF12F0B5FF2946F4
:100350000246684605F0CCFC3B78002BD1D0069BCA
:10036000B3F5001F00F086800121BBF1080F28BF04
:100370004FF0080B002289465FFA8BFBDDE9013064
:1003800000286FD13144002B00F0AA805420B054D3
:10039000009809F0E3F909EB00035FFA83F9069A84
:1003A00006EB0901B2F5001F6FD00BF00F0009F04A
:1003B00053FA09EB00035FFA83FABBF1000F0CD08C
:1003C000A946AB4419F8010B06EB0A0109F034FA0F
:1003D000D94550445FFA80FAF4D1FA78002A5ED108
:1003E0007A791AB1069AB2F5001F7DD00D220AF172
:1003F00001014648C9B206F80A2009F009F90028A7
:100400003FF47FAF00233B707BE7B3F1005F9CD1EB
:10041000009BB3F5E06F98D13D4801990360039BC1
:100420004160082B28BF08231A460023C260C0E998
:100430000533836008223749374809F09FFA364967
:10044000334803F005FC80E702464FF0FF332946AE
:10045000206812F0CDF964E73049314803F0F8FB29
:10046000009867E77BB352204FF0000BB054314443
:1004700000988EE7059B0221B3F5801F14BF30233F
:10048000312301228946337078E7039800F00F008A
:1004900009F0E2F909EB00035FFA83FA8DE712F045
:1004A0000BFF4EF6602C1F4B06EB0A01A3FB00E28C
:1004B000920B0CFB120080B209F09CF90AEB0003CE
:1004C0005FFA83FA8CE772209B46B054009831445F
:1004D00080B209F079F909EB00035FFA83F95EE76E
:1004E0007420B0540098F3E7049AB2F1004F7FF4FF
:1004F0007DAF69220AF1010306F80A205FFA83FA48
:1005000074E700BFDC370320DC00032040B6002086
:10051000880303209005FA0B800303203039032061
:100520003839032073B2E7452DE9F0431F4D9BB0E6
:10053000DFF8808001AE0AAF002404EBC401C4F1EF
:1005400024024FF0FF33286806EB810112F050F9C6
:100550000444232CF1D9049809F004FA039B814642
:10056000B3F1005F00D0A0B911480AF04BFC50B1C4
:100570003A4631460E480AF005FBD8F80C300133F4
:10058000C8F80C30D8E74FF0FF32012113F014F90E
:10059000EAE70024A9EB040239194FF0FF33286879
:1005A00012F026F904444C45F4D3DDE7D837032094
:1005B0004027032010000320F0B583B005F0E6FBD0
:1005C00003F04AFA05F0FCFE00F08EFD07F0D8F8C3
:1005D00012F072FE05F082FB12F06EFE05F082FB57
:1005E0001E480EF0FBF91E480EF0C0F91D4D1E4EC0
:1005F0001E4F05E001330CD10A2101A812F03EFD87
:1006000012F05AFE32682B6801320190F2D10133A8
:100610000BD04FF47A7401E0013CEDD02846144928
:1006200003F016FB0028F7D0E6E707F0A7F80198DB
:1006300007F0ACF8019800F059FD3B7833B1019810
:1006400005F062FB019805F0B9FDD5E7019805F0CA
:10065000E9FC019805F044FBF1E700BF7824032092
:10066000E02303200C3903203839032086000320BF
:10067000043903202DE9F0410026244DDFF898804D
:10068000234FA6B04FF0FF320121002013F094F861
:1006900013F0CAFC1F480AF00BFD044606A91D48CA
:1006A0000AF06CFB02A91B480AF090FB5422294671
:1006B00011A8AC6014F012FB164B1E66189BB3F524
:1006C000003F02D9AB68990219D413F0BBFC620257
:1006D00098F8003003D52A7942F080022A7133B1AC
:1006E0000B9B23B1642011F0C7FA03F0B5F9002287
:1006F000022311463868009613F0E0F8C2E70123A0
:1007000085F820300B9303F031FADEE71000032068
:10071000041C0320402703207C03032000232DE931
:10072000F04385B05B4C5C4EDFF878815B4D0DF19A
:100730000E078DF80B3005E000214FF0FF32084620
:1007400013F03AF8206811F05DFF0028F4D04FF064
:10075000FF33012220680DF10B0112F049F8012846
:10076000EAD1206811F04EFF0128E5D94FF0FF33A0
:100770000222206803A912F03BF80228DCD1BDF860
:100780000C20B2F5845FD7D8002A56D19DF80B9083
:10079000B9F1000F16D112F08FFD414B3146BDF873
:1007A0000C20009708F066FEBDF80E30002B57D1E4
:1007B00012F082FD31463A4BBDF80C20009708F04C
:1007C000A9FEB9E712F078FD354B3349BDF80C208E
:1007D000009708F077FEBDF80E3023B330490A7851
:1007E0007F2A08D1022B1ED98B78A3F11102012A8E
:1007F00019D9312B17D04FF0FF3302223946D8F8E0
:10080000000011F00DFF4FF0FF332549BDF80E2019
:10081000D8F8000011F004FF0022022311462868D6
:10082000009213F04BF812F047FD1D4B1A49BDF82A
:100830000C20009708F06EFE7EE74FF00009A2EB57
:10084000090206EB09014FF0FF33206811F0D0FFD9
:10085000BDF80C2081441FFA89F94A45EFD195E78C
:1008600039464FF0FF330222D8F8000011F0D8FECD
:10087000BDF80E204FF0FF330949D8F8000011F001
:10088000CFFE02234A4649462868CDF8009013F06F
:1008900015F88DE7B8030320BCA5002054090320F8
:1008A00038950020B40303202DE9F843294E2A4D42
:1008B000DFF8B08006F19C0706F5805905E00021BD
:1008C0004FF0FF32084612F077FF286811F09AFEC9
:1008D0000128F4D94FF0FF3302222049286811F093
:1008E00087FF0228EBD1B6F89420B2F5845FE6D8F2
:1008F0006AB10024121B39194FF0FF33286811F038
:1009000077FFB6F894200444A4B2A242F2D112F0C8
:10091000D3FC0146124806F0D9F80028CFD112F0D6
:10092000CBFC08F0AFFC0128C9D0286811F06AFEA2
:100930000128C4D898F8003053B199F8230111F078
:100940009BF912F0B9FC08F09DFC0128B7D0ECE748
:100950000A20F4E77C850120B403032010860120DF
:100960007C7501208600032010B50C490C4808F066
:100970000BFE0A4A0B490C4813F006FF084C0B49C2
:100980004FF0FF334FF40062206811F031FF014651
:100990000028F4D0054808F00FFEF0E7A804032073
:1009A00050040320B42003207804032044D80020FE
:1009B00005F0BAB9002005F0BBB900BF0000000087
:1009C00010B59EB0482200210CA814F0FBF80023BB
:1009D0004FF40070CDE90233CDE90433CDE907339C
:1009E000CDE90933019306930B930CF053FB08B147
:1009F00072B6FEE701230222169311931993179200
:100A000010231D9207229FED1E7BCDE91A3203248D
:100A1000042312900CA81C938DED0C7B18940CF001
:100A200075FD034608B172B6FEE70F22214601A804
:100A3000CDE903330593029401920CF013FC0346B5
:100A400008B172B6FEE7104A4FF0005C916D4BF6AC
:100A50007F3441F080719165926D069302F080724F
:100A6000009208932222202306A8CDE90A230099A8
:100A7000CDF81CC009940DF0A9FC1EB010BD00BF3C
:100A80002900000000000100001002402DE9F041A3
:100A900094B072B64FF00062A44B9A60BFF34F8FD0
:100AA00062B6002409F0F4FB06F04AFDFFF788FF68
:100AB000CDE90F44CDE911449D4D1394EB6C4FF4F7
:100AC000604143F00403EB64EB6C224603F0040343
:100AD0000893089BEB6C974843F08003EB64EB6C46
:100AE000012603F080030993099BEB6C4FF4007817
:100AF00043F00103EB64EB6C082703F001030A9356
:100B00000A9BEB6C43F00203EB64EB6C03F0020313
:100B10000B930B9B0AF06AFF224640F201118648B4
:100B20000AF064FF224641F2E40184480AF05EFFC5
:100B30004FF460437F480FA9CDE90F36119412940A
:100B40000AF0A0FD40F201137B480FA9CDE90F3652
:100B5000CDE911440AF096FD41F2E40377480FA96C
:100B6000CDE90F36CDE911440AF08CFD72480FA98A
:100B7000CDE90F8411960AF085FD71480FA9CDE9E2
:100B80000F7411940AF07EFDAB6C052143F0040351
:100B9000AB64AB6C224603F004030593059BAB6C7E
:100BA0001D203343AB64AB6C33400693069BAB6CA8
:100BB00043F00203AB64AB6C03F002030793079BA3
:100BC00009F09CFB1D2009F0D3FB224605211E20C5
:100BD00009F094FB1E2009F0CBFB22460521502092
:100BE00009F08CFB502009F0C3FB20460BF086FA7D
:100BF00008B172B6FEE70BF095FA034648B95148C2
:100C00004360514B03600DF009FC034618B172B606
:100C1000FEE772B6FEE710224FF4407E4FF03C0C28
:100C2000042113250F24494882618262484A4360A7
:100C3000C3608374C3631370464BC0E907C5036088
:100C4000C0E90B41C0E90D66068246614662C0F804
:100C500008E009F0C9FD034658BB07224FF0FF31F9
:100C60004FF482754FF4E0643B48C0E90A323B4AD6
:100C7000C0E90433C2E90533C2E90133D36011602E
:100C8000374AC0E90833C2E90533C2E9013383605A
:100C90000363D360334BC0F818800360C7614763B8
:100CA0004560C46011600DF0EBFC034618B172B6EC
:100CB000FEE772B6FEE72C482C4AC0E90533838074
:100CC0000260066209F086FB034608B172B6FEE7D1
:100CD0004FF4027102222648C372264B8180C0F86D
:100CE000072003600BF028FA08B172B6FEE742F263
:100CF0000F7141F63F72204C204BCDE90F0011904F
:100D0000A060A061204623606160E2600EF056F8AA
:100D1000034608B172B6FEE720460FA90F93119360
:100D20000EF07EF8034658B372B6FEE700ED00E021
:100D30000010024000080242000002420004024289
:100D4000001C02424426032000080C4240270320D6
:100D50007C03032000A40040E02503203839032051
:100D60000C39032000380040A42703200030024043
:100D7000B820032000D40040782403200010004055
:100D80004F214FF6FF729248C0E9043383608361BC
:100D9000904B4160C26003600EF010F808B172B66B
:100DA000FEE700234FF6FF724F218B48C0E9023265
:100DB000C0E904338361894B416003600DF0FEFF9D
:100DC000034608B172B6FEE74FF080414FF0FF32A4
:100DD000834CCDE90F00CDE91100C4E901000CAD51
:100DE0000C902061A0612046C5E901332160E260DA
:100DF0000DF0E4FF08B172B6FEE74FF480532046D1
:100E00000FA90F930DF028FE034608B172B6FEE756
:100E1000204629460C930E930EF002F8044608B1C2
:100E200072B6FEE76F48704900902246CDE9014452
:100E30006E4B0C7043F69820012111F08BFB054698
:100E40006B4E6C4A00960121CDE901446A4B156056
:100E500043F69820224611F07DFB0546674E684A0E
:100E600000960121CDE90144664B156041F2010075
:100E7000224611F06FFB0246634E644D009601213D
:100E8000CDE90144624B2A6041F20100224611F093
:100E900061FB604B604A01210092CDE9014422468A
:100EA00018605E4B43F6982011F054FB5C4B5D4A92
:100EB00001210092CDE90144224618605A4B43F6C5
:100EC000982011F047FB594B594E1860204605F009
:100ED00043FA204605F05AFA5649574806F0AAFC4C
:100EE00005F0A8FA12F0E8F92A46544B5449009646
:100EF00005F052F9534806F0A3FC534804F0D4FE21
:100F00005248534A534902F08DFD0FA80F9405F043
:100F1000DFF910B90F9B002B55D010F0DFFD13F057
:100F20001FFB00214C4A4D4810F028FE04464C4B54
:100F300000214C4A4C481C6010F020FE04464B4BEC
:100F400000214B4A4B481C6010F018FE0446414BF0
:100F50000021494A49481C6010F010FE0446354BF8
:100F60000021474A47481C6010F008FE0446384BF1
:100F70000021454A45481C6010F000FE0446304BF5
:100F80000021434A43481C6010F0F8FD0446424BE0
:100F90000021424A42481C6010F0F0FD0446414BDB
:100FA0000021414A41481C6010F0E8FD0446404BD6
:100FB0000021404A40481C6010F0E0FD3F4B1860A3
:100FC00010F0AEFDFEE73E4805F05AF9A5E700BF78
:100FD000E023032000440140942303200048014003
:100FE000C42403207C0403204C040320DC1A0120C9
:100FF000540403207804032044E000202804032044
:10100000500403203485002004040320B803032087
:1010100030750020B4030320E0030320983A002039
:10102000DC370320BC03032000000020D837032056
:10103000AC03032058170320E0250320B00303204E
:10104000000E032044260320A4270320402703206A
:10105000AC120320041C0320D075010855020008BF
:10106000B4200320AC750108F1020008B020032071
:10107000887501082905000864750108B90500088C
:1010800040750108750600081C7501081D07000859
:10109000F8740108A908000854090320D474010851
:1010A00069090008A8040320B0740108B109000808
:1010B000A40403208C740108B5090008A0040320CF
:1010C000040029C0054A0368934203D0044A9342AE
:1010D00002D0704709F0EEB804F01EBE002C0140AB
:1010E0000010004072B6FEE7704700BF034B044A91
:1010F0001B68D07D1B6803491B6D184788000320BF
:1011000064000320CC3B032040F69E732DE9F0479A
:10111000DFF89CA02349244ADAF80040B1F800E047
:1011200012889C4204FB0E2238D800204FF08041E8
:1011300040F69F764FF030083127DFF878901B4D4E
:1011400009EB040C4B6A9342FCD32B69013013F476
:101150008073C0B204F1010472440ED118468CF8B9
:101160000080B4420CF1010CECD10120CAF800401F
:10117000002309F80430BDE8F0870A288CF80070D5
:10118000EFD9142C02D80CF1010CDBE7002309F88D
:1011900004300020CAF80040BDE8F0870120DFF8E5
:1011A0001490E5E70A00032008000320000402422F
:1011B000342803203828032070B500244FF08041E4
:1011C00001254FF6FF7086B0CDE90044CDE9024419
:1011D00004940A681A4E22F001020A603288194B00
:1011E000013A8A624C624D610A682A430A601A68B1
:1011F00022F001021A6098625C625D611A682A43FB
:101200001A6002F0B3FC2A464FF400710E480AF04F
:10121000EDFB4FF48072002369460B48CDE90023B3
:1012200002940AF02FFA4FF400730322694606482D
:10123000CDE90035039202940AF024FA06B070BD9D
:101240000C0003200048014000040242F0B5BDF844
:101250001440012C45D94FF0300C0127013C83F894
:1012600000C000293FD10A263D4604E08C46754661
:101270000127013E15D320FA06F101F0010105F125
:10128000010EA54201F130011FFA8EFE29DA8C45CC
:101290005955EBD10137FFB2052F4FD0013E7546AE
:1012A000E9D2002A0CBF30263126A54219DA691C82
:1012B000B4455E5589B200F0C1800127A14210DA21
:1012C00030224D1C9642ADB25A5400F0D980A5424E
:1012D00007DA881C80B25A5500221A54F0BDA54284
:1012E00039DB0020F0BD1C263D4605E08C467546E6
:1012F0000127013E112EF2D020FA06F101F0010182
:1013000005F1010EA54201F130011FFA8EFEE8DA67
:101310008C455955EAD10137FFB2052F01D07546EA
:10132000E7E7CCF1610CA6455FFA8CFC05F10205FC
:10133000D7DA012703F80EC0ADB2DAE7CCF1610CC1
:10134000A6455FFA8CFC05F10205CADA012703F80D
:101350000EC0ADB28DE74FF0310E691CF44589B275
:1013600003F805E04FD0A142BBDA03F801E0A91C65
:10137000F44602271FFA81FE04E08C46AE460127A0
:10138000013E22D320FA06F101F00101A64501F148
:101390003001A6DA0EF10105614503F80E10ADB279
:1013A000EBD10137FFB2052F01D0AE46E8E7CCF113
:1013B000610CA5425FFA8CFC0EF1020E91DA012756
:1013C00003F805C01FFA8EFEDAE7002A0CBF3025AD
:1013D0003125A64585DA0EF10102AC4503F80E5021
:1013E00092B262D00121A242BFF67BAF3027561CD9
:1013F000BD42B6B29F5477D0A642BFF672AF02325A
:1014000090B29F5568E7042F28D0A142BFF669AF7C
:101410000237FFB205F1020E052F03F801C01FFAD3
:101420008EFEAFD1A645BFF65CAF4FF0300C033552
:1014300003F80EC001271FFA85FEA3E70137FFB2AC
:10144000052F7FF43BAFA142BFF64BAFC6F161065B
:10145000F6B202355E540127A9B22FE7A142BFF6CA
:1014600040AF30275F54A91C89B28C427FF739AF57
:1014700005F1030E012703F801C01FFA8EFE81E774
:101480007A1CD2B2052A21D0A542BFF62AAF881C09
:10149000042A5E5580B27FF41FAFA042BFF621AF91
:1014A000312203311A5488B216E7791CC9B20529D2
:1014B00099D1A242BFF615AFC5F16105EDB20EF1AB
:1014C000020E9D5401211FFA8EF28CE7A542BFF651
:1014D00008AF31225A558A1C92B294427FF701AF6D
:1014E000C81C80B29E54F7E60131C9B2052910D05C
:1014F000A642BFF6F6AE9D55042902F10205ADB233
:1015000015D1A542BFF6EDAE3121033290B2595547
:10151000E2E6A642BFF6E5AE31219955911C89B2AB
:10152000A142BFF6DEAE033290B25D54D4E6284647
:10153000D2E600BF4B4B1868831C70D02DE9F04FEA
:10154000C71C91B077D0411C02D14FF000090BE0CD
:101550003024454B454A1978127804AB0094FFF7C4
:1015600075FE8146002860D04FF0804C404B414AC8
:101570001B88B2F800A003933F4B0AEB8A0E1F882A
:101580003E4B3F491C683F4E4FEA4E0E0B69DA0551
:10159000FCD5DCF8242092B20B69DB05F6D5DCF82B
:1015A00024309B1A9E45F7D80B6913F4807306D03C
:1015B000736ABB422DD80B6913F48073F8D1CCF851
:1015C0002430B9F1000F1AD01C464FF08040039A26
:1015D000DFF8B880DFF8A8B004AD436A9342FCD3CB
:1015E000DBF81030524413F4807F15F8013B0DD026
:1015F000312BCBD10134A14508F8013BEDD11F4B74
:10160000C3F80090002011B0BDE8F08F302BF1D06E
:10161000BCE70120194B1C6011B0BDE8F08F4FF002
:101620008043002200205A627047174808F05EF895
:101630004FF0000998E74FF080440E4B104A18888D
:1016400000EB800040001369DE05FCD5616A89B2B9
:101650001369DD05F7D5636A5B1A8342F8D300236B
:101660006362CFE7040003203128032030280320E1
:10167000080003200A000320000003203428032070
:1016800000040242004801406C4E01083828032043
:1016900002783AB34FF0000C30B5634686463125E8
:1016A0000BE02A2A07D10CF1010C1FFA8CFC8EF8F2
:1016B000005000EB0C0EC25C82B1A2F1300101338C
:1016C00001290CF101049BB2EBD88EF80020C25C1A
:1016D0001FFA84FC00EB0C0E002AEED100238EF8DA
:1016E000003030BD00230370704700BF70B5044662
:1016F00008F06EF914281ED900F1FF3E1FFA8EFE85
:1017000014F80E3004EB0E05312B2A4615D1831E3A
:101710009BB200EB040C0CEB03002A262344A0EB45
:101720000E0005E016701A461178013B312906D1EA
:10173000C11A0C29F6D9002070BD00EB040C002260
:1017400020460126144610F8013BA3F1300101297F
:101750002FD862B386B3052A42D0A3420FD0312BD3
:101760005ED0844515D010F8011B0122A1F1300391
:10177000012B79D830231C460B46A342EFD101320E
:10178000312CD2B256D084454FF001064FF03004D0
:10179000D9D10FFA8EFEBEF1000F06DB2A4615F8EE
:1017A00001392A2B58D05F2B37D0012070BD1C4641
:1017B00001228445C7D1ECE7A3420DD08445E8D08F
:1017C00010F8011B1C46A1F13002012A22D80B4659
:1017D000A3424FF00102F1D101320026D2B2E8E774
:1017E000A342A8D05F23844500F8013CD1D0034632
:1017F00013F8011BA1F13002012A20D86345C8D09B
:1018000043783246A3F13004012C00F102000C466B
:10181000A0D9CEE700260122CBE730231370C4E71E
:101820008445B6D010F8011BA1F13002012A1ED860
:101830000122A0E7062A8CBF00260126B9E76345EE
:10184000A7D01A780230A2F13003DBB2012B96BF89
:10185000144600223246ACE70EF1FF3E0FFA8EFE30
:10186000BEF1FF3F9AD1A0E730241646A1E701223E
:101870001C4616469DE700BF70B571B3002344F2C5
:10188000995600F1FF3C0CEB01051CF8012F5C00A0
:10189000A2F13102B2FA82F24FEA933E47F6FE73AA
:1018A0005209724503EA040318BF7340AC45ECD1FA
:1018B0004A1E00F10E0C024400208C4412F8011F55
:1018C0004000312908BF40F00100944580B2F5D1B5
:1018D000C01AB0FA80F0400970BD0B46E8E700BFBF
:1018E0002DE9F04F8FB0044608F072F8122840F24C
:1018F0004B812378302B05D0B4480FB0BDE8F04FB2
:1019000007F0F4BE074606AEB14807F0EFFE00252B
:101910003146234604F10B0C13F8012FA2F13100DC
:10192000B0FA80F09C454FEA501001F8012B40EAD4
:101930004505F1D14FF00008A6488DF8238007F047
:10194000D5FE06A807F0D2FEA34807F0CFFE03A9F4
:10195000284607F003FF03A88DF8148007F0C6FEA1
:101960009E4807F0C3FE94F80CA09D48657B8DF857
:1019700019808DF818A007F0B9FE06A807F0B6FE8A
:10198000984807F0B3FE98488DF8185007F0AEFE5F
:1019900006A807F0ABFE934807F0A8FE312D40F0F3
:1019A000FD80262F40F2F680454606AA04F10D017F
:1019B0000DF12A0011F8013F02F8013BA3F13103B8
:1019C000B3FA83F390424FEA531343EA4505F1D14A
:1019D0004FF0000885488DF82A8007F087FE06A89A
:1019E00007F084FE7C4807F081FE03A9284607F033
:1019F000B5FE03A88DF8148007F078FE774807F04D
:101A000075FE94F820A07A488DF819808DF818A0FA
:101A100007F06CFE06A807F069FE724807F066FE44
:101A200094F8213073488DF8183007F05FFE06A84F
:101A300007F05CFE6B4807F059FE94F822306E48C0
:101A40008DF8183007F052FE06A807F04FFE6548E3
:101A500007F04CFE2322002504F1040C06A8944450
:101A6000A11811F8013B00F8013BA3F13103B3FACF
:101A700083F38C454FEA531343EA4505F1D14FF008
:101A800000095E4802F1040801928DF81C9007F0ED
:101A90002DFE06A807F02AFEEDB24F4807F026FEFD
:101AA00003A9284607F0C8FE03A88DF80E9008EB9E
:101AB000C50B07F01BFE494807F018FE0BF10F039A
:101AC000BB42019A00F2E780BAF1300F00F0A68025
:101AD000002506A90BF1FF30204401F10F0710F893
:101AE000012F01F8012BA2F13102B2FA82F28F42EA
:101AF0004FEA521242EA4505F1D1002740480193CE
:101B00008DF8277007F0F2FD06A807F0EFFD3248C8
:101B100007F0ECFD03A9A8B207F06CFE03A88DF84E
:101B2000107007F0E3FD374807F0E0FD5946204606
:101B3000FFF7A2FE019B002840D0334807F0D6FDF6
:101B4000019BE25CE118A2F13003012B98BF012355
:101B500003D916E00133202B36D006F8012B11F8FB
:101B6000012FA2F130000128F4D900226B4427484C
:101B70001A7607F0BBFD06A807F0B8FD194807F074
:101B8000B5FD0FB0BDE8F08F21480FB0BDE8F04FB4
:101B900007F0ACBD1F4807F0A9FDF2E7A37B16488C
:101BA0008DF818308DF8198007F0A0FD06A807F011
:101BB0009DFD0C4807F09AFD0F224CE71648019353
:101BC00007F094FD019BBCE71F23CEE7A84E010858
:101BD000BC4E0108D04E0108E04E0108E84E010855
:101BE000EC4E0108FC4E0108004F0108244F01088B
:101BF000344F0108444F0108544F0108644F010855
:101C0000A04F0108B04F0108B44F0108C84F0108A8
:101C1000944E0108104F0108BC4F0108082D3FF6F3
:101C200057AF002D3BD06B1EDBB20C3202EBC30B67
:101C30000DF11F0700250DF1170204EB080111F843
:101C4000013B02F8013FA3F13103B3FA83F397425A
:101C50004FEA531343EA4505F1D113488DF820901C
:101C600007F044FD06A807F041FD104807F03EFDCF
:101C700003A9E8B207F0E0FD03A808F108088DF811
:101C80000E9007F033FD0A4807F030FDC345D1D16F
:101C90000BF10F031CE7074807F028FD71E7C34667
:101CA00002F1130314E700BF904F0108E04E010852
:101CB000E84E0108744F0108002800F0F98030B5A3
:101CC00083B0044607F084FE0130235C25180BB96D
:101CD000012038E02046774907F092FE48BB2046B5
:101CE000754907F08DFE20BB2046744907F088FE39
:101CF000002856D12046724907F082FE002862D0A3
:101D00000A2128460DF1070207F0E4FE9DF807308E
:101D1000002BDDD04FF6FE73421E9A42D8D8694B95
:101D200080B21A886849824208800BD34008188024
:101D300008E02846654907F063FE30B16FF0010204
:101D4000634B1A60002003B030BD2846614907F09C
:101D500057FE20B14FF0FF325D4B1A60F2E7284684
:101D60005D4907F04DFE20B16FF00202584B1A603A
:101D7000E8E7102128460DF1070207F0ABFE9DF8B9
:101D800007300446002BA3D0B0F1005FA0D2B0F51D
:101D9000006F03D3514B1A78002A50D04C4B1C6073
:101DA000D0E70A2128460DF1070207F093FE9DF8BF
:101DB0000730002B8CD04FF6FE73421E9A4287D814
:101DC000474B1880BEE72046464907F019FE90B100
:101DD0000A2128460DF1070207F07CFE9DF8073026
:101DE000002B3FF475AF384B1B8883427FF670AFF2
:101DF000344B1880A6E720463B4907F001FE80B12E
:101E000028463A4907F0FCFD002837D0304B384AC5
:101E10001B68A3F50063934246D900222F4B1A702A
:101E200090E72046334907F0EBFD70B128462F4973
:101E300007F0E6FD68B300222F4B1A7082E70122FB
:101E40002E481A7007F052FCA8E720462C4907F0EC
:101E5000D7FD00283FF43CAF0DF107020A212846C8
:101E600007F038FE9DF80720002A3FF431AFB0F5A7
:101E7000803FBFF42DAF234A108063E728462249F4
:101E800007F0BEFD00283FF423AF0122134B1A7068
:101E900058E728461C4907F0B3FD00283FF418AF67
:101EA0000122154B1A704DE7184807F01FFC0FE789
:101EB00001207047D84F0108E44F01082450010861
:101EC00030500108080003200A000320E04F0108F9
:101ED00004000320EC4F0108F04F010831280320D3
:101EE0000C0003203C5001084C50010858500108D8
:101EF000FFF7FF1F8850010830280320F84F010822
:101F00008C50010800000320845001085C50010837
:101F100010B5364884B007F0E9FB354B01A91888A5
:101F200007F006FE01A807F0E1FB324C324807F04B
:101F3000DDFB324807F0DAFB01A9206807F00EFC50
:101F4000002301A88DF80C3007F0D0FB2368991C02
:101F500040D05A1C42D0033344D0294807F0C6FB76
:101F6000284B01A9187807F0E3FD01A807F0BEFB94
:101F7000254807F0BBFB254B01A9187807F0D8FDD1
:101F800001A807F0B3FB224807F0B0FB214B01A9E1
:101F9000188807F0CDFD01A807F0A8FB1E4807F040
:101FA000A5FB1E4B01A9188807F0C2FD01A807F088
:101FB0009DFB1B4807F09AFB1A4B01A9188807F0F4
:101FC000B7FD01A807F092FB174807F08FFB002030
:101FD00004B010BD154807F089FBBEE7144807F0B0
:101FE00085FBBAE7134807F081FBB6E79450010878
:101FF0000000032004000320A0500108A85001089D
:10200000C850010831280320D4500108302803208B
:10201000DC5001080C000320005101080A000320D5
:102020001051010808000320FC4E0108B0500108BF
:10203000B8500108C05001082DE9F0410026104DAC
:10204000104FFFF7B9F86E626A6A3B889A4212D263
:102050004FF08044DFF83480B8F800206662636A8D
:102060009342FCD34FF40071074809F0C5FC6A6A3B
:102070003B889A42F0D301F0EFFC0020BDE8F081EC
:102080000048014000000320000402420A0003202F
:102090002DE9F04F7A4B91B01B88B3F57A7F60D968
:1020A000FFF78AF872B6774B1868831C00F0D78068
:1020B000C71C6DD0411C5BD14FF000094FF0804C24
:1020C000714B724A1B88B2F800A00393704B0AEB65
:1020D0008A041D686A4B6F49B3F800E06E4F6400D4
:1020E0000B69DA05FCD5DCF8242092B20B69DB051C
:1020F000F6D5DCF824309B1AA342F7D30B6913F40E
:10210000807307D07B6A734500F2B1800B6913F4CA
:102110008073F7D1CCF82430B9F1000F1AD01D46E6
:102120004FF08040039ADFF88C81DFF868B104AE8D
:10213000436A9342FCD3DBF81030524413F4807F9F
:1021400016F8013B0AD0312BCAD10135A94508F850
:10215000013BEDD14E4BC3F8009032E0302BF4D070
:10216000BEE74E4807F0C2FA002011B0BDE8F08F7C
:1021700030244B4B4B4A1978127804AB0094FFF78C
:1021800065F88146002899D1474807F0AFFA93E7F0
:102190004FF080443D4B3F4A188800EB80004000E0
:1021A0001369DE05FCD5616A89B21369DD05F7D5CF
:1021B000636A5B1A8342F8D300236362304BB3F83F
:1021C00000E00026344D6E626B6A73452FD22E4BB1
:1021D0004FF08041B3F800C02C4B2E4C1F8802E01A
:1021E0006B6A73452ED2236913F48073F8D162466B
:1021F0001846D5F824804B624B6A9342FCD323697E
:10220000013013F48073C0B219D00B283A44F3D1D3
:10221000A2EB0C024B6A9342FCD36B6AA3EB08035C
:102220001E446B6A7345DED3204B03FB06F662B691
:1022300001F012FC124B1B88B6FBF3F095E7184631
:102240003A44D9E762B601F007FC184B0C4A06FB8A
:1022500003F31088B3FBF0F011B0BDE8F08F4FF03E
:10226000804300225A62064BB3F800E0A9E7084B0E
:102270001D6062B60E4807F039FA01F0EDFB73E716
:102280000000032004000320080003200A000320AC
:102290003428032000040242004801402451010870
:1022A00031280320302803206C4E0108A08601004D
:1022B00040510108382803202A4B70B51B680333AE
:1022C000012B37D9FEF778FF72B60022264B5A62EF
:1022D000FFF730F928BBFEF717FF044600283AD174
:1022E00062B6224E3368072B2ED9214D284607F0BF
:1022F000FDF9204807F0FAF933682846EC54FFF757
:10230000F5F9D8B1284607F0F1F91B4807F0EEF9C6
:102310002846FFF7BDF9FFF7E3FA01F09DFB2046E1
:1023200070BD62B6154807F0E1F901F095FB012494
:10233000204670BD124807F0D9F9F8E7114807F0B8
:10234000D5F901F089FBF3E70F4807F0CFF901F069
:1023500083FB204670BD62B60C4807F0C7F901F058
:102360007BFBE4E7040003200048014034280320FD
:1023700038280320D4510108EC5101088851010884
:1023800054510108DC510108BC510108A451010855
:102390002DE9F04F91B0FEF70FFF72B600254FF018
:1023A000804270497048714B556205604D621868F3
:1023B000811C00F0A180C31C00F0B380421C7FD1BF
:1023C000AB464FF0804E6A4B6A481E886A4B06EB5C
:1023D00086041A88694BDFF88C81B3F8009064009A
:1023E0000369DB05FCD5DEF8241089B20369DF053B
:1023F000F6D5DEF824305B1AA342F7D3036913F451
:10240000807307D0D8F824304B457ED8036913F485
:102410008073F7D1CEF82430BBF1000F00F09B8021
:102420001D46574B11469A464FF0804703930DF1D6
:10243000100C7B6A8B42FCD34E4B31441B6913F466
:10244000807F1CF8013B54D0312BC9D10135AB45FD
:102450000AF8013BEDD1444B06FB0B22C3F800B058
:1024600040F69E739B451AD84FF080414FF0300CD8
:102470003127039B0BF1FF30424D3E4C18444B6A11
:102480009342FCD32369DB052DD500F8017FA842D8
:102490003244F4D140F69F739B46334A13600024C4
:1024A000039B03F80B4062B601F0D6FA344807F0FC
:1024B0001DF9354807F01AF9204611B0BDE8F08F34
:1024C000324B334A197830231278009304ABFEF76D
:1024D000BDFE834600287FF474AF2E4807F006F94E
:1024E000214B1D686DE700F801CFA8423244C6D1E8
:1024F000D0E7302BAAD073E71D4B1F491E88204B15
:102500005562AB460A880393AEE7174B1D6062B66F
:10251000214807F0EBF801F09FFA012011B0BDE867
:10252000F08F134B13491E8806EB860464000B6979
:10253000DF05FCD5506A80B20B69DD05F7D5536A1B
:102540001B1AA342F8D300230B490D489B46039066
:1025500053620A8888E70A4B0393034BC3F800B021
:1025600082E700BF00480140342803200400032014
:102570000A00032000040242080003200000032098
:1025800038280320D6370320FC4E010831280320C9
:10259000302803206C4E010840510108002800F04B
:1025A00019812DE9F04F95B0834607F011FAB0F587
:1025B0007A6F28BF4FF47A60894E814633680333BF
:1025C00040F0C480FEF7F8FD72B600254FF080445D
:1025D000844B65625D623068834B1D60831C00F034
:1025E000E380C71C00F0C580471C00F0BA80302390
:1025F00000937E4B1A787E4B197808ABFEF726FEC7
:102600008246002800F0AF807A4B4FF0804E1A8847
:1026100079491346098802EB820405917749784885
:10262000B1F800806F4F64000169CE05FCD5DEF87B
:102630002460B6B20169C905F6D5DEF82410891BFD
:102640008C42F7D8016911F4807107D0796A41454D
:1026500000F2B480016911F48071F7D1CEF8241032
:10266000BAF1000F00F0B8804FF0804C0D4665497C
:10267000059E0691049108A903910794DCF82410A3
:10268000B142FBD35E49039C0969164411F4807F73
:1026900014F8011B039460D0312960D1049C0135EA
:1026A00004F8011BAA450494E8D1059900241144BB
:1026B00018464FF080424FF4007E4FF0300840F64D
:1026C0009F7C494D504E4E4F2C60556A8542FCD33D
:1026D000A1453FD91BF80450312D3BD0302D04D1FA
:1026E0004FF0007A464DC5F818A0556A8D42FCD3CC
:1026F0003D690134ED0544BF312506F8015F3A4DCF
:1027000058BF06F8018F64452C6018441944DCD189
:102710004FF47A6000224FF0804100FB03F30698EB
:1027200080F89F2F4A6A9A42FCD34FF40072344BD0
:102730009A6162B601F090F9324806F0D7FF33484B
:1027400006F0D4FF002015B0BDE8F08F304806F049
:10275000CDFF37E7C7F818E0C7E730299ED0079CC0
:1027600062E7AA4650E72B4806F0C0FF1E4B1D68E3
:102770004AE7204B224D1A88134602EB820149009A
:102780002869C605FCD5666AB6B22869C005F7D5C2
:10279000606A801B8842F8D300216162164909886B
:1027A00005911849069180E7124A134B12881B883D
:1027B0001449656205930691134676E70A4B1D603E
:1027C00062B6154806F092FF01F046F9012015B0F7
:1027D000BDE8F08F012070470A49069165E700BF08
:1027E000040003200048014034280320302803203F
:1027F000312803200A0003200800032000000320E2
:10280000000402423828032037280320FC4E010828
:10281000FC5101086C4E0108885101082DE9F04F68
:1028200091B0FEF7C9FC72B600229C499C4B4A62EB
:102830001868831C00F01881C71C00F04981441CF3
:1028400002D14FF0000E0CE03024964B964A1978D6
:10285000127804AB0094FEF7F9FC8646002800F0DD
:1028600017814FF08044914A914B1288B3F800C011
:102870000392904B904A0CEB8C05B2F800B01E68A6
:102880008E49864F6D000A69D005FCD5606A80B21A
:102890000A69D205F7D5626A121A9542F8D80A6910
:1028A00012F4807207D07A6A5A4500F2D2800A691F
:1028B00012F48072F7D16262BEF1000F00F0258140
:1028C00016467F4A4FF080489146039802920DF1D8
:1028D000100AD8F824208242FBD3784A6044126957
:1028E00012F4807F1AF8012B00F0AA80312ACAD195
:1028F0000136B64509F8012BEBD1039A0CFB0E22E9
:1029000000244FF0804040F69E764FF0310830278B
:102910006A4D416A9142FCD32969013411F48071F6
:102920000AD1B64598BF029C624498BF04F80E7065
:102930000C460EF1010EECE7B64598BF02996244D1
:1029400098BF01F80E80092C0EF1010EE1D1039918
:10295000DFF848A1594EC3F800E0511A0393DAF8A2
:102960002400584533D840F68E739E452FD8029BDD
:102970000EF1FF351D4400204FF080434FF0310928
:102980004FF030080EF101045F6A8F42FCD3052836
:1029900094BF4FF000774FF40077B7615F6A9742BA
:1029A000FCD337696144FF0554BF05F8018F05F872
:1029B000019FDAF8247062445F4504EB000ECED824
:1029C00001301028E0D1DAF824305B45CBD94FF044
:1029D0008042039BC3F800E0536A8B42FCD32F4C28
:1029E000636A5B4518D84FF0804300274FF00076AC
:1029F0004FF400750CEB4C01304849004FEA0C1CB9
:102A00005F6286615A6A8A42FCD385615A6A62456E
:102A1000FCD3626A5A45F3D9BEF57A6F14D200230B
:102A2000029A02F80E3062B601F016F8244806F059
:102A30005DFE244806F05AFE002011B0BDE8F08F7C
:102A4000302A3FF455AF1EE70023029A82F89F3FD9
:102A5000E9E71E6062B61C4806F048FE00F0FCFF85
:102A6000012011B0BDE8F08F4FF08045104C144E9E
:102A7000104B0E481049B4F800C002966A620288F2
:102A8000D3F800E00392B1F800B00EFB0C2237E758
:102A90000E4806F02BFE4FF0000EE2E60048014023
:102AA00004000320312803203028032008000320DD
:102AB0000A000320342803200000032000040242FF
:102AC00038280320FC4E0108885101086C4E01088B
:102AD0004FF080420F4B1048B3F800C00CEB8C0154
:102AE00049000369DE05FCD5546AA4B20369DD051B
:102AF000F7D5536A1B1B8B42F8D30024074D084BB4
:102B00000295084808495462B9E70449039A0291BA
:102B1000F6E600BF0A000320000402423828032022
:102B20003428032008000320000003202DE9F04F83
:102B3000A24C93B023680333012B40F214818346E7
:102B4000FEF73AFB72B600264FF080429C4B5E6265
:102B50009C4B1E6056622068811C00F02581C31CBE
:102B600000F04A81421C72D134464FF0804C964BA3
:102B7000DFF864A21D88954B05EB850E1B889449F0
:102B80000593944BDFF83882B3F800904FEA4E0E6D
:102B90000B69DB05FCD5DCF8242092B20B69DF055C
:102BA000F6D5DCF824309B1A9E45F7D80B6913F450
:102BB000807308D0D8F824304B4500F2C6800B69EA
:102BC00013F48073F6D1CCF82430002C00F02E8161
:102BD0004FF080401E46804B06AF059A0493039742
:102BE000436A9342FCD37A4B039F1B692A4413F434
:102BF000807F17F8013B03973BD0312BC8D1049F4E
:102C0000013607F8013BB4420497E9D16D4B1C60D3
:102C1000059B05FB043300264FF0804240F69E7C66
:102C20004FF031094FF03008694F0BF1060E516A31
:102C30009942FCD33969013611F4807104F1010025
:102C40001AD1644521D90E4604462B44EFE7634B65
:102C50001A7830230093624B197806ABFEF7F6FA28
:102C60000446002881D15F4806F040FD554B1E68A0
:102C70007BE7302BC3D08BE7644598BF0AF80490FC
:102C8000B6452B4407D90446D1E70AF804800E461E
:102C900001342B44CBE701464FF08040059A9E1A41
:102CA000426AB242FCD34FF000774FF08040484A6E
:102CB0009761426A9A42FCD3454A0234126912F47F
:102CC000807F40F69E7255D1914261D93D48944231
:102CD00004602E442B4442D84FF080424FF4007CD5
:102CE0004FF031084FF0300E3F4F394C5144506A8D
:102CF000B042FCD3C4F818C0506A8342FCD82069A3
:102D0000C0051BD401F801EFB9422E442B44EED18B
:102D100040F69F732B4A136040F69F7300220AF817
:102D2000032062B600F098FE2B4806F0DFFC2F4827
:102D300006F0DCFC002013B0BDE8F08F01F8018F35
:102D4000B9422E442B44D2D1E2E71E4B28481C4600
:102D50001E6006F0CBFC2368B3F57A6FDED3002348
:102D60008AF89F3FDDE7234806F0C0FC012013B03E
:102D7000BDE8F08F9142A9D8124A2E441460312246
:102D80000AF8012040F69F7294422B44A4D1C3E775
:102D90000C4A2E44146030220AF8012040F69F723B
:102DA00094422B4498D1B7E7084B56621B88064AD9
:102DB00034461588DFF820A005932CE70400032093
:102DC00000480140342803200A00032008000320A3
:102DD000000402420000032038280320302803208A
:102DE000312803206C4E0108D6370320FC4E010821
:102DF000405201082C5201080D4B0E491D8805EB6D
:102E0000850464000B69DF05FCD5506A80B20B694C
:102E1000DE05F7D5536A1B1AA342F8D30024064BEC
:102E200054621B88DFF814A00593F4E6059BF2E6D4
:102E30000A0003200004024208000320382803206F
:102E40009B4B2DE9F04F1B6893B00333012B40F2ED
:102E500024818146FEF7B0F972B60023DFF87CB218
:102E6000944ACBF82430DBF824301688B34280F043
:102E7000DA80914C09F1060900274FF080428C4B13
:102E800057621D688D4BA91C1F6000F0D680EB1C9B
:102E900000F0E480691C00F0CD8030230093884B63
:102EA00028461A78874B197806ABFEF7CFF9824689
:102EB000002800F0CB8038464FF08047824BB3F8B3
:102EC00000E0824B0EEB8E0C1B884FEA4C0C0493F7
:102ED0002369DA05FCD57A6A92B22369DB05F7D556
:102EE0007B6A9B1A6345F8D3236913F4807308D077
:102EF000DBF82430B34200F2CA80236913F48073F4
:102F0000F6D17B62BAF1000F00F0C4804FF080412F
:102F100018466F4B049A03930DF1180805954B6AF8
:102F20009342FCD32369724413F4807F18F8013B69
:102F30001FD0312B1FD1039D013005F8013B824585
:102F40000395ECD1DDE9043500FB0E3200274FF08C
:102F5000804101304B6A9342FCD32369013713F45B
:102F6000807300F1010C08D0B945724409D960465C
:102F7000F0E7302BDFD0059DAAE71F4672440130F1
:102F8000E8E74FF080414D4B1860049BD21A4B6A22
:102F90009342FCD34FF000734FF080417244A36121
:102FA0004B6A9342FCD34FF4007CC4F818C0DBF8A2
:102FB0002430B34237D202357FF45EAF4FF0804108
:102FC0004FF0000E4FF0007B3F4B3B4D1F883F4BB7
:102FD000DFF808A1B3F80080002442462046C1F87B
:102FE00024E0C1F824E04B6A9A42FCD82B690130F6
:102FF00013F4807358D0814504F101043A44F2D8A7
:10300000A2EB08024B6A9A42FCD8C5F818B03A44C1
:103010004B6A9A42FCD8C5F818C0DAF824309E42B0
:10302000DAD8264B1C6062B600F016FD002013B003
:10303000BDE8F08F3846BA463EE7244B57621A88FF
:10304000214B3846B3F800E004927FE7214806F0B0
:103050004DFB184B1E88194B18682DE71A4B164963
:10306000B3F800E00EEB8E077F000B69D805FCD5A6
:10307000506A80B20B69DB05F7D5536A1B1ABB4255
:10308000F8D30020114B50621A8804925EE70B4B74
:103090001860C8E75046049A58E70F4806F026FB28
:1030A000012013B0BDE8F08F184601343A449AE786
:1030B00004000320000003200004024234280320FF
:1030C00030280320312803200A00032008000320B1
:1030D000382803206C4E01082C520108004801409A
:1030E0000870704700787047030A08704B7070478B
:1030F000012994BF00780088704700BF012908D9D2
:103100004FF6FE2302889A4203D8981AC0F34F0064
:1031100070470020704700BF012911D94378FA2B6E
:1031200007D8084AC3EB0330A2FB0020C0F30F10FE
:10313000704740F6FF72FF2B0CBF0020104670470F
:1031400000207047D34D6210022907D94FF6FF7354
:10315000B0F80100984208BF002070470020704777
:10316000042907D94FF6FF73B0F80300984208BF4F
:103170000020704700207047012907D94FF6FF73E0
:103180000088984208BF4FF40060704700207047E5
:1031900001290ED94FF6FF730088984209D047F2F3
:1031A0007F53984238BF1846A0F5EA407F3880B276
:1031B00070474FF400607047032986BFC078C0F3A2
:1031C00081000020704700BF09B1007870470846B1
:1031D000704700BF012906D9437803F00F03013B74
:1031E000DBB2022B01D900207047024A32F81300EB
:1031F000704700BFF475010819B10178C1F381006F
:1032000070470846704700BF032986BFC07800F0AA
:1032100003000020704700BF034600B583B0084696
:103220005BBA02220DF10601ADF8063006F0A6FBEE
:1032300003B000BD8446002310B50C4682B00DF1EA
:10324000060002226146ADF8063006F097FBBDF895
:103250000600012C98BFC0B240BA80B202B010BDC7
:10326000002300B5012983B0ADF8063002D8184616
:1032700003B000BD014602220DF1060006F07EFB00
:103280009DF8060003B000BD38B50D46044608227F
:10329000FF21284606F06EFBB4F5FB4F0ADAC4F5B1
:1032A000FA447F34640004F0FE03C4F307242B7057
:1032B0006C7038BD002423466C702B7038BD00BF85
:1032C00038B50D460822FF210446284606F052FB79
:1032D000FA2204FB02F2044BA3FB0213D21A03EB03
:1032E0005203DB0A6B7038BD0101100038B50C4683
:1032F00005460822FF21204606F03CFB2B0A65709C
:10330000A37038BD38B50C4605460822FF2120467B
:1033100006F030FB2B0AE570237138BD38B50C463A
:1033200005460822FF21204606F024FB2B0A2570C3
:10333000637038BD38B50C4608220546FF2120468B
:1033400006F018FB48F6802247F27F53954294BF5F
:103350005B199B189BB21A0A2370627038BD00BFBC
:1033600038B50D4604460822FF2128467D3406F074
:1033700001FBAC7038BD00BF38B50D4604460822CD
:10338000FF21284606F0F6FAEB78A40023F00C03A0
:1033900004F00C042343EB7038BD00BF38B50C4675
:1033A00005460822FF21204606F0E4FA257038BDC4
:1033B000FF2838B50D460FD9C3B2002B0CBF01242E
:1033C00003240822FF21284606F0D4FA6B7823F064
:1033D0000F031C436C7038BD031E18BF01235C0033
:1033E000EFE700BF38B50D4604460822FF21284606
:1033F00006F0C0FA2B78A40023F00C0304F00C04B0
:1034000023432B7038BD00BF38B50C460546082253
:10341000FF21204606F0AEFAE37805F0030523F01D
:1034200003032B43E37038BD38B50D46044608222C
:10343000FF21284606F09EFA012C0AD0022C05D066
:10344000032C0CBFD723FF23AB7038BDC723AB7051
:1034500038BDC323AB7038BD38B50C4605460822CD
:10346000FF21204606F086FAEBB2022B12D0032B86
:1034700009D0042B0CBF51230023FF2D88BF43F03C
:103480000403237038BD1123FF2D88BF43F00403CC
:10349000237038BD0123FF2D88BF43F00403237040
:1034A00038BD00BF38B50C4605460822FF2120462E
:1034B00006F060FA15F0080F0CBF0021FA2115F094
:1034C000100F0CBF0022FA2215F0200F0CBF0023B2
:1034D000FA2315F0400F0CBF0020FA2015F0800FE2
:1034E000E0700CBF0020FA2015F0010F21700CBF16
:1034F0000021FA2115F0020F62700CBF0022FA229F
:1035000015F0040FA3700CBF0023FA232071617122
:10351000A271E37138BD00BF022906D980787D38D9
:10352000C0B2812888BF002070470020704700BFCC
:10353000032906D9C0787D38C0B2812888BF002011
:1035400070470020704700BF02290FD9837803F02D
:103550000C02042A01D001207047C3F30113012B90
:1035600006D0002B0CBF02200120704700207047BE
:103570000320704707292DD903784278A3F1FA0375
:10358000B3FA83F3FA2A4FEA531382784FEAC3035C
:1035900008BF43F01003FA2AC27808BF43F02003A3
:1035A000FA2A027908BF43F04003FA2A427908BF99
:1035B00043F08003FA2A827908BF43F00103FA2A14
:1035C000C27908BF43F00203FA2A08BF43F004039C
:1035D000184670470020704700787047D9B10378CB
:1035E0009A09012A0ED003F03002102A15D003F0F8
:1035F0000302012A14BF0120022003F00C03042B54
:1036000006D0704703F00C03042B4FF00400F8D1F0
:1036100040F47F407047084670470320EDE700BF45
:1036200000787047007870470078704700787047DE
:1036300008707047087070470870704708707047CE
:1036400008707047030A08704B707047012994BFD7
:1036500000780088704700BF38B50D460822FF216A
:103660000446284606F086F9FA2204FB02F2044BCF
:10367000A3FB0213D21A03EB5203DB0A6B7038BDB3
:1036800001011000012911D94378FA2B07D8084A03
:10369000C3EB0330A2FB0020C0F30F10704740F6CD
:1036A000FF72FF2B0CBF00201046704700207047B0
:1036B000D34D6210034600B583B008465BBA0222C0
:1036C0000DF10601ADF8063006F058F903B000BD63
:1036D000034600B583B008465BBA02220DF106012D
:1036E000ADF8063006F04AF903B000BD034600B558
:1036F00083B008465BBA02220DF10601ADF8063030
:1037000006F03CF903B000BD034600B583B008469F
:103710005BBA02220DF10601ADF8063006F02EF973
:1037200003B000BD034600B583B008465BBA022271
:103730000DF10601ADF8063006F020F903B000BD2A
:10374000034600B583B008465BBA02220DF10601BC
:10375000ADF8063006F012F903B000BD034600B51F
:1037600083B008465BBA02220DF10601ADF80630BF
:1037700006F004F903B000BD8446002310B50C46E2
:1037800082B00DF1060002226146ADF8063006F067
:10379000F5F8BDF80600012C98BFC0B240BA80B25F
:1037A00002B010BD8446002310B50C4682B00DF166
:1037B000060002226146ADF8063006F0DFF8BDF8DB
:1037C0000600012C98BFC0B240BA80B202B010BD52
:1037D0008446002310B50C4682B00DF1060002228B
:1037E0006146ADF8063006F0C9F8BDF80600012CB8
:1037F00098BFC0B240BA80B202B010BD8446002368
:1038000010B50C4682B00DF1060002226146ADF8FB
:10381000063006F0B3F8BDF80600012C98BFC0B220
:1038200040BA80B202B010BD8446002310B50C46E9
:1038300082B00DF1060002226146ADF8063006F0B6
:103840009DF8BDF80600012C98BFC0B240BA80B206
:1038500002B010BD8446002310B50C4682B00DF1B5
:10386000060002226146ADF8063006F087F8BDF882
:103870000600012C98BFC0B240BA80B202B010BDA1
:103880008446002310B50C4682B00DF106000222DA
:103890006146ADF8063006F071F8BDF80600012C5F
:1038A00098BFC0B240BA80B202B010BD002300B5CC
:1038B000012983B0ADF8063002D8184603B000BD28
:1038C000014602220DF1060006F058F8BDF8060088
:1038D000000A03B000BD00BF012918D9037803F026
:1038E0000302012A17D003F00C02042A15D003F0BA
:1038F0003002102A0DD003F0C003402B0FD04378C4
:1039000003F00303012B0CBF0620012070470020A9
:10391000704705207047022070470320704704203D
:10392000704700BF2DE9F04F3A4B8346984283B071
:1039300007D8394B984260D94FF028094FF44876A0
:1039400009E036494FF02509B1FBFBF1C9B219294D
:1039500040F2EE265BD90124304B0134A4B2B3FB14
:10396000F4F1B1FBFBF1C9B21929F6D8B4F5806FB7
:103970003FD201202A4BCDF804B01F6823186FF006
:10398000004C4FF47A759B461FFA83FAA1F1020EA0
:10399000BEEB510F4FEA51031ADD01F1FF385FFA18
:1039A00088F805FB03F2B2FBF1F2B21A002AB8BFA5
:1039B0005242624509DA914507DB00209446A8EBA4
:1039C0000302D2B2FB617C613A6201337345E8DBEA
:1039D000124B1FFA8BF4B3FBFAF1019BB4F5806F25
:1039E000B1FBF3F10AF1010AC9B203D004F1010BF2
:1039F000CCE7012003B0BDE8F08F08494FF02B0958
:103A0000B1FBFBF1C9B2192940F26B36A3D80124EE
:103A1000AFE700BF00350C0020A10700005A62028A
:103A2000D038032038B50C46064D0749074B0A60CD
:103A30002860074901201C600EF02CFB054B186024
:103A400038BD00BFD0380320C8380320CC3803204D
:103A5000E03703203038032030B53F4C83B0206876
:103A600007F07AF8206806F0BFFE002851D1002246
:103A70003A4D40213A482A71EA602A616A61AA6196
:103A8000AA60EA6185F8202007F0B0FF206805F100
:103A9000240106F093FF00285BD13249206806F02C
:103AA0008DFF002852D10023022220681146009386
:103AB00006F0B0FF002846D1206806F0F1FF00288C
:103AC0003ED100220121206807F0A2F9A8BB002204
:103AD0000621206807F09CF960BB07224FF4F051E3
:103AE000206807F095F910BB07228021206807F0B5
:103AF0008FF9C8B900221C49206807F089F980B9FC
:103B000000224FF46021206807F082F920B903B049
:103B100030BDFDF7E7FAAAE703B0BDE83040FDF796
:103B2000E1BAFDF7DFFAEBE7FDF7DCFAE2E7FDF7D4
:103B3000D9FAD9E7FDF7D6FACFE7FDF7D3FAC6E70A
:103B4000FDF7D0FABDE7FDF7CDFAB5E7FDF7CAFA04
:103B5000A9E7FDF7C7FAA0E7D0380320100003203B
:103B6000000402424C00032000407100014B186821
:103B700006F0F2BFD0380320704700BF082824D8D1
:103B8000DFE800F0080C1014171A1D200500144877
:103B9000FFF7C8BE42F21070FFF7C4BE44F62060C3
:103BA000FFF7C0BE4CF25030FFF7BCBE0D48FFF728
:103BB000B9BE0D48FFF7B6BE0C48FFF7B3BE0C48C0
:103BC000FFF7B0BE0B48FFF7ADBE0B4AA0F51C5384
:103BD000103B934201D901207047FFF7A3BE00BFFD
:103BE00040420F00A086010048E8010090D0030089
:103BF00020A1070000350C00301B0F000346054ACA
:103C00001978002051615978D16199781162DB7877
:103C100093617047402703200246024B00209A61BF
:103C2000704700BF40270320034600B5064A93F8BB
:103C300001E093F800C082F810E004499B7881F815
:103C400000C05374002000BD402703207C030320E4
:103C50002DE9F047054682B0C0680F4605F082FEA8
:103C6000AB68B3F1005F3ED00646824600F12409FE
:103C7000264C4FF0FF3120680EF0CAFA0128F8D127
:103C8000DFF89480D8F800000EF0A8FC484517D261
:103C900002251F4A13792B431371002320681A460B
:103CA00019460EF05BF91B4A0223126810680022C5
:103CB000114600920FF002FE284602B0BDE8F087E0
:103CC00029464FF0FF332422D8F800000EF0A8FC5C
:103CD000054686B94D450CD00D4A0125137943F0B0
:103CE00008031371D9E74FF0000A4FF02409564634
:103CF000BEE70025D1E7524639464FF0FF33D8F8EA
:103D000000000EF08DFC0544E4E700BF30380320CE
:103D100010000320CC380320D837032030B4012210
:103D2000002410200A4B04211B684FF440751C82AC
:103D3000C3E90520DC6018623F240F209A74C3E9B0
:103D40000125DC61C3E9092130BC1963D8627047E1
:103D5000D03803202DE9F04700250C4682B0C90772
:103D60000646019516D4A20707D50221314A1379D8
:103D700043F00103137133681965630738D4019B5D
:103D80002BB14FF0E0234FF08052C3F8042D02B066
:103D9000BDE8F087DFF8A890DFF8988040214A4618
:103DA000254B06F051FFD8F81430D9F80C00013338
:103DB000C8F8143005F0D6FDDFF888A00746DAF819
:103DC00000000EF00BFC07F12803984224D349466B
:103DD0002822DAF8000001AB0EF0BCFC002FC2D0A4
:103DE0003A46DAF80000144901AB0EF0B3FCBAE72A
:103DF0000424104B11499A69086801329A611A79B2
:103E0000002142F008021A71336800680DEB0402C9
:103E10001C650FF073FEB2E7D8F81830294601335D
:103E2000C8F81830054B01AA1B6818680FF066FE29
:103E300099E700BF1000032088380320C83803200A
:103E400060380320DC370320002110B50A4A0B4CF0
:103E50001268236982B01068013301AA23610191BD
:103E60000FF04CFE019B2BB14FF0E0234FF080523E
:103E7000C3F8042D02B010BDCC380320100003207D
:103E8000002110B50A4A0B4C1268E36982B0106831
:103E9000013301AAE36101910FF030FE019B2BB1C8
:103EA0004FF0E0234FF08052C3F8042D02B010BD54
:103EB000C83803201000032038B50C46104D2946A1
:103EC00006F05CFFA10303D5EB68A3B90D4A1360AC
:103ED000620309D52B690B4A012B13790CBF43F000
:103EE000040303F0FB031371230303D50122054BE5
:103EF00083F8202038BD4FF00042024B1A60E7E7FC
:103F00003438032010000320F0B500250B7885B06D
:103F1000074602950395CBB10C460DF1FF3608E03C
:103F20002046D5B205F0C2FC14F8023F06F8010F96
:103F300023B163786A1C0BB3072DF1D18DF80850BB
:103F40002A4669460DF1090010F0C8FE00230E4C08
:103F50000820C4E90533C4E90133276005F008FDF2
:103F6000082203460DEB02010848E36005F006FD58
:103F700020460649FFF76CFE05B0F0BD8DF80850ED
:103F8000002DDDD1E2E700BFE0380320D438032064
:103F900042F202032DE9F043002499428BB04454CD
:103FA00000F2BA80002900F07A8100F1FF3E013969
:103FB000F4467346014405E00A2A1CBF0255013449
:103FC0008B4209D013F8012F082AF5D1002CF7D025
:103FD0008B4204F1FF34F5D10025AC42055540F386
:103FE00058812A460EEB04031CF8011F202900F01B
:103FF000898082B99C4505F101050CF101010CD0C5
:104000009CF80140202C7FD0994206D01CF8022F4A
:10401000203A18BF01229C45E6D1A24901AA05F029
:1040200025FD0446002800F081809F4905F0E8FC4A
:10403000002800F00981012D40F3B180994900204A
:1040400001AA05F013FD9949044605F0D9FC0028A2
:1040500070D12046964905F0D3FC002800F09A81E3
:10406000944805F043FB944805F040FB914805F067
:104070003DFB924805F03AFB914805F037FB8F482D
:1040800005F034FB8F4805F031FB8F4805F02EFB1F
:104090008A4805F02BFB8D4805F028FB8C4805F07D
:1040A00025FB864805F022FB8A4805F01FFB8A485D
:1040B00005F01CFB814805F019FB884805F016FB4C
:1040C000874805F013FB874805F010FB864805F08C
:1040D0000DFB864805F00AFB854805F007FB85487F
:1040E00005F004FB844805F001FB844805F0FEFA66
:1040F000724805F0FBFA6F4805F0F8FA804805F0C1
:10410000F5FA0CE0002286E7994286D01CF8021FDF
:1041100020297FF46FAF7EE77A4805F0E7FA7A4806
:1041200005F0E4FA00200BB0BDE8F083774805F015
:10413000DDFAF4E75F4805F0D9FA5F4805F0D6FAF2
:104140005C4805F0D3FA5D4805F0D0FA704805F0F8
:10415000CDFA5A4805F0CAFA5A4805F0C7FA6D4830
:1041600005F0C4FA554805F0C1FA584805F0BEFA02
:10417000694805F0BBFA514805F0B8FA554805F012
:10418000B5FA664805F0B2FA4C4805F0AFFA534864
:1041900005F0ACFA624805F0A9FA6248A6E745487E
:1041A00005F0A4FA444805F0A1FA424805F09EFA49
:1041B000424805F09BFA5C4805F098FA3F4805F044
:1041C00095FA5A4805F092FA594805F08FFA59487D
:1041D00005F08CFA584805F089FA584805F086FA37
:1041E000574805F083FA574805F080FA564805F01D
:1041F0007DFA564805F07AFA554805F077FA5548A1
:1042000005F074FA544805F071FA544805F06EFA56
:10421000534805F06BFA534805F068FA524805F028
:1042200065FA524805F062FA514805F05FFA5148C4
:1042300005F05CFA214805F059FA4F4805F056FAA6
:104240001C4805F053FA6AE720464C4905F0D8FBB4
:1042500000287FF4F0AE2046494905F0D1FB002844
:104260007FF4E9AE2046474905F0CAFB074600281F
:104270007FF4E1AE2046444905F0C2FB80460028A9
:1042800000F00681022D00F0D680404805F02EFA9D
:1042900045E77FF4C2AE3E4805F028FA3FE70170DB
:1042A000F9E700BF84520108B4520108D052010856
:1042B00070540108D852010818530108FC4E010837
:1042C00078540108545301088C540108985301088C
:1042D000C8540108BC530108DC54010810540108FB
:1042E0002855010848550108585501087855010816
:1042F00088550108A8550108B8550108E45501087A
:10430000B45701086C5201081C7301088852010857
:104310004453010864530108A0530108C85301081D
:104320001C5401086054010808580108AC580108E1
:10433000B85801082C590108B4590108E05901087E
:10434000305A0108805A0108D05A0108285B010838
:10435000945B0108BC5B0108E85B0108485C01084C
:10436000B05C0108FC5C0108405D01086C5D01085F
:10437000C45D01081C5E0108885E0108BC5201088A
:10438000C4520108CC520108F8550108A85E010882
:10439000805201082046914905F032FB002846D0A2
:1043A0008F4805F0A3F98F4805F0A0F98C4805F077
:1043B0009DF98D4805F09AF98C4805F097F98A48DF
:1043C00005F094F98A4805F091F98A4805F08EF9CC
:1043D000854805F08BF9884805F088F9874805F08D
:1043E00085F9814805F082F9854805F07FF985480F
:1043F00005F07CF97C4805F079F9834805F076F9F9
:10440000824805F073F9824805F070F9814805F09B
:104410006DF9814805F06AF9804805F067F9804830
:1044200005F064F97F4805F061F97F485EE67F4852
:1044300005F05CF962E638467D4901AA05F016FBF5
:1044400003780446002B3FF46AAE051D413B232B45
:1044500013D8DFE803F04139312912121212121277
:10446000121212121212121212121212121212122C
:10447000121212121212413931296E4805F036F922
:1044800014F8013F002B3FF44AAEA542DED146E6C8
:104490002046694905F0B4FA00284ED0022D1FD0FD
:1044A000664805F023F93AE6654805F01FF9002152
:1044B000442001F017FFE3E7624805F017F90021F7
:1044C000432001F00FFFDBE75F4805F00FF9002103
:1044D000422001F007FFD3E75C4805F007F9CFE77A
:1044E0004046534901AA05F0C1FA03780446002B5F
:1044F0003FF415AE051D413B232B13D8DFE803F035
:104500003E36422E121212121212121212121212EF
:10451000121212121212121212121212121212127B
:104520003E36422E434805F0E1F814F8013F002BD7
:104530003FF4F5ADA542DED1F1E52046444905F052
:104540005FFA002800F0B180012D00F0A680AE1EB9
:10455000012E1FD93F4805F0C9F8E0E53E4805F0B7
:10456000C5F80121442001F0BDFEDEE73B4805F01F
:10457000BDF80121422001F0B5FED6E7384805F02C
:10458000B5F8D2E7374805F0B1F80121432001F032
:10459000A9FECAE7264901AA002005F067FA05F03E
:1045A000A9F9B0F5006F80F098802F4F022D386088
:1045B00000F08A801E4901AA002005F057FA06463D
:1045C00005F006FAC107044600F18B80102800F2BE
:1045D00088803546DFF8948050E000BFF855010828
:1045E000D852010818530108FC4E01080056010872
:1045F00054530108145601089853010850560108F5
:10460000BC5301086456010810540108B056010853
:10461000D0560108E456010804570108185701084C
:10462000385701084C570108785701088C57010882
:1046300084520108B05F010870540108D85F010876
:104640008C5F0108685F0108445F0108F85E01089B
:10465000B0600108D06001088C6001084460010866
:1046600028600108686001083839032030390320C8
:10467000284605F01BF9023508F8010BAB1B9BB26D
:104680009C42F5D8601CC0F3470005F071F9034661
:10469000AC48FB6005F02AF841E54FF0FF32AA4B29
:1046A000AA481A6005F022F839E52046A84905F025
:1046B000A7F9002861D0012D52D0AE1E012E14D9C9
:1046C000A44805F013F82AE5002005F051F9034647
:1046D000A148FB6005F00AF821E5A04805F006F8BE
:1046E0001DE59F4805F002F819E59E4901AA002042
:1046F00005F0BCF905F0FEF8B0F5006F80F0AB8076
:10470000994F022D386000F09D800DF091FA28211C
:104710000DF090FA01AA9349002005F0A7F906468A
:1047200005F056F9C2070446DBD41028D9D835461F
:10473000DFF89C8205E0284605F0B8F8023508F855
:10474000010BAB1B9BB2A342F5D3601CC0F3470027
:1047500005F00EF903468548FB6004F0C7FFDEE470
:104760004FF0FF32804B82481A6004F0BFFF0DF01B
:104770005FFA18210DF05EFAD1E420467D4905F07C
:104780003FF910B3032D03D07B4804F0AFFFC6E41C
:10479000744901AA002005F069F97249054601AA89
:1047A000002005F063F90A21002205F093F973490E
:1047B0000446284605F024F9A0B1714B71485C61AC
:1047C00004F094FFFFF748F9A9E420466E4905F08C
:1047D00017F90746002842D0032D0FD06B4804F08C
:1047E00085FF9CE428466A4905F00AF9002843D071
:1047F000634B6848DC6104F079FFE3E75949002026
:1048000001AA05F033F96449044605F0F9F80028D7
:1048100074D040F2DF7401AA5249002005F026F955
:10482000054605F0D5F8421E92B20D2A034661D81E
:10483000DB075FD420462946FFF766FB574804F0A4
:1048400055FF6CE4002005F093F803465448FB60E4
:1048500004F04CFF63E4534804F048FF5FE4204653
:10486000514905F0CDF80646002851D0022D10D050
:104870004E4804F03BFF52E428464D4905F0C0F88D
:10488000002800F0BD803E4B4A481C6204F02EFF19
:1048900098E73846334901AA05F0E8F8451E041D9B
:1048A00015F8012FA2F12A03002A3FF438ACA542E3
:1048B0003FF435AC1A2B00F20E81DFE813F0030150
:1048C0000C010C010C010C010C010C010C010C0180
:1048D0000C010C010C010C010C010C010C010C0170
:1048E0000C010C010C010C010C010C018B003900B6
:1048F00098008F00304804F0F9FE10E420462F495C
:1049000005F07EF8002800F0868040F2E17482E72E
:1049100020462B4905F074F80746002800F0028174
:10492000022D00F0DC80274804F0E0FEFFF7F7BB23
:10493000254804F0DBFE40F2E1702449FFF7E4FA79
:10494000AEE700BF5461010838390320B8600108A0
:1049500080610108A46101081C610108F860010878
:104960003C610108845201080C39032018620108D7
:10497000886101084062010844620108245001086E
:104980004027032060620108A4630108A8630108AE
:104990007862010880620108E46301087C64010810
:1049A000F8610108CC61010890640108986401086D
:1049B000946201089C62010850640108E8630108E0
:1049C00048650108506501080C650108D8640108B4
:1049D00004390320964804F089FE61E7954804F005
:1049E00085FE40F2E3709449FFF78EFA58E793484A
:1049F00004F07CFE40F2E2708F49FFF785FA4FE742
:104A000028468F4904F0FCFF68B18E4B8E489C61AC
:104A100004F06CFED6E620468C4904F0F1FF80B12C
:104A200040F2E274F7E62846894904F0E9FF80B1D4
:104A3000003C18BF0124834B86481C7404F056FECA
:104A4000C0E62046844904F0DBFF80B140F2E37405
:104A5000E1E62846814904F0D3FF90B1003C18BF3D
:104A60000124784B7E485C7404F040FEAAE62046A0
:104A70007C4904F0C5FF90B17B4804F037FE002468
:104A8000C9E62846794904F0BBFF60B1003C18BF75
:104A90000124774B77481C7004F028FE92E6764894
:104AA00004F024FEEBE72846744904F0A9FF00282F
:104AB00072D0002C69D1724804F018FE0222614BBA
:104AC000DA607FE66F4804F011FE40F2DF705A4969
:104AD000FFF71AFAE4E6684804F008FEE0E630461C
:104AE000694901AA04F0C2FF451E041D15F8012FF3
:104AF000A2F12A03002A3FF412ABA5423FF40FAB08
:104B00001A2B3ED8DFE803F0343D3D3D3D3D3D3DB1
:104B10003D3D3D3D3D3D3D3D3D3D3D3D3D3D3D30D2
:104B2000274C1E002046594904F06AFF064600281B
:104B300067D0012D5AD0022D3BD0554804F0D6FD48
:104B4000FFF7EDBA534804F0D1FD40F2E37052494B
:104B5000FFF7DAF9CAE7514804F0C8FD40F2E17006
:104B60004D49FFF7D1F9C1E7314804F0BFFDBDE77A
:104B70004B4804F0BBFD40F2DF704749FFF7C4F932
:104B8000B4E73D4804F0B2FDB0E7464804F0AEFD9E
:104B900000222C4BDA6015E6434804F0A7FD11E62D
:104BA000424804F0A3FD40F2E2703B49FFF7ACF944
:104BB0009CE73549384601AA04F058FF3C490446B1
:104BC00004F01EFF88BB20463A4904F019FF38B3B1
:104BD000394C3A4801F000F9214640F2DF70FFF706
:104BE00093F9374804F082FDFFF799BA354A334B01
:104BF00012689A420CBF3448344804F077FDFFF73E
:104C00008EBA2046324904F0FBFE0746002800F029
:104C10008D80012D66D02F4804F068FDFFF77FBA24
:104C20002D4804F063FDFFF77ABA2C4C2C48D1E7ED
:104C3000E464010834650108D864010820650108AE
:104C4000B062010840270320B4620108EC63010848
:104C5000C8620108D4620108F0630108FC6201081F
:104C60000C630108F4630108F86301082863010874
:104C70007C030320346301082C6401085463010899
:104C800058630108B464010884520108FC650108F6
:104C9000605E0108DC650108906501089C650108FB
:104CA00068650108746301088C630108BC6501082C
:104CB0005866010860660108545201082C7B0108FF
:104CC0009C66010888000320086601083066010818
:104CD000C0660108CC6601086866010860520108D8
:104CE000407B010801AABF49304604F0BFFEBE4820
:104CF00004F0FCFC304601F02FFB32200CF0BCFF2E
:104D00002946422001F0EEFA02F0A2FD0CF0B4FFB9
:104D10002946432001F0E6FA02F09AFD0CF0ACFFC0
:104D20002946442001F0DEFAFFF7F9B92046AF49E1
:104D300004F066FE30B1022D20D0AD4804F0D6FC60
:104D4000FFF7EDB92046AB4904F05AFE002800F009
:104D5000C580012D40F3BD800020A24901AA04F0C6
:104D600085FE044600283FF4DAA9A34904F048FE72
:104D7000E0B1A24804F0BAFCFFF7D1B9384699492E
:104D800001AA04F073FE451E041D15F8012FA2F1BF
:104D90004103002A3FF4C3A9A5423FF4C0A9032B55
:104DA00000F22482DFE803F0912D240B2046944981
:104DB00004F026FE60B1FDF77FFAFFF7B0B9914825
:104DC00004F094FC40F2E3708F49FFF79DF8DCE7B4
:104DD00020468E4904F014FE0646D8B18C4804F0F3
:104DE00085FCFDF729F98B4804F080FCFFF797B9A3
:104DF000894804F07BFC40F2E2708349FFF784F8B5
:104E0000C3E7864804F072FC40F2E1707E49FFF788
:104E10007BF8BAE72046824904F0F2FD00286CD006
:104E2000804804F063FCFDF733F94FF47A730446CD
:104E3000B0FBF3F002A903FB104404F079FE0A2151
:104E40000346B4FBF1F24FF02E09642503F1280864
:104E5000E84408F8209CB2FBF1F8B4FBF5F54FF0FC
:104E6000200E4FF0250C0D2701FB124401FB1822E8
:104E70000DF12808591C58FA81F1303501F8205CF1
:104E8000991C303258FA81F101F8202CDA1C58FABA
:104E900082F2303402F8204C1A1D58FA82F202F8DD
:104EA00020EC5A1D58FA82F202F820CC9A1D0733E2
:104EB00058FA82F258FA83F302F8207C02A803F829
:104EC000206C04F013FCFFF72AB9574804F00EFCDD
:104ED0005BE7564804F00AFCFFF721B92046544925
:104EE00004F08EFD00287FF434AF2046514904F0D1
:104EF00087FD78B10120FFF716B920464E4904F02E
:104F00007FFD064648B34D4804F0F0FBFDF740FA3C
:104F1000FFF705B920464A4904F072FD0028E9D19F
:104F20002046484904F06CFD0028E3D1204646495C
:104F300004F066FD06460028DCD12046434904F013
:104F40005FFD002800F0B980012D2BD0022D11DD6E
:104F50003F4804F0CBFBFFF7E2B820463D4904F0A0
:104F60004FFD00287ED0032D26D03B4804F0BEFB29
:104F7000FFF7D5B830461B4901AA04F077FD451E5E
:104F8000C41C15F8012FA2F14103002A3FF4C7A861
:104F9000A5423FF4C4A8032B00F22C81DFE803F004
:104FA000BC7E6F972D4804F0A1FBC8200CF064FE76
:104FB00005F0FEF9FFF7B3B80A4901AA304604F03C
:104FC00055FD0A2102AA8DF8086004F083FD9DF8C2
:104FD0000830C4B2012B00F09480214804F086FB15
:104FE000FFF79DB884520108F46601085067010874
:104FF0005C67010810680108B4520108586801088C
:10500000206F0108CC6701089C670108286F010820
:105010002C6F0108386F0108A8670108786701083C
:10502000406F0108486F0108E46401081C6801082A
:1050300014680108C0700108606F0108686F0108FA
:10504000C4700108CC700108D4700108DC7001083C
:1050500034710108806F0108886F0108E47001084D
:10506000C06F01082046654904F0CAFC002871D0D1
:10507000032D55D0624804F039FBFFF750B8614862
:1050800004F034FB0021432001F02CF932200CF015
:10509000F3FD0121432001F025F972E75A4804F09D
:1050A00025FB0021422001F01DF932200CF0E4FD27
:1050B0000121422001F016F963E72046534904F02C
:1050C0009FFC98B1524804F011FBFFF728B85148F3
:1050D00004F00CFB0021442001F004F932200CF014
:1050E000CBFD0121442001F0FDF84AE74A4804F0D5
:1050F000FDFA204604F0FAFA484804F0F7FAFFF700
:105100000EB8474804F0F2FA2046FDF799FE4548EC
:1051100004F0ECFAFFF703B8434804F0E7FA30E78D
:10512000424901AA002004F0A1FC00230A2102AA9E
:105130008DF8083004F0CEFC9DF80830C4B2012B85
:105140007FF44BAF364804F0D1FA2046FDF7EEFC71
:10515000FEF7E5BF2046364904F052FC48B1354819
:1051600004F0C4FA032D11D0334804F0BFFAFEF75F
:10517000D6BF2046314904F043FC064678B130489A
:1051800004F0B4FAFDF74AFBFEF7C9BF274901AAAC
:10519000002004F06BFCFDF701FAFEF7C0BF2046CB
:1051A000284904F02DFC70B1042DDDD11F4901AA5E
:1051B000304604F05BFCFCF77FFD68B9194804F049
:1051C00095FAFEF7ACBF20461F4904F019FC40B128
:1051D000FCF79EFEFEF7A3BF1C4804F087FAFEF71B
:1051E0009EBF1B4804F082FAFEF799BF194804F0ED
:1051F0007DFACAE5174804F079FAC2E6D46F0108CF
:10520000E06F010818720108047201084072010879
:10521000487201082C720108C4720108D872010892
:10522000AC6F0108B86F0108B87101088452010819
:1052300008700108107001081C7001083C7001081A
:1052400044700108607001088070010864700108F2
:1052500088700108F06701082DE9F04703780546DA
:10526000A3F13002012A0E46A0B040F28F80002246
:10527000824FCDE90B227979012910D00024DFF883
:105280000082752BD8F80020CDE90D440A9213D185
:10529000132E00F06E81002020B0BDE8F087701E54
:1052A000295C0024692904BF4FF000420646752B93
:1052B000CDE90D440A92EBD0295D2246722905EB17
:1052C000040900F0E58000F2458152297FD054297D
:1052D0007DD0233B562B00F23881DFE813F0A90183
:1052E00036016D01F1013601360136013601360114
:1052F00036013601360136013601360136013601F6
:1053000036013601360136013601360136013601E5
:105310003601360136015B01E40136013601DA015E
:10532000B901B0016C045C045B01360154043B0418
:105330005503420329031B03360136013601E702F8
:1053400036013601CD020D033601AC026001360193
:1053500036013601B70236013601BF0268019F02ED
:1053600036013601760236015B016B025A024202B7
:105370003702240211023601AB03830336016D03A9
:105380003601360163031104FE0300024FF40011DD
:1053900042780C91302A00F0CD804FF48010374FC6
:1053A0000B907979012900F0D98000233449722AC1
:1053B0000968CDE90D330A9105F1010966D063D87A
:1053C000522A02D0542A40F0C08001242246B71A43
:1053D000092F40F2BA804FF080434FF0000A601C62
:1053E00028440793CDF820A004F094FA069004F125
:1053F0000900284404F054FA99F800308046522BF2
:10540000099003D14FF00053D0460893404604F072
:10541000A9FA053000B2B7EB400F40F096800A348D
:10542000013EA64288BF00270DD9281904F03EFA94
:105430000234E4B220AB53FA87F3B44203F8400CD1
:1054400007F10107F1D304F01BF910AC01210D485D
:1054500006AE04F02BF921463046FEF7F9FB022890
:1054600000F08B8004F018F94046069D04F07AFAAB
:1054700022460146284600F0E3FC0CE7DC0003204E
:1054800010000320FC4E0108742A5ED1012422463C
:10549000B71A042F59D94FF0000A601C2844CDE9EF
:1054A00007AA04F027FA0690201D284404F0F8F912
:1054B00099F800308046722B099003D14FF00053C9
:1054C000D0460893404604F04DFA052300B203EBA2
:1054D00040039F4239D10534013EA64288BF0027D0
:1054E0000DD9281904F0E2F90234E4B220AB53FAE2
:1054F00087F3B44203F8400C07F10107F1D304F03D
:10550000BFF810AC0121B94806AE04F0CFF821462F
:105510003046FEF79DFB0228A4D104F0BDF802E05E
:105520000A200CF0A9FB21463046FEF791FB022829
:10553000F6D099E70022AE4F0B92797901290DD070
:10554000AC4B0D921B680E920A930121AA4804F0FD
:105550005FF8A0E674297FF4BCAE99E7721EA95CDF
:10556000692900F0478300220124CDE90D220A9227
:10557000A2E6284600F0C2FD8DE604F08DF802E0B8
:105580000A200CF079FB21463046FEF761FB022829
:10559000F6D069E71621994804F03AF87BE6022E26
:1055A000D3D16B78302B0CBF00230123FB7001217A
:1055B0008E4804F02DF86EE6032EC6D96F1C3846CF
:1055C00004F098F97608023E1FFA86F84045044632
:1055D000BBD105F104084146B2B2894810AE04F0CF
:1055E00045F90DF069FE2246864B8549009603F089
:1055F00041FF3946BDF8400004F0E6F8BDF8402010
:105600004046804904F088F80D22BDF84030284615
:10561000023305F813205B00591C03F0F9FF0DF06D
:105620004BFE2246774B7649009603F073FF32E635
:10563000012E8AD1744804F059F830462CE610A99E
:10564000724805F09BFB02A9704805F0BFFB22E6FB
:105650006F4804F0BDF9431C9E427FF476AF6C485E
:1056600004F0B6F96A490246681C04F0E7F900281C
:105670007FF46BAF01215D4803F0CAFFC8200CF036
:10568000FBFA01F051FF002840F0FE8201F098FF84
:105690005BE7012E7FF459AF0023314653483B703E
:1056A00003F0B6FFF7E5022E7FF44FAF6B78302B97
:1056B00000F0DB82312B7FF47AAF01233B7176E778
:1056C000062E7FF442AF05225249681C04F062F9AD
:1056D000002840F0D482504804F008F867E7032E11
:1056E0007FF433AF6878A0F14203022B3FF62DAF71
:1056F000AB78302B0CBF0021012100F0F3FD56E701
:10570000012E7FF422AF3146384803F081FF00209C
:1057100000F022FE002000F039FE64200CF0ACFA0C
:1057200004F046FEB7E5042E00F09182092E7FF4C6
:105730000CAF681C04F0EEF803462E4A23F0004339
:1057400001212A48136503F063FFA4E501212748DE
:1057500003F05EFF01232D4A3B70D360FEF77CF916
:1057600099E5092E7FF4F1AE681C04F0ABF803460E
:10577000264C681D636104F099F80346E81DE36157
:1057800004F094F8034601211848236203F040FF17
:1057900081E56A238DF8403002F05AF80DF141019D
:1057A00004F04AF80D23042110A88DF8433003F0CB
:1057B0002FFF70E5022E7FF4C8AE6B781348302BB4
:1057C00000F0568205F048F9F1E6022E7FF4BDAEF6
:1057D0006B78302B00F04F82312B0CBF4FF480726E
:1057E0004FF44072094B9A60E1E600BFFC4E01089D
:1057F000DC00032010000320D04D0108887301084D
:105800007865012074550120587301084027032052
:10581000A4730108BC730108C4730108022E7FF44D
:1058200094AE6B78302B40F0F38101210023B84A0D
:105830001170BB70BBE6022E7FF487AE6B78302B05
:105840000CBF0020012000F087FDB0E6B14803F056
:105850004DFF0121B04803F0DBFE1CE5022E7FF472
:1058600074AE6B78AD4A303B18BF01230121AA48C2
:10587000137403F0CDFE0EE500F0D0FD0F210028DB
:1058800000F0C281A64803F0C3FE0C21A54803F036
:10589000BFFE0121A44803F0BBFE0921A34803F089
:1058A000B7FE0221A24803F0B3FEF4E4B31E062BB8
:1058B0003FF64BAE012200209E4CA9182E4411F851
:1058C000013B00EB8000303B03EB4000DBB2092BD7
:1058D0008CBF002202F00102A0428CBF002202F025
:1058E00001028E42EBD1002A3FF42FAEFEF746F9BB
:1058F00000287FF42AAE5AE6022E7FF426AE6B789B
:10590000303B032B3FF621AEDFE813F07201690153
:1059100067015D01012E7FF418AE31467E4803F029
:1059200077FE00227D4B3E70DA60FEF795F8B2E418
:105930004E23814D814E0DF141048DF8403015F814
:10594000040B214603F078FFB54204F10204F6D1BE
:10595000192110A803F05CFE01216F4803F058FEE6
:1059600099E4042E00F05F81092E7FF4EEAD681CEF
:1059700003F0D0FF0346724A23F00043012166483A
:10598000D36403F045FE86E4012E7FF4DEAD31469C
:10599000614803F03DFE0222604B3E70DA60FEF784
:1059A0005BF878E4022E7FF4D0AD6B78302B0CBF1F
:1059B000002301237B71FAE5052E7FF4C6AD012695
:1059C000564CA819666103F071FF0346E81CE361B9
:1059D00003F06CFF2062FEF73FF831464E4803F0BB
:1059E00017FE58E4574803F081FE40214B4805F06C
:1059F000FFF903F085FE544C484805F003FA03F024
:105A00007FFE20680CF0EAFD03F07AFE20684F4C20
:105A10000CF0F8FD03F074FE20680CF0DFFD03F0DD
:105A20006FFE20680CF0EEFD03F06AFE3A4803F0CA
:105A30005DFE30E4022E7FF488AD6B78423B022B92
:105A40003FF683AD00234FF400124FF48011BB707A
:105A5000CDE90B12099340F281123B7000234FF005
:105A60001409CDE90623DFF8D88010AC06AE00207B
:105A700000F072FCFEF752F9FDF7EEFF64200CF027
:105A8000FBF86878012100F04BFC6878012100F0F8
:105A900029FC48460CF0F0F802E00A200CF0ECF883
:105AA00021463046FEF7D4F80228F6D032200CF01A
:105AB000E3F8D8F8143023B909F11409B9F5D27F05
:105AC000D5D1D8F81430002B3FF43FAD0121124856
:105AD000397003F09DFDFFF7DEBB78221C4B8DF87B
