:020000040800F2
:1000000000000420D5970008099600080D96000806
:100010001196000815960008199600082598000802
:100020000000000000000000000000002144010862
:100030001D96000800000000B1430108D91B01080B
:10004000259800082598000825980008259800089C
:10005000259800082598000825980008259800088C
:10006000259800082598000825980008259800087C
:10007000259800082598000825980008259800086C
:10008000259800082598000825980008259800085C
:10009000259800082598000825980008259800084C
:1000A000259800082598000825980008259800083C
:1000B00025980008219600082D960008259800082C
:1000C000259800082598000825980008259800081C
:1000D00025980008259800082598000839960008FA
:1000E00045960008259800085196000825980008B4
:1000F00025980008259800082598000825980008EC
:10010000259800085D960008699600082598000863
:1001100025980008259800082598000825980008CB
:100120002598000875960008819600082598000813
:100130008D96000825980008259800082598000845
:100140002598000825980008999600082598000829
:10015000259800082598000825980008259800088B
:1001600025980008A59600082598000825980008FD
:1001700025980008000000002598000800000000F5
:10018000B1960008259800082598000825980008D1
:10019000259800082598000825980008259800084B
:1001A000259800082598000825980008259800083B
:1001B0002598000800000000BD960008259800085A
:1001C00025980008000000002598000825980008E0
:1001D000259800082598000825980008259800080B
:1001E00025980008259800082598000825980008FB
:0401F000000000000B
:1002000010B5054C237833B9044B13B10448AFF350
:1002100000800123237010BDD002032000000000E5
:10022000084B010808B5034B1BB103490348AFF362
:10023000008008BD00000000D4020320084B010824
:10024000034613F8012B002AFBD1181A0138704716
:1002500053B94AB9002908BF00281CBF4FF0FF312D
:100260004FF0FF3000F0B2B9ADF1080C6DE904CEEB
:1002700000F006F8DDF804E0DDE9022304B0704781
:100280002DE9F04F8C46099E04460F46002B48D1BD
:100290008A4215465ED9B2FA82F33BB1C3F120021D
:1002A0009F409D409C4020FA02F217434FEA154EB2
:1002B0001FFA85FC220CB7FBFEF10EFB117701FB48
:1002C0000CF042EA0742904207D9AA1801F1FF3721
:1002D00002D2904200F258813946121AA4B2B2FBFF
:1002E000FEF00EFB102200FB0CFC44EA0244A44585
:1002F0000BD92C1900F1FF322CBF01270027A44590
:1003000002D9002F00F04381104640EA0140A4EBDF
:100310000C0400211EB1DC400023C6E90043BDE807
:10032000F08F8B4206D90EB1C6E9000100210846C4
:10033000BDE8F08FB3FA83F1002951D16345C0F0D5
:100340001681824240F213810846002EE7D0C6E9AA
:100350000047E4E7002A00F0AF80B2FA82F3002BF6
:1003600040F0C2808A1A4FEA154EAFB20121200C2C
:10037000B2FBFEFC0EFB1C2240EA024207FB0CF023
:1003800090420ED9AA180CF1FF382CBF4FF001098A
:100390004FF00009904203D9B9F1000F00F0F0804E
:1003A000C446121AA4B2B2FBFEF00EFB102200FBF0
:1003B00007F744EA0244A7420ED92C1900F1FF3294
:1003C0002CBF4FF0010E4FF0000EA74203D9BEF133
:1003D000000F00F0D2801046E41B40EA0C4099E781
:1003E000C1F120058B400CFA01F400FA01F922FA60
:1003F00005F72CFA05FC8A401F4320FA05F3380C58
:1004000023431FFA87FE1C0CBCFBF0F800FB18CC42
:1004100044EA0C4408FB0EFCA4450ED93C1908F133
:10042000FF3A2CBF4FF0010B4FF0000BA44503D94E
:10043000BBF1000F00F0B880D046A4EB0C041FFA0B
:1004400083FCB4FBF0F300FB134403FB0EFE4CEA09
:100450000444A6450ED93C1903F1FF302CBF4FF0E0
:10046000010C4FF0000CA64503D9BCF1000F00F0C1
:100470009F80034643EA0840A4EB0E04A0FB02EC75
:1004800064457346E04602D307D1F14505D2BEEB81
:1004900002036CEB070C0138E0465EB1B9EB0302D6
:1004A00064EB080404FA05F522FA01F3CC401D437D
:1004B000C6E90054002132E742082F464B08AC46FB
:1004C00042EAC172AE46C407110C92B241EA03413E
:1004D00042EA0142B1FBF5F1B3FBF5F01F23A2EBB9
:1004E0000C0241EA004142E79D40C3F120029940DD
:1004F0009C402CFA02FC4FEA154E20FA02F2AFB2F1
:10050000BCFBFEF80A430EFB18CC110C41EA0C416F
:1005100008FB07FC8C4550D9691808F1FF302CBF47
:100520004FF001094FF000098C4502D9B9F1000FD5
:1005300030D0A1EB0C01B1FBFEF808FB07FC0EFB71
:10054000181192B242EA0142624534D2AA1808F167
:10055000FF312CBF4FF001094FF000096245BED2B8
:10056000B9F1000FBBD1A8F102012A44B7E7841A00
:100570006CEB030201201746E7E62C4402382BE718
:10058000ACF1020C2A440CE702392A44A5E62C44BB
:100590000238BAE6A5EB0C0CA8F102006144B1FBED
:1005A000FEF808FB07FCCAE7A8F102083C4444E750
:1005B000023B3C445EE7414691E7A1EB0C0140461B
:1005C000B1FBFEF808FB07FCB9E700BF704700BFAE
:1005D000704700BF10B501220D490E4882B00FF0E0
:1005E000C7F90D4C0DF106014FF0FF3302222068D0
:1005F00012F0A0F94FF0FF330849BDF8062020683B
:1006000012F098F90548BDF8061002F091FEE9E7EE
:10061000C8030320EC250320F403032040B6002088
:10062000F0B52A4C2A4E9BB04FF0FF332822694682
:10063000206812F07FF92828F6D1039808F0A4FC6E
:10064000054600283AD1029BD3B929460AAA009848
:1006500002F0F4FE12F074FE0AA90246684603F0A6
:1006600067F812F06DFE0AA90246684605F0A8FB7D
:1006700012F066FE0AA90246684602F023FED3E79E
:10068000B3F1005FF4D1009BB3F5E06FF0D1082225
:1006900003990027914228BF11460D46C6E9057708
:1006A000B760019F0B490C48C6E90037F56008F0B8
:1006B00075FC3046084901F047FCD9E74FF0FF339D
:1006C0002A4620680AA912F035F9BCE7C82703209A
:1006D000000303209005FA0BF40203202DE9F043F8
:1006E0001F4D9BB0DFF8808001AE0AAF002404EB01
:1006F000C401C4F124024FF0FF33286806EB8101E6
:1007000012F018F90444232CF1D9049808F03CFCA9
:10071000039B8146B3F1005F00D0A0B9114809F0F6
:1007200067FE50B13A4631460E4809F02BFDD8F825
:100730000C300133C8F80C30D8E74FF0FF320121FC
:1007400013F092F8EAE70024A9EB040239194FF0FC
:10075000FF33286812F0EEF804444C45F4D3DDE78B
:10076000C4270320D42603200000032000B583B053
:1007700002F00AFE01F0ECFA03F0A0F800F01CFE13
:1007800006F06EF812F0DCFD02F092FD12F0D8FDDA
:1007900002F092FD16480DF065FD16480DF02AFD99
:1007A0001549164805F02AFA04F0C0F8144C12F066
:1007B000C7FD019006F052F8019806F057F801982D
:1007C00000F0FCFD23782BB9019802F031FF01986D
:1007D00002F070FD019802F07FFD019802F0A6FF83
:1007E000019805F021FA0A2101A812F0E9FCDEE7E0
:1007F0000C24032074230320E41603207425032013
:10080000820003202DE9F0410026214DDFF88C8085
:10081000204FA6B012E013F06DFC98F8003033B111
:100820000B9B23B1642011F08FFA01F091FA0022A2
:10083000022311463868009613F098F84FF0FF3203
:100840000121002013F010F813F046FC124809F0C3
:1008500025FF044606A9104809F090FD02A90E489C
:1008600009F0B4FD5422294611A8AC6014F0F4F844
:10087000094B1E66189BB3F5003FCCD9AB689B02B1
:10088000C9D5012385F820300B9301F0EBFAC2E7BC
:1008900000000320941B0320D4260320F002032031
:1008A00000232DE9F04385B05B4C5C4EDFF8788186
:1008B0005B4D0DF10E078DF80B3005E000214FF078
:1008C000FF32084612F0D0FF206811F03DFF0028EB
:1008D000F4D04FF0FF33012220680DF10B0112F02C
:1008E00029F80128EAD1206811F02EFF0128E5D966
:1008F0004FF0FF330222206803A912F01BF80228F0
:10090000DCD1BDF80C20B2F5845FD7D8002A56D1CF
:100910009DF80B90B9F1000F16D112F011FD414B6B
:100920003146BDF80C20009708F034FABDF80E30BF
:10093000002B57D112F004FD31463A4BBDF80C2084
:10094000009708F077FAB9E712F0FAFC354B334913
:10095000BDF80C20009708F045FABDF80E3023B31F
:1009600030490A787F2A08D1022B1ED98B78A3F14F
:100970001102012A19D9312B17D04FF0FF3302226F
:100980003946D8F8000011F0EDFE4FF0FF3325494D
:10099000BDF80E20D8F8000011F0E4FE002202237A
:1009A00011462868009212F0E1FF12F0C9FC1D4BBD
:1009B0001A49BDF80C20009708F03CFA7EE74FF08A
:1009C0000009A2EB090206EB09014FF0FF33206892
:1009D00011F0B0FFBDF80C2081441FFA89F94A4597
:1009E000EFD195E739464FF0FF330222D8F80000E7
:1009F00011F0B8FEBDF80E204FF0FF330949D8F8CA
:100A0000000011F0AFFE02234A4649462868CDF89F
:100A1000009012F0ABFF8DE730030320BCA500204F
:100A2000D4080320389500202C0303202DE9F84337
:100A3000294E2A4DDFF8B08006F19C0706F5805953
:100A400005E000214FF0FF32084612F00DFF286844
:100A500011F07AFE0128F4D94FF0FF330222204929
:100A6000286811F067FF0228EBD1B6F89420B2F5A0
:100A7000845FE6D86AB10024121B39194FF0FF33A6
:100A8000286811F057FFB6F894200444A4B2A2429B
:100A9000F2D112F055FC0146124803F089FA002801
:100AA000CFD112F04DFC08F07DF80128C9D028689C
:100AB00011F04AFE0128C4D898F8003053B199F8D3
:100AC000230111F041F912F03BFC08F06BF801280A
:100AD000B7D0ECE70A20F4E7948201202C0303202E
:100AE00028830120947201208200032010B50D4953
:100AF0000D4806F001FA0C4C80224FF0FF330B49F1
:100B0000206811F017FF02460028F5D0074992B27D
:100B100007480DF02DFF4FF0FF320121002012F0A9
:100B2000A3FEE9E724040320CC030320C0B6002081
:100B3000EC25032002F0F4BB002002F0F5BB00BF5F
:100B40000022024B02481A600DF08CBBEC0203201D
:100B5000C0230320014B1868704700BFEC0203203C
:100B600010B59EB0482200210CA813F0D3FE00233C
:100B70004FF40070CDE90233CDE90433CDE90733FA
:100B8000CDE90933019306930B930BF0E5FC08B113
:100B900072B6FEE70123022216931193199317925E
:100BA00010231D9207229FED1E7BCDE91A320324EC
:100BB000042312900CA81C938DED0C7B18940BF061
:100BC00007FF034608B172B6FEE70F22214601A8CF
:100BD000CDE903330593029401920BF0A5FD034682
:100BE00008B172B6FEE7104A4FF0005C916D4BF60B
:100BF0007F3441F080719165926D069302F08072AE
:100C0000009208932222202306A8CDE90A23009906
:100C1000CDF81CC009940CF053FE1EB010BD00BFEF
:100C20002900000000000100001002402DE9F04101
:100C300094B072B64FF00062A24B9A60BFF34F8F30
:100C400062B6002408F0F0FD03F07CFFFFF788FF98
:100C5000CDE90F44CDE911449B4D1394EB6C4FF457
:100C6000604143F00403EB64EB6C224603F00403A1
:100C70000893089BEB6C954843F08003EB64EB6CA6
:100C8000012603F080030993099BEB6C4FF4007875
:100C900043F00103EB64EB6C082703F001030A93B4
:100CA0000A9BEB6C43F00203EB64EB6C03F0020372
:100CB0000B930B9B0AF090F9224640F201118448F5
:100CC0000AF08AF9224641F2E40182480AF084F9E6
:100CD0004FF460437D480FA9CDE90F36119412946B
:100CE00009F0C6FF40F2011379480FA9CDE90F368C
:100CF000CDE9114409F0BCFF41F2E40375480FA9A6
:100D0000CDE90F36CDE9114409F0B2FF70480FA9C3
:100D1000CDE90F84119609F0ABFF6F480FA9CDE91B
:100D20000F74119409F0A4FFAB6C052143F0040388
:100D3000AB64AB6C224603F004030593059BAB6CDC
:100D40001D203343AB64AB6C33400693069BAB6C06
:100D500043F00203AB64AB6C03F002030793079B01
:100D600008F098FD1D2008F0CFFD224605211E2029
:100D700008F090FD1E2008F0C7FD224605215020F6
:100D800008F088FD502008F0BFFD20460AF0A2FCC4
:100D900008B172B6FEE70AF0B1FC034648B94F4805
:100DA00043604F4B03600CF0B3FD034618B172B6BD
:100DB000FEE772B6FEE710224FF4407E4FF03C0C87
:100DC000042113250F24474882618262464A43600A
:100DD000C3608374C3631370444BC0E907C50360E9
:100DE000C0E90B41C0E90D66068246614662C0F863
:100DF00008E009F01DF80346D8B907224FF4E06176
:100E00004FF482743A48C0E90433C0E90833C0E9BA
:100E10000A3283600363374BC0F818800360C761F0
:100E200047634460C1600CF097FF034618B172B687
:100E3000FEE772B6FEE73048304AC0E905338380EA
:100E40000260066208F092FD08B172B6FEE74FF448
:100E5000E1310C222A4C2B4BC4E90200C4E9080002
:100E60002061A061A06260662046616062612360CB
:100E70000EF0B6FC014608B172B6FEE720460EF051
:100E8000DDFD014608B172B6FEE720460EF0FCFD1E
:100E900008B172B6FEE720460EF0B2FD08B172B698
:100EA000FEE700234FF4027102221748C372174B6A
:100EB00081800360C0F807200AF02AFC034638B39B
:100EC00072B6FEE700ED00E00010024000080242AA
:100ED0000000024200040242001C0242D825032006
:100EE00000080C42D4260320F002032000A4004096
:100EF00074250320003800403827032000300240CA
:100F0000EC250320008000404C20032000D400404A
:100F100041F63F75424C434ACDE90F0011902046FF
:100F2000C4E90133A3612260E5600DF08BFB034649
:100F300008B172B6FEE720460FA90F9311930DF08A
:100F4000B3FB034608B172B6FEE7374C374ACDE92A
:100F50000F00226042F20F72C4E902051190204690
:100F6000A36162600DF06EFB034608B172B6FEE746
:100F700020460FA90F9311930DF096FB034608B17D
:100F800072B6FEE74F254FF6FF742948C0E90433D7
:100F900083608361274BC460C0E900350DF052FBCC
:100FA000034608B172B6FEE72348C0E90153C0E921
:100FB0000343C0E90533214B03600DF043FB0346B7
:100FC00008B172B6FEE74FF080414FF0FF321C4C83
:100FD000CDE90F00CDE91100C4E901000CAD0C9082
:100FE0002061A0612046C5E901332160E2600DF077
:100FF00029FB08B172B6FEE74FF4805320460FA9D3
:101000000F930DF06DF9034608B172B6FEE729465D
:1010100020460C930E930DF047FB98B172B6FEE795
:10102000C0230320001400400C24032000100040C3
:10103000742303200044014028230320004801407A
:10104000582403200024654A0121654B00924FF487
:1010500000702246CDE9014411F0E4FA0546614EE4
:10106000614A00960121CDE90144604B15604FF4BF
:101070000070224611F0D6FA05465D4E5D4A009694
:101080000121CDE901445C4B156041F2010022468B
:1010900011F0C8FA0246594E594D00960121CDE98A
:1010A0000144584B2A6041F20100224611F0BAFA7D
:1010B000554B564A01210092CDE901442246186061
:1010C000534B43F6982011F0ADFA524B524A01218E
:1010D0000092CDE9014422461860504B43F6982017
:1010E00011F0A0FA4E4B4F4E1860204602F0B2FBB2
:1010F000204602F0C9FB02F00FFC12F021F92A464B
:10110000494B4A49009602F0FFFA494805F0D2FEE1
:10111000484802F0B3F84848484A494900F0FEFD03
:101120000FA80F9402F08CFB20B90F9B13B9454810
:1011300002F05EFB10F05EFD0021434A434810F0D0
:10114000A9FD0446424B0021424A43481C6010F06E
:10115000A1FD0446414B0021414A42481C6010F069
:1011600099FD0446364B00213F4A40481C6010F070
:1011700091FD04463E4B00213E4A3F481C6010F062
:1011800089FD04462D4B00213C4A3D481C6010F06F
:1011900081FD0446254B00213A4A3B481C6010F073
:1011A00079FD0446394B0021394A3A481C6010F059
:1011B00071FD0446384B0021384A39481C6010F054
:1011C00069FD0446374B0021374A38481C6010F04F
:1011D00061FD374B186010F02FFDFEE7F803032088
:1011E000C0B90020D0030320F4030320C0B70020BF
:1011F000A0030320CC030320348500207C030320BC
:1012000030030320307500202C03032058030320F3
:10121000983A0020C8270320340303200000002050
:10122000C42703202403032028030320840D032064
:10123000D825032038270320D42603203412032086
:10124000941B0320040029C0E85B0108D5050008B1
:1012500048200320C45B0108210600084420032025
:10126000A05B0108DD0600087C5B01086D07000833
:10127000E4160320585B010805080008345B0108E8
:10128000A1080008105B01082D0A0008D4080320FB
:10129000EC5A0108ED0A000824040320C85A01088A
:1012A000350B000820040320A45A0108390B00085C
:1012B0001C0403200A4B186880B1002100B583B0DC
:1012C00001AA019112F072FC019B2BB14FF0E023B7
:1012D0004FF08052C3F8042D03B000BD704700BF2B
:1012E0002404032070B500251E4C82B0228801958D
:1012F0007F2A0ED81C4B19780D2904D01B48531C8B
:1013000081549BB206E0013A7F2A02D8184E306819
:1013100040B9002301221449164823800EF028FB0F
:1013200002B070BD2B460222214611F0B5FA022808
:10133000EFD12B46228830680C4911F0ADFA238892
:101340009842E6D10C4B2946186801AA12F02EFCEF
:10135000019B002BDDD04FF0E0234FF08052C3F80B
:10136000042DD6E7C4030320C803032040B70020A0
:10137000F4030320EC25032048200320094A0368D6
:10138000934206D0084A93420AD0084A934205D0B5
:101390007047074A136801331360704701F0B8BF04
:1013A00008F054BA00140040002C01400010004026
:1013B000EC02032072B6FEE7704700BF034B044AFD
:1013C0001B68D07D1B6803491B6D18471001032063
:1013D00060000320A42B032008707047007870473A
:1013E000030A08704B707047012994BF0078008889
:1013F000704700BF012908D94FF6FE2302889A42A0
:1014000003D8981AC0F34F0070470020704700BF00
:10141000012911D94378FA2B07D8084AC3EB0330C6
:10142000A2FB0020C0F30F10704740F6FF72FF2BA5
:101430000CBF00201046704700207047D34D62104B
:10144000022907D94FF6FF73B0F80100984208BF90
:101450000020704700207047042907D94FF6FF731A
:10146000B0F80300984208BF002070470020704782
:10147000012907D94FF6FF730088984208BF4FF43F
:10148000006070470020704701290ED94FF6FF73A6
:101490000088984209D047F27F53984238BF1846D7
:1014A000A0F5EA407F3880B270474FF40060704783
:1014B000032986BFC078C0F381000020704700BFB9
:1014C00009B1007870470846704700BF012906D966
:1014D000437803F00F03013BDBB2022B01D900205C
:1014E0007047024A32F81300704700BF0C5C0108D5
:1014F00019B10178C1F3810070470846704700BFF9
:10150000032986BFC07800F003000020704700BFA9
:10151000034600B583B008465BBA02220DF106010E
:10152000ADF8063007F03AFD03B000BD8446002355
:1015300010B50C4682B00DF1060002226146ADF8EE
:10154000063007F02BFDBDF80600012C98BFC0B295
:1015500040BA80B202B010BD002300B5012983B0AB
:10156000ADF8063002D8184603B000BD014602228D
:101570000DF1060007F012FD9DF8060003B000BD56
:1015800038B50D4604460822FF21284607F002FD23
:10159000B4F5FB4F0ADAC4F5FA447F34640004F072
:1015A000FE03C4F307242B706C7038BD002423465F
:1015B0006C702B7038BD00BF38B50D460822FF2176
:1015C0000446284607F0E6FCFA2204FB02F2044B2C
:1015D000A3FB0213D21A03EB5203DB0A6B7038BD74
:1015E0000101100038B50C4605460822FF212046AF
:1015F00007F0D0FC2B0A6570A37038BD38B50C46D7
:1016000005460822FF21204607F0C4FC2B0AE5709E
:10161000237138BD38B50C4605460822FF21204607
:1016200007F0B8FC2B0A2570637038BD38B50C463E
:1016300008220546FF21204607F0ACFC48F6802230
:1016400047F27F53954294BF5B199B189BB21A0ACD
:101650002370627038BD00BF38B50D4604460822BD
:10166000FF2128467D3407F095FCAC7038BD00BFE3
:1016700038B50D4604460822FF21284607F08AFCAB
:10168000EB78A40023F00C0304F00C042343EB706C
:1016900038BD00BF38B50C4605460822FF2120465C
:1016A00007F078FC257038BDFF2838B50D460FD9F6
:1016B000C3B2002B0CBF012403240822FF212846BB
:1016C00007F068FC6B7823F00F031C436C7038BD87
:1016D000031E18BF01235C00EFE700BF38B50D46BD
:1016E00004460822FF21284607F054FC2B78A4006A
:1016F00023F00C0304F00C0423432B7038BD00BF0F
:1017000038B50C4605460822FF21204607F042FC6A
:10171000E37805F0030523F003032B43E37038BDA2
:1017200038B50D4604460822FF21284607F032FC52
:10173000012C0AD0022C05D0032C0CBFD723FF2389
:10174000AB7038BDC723AB7038BDC323AB7038BD99
:1017500038B50C4605460822FF21204607F01AFC42
:10176000EBB2022B12D0032B09D0042B0CBF512358
:101770000023FF2D88BF43F00403237038BD1123DD
:10178000FF2D88BF43F00403237038BD0123FF2DD4
:1017900088BF43F00403237038BD00BF38B50C4642
:1017A00005460822FF21204607F0F4FB15F0080F3C
:1017B0000CBF0021FA2115F0100F0CBF0022FA22F5
:1017C00015F0200F0CBF0023FA2315F0400F0CBFBB
:1017D0000020FA2015F0800FE0700CBF0020FA20E6
:1017E00015F0010F21700CBF0021FA2115F0020F36
:1017F00062700CBF0022FA2215F0040FA3700CBF18
:101800000023FA2320716171A271E37138BD00BF1A
:10181000022906D980787D38C0B2812888BF00208F
:1018200070470020704700BF032906D9C0787D3873
:10183000C0B2812888BF002070470020704700BFD9
:1018400002290FD9837803F00C02042A01D0012069
:101850007047C3F30113012B06D0002B0CBF0220ED
:1018600001207047002070470320704707292DD9B9
:1018700003784278A3F1FA03B3FA83F3FA2A4FEA22
:10188000531382784FEAC30308BF43F01003FA2AC8
:10189000C27808BF43F02003FA2A027908BF43F058
:1018A0004003FA2A427908BF43F08003FA2A82797A
:1018B00008BF43F00103FA2AC27908BF43F00203CC
:1018C000FA2A08BF43F00403184670470020704707
:1018D00000787047D9B103789A09012A0ED003F035
:1018E0003002102A15D003F00302012A14BF012090
:1018F000022003F00C03042B06D0704703F00C0306
:10190000042B4FF00400F8D140F47F4070470846A4
:1019100070470320EDE700BF0078704700787047FC
:1019200000787047007870470870704708707047FB
:10193000087070470870704708707047030A087095
:101940004B707047012994BF00780088704700BF32
:1019500038B50D460822FF210446284607F01AFB39
:10196000FA2204FB02F2044BA3FB0213D21A03EB8C
:101970005203DB0A6B7038BD01011000012911D937
:101980004378FA2B07D8084AC3EB0330A2FB0020A8
:10199000C0F30F10704740F6FF72FF2B0CBF002002
:1019A0001046704700207047D34D6210034600B5C3
:1019B00083B008465BBA02220DF10601ADF806308D
:1019C00007F0ECFA03B000BD034600B583B008464B
:1019D0005BBA02220DF10601ADF8063007F0DEFA1F
:1019E00003B000BD034600B583B008465BBA0222CF
:1019F0000DF10601ADF8063007F0D0FA03B000BDD6
:101A0000034600B583B008465BBA02220DF1060119
:101A1000ADF8063007F0C2FA03B000BD034600B5CA
:101A200083B008465BBA02220DF10601ADF806301C
:101A300007F0B4FA03B000BD034600B583B0084612
:101A40005BBA02220DF10601ADF8063007F0A6FAE6
:101A500003B000BD034600B583B008465BBA02225E
:101A60000DF10601ADF8063007F098FA03B000BD9D
:101A70008446002310B50C4682B00DF10600022208
:101A80006146ADF8063007F089FABDF80600012C72
:101A900098BFC0B240BA80B202B010BD84460023E5
:101AA00010B50C4682B00DF1060002226146ADF879
:101AB000063007F073FABDF80600012C98BFC0B2DB
:101AC00040BA80B202B010BD8446002310B50C4667
:101AD00082B00DF1060002226146ADF8063007F033
:101AE0005DFABDF80600012C98BFC0B240BA80B2C2
:101AF00002B010BD8446002310B50C4682B00DF133
:101B0000060002226146ADF8063007F047FABDF83C
:101B10000600012C98BFC0B240BA80B202B010BD1E
:101B20008446002310B50C4682B00DF10600022257
:101B30006146ADF8063007F031FABDF80600012C19
:101B400098BFC0B240BA80B202B010BD8446002334
:101B500010B50C4682B00DF1060002226146ADF8C8
:101B6000063007F01BFABDF80600012C98BFC0B282
:101B700040BA80B202B010BD8446002310B50C46B6
:101B800082B00DF1060002226146ADF8063007F082
:101B900005FABDF80600012C98BFC0B240BA80B269
:101BA00002B010BD002300B5012983B0ADF80630A6
:101BB00002D8184603B000BD014602220DF106000E
:101BC00007F0ECF9BDF80600000A03B000BD00BF45
:101BD000012918D9037803F00302012A17D003F072
:101BE0000C02042A15D003F03002102A0DD003F0A5
:101BF000C003402B0FD0437803F00303012B0CBF2D
:101C00000620012070470020704705207047022001
:101C10007047032070470420704700BF2DE9F04F44
:101C20003A4B8346984283B007D8394B984260D9E3
:101C30004FF028094FF4487609E036494FF025095E
:101C4000B1FBFBF1C9B2192940F2EE265BD90124A0
:101C5000304B0134A4B2B3FBF4F1B1FBFBF1C9B2D8
:101C60001929F6D8B4F5806F3FD201202A4BCDF860
:101C700004B01F6823186FF0004C4FF47A759B4630
:101C80001FFA83FAA1F1020EBEEB510F4FEA510386
:101C90001ADD01F1FF385FFA88F805FB03F2B2FBA9
:101CA000F1F2B21A002AB8BF5242624509DA9145F0
:101CB00007DB00209446A8EB0302D2B2FB617C61F3
:101CC0003A6201337345E8DB124B1FFA8BF4B3FB26
:101CD000FAF1019BB4F5806FB1FBF3F10AF1010A4F
:101CE000C9B203D004F1010BCCE7012003B0BDE879
:101CF000F08F08494FF02B09B1FBFBF1C9B219294C
:101D000040F26B36A3D80124AFE700BF00350C00CA
:101D100020A10700005A6202BC28032038B50C46F7
:101D2000064D0749074B0A602860074901201C60DF
:101D300010F018FA054B186038BD00BFBC2803200E
:101D4000B4280320B8280320CC2703201C28032014
:101D500030B53F4C83B0206808F0FEF9206808F0E9
:101D600067F8002851D100223A4D40213A482A71A3
:101D7000EA602A616A61AA61AA60EA6185F82020A6
:101D800009F02AF9206805F1240108F03BF9002840
:101D90005BD13249206808F035F9002852D1002380
:101DA000022220681146009308F058F9002846D115
:101DB000206808F075F900283ED100220121206832
:101DC00008F01CFBA8BB00220621206808F016FBC7
:101DD00060BB07224FF4F051206808F00FFB10BBE6
:101DE00007228021206808F009FBC8B900221C499D
:101DF000206808F003FB80B900224FF460212068BE
:101E000008F0FCFA20B903B030BDFFF7D3FAAAE717
:101E100003B0BDE83040FFF7CDBAFFF7CBFAEBE7F0
:101E2000FFF7C8FAE2E7FFF7C5FAD9E7FFF7C2FA0A
:101E3000CFE7FFF7BFFAC6E7FFF7BCFABDE7FFF74A
:101E4000B9FAB5E7FFF7B6FAA9E7FFF7B3FAA0E7E3
:101E5000BC28032000000320000402423C000320B1
:101E600000407100014B186808F076B9BC280320C7
:101E7000704700BF082824D8DFE800F0080C1014D1
:101E8000171A1D2005001448FFF7C8BE42F2107053
:101E9000FFF7C4BE44F62060FFF7C0BE4CF25030DE
:101EA000FFF7BCBE0D48FFF7B9BE0D48FFF7B6BE41
:101EB0000C48FFF7B3BE0C48FFF7B0BE0B48FFF766
:101EC000ADBE0B4AA0F51C53103B934201D9012033
:101ED0007047FFF7A3BE00BF40420F00A08601007D
:101EE00048E8010090D0030020A1070000350C0055
:101EF000301B0F000346054A1978002051615978BC
:101F0000D16199781162DB7893617047D426032000
:101F10000246024B00209A61704700BFD42603207E
:101F2000034600B5064A93F801E093F800C082F832
:101F300010E004499B7881F800C05374002000BD74
:101F4000D4260320F00203202DE9F047054682B095
:101F5000C0680F4607F018F8AB68B3F1005F3ED0D9
:101F60000646824600F12409264C4FF0FF312068D6
:101F700010F0B6F90128F8D1DFF89480D8F8000005
:101F800010F0CEFB484517D202251F4A13792B4388
:101F90001371002320681A46194610F047F81B4AAF
:101FA00002231268106800221146009211F0DEFC34
:101FB000284602B0BDE8F08729464FF0FF332422BF
:101FC000D8F8000010F0CEFB054686B94D450CD080
:101FD0000D4A0125137943F008031371D9E74FF037
:101FE000000A4FF024095646BEE70025D1E75246C5
:101FF00039464FF0FF33D8F8000010F0B3FB05442A
:10200000E4E700BF1C28032000000320B8280320B9
:10201000C42703202DE9F04700250C4682B0C907EC
:102020000646019516D4A20707D50221314A137935
:1020300043F00103137133681965630738D4019BBA
:102040002BB14FF0E0234FF08052C3F8042D02B0C3
:10205000BDE8F087DFF8A890DFF8988040214A4675
:10206000254B08F0F1F8D8F81430D9F80C000133FA
:10207000C8F8143006F088FFDFF888A00746DAF8C1
:10208000000010F04DFB07F12803984224D3494685
:102090002822DAF8000001AB10F0FEFB002FC2D0BE
:1020A0003A46DAF80000144901AB10F0F5FBBAE744
:1020B0000424104B11499A69086801329A611A790F
:1020C000002142F008021A71336800680DEB040227
:1020D0001C6511F06BFDB2E7D8F8183029460133C2
:1020E000C8F81830054B01AA1B68186811F05EFD8E
:1020F00099E700BF0000032074280320B4280320C0
:102100004C280320C8270320002110B50A4A0B4C95
:102110001268236982B01068013301AA236101911A
:1021200011F044FD019B2BB14FF0E0234FF08052A2
:10213000C3F8042D02B010BDB8280320000003200E
:10214000002110B50A4A0B4C1268E36982B010688E
:10215000013301AAE361019111F028FD019B2BB12C
:102160004FF0E0234FF08052C3F8042D02B010BDB1
:10217000B42803200000032038B50C46104D294632
:1021800008F0FCF8A10303D5EB68A3B90D4A13606E
:10219000620309D52B690B4A012B13790CBF43F05D
:1021A000040303F0FB031371230303D50122054B42
:1021B00083F8202038BD4FF00042024B1A60E7E759
:1021C0002028032000000320024A034B10801980BE
:1021D000704700BF54000320C6280320F8B500252F
:1021E0004FF400770E46384B384AC3E90055C3E92F
:1021F0000255374B37491D80374B17801D80374BB1
:10220000B5221D80364B04461D70364B36481D7076
:1022100012F022FC2946344D3B2205F1B50012F0A4
:1022200079FB002E4AD0204605F2FF13344410F803
:10223000012BA04203F8012FF9D1002206F500700E
:102240002A4B80B2B0F5805FC3E9002207D0264B4D
:10225000C6F56062002192B2184412F05BFB0024C4
:10226000234B4FF48062214622481C7012F052FB2F
:10227000214A224B1588224665F30F0465F30F02AD
:1022800003F5905065F31F4465F31F42C3E9004214
:1022900008339842FAD1032500221821184B2E2426
:1022A0001D70184B40201A702022174B1980174BB5
:1022B00017491C80174B08701A70F8BD0B4B384635
:1022C000C3E90066C3E700BF2029032014290320C7
:1022D00030290320A857010816290320D0280320FD
:1022E000CD280320CC280320C04F0120182903202B
:1022F000C5280320C04B0120C6280320C0BB0020F6
:1023000058000320C82803205C0003205A00032043
:102310005700032056000320014B1878704700BF78
:10232000C428032001220249024B08601A7070473A
:10233000C0280320C42803200022014B1A707047D4
:10234000C42803202DE9F04F3D493E4B3E4A91F809
:1023500000801B7892F8009089B0B8F1000F6CD023
:1023600003FB08FE394A03FB0EF01288384903923A
:10237000384AB1F800A01D4600214FEA4E0E4FEA40
:10238000400BA2EB4304B9F1000F08D1013188B230
:10239000804541D9013188B28045F7D83CE00592AB
:1023A000084622460146069000275046EC1A04943F
:1023B00002EB450C0792284CCA08A25C01F0070406
:1023C000E24012F0010F039A14BF04461446A3B171
:1023D0006646DDF810A0CDF808C0B44600220132F0
:1023E0009342ACF80040F444F9D10AF1010AAA453D
:1023F00006F10206F1D1DDF808C00137BAB2914505
:102400004144DC44D7D88246DDE90602013081B27E
:1024100041451D44C6D3059A18FB03F81FFA88F8F6
:102420000E490F48009203FB09F3424609880088D1
:1024300004F0D4FB09B0BDE8F08F064AF0E700BF16
:10244000570003205800032056000320C62803200D
:1024500054000320C0BB0020C04B01205A000320C1
:102460005C00032000212DE9F04F744B744A93F86F
:1024700020308BB0023B1180042B06D8DFE803F03C
:102480004E5155034B00802313806E490B68C31ACD
:10249000102B09D96C4C23780BB1013B23706B4C8A
:1024A0002378002B34D1086040F6FE73684C2788EF
:1024B0009F4227D8674B1D88B5F5805F22D26649B9
:1024C000664ECB195B78C95D43EA0123194603F4D4
:1024D0007040B0F5004F1BB2318000F0DD8228D88B
:1024E000B0F5804F00F07E813FD8B0F5005F00F07E
:1024F000398300F22A83002800F07D81C3F30B03A7
:10250000238002E00022564B1A700BB0BDE8F08F1A
:10251000013B2370C7E740231380B6E720231380D5
:10252000B3E74FF480731380AFE74FF40073138069
:10253000ABE7B0F5404F00F024832FD8B0F5204F23
:1025400000F0FC82B0F5304F00F03C81B0F5104F48
:10255000D8D1444BC1F30322C1F303119A5C5B5CF5
:102560009A4216D00237BFB213E0B0F5C04F00F068
:10257000CC82B0F5E04F00F02C81B0F5A04FC1D176
:10258000384AC3F30321C3F30313515CD35C99426C
:10259000E8D0023727800BB0BDE8F08FB0F5604F70
:1025A00000F0BA82B0F5704F00F07481B0F5504F72
:1025B000A8D12C4AC1F3032012F800A04FF0000C60
:1025C0001046294FC1F30311525C03F00F063B780C
:1025D000069280F80FC0002B00F04382002E00F01E
:1025E000E082082300221FFA86F9039307931F490C
:1025F000079B097853448B4200F3D0821C4B069909
:102600001B7849449942D4BF002301230293002739
:10261000002A14BF4FF400438023BB460493CDF837
:1026200024A0B9F1100F00F02D820B4B1D4415F8BA
:1026300007800025099ECDF820906FE06000032000
:10264000CE280320C0280320CC280320CD28032037
:102650001429032016290320C04F0120302903200C
:10266000C428032020290320C52803205700032065
:1026700056000320BB4B069A1978BB4B3A441B7893
:10268000B2FBF1FCB6FBF3F04FF0010A01FB1C2298
:1026900003FB106003FB0203DFF8E8924FEAD30E5E
:1026A00019F80E1003F0070321FA03FB1BF0010FCA
:1026B000059218BFAD4A0AFA03FC5FFA8CFC18BFFA
:1026C00082F80FA0029A0CBF41EA0C0121EA0C012A
:1026D00009F80E10002A00F0D281D940CB0754BF70
:1026E000A34BA44B059A1B88A3490093A34B0988CD
:1026F0001B784FF0010B12FB03F210FB03F01144A7
:102700009F4A89B21288104480B21A4604F0F2F946
:10271000039B01359D4206F101064AD0049B2B41E3
:1027200013EA080FA6D1029B002BF1D18D4B19782B
:102730008D4B1A78069B3B44B3FBF1F001FB103044
:1027400096FBF2F302FB136302FB00338D49DA08B8
:10275000895C03F00703D940C90754BF844B854BFC
:10276000B3F800C0854B19780029D1D0079B15FB21
:1027700001F911FB03F211FB07F313FB0293500065
:10278000814A09EB010A02EB430E72460023013332
:102790008B42A2F800C00244F9D109F10109D145E8
:1027A0000EF1020EF1D1039B01359D4206F10106A7
:1027B000B4D1DDF8209001374F4500F09981734B7B
:1027C0001D882EE7694AC3F30B0312781344238054
:1027D0009BE66648C3F30321425C0237134427801B
:1027E000435492E66149C3F303228A5CDBB29A4206
:1027F0007FF4B8AECDE6DAB2012A3FF4CAAEE03AD1
:1028000091B21F2900F2C4801F2A00F2C18001A1E9
:1028100051F822F0CF2E00089129000891290008D4
:1028200091290008912900089129000891290008A0
:102830009129000891290008912900089129000890
:10284000912900089129000891290008AD2E00085F
:102850009129000891290008912900089129000870
:102860009129000891290008912900089129000860
:102870009129000891290008912900089129000850
:10288000E12D00086D2C000805250008012C00082A
:10289000672D0008DBB2332B00F39381062B7FF703
:1028A00031AE073B2C2B3FF62DAE01A050F823F0A4
:1028B000B931000805250008052500081530000875
:1028C0000525000805250008052500080525000840
:1028D0000525000805250008052500080525000830
:1028E0000525000805250008013000080525000819
:1028F00005250008413200080525000805250008C7
:102900000525000805250008052500082B320008CC
:1029100005250008052500080525000805250008EF
:1029200005250008052500080525000805250008DF
:1029300005250008052500081332000805250008B4
:1029400005250008052500080525000805250008BF
:1029500005250008F73100080525000805250008B1
:102960004F31000856000320570003202029032080
:10297000C6280320540003205A00032058000320D7
:102980005C000320C04B0120C0BB0020162903209F
:1029900003F0F002C02A00F06983D02A7FF4B2ADC0
:1029A000A34A03F00F031278002A54D000254FF0F9
:1029B000010B9C469F4902FB03F991F800A0AAEB8A
:1029C000030802FB08F1E24528DD2F46CE46CDE99B
:1029D00002CCCDE9041598484FEADE03C35CF90840
:1029E00010F801C018460EF0070607F007030BFAAF
:1029F00003F320FA06F6DBB2F00743EA0C0558BFF2
:102A00002CEA03058C4B96445D54029B174401331A
:102A10009A450293DFD1DDE903C1059D904513DAA4
:102A20000B46464684484FEAD30E10F80E0003F0DA
:102A300007070BFA07F720EA070701367E48964298
:102A400000F80E701344EDD10135954201F10101FA
:102A500009F10109B7D1FFF775FC23880233238000
:102A600053E5764BC0221B882E210093182060234B
:102A700004F040F801233B70714B1D88AEE54FF028
:102A8000010B68E66F4B05EB47055A1992F8018078
:102A90005B5D48EA0328CCE5C1F3032203F00F0392
:102AA0001546C1F303100E2B3FF62CAD01A656F8C8
:102AB00023F000BFF32F0008E12F0008CF2F0008FC
:102AC000BD2F00089D2F0008532F00083D2F000840
:102AD0001F2F00080525000805250008052500080A
:102AE0000525000805250008052500080B2F00080E
:102AF000DDF824A0BBF1000F03D0029B002B00F0F7
:102B00004981238802332380FFE44F49C3F3032222
:102B100002378B542780F8E4DBB29E2B47D0A12BE1
:102B20007FF4F0AC4848C1F303211388425C1341A1
:102B3000DB073FF52EAD04372780E6E4404AC3F3B8
:102B40000B03023713802780DFE4B0F5405F7FF48A
:102B5000D9AC3D49C3F303228A5CDBB29A427FF4CD
:102B600018ADFFE439493A480A8820F8127001325A
:102B700092B21F2A0A807FF6C1AC0021354A11703B
:102B8000BCE404F09FF933882F4DC3F3032100EA1E
:102B9000030223886A5402332380B6E4012302939C
:102BA00035E5102301229946039307931FE5264834
:102BB000C1F303211388425C1341DA077FF5E9ACC6
:102BC000B9E7752B00F0EF8200F3BF80552B00F0C2
:102BD000FD82652B7FF496ACC1F30326AB19B3F5E8
:102BE000805FBFF68FAC174B721C5919164811F055
:102BF00033FF0135124B2E4402371E80278084E4B8
:102C0000032000231821144A202510702E20402272
:102C100002372780114C2370114C2370114B054C47
:102C200019801149024B257008801A706DE400BFAD
:102C30005700032056000320C04B0120C628032064
:102C400016290320C04F012020290320D02803206B
:102C5000D4280320C428032058000320C5280320BB
:102C6000C82803205C0003205A000320BC4BBD4A47
:102C70001B7892F800A0002B0CBF4FF0020C4FF015
:102C8000040CBAF1000F3FF4E6AE0025B64B4FF04E
:102C900001091E78DFF8D4E2A6EB0C07B0463B46EC
:102CA00037462E46002B4ADD70462A46CDE90237CC
:102CB000CDE904CACDE906850CEB050103EB050B54
:102CC000D3081EF80350CF0801F0070302F0070AEB
:102CD0001EF8078009FA03F325FA0AF5DBB2ED07BF
:102CE00002F1010243EA080C58BF28EA030C93459D
:102CF0000EF807C001F10101E2D1DDE90237DDE99B
:102D000004CADDE90685BB4280F246820246594686
:102D100002934FEAD10B12F80B3001F0070009FAC9
:102D200000F0013123EA0003414502F80B30F0D1F5
:102D3000029B0136B245B8443D44B3D18BE6BB4259
:102D4000F7DA8A4A03EB050BE1E7852B7FF4DAAB70
:102D5000C1F30322864887490132023711F07CFE15
:102D60002780FFF7D2BB0123382583480237037041
:102D70008248278005800020802440228049814DA0
:102D80000870794977480C7075492A8002700B7079
:102D9000FFF7BBBB744B1A78724BBAFBF2F11B788E
:102DA00002FB11A00699B1FBF3F203FB1211724B67
:102DB0001A7812FB07F311FB02F110FB02F012FB71
:102DC00005F2704D9BB22D8892B229446B4D89B2A9
:102DD0002D8828446C4D80B2009503F0FFFE90E6EC
:102DE0005F4B604A1B7892F800A0002B0CBF4FF09D
:102DF000020C4FF0040CBAF1000F3FF42CAE4FF070
:102E000001090022584B0CF1FF3793F80080A9EB21
:102E10000C0B08F1FF33A3EB0C0E544BE0450BEB0E
:102E2000070640D97046CDE9028CCDE904260CEBAB
:102E30000E01CDF818A0CA089D5CC60800F0070274
:102E400001F0070A13F8068009FA02F225FA0AF5DA
:102E5000D2B2ED0701F1FF3142EA080C58BF28EA6F
:102E6000020C8F4203F806C000F1FF30E3D1DDE928
:102E700003C2DDE9056A4FEAD60813F8080006F038
:102E8000070509FA05F520EA0500B74203F808002E
:102E900006F10106EFD1DDF80880013252454744C2
:102EA000C644BBD1D7E5CDF80880E4E7374A13889C
:102EB000013B9BB21F2B138002D90021344A1170B1
:102EC000344A32F8133002332380FFF71EBB4FF42D
:102ED00080620021254811F01DFD2349264A214B1F
:102EE000087812781B78274902FB03F300FB02F2F3
:102EF00029480988008800902048008803F0FAFDDE
:102F0000238802332380FFF700BB194A0237135C82
:102F100027805900DB095155D373FFF7F6BA144BDC
:102F20000237185C995C27808142A0EB01048CBFBA
:102F3000002101219C54D973FFF7E7BA0C4A0237EC
:102F4000135C2780590803F001035155D373FFF731
:102F5000DCBA074B0237195C2780985CE4E700BFB6
:102F6000C82803205600032057000320C04B01202F
:102F70002029032018290320580003205C00032087
:102F8000C52803205A000320C0BB0020D0280320FE
:102F9000C4280320D4280320C6280320AD4B0237C1
:102FA000195C985C27800C18C0F1FF008142D4BFE7
:102FB000002101219C54D973FFF7A7BAA54B023712
:102FC000195C985C278041409954FFF79EBAA14B49
:102FD0000237195C985C278001409954FFF795BA35
:102FE0009C4B0237195C985C278001439954FFF78A
:102FF0008CBA984B0237195C27809954FFF785BA31
:10300000944AC1F30321525C934B02371A70278014
:10301000FFF77BBA0020914DB2F800804FF0010E0F
:1030200084462A8805E04FF0010CB2B20130102826
:1030300015D048FA00F30EFA00F613F0010346EA41
:103040000206F0D142FA00F6F607EFD52B80814B4D
:10305000C1F30321023727805854FFF756BABCF159
:10306000000F3FF452AA2A80FFF74FBA7C4A03F0C0
:103070000F05117800293FF4EEAC7A4B6A1E1B78DD
:1030800000205B1B5F1E1A44002F01FB02F201FBB4
:1030900007F62EDB744B9446B046BB46CDE9025290
:1030A00004904FF001094FEAD80E13F80E500CF0BF
:1030B000070E4FEADC0209FA0EFE08F00709985CD9
:1030C00025FA09F95FFA8EFE19F0010F0BF1FF3BAB
:1030D00040EA0E0A08BF20EA0E0ABBF1FF3F03F8E0
:1030E00002A0A8EB0108ACEB010CDAD1DDE9025239
:1030F00004980DB34FF0010A5B4B84464FF0000E6D
:103100004FEADC0913F809800CF0070B0EF1010EF1
:103110000AFA0BFB28EA0B08754503F809808C4472
:10312000EED10130814206F1010602F101023FF4C5
:1031300092AC002FAFDAE0E70130814206F10106E0
:1031400002F101023FF487AC002FA3DAF4E705F1A6
:10315000020CBCF5805FBFF6D5A902372780642436
:103160003C4BC1F303215A5C0A20B2FBF4F33F4EFF
:10317000735504FB1323DBB2B2FBF0F2B3FBF0F4A4
:1031800000FB1433B2FBF0F400FB142271194A70F7
:1031900006F80C30FFF7B9B901365645B8443D443E
:1031A0007FF483AD57E4C1F303220132294930484B
:1031B00011F052FCFFF7EDB9274A264B1278C1F304
:1031C000032102375A542780FFF79FB9C1F3032622
:1031D000AB19B3F5805FBFF695A9244B1D4958196B
:1031E000721C11F039FC0135224B7119023719801C
:1031F0002780FFF78AB9174BC1F303215B5C1D4A97
:1032000003EB83035B000237503313802780FFF703
:103210007CB9104BC1F303215B5C164A023703EB08
:10322000830313802780FFF770B90A4BC1F3032192
:103230005B5C104A02372B4427801380FFF765B987
:10324000044AC1F30321525C0B4B02371A702780EA
:10325000FFF75BB920290320CD280320CA280320CB
:103260005700032056000320C04B0120C04F01200F
:103270001829032016290320CC280320704700BFFB
:1032800091B14FF0FF3210B4084C014410F8013BEB
:103290005340DBB254F82330884283EA1222F5D13E
:1032A000D0435DF8044B704708467047F47C010832
:1032B000704700BF704700BF0022014B1A60704783
:1032C00038290320034B1B689B7C03B9704700F02F
:1032D000C7BE00BF1001032010B5094C094A23687E
:1032E000094903FB02F2B1EBB20F02D201332360B2
:1032F00010BD064803F042FE23680133236010BD71
:1033000038290320295C8FC2285C8F02605801088D
:10331000024A136801331360704700BF3429032049
:1033200000200FF0D7BE00BF00200FF0D3BE00BFBB
:10333000704700BF124B1B68198901B310B40024F9
:103340005B68104A03EB411CD3E90001C2E90001AC
:10335000986899699061D8682033506153F8100CCF
:103360006345C2E9024053F80C0C02F1740242F8C2
:10337000100C42F8041CE7D15DF8044B704770470D
:10338000100103203C29032070B500240E4B0121BD
:103390001B680E4A9D7C0E4B2D1B18BF01256D42EC
:1033A00003F54B761170EDB218460822294611F04C
:1033B000B1FA03467433B342C0E91144F4D1BDE815
:1033C0007040FFF7B7BF00BF100103208200032049
:1033D0006029032050B3164B1A68824226D02DE98B
:1033E000F041857C0122003D18BF01250024114ECB
:1033F000186096F80080104B6D4203F54B775FFA2A
:1034000088F83270EDB218460822294611F082FA87
:1034100003467433BB42C0E91144F4D1FFF78AFF7D
:10342000FEF726FD86F80080BDE8F081704700BFFA
:1034300010010320820003206029032000293CD0D2
:10344000F0B5784B83B01D68AF7C6FB906462C8A07
:1034500044B1EB6803EBC40C1C68B4420FD00833D2
:103460006345F9D103B0F0BDC0F30743EF2B4FEA3A
:103470001024C0F31126EAD86B4E2640E7E71C79EA
:10348000E7B1B6F56F4F49D04FF6D4539E426CD09A
:103490004FF602739E4200F0B3800F2C10D12B68C0
:1034A0001046DB6F00929847009A137803F00303ED
:1034B000032BD7D05D4B1883D4E77047082C3BD043
:1034C0002B68104603EBC4035B689847102CC9D8DF
:1034D00001A353F824F000BF8D350008C135000862
:1034E000C7350008CD350008D3350008D9350008A8
:1034F000DF350008E5350008EB350008A535000884
:10350000AD350008B5350008BB3500089935000811
:103510009F350008B534000893350008C0F3072034
:10352000132866D05A289DD12B6810465B6D9847AA
:103530003E4AC3B2D37595E72B6810465B6C009189
:10354000019298470099394CC0B20129207389D063
:10355000019A1046FEF726FB84F8200094F820001C
:1035600003B0BDE8F04001F003BAC3B2212B50D044
:103570005A2B7FF477AF2B681046DB6C9847C3B2A9
:10358000032B3FF46FAF294A93756BE7274B5880A5
:1035900068E7264BD88365E7244B188262E7234B04
:1035A00098835FE7214BC0B298755BE71F4BC0B2B1
:1035B000D87557E71D4B588354E71C4B588251E789
:1035C0001A4B18804EE7194BD8804BE7174B988061
:1035D00048E7164B988245E7144B588142E7134B56
:1035E00018813FE7114BD8813CE7104BC0B21873EC
:1035F00038E72B681046DB6A98470C4B588131E757
:103600001046FEF7E5FA094B83F8200093F82000F6
:10361000A6E72B6810465B6F9847044AC3B29383B2
:1036200020E700BF1001032000FF0300600003201B
:10363000314B1B78002B5DD12DE9F047DFF8C490AA
:1036400003F0FF05D9F8003082B01B89002B4ED063
:103650002A4C0646A4F12407C4F1000808E0D9F872
:10366000003001351A89ABB29A4204F174043ED994
:10367000A36C226CF31A9342F1D3B4F94C3008EBEB
:10368000040A0AF1240000EBE300002B384408DBB5
:10369000B4F8443002225BBA01A9ADF8043005F059
:1036A0007DFCB4F94E30002B4FEAE30111DB2046DC
:1036B000FFF7E6FDB4F94E300190002B0AF124002B
:1036C000B8BF073300EBE300042201A9384405F03A
:1036D00065FC0B4B21461B68A4F1240044F8143C04
:1036E000FEF732FC636CA66401336364B7E702B093
:1036F000BDE8F087704700BF8200032060290320E7
:10370000000003201001032038B50446054B064D88
:103710001A60296000F026F8204605F0F7F900202D
:1037200038BD00BF682C03206C2C032005F00EBAB6
:1037300000B50A4B83B01B6805F03EFA012801D0A2
:1037400003B000BD0022064902230968086811463B
:10375000009210F00BF903B000BD00BF682C0320ED
:103760006C2C032000B583B0102001A900F000F9F3
:1037700008B903B000BD0021102000F0E1F80038C6
:1037800018BF012003B000BD00B583B0102001A90F
:1037900000F0EEF820B90146019820B903B000BD51
:1037A000012003B000BD102000F0CAF8003818BF97
:1037B000012003B000BD00BF70B5002682B00446F2
:1037C0000D46102001A9019600F0D2F810B9019B16
:1037D000A34202D8012002B070BD04F111002946B5
:1037E00080B200F0C5F8801B18BF012002B070BD88
:1037F000002210B5114B82B01B78019213B9184604
:1038000002B010BD044601A9102000F0B1F840B983
:1038100001981130FF2804D8214680B200F090F8BA
:1038200018B10123184602B010BD019910200131D2
:1038300000F086F8031E18BF0123E0E78300032091
:10384000014608B5102000F093F8003818BF012099
:1038500008BD00BF10B5044620212246074807F0E6
:10386000BBFB22464FF40051054807F0B5FB22464A
:10387000BDE810400121034807F0AEBB000402423E
:10388000000802420000024210B504468021224690
:10389000084807F0A1FB22464FF48041064807F094
:1038A0009BFB2246BDE810404FF40041024807F060
:1038B00093BB00BF000402420008024208B5002288
:1038C0008021124807F088FB00224FF48041104805
:1038D00007F082FB00224FF400410D4807F07CFB0B
:1038E0000A200EF031FA01222021084807F074FB6B
:1038F00001224FF40051064807F06EFBBDE8084076
:1039000001220448114607F067BB00BF00040242D1
:10391000000802420000024210B506F0C1FE00207D
:103920000DF038FA044618B906F0CEFE204610BD58
:1039300000200CF0FDFD06F0C7FE204610BD00BFC4
:1039400038B504460D4606F0ABFE204629460DF07C
:10395000C9FCC305044603D406F0B6FE204638BDB4
:103960000CF0C0FE0443A4B206F0AEFE204638BD03
:103970000DF01AB884462DE9F8430CF500551046B1
:1039800095F827210CF580540F461E46B4F8921086
:10399000B4F8943072B3002940F08E80072B40F2C7
:1039A000A0803E2B40F2B9804FF04008B3F5805F15
:1039B0004246C1465FD21B0A43F010030370B4F8BD
:1039C00094300CF584514370023A1C31023005F0FA
:1039D000E5FA01220223A8F1020887F80090A4F872
:1039E0009280A5F81C2184F891300120C4F89860D9
:1039F000BDE8F883B1B307224FF008085B1A1FFA3D
:103A000083F9B5F81C31914503F00F0343F020030F
:103A100000F8013BB4F8923003F5845303F11C0322
:103A20000CEB03014CD905F0B9FA87F80080B4F823
:103A30009230B5F81C21013B9844A4F8928095F887
:103A400022313BB1B2FBF3F103FB112313B9022383
:103A500084F891300132A5F81C210120C4F8986047
:103A6000BDE8F883072B3CD94FF00808B3F5805F19
:103A70004246C1469FD310230360B4F894300CF53E
:103A800084511B0A0371B4F89430063A43711C3117
:103A9000063005F083FA01220223A8F1060887F810
:103AA0000090A4F89280A5F81C2184F891300120A0
:103AB000C4F89860BDE8F8833F224FF040089DE7C6
:103AC0004A4605F06BFA032309F101023A7084F8C3
:103AD0009130B4F89230B5F81C219944A4F8929032
:103AE000B8E700F8013B0CF58451B4F894201C3180
:103AF00005F054FA01210322B4F894300B443B70D2
:103B0000B4F894300120A4F89230A5F81C1184F880
:103B10009120C4F89860BDE8F8830170B4F894303F
:103B20000CF584514370B4F894201C31023005F038
:103B300035FAB4F89430012103220233DFE700BFE5
:103B400070B500240E4600F580530470C0F80240A2
:103B500004738460C3F89240C3F89840A3F88E4081
:103B6000A3F8904000F50053054621464FF48452D7
:103B7000C3E94744C3F82861C3F824410D3010F06D
:103B8000C9FE4FF48452A8182146BDE870401C308D
:103B900010F0C0BEF0B591B0169D0446856019B313
:103BA000964612788C46100903281DD8DFE800F0ED
:103BB000024C7A22003B18BF012304F5005282F820
:103BC0002631237823B10621002382F824112370A3
:103BD0009EF80050BCF1080F05F00F0500F2D180EF
:103BE0000123002D40F0D680237B012B00F0A7801D
:103BF00011B0F0BD04F5805797F8911002F00F0254
:103C000004F500564B1E012A86F82121DBB200F094
:103C10000B81022A00F01181002A40F0FB80BCF1E8
:103C2000010F00F01E819EF80130BCF1020F86F8F2
:103C3000223101D09EF80220022986F82321D3D117
:103C4000012387F89130CFE7003B18BF012304F52B
:103C5000005686F82631227822B1062286F82421E1
:103C600000222270BCF1070FBED99EF800209EF8FA
:103C7000010002F00F01014340F09C80DEF80220B9
:103C800012BA072AB0D9B2F5845F40F2F08002225E
:103C9000072086F81E2186F82401217096F81F213E
:103CA000322159E02378012B9ED104F58057B7F8D3
:103CB0008E1002F00F0201F00F039A4240F0A28032
:103CC0006088A38897F890201B1A9BB2002A00F006
:103CD000BE80551EAEB29E4280F0BC80944583D11A
:103CE0004A1C92B2EDB20D30A7F88E200EF1010100
:103CF0002A46204405F052F96388A2882B449BB2DF
:103D00009A42638000F0B08004F5005696F81F21B7
:103D1000002A3FF469AFB7F88E30013B93FBF2F114
:103D200002FB1133002B7FF45FAF96F8263196F833
:103D30001E11003B18BF012341F030010CE004F5D7
:103D4000005696F8263196F81E11003B18BF012345
:103D500096F81F2141F0300100208DF80120032248
:103D60008DF8001096F820112073D6F828015B0515
:103D70008DF8021083616946C260FEF7E5F811B064
:103D8000F0BD002D7FF430AF9EF801500223002DCE
:103D90003FF42AAFACEB03018D423FF725AF0EEBAA
:103DA00003012A4604F10D0005F0F8F802236580AE
:103DB000237019E7120202F470620243072A7FF6A9
:103DC00013AF02210B46ACEB0303DDB204F58057C1
:103DD000A28071442A4687F890C004F10D0005F0D6
:103DE000DDF8012300226580237086F81E21A7F8E4
:103DF0008E3096F826313021003B18BF012396F80B
:103E00001F21A9E70421002304F5005282F82411A0
:103E10002370E9E6012B3FF6E7AE0522032386F87F
:103E2000252187F89130DFE6012B3FF6DDAE022336
:103E3000C7F8985087F89130D6E6012B3FF6D4AEFC
:103E40000822032386F8252187F89130CCE6072B3A
:103E50003FF6CAAE9C457FF6C7AE4A1C92B2DDB2B1
:103E600041E786F82221E7E602232370BCE606211B
:103E70000B46A8E70378012B01D000207047826829
:103E8000064B891A9942F8DD0321002300F5005200
:103E900082F8241103700020704700BF400D03001A
:103EA0002DE9F04100F58055144695F8912092B027
:103EB000561E012E05D9032A0ED0002012B0BDE8EF
:103EC000F081D5F89830394ECB1AB3420BD9022382
:103ED00000F5005080F825310023012085F891304D
:103EE00012B0BDE8F081012AE7D100F5005696F93D
:103EF000237196F82321002F05DA0F32D2B2082A57
:103F00008CBF7F2201229A42D7D80B4602AA0DF11C
:103F10000701FFF72FFD9DF80780B8F1080F38D98A
:103F2000B8F10C0F37D9B8F1100F36D9B8F1140F1A
:103F300035D9B8F1180F34D9B8F1200F33D9B8F109
:103F4000310F34BF0E270F27384605F01DF8804586
:103F50000AD2A0EB0802013AD2B202AB0021013230
:103F600003EB080010F0D6FCE76096F82731003B21
:103F700018BF01235B05A36102E0012005F02EF8C4
:103F8000204602A9FDF7E0FF0028F6D195F8912020
:103F900091E74746D8E70927D6E70A27D4E70B2752
:103FA000D2E70C27D0E70D27CEE700BF400D030076
:103FB00000F58052B2F89430B3F5845F14D892F8CB
:103FC00091309BB900F5005300204FF0010CA2F88E
:103FD0009200A3F81C01C2F8981093F8261183F8F8
:103FE000271182F891C07047012070474FF0090CEB
:103FF00000F5005383F825C1E6E700BF830F032BCC
:10400000C0F30D4020D0012B0ED0B3B9B0F5B97F6D
:1040100021D01F235FFA80FC000A012281F800C032
:1040200048708B70CA70704740F263539842F0D169
:1040300002204FF0740C0D23EFE79128E9D10B20FB
:104040004FF0380C0223E8E72928E2D102204FF094
:104050007F0C0923E1E70B204FF0EF0CDDE700BFF9
:104060002DE9F04F456893B0B5F1804F02D013B001
:10407000BDE8F08F0668C068C6F307470C4604F039
:1040800083FFEA2FC6F3072832D0EC2FEFD1B8F127
:104090002A0FECD10728EAD92378102BE7D1E3794E
:1040A0003002C549A27980B20143647908201B041B
:1040B00043EA0223234300224FF0FF34099123FAFD
:1040C00000F18DF821308DF822101B0C0C9007A9FF
:1040D00009A8CDE90D22CDE90F220A958DF82330EC
:1040E0000B92119207948DF82040FDF72DFFBEE74B
:1040F0000228BCD9B8F1FF0F23D0B8F12A0FB6D1EE
:10410000A378617822781B0443EA01231343B3F5B3
:104110006E4F40F0C480A94A33029BB21A43002379
:104120004FF080450824A64909A8CDE90A53CDE9F6
:104130000C43CDE90E33CDE910330992FDF704FFAE
:1041400095E7A378617822781B0443EA012313439F
:10415000B3F56E4F00F02E814FF6C552934200F03A
:10416000CB804FF6CA62934281D14FF0000904A878
:10417000CDF81090FFF764FB924B049AB3F81EA0A1
:10418000012ACAF3400A4FEA8A1A4AF03F0A5FFA44
:104190008AF440F22981920002321FFA82FA8A4B95
:1041A0000AF10601A3FB0103C91A03EB5103C3F390
:1041B00087074FF0804385490A93099108212023FE
:1041C0000C91834907AA08910DF1240B4FEA1A219B
:1041D0008DF81E10584611468DF81C301546CDE955
:1041E0000D99CDE90F99CDF82C90CDF844908DF82C
:1041F0001DA08DF81F70FDF7A7FE764B0993002FC9
:104200003FF435AFCDE9027B4FF00108A3460DF135
:1042100023060822FF21284604F0BCFE33465646FA
:104220009A4608F1FF34C4EBC4048DF81C80A4B294
:104230000195A6421ADDA3B243B3012B2DD0A7B23C
:10424000023F05A9B810CDF8149007F00307FFF757
:10425000B3FA059806A9FFF7D1FE0DEB07031B7E05
:1042600005F8013FAA4504F10104E2D15346019D3E
:1042700003982946B24608F101081E46FDF764FE80
:10428000029B5FFA88F84345C3D2F0E605F801BF08
:10429000AA4504F10104CED1E8E7FF23E0E74FF699
:1042A000C552934228D04FF6CA6293423FF45DAFA5
:1042B00008270022FF240A956FF0FE0506FA07F092
:1042C000454980B20143099123FA07F18DF8213065
:1042D0008DF822101B0C07A909A8CDE90B27CDE901
:1042E0000D22CDE90F228DF82330119207958DF81C
:1042F0002040FDF729FEBAE6384804F063FE0022AC
:104300004FF080410824314DCDE90A120995054648
:104310002021CDE90C42CDE90E22CDE91022304A10
:10432000294B0892AA1D8DF81C10A3FB0213D21A68
:1043300007A803EB520325FA04F10DF1240BC3F394
:1043400087088DF81E100746014658468DF81D5007
:104350008DF81F80FDF7F8FD1E4B0993B8F1000F93
:104360003FF485AE0124DFF874900DF12306A4EB31
:10437000090A0822FF21384604F00CFE3A46631E63
:10438000C3EBC3039BB2013B8DF81C404B440AEBCB
:1043900003018D4205DD13F8011F02F8011F96424B
:1043A000F5D1013439465846E4B2FDF7CDFDA045BC
:1043B000DFD25CE60B4AB2E62A00EC1C2A00EE18BB
:1043C0000C81010860000320254992242AFFEC1C7F
:1043D000FFCAFE002AFFEB1C2A00E818F48001083F
:1043E000FFC5FD002AFFEE1808224FF08043164952
:1043F0000C92099107A908460D46FF210A93CDE9C1
:104400000D99CDE90F99CDF82C90CDF8449004F09A
:10441000C1FDFF22049B8DF81C40012B8DF81D204F
:1044200006D0CDF81E90294609A8FDF78DFD1EE6A1
:1044300006A94846CDF81890FFF7BEF906980DF189
:104440001E01FFF7DBFDEEE72ACAFE182DE9F04357
:10445000144602780646013A1D4685B0092A11D84D
:10446000DFE812F01C0010000A004E0110001000DE
:104470000A0010002A010A00012900F04E817F2263
:10448000122101E07F221121032322703278A170D2
:1044900062702B80002005B0BDE8F0830229EED1C8
:1044A0004123237043786370802BE8D801A252F82F
:1044B00023F000BF65480008454800087F44000815
:1044C0007F440008FD480008F34800087F440008C6
:1044D0007F4400087F4400087F4400087F440008B0
:1044E0007F440008DD480008CD4800087F440008EC
:1044F0007F4400087F4400083B4800087F440008D0
:104500007F4400087F4400087F4400087F4400087F
:104510007F4400087F4400087F4400087F4400086F
:104520007F4400087F4400087F4400087F4400085F
:1045300093480008C1480008254800087F44000847
:104540007F4400087F4400087F4400087F4400083F
:104550007F4400087F4400087F4400087F4400082F
:104560007F4400087F4400087F4400087F4400081F
:104570007F4400083B480008254800087F440008A5
:104580007F4400087F4400087F4400087F440008FF
:104590007F4400087F4400087F4400087F440008EF
:1045A0007F4400087F4400087F4400087F440008DF
:1045B0007F440008874800082F4800087B4800080F
:1045C0007F4400087F4400087F44000871480008C9
:1045D0007F4400087F4400087F4400087F440008AF
:1045E0007F4400087F44000825480008254800084B
:1045F0007F4400087F4400087F4400087F4400088F
:104600007F4400087F4400087F4400087F4400087E
:104610007F4400087F4400087F4400087F4400086E
:104620007F4400087F4400087F4400087F4400085E
:104630007F440008B34800087F4400087F44000816
:104640007F4400087F4400087F4400087F4400083E
:104650007F4400087F4400087F4400087F4400082E
:104660007F4400087F4400087F4400087F4400081E
:104670007F4400087F4400087F4400087F4400080E
:104680007F4400087F4400087F4400087F440008FE
:104690007F4400087F4400087F4400087F440008EE
:1046A0007F4400087F4400087F4400087F440008DE
:1046B0007F4400082F48000802297FF4E0AE492318
:1046C0002370437863700A2B3FF6D9AE01A252F8EB
:1046D00023F000BF734700087F4400089347000899
:1046E0007F440008814700087F44000815480008FF
:1046F0007F4400087F4400087F440008F747000813
:1047000001297FF4BCAE0191FFF73EF8019968BB27
:104710003378403323702980BCE602A8FFF790F875
:1047200020BB029B5A1C52002A80327863704032B0
:10473000DBB22270002B3FF4ADAE074604F1020954
:1047400004F103080CE0039B1A0E09F817201B0C58
:104750009DF8082008F817300137BA427FF69AAE64
:10476000384603A9FFF728F80028ECD07F22102153
:104770008AE644F254020623C4F802202B8089E61C
:1047800001236249A370E01C04F014FC13232B8066
:1047900080E614230120E61CA07031462B80FFF731
:1047A000E7F8E11D05460220FFF7E2F8034604F1B1
:1047B0000B0103201D43FFF7DBF8034604F10F0153
:1047C0000420ADB21D43FFF7D3F8034604F11301F3
:1047D0000520ADB245EA0304FFF7CAF8A4B244EAE3
:1047E00000039BB2002B3FF455AE1122002130464E
:1047F00004F0D0FB4EE60123E61CA3701422002136
:10480000304604F0C7FB3046414904F0D3FB172380
:104810002B803FE6782207233E49A271C4F802109C
:104820002B8037E6042200232A80638032E60622AA
:1048300000232A80C4F802302CE6032200232A80B9
:10484000A37027E603A8FEF7FBFF00285BD1039ABD
:1048500002F07F02002306212980A270E3702371F9
:10486000637117E606222C4B2A80C4F8023011E649
:10487000032251232A80A3700CE604224BF63573E1
:104880002A80638006E60622244B2A80C4F8023080
:1048900000E604232B800EF053FD214DA5FB0023E1
:1048A0009B0BA3700EF04CFDA5FB00539B09E3701E
:1048B000F0E506224FF080732A80C4F80230E9E563
:1048C0000622184B2A80C4F80230E3E50322164B77
:1048D0002A809B8AC3F30723A370DBE50423124AD3
:1048E0002B809388C3F34A13A3709388DB00E37093
:1048F000D0E5032274232A80A370CBE503224C2346
:104900002A80A370C6E50022A4E700BF74580108FE
:10491000845801080112345698188003A40C000131
:10492000D34D62108001800160000320002210B589
:104930000A4C84B0CDE901220121094B00940A20E0
:104940000DF070FE0346074A0749012013600DF081
:1049500009FC064B186004B010BD00BF802C03207A
:10496000742C0320F82C0320A42C0320F42C032007
:1049700070B51F4E82B03368DBB11E4D04462B78F4
:10498000834215D0421E052A2FD8DFE802F01C14FE
:104990001603181A012330688DF807300DF0C0FE99
:1049A00030B10023012230680DF107010DF0DAFE6D
:1049B0002C7002B070BD0423EDE70523EBE7002364
:1049C000E9E70346E7E7023B042B0ED8DFE803F0F4
:1049D00005030B0907000823DDE70723DBE70923AD
:1049E000D9E70223D7E70323D5E70B23D3E700BF9B
:1049F000F82C0320702C032070B5124D82B04FF0BC
:104A0000FF3128680DF06CFC01280446F7D10E4EEA
:104A100030680DF099FE60B90A238DF80730002345
:104A200028681A4619460DF001FB9DF8070002B0F0
:104A300070BD4FF0FF33224630680DF107010DF0D5
:104A400079FFECE7F42C0320F82C0320814204D9F1
:104A500000F17840B0F5802F01D30020704701F1BC
:104A600078410139B1F5802F2CBF0020012070471B
:104A7000814208D9B0F1005F05D3044881428CBF60
:104A80000020012070470020704700BF0000042074
:104A9000814211D9B0F1005F10D31A4B994219D954
:104AA000194B984208D9194881428CBF0020012037
:104AB0007047B0F1006F15D200207047144B984238
:104AC0000AD8144B9842F4D9134881428CBF002075
:104AD0000120704701207047104881428CBF0020A0
:104AE000012070470E4B9942E6D80E4BB3F8E030E8
:104AF000B3F5007FEED00C4881428CBF002001202E
:104B0000704700BF000004203F20024040210240C7
:104B1000FFFFF90BFFFFF80B0080F90B0002FA0B07
:104B2000000008080005FA0B0000040800B58BB06F
:104B300001A805F0B1FF0598AA3818BF01200BB0F5
:104B400000BD00BF10B58AB001A805F0A5FF079809
:104B500010F0806001D10AB010BD0821184806F09D
:104B600035FA50B304214FF4C042079B019123F062
:104B7000806343F000630793069272B605F090FDE0
:104B8000044605F0ADFD034601A81C4305F062FE96
:104B9000E4B2044305F0C6FDE4B2044305F0B4FDFD
:104BA000E4B20443E4B205F08FFD62B62043C0B224
:104BB000003818BF01200AB010BD01200AB010BD96
:104BC000001C024200B58BB072B601A805F064FF6C
:104BD00004214FF40052079B019143F08063CDE91B
:104BE000062305F05DFD18B162B601200BB000BDD3
:104BF00005F076FD0028F7D101A805F02BFE10B9CD
:104C000005F090FDF0E705F07FFD05F05DFDEBE7B9
:104C100010B58AB005F044FD044605F061FD04437B
:104C200001A805F039FF04214FF480729DF81E3071
:104C3000E4B2C3F3001383F001031B05CDE906239F
:104C4000019134B105F060FD05F03EFD01200AB090
:104C500010BD01A805F0FEFD0028F3D105F062FDAE
:104C6000044605F051FD044305F02EFDE4B2204357
:104C7000C0B2003818BF01200AB010BD30B58BB0EB
:104C800005F00EFD044601A805F006FF0023802272
:104C90000798022110F4801FCDE9033200930CBF66
:104CA00002230123019101A86946029305F08AFFBE
:104CB000054605F009FD28432043C0B2003818BF5F
:104CC00001200BB030BD00BF70B505F0E9FC054612
:104CD0000F4C104ED4E90023B3F1FF3F08BFB2F1EF
:104CE000FF3F04F5802107D0012005F057FD002883
:104CF00018BF45F00105EDB20834B442EAD105F021
:104D0000E3FC2843C0B2003818BF012070BD00BFCB
:104D100000E0030800000408002330B58FB00093C2
:104D200005F0BEFC0223044605A8019305F0B4FE7D
:104D30000B9B042213F4801F4FF07C0014BF02234E
:104D40000123694603900DEB02000492029305F0E3
:104D500039FF054605F0B8FC054344EA0500C0B23A
:104D6000003818BF01200FB030BD00BF014608B5A4
:104D7000012005F013FD003818BF012008BD00BF59
:104D80002DE9F041334E33685BB1334A0446126873
:104D90000D46927C4168101E18BF0120B1EB807F48
:104DA00001D0BDE8F081A1690029FAD1A1680029EC
:104DB000F7D1E1680829F4D8284908782168002A41
:104DC00042D0274A52F82070264A52F820204A4002
:104DD0003A4201D0E5E733684FF0FF3118460DF055
:104DE0007FFA0128F7D1204FE26897F8D030246885
:104DF00018013C500430294607EB0313D4B2384461
:104E00001C7304F0CBF897F8D020184B0132A3FBA9
:104E100002139B0803EB430103EB8103D21AD2B2C6
:104E200087F8D02097F8D1300C2B05D897F8D130DF
:104E30000133DBB287F8D130002330681A46BDE871
:104E4000F04119460DF0F2B8094A52F82070094AAB
:104E5000BBE700BF4C2D032010010320582D032079
:104E60007C810108B0810108C05F01204FECC44E75
:104E7000148101084881010870B53C4D3C4C2A68FA
:104E80002378927C86B0EAB13A4A03AE52F8230006
:104E90003146C0F30F2004F04BF83A222B688DF80E
:104EA00010209B7C002B5BD1334B22780DF111013C
:104EB00053F82200C0F30F2004F03AF800238DF8D5
:104EC000153017E02D4A03AE32F82300314604F0C6
:104ED00019F83A222B688DF80F209B7C002B3DD1CE
:104EE000254B227804A933F8220004F00BF80023A4
:104EF0008DF8133002230021214C0093E2880846EC
:104F000092B216230192F02201F032FE05211D4BD0
:104F1000E28800932388084692B29BB201F074FFA6
:104F20002B68E2889B7C0096002B23884FF00501BC
:104F30009BB20CBF5D20522092B201F065FF124B74
:104F40001B787BB12289114D23880521B52000955E
:104F50009BB292B201F058FF06B070BD0C4BC0E797
:104F60000B4BA2E7E2880B4DEEE700BF10010320D8
:104F7000582D0320B08101081481010848810108DF
:104F8000DC2D03209858010898000320A058010840
:104F90007C810108A8580108202001F06DBD00BFE8
:104FA0002DE9F04F8F4B8BB01B781BB38E4C2168D3
:104FB0000C2940F20881102001F072FD8B4B8C49C6
:104FC0001A891B88009121688A4892B2A0FB01507F
:104FD000800800EBC000A1EB40010231090109206B
:104FE0009BB289B201F010FF0022236801332360D5
:104FF0007C4B1A70DFF814A2DAF800000DF0A4FB65
:1050000041F64C53984200F2DB807B4B7B4A1E6892
:10501000A2FB063222F0030303EB9203F61A40F0E0
:10502000CF80DFF8EC914FF0FF31D9F800000DF0A0
:1050300057F90128F7D1724B1B78002B00F0B6808E
:10504000DFF8D08198F8D130002B00F0AF8098F8CD
:10505000D03098F8D1200D339B1A6A4A4FEAE37C8E
:1050600082FB0312CCEBA20C0CEB4C020CEB820289
:10507000A3EB020C98F8D130002B00F09280CDF811
:1050800008C0029BDAF800009A195E4BA3FB0213DA
:105090004FEA930B0BEB4B030BEB8303A2EB030BDE
:1050A0000DF052FB41F64C53984200F21E81564BD4
:1050B0004FEA0B171B6858F807009C7C08EB0B1B8A
:1050C000002C00F0A98004AD2946C0F30F2003F0A6
:1050D0002FFF20228DF814209BF80C20BAB1002459
:1050E00021460BEB540318794B1C03F001039B0082
:1050F00018410531294400F00F0003F03BFF013453
:105100009BF80C30E4B2B4EB430F2146E9DB0022FC
:10511000354C08EB07031B7B21680DEB43030C297F
:105120005A7500F2A8800095304D0231EA882B882C
:1051300009019BB2092089B292B2474401F064FE92
:105140003B7B072B23DC304B97F80CC01B689B7C08
:10515000002B0CBF4FF0350E4FF0400E3B7B2A88E2
:10516000C3F1080392B200922268911C03EB830200
:1051700003EB42020CEB8C030CEB430009015200E1
:105180000E2389B292B20EEB400001F0B3FC23680B
:1051900098F8D120013301362360F3B29A423FF6EA
:1051A00070AF002388F8D03088F8D13000231A4639
:1051B0001946D9F800000BB0BDE8F04F0CF036BF2F
:1051C0000BB0BDE8F08F0948023102890388084816
:1051D0000901009089B209209BB292B201F014FE3D
:1051E00002E700BF502D0320542D0320DC2D0320A7
:1051F000B0580108398EE338E82D0320CDCCCCCC53
:10520000980003204FECC44E10010320C827032050
:105210004C2D0320C05F012004AD294680B203F06D
:1052200071FE20228DF813209BF80C20BAB1039652
:105230005E4606EB540204F1010B10790BF00102FB
:1052400092001041211D294400F00F0003F092FE4E
:10525000327B5FFA8BF4B4EB420FEADB039E002251
:10526000244C08EB07031B7B21680DEB43030C293F
:105270001A757FF658AF102001F012FC00952368D4
:105280001D4A1E4DA2FB0312920802EBC202A3EBC1
:1052900042010231EA882B8809019BB2092089B2B8
:1052A00092B2474401F0B0FD3B7B072B3FF76FAF55
:1052B000134B97F80CC01B6821689B7C002B3B7B31
:1052C0002A8808BF4FF0350E92B200920A4A18BFE2
:1052D0004FF0400EA2FB0102920802EBC202A1EBCA
:1052E0004201C3F10803023140E70123054A13706C
:1052F00057E700BF542D0320398EE338DC2D0320FF
:1053000010010320502D0320002210B50B4C0C4B34
:10531000216883F8D02083F8D12041B100F0F2FF5A
:10532000BDE810400022074B1A60FFF7A5BD012021
:1053300005490CF017FF2060F0E700BF4C2D03205B
:10534000C05F0120542D0320FC2C0320052808B544
:1053500005D0042815D006280DD0012008BD114A1B
:10536000137833B1013BDBB21370FFF785FD0120E9
:1053700008BD0C23F8E70C4A1378B3FA83F35B09F2
:10538000F2E70849094B0A780132A3FB02039B08A4
:1053900003EB430003EB8003D21A0A70FFF76CFDA6
:1053A000012008BD582D0320980003204FECC44E67
:1053B00038B5074D2C6834B12046D4F8A4400FF01E
:1053C000F3F9002CF8D10023024A2B60137038BD8A
:1053D000602D0320662D032030B50E4C83B023686A
:1053E0008BB1012400F0E8FF0B4D0C4A0C4B0095EB
:1053F0001470DA881B8805212A2092B29BB201F032
:10540000C9FC03B030BD012006490CF0ABFE2060A2
:10541000E7E700BFB82D0320C8580108652D032019
:10542000DC2D0320682D03202DE9F04F7D4B154620
:105430001B6842689B7C83B0003B18BF0123B2EB22
:10544000837F02D003B0BDE8F08F83690446002B50
:10545000F8D18368002BF5D1C368082BF2D8DFF8A8
:10546000DCA10E46DAF8000010B9EBE7DAF800002C
:105470004FF0FF310CF034FF0128F7D16A4B21685F
:105480001868002800F0C58007464FF0000B04E0C4
:10549000D7F8A430BB461F4623B13B689942F7D8E2
:1054A00000F0B380614B1A78092A40F29F804FF0D8
:1054B000000801E080461046D0F8A420002AF9D167
:1054C00094460268914280F09880CDE9001C0FF06C
:1054D0006BF90099554BB8F1000F03D0DDF804C00B
:1054E000C8F8A4C001201A78013AD2B21A70504A02
:1054F0001070504A00921070A82001910FF04CF9E2
:1055000001998046002800F08780814649F8041BF5
:1055100060220021484603F03DFD4022002108F1B1
:10552000640003F037FD414BC8F8A470BBF1000FD5
:105530005FD0CBF8A480D8F8A4700121B84508BF8B
:1055400000271A78C8F8A4700A44D2B21A70009BD7
:105550001970CE46B9E80F00A44608F134070FC70A
:10556000B9E80F000FC799E80F0087E80F00BCE803
:105570000F00AEE80F00BCE80F00AEE80F00E268D5
:105580009CE8030089E803003146C8F8205008F180
:105590002C0003F003FDE468CCB1002302270126B0
:1055A00008EB030191F82C2091F85C1008EBC30084
:1055B0004A40110704D013FB076108EB81014D66D7
:1055C00001330F2ADBB288BF45669C42E8D81A4AED
:1055D00013780133DBB2137000231A461946DAF848
:1055E000000003B0BDE8F04F0CF020BD114A00925E
:1055F00082E70D4AC2F800809FE70E4B0C4A0093E9
:1056000001231370009A1370E6E7B84607F1040906
:105610009FE78346074645E70123054A0099137033
:105620000B70EDE710010320602D0320662D032091
:10563000642D0320652D0320672D0320B82D032042
:105640002DE9F041144E34680CB30022074615468C
:10565000DFF84880236A2046BB42D4F8A44010D229
:105660009DB1C5F8A4400FF09FF898F800300122D2
:10567000013BDBB288F80030002CEBD11046BDE8CE
:10568000F0810546002CE5D1F8E73460EBE72246CF
:105690001046BDE8F08100BF602D0320662D032079
:1056A000904B914A19682DE9F04FA2FB013222F08C
:1056B000030303EB92038DB0CB1A029340F0DD801D
:1056C0008A4B80461B78DFF844A2002B00F0D8807C
:1056D000874B4FF0FF3118680CF002FE0128F7D11C
:1056E000B8F5FA6F044600F2D280824BDFF820B2A0
:1056F0001A78DBF80040002A3ED000277E4D1F704C
:105700002B78002B40F0DE80002C00F0A9807B4E2F
:105710004FF00009CDE9038A794D06AF16E039460E
:1057200003F006FC4FF000038DF81C30F288009760
:1057300033884FEA0811072092B219319BB201F069
:1057400029FBD4F8A44009F101098CB12B68216828
:1057500093F812A0C1F30F205FFA89F8BAF1000F95
:10576000DDD188B2394603F0CDFB8DF81BA0DDE713
:10577000DDE9038ADBF80040002C71D0604D5F4EFC
:105780000DF11809CDF814A02B6822699B7C9DF8B7
:105790000810002B0CBF4FF0040B4FF0050B53000B
:1057A0003BD04FF0000A0F011937CDE903155546DC
:1057B000BA4604EB55026F1C92F82C0007F0010268
:1057C0009200104109EB050100F00F0003F0D2FB3D
:1057D00004EB8501496E0BEB050202EB820002EB44
:1057E0004000A8EB0102B2F5FA7F0DEB05032CBFD8
:1057F000F28832891B7EB6F800C00730009392B25F
:10580000514680B21FFA8CF301F070FA2269FDB2A2
:10581000B5EB420FCDD3DDE90315082A17D002EB13
:10582000820302EB43030BEB8B020BEB42005B00AA
:105830009BB207301844C3F1B0039AB23388090110
:105840009BB2009319310E2380B201F053F9029BF1
:10585000D4F8A44001330293002C95D1DDF814A0B4
:10586000234B2249186800230B701A461946CAF8C0
:1058700000800CF0DBFB00F0DDFD0DB0BDE8F08F2B
:10588000DAF80030C31AB3F5FA7FF4D920E7A8F5A7
:10589000FA60FFF7D5FE00283FF427AF194B174EEB
:1058A00019781B783288C3F10A0392B21B010901EF
:1058B00000929BB2E6220520193101F01BF90D4B35
:1058C0001C7013E7104B0D4E00933289338805216D
:1058D000C82092B29BB201F05DFA2F70002C7FF4C9
:1058E00017AF47E7E82D0320CDCCCCCC672D0320A4
:1058F000B82D0320652D0320642D0320DC2D03200B
:1059000010010320662D0320D85801085C2D0320C8
:10591000602D0320F0B50024124E134F134D83B0B9
:1059200038782101E3B22031984256F8042B89B22D
:105930000ED0B5F806C02B88052000929BB21FFA46
:105940008CF201F027FA0134032CE9D103B0F0BD49
:1059500000922A88EB8805209BB292B201F01AFAD5
:10596000F1E700BFC4000320BE2D0320DC2D03207F
:1059700008B500F021FD0A4BD888198880B289B299
:10598000FCF722FCFCF7C8FC18B90022054B1A7082
:1059900008BDFCF7D7FC0022024B1A7008BD00BFFF
:1059A000DC2D0320BC2D0320F0B583B00646FCF7A8
:1059B000B3FC384C237848B3012B44D06422002434
:1059C000354F364D3B889BB202FB03F385FB032525
:1059D0001D44ED12C5F16405AD000135ADB2304690
:1059E0000134FCF73FFDA3B2AB42F8D32C4ABB8B8A
:1059F0001278DBB29A421DD12A4B2B4A1B6802FB5C
:105A000003F3B3F1333F19D903B0F0BD002BF3D149
:105A100000F0D2FC254B264DDA881B8805219BB26D
:105A20005A2092B2009501F0B5F9FFF773FF0123F8
:105A30002370E1E70120FCF77FFCDDE703B0BDE860
:105A4000F04000F0F7BC194D00F0B6FCE88829885A
:105A500080B289B2FCF7B8FBFCF75EFCB0B9002756
:105A6000EA8814492B880520009192B290219BB2BC
:105A7000277001F08FF9104BEA8800932B88A02142
:105A8000052092B29BB201F085F997E7FCF75AFC2A
:105A9000E5E700BFBC2D03206000032081000880E3
:105AA000BD2D0320E82D0320CDCCCCCCDC2D032054
:105AB00014590108DC580108F058010838B50446AB
:105AC0000D46FCF739FC64200CF03EF929462046CF
:105AD000FCF784FB0DF034FCFCF724FC024A034B7A
