:020000040800F2
:1000000000000420A5670008216600082566000896
:10001000296600082D66000831660008F5670008AB
:10002000000000000000000000000000B1180108FE
:100030003566000800000000411801086DF0000856
:10004000F5670008F5670008F5670008F567000820
:10005000F5670008F5670008F5670008F567000810
:10006000F5670008F5670008F5670008F567000800
:10007000F5670008F5670008F5670008F5670008F0
:10008000F5670008F5670008F5670008F5670008E0
:10009000F5670008F5670008F5670008F5670008D0
:1000A000F5670008F5670008F5670008F5670008C0
:1000B000F56700083966000845660008F56700081E
:1000C000F5670008F5670008F5670008F5670008A0
:1000D000F5670008F5670008F56700085166000835
:1000E0005D660008F567000869660008F5670008A6
:1000F000F5670008F5670008F5670008F567000870
:10010000F56700087566000881660008F567000855
:10011000F5670008F5670008F5670008F56700084F
:10012000F56700088D66000899660008F567000805
:10013000A5660008F5670008F5670008F567000880
:10014000F5670008F5670008B1660008F567000864
:10015000F5670008F5670008F5670008F56700080F
:10016000F5670008BD660008F5670008F567000838
:10017000F567000800000000F567000800000000B7
:10018000C9660008F5670008F5670008F56700080C
:10019000F5670008F5670008F5670008F5670008CF
:1001A000F5670008F5670008F5670008F5670008BF
:1001B000F567000800000000D5660008F567000834
:1001C000F567000800000000F5670008F567000803
:1001D000F5670008F5670008F5670008F56700088F
:1001E000F5670008F5670008F5670008F56700087F
:0401F000000000000B
:1002000010B5054C237833B9044B13B10448AFF350
:1002100000800123237010BD600203200000000055
:10022000081E010808B5034B1BB103490348AFF38F
:10023000008008BD0000000064020320081E0108C1
:10024000034613F8012B002AFBD1181A0138704716
:1002500053B94AB9002908BF00281CBF4FF0FF312D
:100260004FF0FF3000F0B2B9ADF1080C6DE904CEEB
:1002700000F006F8DDF804E0DDE9022304B0704781
:100280002DE9F04F8C46099E04460F46002B48D1BD
:100290008A4215465ED9B2FA82F33BB1C3F120021D
:1002A0009F409D409C4020FA02F217434FEA154EB2
:1002B0001FFA85FC220CB7FBFEF10EFB117701FB48
:1002C0000CF042EA0742904207D9AA1801F1FF3721
:1002D00002D2904200F258813946121AA4B2B2FBFF
:1002E000FEF00EFB102200FB0CFC44EA0244A44585
:1002F0000BD92C1900F1FF322CBF01270027A44590
:1003000002D9002F00F04381104640EA0140A4EBDF
:100310000C0400211EB1DC400023C6E90043BDE807
:10032000F08F8B4206D90EB1C6E9000100210846C4
:10033000BDE8F08FB3FA83F1002951D16345C0F0D5
:100340001681824240F213810846002EE7D0C6E9AA
:100350000047E4E7002A00F0AF80B2FA82F3002BF6
:1003600040F0C2808A1A4FEA154EAFB20121200C2C
:10037000B2FBFEFC0EFB1C2240EA024207FB0CF023
:1003800090420ED9AA180CF1FF382CBF4FF001098A
:100390004FF00009904203D9B9F1000F00F0F0804E
:1003A000C446121AA4B2B2FBFEF00EFB102200FBF0
:1003B00007F744EA0244A7420ED92C1900F1FF3294
:1003C0002CBF4FF0010E4FF0000EA74203D9BEF133
:1003D000000F00F0D2801046E41B40EA0C4099E781
:1003E000C1F120058B400CFA01F400FA01F922FA60
:1003F00005F72CFA05FC8A401F4320FA05F3380C58
:1004000023431FFA87FE1C0CBCFBF0F800FB18CC42
:1004100044EA0C4408FB0EFCA4450ED93C1908F133
:10042000FF3A2CBF4FF0010B4FF0000BA44503D94E
:10043000BBF1000F00F0B880D046A4EB0C041FFA0B
:1004400083FCB4FBF0F300FB134403FB0EFE4CEA09
:100450000444A6450ED93C1903F1FF302CBF4FF0E0
:10046000010C4FF0000CA64503D9BCF1000F00F0C1
:100470009F80034643EA0840A4EB0E04A0FB02EC75
:1004800064457346E04602D307D1F14505D2BEEB81
:1004900002036CEB070C0138E0465EB1B9EB0302D6
:1004A00064EB080404FA05F522FA01F3CC401D437D
:1004B000C6E90054002132E742082F464B08AC46FB
:1004C00042EAC172AE46C407110C92B241EA03413E
:1004D00042EA0142B1FBF5F1B3FBF5F01F23A2EBB9
:1004E0000C0241EA004142E79D40C3F120029940DD
:1004F0009C402CFA02FC4FEA154E20FA02F2AFB2F1
:10050000BCFBFEF80A430EFB18CC110C41EA0C416F
:1005100008FB07FC8C4550D9691808F1FF302CBF47
:100520004FF001094FF000098C4502D9B9F1000FD5
:1005300030D0A1EB0C01B1FBFEF808FB07FC0EFB71
:10054000181192B242EA0142624534D2AA1808F167
:10055000FF312CBF4FF001094FF000096245BED2B8
:10056000B9F1000FBBD1A8F102012A44B7E7841A00
:100570006CEB030201201746E7E62C4402382BE718
:10058000ACF1020C2A440CE702392A44A5E62C44BB
:100590000238BAE6A5EB0C0CA8F102006144B1FBED
:1005A000FEF808FB07FCCAE7A8F102083C4444E750
:1005B000023B3C445EE7414691E7A1EB0C0140461B
:1005C000B1FBFEF808FB07FCB9E700BF704700BFAE
:1005D000704700BF10B501220D490E4882B00CF0E3
:1005E00011FC0D4C0DF106014FF0FF330222206883
:1005F0000FF0EAFB4FF0FF330849BDF806202068F2
:100600000FF0E2FB0548BDF8061001F06FFFE9E7C7
:10061000A4030320C8250320D003032058A00120F1
:10062000F0B5274C274E9BB04FF0FF332822694688
:1006300020680FF0C9FB2828F6D1039805F0EAFAE4
:100640000546002834D1029B9BB929460AAA009886
:1006500001F0CCFF10F0BEF80AA90246684602F08D
:1006600049F910F0B7F80AA90246684601F008FFF8
:10067000DAE7B3F1005FF4D140F20172009B9342DC
:10068000EFD1082203990027914228BF11460D4659
:10069000C6E90577B760019F0B490C48C6E90037EA
:1006A000F56005F0C3FA3046084901F089FDD8E746
:1006B0004FF0FF332A4620680AA90FF085FBC2E7F6
:1006C0000C280320900203209005FA0B84020320DB
:1006D0002DE9F0431F4D9BB0DFF8808001AE0AAFDB
:1006E000002404EBC401C4F124024FF0FF33286856
:1006F00006EB81010FF068FB0444232CF1D9049828
:1007000005F088FA039B8146B3F1005F00D0A0B9E1
:10071000114807F009FB50B13A4631460E4807F040
:10072000CDF9D8F80C300133C8F80C30D8E74FF0C9
:10073000FF32012110F0E2FAEAE70024A9EB0402FB
:1007400039194FF0FF3328680FF03EFB04444C4545
:10075000F4D3DDE708280320B0260320000003209F
:1007600000B583B001F0EEFE01F010FC0322184941
:10077000184806F039FC03F023FB00F0E5FE03F017
:1007800069FB10F027F801F075FE13480AF0B4FF7A
:1007900012480AF079FF124C10F01CF8019003F097
:1007A00015FB019803F05CFB019800F0CFFE237865
:1007B00013B9019802F00CF8019801F06BFE019852
:1007C00002F08CF80A2101A80FF044FFE4E700BF13
:1007D000782A0320A0270320E823032050230320A6
:1007E000760003202DE9F0410026214DDFF88C80B2
:1007F000204FA6B012E010F0C7FE98F8003033B1D9
:100800000B9B23B164200EF0E9FC01F0BFFB00223A
:10081000022311463868009610F0F2FA4FF0FF32CA
:100820000121002010F06AFA10F0A0FE124807F033
:10083000D1FB044606A9104807F03CFA02A90E486D
:1008400007F060FA5422294611A8AC6011F084FA2E
:10085000094B1E66189BB3F5003FCCD9AB689B02D1
:10086000C9D5012385F820300B9301F037FCC2E78E
:1008700000000320701B0320B02603208002032009
:1008800000232DE9F04D84B07D4EDFF80082DFF8C3
:1008900004B27C4DDFF800A20DF10E078DF80B308D
:1008A00013E028680FF09AF9012808D94FF0FF33B8
:1008B0000222286803A90FF087FA022845D00021F8
:1008C0004FF0FF32084610F019FA30680FF086F941
:1008D0000028E6D04FF0FF33012230680DF10B0104
:1008E0000FF072FA0128DCD130680FF077F9012897
:1008F000D7D94FF0FF330222306803A90FF064FA12
:100900000228CED1BDF80C20B2F5845FC9D8002AE8
:1009100040F0A5809DF80B40002C52D10FF05AFFFB
:10092000594B5A49BDF80C20009705F0F1F8BDF875
:100930000E30002B79D10FF04DFF534B5349BDF8CA
:100940000C20009705F034F9ABE7BDF80C20B2F5A8
:10095000805FB4D272B10024121B08EB04014FF087
:10096000FF3328680FF030FABDF80C20204484B221
:10097000A242F1D10FF02EFF434B4146BDF80C20AF
:10098000009705F041FABDF80E30002B97D039469C
:100990004FF0FF330222DAF800000FF02DF9BDF816
:1009A0000E204FF0FF333849DAF800000FF024F939
:1009B000002202231146DBF80000009210F020FA1A
:1009C0007DE70FF007FF304B3049BDF80C20009752
:1009D00005F0C6F8BDF80E30002BACD02A490A78D5
:1009E0007F2A08D1022BA6D98B78A3F11102012A04
:1009F000A1D9312B9FD02648394604464FF0FF330A
:100A0000022200680FF0F8F8BDF80E204FF0FF3317
:100A10001D4920680FF0F0F8002202231146DBF890
:100A20000000009210F0ECF985E7194839464FF0C4
:100A3000FF33022200680FF0DFF81548BDF80E20E2
:100A40004FF0FF33104900680FF0D6F8022322461A
:100A50002146DBF80000009410F0D2F96BE7002487
:100A6000121B4FF0FF3308EB040130680FF0ACF9B4
:100A7000BDF80C2023189CB2A242F1D14AE700BF76
:100A8000C4020320B8020320507F0120D48F01202C
:100A9000C0020320B0080320B40203202DE9F04F68
:100AA000DFF8148185B0404E404DDFF810A108F109
:100AB0009C0908F5805B02AF14E028680FF08EF8FF
:100AC000012809D94FF0FF33022228680DF10601F1
:100AD0000FF07AF9022846D000214FF0FF32084685
:100AE00010F00CF930680FF079F80128E5D94FF0D3
:100AF000FF3302222E4930680FF066F90228DCD15C
:100B0000B8F89420B2F5845FD7D872B10024121BD4
:100B100009EB04014FF0FF3330680FF055F9B8F8D6
:100B20009420204484B2A242F1D10FF053FE01463A
:100B3000204802F0D5FA0028BFD103E09BF823013A
:100B40000EF04CFB0FF046FE04F0E8FE0128B4D096
:100B500030680FF043F80128AFD89AF80030002B26
:100B6000ECD10A20ECE7BDF80620082AB4D86AB117
:100B70000024121B39194FF0FF3328680FF024F9B5
:100B8000BDF80620204484B2A242F2D10FF022FE2A
:100B90003946BDF8062005F0CFF801289CD00A2080
:100BA0000EF01CFBF2E700BFC0020320B4020320DA
:100BB0006CB60120D8A50120D8B50120760003200D
:100BC00010B50D490D4803F091F90C4C80224FF0FF
:100BD000FF330B4920680FF0F7F802460028F5D0E4
:100BE000074992B207480BF00DF94FF0FF3201218F
:100BF000002010F083F8E9E700040320A803032095
:100C0000D8A00120C825032001F068BC002001F015
:100C100069BC00BF0022024B02481A600AF06CBD9A
:100C20007C0203209C230320014B1868704700BFFF
:100C30007C0203200000000010B59EB04822002175
:100C40000CA810F0FDFF00234FF40070CDE9023333
:100C5000CDE90433CDE90733CDE909330193069398
:100C60000B9309F00FF908B172B6FEE701230222D7
:100C7000169311931993179210231D9207229FED3B
:100C80001E7BCDE91A320324042312900CA81C9376
:100C90008DED0C7B189409F031FB034608B172B658
:100CA000FEE70F22214601A8CDE903330593029404
:100CB000019209F0CFF9034608B172B6FEE7104A77
:100CC0004FF0005C916D4BF67F3441F0807191657F
:100CD000926D069302F080720092089322222023E4
:100CE00006A8CDE90A230099CDF81CC009940AF0A2
:100CF0007DFA1EB010BD00BF2900000000000100F9
:100D000000100240F0B595B072B64FF00062A24BF1
:100D10009A60BFF34F8F62B6002405F06DFDFFF7B8
:100D20008BFFCDE90E44CDE910449C4D1294EB6C41
:100D30004FF4604143F00403EB64EB6C224603F094
:100D400004030793079BEB6C954843F08003EB6427
:100D5000EB6C012603F080030893089BEB6C43F0D7
:100D60000103EB64EB6C03F001030993099BEB6C4B
:100D700043F00203EB64EB6C03F002030A930A9B5B
:100D800007F0C0FD224640F20111864807F0BAFD87
:100D9000224641F2E401844807F0B4FD4FF4604379
:100DA0007F480EA9CDE90E361094119407F0FCFB94
:100DB00040F201137B480EA9CDE90E36CDE910446F
:100DC00007F0F2FB41F2E40377480EA9CDE90E36B5
:100DD000CDE9104407F0E8FB4FF4007371480EA909
:100DE000CDE90E34109607F0DFFB08236F480EA9FB
:100DF000CDE90E34109407F0D7FBAB6C052143F01E
:100E00000403AB64AB6C224603F004030493049B1D
:100E1000AB6C1D203343AB64AB6C33400593059B37
:100E2000AB6C43F00203AB64AB6C03F002030693BC
:100E3000069B06F0CBF91D2006F002FA224605219A
:100E40001E2006F0C3F91E2006F0FAF922460521FD
:100E5000502006F0BBF9502006F0F2F9204608F0C9
:100E6000CFF808B172B6FEE708F0DEF8034640B9E5
:100E70004F48504AC0E900230AF0E0F918B172B6B1
:100E8000FEE772B6FEE74C4A4C4B10704C4A4FF4EA
:100E900040711A60102299609A619A620F211322A0
:100EA0003C2404275860D8609874D8631846C3E976
:100EB0000D661E825E615E62DC61D9621A621F632A
:100EC00006F052FC034650BB0BAD0B90CDE90E0073
:100ED000CDE91000CDE91200C5E901004FF48070A2
:100EE0004FF4301C03214FF48052364CC4E90233D6
:100EF000C4E90A3384F8203084F83830324B208338
:100F00002046C4E90467C4F804C0E161626384F860
:100F10003060236005F094FC18B172B6FEE772B63B
:100F2000FEE70B902946204606F0D8F808B172B6C5
:100F3000FEE706230F937F231193244B1090139009
:100F40000EA9204612970E9305F0A8FD08B172B6BF
:100F5000FEE71F4B20460E930C230EA90F9305F0BE
:100F60009DFD08B172B6FEE71A4B20460E93122380
:100F70000EA90F9305F092FD034608B172B6FEE785
:100F80001548C0E905338380144B0662036006F000
:100F900089F928B372B6FEE700ED00E000100240C8
:100FA000000802420000024200040242001C024209
:100FB000B425032000080C4280020320B026032041
:100FC00000A40040A0270320008002424000201916
:100FD0000002B0250004002A14270320003002403C
:100FE00000234FF4E1310C225F48C0E90113C0E94E
:100FF0000333C0E908338361836243665B4B42611C
:1010000003600BF037FE014608B172B6FEE75648A2
:101010000BF05EFF014608B172B6FEE752480BF0D6
:101020007DFF08B172B6FEE74F480BF033FF034671
:1010300008B172B6FEE74E484E4AC37202604FF4E2
:10104000027302228380C0F8072007F0F7FF08B17F
:1010500072B6FEE741F63F76474C484ACDE90E00AE
:10106000C4E901001090A06120462260E6600AF009
:1010700033FD034608B172B6FEE720460EA90E9373
:1010800010930AF05BFD034608B172B6FEE73C4CD4
:10109000CDE90E331093A360A36142F20F73394A76
:1010A0002046C4E90023E6600AF016FD034608B1B5
:1010B00072B6FEE720460EA90E9310930AF03EFD8D
:1010C000034608B172B6FEE72F48304AC0E9043340
:1010D0008360026083614F224FF6FF734260C360FA
:1010E0000AF0FAFC08B172B6FEE700234F214FF672
:1010F000FF722748C0E90113C0E904338361254B1F
:10110000C26003600AF0E8FC08B172B6FEE74FF077
:1011100080414FF0FF32204C0B90CDE90E00CDE91D
:101120001000C5E90100C4E901002061A06120466A
:101130002160E2600AF0D0FC08B172B6FEE74FF41D
:10114000805320460EA90E930AF014FB034608B103
:1011500072B6FEE7204629460B930D930AF0EEFC8B
:101160000446D8B172B6FEE7C825032000800040CF
:101170002820032000D400409C23032000140040BA
:10118000E8230320001000405023032000440140C6
:101190000423032000480140342403206E482246E3
:1011A00001216E4B0090CDE901444FF400700EF028
:1011B00083FC05466A4E6B4A00960121CDE9014445
:1011C000694B15604FF4007022460EF075FC054621
:1011D000664E674A00960121CDE90144654B1560D2
:1011E00046F2060022460EF067FC0246624D634E50
:1011F00000950121CDE90144614B326046F20600C1
:1012000022460EF059FC5F4B5F4A01210092CDE966
:101210000144224618605D4B4FF47A600EF04CFC9E
:101220005B4D5C4B224600930121CDE901445A4BB2
:1012300028604FF47A600EF03FFC584B2246009332
:10124000574B0121CDE901441860564B4FF4A040A3
:101250000EF032FC544B22460093544B0121CDE951
:1012600001441860524B4FF4A0400EF025FC514B46
:10127000186001F0E9FB0FF0ADFA32464E4B4F49D2
:10128000009501F011FB4E4802F01CFE4D4801F0A4
:10129000D7F84D484D4A4E4900F05EFE0EA80E9418
:1012A00001F0C8FB20B90E9B13B94A4801F09AFB24
:1012B0000DF0EAFE0021484A48480DF035FF04468B
:1012C000474B0021474A48481C600DF02DFF04465B
:1012D000464B0021464A47481C600DF025FF044656
:1012E0003B4B0021444A45481C600DF01DFF04465D
:1012F000434B0021434A44481C600DF015FF04464F
:10130000324B0021414A42481C600DF00DFF04465B
:101310002A4B00213F4A40481C600DF005FF04465F
:101320003E4B00213E4A3F481C600DF0FDFE044646
:101330003D4B00213D4A3E481C600DF0F5FE044641
:101340003C4B00213C4A3D481C600DF0EDFE3C4BFF
:1013500018600DF0BBFEFEE7D4030320D8A30120E4
:10136000AC030320D0030320D8A101207C03032079
:10137000A8030320481F012058030320C4020320B0
:1013800040BF0020C002032034030320A0AF002090
:10139000B80203201003032000A00020EC02032069
:1013A000B402032000500020C80203200C280320B0
:1013B0000000002008280320BC020320600D032049
:1013C000B425032014270320B02603201012032085
:1013D000701B03200400634570200108D505000838
:1013E000242003204C20010821060008202003208F
:1013F00028200108D1060008042001086107000820
:10140000C0160320E01F0108E5070008BC1F010803
:1014100081080008981F01089D0A0008B0080320F1
:10142000741F0108C10B000800040320501F0108AD
:10143000090C0008FC0303202C1F01080D0C0008F8
:10144000F80303200A4B186880B1002100B583B06F
:1014500001AA01910FF0F4FD019B2BB14FF0E023A5
:101460004FF08052C3F8042D03B000BD704700BF99
:101470000004032070B500251E4C82B0228801951F
:101480007F2A0ED81C4B19780D2904D01B48531CF9
:1014900081549BB206E0013A7F2A02D8184E306888
:1014A00040B9002301221449164823800BF0AAFCFE
:1014B00002B070BD2B46022221460EF037FC0228F6
:1014C000EFD12B46228830680C490EF02FFC238880
:1014D0009842E6D10C4B2946186801AA0FF0B0FDDE
:1014E000019B002BDDD04FF0E0234FF08052C3F87A
:1014F000042DD6E7A0030320A403032058A1012054
:10150000D0030320C825032024200320094A0368B0
:10151000934206D0084A93420AD0084A934205D023
:101520007047074A136801331360704700F0CEBF5D
:1015300005F074B900140040002C01400010004078
:101540007C02032072B6FEE7704700BF70B50E4DF7
:101550000E4C2B6820891B680D491B6B80B2984785
:101560002B68208A0A4E1B6806F174019B6E80B2BC
:1015700098472B68208B1B6806F1E8019B6F80B2AF
:10158000BDE87040184700BF7C00032054000320D2
:10159000302903200870704700787047030A0870EC
:1015A0004B707047012994BF00780088704700BFD6
:1015B000012908D94FF6FE2302889A4203D8981AC7
:1015C000C0F34F0070470020704700BF012911D9B8
:1015D0004378FA2B07D8084AC3EB0330A2FB00205C
:1015E000C0F30F10704740F6FF72FF2B0CBF0020B6
:1015F0001046704700207047D34D6210022907D96A
:101600004FF6FF73B0F80100984208BF0020704702
:1016100000207047042907D94FF6FF73B0F8030084
:10162000984208BF0020704700207047012907D961
:101630004FF6FF730088984208BF4FF40060704770
:101640000020704701290ED94FF6FF730088984299
:1016500009D047F27F53984238BF1846A0F5EA40B8
:101660007F3880B270474FF400607047032986BF0F
:10167000C078C0F381000020704700BF09B1007836
:1016800070470846704700BF012906D9437803F028
:101690000F03013BDBB2022B01D900207047024A45
:1016A00032F81300704700BF9420010819B1017887
:1016B000C1F3810070470846704700BF032986BF09
:1016C000C07800F003000020704700BF034600B55B
:1016D00083B008465BBA02220DF10601ADF8063070
:1016E00004F0A4FA03B000BD8446002310B50C46F4
:1016F00082B00DF1060002226146ADF8063004F01A
:1017000095FABDF80600012C98BFC0B240BA80B26D
:1017100002B010BD002300B5012983B0ADF806303A
:1017200002D8184603B000BD014602220DF10600A2
:1017300004F07CFA9DF8060003B000BD38B50D46F4
:1017400004460822FF21284604F06CFAB4F5FB4F4A
:101750000ADAC4F5FA447F34640004F0FE03C4F3EB
:1017600007242B706C7038BD002423466C702B70DE
:1017700038BD00BF38B50D460822FF210446284673
:1017800004F050FAFA2204FB02F2044BA3FB02130A
:10179000D21A03EB5203DB0A6B7038BD0101100053
:1017A00038B50C4605460822FF21204604F03AFAD7
:1017B0002B0A6570A37038BD38B50C460546082263
:1017C000FF21204604F02EFA2B0AE570237138BD64
:1017D00038B50C4605460822FF21204604F022FABF
:1017E0002B0A2570637038BD38B50C4608220546B3
:1017F000FF21204604F016FA48F6802247F27F5374
:10180000954294BF5B199B189BB21A0A23706270B1
:1018100038BD00BF38B50D4604460822FF212846D2
:101820007D3404F0FFF9AC7038BD00BF38B50D460B
:1018300004460822FF21284604F0F4F9EB78A400BE
:1018400023F00C0304F00C042343EB7038BD00BFFD
:1018500038B50C4605460822FF21204604F0E2F97F
:10186000257038BDFF2838B50D460FD9C3B2002BFF
:101870000CBF012403240822FF21284604F0D2F9DA
:101880006B7823F00F031C436C7038BD031E18BF28
:1018900001235C00EFE700BF38B50D46044608227F
:1018A000FF21284604F0BEF92B78A40023F00C0396
:1018B00004F00C0423432B7038BD00BF38B50C4630
:1018C00005460822FF21204604F0ACF9E37805F034
:1018D000030523F003032B43E37038BD38B50D46F1
:1018E00004460822FF21284604F09CF9012C0AD066
:1018F000022C05D0032C0CBFD723FF23AB7038BDBF
:10190000C723AB7038BDC323AB7038BD38B50C46A8
:1019100005460822FF21204604F084F9EBB2022B91
:1019200012D0032B09D0042B0CBF51230023FF2D11
:1019300088BF43F00403237038BD1123FF2D88BFF7
:1019400043F00403237038BD0123FF2D88BF43F00B
:101950000403237038BD00BF38B50C460546082285
:10196000FF21204604F05EF915F0080F0CBF00219E
:10197000FA2115F0100F0CBF0022FA2215F0200FEB
:101980000CBF0023FA2315F0400F0CBF0020FA20F3
:1019900015F0800FE0700CBF0020FA2015F0010F49
:1019A00021700CBF0021FA2115F0020F62700CBFEC
:1019B0000022FA2215F0040FA3700CBF0023FA23B3
:1019C00020716171A271E37138BD00BF022906D98F
:1019D00080787D38C0B2812888BF00207047002001
:1019E000704700BF032906D9C0787D38C0B281286E
:1019F00088BF002070470020704700BF02290FD920
:101A0000837803F00C02042A01D001207047C3F34D
:101A10000113012B06D0002B0CBF022001207047C0
:101A2000002070470320704707292DD9037842789A
:101A3000A3F1FA03B3FA83F3FA2A4FEA5313827835
:101A40004FEAC30308BF43F01003FA2AC27808BF65
:101A500043F02003FA2A027908BF43F04003FA2A30
:101A6000427908BF43F08003FA2A827908BF43F025
:101A70000103FA2AC27908BF43F00203FA2A08BF19
:101A800043F0040318467047002070470078704701
:101A9000D9B103789A09012A0ED003F03002102A36
:101AA00015D003F00302012A14BF0120022003F025
:101AB0000C03042B06D0704703F00C03042B4FF0EB
:101AC0000400F8D140F47F40704708467047032077
:101AD000EDE700BF007870470078704700787047E6
:101AE000007870470870704708707047087070473A
:101AF0000870704708707047030A08704B70704791
:101B0000012994BF00780088704700BF38B50D46A2
:101B10000822FF210446284604F084F8FA2204FB38
:101B200002F2044BA3FB0213D21A03EB5203DB0AAB
:101B30006B7038BD01011000012911D94378FA2BCF
:101B400007D8084AC3EB0330A2FB0020C0F30F10F4
:101B5000704740F6FF72FF2B0CBF00201046704705
:101B600000207047D34D6210034600B583B008468D
:101B70005BBA02220DF10601ADF8063004F056F80A
:101B800003B000BD034600B583B008465BBA02222D
:101B90000DF10601ADF8063004F048F803B000BDC1
:101BA000034600B583B008465BBA02220DF1060178
:101BB000ADF8063004F03AF803B000BD034600B5B6
:101BC00083B008465BBA02220DF10601ADF806307B
:101BD00004F02CF803B000BD034600B583B00846FE
:101BE0005BBA02220DF10601ADF8063004F01EF8D2
:101BF00003B000BD034600B583B008465BBA0222BD
:101C00000DF10601ADF8063004F010F803B000BD88
:101C1000034600B583B008465BBA02220DF1060107
:101C2000ADF8063004F002F803B000BD844600238E
:101C300010B50C4682B00DF1060002226146ADF8E7
:101C4000063003F0F3FFBDF80600012C98BFC0B2C8
:101C500040BA80B202B010BD8446002310B50C46D5
:101C600082B00DF1060002226146ADF8063003F0A5
:101C7000DDFFBDF80600012C98BFC0B240BA80B2AB
:101C800002B010BD8446002310B50C4682B00DF1A1
:101C9000060002226146ADF8063003F0C7FFBDF82A
:101CA0000600012C98BFC0B240BA80B202B010BD8D
:101CB0008446002310B50C4682B00DF106000222C6
:101CC0006146ADF8063003F0B1FFBDF80600012C07
:101CD00098BFC0B240BA80B202B010BD84460023A3
:101CE00010B50C4682B00DF1060002226146ADF837
:101CF000063003F09BFFBDF80600012C98BFC0B270
:101D000040BA80B202B010BD8446002310B50C4624
:101D100082B00DF1060002226146ADF8063003F0F4
:101D200085FFBDF80600012C98BFC0B240BA80B252
:101D300002B010BD8446002310B50C4682B00DF1F0
:101D4000060002226146ADF8063003F06FFFBDF8D1
:101D50000600012C98BFC0B240BA80B202B010BDDC
:101D6000002300B5012983B0ADF8063002D818462B
:101D700003B000BD014602220DF1060003F056FF3C
:101D8000BDF80600000A03B000BD00BF012918D944
:101D9000037803F00302012A17D003F00C02042A8F
:101DA00015D003F03002102A0DD003F0C003402BF1
:101DB0000FD0437803F00303012B0CBF0620012052
:101DC00070470020704705207047022070470320AD
:101DD00070470420704700BF2DE9F04F3A4B83460F
:101DE000984283B007D8394B984260D94FF0280900
:101DF0004FF4487609E036494FF02509B1FBFBF175
:101E0000C9B2192940F2EE265BD90124304B0134C6
:101E1000A4B2B3FBF4F1B1FBFBF1C9B21929F6D8B6
:101E2000B4F5806F3FD201202A4BCDF804B01F6873
:101E300023186FF0004C4FF47A759B461FFA83FA13
:101E4000A1F1020EBEEB510F4FEA51031ADD01F171
:101E5000FF385FFA88F805FB03F2B2FBF1F2B21A21
:101E6000002AB8BF5242624509DA914507DB0020DB
:101E70009446A8EB0302D2B2FB617C613A62013363
:101E80007345E8DB124B1FFA8BF4B3FBFAF1019BAD
:101E9000B4F5806FB1FBF3F10AF1010AC9B203D0C6
:101EA00004F1010BCCE7012003B0BDE8F08F084935
:101EB0004FF02B09B1FBFBF1C9B2192940F26B3687
:101EC000A3D80124AFE700BF00350C0020A1070014
:101ED000005A6202002903204FF0804102220123B0
:101EE0002DE9F041174C0025C4E91123164E174F78
:101EF000DFF86080E16311E0D8F800202365937C6F
:101F0000003B18BF012312493868A36405F016FD91
:101F100078B96B1C022B4FF0010511D056F8043B29
:101F20002564E364002BE7D06FF060420123226553
:101F3000E9E7FFF707FB6B1C022B4FF00105EDD122
:101F4000BDE8F08100000320AC2101080029032036
:101F50003C0003207C00032038B50C46064D0749A1
:101F6000074B0A602860074901201C600DF044FB04
:101F7000054B186038BD00BF00290320F828032056
:101F8000FC2803201028032060280320F0B54D4EC4
:101F900083B0306805F07CFD306805F0E5FB002873
:101FA0006FD10022484D402148482A71EA602A61D9
:101FB0006A61AA61AA60EA6185F8202006F0A2FCA5
:101FC000306805F065FD082202233068C0E90D2362
:101FD00005F0CAFB002871D100240222012340F23F
:101FE000FF71C5E90B233A4FA9636C6202E001342B
:101FF000082C0ED037F8023F36493068AC626B636C
:1020000005F09CFC0028F2D00134FFF79BFA082C65
:10201000F0D1FFF761FF00230222306811460093E0
:1020200005F0B8FC002846D1306805F0D5FC002842
:102030003ED100220121306805F07CFEA8BB0022C1
:102040000621306805F076FE60BB07224FF4F051A0
:10205000306805F06FFE10BB07228021306805F064
:1020600069FEC8B900221C49306805F063FE80B9DA
:1020700000224FF46021306805F05CFE20B903B007
:10208000F0BDFFF75FFA8CE703B0BDE8F040FFF763
:1020900059BAFFF757FAEBE7FFF754FAE2E7FFF711
:1020A00051FAD9E7FFF74EFACFE7FFF74BFAC6E749
:1020B000FFF748FABDE7FFF745FAB5E7FFF742FA41
:1020C0008AE700BF00290320000003200004024229
:1020D000B22101082400032000407100014B186860
:1020E00005F0D6BC00290320FFF7F6BE082824D847
:1020F000DFE800F0080C1014171A1D200500144822
:10210000FFF76ABE42F21070FFF766BE44F6206029
:10211000FFF762BE4CF25030FFF75EBE0D48FFF78E
:102120005BBE0D48FFF758BE0C48FFF755BE0C4884
:10213000FFF752BE0B48FFF74FBE0B4AA0F51C53EA
:10214000103B934201D901207047FFF745BE00BF05
:1021500040420F00A086010048E8010090D0030033
:1021600020A1070000350C00301B0F000346054A74
:102170001978002051615978D16199781162DB7822
:1021800093617047B02603200246024B00209A61FB
:10219000704700BFB0260320034600B5064A93F8F7
:1021A00001E093F800C082F810E004499B7881F8C0
:1021B00000C05374002000BDB0260320800203201D
:1021C0002DE9F047054682B0C0680F4603F022FDB6
:1021D000AB68B3F1005F3ED00646824600F12409A9
:1021E000264C4FF0FF3120680DF0C4FA0128F8D1D9
:1021F000DFF89480D8F800000DF0DCFC484517D2D9
:1022000002251F4A13792B431371002320681A46B5
:1022100019460DF055F91B4A022312681068002276
:10222000114600920EF0ECFD284602B0BDE8F087A2
:1022300029464FF0FF332422D8F800000DF0DCFCD3
:10224000054686B94D450CD00D4A0125137943F05A
:1022500008031371D9E74FF0000A4FF024095646DE
:10226000BEE70025D1E7524639464FF0FF33D8F894
:1022700000000DF0C1FC0544E4E700BF6028032026
:1022800000000320FC280320082803202DE9F04744
:1022900000250C4682B0C9070646019516D4A20750
:1022A00007D50221314A137943F0010313713368D2
:1022B0001965630738D4019B2BB14FF0E0234FF031
:1022C0008052C3F8042D02B0BDE8F087DFF8A89073
:1022D000DFF8988040214A46254B05F051FCD8F89C
:1022E0001430D9F80C000133C8F8143003F092FC14
:1022F000DFF888A00746DAF800000DF05BFC07F174
:102300002803984224D349462822DAF8000001AB7A
:102310000DF00CFD002FC2D03A46DAF80000144947
:1023200001AB0DF003FDBAE70424104B11499A6983
:10233000086801329A611A79002142F008021A7184
:10234000336800680DEB04021C650EF079FEB2E7FD
:10235000D8F8183029460133C8F81830054B01AABF
:102360001B6818680EF06CFE99E700BF00000320A0
:10237000B8280320F8280320902803200C280320E5
:10238000002110B50A4A0B4C1268236982B010680C
:10239000013301AA236101910EF052FE019B2BB182
:1023A0004FF0E0234FF08052C3F8042D02B010BD6F
:1023B000FC28032000000320002110B50A4A0B4C22
:1023C0001268E36982B01068013301AAE3610191E8
:1023D0000EF036FE019B2BB14FF0E0234FF0805200
:1023E000C3F8042D02B010BDF8280320000003201C
:1023F00038B50C46104D294605F05CFCA10303D509
:10240000EB68A3B90D4A1360620309D52B690B4A27
:10241000012B13790CBF43F0040303F0FB0313718A
:10242000230303D50122054B83F8202038BD4FF04C
:102430000042024B1A60E7E76428032000000320F3
:10244000704700BF91B14FF0FF3210B4084C014407
:1024500010F8013B5340DBB254F82330884283EA42
:102460001222F5D1D0435DF8044B704708467047FF
:10247000C42101080022014B1A607047082903207B
:10248000034B1B689B7C03B9704700F081BE00BF03
:102490007C00032010B5094C094A2368094903FB55
:1024A00002F2B1EBB20F02D20133236010BD064835
:1024B00001F05EFD23680133236010BD082903206D
:1024C000295C8FC2285C8F02C01E0108024A136873
:1024D00001331360704700BF0429032000200EF071
:1024E00043B800BF00200EF03FB800BF704700BFE8
:1024F000124B1B681989F9B130B400245B68104A8B
:1025000003EB4111D3E90050C2E900509D6898697E
:102510009561DD682033556153F8105C8B42C2E948
:10252000024553F80C5C02F1740242F8105C42F868
:10253000040CE7D130BC7047704700BF7C0003201B
:102540000C29032070B500250D4B0E4A1B68157031
:102550009C7C0D4B641B18BF0124644203F5AE76CE
:10256000E4B21846082221460FF06AFB0346743392
:10257000B342C0E91155F4D1BDE87040FFF7B8BFD0
:102580007C000320760003203029032038B3144B4D
:102590001A68824223D02DE9F041847C0122003C5C
:1025A00018BF012400250F4E186037780E4B644287
:1025B00003F5AE78FFB23270E4B218460822214625
:1025C0000FF03EFB034674334345C0E91155F4D187
:1025D000FFF78EFFFFF788FD3770BDE8F081704789
:1025E0007C000320760003203029032000293CD002
:1025F000F0B5744B83B01D68AF7C6FB906462C8A6A
:1026000044B1EB6803EBC40C1C68B4420FD0083330
:102610006345F9D103B0F0BDC0F30743EF2B4FEA98
:102620001024C0F31126EAD8674E2640E7E71C794C
:10263000E7B1B6F56F4F49D04FF6D4539E4266D0FE
:102640004FF602739E4200F0AD800F2C10D12B6824
:102650001046DB6F00929847009A137803F003034B
:10266000032BD7D0594B1883D4E77047082C3BD0A5
:102670002B68104603EBC4035B689847102CC9D83D
:1026800001A353F824F000BF312700086527000894
:102690006B27000871270008772700087D270008AE
:1026A00083270008892700088F270008492700088A
:1026B00051270008592700085F2700083D27000818
:1026C000432700086526000837270008C0F30720C5
:1026D000132860D05A289DD12B6810465B6D98470F
:1026E0003A4AC3B2D37595E72B6810465B6C0091EC
:1026F000019298470099354CC0B20129207389D0C6
:10270000019A1046FFF72CFB84F8200082E7C3B241
:10271000212B4ED05A2B7FF47DAF2B681046DB6CFB
:102720009847C3B2032B3FF475AF284A937571E7FE
:10273000264B58806EE7254BD8836BE7234B1882D6
:1027400068E7224B988365E7204BC0B2987561E734
:102750001E4BC0B2D8755DE71C4B58835AE71B4B24
:10276000588257E7194B188054E7184BD88051E727
:10277000164B98804EE7154B98824BE7134B5881C8
:1027800048E7124B188145E7104BD88142E70F4BC1
:10279000C0B218733EE72B681046DB6A98470B4BB4
:1027A000588137E71046FFF7F1FA084B83F820000D
:1027B00030E72B6810465B6F9847044AC3B2938397
:1027C00028E700BF7C00032000FF03005400032023
:1027D000314B1B78002B5DD12DE9F04FDFF8C4A001
:1027E00003F0FF05DAF8003083B01B89002B4ED0D0
:1027F0002A4F06463C464FF0740908E0DAF80030EC
:1028000001351A89ABB29A4204F174043FD9E36EE0
:10281000626EF31A9342F1D3B4F9703009FB05FBF1
:10282000002B0DDBB4F868200BF1240052BA00EB4A
:10283000E300ADF804203844022201A903F0F6F9C0
:10284000B4F9721004F1240800294FEAE10112DB07
:102850004046FFF7F7FDB4F972200190002AB8BF97
:1028600007320BF1240000EBE200042238440DEBA8
:10287000020103F0DBF90A4B41461A682046226147
:10288000FFF79EFCA36EE6660133A366B6E703B0CE
:10289000BDE8F08F704700BF760003200C290320AD
:1028A000000003207C00032038B50446084B094D86
:1028B0001A60094B049A29601A6000F04DF820460E
:1028C00002F0E0FF204603F017FA002038BD00BFF9
:1028D0006C2A0320702A0320682A032038B5054695
:1028E00002F0F0FF0446284603F012FA2043C0B27B
:1028F00038BD00BF70B5154B82B01B6804460D464D
:10290000164603F015F801280AD0114B3246294625
:1029100020461B6803F026FA01280BD002B070BDD8
:1029200000220C4B11461B681868022300920EF01F
:1029300067FAEAE700220749022309680868114696
:1029400000920EF05DFA02B070BD00BF6C2A032049
:10295000682A0320702A032000B583B0102001A943
:1029600000F09EF808B903B000BD0021102000F06F
:102970007FF8003818BF012003B000BD00B583B058
:10298000102001A900F08CF820B90146019820B967
:1029900003B000BD012003B000BD102000F068F8B6
:1029A000003818BF012003B000BD00BF70B500267D
:1029B00082B004460D46102001A9019600F070F87F
:1029C00010B9019BA34202D8012002B070BD04F1EE
:1029D0001100294680B200F063F8801B18BF012067
:1029E00002B070BD002210B5114B82B01B7801926D
:1029F00013B9184602B010BD044601A9102000F01A
:102A00004FF840B901981130FF2804D8214680B210
:102A100000F02EF818B10123184602B010BD01993C
:102A20001020013100F024F8031E18BF0123E0E755
:102A300077000320014608B5102000F031F8003877
:102A400018BF012008BD00BF10B505F0C5FA002071
:102A50000BF0EAFB044618B905F0D2FA204610BD87
:102A600000200AF0AFFF05F0CBFA204610BD00BFF2
:102A700038B504460D4605F0AFFA204629460BF05E
:102A80007BFEC305044603D405F0BAFA204638BDE0
:102A90000BF072F80443A4B205F0B2FA204638BD38
:102AA0000BF0CCB984462DE9F8430CF500551046DF
:102AB00095F827210CF580540F461E46B4F8921065
:102AC000B4F8943072B3002940F08E80072B40F2A6
:102AD000A0803E2B40F2B9804FF04008B3F5805FF4
:102AE0004246C1465FD21B0A43F010030370B4F89C
:102AF00094300CF584514370023A1C31023003F0DB
:102B000095F801220223A8F1020887F80090A4F8A2
:102B10009280A5F81C2184F891300120C4F89860B7
:102B2000BDE8F883B1B307224FF008085B1A1FFA1B
:102B300083F9B5F81C31914503F00F0343F02003EE
:102B400000F8013BB4F8923003F5845303F11C0301
:102B50000CEB03014CD903F069F887F80080B4F856
:102B60009230B5F81C21013B9844A4F8928095F866
:102B700022313BB1B2FBF3F103FB112313B9022362
:102B800084F891300132A5F81C210120C4F8986026
:102B9000BDE8F883072B3CD94FF00808B3F5805FF8
:102BA0004246C1469FD310230360B4F894300CF51D
:102BB00084511B0A0371B4F89430063A43711C31F6
:102BC000063003F033F801220223A8F1060887F843
:102BD0000090A4F89280A5F81C2184F8913001207F
:102BE000C4F89860BDE8F8833F224FF040089DE7A5
:102BF0004A4603F01BF8032309F101023A7084F8F6
:102C00009130B4F89230B5F81C219944A4F8929010
:102C1000B8E700F8013B0CF58451B4F894201C315E
:102C200003F004F801210322B4F894300B443B7004
:102C3000B4F894300120A4F89230A5F81C1184F85F
:102C40009120C4F89860BDE8F8830170B4F894301E
:102C50000CF584514370B4F894201C31023002F01A
:102C6000E5FFB4F89430012103220233DFE700BF0F
:102C700070B500240E4600F580530470C0F8024081
:102C800004738460C3F89240C3F89840A3F88E4060
:102C9000A3F8904000F50053054621464FF48452B6
:102CA000C3E94744C3F82861C3F824410D300EF04E
:102CB000C7FF4FF48452A8182146BDE870401C306D
:102CC0000EF0BEBFF0B591B0169D0446856019B3F5
:102CD000964612788C46100903281DD8DFE800F0CC
:102CE000024C7A22003B18BF012304F5005282F8FF
:102CF0002631237823B10621002382F82411237082
:102D00009EF80050BCF1080F05F00F0500F2D180CD
:102D10000123002D40F0D680237B012B00F0A780FB
:102D200011B0F0BD04F5805797F8911002F00F0232
:102D300004F500564B1E012A86F82121DBB200F073
:102D40000B81022A00F01181002A40F0FB80BCF1C7
:102D5000010F00F01E819EF80130BCF1020F86F8D1
:102D6000223101D09EF80220022986F82321D3D1F6
:102D7000012387F89130CFE7003B18BF012304F50A
:102D8000005686F82631227822B1062286F82421C0
:102D900000222270BCF1070FBED99EF800209EF8D9
:102DA000010002F00F01014340F09C80DEF8022098
:102DB00012BA072AB0D9B2F5845F40F2F08002223D
:102DC000072086F81E2186F82401217096F81F211D
:102DD000322159E02378012B9ED104F58057B7F8B2
:102DE0008E1002F00F0201F00F039A4240F0A28011
:102DF0006088A38897F890201B1A9BB2002A00F0E5
:102E0000BE80551EAEB29E4280F0BC80944583D1F8
:102E10004A1C92B2EDB20D30A7F88E200EF10101DE
:102E20002A46204402F002FF6388A2882B449BB20A
:102E30009A42638000F0B08004F5005696F81F2196
:102E4000002A3FF469AFB7F88E30013B93FBF2F1F3
:102E500002FB1133002B7FF45FAF96F8263196F812
:102E60001E11003B18BF012341F030010CE004F5B6
:102E7000005696F8263196F81E11003B18BF012324
:102E800096F81F2141F0300100208DF80120032227
:102E90008DF8001096F820112073D6F828015B05F4
:102EA0008DF8021083616946C260FFF789F911B09D
:102EB000F0BD002D7FF430AF9EF801500223002DAD
:102EC0003FF42AAFACEB03018D423FF725AF0EEB89
:102ED00003012A4604F10D0002F0A8FE02236580DA
:102EE000237019E7120202F470620243072A7FF688
:102EF00013AF02210B46ACEB0303DDB204F58057A0
:102F0000A28071442A4687F890C004F10D0002F0B7
:102F10008DFE012300226580237086F81E21A7F80C
:102F20008E3096F826313021003B18BF012396F8E9
:102F30001F21A9E70421002304F5005282F824117F
:102F40002370E9E6012B3FF6E7AE0522032386F85E
:102F5000252187F89130DFE6012B3FF6DDAE022315
:102F6000C7F8985087F89130D6E6012B3FF6D4AEDB
:102F70000822032386F8252187F89130CCE6072B19
:102F80003FF6CAAE9C457FF6C7AE4A1C92B2DDB290
:102F900041E786F82221E7E602232370BCE60621FA
:102FA0000B46A8E70378012B01D000207047826808
:102FB000064B891A9942F8DD0321002300F50052DF
:102FC00082F8241103700020704700BF400D0300F9
:102FD0002DE9F04100F58055144695F8912092B006
:102FE000561E012E05D9032A0ED0002012B0BDE8CE
:102FF000F081D5F89830394ECB1AB3420BD9022361
:1030000000F5005080F825310023012085F891302B
:1030100012B0BDE8F081012AE7D100F5005696F91B
:10302000237196F82321002F05DA0F32D2B2082A35
:103030008CBF7F2201229A42D7D80B4602AA0DF1FB
:103040000701FFF72FFD9DF80780B8F1080F38D969
:10305000B8F10C0F37D9B8F1100F36D9B8F1140FF9
:1030600035D9B8F1180F34D9B8F1200F33D9B8F1E8
:10307000310F34BF0E270F27384602F0CBFD8045B5
:103080000AD2A0EB0802013AD2B202AB002101320F
:1030900003EB08000EF0D4FDE76096F82731003B03
:1030A00018BF01235B05A36102E0012002F0DEFDF1
:1030B000204602A9FFF784F80028F6D195F8912060
:1030C00091E74746D8E70927D6E70A27D4E70B2731
:1030D000D2E70C27D0E70D27CEE700BF400D030055
:1030E00000F58052B2F89430B3F5845F14D892F8AA
:1030F00091309BB900F5005300204FF0010CA2F86D
:103100009200A3F81C01C2F8981093F8261183F8D6
:10311000271182F891C07047012070474FF0090CC9
:1031200000F5005383F825C1E6E700BF830F032BAA
:10313000C0F30D4020D0012B0ED0B3B9B0F5B97F4C
:1031400021D01F235FFA80FC000A012281F800C011
:1031500048708B70CA70704740F263539842F0D148
:1031600002204FF0740C0D23EFE79128E9D10B20DA
:103170004FF0380C0223E8E72928E2D102204FF073
:103180007F0C0923E1E70B204FF0EF0CDDE700BFD8
:103190002DE9F04F456893B0B5F1804F02D013B0E0
:1031A000BDE8F08F0668C068C6F307470C4602F01A
:1031B00031FDEA2FC6F3072832D0EC2FEFD1B8F15A
:1031C000130FECD10728EAD92378102BE7D1E37944
:1031D0003002C549A27980B20143647908201B04FA
:1031E00043EA0223234300224FF0FF34099123FADC
:1031F00000F18DF821308DF822101B0C0C9007A9DE
:1032000009A8CDE90D22CDE90F220A958DF82330CA
:103210000B92119207948DF82040FEF7D1FFBEE784
:103220000228BCD9B8F1FF0F23D0B8F1130FB6D1E3
:10323000A378617822781B0443EA01231343B3F592
:103240006E4F40F0C480A94A33029BB21A43002358
:103250004FF080450824A64909A8CDE90A53CDE9D5
:103260000C43CDE90E33CDE910330992FEF7A8FFE8
:1032700095E7A378617822781B0443EA012313437E
:10328000B3F56E4F00F02E814FF6C552934200F019
:10329000CB804FF6CA62934281D14FF0000904A857
:1032A000CDF81090FFF7C6FB924B049AB3F81EA01E
:1032B000012ACAF3400A4FEA8A1A4AF03F0A5FFA23
:1032C0008AF440F22981920002321FFA82FA8A4B74
:1032D0000AF10601A3FB0103C91A03EB5103C3F36F
:1032E00087074FF0804385490A93099108212023DD
:1032F0000C91834907AA08910DF1240B4FEA1A217A
:103300008DF81E10584611468DF81C301546CDE933
:103310000D99CDE90F99CDF82C90CDF844908DF80A
:103320001DA08DF81F70FEF74BFF764B0993002F01
:103330003FF435AFCDE9027B4FF00108A3460DF114
:1033400023060822FF21284602F06CFC334656462D
:103350009A4608F1FF34C4EBC4048DF81C80A4B273
:103360000195A6421ADDA3B243B3012B2DD0A7B21B
:10337000023F05A9B810CDF8149007F00307FFF736
:1033800015FB059806A9FFF7D1FE0DEB07031B7E81
:1033900005F8013FAA4504F10104E2D15346019D1D
:1033A00003982946B24608F101081E46FEF708FFB9
:1033B000029B5FFA88F84345C3D2F0E605F801BFE7
:1033C000AA4504F10104CED1E8E7FF23E0E74FF678
:1033D000C552934228D04FF6CA6293423FF45DAF84
:1033E00008270022FF240A956FF0FE0506FA07F071
:1033F000454980B20143099123FA07F18DF8213044
:103400008DF822101B0C07A909A8CDE90B27CDE9DF
:103410000D22CDE90F228DF82330119207958DF8FA
:103420002040FEF7CDFEBAE6384802F013FC002239
:103430004FF080410824314DCDE90A120995054627
:103440002021CDE90C42CDE90E22CDE91022304AEF
:10345000294B0892AA1D8DF81C10A3FB0213D21A47
:1034600007A803EB520325FA04F10DF1240BC3F373
:1034700087088DF81E100746014658468DF81D50E6
:103480008DF81F80FEF79CFE1E4B0993B8F1000FCC
:103490003FF485AE0124DFF874900DF12306A4EB10
:1034A000090A0822FF21384602F0BCFB3A46631E97
:1034B000C3EBC3039BB2013B8DF81C404B440AEBAA
:1034C00003018D4205DD13F8011F02F8011F96422A
:1034D000F5D1013439465846E4B2FEF771FEA045F5
:1034E000DFD25CE60B4AB2E61300EC1C1300EE18C8
:1034F000DC250108540003202549922413FFEC1C0D
:10350000FFCAFE0013FFEB1C1300E818C4250108D6
:10351000FFC5FD0013FFEE1808224FF08043164947
:103520000C92099107A908460D46FF210A93CDE99F
:103530000D99CDE90F99CDF82C90CDF8449002F07B
:1035400071FBFF22049B8DF81C40012B8DF81D2080
:1035500006D0CDF81E90294609A8FEF731FE1EE6DA
:1035600006A94846CDF81890FFF720FA06980DF105
:103570001E01FFF7DBFDEEE713CAFE182DE9F0434D
:10358000144602780646013A1D4685B0092A11D82C
:10359000DFE812F01C0010000A009A011000100071
:1035A0000A00100076010A00012900F09A817F22AA
:1035B000122101E07F221121032322703278A170B1
:1035C00062702B80002005B0BDE8F0830229EED1A7
:1035D0004123237043786370A62BE8D801A252F8E8
:1035E00023F000BFAB3A00088D3A0008AF35000861
:1035F000AF350008573A00084D3A0008AF350008CB
:10360000AF350008AF350008AF350008AF3500080A
:10361000AF350008373A0008273A0008AF350008F0
:10362000AF350008AF350008F7390008AF3500089E
:10363000AF350008AF350008AF350008AF350008DA
:10364000AF350008AF350008AF350008AF350008CA
:10365000AF350008AF350008AF350008AF350008BA
:10366000613A00081B3A0008ED390008AF35000840
:10367000AF350008AF350008AF350008AF3500089A
:10368000AF350008AF350008AF350008AF3500088A
:10369000AF350008AF350008AF350008AF3500087A
:1036A000AF350008F7390008ED390008AF350008DC
:1036B000AF350008AF350008AF350008AF3500085A
:1036C000AF350008AF350008AF350008AF3500084A
:1036D000AF350008AF350008AF350008AF3500083A
:1036E000AF350008D93A0008CD3A0008C13A0008C1
:1036F000AF350008AF350008AF350008B73A00080D
:10370000AF350008AF350008AF350008AF35000809
:10371000AF350008AF350008ED390008ED39000875
:10372000AF350008AF350008AF350008AF350008E9
:10373000AF350008AF350008AF350008AF350008D9
:10374000AF350008AF350008AF350008AF350008C9
:10375000AF350008AF350008AF350008AF350008B9
:10376000AF350008013A0008AF350008AF35000852
:10377000AF350008AF350008AF350008AF35000899
:10378000AF350008AF350008AF350008AF35000889
:10379000AF350008AF350008AF350008AF35000879
:1037A000AF350008AF350008AF350008AF35000869
:1037B000AF350008AF350008AF350008AF35000859
:1037C000AF350008AF350008AF350008AF35000849
:1037D000AF350008AF350008AF350008AF35000839
:1037E000AF350008013A0008AF350008AF350008D2
:1037F000AF350008AF350008AF350008AF35000819
:10380000AF350008AF350008AF350008AF35000808
:10381000AF350008AF350008AF350008AF350008F8
:10382000AF350008AF350008AF350008AF350008E8
:10383000AF350008AF350008AF350008AF350008D8
:10384000AF350008AF350008AF350008AF350008C8
:10385000AF350008AF350008AF350008AF350008B8
:10386000AF350008813A0008AF350008AF350008D1
:10387000AF350008AF350008AF3500080F3A000833
:1038800002297FF494AE49232370437863700A2B96
:103890003FF68DAE01A252F823F000BF3B3900087D
:1038A000AF3500085B390008AF350008493900081A
:1038B000AF350008DD390008AF350008AF35000826
:1038C000AF350008BF39000801297FF470AE0191BF
:1038D000FFF754F8019968BB33784033237029808F
:1038E00070E602A8FFF7A6F820BB029B5A1C520004
:1038F0002A80327863704032DBB22270002B3FF4B2
:1039000061AE074604F1020904F103080CE0039BD1
:103910001A0E09F817201B0C9DF8082008F817301C
:103920000137BA427FF64EAE384603A9FFF73EF89C
:103930000028ECD07F2210213EE644F254020623F8
:10394000C4F802202B803DE601236749A370E01CE8
:1039500002F078F913232B8034E614230120E61CAF
:10396000A07031462B80FFF79BF8E11D0546022031
:10397000FFF796F8034604F10B0103201D43FFF700
:103980008FF8034604F10F010420ADB21D43FFF789
:1039900087F8034604F113010520ADB245EA03049C
:1039A000FFF77EF8A4B244EA00039BB2002B3FF479
:1039B00009AE11220021304602F034F902E601235B
:1039C000E61CA37014220021304602F02BF9304689
:1039D000464902F037F917232B80F3E578220723B5
:1039E0004349A271C4F802102B80EBE504220023A6
:1039F0002A806380E6E5032200232A80A370E1E5A4
:103A000006224FF080732A80C4F80230DAE50622DD
:103A1000384B2A80C4F80230D4E50622364B2A807F
:103A2000C4F80230CEE50322344B2A809B8AC3F3CC
:103A30000723A370C6E50423304A2B809388C3F381
:103A40004A13A3709388DB00E370BBE50322742361
:103A50002A80A370B6E503224C232A80A370B1E527
:103A600004232B800CF0B6FE254DA5FB00239B0BF9
:103A7000A3700CF0AFFEA5FB00539B09E370A1E51A
:103A8000062204232A80C4F802309BE503A8FEF72F
:103A9000D1FF38BB039A02F07F0200230621298060
:103AA000A270E370237163718CE50622154B2A80A6
:103AB000C4F8023086E5032251232A80A37081E5F1
:103AC00004224BF635732A8063807BE506220023AF
:103AD0002A80C4F8023075E506220B4B2A80C4F810
:103AE00002306FE50022D8E7D41E0108E41E010869
:103AF000011234561234567880018001540003209C
:103B0000D34D621098188003A40C0001814204D99F
:103B100000F17840B0F5802F01D30020704701F10B
:103B200078410139B1F5802F2CBF0020012070476A
:103B3000814208D9B0F1005F05D3044881428CBFAF
:103B40000020012070470020704700BF00000420C3
:103B5000814211D9B0F1005F10D31A4B994219D9A3
:103B6000194B984208D9194881428CBF0020012086
:103B70007047B0F1006F15D200207047144B984287
:103B80000AD8144B9842F4D9134881428CBF0020C4
:103B90000120704701207047104881428CBF0020EF
:103BA000012070470E4B9942E6D80E4BB3F8E03037
:103BB000B3F5007FEED00C4881428CBF002001207D
:103BC000704700BF000004203F2002404021024017
:103BD000FFFFF90BFFFFF80B0080F90B0002FA0B57
:103BE000000008080005FA0B0000040800B58BB0BF
:103BF00001A804F0EDFB0598AA3818BF01200BB00E
:103C000000BD00BF00B58BB072B601A804F0E0FBA8
:103C100004214FF40052079B019143F08063CDE9EA
:103C2000062304F0D9F918B162B601200BB000BD2B
:103C300004F0F2F90028F7D101A804F0A7FA10B9AE
:103C400004F00CFAF0E704F0FBF904F0D9F9EBE723
:103C500010B58AB004F0C0F9044604F0DDF904435D
:103C600001A804F0B5FB04214FF480729DF81E30CA
:103C7000E4B2C3F3001383F001031B05CDE906236F
:103C8000019134B104F0DCF904F0BAF901200AB072
:103C900010BD01A804F07AFA0028F3D104F0DEF98F
:103CA000044604F0CDF9044304F0AAF9E4B2204339
:103CB000C0B2003818BF01200AB010BD30B58BB0BB
:103CC00004F08AF9044601A804F082FB0023802254
:103CD0000798022110F4801FCDE9033200930CBF36
:103CE00002230123019101A86946029304F006FC16
:103CF000054604F085F928432043C0B2003818BFB8
:103D000001200BB030BD00BF70B504F065F9054669
:103D10000F4C104ED4E90023B3F1FF3F08BFB2F1BE
:103D2000FF3F04F5802107D0012004F0D3F90028DB
:103D300018BF45F00105EDB20834B442EAD104F0F1
:103D40005FF92843C0B2003818BF012070BD00BF22
:103D500000E0030800000408002330B58FB0009392
:103D600004F03AF90223044605A8019304F030FB5D
:103D70000B9B042213F4801F4FF07C0014BF02231E
:103D80000123694603900DEB02000492029304F0B4
:103D9000B5FB054604F034F9054344EA0500C0B21A
:103DA000003818BF01200FB030BD00BF014608B574
:103DB000012004F08FF9003818BF012008BD00BFB2
:103DC0000022014B1A607047742A03201D4B10B467
:103DD0005988B3F800C0B1F5E06F34BF002101216C
:103DE000194C9B88194A34F81CC0B3F5306FA2F8FF
:103DF00000C0917013D2B3F5E06F1ED2B3F5407FCF
:103E00001DD2B3F5807F8CBF00230123D1789B00A6
:103E1000994208D10E4B18605DF8044B704701239E
:103E2000D1789942F6D00A4C2168411AFA29F3D97F
:103E3000D37020605DF8044B70470223F0E7032342
:103E4000EEE700BF782A0320E4250108780003206C
:103E5000742A03200022014B1A7070477E2A032027
:103E6000154B164A1B78108891787BB16FF4FC6370
:103E7000C3183E2B124B14D91881188B60F0FF0029
:103E800080B2188321B9598A89B201E00C4B18819C
:103E90001982D27822B1198B01F47F410A431A8327
:103EA0007047588980B21881188BC0B21883588A1D
:103EB00080B21882E6E700BF7E2A03207800032044
:103EC00054000320014B1860704700BF802A032074
:103ED000704700BF00B5044B83B0186801A907F014
:103EE00093FA019803B000BD802A0320024608B56A
:103EF000044B012004491A600BF07EFB034B186051
:103F000008BD00BFD82A0320882A0320842A032062
:103F1000F8B507460E46144C4FF0FF3120680BF001
:103F200029FC0128F8D1114D39462B683246186812
:103F30004FF4FA630BF060FE02460023206814463B
:103F400019461A460BF0BCFAA64203D109E00A2032
:103F50000BF044F92B6818680BF0F2FD0128F6D13C
:103F6000F8BD0020F8BD00BF842A0320D82A032012
:103F700010B5044601F06EFE01462046BDE8104033
:103F8000FFF7C6BF0D4B02781B68403201291A703B
:103F90000FD900B5A1F1020E10FA8EFE024610F8FC
:103FA00001CF724503F801CFF8D1054B1B6819808A
:103FB00000BD034B1B681980704700BF042B032012
:103FC000002B032030B54378044685B013B98378BD
:103FD000442B0FD07F204FF0310C03213C4B3D4A46
:103FE0001B6812681870207883F802C0587011801E
:103FF00005B030BD0B2903D07F204FF0130CECE748
:10400000354B1978022903D04FF07F0C7F20E4E76D
:104010001B7F022B11D1314D6B7B13F0FB030FD0B3
:104020007F20242503212A4B2A4A1B681268187016
:1040300020789D7058701180DAE74FF0330CE5E777
:10404000D0F80300AB6001232B73D4F8073000BA1B
:104050001BBAC1186B6001922860FFF757FD1C4B1B
:1040600019681C4BD3F800C040B36B68019A13F079
:10407000070F0AD07F2370200B70032394F800E011
:10408000887081F801E0ACF8003023786A734FF251
:104090000F04202540338DF80C3003AA4B1EC81C9A
:1040A0008DF80D50ADF80E4012F8011B03F8011FFA
:1040B0008342F9D10423ACF8003099E77F22312004
:1040C00003230A70227888704A70ACF800308FE7BA
:1040D000042B0320002B0320E02A03200C2B0320B9
:1040E00003780F2B40F283802DE9F047A3F11002F3
:1040F00004460D468EB0772A7FD8DFE812F04202E0
:1041000032027E007E00C5017E007E007E007E00C1
:10411000AC017E007E007E007E007E007E007E0080
:104120007E00F801E20108027E007E006C019F0122
:10413000920115027E0085017E002202D5017E00DB
:104140005C017E007E0048012201ED00DD00D00010
:104150007E007E007E007E00320105017E007E0032
:104160007E007E007E007E007E007E007E007E005F
:104170007E007E007E007E007E007E007E007E004F
:104180007E007E007E007E007E007E007E007E003F
:104190007E007E007E007E007E007E007E007E002F
:1041A0007E007E007E007E007E007E007E007E001F
:1041B0007E007E007E007E007E007E007E007E000F
:1041C0007E007E007E007E007E007E007E007E00FF
:1041D0007E007E007E007E007E007E007E007E00EF
:1041E0007E007E001501C300B300A6008D00A24B27
:1041F000A24A1B681268FFF7C1B97F20112503216D
:104200009E4B9D4A1B681268187020789D705870EC
:1042100011800EB0BDE8F087012D40F2FA8442789B
:1042200002F07F03012B00F01485032B00F0FF84C4
:104230007F2012250321914B8F4A1B68126818704A
:1042400020789D7058701180E3E77F2011250321AD
:104250008A4B894A1B681268187020789D705870C4
:104260001180D6E7022D00F0A8847F2013250321BA
:10427000824B814A1B681268187020789D705870B4
:104280001180C6E77F20122503217C4B7A4A1B68E8
:104290001268187020789D7058701180B9E77F20DF
:1042A00011250321754B744A1B6812681870207819
:1042B0009D7058701180ACE7704B6F4A012D1B68E0
:1042C000166800F0A9837F2113200322197021783A
:1042D0009870597032809CE7012D40F23B83684E04
:1042E000737B012B00F01A85644A6349022B126824
:1042F000086800F0C2857F212425032311702178EE
:1043000095705170038084E7022D00F06D847F204A
:1043100013250321594B584A1B68126818702078DE
:104320009D705870118074E77F2011250321534B35
:10433000514A1B681268187020789D70587011805F
:1043400067E7022D00F22D817F20132503214B4BBF
:10435000494A1B681268187020789D705870118047
:1043600057E7012D40F20383437803F00F02042A3C
:1043700000F0C1847F2012250321404B3E4A1B6878
:104380001268187020789D705870118041E73D4B7D
:10439000B3F8E030B3F5007F00F09C847F20112556
:1043A0000321364B344A1B681268187020789D70C0
:1043B000587011802DE7032D00F2FB807F2013251C
:1043C00003212E4B2C4A1B681268187020789D70B0
:1043D000587011801DE7012D40F2E382467806F007
:1043E0007F06012E00F0CD84022E00F0EB847F20AA
:1043F00012250321214B204A1B681268187020786F
:104400009D705870118004E77F20112503211B4BFC
:10441000194A1B681268187020789D7058701180B6
:10442000F7E67F2011250321144B134A1B681268FD
:10443000187020789D7058701180EAE67F20112551
:1044400003210E4B0C4A1B681268187020789D706F
:1044500058701180DDE6094F022D3B6800F2428260
:104460007F2013250321044A1870207812689D705C
:1044700058701180CDE600BF002B0320042B0320D1
:104480000C2B03200005FA0B042D00F0B3827F20D3
:1044900013250321A44BA54A1B68126818702078C5
:1044A0009D7058701180B4E67F20112503219E4B2A
:1044B0009E4A1B681268187020789D705870118091
:1044C000A7E6012D40F26082437803F00F02042A30
:1044D00000F044847F2012250321934B934A1B68EC
:1044E0001268187020789D705870118091E6032D25
:1044F00000F0A1827F20132503218B4B8B4A1B6880
:104500001268187020789D705870118081E67F20A5
:1045100011250321844B854A1B6812681870207886
:104520009D705870118074E67F20112503217E4B09
:104530007E4A1B681268187020789D705870118030
:1045400067E6022D00F2F5817F2013250321764BCB
:10455000764A1B681268187020789D705870118018
:1045600057E6714B714A022D1B68166800F02682CF
:104570007F2113200322197021789870597032809E
:1045800047E6022D00F0F1827F2013250321664BC0
:10459000664A1B681268187020789D7058701180E8
:1045A00037E60222294620460EB0BDE8F047FFF765
:1045B00009BD90F901204378002ABCBF03F07F03B6
:1045C00043704388B8BF01265BBA9BB2A8BF0026E0
:1045D000B3F5097F00F35F85B3F5007F2ADBA3F510
:1045E0000073242B26D8DFE813F0ED00D600C500B9
:1045F000B200A30090006800590050014801250056
:10460000250025002500250025001401FF002500B8
:104610002500250025002500250025002500250072
:1046200025002500250025002500410126017601F1
:1046300043003D007F20312103223B4B1B68187053
:1046400020789970394958700B681A80002E3FF411
:10465000E0AD354A126812787F2A3FF4DAAD0022C5
:104660001A80D6E5052D00F069877F201321E3E746
:10467000042DFAD1FDF78AFC0A200AF0AFFD2A4B7F
:104680001A682A4B1B68217840311170617851708B
:10469000A1789170E178D1701D80D7E7224A234B31
:1046A000042D12681B6800F02D877F2113201170E4
:1046B0002178907051700325EEE70B2DD5D9456810
:1046C00087682DBA3FBA28467919FFF741FA0028C2
:1046D000B0D039462846FDF7B5FE01460827124BF3
:1046E00025781A68403515706078104B5070A078A6
:1046F0001B689070E078D171D070080E1071080CB2
:10470000F940507191711F80A0E7074A074B062DB1
:1047100011681B6800F002877F2213200A7022783C
:1047200088704A70032290E7042B0320002B03209B
:1047300071200421AB4B1A68AB4B107060781B687A
:104740005070A0789070E078D07019807EE7A54B0B
:1047500071201968AB1E0A46087014FA83F32146CB
:1047600014F8010F8B4202F8010FF8D19E4B1B6821
:104770001D806BE7FFF7C8FA9A4B1A689A4B1B68C3
:10478000002800F00F877F21722011702178032507
:104790009070517080E7FFF7DFFA924B1A68924BE6
:1047A0001B680028EFD12146207840301070A81EE9
:1047B00014FA80F00C4611F8017F844202F8017F60
:1047C000F8D169E7874A884B042D12681B687FF48B
:1047D0006CAF4178012900F09487022940F0898765
:1047E0000020824908704EE7042D7FF43EAF804BD5
:1047F0001A78022A00F0AA877F227F200321794BB2
:104800001B68187020789A70774A5870136819805E
:104810001CE7042D7FF429AF754B1A78022AEBD1DF
:104820001B7F022B40F08F874378012B00F0CF874E
:104830007F20122100E7052D7FF417AF0079FDF7E7
:10484000A3FCFDF7A3FB0A200AF0C8FC0420654B7B
:1048500021781A68644B40311B681170617851707F
:10486000A1789170E178D1701880EFE6072D7FF480
:10487000FCAE0430FDF77AFCE3E75D4B1B7F022BB7
:1048800000F011867F203321D6E6082D7FF4EDAEAF
:104890004378012BCCD1C379042B7FF4CBAE807944
:1048A00022796379000240EA026040EA034040F066
:1048B0000400FEF797F8002800F056857F20722547
:1048C0000321484A484B12681B6810702078957085
:1048D00050701980BAE6072D7FF4C7AE0430FDF79B
:1048E0005BFCAEE7592204211A70427899705A7025
:1048F000427802F07F02012A00F09C82022A00F036
:1049000093827F2512260320374A1D70257811686F
:104910009E705D70088094F90130002BBFF679AC71
:104920003B681B787F2B3FF474AC0021136819801F
:104930006FE42F4B1E78022E00F055827F22032059
:10494000284B29491B6809681A7024789A705C7092
:1049500008805EE47F2013250321224B224A1B6836
:104960001268187020789D705870118051E47F2073
:10497000132503211B4B1C4A1B68126818702078F2
:104980009D705870118044E47F2013250321154B3E
:10499000154A1B681268187020789D705870118035
:1049A00037E47F20132503210E4B0F4A1B68126842
:1049B000187020789D70587011802AE40C4A127883
:1049C000012A00F07682427802F07F02012A00F08C
:1049D000A9837F21122003221970217898705970C1
:1049E000328016E4042B0320002B032076000320E2
:1049F000E02A03204378FF2B00F072827F203125CC
:104A00000321A74BA74A1B681268187020789D7075
:104A100058701180FFF7FDBBA34A517B032900F0BA
:104A200032837F21242003221970217898705970D5
:104A30003280FFF7EEBBB0F8012052BA90B20022EC
:104A4000A0F50071B1F5007FCDE90122CDE9032287
:104A50000092C0F06B82A0F57142843A0C2A08D80B
:104A6000DFE802F072076C63070707075A070707BA
:104A700015007F2031250321894B8A4A1B68126863
:104A8000187020789D7058701180FFF7C2BB69467E
:104A90000120FEF705F801A905460220FEF700F8FF
:104AA000034602A903201D43FDF7FAFF034603A9AD
:104AB0000420ADB21D43FDF7F3FF034604A9052012
:104AC000ADB21D43FDF7ECFFADB20543ADB211220F
:104AD00069460DF1170001F0A9F8002DC9D1142580
:104AE00023786F4A66781168A2784033681E8DF883
:104AF00014308DF816208DF8156005AA4B1E11FA9A
:104B000080F012F8011B03F8011F8342F9D1654BB5
:104B10001B681D80FFF77DBB0C2264490DF1170057
:104B200001F084F80F252378DBE7042260490DF1BA
:104B3000170001F07BF807252378D2E75D4A0425AA
:104B400012788DF81720CCE70C225B490DF1170085
:104B500001F06CF820230922584909A88DF8233068
:104B6000192501F063F82378BBE7437803F07F034E
:104B7000022B00F05B82032B00F04482012B40F0FB
:104B80006A8200224B494E48C1E903220B70464B12
:104B900002605A734A610A778A6194F90130627837
:104BA000002BFFF636AB50203D4B3E491B68096891
:104BB0005A7018700D80FFF72CBB427802F07F030B
:104BC000012B00F07F81022B00F053827F20122501
:104BD0000321334B334A1B681268187020789D708C
:104BE00058701180FFF715BB4378002B00F09381BC
:104BF000802B3FF40EAB7F2012250321284B294A3E
:104C00001B681268187020789D7058701180FFF72B
:104C100000BB7F2013250321214B224A1B68126809
:104C2000187020789D7058701180FFF7F2BA244DEB
:104C30002968002940F02E817F202225184A194931
:104C40001268096810702078957050700B80FFF71B
:104C5000E0BA022D00F037828378103B032B00F27C
:104C6000F285DFE803F01917021B164B144A136094
:104C700094F90130002BFFF6CCAA0221084A2378D0
:104C800012684033074D137060782B68507019809C
:104C9000FFF7BFBA0C4BE9E70C4BE7E70C4BE5E736
:104CA000042B0320002B03200C2B03209005FA0B70
:104CB0000C1F0108E02A0320F41E0108001F010850
:104CC000082B032020A1070090D0030048E8010032
:104CD00040420F00022D00F23C817F20132503216A
:104CE000B14BB24A1B681268187020789D705870DA
:104CF0001180FFF78EBA03F0F002402A40F22C81B7
:104D00007F2012250321A84BA84A1B68126818703F
:104D100020789D7058701180FFF77BBAA91E11F0A2
:104D200007051FFA81F840F09A80B368726843441F
:104D3000934200F29480327B4378934200F04284A5
:104D40007F2073250321984B984A1B6812681870BE
:104D500020789D7058701180FFF75BBA03F0F00265
:104D6000402A40F229817F20122503218E4B8F4A51
:104D70001B681268187020789D7058701180FFF7BA
:104D800048BA40F26713ADF81430FFF7A3F8884A29
:104D9000884B4240C3E903021E7794F9013000BA00
:104DA000002BCDF81600FFF634AA06217E4B05989D
:104DB0001B687E4A1860BDF8180012689880118040
:104DC000FFF727BA062D00F0CB817F2013250321A2
:104DD000754B764A1B681268187020789D70587061
:104DE0001180FFF716BA4FF28412B0F8013058BAAA
:104DF00080B220F00801914200F0F68049F2F10201
:104E0000934200F06382072D00F057837F20132523
:104E10000321654B654A1B681268187020789D70E5
:104E200058701180FFF7F5B9032D00F0CE817F2572
:104E3000132668E5032DFAD1002205A8DA70FDF7E4
:104E4000F9FD5A4A3B681668002800F024837F2148
:104E50001970722120789970587035805BE57F2039
:104E600071250321504B514A1B6812681870207835
:104E70009D7058701180FFF7CCB9022D00F0618150
:104E80007F21712503231170217895705170038063
:104E9000FFF7BFB9130600F12481C7200221424B5E
:104EA000424A1B6812681870607858701180FFF7CA
:104EB000B0B97F2203211A7000789A70587031803F
:104EC000FFF7A7B911063FF5A4A9C521364B374A0C
:104ED0001B6812681970417859701580FFF799B9ED
:104EE0008378FF2B7FF48AADC378FF2B7FF486ADE8
:104EF000FDF744FD002800F01D847F20722503216A
:104F0000294B2A4A1B681268187020789D705870C7
:104F10001180FFF77EB97E21234B244A1B6812685B
:104F20001970417859701580FFF773B96946FDF71C
:104F3000B7FD002800F027817F2131201A4B1B4A42
:104F40001B68126819702178987059701580FFF7E6
:104F500060B90122FFF726BB1B095A1DAA4280F245
:104F6000D380002B00F0A7820027591E0530C9000E
:104F700010F8012F8A4008393A4311F1080F97B20F
:104F8000F6D19E1DF3199D4200F072827F201325F9
:104F90000321054B054A1B681268187020789D7024
:104FA00058701180FFF735B9042B0320002B032024
:104FB00078563412E02A0320AF4A1278012A00F012
:104FC00032811B099A1D954200F0EE817F20132546
:104FD0000321AA4BAA4A1B681268187020789D709A
:104FE00058701180FFF715B97F2031250321A34B9D
:104FF000A34A1B681268187020789D705870118041
:10500000FFF707B99F4A928A92B2B2F5805FC0F06B
:1050100041817F208825994A994912680968107052
:105020002078957050700B80FFF7F3B8954B9B8AF2
:105030009BB2B3F5805FC0F003817F20222503215E
:105040008E4B8F4A1B681268187020789D705870BC
:105050001180FFF7DEB87F2012250321874B884A95
:105060001B681268187020789D7058701180FFF7C7
:10507000D0B812063FF5CDA8294620460EB0BDE8AF
:10508000F047FEF77FBF04215173027840321A7057
:105090003580FFF7BEB8B3F57F4F00F050814FF673
:1050A000017293427FF4C6AA042D7FF4DEAA4378EE
:1050B000012B7FF4BDAB704B1A78022A00F07C8381
:1050C0007E22FFF79ABB7F20132503216B4B6C4A8E
:1050D0001B681268187020789D7058701180FFF757
:1050E00098B80123684C26782370FCF7F7FF4FF43B
:1050F0007A700AF073F8F6B22868FCF7F7FFFCF74D
:1051000045FF2670FFF785B87F20132503215B4BF1
:105110005B4A1B681268187020789D705870118067
:10512000FFF777B851221A7042785A70358090F99B
:105130000130002BBFF66DA80EB0BDE8F04702F0BD
:105140009FB8317B63788B4200F050817F217325BB
:10515000032311702178957051700380FFF759B8BF
:10516000454B9A69042A40F20B817F2036250321A2
:10517000424B434A1B681268187020789D70587023
:105180001180FFF746B860782378A4784033042272
:105190008DF8150069460DF117008DF814308DF863
:1051A000164000F043FD354B0DF113021868431E05
:1051B000063012F8011F03F8011F9842F9D10722A7
:1051C0002F4B1B681A80FFF724B8002205A8DA705D
:1051D000FDF730FC8146002840F02D81059B002B17
:1051E00000F0AA8280466E4612E09DF803203B68DC
:1051F0005A55BDF8022003F82820009A2B44120AC1
:105200009A70009ADA70059B0435984580F01F81EA
:1052100040463146FDF7CAFB08F101080028E4D0FA
:105220004FF00109EFE77F220320144B14491B685C
:1052300009681A7024789A705C700880FEF7E9BFDC
:1052400000230D4A1148C2E90333114903604B732F
:1052500053611377936194F901306078002B1570D6
:10526000FEF6D7AF5021054B054A1B6812685870EF
:1052700019701580FEF7CDBFE02A0320042B032010
:10528000002B03205400032076000320082B03206A
:105290000C2B03200022B349B348C1E903220B7051
:1052A000B24B42731A604A610A778A6194F90130FD
:1052B00060789342FEF6ADAF5021AD4BAD4A1B680E
:1052C0001268587019701580FEF7A3BF142D7FF473
:1052D0009DADD4F803100120FDF7CAFBD4F80710E8
:1052E00005463046FDF7C4FB0346D4F80B100320F7
:1052F0001D43FDF7BDFB0346D4F80F100420ADB2EB
:105300001D43FDF7B5FB0346E17C0520ADB21D430F
:10531000FDF7AEFBADB245EA00039BB2944A954956
:1053200012680968002B00F0F0817F2072250323AA
:1053300010702078957050700B80FEF76ABF042DB6
:105340007FF493A94378012B7FF472AA854B1A78D6
:10535000022A7FF4B5AE1B7F022B40F0F481FEF7EA
:10536000ADFC00287FF4AAAA04212046FEF70AFE1D
:10537000804B1B681A88002A3EF44BAFFFF766B9D2
:1053800058685969411A092900F2FA807F203725A7
:105390000321774B774A1B681268187020789D703C
:1053A00058701180FEF735BF002B00F08D8000266D
:1053B000013B411DDB0011F8012F9A40083B13F11E
:1053C000080F46EA0206F6D140F6FE739E427CD9EB
:1053D0007F2031250321664B664A1B6812681870CE
:1053E00020789D7058701180FEF713BF013333731E
:1053F0002378002140331370637802F8013FB368CB
:105400000BE034680131E35CB1F57F6F02F8013FD6
:10541000B36803F10103B36003D07468A342F0D30F
:1054200089B27268023193420180FEF4F2AE032326
:105430007373FEF7EEBE7F2272203B681A702178EC
:105440004C4A5970987013681D80FFF764BAB9F11F
:10545000000F00F071817F213B68722519700321D4
:105460002078444A58709D7013681980FFF753BA2A
:105470003C4B1A78022A00F0F0807F227F2503201F
:105480003B4B3C491B6809681D7024789A705C701E
:105490000880FEF7BEBE062005995971090A1971E8
:1054A0003080FFF738BABFF34F8FBFF36F8F431DC4
:1054B0009847FFF7CBB91F4663E5D4F8031009BA44
:1054C000FDF7D6FA034629E71E46D4F802502DBA56
:1054D00071192846FEF73CFB254B264A1B681168CC
:1054E000002800F01D812278ED1A40321A709A19B6
:1054F00002E0E85C03F8010F9A42FAD1731C0B80BA
:10550000FEF787BE4178012900F0D980022940F0DA
:10551000F080002018490870FFF7B5B8828840F67F
:10552000FB7052BA92B2824240F2CD807F2231208B
:105530000A70227888704A70FFF7F4B84378012B1C
:105540007FF476A90379002B00F04A81012B7FF4C8
:1055500071A80A48FDF71AF829462046FEF712FD01
:1055600006E700BFE02A03200C2B0320082B0320B2
:10557000042B0320002B03207E2A0320E44501088E
:10558000197F012900F0EF807F2024250321B64BED
:10559000B64A1B681268187020789D705870118088
:1055A000FEF737BE2146207840301070A81E14FA4E
:1055B00080F00C4611F8017F844202F8017FF8D197
:1055C000FFF76AB80133337302F006FDB8F1000F3C
:1055D0005ED02746AA46A946B0683B797A791B0473
:1055E00003EB0263FA78397A03EB02237A7A09042F
:1055F00001EB0261BA780AF1080A134419EB0302BD
:10560000FB79083701EB0323316801F58021084459
:1056100017F8021C0B44FEF7C9FB40EA0503B0680B
:10562000D04500F10800DDB2B060D6D802F0E8FC49
:10563000D6E901329A4224BF0323737385B37F21D5
:1056400072200322884B1B6819702178987059705A
:10565000864B1B681A80FEF7DCBD1B7F022B2CD10A
:10566000D4F802502DBA28467919FEF761FA0028BD
:1056700040F0BE807F20312503217B4B7B4A1B6895
:105680001268187020789D7058701180FEF7C1BDA7
:1056900002F0B6FCD6E901239A4201D803237373C2
:1056A0000220714A7149237812686478096840338E
:1056B000137054700880FEF7ACBD3322DEE66C48F0
:1056C0000170FEF7E0BF71200870084665784D70E4
:1056D000A5788D70E4780021151F00F8034F02E0D3
:1056E00000F8011F01318D42FADC043292B2FEF75C
:1056F000ACBF7F2112201170217890705170FEF79D
:10570000DABF5C480170FEF7BEBF60782378A578E9
:10571000507003204033137095700880FEF779BDF8
:105720007F2031250322187020789D7058700A80E0
:10573000FEF76FBD0121A0E44C4A9B0011680333C2
:105740000B80FFF7E8B83322FFF757B81B7F022B17
:10575000F9D14378012B7FF46BA8FEF779FA002882
:105760007FF4ACA800E6D4F802101D6909BA8D4296
:1057700012D000277F2658613525032001329A6117
:10578000394A3A4912681F771670237809685370AE
:1057900095700880FEF73DBD1E7794F90130002B0F
:1057A000FEF637AD40F267212F4A304B12681B6876
:1057B00011801E80FEF72DBD1B7F022BC3D12E4B07
:1057C0005B7B042BC9D07F202221FEF735BFFEF77B
:1057D0000DFA00BBFEF716FA00287FF46FA8C3E5A8
:1057E0002648FCF7D3FE29462046FEF7CBFBBFE553
:1057F000022F23D0042F1CD0082F12D06FF00603E5
:10580000E21D1B1B02E012F8011F29709918B94212
:10581000F9D3314631E40CF003FB00287FF44EA8A5
:10582000A2E5A168E0680BBA02BA3146C5E90023D7
:1058300023E4A36831461BBA2B601EE4238931465A
:105840005BBA2B8019E47F22002631200321064B0E
:105850000B4D1B682E601A70044A247812685C7025
:1058600098701180FEF7D5BC042B0320002B032079
:105870007E2A0320760003200C2B0320F845010824
:10588000082B032038B500240122094B09490A4D91
:105890004C73586009490A48C3E90344C3E9054405
:1058A0002C601A701C77FDF7E3F9204638BD00BF65
:1058B000E02A03200C2B0320082B03208000032068
:1058C000D8A50120114B01461A78032A02D01048AE
:1058D000FDF768BB41F288305A688A1A8242F6D9CD
:1058E00000224FF0010C0B4810B40B4C427383F8AC
:1058F00000C01A77226006485DF8044BC3E9032212
:10590000C3E905225960FDF74DBB00BFE02A032023
:10591000D8A501200C2B0320082B03200146024AA6
:105920000248FDF755BB00BFA8000320D8A5012001
:105930002DE9F043002585B004468DF80D50ADF8F3
:105940000E50D0E90050B0F1804F0F4690461E46F1
:10595000C5F382690CD038B940F2E1739D4263D03F
:1059600040F2DF739D420ED0002005B0BDE8F08309
:10597000C5F30743DA2BC5F3072200F09980DB2B30
:10598000F2D1FF2AF0D1E06800F044F90028EBD012
:105990003B780F2BE8D8002B00F09680072BE3D83C
:1059A00001388342E0D8A2690137ADF80E30A2F584
:1059B00000120123B2FA82F28DF80D30504B5209D9
:1059C00083F826216168B1F1804F00F08F8040F2AA
:1059D000E97200214B484C4B0260C3E90021416051
:1059E0004FF0FF3301220DF10D0130680AF004F988
:1059F0004FF0FF33022204460DF10E0130680AF029
:105A0000FBF802464FF0FF33144439463068BDF8C6
:105A10000E200AF0F1F8BDF80E3004440333A3421F
:105A200044D0FBF78FFD41E040F2E973364AC2E90A
:105A30000030344AC2E90030E06800F0EBF8CDF8FD
:105A40000080A369314CA3F50013B3FA83F3014638
:105A50003A4620465B09FDF735F92578022D83D1BA
:105A600000274FF0FF3301220DF10D0130688DF852
:105A70000D700AF0C1F82A464FF0FF330546A11C0D
:105A800030680AF0B9F802464FF0FF331544306829
:105A9000628804F10D010AF0AFF86388054403330E
:105AA000AB4201D0FBF74EFD0023237001205CE7E1
:105AB000132A7FF459AF2B029BB243EA896343F464
:105AC0005A0343F01303B1E7A269B2F5001F7FF454
:105AD0004BAF08287FF648AF7B78002B3FF444AFEC
