:020000040800F2
:1000000000000420AD700008296F00082D6F000863
:10001000316F0008356F0008396F0008FD70000867
:10002000000000000000000000000000E1250108C1
:100030003D6F000800000000712501089DFD0008CB
:10004000FD700008FD700008FD700008FD700008DC
:10005000FD700008FD700008FD700008FD700008CC
:10006000FD700008FD700008FD700008FD700008BC
:10007000FD700008FD700008FD700008FD700008AC
:10008000FD700008FD700008FD700008FD7000089C
:10009000FD700008FD700008FD700008FD7000088C
:1000A000FD700008FD700008FD700008FD7000087C
:1000B000FD700008416F00084D6F0008FD700008DA
:1000C000FD700008FD700008FD700008FD7000085C
:1000D000FD700008FD700008FD700008596F0008F1
:1000E000656F0008FD700008716F0008FD70000862
:1000F000FD700008FD700008FD700008FD7000082C
:10010000FD7000087D6F0008896F0008FD70000811
:10011000FD700008FD700008FD700008FD7000080B
:10012000FD700008956F0008A16F0008FD700008C1
:10013000AD6F0008FD700008FD700008FD7000083C
:10014000FD700008FD700008B96F0008FD70000820
:10015000FD700008FD700008FD700008FD700008CB
:10016000FD700008C56F0008FD700008FD700008F4
:10017000FD70000800000000FD7000080000000095
:10018000D16F0008FD700008FD700008FD700008C8
:10019000FD700008FD700008FD700008FD7000088B
:1001A000FD700008FD700008FD700008FD7000087B
:1001B000FD70000800000000DD6F0008FD70000801
:1001C000FD70000800000000FD700008FD700008D0
:1001D000FD700008FD700008FD700008FD7000084B
:1001E000FD700008FD700008FD700008FD7000083B
:0401F000000000000B
:1002000010B5054C237833B9044B13B10448AFF350
:1002100000800123237010BD600203200000000055
:10022000382B010808B5034B1BB103490348AFF352
:10023000008008BD0000000064020320382B010884
:10024000034613F8012B002AFBD1181A0138704716
:1002500053B94AB9002908BF00281CBF4FF0FF312D
:100260004FF0FF3000F0B2B9ADF1080C6DE904CEEB
:1002700000F006F8DDF804E0DDE9022304B0704781
:100280002DE9F04F8C46099E04460F46002B48D1BD
:100290008A4215465ED9B2FA82F33BB1C3F120021D
:1002A0009F409D409C4020FA02F217434FEA154EB2
:1002B0001FFA85FC220CB7FBFEF10EFB117701FB48
:1002C0000CF042EA0742904207D9AA1801F1FF3721
:1002D00002D2904200F258813946121AA4B2B2FBFF
:1002E000FEF00EFB102200FB0CFC44EA0244A44585
:1002F0000BD92C1900F1FF322CBF01270027A44590
:1003000002D9002F00F04381104640EA0140A4EBDF
:100310000C0400211EB1DC400023C6E90043BDE807
:10032000F08F8B4206D90EB1C6E9000100210846C4
:10033000BDE8F08FB3FA83F1002951D16345C0F0D5
:100340001681824240F213810846002EE7D0C6E9AA
:100350000047E4E7002A00F0AF80B2FA82F3002BF6
:1003600040F0C2808A1A4FEA154EAFB20121200C2C
:10037000B2FBFEFC0EFB1C2240EA024207FB0CF023
:1003800090420ED9AA180CF1FF382CBF4FF001098A
:100390004FF00009904203D9B9F1000F00F0F0804E
:1003A000C446121AA4B2B2FBFEF00EFB102200FBF0
:1003B00007F744EA0244A7420ED92C1900F1FF3294
:1003C0002CBF4FF0010E4FF0000EA74203D9BEF133
:1003D000000F00F0D2801046E41B40EA0C4099E781
:1003E000C1F120058B400CFA01F400FA01F922FA60
:1003F00005F72CFA05FC8A401F4320FA05F3380C58
:1004000023431FFA87FE1C0CBCFBF0F800FB18CC42
:1004100044EA0C4408FB0EFCA4450ED93C1908F133
:10042000FF3A2CBF4FF0010B4FF0000BA44503D94E
:10043000BBF1000F00F0B880D046A4EB0C041FFA0B
:1004400083FCB4FBF0F300FB134403FB0EFE4CEA09
:100450000444A6450ED93C1903F1FF302CBF4FF0E0
:10046000010C4FF0000CA64503D9BCF1000F00F0C1
:100470009F80034643EA0840A4EB0E04A0FB02EC75
:1004800064457346E04602D307D1F14505D2BEEB81
:1004900002036CEB070C0138E0465EB1B9EB0302D6
:1004A00064EB080404FA05F522FA01F3CC401D437D
:1004B000C6E90054002132E742082F464B08AC46FB
:1004C00042EAC172AE46C407110C92B241EA03413E
:1004D00042EA0142B1FBF5F1B3FBF5F01F23A2EBB9
:1004E0000C0241EA004142E79D40C3F120029940DD
:1004F0009C402CFA02FC4FEA154E20FA02F2AFB2F1
:10050000BCFBFEF80A430EFB18CC110C41EA0C416F
:1005100008FB07FC8C4550D9691808F1FF302CBF47
:100520004FF001094FF000098C4502D9B9F1000FD5
:1005300030D0A1EB0C01B1FBFEF808FB07FC0EFB71
:10054000181192B242EA0142624534D2AA1808F167
:10055000FF312CBF4FF001094FF000096245BED2B8
:10056000B9F1000FBBD1A8F102012A44B7E7841A00
:100570006CEB030201201746E7E62C4402382BE718
:10058000ACF1020C2A440CE702392A44A5E62C44BB
:100590000238BAE6A5EB0C0CA8F102006144B1FBED
:1005A000FEF808FB07FCCAE7A8F102083C4444E750
:1005B000023B3C445EE7414691E7A1EB0C0140461B
:1005C000B1FBFEF808FB07FCB9E700BF704700BFAE
:1005D000704700BF10B501220D490E4882B00DF0E2
:1005E000A9FA0D4C0DF106014FF0FF3302222068ED
:1005F00010F082FA4FF0FF330849BDF8062020685A
:1006000010F07AFA0548BDF8061002F05FF9E9E744
:10061000A4030320C8250320D003032058A00120F1
:10062000F0B52B4C2B4E9BB04FF0FF332822694680
:10063000206810F061FA2828F6D1039805F0A6FE8C
:10064000054600283BD1029BD3B929460AAA009847
:1006500002F0CCF910F056FF0AA90246684602F0F3
:100660004BFB10F04FFF0AA90246684601F09AFFC3
:1006700010F048FF0AA90246684602F0F1F8D3E7F5
:10068000B3F1005FEDD140F20372009B9342E8D1D9
:10069000082203990027914228BF11460D46C6E95A
:1006A0000577B760019F0C490C48C6E90037F56033
:1006B00005F078FE3046094901F0E2FDD1E74FF040
:1006C000FF332A4620680AA910F016FABBE700BFDC
:1006D00010280320900203209005FA0B84020320C7
:1006E0002DE9F0431F4D9BB0DFF8808001AE0AAFCB
:1006F000002404EBC401C4F124024FF0FF33286846
:1007000006EB810110F0F8F90444232CF1D9049888
:1007100005F03CFE039B8146B3F1005F00D0A0B919
:10072000114807F085FF50B13A4631460E4807F0B0
:1007300049FED8F80C300133C8F80C30D8E74FF038
:10074000FF32012111F072F9EAE70024A9EB04025B
:1007500039194FF0FF33286810F0CEF904444C45A6
:10076000F4D3DDE70C280320B0260320000003208B
:1007700000B583B002F0D8F801F068FC03221B49F1
:100780001B4807F0B5F803F011FD00F013FF03F06C
:1007900029FD10F0B7FE01F0FFFE10F0B3FE02F0ED
:1007A00059F814480BF040FE13480BF005FE134CAB
:1007B00010F0A8FE019003F0FBFC019803F018FD77
:1007C000019800F00FFF23782BB9019802F000FA8E
:1007D000019801F06FFF019802F04CF8019802F0C7
:1007E0007FFA0A2101A810F0CDFDE1E7702A03206D
:1007F000A0270320E82303205023032076000320B2
:100800002DE9F0410026214DDFF88C80204FA6B065
:1008100012E011F051FD98F8003033B10B9B23B179
:1008200064200FF073FB01F011FC0022022311463B
:100830003868009611F07CF94FF0FF32012100205A
:1008400011F0F4F811F02AFD124808F047F80446B8
:1008500006A9104807F0B2FE02A90E4807F0D6FE1E
:100860005422294611A8AC6012F00EF9094B1E66FD
:10087000189BB3F5003FCCD9AB689B02C9D50123C7
:1008800085F820300B9301F089FCC2E700000320BB
:10089000701B0320B02603208002032000232DE9D3
:1008A000F04D84B07D4EDFF80082DFF804B27C4D5D
:1008B000DFF800A20DF10E078DF80B3013E0286869
:1008C00010F024F8012808D94FF0FF3302222868DD
:1008D00003A910F011F9022845D000214FF0FF3292
:1008E000084611F0A3F8306810F010F80028E6D0A0
:1008F0004FF0FF33012230680DF10B0110F0FCF8CE
:100900000128DCD1306810F001F80128D7D94FF068
:10091000FF330222306803A910F0EEF80228CED18E
:10092000BDF80C20B2F5845FC9D8002A40F0A5803C
:100930009DF80B40002C52D110F0E4FD594B5A4960
:10094000BDF80C20009705F09FFCBDF80E30002B81
:1009500079D110F0D7FD534B5349BDF80C200097C7
:1009600005F0E2FCABE7BDF80C20B2F5805FB4D235
:1009700072B10024121B08EB04014FF0FF3328680A
:1009800010F0BAF8BDF80C20204484B2A242F1D194
:1009900010F0B8FD434B4146BDF80C20009705F020
:1009A00023FEBDF80E30002B97D039464FF0FF33B1
:1009B0000222DAF800000FF0B7FFBDF80E204FF06A
:1009C000FF333849DAF800000FF0AEFF00220223AF
:1009D0001146DBF80000009211F0AAF87DE710F054
:1009E00091FD304B3049BDF80C20009705F074FCA8
:1009F000BDF80E30002BACD02A490A787F2A08D1E6
:100A0000022BA6D98B78A3F11102012AA1D9312B8F
:100A10009FD02648394604464FF0FF330222006833
:100A20000FF082FFBDF80E204FF0FF331D49206804
:100A30000FF07AFF002202231146DBF8000000923B
:100A400011F076F885E7194839464FF0FF33022256
:100A500000680FF069FF1548BDF80E204FF0FF3316
:100A6000104900680FF060FF022322462146DBF8A0
:100A70000000009411F05CF86BE70024121B4FF0AB
:100A8000FF3308EB0401306810F036F8BDF80C2095
:100A900023189CB2A242F1D14AE700BFC40203204E
:100AA000B8020320507F0120D48F0120C002032010
:100AB000B0080320B40203202DE9F04FDFF81481C1
:100AC00085B0404E404DDFF810A108F19C0908F5B3
:100AD000805B02AF14E028680FF018FF012809D9E5
:100AE0004FF0FF33022228680DF1060110F004F8E0
:100AF000022846D000214FF0FF32084610F096FF42
:100B000030680FF003FF0128E5D94FF0FF330222D0
:100B10002E4930680FF0F0FF0228DCD1B8F894209D
:100B2000B2F5845FD7D872B10024121B09EB04011F
:100B30004FF0FF3330680FF0DFFFB8F89420204407
:100B400084B2A242F1D110F0DDFC0146204802F04F
:100B5000C9FC0028BFD103E09BF823010FF0D6F9B0
:100B600010F0D0FC05F096FA0128B4D030680FF0F0
:100B7000CDFE0128AFD89AF80030002BECD10A2026
:100B8000ECE7BDF80620082AB4D86AB10024121B8D
:100B900039194FF0FF3328680FF0AEFFBDF806207B
:100BA000204484B2A242F2D110F0ACFC3946BDF828
:100BB000062005F0B1FC01289CD00A200FF0A6F910
:100BC000F2E700BFC0020320B40203206CB601208C
:100BD000D8A50120D8B501207600032010B50D4915
:100BE0000D4803F0E9FB0C4C80224FF0FF330B491A
:100BF00020680FF081FF02460028F5D0074992B225
:100C000007480BF097FF4FF0FF320121002010F052
:100C10000DFFE9E700040320A8030320D8A001206A
:100C2000C825032001F04ABE002001F04BBE00BFE2
:100C30000022024B02481A600BF0F6BB7C02032034
:100C40009C230320014B1868704700BF7C020320DF
:100C500010B59EB0482200210CA811F089FE002397
:100C60004FF40070CDE90233CDE90433CDE9073309
:100C7000CDE90933019306930B9309F087FD08B181
:100C800072B6FEE70123022216931193199317926D
:100C900010231D9207229FED1E7BCDE91A320324FB
:100CA000042312900CA81C938DED0C7B189409F072
:100CB000A9FF034608B172B6FEE70F22214601A83C
:100CC000CDE9033305930294019209F047FE0346F0
:100CD00008B172B6FEE7104A4FF0005C916D4BF61A
:100CE0007F3441F080719165926D069302F08072BD
:100CF000009208932222202306A8CDE90A23009916
:100D0000CDF81CC009940AF0F5FE1EB010BD00BF5E
:100D10002900000000000100001002402DE9F04110
:100D200094B072B64FF00062AA4B9A60BFF34F8F37
:100D300062B6002406F0E4F9FFF78AFFCDE90E441D
:100D4000CDE91044A44D1294EB6C4FF4604143F094
:100D50000403EB64EB6C224603F004030793079B48
:100D6000EB6C9E4843F08003EB64EB6C012603F0D0
:100D700080030893089BEB6C4FF4007843F0010369
:100D8000EB64EB6C082703F001030993099BEB6C00
:100D900043F00203EB64EB6C03F002030A930A9B3B
:100DA00008F034FA224640F201118D4808F02EFA7C
:100DB000224641F2E4018B4808F028FA4FF46043E0
:100DC00086480EA9CDE90E361094119408F070F8FB
:100DD00040F2011382480EA9CDE90E36CDE9104448
:100DE00008F066F841F2E4037E480EA9CDE90E361C
:100DF000CDE9104408F05CF879480EA9CDE90E84DD
:100E0000109608F055F878480EA9CDE90E741094A4
:100E100008F04EF8AB6C052143F00403AB64AB6CF7
:100E2000224603F004030493049BAB6C1D20334360
:100E3000AB64AB6C33400593059BAB6C43F0020392
:100E4000AB64AB6C03F002030693069B06F042FE14
:100E50001D2006F079FE224605211E2006F03AFEEE
:100E60001E2006F071FE22460521502006F032FEBB
:100E7000502006F069FE204608F046FD08B172B623
:100E8000FEE708F055FD034648B958484360584B03
:100E900003600AF057FE034618B172B6FEE772B659
:100EA000FEE710224FF4407E4FF03C0C0F2113243C
:100EB00004255048826182624F4AC0E90E63436054
:100EC000C360837413704D4BC0E907C40360C0E96D
:100ED0000C56068246614662C0F808E0C16207F01F
:100EE000C7F80346D8B907224FF4E0614FF4827483
:100EF0004348C0E90433C0E90833C0E90A328360DB
:100F00000363404BC0F818800360C76147634460C7
:100F1000C1600BF03BF8034618B172B6FEE772B63B
:100F2000FEE70BAF0B90CDE90E00CDE91000CDE947
:100F30001200C7E901004FF480704FF4301C032108
:100F40004FF48052304CC4E9023384F82030A3625D
:100F5000E36284F838302D4B20832046266184F8E4
:100F600030606561C4F804C0E1616263236006F02B
:100F7000EBF808B172B6FEE70B903946204606F052
:100F800031FD08B172B6FEE706237F220F93204B96
:100F9000109013900EA92046129511920E9306F010
:100FA00001FA08B172B6FEE70C231A4A20460EA9D0
:100FB0000E920F9306F0F6F908B172B6FEE712230F
:100FC000154A20460EA90E920F9306F0EBF928B3AE
:100FD00072B6FEE700ED00E0001002400008024299
:100FE0000000024200040242001C0242B425032019
:100FF00000080C42B02603208002032000A4004019
:101000005025032000380040A02703200080024222
:10101000400020190002B0250004002A002301220C
:101020006749C1E905338B80664B08460A620B604D
:1010300006F0BCFD08B172B6FEE7634C634A0C23B0
:1010400022604FF4E132C4E90300C4E90800A06063
:10105000A061A06260662046636162600CF0A2FC41
:10106000014608B172B6FEE720460CF0C9FD014604
:1010700008B172B6FEE720460CF0E8FD08B172B682
:10108000FEE720460CF09EFD034608B172B6FEE76F
:101090004F48504AC37202604FF4027302228380A9
:1010A000C0F8072008F04EFC08B172B6FEE741F622
:1010B0003F75494C494ACDE90E00C4E90100109042
:1010C000A06120462260E5600BF09EFB034608B15C
:1010D00072B6FEE720460EA90E9310930BF0C6FBE6
:1010E000034608B172B6FEE73D4CCDE90E331093CE
:1010F000A360A36142F20F733A4A2046C4E9002379
:10110000E5600BF081FB034608B172B6FEE72046AE
:101110000EA90E9310930BF0A9FB08B172B6FEE76F
:1011200000234F254FF6FF742F49304A0846C1E986
:101130000153C1E90343C1E905330A600BF064FBC5
:10114000034608B172B6FEE72948C0E90153C0E979
:101150000343C0E90533274B03600BF055FB08B18F
:1011600072B6FEE74FF080414FF0FF32224C0B90F9
:10117000CDE90E00CDE91000C7E90100C4E9010086
:101180002061A06120462160E2600BF03DFB08B1C8
:1011900072B6FEE74FF4805320460EA90E930BF073
:1011A00081F9034608B172B6FEE7204639460B9333
:1011B0000D930BF05BFB044600B372B6FEE700BF75
:1011C0001427032000300240C8250320008000407F
:1011D0002820032000D400409C230320001400405A
:1011E000E823032000100040502303200044014066
:1011F0000423032000480140342403207048224681
:101200000121704B0090CDE901444FF400700FF0C4
:10121000EBFA05466C4E6D4A00960121CDE901447A
:101220006B4B15604FF4007022460FF0DDFA054657
:10123000684E694A00960121CDE90144674B15606B
:1012400046F2060022460FF0CFFA0246644D654E84
:1012500000950121CDE90144634B326046F206005E
:1012600022460FF0C1FA614B614A01210092CDE99B
:101270000144224618605F4B4FF47A600FF0B4FAD5
:101280005D4D5E4B224600930121CDE901445C4B4C
:1012900028604FF47A600FF0A7FA5A4B2246009369
:1012A000594B0121CDE901441860584B4FF4A0403F
:1012B0000FF09AFA564B22460093564B0121CDE986
:1012C00001441860544B4FF4A0400FF08DFA534B7B
:1012D00053491860534803F01BF801F0B7FD10F0B4
:1012E00011F93246504B5149009501F0DFFC50484E
:1012F00003F04EF84F4801F003F94F484F4A504968
:1013000000F08AFE0EA80E9401F096FD20B90E9B07
:1013100013B94C4801F068FD0EF04EFD00214A4A19
:101320004A480EF099FD0446494B0021494A4A4873
:101330001C600EF091FD0446484B0021484A494884
:101340001C600EF089FD04463D4B0021464A47488B
:101350001C600EF081FD0446314B0021444A454893
:101360001C600EF079FD0446344B0021424A43488C
:101370001C600EF071FD04462C4B0021404A414890
:101380001C600EF069FD04463F4B00213F4A404877
:101390001C600EF061FD04463E4B00213E4A3F4872
:1013A0001C600EF059FD04463D4B00213D4A3E486D
:1013B0001C600EF051FD3D4B18600EF01FFDFEE766
:1013C000D4030320D8A30120AC030320D0030320BF
:1013D000D8A101207C030320A8030320481F01207B
:1013E00058030320C402032040BF0020C002032092
:1013F00034030320A0AF0020B80203201003032011
:1014000000A00020EC020320B402032000500020C2
:10141000C802032010280320000000200C2803200D
:10142000C016032050250320BC020320600D0320BA
:10143000B425032014270320B02603201012032014
:10144000701B032004009180B02E0108D505000810
:10145000242003208C2E01082106000820200320D0
:10146000682E0108E1060008442E010871070008F3
:10147000202E010801080008FC2D01089D08000825
:10148000D82D0108B90A0008B0080320B42D0108BE
:10149000DD0B000800040320902D0108250C000836
:1014A000FC0303206C2D0108290C0008F80303201D
:1014B0000A4B186880B1002100B583B001AA0191E0
:1014C00010F056FC019B2BB14FF0E0234FF08052FF
:1014D000C3F8042D03B000BD704700BF0004032013
:1014E00070B500251E4C82B0228801957F2A0ED847
:1014F0001C4B19780D2904D01B48531C81549BB2F6
:1015000006E0013A7F2A02D8184E306840B900231D
:1015100001221449164823800CF00CFB02B070BD68
:101520002B46022221460FF099FA0228EFD12B46D2
:10153000228830680C490FF091FA23889842E6D14E
:101540000C4B2946186801AA10F012FC019B002BD5
:10155000DDD04FF0E0234FF08052C3F8042DD6E7E2
:10156000A0030320A403032058A10120D0030320DB
:10157000C825032024200320094A0368934206D08B
:10158000084A93420AD0084A934205D07047074A56
:10159000136801331360704701F088B905F0C2BDCC
:1015A00000140040002C0140001000407C02032089
:1015B00072B6FEE7024B0348DB8B037002F0C8BE35
:1015C0005400032009280320054AD38B9BB211B194
:1015D0000343D383704723EA0003D383704700BFDC
:1015E0005400032070B5154E154D336804461B6832
:1015F000A88B1B6F134980B298473368E88B1B6830
:101600001149D3F8803080B2984740F6B7330F4A7B
:10161000E98B9C4211700E4B01D8197831B101222F
:101620001A700A48BDE8704002F092BEFF231370A2
:101630000648BDE8704002F08BBE00BF7C0003206E
:10164000540003209C290320102A0320092803208A
:10165000082803200870704700787047030A087054
:101660004B707047012994BF00780088704700BF15
:10167000012908D94FF6FE2302889A4203D8981A06
:10168000C0F34F0070470020704700BF012911D9F7
:101690004378FA2B07D8084AC3EB0330A2FB00209B
:1016A000C0F30F10704740F6FF72FF2B0CBF0020F5
:1016B0001046704700207047D34D6210022907D9A9
:1016C0004FF6FF73B0F80100984208BF0020704742
:1016D00000207047042907D94FF6FF73B0F80300C4
:1016E000984208BF0020704700207047012907D9A1
:1016F0004FF6FF730088984208BF4FF400607047B0
:101700000020704701290ED94FF6FF7300889842D8
:1017100009D047F27F53984238BF1846A0F5EA40F7
:101720007F3880B270474FF400607047032986BF4E
:10173000C078C0F381000020704700BF09B1007875
:1017400070470846704700BF012906D9437803F067
:101750000F03013BDBB2022B01D900207047024A84
:1017600032F81300704700BFD42E010819B1017878
:10177000C1F3810070470846704700BF032986BF48
:10178000C07800F003000020704700BF034600B59A
:1017900083B008465BBA02220DF10601ADF80630AF
:1017A00004F000FE03B000BD8446002310B50C46D3
:1017B00082B00DF1060002226146ADF8063004F059
:1017C000F1FDBDF80600012C98BFC0B240BA80B24E
:1017D00002B010BD002300B5012983B0ADF806307A
:1017E00002D8184603B000BD014602220DF10600E2
:1017F00004F0D8FD9DF8060003B000BD38B50D46D5
:1018000004460822FF21284604F0C8FDB4F5FB4F2A
:101810000ADAC4F5FA447F34640004F0FE03C4F32A
:1018200007242B706C7038BD002423466C702B701D
:1018300038BD00BF38B50D460822FF2104462846B2
:1018400004F0ACFDFA2204FB02F2044BA3FB0213EA
:10185000D21A03EB5203DB0A6B7038BD0101100092
:1018600038B50C4605460822FF21204604F096FDB7
:101870002B0A6570A37038BD38B50C4605460822A2
:10188000FF21204604F08AFD2B0AE570237138BD44
:1018900038B50C4605460822FF21204604F07EFD9F
:1018A0002B0A2570637038BD38B50C4608220546F2
:1018B000FF21204604F072FD48F6802247F27F5354
:1018C000954294BF5B199B189BB21A0A23706270F1
:1018D00038BD00BF38B50D4604460822FF21284612
:1018E0007D3404F05BFDAC7038BD00BF38B50D46EB
:1018F00004460822FF21284604F050FDEB78A4009E
:1019000023F00C0304F00C042343EB7038BD00BF3C
:1019100038B50C4605460822FF21204604F03EFD5E
:10192000257038BDFF2838B50D460FD9C3B2002B3E
:101930000CBF012403240822FF21284604F02EFDB9
:101940006B7823F00F031C436C7038BD031E18BF67
:1019500001235C00EFE700BF38B50D4604460822BE
:10196000FF21284604F01AFD2B78A40023F00C0375
:1019700004F00C0423432B7038BD00BF38B50C466F
:1019800005460822FF21204604F008FDE37805F013
:10199000030523F003032B43E37038BD38B50D4630
:1019A00004460822FF21284604F0F8FC012C0AD046
:1019B000022C05D0032C0CBFD723FF23AB7038BDFE
:1019C000C723AB7038BDC323AB7038BD38B50C46E8
:1019D00005460822FF21204604F0E0FCEBB2022B72
:1019E00012D0032B09D0042B0CBF51230023FF2D51
:1019F00088BF43F00403237038BD1123FF2D88BF37
:101A000043F00403237038BD0123FF2D88BF43F04A
:101A10000403237038BD00BF38B50C4605460822C4
:101A2000FF21204604F0BAFC15F0080F0CBF00217E
:101A3000FA2115F0100F0CBF0022FA2215F0200F2A
:101A40000CBF0023FA2315F0400F0CBF0020FA2032
:101A500015F0800FE0700CBF0020FA2015F0010F88
:101A600021700CBF0021FA2115F0020F62700CBF2B
:101A70000022FA2215F0040FA3700CBF0023FA23F2
:101A800020716171A271E37138BD00BF022906D9CE
:101A900080787D38C0B2812888BF00207047002040
:101AA000704700BF032906D9C0787D38C0B28128AD
:101AB00088BF002070470020704700BF02290FD95F
:101AC000837803F00C02042A01D001207047C3F38D
:101AD0000113012B06D0002B0CBF02200120704700
:101AE000002070470320704707292DD903784278DA
:101AF000A3F1FA03B3FA83F3FA2A4FEA5313827875
:101B00004FEAC30308BF43F01003FA2AC27808BFA4
:101B100043F02003FA2A027908BF43F04003FA2A6F
:101B2000427908BF43F08003FA2A827908BF43F064
:101B30000103FA2AC27908BF43F00203FA2A08BF58
:101B400043F0040318467047002070470078704740
:101B5000D9B103789A09012A0ED003F03002102A75
:101B600015D003F00302012A14BF0120022003F064
:101B70000C03042B06D0704703F00C03042B4FF02A
:101B80000400F8D140F47F407047084670470320B6
:101B9000EDE700BF00787047007870470078704725
:101BA0000078704708707047087070470870704779
:101BB0000870704708707047030A08704B707047D0
:101BC000012994BF00780088704700BF38B50D46E2
:101BD0000822FF210446284604F0E0FBFA2204FB19
:101BE00002F2044BA3FB0213D21A03EB5203DB0AEB
:101BF0006B7038BD01011000012911D94378FA2B0F
:101C000007D8084AC3EB0330A2FB0020C0F30F1033
:101C1000704740F6FF72FF2B0CBF00201046704744
:101C200000207047D34D6210034600B583B00846CC
:101C30005BBA02220DF10601ADF8063004F0B2FBEA
:101C400003B000BD034600B583B008465BBA02226C
:101C50000DF10601ADF8063004F0A4FB03B000BDA1
:101C6000034600B583B008465BBA02220DF10601B7
:101C7000ADF8063004F096FB03B000BD034600B596
:101C800083B008465BBA02220DF10601ADF80630BA
:101C900004F088FB03B000BD034600B583B00846DE
:101CA0005BBA02220DF10601ADF8063004F07AFBB2
:101CB00003B000BD034600B583B008465BBA0222FC
:101CC0000DF10601ADF8063004F06CFB03B000BD69
:101CD000034600B583B008465BBA02220DF1060147
:101CE000ADF8063004F05EFB03B000BD844600236F
:101CF00010B50C4682B00DF1060002226146ADF827
:101D0000063004F04FFBBDF80600012C98BFC0B2AE
:101D100040BA80B202B010BD8446002310B50C4614
:101D200082B00DF1060002226146ADF8063004F0E3
:101D300039FBBDF80600012C98BFC0B240BA80B292
:101D400002B010BD8446002310B50C4682B00DF1E0
:101D5000060002226146ADF8063004F023FBBDF810
:101D60000600012C98BFC0B240BA80B202B010BDCC
:101D70008446002310B50C4682B00DF10600022205
:101D80006146ADF8063004F00DFBBDF80600012CED
:101D900098BFC0B240BA80B202B010BD84460023E2
:101DA00010B50C4682B00DF1060002226146ADF876
:101DB000063004F0F7FABDF80600012C98BFC0B257
:101DC00040BA80B202B010BD8446002310B50C4664
:101DD00082B00DF1060002226146ADF8063004F033
:101DE000E1FABDF80600012C98BFC0B240BA80B23B
:101DF00002B010BD8446002310B50C4682B00DF130
:101E0000060002226146ADF8063004F0CBFABDF8B8
:101E10000600012C98BFC0B240BA80B202B010BD1B
:101E2000002300B5012983B0ADF8063002D818466A
:101E300003B000BD014602220DF1060004F0B2FA23
:101E4000BDF80600000A03B000BD00BF012918D983
:101E5000037803F00302012A17D003F00C02042ACE
:101E600015D003F03002102A0DD003F0C003402B30
:101E70000FD0437803F00303012B0CBF0620012091
:101E800070470020704705207047022070470320EC
:101E900070470420704700BF2DE9F04F3A4B83464E
:101EA000984283B007D8394B984260D94FF028093F
:101EB0004FF4487609E036494FF02509B1FBFBF1B4
:101EC000C9B2192940F2EE265BD90124304B013406
:101ED000A4B2B3FBF4F1B1FBFBF1C9B21929F6D8F6
:101EE000B4F5806F3FD201202A4BCDF804B01F68B3
:101EF00023186FF0004C4FF47A759B461FFA83FA53
:101F0000A1F1020EBEEB510F4FEA51031ADD01F1B0
:101F1000FF385FFA88F805FB03F2B2FBF1F2B21A60
:101F2000002AB8BF5242624509DA914507DB00201A
:101F30009446A8EB0302D2B2FB617C613A620133A2
:101F40007345E8DB124B1FFA8BF4B3FBFAF1019BEC
:101F5000B4F5806FB1FBF3F10AF1010AC9B203D005
:101F600004F1010BCCE7012003B0BDE8F08F084974
:101F70004FF02B09B1FBFBF1C9B2192940F26B36C6
:101F8000A3D80124AFE700BF00350C0020A1070053
:101F9000005A6202042903204FF0804102220123EB
:101FA0002DE9F041174C0025C4E91123164E174FB7
:101FB000DFF86080E16311E0D8F800202365937CAE
:101FC000003B18BF012312493868A36406F03AF9B0
:101FD00078B96B1C022B4FF0010511D056F8043B69
:101FE0002564E364002BE7D06FF060420123226593
:101FF000E9E7FFF7DDFA6B1C022B4FF00105EDD18D
:10200000BDE8F08100000320EC2F01080429032023
:102010003C0003207C00032038B50C46064D0749E0
:10202000074B0A602860074901201C600EF07CF90C
:10203000054B186038BD00BF04290320FC2803208D
:10204000002903201428032064280320F0B54D4EF6
:1020500083B0306806F0A0F9306806F009F800286F
:102060006FD10022484D402148482A71EA602A6118
:102070006A61AA61AA60EA6185F8202007F0C6F8C3
:10208000306806F089F90D2202233068C0E90D237B
:1020900005F0EEFF002871D100240222012340F256
:1020A000FF71C5E90B233A4FA9636C6202E001346A
:1020B0000D2C0ED037F8023B36493068AC626B63AA
:1020C00006F0C0F80028F2D00134FFF771FA0D2CA9
:1020D000F0D1FFF761FF0023022230681146009320
:1020E00006F0DCF8002846D1306806F0F9F8002840
:1020F0003ED100220121306806F0A0FAA8BB0022E0
:102100000621306806F09AFA60BB07224FF4F051BE
:10211000306806F093FA10BB07228021306806F081
:102120008DFAC8B900221C49306806F087FA80B9D8
:1021300000224FF46021306806F080FA20B903B025
:10214000F0BDFFF735FA8CE703B0BDE8F040FFF7CC
:102150002FBAFFF72DFAEBE7FFF72AFAE2E7FFF7CE
:1021600027FAD9E7FFF724FACFE7FFF721FAC6E706
:10217000FFF71EFABDE7FFF71BFAB5E7FFF718FAFE
:102180008AE700BF04290320000003200004024264
:10219000F42F01082400032000407100014B18684F
:1021A00006F0FAB804290320FFF7F6BE082824D861
:1021B000DFE800F0080C1014171A1D200500144861
:1021C000FFF76ABE42F21070FFF766BE44F6206069
:1021D000FFF762BE4CF25030FFF75EBE0D48FFF7CE
:1021E0005BBE0D48FFF758BE0C48FFF755BE0C48C4
:1021F000FFF752BE0B48FFF74FBE0B4AA0F51C532A
:10220000103B934201D901207047FFF745BE00BF44
:1022100040420F00A086010048E8010090D0030072
:1022200020A1070000350C00301B0F000346054AB3
:102230001978002051615978D16199781162DB7861
:1022400093617047B02603200246024B00209A613A
:10225000704700BFB0260320034600B5064A93F836
:1022600001E093F800C082F810E004499B7881F8FF
:1022700000C05374002000BDB0260320800203205C
:102280002DE9F047054682B0C0680F4604F07EF89D
:10229000AB68B3F1005F3ED00646824600F12409E8
:1022A000264C4FF0FF3120680EF0FCF80128F8D1E1
:1022B000DFF89480D8F800000EF014FB484517D2E0
:1022C00002251F4A13792B431371002320681A46F5
:1022D00019460DF08DFF1B4A022312681068002278
:1022E000114600920FF024FC284602B0BDE8F087AA
:1022F00029464FF0FF332422D8F800000EF014FBDB
:10230000054686B94D450CD00D4A0125137943F099
:1023100008031371D9E74FF0000A4FF0240956461D
:10232000BEE70025D1E7524639464FF0FF33D8F8D3
:1023300000000EF0F9FA0544E4E700BF642803202A
:1023400000000320002903200C2803202DE9F0477A
:1023500000250C4682B0C9070646019516D4A2078F
:1023600007D50221314A137943F001031371336811
:102370001965630738D4019B2BB14FF0E0234FF070
:102380008052C3F8042D02B0BDE8F087DFF8A890B2
:10239000DFF8988040214A46254B06F075F8D8F8BA
:1023A0001430D9F80C000133C8F8143003F0EEFFF4
:1023B000DFF888A00746DAF800000EF093FA07F17C
:1023C0002803984224D349462822DAF8000001ABBA
:1023D0000EF044FB002FC2D03A46DAF80000144950
:1023E00001AB0EF03BFBBAE70424104B11499A698C
:1023F000086801329A611A79002142F008021A71C4
:10240000336800680DEB04021C650FF0B1FCB2E705
:10241000D8F8183029460133C8F81830054B01AAFE
:102420001B6818680FF0A4FC99E700BF00000320A8
:10243000BC280320FC280320942803201028032014
:10244000002110B50A4A0B4C1268236982B010684B
:10245000013301AA236101910FF08AFC019B2BB18A
:102460004FF0E0234FF08052C3F8042D02B010BDAE
:102470000029032000000320002110B50A4A0B4C5C
:102480001268E36982B01068013301AAE361019127
:102490000FF06EFC019B2BB14FF0E0234FF0805208
:1024A000C3F8042D02B010BDFC2803200000032057
:1024B00038B50C46104D294606F080F8A10303D527
:1024C000EB68A3B90D4A1360620309D52B690B4A67
:1024D000012B13790CBF43F0040303F0FB031371CA
:1024E000230303D50122054B83F8202038BD4FF08C
:1024F0000042024B1A60E7E768280320000003202F
:10250000704700BF91B14FF0FF3210B4084C014446
:1025100010F8013B5340DBB254F82330884283EA81
:102520001222F5D1D0435DF8044B7047084670473E
:10253000103001082DE9F8430024154E0F46306095
:102540000846C6E90544C6E9014403F055FFE8B171
:10255000804612E08146054603F01EFF0346391906
:102560004A460C482C44F360A4B203F01BFF09490F
:102570000748FFF785FEA04508D9A8EB0400082806
:10258000C0B2E7D908252846A946E5E7BDE8F883A3
:10259000482903203C2903200022014B1A60704780
:1025A0006C29032038B5836804460D4643B1B3F166
:1025B000005F04D140F2727302689A4256D038BD6F
:1025C00040F256420368934242D040F2574293424F
:1025D00033D0304A93420FD0A368002BEFD122684A
:1025E000B2F58B6FEBD1E268002AE8D101212A4ACB
:1025F0002A481170036038BD2B78502BDFD16B78DF
:10260000342BDCD1AB78242BD9D1EB78242BD6D149
:102610002B79572BD3D16B79302BD0D1AB79522B6F
:10262000CDD1EB79442BCAD140F273701C49FFF72E
:1026300081FFA368002BD2D0C1E7082228461949A0
:1026400003F0BCFE00B3A368002BB8D12368C0E739
:102650004FF4EE601449FFF76DFFA2682368B2F1F2
:10266000005F0AD140F272729342A8D140F27270B8
:102670000E49FFF75FFFA2682368002A9FD140F24E
:1026800057429342A5D1D8E740F271700849FFF74D
:1026900051FFD8E7FECA77000E2903206C290320DA
:1026A000402C0108202C0108F02B0108082C0108FF
:1026B0002C2C01082DE9F843584B1B788BB1584F4F
:1026C000584A3B68584903FB02F2B1EB720F32D211
:1026D000564A574903FB02F2B1EBB20F03D2013362
:1026E0003B60BDE8F883002340F2F2600021514DC9
:1026F000514EC5E90001C5E90533DFF8448134884E
:10270000DFF84C91AB60002C79D1012003F044FE3E
:1027100088F80040E86041464648FFF7B1FD34883C
:102720000134A4B2982C4FEAD40234805CD9002240
:102730003B683280D3E700234FF4DE6000213F4E38
:102740003C4DB6F80080C5E90001C5E90533AB6032
:10275000B8F1000F5CD1022003F01EFE384CE86097
:1027600084F8018032883748531C9BB2812B28BFE4
:102770000023D143D2083380835C01F00702134168
:1027800003F001032E492B482370FFF779FD002049
:1027900040F2F16200232C4EC5E90023B6F8008018
:1027A000C5E90500A860B8F1000F2DD1012003F0A4
:1027B000F3FD84F80080E86032882448531C9BB203
:1027C000912B28BF0023D143D2083380835C01F0D2
:1027D000070213415B0703F0005319491548AB602A
:1027E000FFF74EFD3B6873E7E34319F8022003F05F
:1027F000070342FA03F3DB0785D43B686FE7002049
:1028000003F0CAFDE86086E703F0C6FDE860D3E7A1
:10281000012003F0C1FD0A4CE860A3E70E29032064
:102820006C290320CDCCCCCC99999919295C8FC205
:10283000285C8F0218290320082903200C29032073
:10284000102903205C2C01080A290320702C0108A0
:10285000842C01080022014B1A6070477429032060
:10286000034B1B689B7C03B9704700F093BE00BF0D
:102870007C00032010B5094C094A2368094903FB71
:1028800002F2B1EBB20F02D20133236010BD064851
:1028900001F0D4FD23680133236010BD74290320A7
:1028A000295C8FC2285C8F02982C0108024A1368A9
:1028B00001331360704700BF7029032000200EF021
:1028C000EBBC00BF00200EF0E7BC00BF704700BFAC
:1028D000124B1B681989F9B130B400245B68104AA7
:1028E00003EB4111D3E90050C2E900509D6898699B
:1028F0009561DD682033556153F8105C8B42C2E965
:10290000024553F80C5C02F1740242F8105C42F884
:10291000040CE7D130BC7047704700BF7C00032037
:10292000782903200000000038B50025124B08224A
:102930001B6812489C7C124B641B18BF0124644224
:10294000E4B221461D7010F013F89FED097B0B4B8C
:10295000214603F17400A3F12404082283ED117BC6
:1029600010F006F8C4E93755BDE83840FFF7B0BFAE
:1029700000000000000000007C0003209C290320D0
:102980007600032048B3F8B5144B1A68824223D06E
:10299000847C0121003C18BF0124114E6442E4B242
:1029A00037781860082231700E4821460FF0E0FF9A
:1029B000002300220C4D2146C5E91A2305F1980099
:1029C00008220FF0D5FF0023FFB2C5E93733FFF728
:1029D0007FFFFFF7E9FB3770F8BD70477C000320ED
:1029E000760003209C2903207829032000293CD06D
:1029F000F0B5744B83B01D68AF7C6FB906462C8A66
:102A000044B1EB6803EBC40C1C68B4420FD008332C
:102A10006345F9D103B0F0BDC0F30743EF2B4FEA94
:102A20001024C0F31126EAD8674E2640E7E71C7948
:102A3000E7B1B6F56F4F49D04FF6D4539E4266D0FA
:102A40004FF602739E4200F0AD800F2C10D12B6820
:102A50001046DB6F00929847009A137803F0030347
:102A6000032BD7D0594B1883D4E77047082C3BD0A1
:102A70002B68104603EBC4035B689847102CC9D839
:102A800001A353F824F000BF312B0008652B000888
:102A90006B2B0008712B0008772B00087D2B00089A
:102AA000832B0008892B00088F2B0008492B000876
:102AB000512B0008592B00085F2B00083D2B000804
:102AC000432B0008652A0008372B0008C0F30720B5
:102AD000132860D05A289DD12B6810465B6D98470B
:102AE0003A4AC3B2D37595E72B6810465B6C0091E8
:102AF000019298470099354CC0B20129207389D0C2
:102B0000019A1046FFF78CF984F8200082E7C3B2DF
:102B1000212B4ED05A2B7FF47DAF2B681046DB6CF7
:102B20009847C3B2032B3FF475AF284A937571E7FA
:102B3000264B58806EE7254BD8836BE7234B1882D2
:102B400068E7224B988365E7204BC0B2987561E730
:102B50001E4BC0B2D8755DE71C4B58835AE71B4B20
:102B6000588257E7194B188054E7184BD88051E723
:102B7000164B98804EE7154B98824BE7134B5881C4
:102B800048E7124B188145E7104BD88142E70F4BBD
:102B9000C0B218733EE72B681046DB6A98470B4BB0
:102BA000588137E71046FFF751F9084B83F82000AA
:102BB00030E72B6810465B6F9847044AC3B2938393
:102BC00028E700BF7C00032000FF0300540003201F
:102BD000324B1B78002B5FD12DE9F04FDFF8C4900A
:102BE00003F0FF05D9F8003083B01B89002B50D0CB
:102BF0002B4F06463C46DFF8B08008E0D9F800309D
:102C000001351A89ABB29A4204F1740441D9E36EDA
:102C1000626EF31A9342F1D3C5F1000AB4F9703031
:102C20000AF0740A0AF1240000EBE300002B384498
:102C300008DBB4F8683002225BBA01A9ADF80430B1
:102C400003F0B0FBB4F9723004F1240B002B4FEA0F
:102C5000E30112DB5846FFF755FC0422B4F9723049
:102C60000190002B0AF12400B8BF073300EBE3000A
:102C700038440DEB020103F095FBD8F800305946BB
:102C800023612046FFF7FCFAA36EE6660133A366D4
:102C9000B4E703B0BDE8F08F704700BF76000320B3
:102CA000782903207C0003200000032038B5044667
:102CB000084B094D1A60094B049A29601A6000F00C
:102CC0004DF8204603F09AF9204603F005FC002059
:102CD00038BD00BF642A0320682A0320602A03202D
:102CE00038B5054603F0AAF90446284603F000FC6F
:102CF0002043C0B238BD00BF70B5154B82B01B6811
:102D000004460D46164603F0CFF901280AD0114BB0
:102D10003246294620461B6803F014FC01280BD0DC
:102D200002B070BD00220C4B11461B6818680223CC
:102D300000920EF0FDFEEAE700220749022309682F
:102D40000868114600920EF0F3FE02B070BD00BF9D
:102D5000642A0320602A0320682A032000B583B078
:102D6000102001A900F09EF808B903B000BD0021B1
:102D7000102000F07FF8003818BF012003B000BD1C
:102D800000B583B0102001A900F08CF820B90146ED
:102D9000019820B903B000BD012003B000BD102090
:102DA00000F068F8003818BF012003B000BD00BF74
:102DB00070B5002682B004460D46102001A9019688
:102DC00000F070F810B9019BA34202D8012002B0B4
:102DD00070BD04F11100294680B200F063F8801B39
:102DE00018BF012002B070BD002210B5114B82B097
:102DF0001B78019213B9184602B010BD044601A910
:102E0000102000F04FF840B901981130FF2804D885
:102E1000214680B200F02EF818B10123184602B006
:102E200010BD01991020013100F024F8031E18BFD5
:102E30000123E0E777000320014608B5102000F0E9
:102E400031F8003818BF012008BD00BF10B505F0EB
:102E500047FD00200CF080F8044618B905F054FD39
:102E6000204610BD00200BF045FC05F04DFD20462E
:102E700010BD00BF38B504460D4605F031FD2046B3
:102E800029460CF011FBC305044603D405F03CFDB4
:102E9000204638BD0BF008FD0443A4B205F034FD14
:102EA000204638BD0BF062BE84462DE9F8430CF590
:102EB0000055104695F827210CF580540F461E4604
:102EC000B4F89210B4F8943072B3002940F08E80B8
:102ED000072B40F2A0803E2B40F2B9804FF0400813
:102EE000B3F5805F4246C1465FD21B0A43F0100330
:102EF0000370B4F894300CF584514370023A1C31DD
:102F0000023003F04FFA01220223A8F1020887F8E9
:102F10000090A4F89280A5F81C2184F8913001203B
:102F2000C4F89860BDE8F883B1B307224FF00808F1
:102F30005B1A1FFA83F9B5F81C31914503F00F03B2
:102F400043F0200300F8013BB4F8923003F58453BA
:102F500003F11C030CEB03014CD903F023FA87F8AF
:102F60000080B4F89230B5F81C21013B9844A4F8D5
:102F7000928095F822313BB1B2FBF3F103FB1123B0
:102F800013B9022384F891300132A5F81C210120E5
:102F9000C4F89860BDE8F883072B3CD94FF00808C7
:102FA000B3F5805F4246C1469FD310230360B4F857
:102FB00094300CF584511B0A0371B4F89430063A2E
:102FC00043711C31063003F0EDF901220223A8F110
:102FD000060887F80090A4F89280A5F81C2184F8D0
:102FE00091300120C4F89860BDE8F8833F224FF08B
:102FF00040089DE74A4603F0D5F9032309F1010291
:103000003A7084F89130B4F89230B5F81C219944A4
:10301000A4F89290B8E700F8013B0CF58451B4F89D
:1030200094201C3103F0BEF901210322B4F894303E
:103030000B443B70B4F894300120A4F89230A5F80A
:103040001C1184F89120C4F89860BDE8F8830170E1
:10305000B4F894300CF584514370B4F894201C31CA
:10306000023003F09FF9B4F89430012103220233B7
:10307000DFE700BF70B500240E4600F580530470F2
:10308000C0F8024004738460C3F89240C3F89840CB
:10309000A3F88E40A3F8904000F500530546214662
:1030A0004FF48452C3E94744C3F82861C3F824416C
:1030B0000D300FF05DFC4FF48452A8182146BDE896
:1030C00070401C300FF054BCF0B591B0169D044612
:1030D000856019B3964612788C46100903281DD8CE
:1030E000DFE800F0024C7A22003B18BF012304F510
:1030F000005282F82631237823B10621002382F87A
:10310000241123709EF80050BCF1080F05F00F0544
:1031100000F2D1800123002D40F0D680237B012BCB
:1031200000F0A78011B0F0BD04F5805797F891101A
:1031300002F00F0204F500564B1E012A86F82121E9
:10314000DBB200F00B81022A00F01181002A40F06E
:10315000FB80BCF1010F00F01E819EF80130BCF134
:10316000020F86F8223101D09EF80220022986F84B
:103170002321D3D1012387F89130CFE7003B18BF3B
:10318000012304F5005686F82631227822B1062262
:1031900086F8242100222270BCF1070FBED99EF8C8
:1031A00000209EF8010002F00F01014340F09C80D6
:1031B000DEF8022012BA072AB0D9B2F5845F40F2D5
:1031C000F0800222072086F81E2186F82401217053
:1031D00096F81F21322159E02378012B9ED104F566
:1031E0008057B7F88E1002F00F0201F00F039A42D9
:1031F00040F0A2806088A38897F890201B1A9BB2A9
:10320000002A00F0BE80551EAEB29E4280F0BC8007
:10321000944583D14A1C92B2EDB20D30A7F88E20AE
:103220000EF101012A46204403F0BCF86388A2880D
:103230002B449BB29A42638000F0B08004F50056A4
:1032400096F81F21002A3FF469AFB7F88E30013B92
:1032500093FBF2F102FB1133002B7FF45FAF96F882
:10326000263196F81E11003B18BF012341F03001B2
:103270000CE004F5005696F8263196F81E11003B36
:1032800018BF012396F81F2141F0300100208DF86E
:10329000012003228DF8001096F820112073D6F833
:1032A00028015B058DF8021083616946C260FEF754
:1032B000E7FF11B0F0BD002D7FF430AF9EF8015054
:1032C0000223002D3FF42AAFACEB03018D423FF700
:1032D00025AF0EEB03012A4604F10D0003F062F85E
:1032E00002236580237019E7120202F47062024320
:1032F000072A7FF613AF02210B46ACEB0303DDB2C6
:1033000004F58057A28071442A4687F890C004F1E2
:103310000D0003F047F8012300226580237086F832
:103320001E21A7F88E3096F826313021003B18BFB9
:10333000012396F81F21A9E70421002304F5005278
:1033400082F824112370E9E6012B3FF6E7AE05224F
:10335000032386F8252187F89130DFE6012B3FF61D
:10336000DDAE0223C7F8985087F89130D6E6012BDE
:103370003FF6D4AE0822032386F8252187F8913042
:10338000CCE6072B3FF6CAAE9C457FF6C7AE4A1C7B
:1033900092B2DDB241E786F82221E7E602232370EC
:1033A000BCE606210B46A8E70378012B01D00020DC
:1033B00070478268064B891A9942F8DD0321002381
:1033C00000F5005282F8241103700020704700BFFE
:1033D000400D03002DE9F04100F58055144695F8A5
:1033E000912092B0561E012E05D9032A0ED000203E
:1033F00012B0BDE8F081D5F89830394ECB1AB342FF
:103400000BD9022300F5005080F82531002301205C
:1034100085F8913012B0BDE8F081012AE7D100F5BE
:10342000005696F9237196F82321002F05DA0F3202
:10343000D2B2082A8CBF7F2201229A42D7D80B46EB
:1034400002AA0DF10701FFF72FFD9DF80780B8F1E3
:10345000080F38D9B8F10C0F37D9B8F1100F36D999
:10346000B8F1140F35D9B8F1180F34D9B8F1200FCD
:1034700033D9B8F1310F34BF0E270F27384602F089
:1034800085FF80450AD2A0EB0802013AD2B202AB16
:103490000021013203EB08000FF06AFAE76096F8AA
:1034A0002731003B18BF01235B05A36102E0012027
:1034B00002F0AEFF204602A9FEF7E2FE0028F6D198
:1034C00095F8912091E74746D8E70927D6E70A27DC
:1034D000D4E70B27D2E70C27D0E70D27CEE700BFB4
:1034E000400D030000F58052B2F89430B3F5845FCC
:1034F00014D892F891309BB900F5005300204FF09A
:10350000010CA2F89200A3F81C01C2F8981093F8DD
:10351000261183F8271182F891C070470120704767
:103520004FF0090C00F5005383F825C1E6E700BF12
:10353000830F032BC0F30D4020D0012B0ED0B3B965
:10354000B0F5B97F21D01F235FFA80FC000A012269
:1035500081F800C048708B70CA70704740F26353A6
:103560009842F0D102204FF0740C0D23EFE7912820
:10357000E9D10B204FF0380C0223E8E72928E2D1EB
:1035800002204FF07F0C0923E1E70B204FF0EF0CF6
:10359000DDE700BF2DE9F04F456893B0B5F1804FEE
:1035A00002D013B0BDE8F08F0668C068C6F30747C5
:1035B0000C4602F0EBFEEA2FC6F3072832D0EC2FC0
:1035C000EFD1B8F1210FECD10728EAD92378102BDD
:1035D000E7D1E3793002C549A27980B20143647929
:1035E00008201B0443EA0223234300224FF0FF3448
:1035F000099123FA00F18DF821308DF822101B0C6F
:103600000C9007A909A8CDE90D22CDE90F220A9552
:103610008DF823300B92119207948DF82040FEF71D
:103620002FFEBEE70228BCD9B8F1FF0F23D0B8F1B6
:10363000210FB6D1A378617822781B0443EA0123D5
:103640001343B3F56E4F40F0C480A94A33029BB2D6
:103650001A4300234FF080450824A64909A8CDE964
:103660000A53CDE90C43CDE90E33CDE9103309926D
:10367000FEF706FE95E7A378617822781B0443EAFB
:1036800001231343B3F56E4F00F02E814FF6C55260
:10369000934200F0CB804FF6CA62934281D14FF043
:1036A000000904A8CDF81090FFF7C6FB924B049ACE
:1036B000B3F81EA0012ACAF3400A4FEA8A1A4AF058
:1036C0003F0A5FFA8AF440F22981920002321FFA1F
:1036D00082FA8A4B0AF10601A3FB0103C91A03EB24
:1036E0005103C3F387074FF0804385490A9309913B
:1036F000082120230C91834907AA08910DF1240B7E
:103700004FEA1A218DF81E10584611468DF81C30CC
:103710001546CDE90D99CDE90F99CDF82C90CDF84E
:1037200044908DF81DA08DF81F70FEF7A9FD764B13
:103730000993002F3FF435AFCDE9027B4FF001082C
:10374000A3460DF123060822FF21284602F026FE9B
:10375000334656469A4608F1FF34C4EBC4048DF84C
:103760001C80A4B20195A6421ADDA3B243B3012B7B
:103770002DD0A7B2023F05A9B810CDF8149007F0DC
:103780000307FFF715FB059806A9FFF7D1FE0DEB20
:1037900007031B7E05F8013FAA4504F10104E2D1AD
:1037A0005346019D03982946B24608F101081E467A
:1037B000FEF766FD029B5FFA88F84345C3D2F0E648
:1037C00005F801BFAA4504F10104CED1E8E7FF23C3
:1037D000E0E74FF6C552934228D04FF6CA629342B3
:1037E0003FF45DAF08270022FF240A956FF0FE0525
:1037F00006FA07F0454980B20143099123FA07F11F
:103800008DF821308DF822101B0C07A909A8CDE9ED
:103810000B27CDE90D22CDE90F228DF8233011922F
:1038200007958DF82040FEF72BFDBAE6384802F0E8
:10383000E3FD00224FF080410824314DCDE90A120A
:10384000099505462021CDE90C42CDE90E22CDE9AE
:103850001022304A294B0892AA1D8DF81C10A3FB98
:103860000213D21A07A803EB520325FA04F10DF153
:10387000240BC3F387088DF81E10074601465846EF
:103880008DF81D508DF81F80FEF7FAFC1E4B099332
:10389000B8F1000F3FF485AE0124DFF874900DF10C
:1038A0002306A4EB090A0822FF21384602F076FD20
:1038B0003A46631EC3EBC3039BB2013B8DF81C4029
:1038C0004B440AEB03018D4205DD13F8011F02F89A
:1038D000011F9642F5D1013439465846E4B2FEF74D
:1038E000CFFCA045DFD25CE60B4AB2E62100EC1C1F
:1038F0002100EE18283401085400032025499224A1
:1039000021FFEC1CFFCAFE0021FFEB1C2100E81880
:1039100010340108FFC5FD0021FFEE1808224FF00A
:10392000804316490C92099107A908460D46FF21CC
:103930000A93CDE90D99CDE90F99CDF82C90CDF8EA
:10394000449002F02BFDFF22049B8DF81C40012BBC
:103950008DF81D2006D0CDF81E90294609A8FEF747
:103960008FFC1EE606A94846CDF81890FFF720FA0E
:1039700006980DF11E01FFF7DBFDEEE721CAFE18E8
:103980002DE9F043144602780646013A1D4685B0FB
:10399000092A11D8DFE812F01C0010000A00820189
:1039A000100010000A0010005E010A00012900F05A
:1039B00082817F22122101E07F22112103232270C4
:1039C0003278A17062702B80002005B0BDE8F083D2
:1039D0000229EED141232370437863709A2BE8D8F3
:1039E00001A252F823F000BF213E0008013E00086A
:1039F000B3390008B33900085D3E0008533E0008A3
:103A0000B3390008B3390008B3390008B3390008E6
:103A1000B3390008B33900083D3E00082D3E0008C8
:103A2000B3390008B3390008B3390008CB3D0008AA
:103A3000B3390008B3390008B3390008B3390008B6
:103A4000B3390008B3390008B3390008B3390008A6
:103A5000B3390008B3390008B3390008B339000896
:103A6000B3390008E13D0008D53D0008C13D00081C
:103A7000B3390008B3390008B3390008B339000876
:103A8000B3390008B3390008B3390008B339000866
:103A9000B3390008B3390008B3390008B339000856
:103AA000B3390008B3390008CB3D0008C13D000818
:103AB000B3390008B3390008B3390008B339000836
:103AC000B3390008B3390008B3390008B339000826
:103AD000B3390008B3390008B3390008B339000816
:103AE000B3390008B3390008C53E0008B93E0008E4
:103AF000AD3E0008B3390008B3390008B3390008F7
:103B0000A33E0008B3390008B3390008B3390008F0
:103B1000B3390008B3390008B3390008C13D0008C3
:103B2000C13D0008B3390008B3390008B3390008B3
:103B3000B3390008B3390008B3390008B3390008B5
:103B4000B3390008B3390008B3390008B3390008A5
:103B5000B3390008993E0008B3390008B3390008AA
:103B6000B3390008B33900088B3E0008B3390008A8
:103B7000B3390008B3390008B3390008B339000875
:103B8000B3390008B3390008B3390008B339000865
:103B9000B3390008B3390008B3390008B339000855
:103BA000B3390008B3390008B3390008B339000845
:103BB000B3390008B3390008B3390008B339000835
:103BC000B3390008B3390008B3390008B339000825
:103BD000B3390008B3390008B3390008B339000815
:103BE000B3390008B33900087D3E0008B339000836
:103BF000B3390008B3390008B3390008B3390008F5
:103C0000B3390008B3390008B3390008B3390008E4
:103C1000B3390008B3390008B3390008B3390008D4
:103C2000B3390008B3390008B3390008B3390008C4
:103C3000B3390008B3390008B3390008B3390008B4
:103C4000B3390008B3390008B3390008B3390008A4
:103C5000673E000802297FF4ACAE49232370437805
:103C600063700A2B3FF6A5AE01A252F823F000BF05
:103C70000F3D0008B33900082F3D0008B339000894
:103C80001D3D0008B3390008B13D0008B3390008F4
:103C9000B3390008B3390008933D000801297FF4C7
:103CA00088AE0191FFF76CF8019968BB3378403317
:103CB0002370298088E602A8FFF7BEF820BB029B8C
:103CC0005A1C52002A80327863704032DBB2227074
:103CD000002B3FF479AE074604F1020904F1030812
:103CE0000CE0039B1A0E09F817201B0C9DF8082006
:103CF00008F8173001379742BFF466AE384603A97B
:103D0000FFF756F80028ECD07F22102156E644F247
:103D100054020623C4F802202B8055E601236D4986
:103D2000A370E01C02F060FB13232B804CE61423ED
:103D30000120E61CA07031462B80FFF7B3F8E11D8F
:103D400005460220FFF7AEF8034604F10B010320FD
:103D50001D43FFF7A7F8034604F10F010420ADB29D
:103D60001D43FFF79FF8034604F113010520ADB290
:103D700045EA0304FFF796F8A4B244EA00039BB2B5
:103D8000002B3FF421AE11220021304602F006FB49
:103D90001AE60123E61CA37014220021304602F02B
:103DA000FDFA30464C4902F01FFB17232B800BE62F
:103DB000782207234949A271C4F802102B8003E638
:103DC000042200232A806380FEE5032200232A8048
:103DD000A370F9E50622424B2A80C4F80230F3E5CD
:103DE00004232B800DF08EFB3E4DA5FB00239B0B87
:103DF000A3700DF087FBA5FB00539B09E370E3E57F
:103E000003A8FFF719F8002862D1039A02F07F0295
:103E1000002306212980A270E37023716371D3E52A
:103E20000622314B2A80C4F80230CDE503222F4B05
:103E30002A809B8AC3F30723A370C5E504232B4A7A
:103E40002B809388C3F34A13A3709388DB00E3703D
:103E5000BAE5032274232A80A370B5E503224C231C
:103E60002A80A370B0E509204FF460620023204946
:103E70002880C4F80210E2802372A5E506224FF0E4
:103E800080432A80C4F802309EE506224FF08073FA
:103E90002A80C4F8023097E503226D232A80A3709C
:103EA00092E5032251232A80A3708DE504224BF66C
:103EB00035732A80638087E5062200232A80C4F8B0
:103EC000023081E506220B4B2A80C4F802307BE5E4
:103ED00000229DE7AC2C0108BC2C010801123456CD
:103EE00080018001D34D6210981880035400032094
:103EF00006003240A40C0021814204D900F1784030
:103F0000B0F5802F01D30020704701F178410139CD
:103F1000B1F5802F2CBF002001207047814208D9C5
:103F2000B0F1005F05D3044881428CBF002001201E
:103F300070470020704700BF00000420814211D963
:103F4000B0F1005F10D31A4B994219D9194B98421E
:103F500008D9194881428CBF002001207047B0F178
:103F6000006F15D200207047144B98420AD8144BAA
:103F70009842F4D9134881428CBF00200120704739
:103F800001207047104881428CBF002001207047FB
:103F90000E4B9942E6D80E4BB3F8E030B3F5007FF4
:103FA000EED00C4881428CBF00200120704700BF3A
:103FB000000004203F20024040210240FFFFF90B97
:103FC000FFFFF80B0080F90B0002FA0B0000080855
:103FD0000005FA0B0000040800B58BB001A804F03E
:103FE0007BFE0598AA3818BF01200BB000BD00BFAA
:103FF00000B58BB072B601A804F06EFE04214FF438
:104000000052079B019143F08063CDE9062304F041
:1040100067FC18B162B601200BB000BD04F080FC53
:104020000028F7D101A804F035FD10B904F09AFC7E
:10403000F0E704F089FC04F067FCEBE710B58AB008
:1040400004F04EFC044604F06BFC044301A804F0A9
:1040500043FE04214FF480729DF81E30E4B2C3F396
:10406000001383F001031B05CDE90623019134B150
:1040700004F06AFC04F048FC01200AB010BD01A85D
:1040800004F008FD0028F3D104F06CFC044604F0B1
:104090005BFC044304F038FCE4B22043C0B20038B7
:1040A00018BF01200AB010BD30B58BB004F018FC69
:1040B000044601A804F010FE002380220798022184
:1040C00010F4801FCDE9033200930CBF02230123BB
:1040D000019101A86946029304F094FE054604F09C
:1040E00013FC28432043C0B2003818BF01200BB096
:1040F00030BD00BF70B504F0F3FB05460F4C104E09
:10410000D4E90023B3F1FF3F08BFB2F1FF3F04F54C
:10411000802107D0012004F061FC002818BF45F081
:104120000105EDB20834B442EAD104F0EDFB2843B6
:10413000C0B2003818BF012070BD00BF00E0030806
:1041400000000408002330B58FB0009304F0C8FBD2
:104150000223044605A8019304F0BEFD0B9B042234
:1041600013F4801F4FF07C0014BF02230123694623
:1041700003900DEB02000492029304F043FE054607
:1041800004F0C2FB054344EA0500C0B2003818BF82
:1041900001200FB030BD00BF014608B5012004F07A
:1041A0001DFC003818BF012008BD00BF704700BFCC
:1041B000094A0A4B52880A491878B2F5407F0870BC
:1041C00006D9B2F5206F8CBF032202221A70704705
:1041D00001221A70704700BF702A03207800032064
:1041E0006C2A03200022014B1A707047762A0320A4
:1041F00070B505460120424B424C1B78424E991E39
:1042000081428CBF00210121A383FDF7DDF9218BC1
:10421000022089B2FF2994BF00210121FDF7D4F9C2
:10422000F369002B62D14FF47A71384B96F8202055
:10423000A3FB05039B0901FB1355B5F5FA7F34BFBA
:1042400000250125012A56D023889BB20F2B49D87F
:10425000218A89B2003918BF01210420FDF7B4F981
:10426000238BDBB2022B0BD0238BDBB2032B07D0CB
:10427000218BC9B2A1F10401B1FA81F1490900E031
:1042800001210820FDF7A0F9238BDBB2032B2BD0F3
:10429000218BC9B2A1F10401B1FA81F149091020C1
:1042A000FDF792F9218B2020C9B2A1F10401B1FAE6
:1042B00081F14909FDF788F9638B40209BB2FF2B00
:1042C00094BF002105F00101FDF77EF9638B80208A
:1042D000DBB2002B0CBF002105F00101BDE87040EE
:1042E000FDF772B90121B8E70121D8E701210220C9
:1042F000FDF76AF997E729460220FDF765F9A3E77C
:10430000780003205400032000000320D34D6210E6
:10431000024A034B10601960704700BF7C2A0320DB
:10432000782A0320002100B5084B83B01B6801AA3E
:10433000186801910DF01CFD019B2BB14FF0E0239B
:104340004FF08052C3F8042D03B000BD782A03203B
:1043500010B50446002204210B4804F057FF0B4B14
:1043600001222146186807F093FE30B1BDE81040E5
:1043700001220421044804F049BF4FF0FF3201211B
:104380000DF054FBF2E700BF000402427C2A032038
:10439000014B1860704700BF802A0320704700BFA0
:1043A00000B5044B83B0186801A907F0B1FC01986F
:1043B00003B000BD802A0320024608B5044B01204B
:1043C00004491A600BF0B0FF034B186008BD00BF32
:1043D000D82A0320882A0320842A0320F8B5074618
:1043E0000E46144C4FF0FF3120680CF05BF80128AA
:1043F000F8D1114D39462B68324618684FF4FA63EC
:104400000CF092FA024600232068144619461A4618
:104410000BF0EEFEA64203D109E00A200BF076FD78
:104420002B6818680CF024FA0128F6D1F8BD00209A
:10443000F8BD00BF842A0320D82A032010B5044603
:1044400001F0DAFF01462046BDE81040FFF7C6BF85
:104450000D4B02781B68403201291A700FD900B544
:10446000A1F1020E10FA8EFE024610F801CF72453D
:1044700003F801CFF8D1054B1B68198000BD034B31
:104480001B681980704700BF142B0320102B0320DA
:1044900030B54378044685B013B98378442B0FD0E8
:1044A0007F204FF0310C03213C4B3D4A1B681268C2
:1044B0001870207883F802C05870118005B030BDA4
:1044C0000B2903D07F204FF0130CECE7354B197804
:1044D000022903D04FF07F0C7F20E4E71B7F022BE3
:1044E00011D1314D6B7B13F0FB030FD07F202425BE
:1044F00003212A4B2A4A1B681268187020789D7085
:1045000058701180DAE74FF0330CE5E7D0F803007C
:10451000AB6001232B73D4F8073000BA1BBAC11863
:104520006B6001922860FFF7E7FC1C4B19681C4B7D
:10453000D3F800C040B36B68019A13F0070F0AD09C
:104540007F2370200B70032394F800E0887081F8BB
:1045500001E0ACF8003023786A734FF20F04202595
:1045600040338DF80C3003AA4B1EC81C8DF80D503B
:10457000ADF80E4012F8011B03F8011F8342F9D178
:104580000423ACF8003099E77F22312003230A701E
:10459000227888704A70ACF800308FE7142B032023
:1045A000102B0320F02A03201C2B032003780F2B51
:1045B00040F283802DE9F047A3F1100204468846BB
:1045C0008EB0772A7FD8DFE812F0F101E0017E009B
:1045D0007E00CF017E007E007E007E00B5017E0061
:1045E0007E007E007E007E007E007E007E006002F7
:1045F000020236027E007E007401A8019B01430284
:104600007E008E017E00260219027E0050027E008E
:104610007E0060014F013601250118017E007E00F9
:104620007E007E000101F0007E00DF007E007E0043
:104630007E007E007E007E007E007E007E007E008A
:104640007E007E007E007E007E007E007E007E007A
:104650007E007E007E007E007E007E007E007E006A
:104660007E007E007E007E007E007E007E007E005A
:104670007E007E007E007E007E007E007E007E004A
:104680007E007E007E007E007E007E007E007E003A
:104690007E007E007E007E007E007E007E007E002A
:1046A0007E007E007E007E007E007E007E007E001A
:1046B000D200C500B400A7008D00A74BA74A1B6815
:1046C0001268FFF75DB97F2011250321A34BA24A91
:1046D0001B681268187020789D70587011800EB099
:1046E000BDE8F087B8F1010F40F28385427802F00F
:1046F0007F03012B00F09D85032B00F088857F2030
:1047000012250321954B944A1B6812681870207873
:104710009D7058701180E2E77F20112503218F4B97
:104720008D4A1B681268187020789D70587011802F
:10473000D5E7B8F1020F00F058847F20132503213C
:10474000864B854A1B681268187020789D705870D7
:104750001180C4E77F2012250321804B7E4A1B680D
:104760001268187020789D7058701180B7E77F200C
:1047700011250321794B784A1B681268187020783C
:104780009D7058701180AAE7744BB8F1040F1B6834
:1047900000F006847F20132503216F4A18702078CB
:1047A00012689D705870118099E7B8F1020F00F0FF
:1047B00007847F2013250321684B674A1B68126812
:1047C000187020789D705870118088E7B8F1010F3B
:1047D00040F2B183437803F00F02042A00F097857A
:1047E0007F20122503215D4B5B4A1B6812681870FD
:1047F00020789D705870118071E77F20112503216A
:10480000564B554A1B681268187020789D70587076
:10481000118064E7514B504AB8F1010F1B681668CC
:1048200000F09D847F211320032219702178987055
:104830005970328053E7B8F1010F40F25283484E6D
:10484000737B012B00F02F85444A4349022B1268E9
:10485000086800F0F2857F21242503231170217858
:104860009570517003803AE7B8F1020F00F21E8193
:104870007F2013250321394B374A1B6812681870B3
:1048800020789D705870118029E7364BB3F8E030DE
:10489000B3F5007F00F0F5847F20112503212F4B15
:1048A0002D4A1B681268187020789D70587011800E
:1048B00015E7B8F1010F40F22283467806F07F0633
:1048C000012E00F04985022E00F034857F2012254C
:1048D0000321224B204A1B681268187020789D70B3
:1048E00058701180FBE67F20112503211B4B1A4ACB
:1048F0001B681268187020789D7058701180EEE661
:104900007F2011250321154B134A1B68126818706C
:1049100020789D7058701180E1E67F2011250321D9
:104920000E4B0D4A1B681268187020789D705870E5
:104930001180D4E6094EB8F1020F336800F2BE8050
:104940007F2013250321044A1870207812689D7077
:1049500058701180C3E600BF102B0320142B0320D6
:104960001C2B03200005FA0BB8F1040F00F0F182B4
:104970007F20132503219D4B9D4A1B6812681870E8
:1049800020789D7058701180A9E6984B984AB8F12C
:10499000020F1B68166800F0EE827F2113200322AD
:1049A0001970217898705970328098E6B8F1020F2A
:1049B00000F0F6837F20132503218C4B8C4A1B6863
:1049C0001268187020789D705870118087E6B8F1D1
:1049D000010F40F2A282437803F00F02042A00F094
:1049E00083847F2012250321804B814A1B68126833
:1049F000187020789D705870118070E67F20112506
:104A000003217A4B7A4A1B681268187020789D70CF
:104A10005870118063E6B8F1020F76D87F20132515
:104A20000321724B724A1B681268187020789D70BF
:104A30005870118053E67F20112503216B4B6C4A7F
:104A40001B681268187020789D705870118046E6B7
:104A50007F2011250321654B654A1B681268187079
:104A600020789D705870118039E6B8F1030F5DD839
:104A70007F20132503215D4B5D4A1B681268187067
:104A800020789D705870118029E6B8F1030F00F06E
:104A9000C3827F2013250321544B554A1B6812689B
:104AA000187020789D705870118018E602224146D7
:104AB00020460EB0BDE8F047FFF7EABC59220421BA
:104AC0001A70427899705A70427802F07F02012A77
:104AD00000F06B84022A00F060847F2512270320F7
:104AE000434A1D70257811689F705D70088094F9A5
:104AF0000130002BBFF6F3AD33681B787F2B3FF4FA
:104B0000EEAD002113681980E9E53A4B1E78022EBC
:104B100000F063847F220320344B35491B68096809
:104B20001A7024789A705C700880D8E590F901209A
:104B30004378002ABCBF03F07F0343704388B8BFAB
:104B400001265BBA9BB2A8BF0026B3F5097F00F32C
:104B5000BE85B3F5007F2ADBA3F50073242B26D88E
:104B6000DFE813F0AC016C018D0114017E015C01E2
:104B7000C300B20034012901F600EE002500250033
:104B800025002500A0008B0025002500250025001C
:104B900025002500250025002500250025002500ED
:104BA0002500250084007D0062004A003D007F2032
:104BB000312103220D4B1B681870207899700C4925
:104BC00058700B681A80002E3FF489AD074A1268AE
:104BD00012787F2A3FF483AD00221A807FE5B8F176
:104BE000050F01F009807F201321E2E7142B032039
:104BF000102B0320F02A0320B8F1040FF3D1FDF7A6
:104C000025FA0A200BF082F9A94B1A68A94B1B68F8
:104C100021784031117061785170A1789170E178FC
:104C2000D170A3F80080CEE7B8F1070FDBD10430D4
:104C3000FDF712FBFDF70AFA0A200BF067F90420D2
:104C40009B4B21781A689B4B40311B68117061782F
:104C50005170A1789170E178D1701880B3E7B8F104
:104C6000050FC0D10079FDF7EFFAE3E7B8F1070FC0
:104C7000B9D10430FDF7DAFADCE7B8F1040FB2D1AC
:104C80008D4B1A78022A01F0F3807F227F200321C6
:104C9000874B1B68187020789A70864A5870136882
:104CA000198090E7B8F1040F9DD1834B1A78022A3E
:104CB000EBD11B7F022B41F03A804378012B01F0AE
:104CC00040817F20122174E7794A7A4BB8F1040FB2
:104CD00012681B6800F06A877F2113201170217809
:104CE000907051704FF003089BE7B8F10B0F7FF6FF
:104CF0007AAF456887682DBA3FBA28467919FFF719
:104D00001DF900283FF453AF39462846FDF7FAFB5A
:104D100001460827664B25781A684035157060787B
:104D2000644B5070A0781B689070E078D171D0709F
:104D3000080E1071080CF940507191711F8042E704
:104D40005D4B1B7F022B00F03D877F20332130E736
:104D5000594B1B7F022BF8D141F27A02A8F10503CF
:104D60009BB2934241F257807F2713250320504B7B
:104D7000504A1B6811681F7024789D705C70088011
:104D800013681A88002A3FF4AAAC1CE7484B71202C
:104D90001968A8F102030A46087014FA83F3214641
:104DA00014F8010F8B4202F8010FF8D1414B1B6838
:104DB000A3F8008007E7404B1B7F022BC5D1BFF350
:104DC0004F8FBFF36F8F431D984738E7B8F1080F37
:104DD0007FF409AF4378012B7FF473AFC379042BC1
:104DE0007FF4E5AE807922796379000240EA0260BF
:104DF00040EA034040F00400FDF7F6FF002800F011
:104E00000A867F2072250321294A2A4B12681B68D3
:104E100010702078957050701980D4E6244A254B84
:104E2000B8F1060F11681B6800F09F867F221320DF
:104E30000A70227888704A700322C3E6FFF782F96D
:104E40001B4B1A681B4B1B68002800F09E867F21B5
:104E50007220117021784FF0030890705170E0E6D5
:104E600071200421124B1A68124B107060781B6875
:104E70005070A0789070E078D0701980A3E6FFF7AA
:104E800039F90B4B1A680B4B1B680028DFD1214600
:104E9000207840301070A8F1020014FA80F00C461F
:104EA00011F8017FA04202F8017FF8D1B9E600BFF6
:104EB000142B0320102B0320F02A0320AF4AB04B01
:104EC000B8F1040F12681B687FF406AF417801291E
:104ED00001F00080022940F0D9870020A94908701C
:104EE00096E67F2013250321A44BA54A1B68126870
:104EF000187020789D7058701180FFF7F0BB7F20EC
:104F0000132503219D4B9E4A1B6812681870207858
:104F10009D7058701180FFF7E2BB7F20132503219D
:104F2000964B974A1B681268187020789D705870CD
:104F30001180FFF7D4BB7F20132503218F4B904AAC
:104F40001B681268187020789D7058701180FFF7E8
:104F5000C6BB4378FF2B00F0A1827F2031250321BF
:104F6000864B874A1B681268187020789D705870AD
:104F70001180FFF7B4BB844A1278012A00F0B8828E
:104F8000427802F07F02012A00F0E9837F2112209B
:104F9000032219702178987059703280FFF79FBBF7
:104FA0004278772A00F0AD827F2012250321744ACF
:104FB0001870207812689D7058701180FFF78FBBB1
:104FC0004378002B00F0C682802B3FF488AB7F2013
:104FD00012250321694B6A4A1B68126818702078F1
:104FE0009D7058701180FFF77ABB427802F07F0302
:104FF000012B00F06E82022B00F056837F201225D9
:1050000003215E4B5E4A1B681268187020789D7001
:1050100058701180FFF763BB0022B0F80110CDE992
:10502000012248BA80B2A0F50076B6F5007FCDE93E
:1050300003220092C0F07A824FF29012904212D86E
:105040004FF28312904240F20B83A0F571408438F6
:105050000C2808D8DFE800F072076C630707070721
:105060005A07070715007F2031250321434B444A87
:105070001B681268187020789D7058701180FFF7B7
:105080002EBB69460120FDF70DFF01A90546022050
:10509000FDF708FF034602A903201D43FDF702FFA9
:1050A000034603A90420ADB21D43FDF7FBFE0346F2
:1050B00004A90520ADB21D43FDF7F4FEADB20543D2
:1050C000ADB2112269460DF1170001F06BF9002D08
:1050D000C9D114212378294A65781068A278403311
:1050E0004C1E8DF814308DF816208DF8155005AA39
:1050F000431E10FA84F412F8010B03F8010FA342C7
:10510000F9D11F4B1B681980FFF7E9BA1F490C2220
:105110000DF1170001F046F90F212378DBE71C4958
:1051200004220DF1170001F03DF907212378D2E7A1
:10513000154A042112788DF81720CCE70C22154966
:105140000DF1170001F02EF920231349092209A8B7
:105150008DF8233001F026F919212378BBE70F4A97
:10516000517B032900F0AA827F2124200322197099
:105170002178987059703280FFF7B1BA142B032050
:10518000102B032076000320F02A03209005FA0B51
:10519000202D0108082D0108142D01081C2B0320C7
:1051A000437803F07F03022B00F04582032B00F0CD
:1051B0002E82012B40F06A820022AE49AE48C1E93E
:1051C00003220B70AD4B02605A734A610A778A6101
:1051D00094F901306278002BFFF681AA5020A84B89
:1051E000A8491B6809685A701870A1F80080FFF779
:1051F00076BA7F2013250321A14BA24A1B681268AF
:10520000187020789D7058701180FFF768BA9A4D19
:105210002968002940F01F817F202225984A99495A
:105220001268096810702078957050700B80FFF735
:1052300056BAB8F1020F00F084828378103B032B3A
:1052400000F2B786DFE803F01917021B8E4B8A4A7B
:10525000136094F90130002BFFF641AA0221884A1D
:10526000237812684033874D137060782B68507034
:105270001980FFF734BA854BE9E7854BE7E7854BA3
:10528000E5E7B8F1020F00F2B1817F201325032179
:105290007B4B7C4A1B681268187020789D70587090
:1052A0001180FFF71CBAA8F1020111F007051FFADF
:1052B00081F840F0B480B36872684344934200F2CE
:1052C000AE80327B4378934200F0CA847F207325FE
:1052D00003216B4B6B4A1B681268187020789D7015
:1052E00058701180FFF7FBB903F0F002402A40F23A
:1052F00065817F2012250321614B624A1B68126879
:10530000187020789D7058701180FFF7E8B903F08D
:10531000F002402A40F22A817F2012250321584BB7
:10532000584A1B681268187020789D705870118058
:10533000FFF7D5B9B8F1060F00F069827F20132579
:1053400003214F4B4F4A1B681268187020789D70DC
:1053500058701180FFF7C3B940F26713ADF81430ED
:10536000FFF71EF84C4A434B4240C3E903021E7745
:1053700094F9013000BA002BCDF81600FFF6AFA962
:1053800006213F4B05981B683E4A1860BDF818007F
:10539000126898801180FFF7A2B9B8F1030F00F0EE
:1053A00056827F251327FFF79ABBB8F1030FF8D178
:1053B000002205A8DA70FDF73FFD324A336817680E
:1053C000002800F0B9837F2119707221207899702C
:1053D0005870A7F80080FFF78ABB4FF28412B0F82C
:1053E000013058BA80B220F00801914200F00181EA
:1053F00049F2F102934200F05982B8F1070F00F030
:105400007C847F20132503211D4B1E4A1B681268D4
:10541000187020789D7058701180FFF760B97F2058
:1054200071250321164B174A1B68126818702078E3
:105430009D7058701180FFF752B9B8F1020F00F05B
:105440009E817F2171250323117021789570517001
:105450000380FFF744B9130600F16081C7200221E1
:10546000074B084A1B6812681870607858701180E2
:10547000FFF735B9F02A0320182B03201C2B03203B
:10548000142B0320102B032020A1070090D0030031
:1054900048E8010040420F00785634128378FF2B11
:1054A0007FF45BADC378FF2B7FF457ADFDF768FC4D
:1054B000002800F0CC847F2072250321B74BB84A26
:1054C0001B681268187020789D7058701180FFF763
:1054D00006B911063FF503A9C521B04BB04A1B68B8
:1054E0001268197041785970A2F80080FFF7F7B878
:1054F0007F2203211A7000789A7058703180FFF76C
:10550000EEB8A84A1278012A00F076818278132A30
:1055100000F023827F2031250321A14A18702078D2
:1055200012689D7058701180FFF7D9B86946FDF771
:10553000B9FC002800F03E817F213120974B984A2A
:105540001B6812681970217898705970A2F8008051
:10555000FFF7C5B87E21914B914A1B6812681970FC
:1055600041785970A2F80080FFF7B9B81B095A1D9D
:10557000424580F2C580002B00F0C6830027591EEB
:105580000530C90010F8012F8A4008393A4311F15B
:10559000080F97B2F6D19E1DF319984500F0798255
:1055A0007F20132503217D4B7D4A1B6812681870EC
:1055B00020789D7058701180FFF791B8794A127861
:1055C000012A00F037811B099A1D904500F02A82BC
:1055D0007F2013250321714B714A1B6812681870D4
:1055E00020789D7058701180FFF779B80122FFF77D
:1055F0005EBA7F2031250321684B694A1B68126817
:10560000187020789D7058701180FFF768B8664A4E
:10561000928A92B2B2F5805FC0F082817F208825A5
:105620005E4A5F4912680968107020789570507062
:105630000B80FFF754B85C4B9B8A9BB2B3F5805F3D
:10564000C0F09D817F2022250321544B544A1B68C2
:105650001268187020789D7058701180FFF73FB85D
:10566000B1F5007F00F0B38144F27723994200F056
:10567000A481B1F5807F7FF4F6AC13224B490DF184
:10568000170000F08FFE1621237824E57F201225D5
:105690000321424B424A1B681268187020789D70A3
:1056A00058701180FFF71BB812063FF518A8414645
:1056B00020460EB0BDE8F047FEF7CABE0421517384
:1056C000027840321A70A6F80080FFF708B8B3F5E8
:1056D0007F4F00F08A814FF6017293427FF467AAF0
:1056E000B8F1040F7FF47FAA4378012B7FF4E9AA75
:1056F0002C4B1A78022A00F018847E22FFF7C6BAD3
:105700007F2013250321254B254A1B68126818703A
:1057100020789D7058701180FEF7E1BF0123244C62
:1057200026782370FCF73AFD4FF47A700AF0EEFB0E
:10573000F6B22868FCF73AFDFCF788FC2670FEF705
:10574000CEBF7F2013250321144B154A1B68126816
:10575000187020789D7058701180FEF7C0BF5122DC
:105760001A7042785A70A6F8008090F90130002B28
:10577000BEF6B5AF0EB0BDE8F04702F005BA317B1A
:1057800063788B4200F0B3817F217325032311706E
:105790002178957051700380FEF7A1BF142B032070
:1057A000102B0320F02A032054000320C82C0108EA
:1057B0007600032060782378A478403304228DF8A3
:1057C000150069460DF117008DF814308DF816405C
:1057D00000F0E8FDB84B0DF113021868431E0630C7
:1057E00012F8011F03F8011F9842F9D10722B34BA9
:1057F0001B681A80FEF773BF7F220320AF491A701F
:10580000247809689A705C700880FEF768BFAC4B1A
:105810009A69042A40F229817F2036250321A64B6C
:10582000A64A1B681268187020789D705870118005
:10583000FEF755BF7F2203209F4BA0491B680968D4
:105840001A7024789A705C700880FEF748BF0022B6
:1058500005A8DA70FDF7F0FA8146002840F03A8199
:10586000059B002B00F0248305466F4614E09DF84D
:105870000320336803F80820BDF8022003F8252030
:10588000009A4344120A9A70009ADA70059B08F154
:105890000408AB4240F2588128463946FDF788FAA1
:1058A00001350028E3D04FF00109EFE7B8F1140FFC
:1058B0007FF4A7ADD4F803100120FDF7DBFAD4F88C
:1058C000071005463046FDF7D5FA0346D4F80B100D
:1058D00003201D43FDF7CEFA0346D4F80F10042031
:1058E000ADB21D43FDF7C6FA0346E17C0520ADB21B
:1058F0001D43FDF7BFFAADB245EA00039BB26E4A05
:105900006E4912680968002B00F0D9827F20722549
:10591000032310702078957050700B80FEF7DFBE67
:10592000002267496748C1E903220B70664B427346
:105930001A604A610A778A6194F90130607893426B
:10594000FEF6CDAE50215C4B5C4A1B681268587065
:105950001970A2F80080FEF7C2BEC278372A7FF421
:10596000D9AD18468023142200F8013B574900F0B6
:1059700019FD1522514B1B681A80FEF7B0BE00239B
:105980004F4A5148C2E903334E4903604B73536198
:105990001377936194F901306078002B82F80080CE
:1059A000FEF69DAE5021444B444A1B681268587065
:1059B0001970A2F80080FEF792BE454915220DF13C
:1059C000170000F0EFFC18212378FFF784BB3C4B55
:1059D0001B7F022B00F0628242F23F23332223809E
:1059E00041462378A270FFF776BBB8F1040F7FF42D
:1059F000FAA84378012B7FF464A9314B1A78022A64
:105A00007FF47BAE1B7F022B40F09181FEF74CFBB5
:105A100000287FF4F6A904212046FEF719FD274A45
:105A2000FFF7AEB9002B00F0FC800025013B411DC3
:105A3000DB0011F8012F9A40083B13F1080F45EAEB
:105A40000205F6D140F6FE739D4240F2EB807F20C6
:105A500031250321184B194A1B68126818702078E9
:105A60009D7058701180FEF73ABE58685969411A06
:105A7000092900F24B817F20372503210E4B0F4A65
:105A80001B681268187020789D7058701180FEF79E
:105A900026BE0B4B1A78022A00F0A2817F227F25B6
:105AA0000320054B05491B6809681D7024789A700E
:105AB0005C700880FEF713BE142B0320102B03200C
:105AC000F02A03201C2B0320182B03203C2D010857
:105AD000F02C01087F22722033681A702178BA4AAC
