:020000040800F2
:100000000000042065600008E15E0008E55E00086D
:10001000E95E0008ED5E0008F15E0008B5600008CA
:100020000000000000000000000000006101010865
:10003000F55E000800000000F10001088DD90008FD
:10004000B5600008B5600008B5600008B56000083C
:10005000B5600008B5600008B5600008B56000082C
:10006000B5600008B5600008B5600008B56000081C
:10007000B5600008B5600008B5600008B56000080C
:10008000B5600008B5600008B5600008B5600008FC
:10009000B5600008B5600008B5600008B5600008EC
:1000A000B5600008B5600008B5600008B5600008DC
:1000B000B5600008F95E0008055F0008B56000083B
:1000C000B5600008B5600008B5600008B5600008BC
:1000D000B5600008B5600008B5600008115F000851
:1000E0001D5F0008B5600008295F0008B5600008C2
:1000F000B5600008B5600008B5600008B56000088C
:10010000B5600008355F0008415F0008B560000871
:10011000B5600008B5600008B5600008B56000086B
:10012000B56000084D5F0008595F0008B560000821
:10013000655F0008B5600008B5600008B56000089C
:10014000B5600008B5600008715F0008B560000880
:10015000B5600008B5600008B5600008B56000082B
:10016000B56000087D5F0008B5600008B560000854
:10017000B560000800000000B56000080000000045
:10018000895F0008B5600008B5600008B560000828
:10019000B5600008B5600008B5600008B5600008EB
:1001A000B5600008B5600008B5600008B5600008DB
:1001B000B560000800000000955F0008B560000809
:1001C000B560000800000000B5600008B5600008D8
:1001D000B5600008B5600008B5600008B5600008AB
:1001E000B5600008B5600008B5600008B56000089B
:0401F000000000000B
:1002000010B5054C237833B9044B13B10448AFF350
:1002100000800123237010BD600203200000000055
:10022000B806010808B5034B1BB103490348AFF3F7
:10023000008008BD0000000064020320B806010829
:10024000034613F8012B002AFBD1181A0138704716
:10025000704700BF01F02ABEF0B5274C274E9BB077
:100260004FF0FF332822694620680EF003FA282851
:10027000F6D1039805F082F90546002834D1029B97
:100280009BB929460AAA009801F09EFE0EF0F8FEDE
:100290000AA90246684602F01BF80EF0F1FE0AA910
:1002A0000246684601F0E8FDDAE7B3F1005FF4D1F9
:1002B00040F20172009B9342EFD10822039900277C
:1002C000914228BF11460D46C6E90577B760019FE8
:1002D0000B490C48C6E90037F56005F05BF930467C
:1002E000084901F069FCD8E74FF0FF332A4620683F
:1002F0000AA90EF0BFF9C2E7B42703209002032039
:100300009005FA0B840203202DE9F0431F4D9BB0AA
:10031000DFF8808001AE0AAF002404EBC401C4F111
:1003200024024FF0FF33286806EB81010EF0A2F99A
:100330000444232CF1D9049805F020F9039B81464D
:10034000B3F1005F00D0A0B9114807F04DF950B1EA
:100350003A4631460E4807F011F8D8F80C30013310
:10036000C8F80C30D8E74FF0FF3201210FF01CF92C
:10037000EAE70024A9EB040239194FF0FF3328689B
:100380000EF078F904444C45F4D3DDE7B0270320A0
:10039000582603200000032000B583B001F0C0FD03
:1003A00001F0B0FA03221849184806F07DFA03F06C
:1003B000F5F900F005FE03F04DFA0EF061FE01F0D4
:1003C00055FD13480AF0E0FD12480AF0A5FD124C55
:1003D0000EF056FE019003F0E7F9019803F040FAA1
:1003E000019800F0EFFD237813B9019801F0DEFECB
:1003F000019801F04BFD019801F05EFF0A2101A870
:100400000EF07EFDE4E700BF202A032048270320EA
:1004100090230320F8220320760003202DE9F041E9
:100420000026214DDFF88C80204FA6B012E00FF09F
:1004300001FD98F8003033B10B9B23B164200DF01F
:100440005DFB01F05FFA0022022311463868009636
:100450000FF02CF94FF0FF32012100200FF0A4F82B
:100460000FF0DAFC124807F015FA044606A9104806
:1004700007F080F802A90E4807F0A4F85422294694
:1004800011A8AC6010F0C0F8094B1E66189BB3F5BC
:10049000003FCCD9AB689B02C9D5012385F8203039
:1004A0000B9301F0D7FAC2E700000320181B0320CA
:1004B000582603208002032000232DE9F04D84B04C
:1004C0007D4EDFF80082DFF804B27C4DDFF800A239
:1004D0000DF10E078DF80B3013E028680DF0D4FFF6
:1004E000012808D94FF0FF330222286803A90EF033
:1004F000C1F8022845D000214FF0FF3208460FF026
:1005000053F830680DF0C0FF0028E6D04FF0FF33FD
:10051000012230680DF10B010EF0ACF80128DCD19E
:1005200030680DF0B1FF0128D7D94FF0FF33022218
:10053000306803A90EF09EF80228CED1BDF80C2039
:10054000B2F5845FC9D8002A40F0A5809DF80B4021
:10055000002C52D10EF094FD594B5A49BDF80C2095
:10056000009704F089FFBDF80E30002B79D10EF012
:1005700087FD534B5349BDF80C20009704F0CCFF86
:10058000ABE7BDF80C20B2F5805FB4D272B10024A5
:10059000121B08EB04014FF0FF3328680EF06AF8D5
:1005A000BDF80C20204484B2A242F1D10EF068FDC7
:1005B000434B4146BDF80C20009705F0D9F8BDF833
:1005C0000E30002B97D039464FF0FF330222DAF875
:1005D00000000DF067FFBDF80E204FF0FF333849E3
:1005E000DAF800000DF05EFF002202231146DBF86E
:1005F000000000920FF05AF87DE70EF041FD304BFD
:100600003049BDF80C20009704F05EFFBDF80E30B5
:10061000002BACD02A490A787F2A08D1022BA6D910
:100620008B78A3F11102012AA1D9312B9FD0264842
:10063000394604464FF0FF33022200680DF032FFC6
:10064000BDF80E204FF0FF331D4920680DF02AFF42
:10065000002202231146DBF8000000920FF026F87A
:1006600085E7194839464FF0FF33022200680DF044
:1006700019FF1548BDF80E204FF0FF3310490068F0
:100680000DF010FF022322462146DBF80000009403
:100690000FF00CF86BE70024121B4FF0FF3308EB50
:1006A000040130680DF0E6FFBDF80C2023189CB261
:1006B000A242F1D14AE700BFC4020320B8020320DE
:1006C000507F0120D48F0120C0020320580803204E
:1006D000B40203202DE9F04FDFF8148185B0404EBD
:1006E000404DDFF810A108F19C0908F5805B02AFCE
:1006F00014E028680DF0C8FE012809D94FF0FF3337
:10070000022228680DF106010DF0B4FF022846D040
:1007100000214FF0FF3208460EF046FF30680DF022
:10072000B3FE0128E5D94FF0FF3302222E4930688D
:100730000DF0A0FF0228DCD1B8F89420B2F5845F58
:10074000D7D872B10024121B09EB04014FF0FF331C
:1007500030680DF08FFFB8F89420204484B2A24294
:10076000F1D10EF08DFC0146204802F0A7F90028D7
:10077000BFD103E09BF823010DF0C0F90EF080FC1F
:1007800004F080FD0128B4D030680DF07DFE012812
:10079000AFD89AF80030002BECD10A20ECE7BDF876
:1007A0000620082AB4D86AB10024121B39194FF068
:1007B000FF3328680DF05EFFBDF80620204484B2A8
:1007C000A242F2D10EF05CFC3946BDF8062004F0DE
:1007D00067FF01289CD00A200DF090F9F2E700BFD6
:1007E000C0020320B4020320ECB0012058A0012075
:1007F00058B001207600032001F05CBB01F05EBB25
:10080000002001F05FBB00BF0022024B02481A60CB
:100810000AF0BABB7C02032044230320014B186872
:10082000704700BF7C02032010B59EB04822002113
:100830000CA80FF05DFE00234FF40070CDE90233E9
:10084000CDE90433CDE90733CDE9093301930693AC
:100850000B9308F077FF08B172B6FEE7012302227E
:10086000169311931993179210231D9207229FED4F
:100870001E7BCDE91A320324042312900CA81C938A
:100880008DED0C7B189409F099F9034608B172B606
:10089000FEE70F22214601A8CDE903330593029418
:1008A000019209F037F8034608B172B6FEE7104A24
:1008B0004FF0005C916D4BF67F3441F08071916593
:1008C000926D069302F080720092089322222023F8
:1008D00006A8CDE90A230099CDF81CC009940AF0B6
:1008E000CDF81EB010BD00BF2900000000000100BF
:1008F00000100240F0B595B072B64FF00062AA4BFE
:100900009A60BFF34F8F62B6002405F0D5FBFFF766
:100910008BFFCDE90E44CDE91044A44D1294EB6C4D
:100920004FF4604143F00403EB64EB6C224603F0A8
:1009300004030793079BEB6C9D4843F08003EB6433
:10094000EB6C012603F080030893089BEB6C43F0EB
:100950000103EB64EB6C03F001030993099BEB6C5F
:1009600043F00203EB64EB6C03F002030A930A9B6F
:1009700007F028FC224640F201118E4807F022FCC5
:10098000224641F2E4018C4807F01CFC4FF460431E
:1009900087480EA9CDE90E361094119407F064FA39
:1009A00040F2011383480EA9CDE90E36CDE910447B
:1009B00007F05AFA41F2E4037F480EA9CDE90E365A
:1009C000CDE9104407F050FA4FF4007379480EA9AE
:1009D000CDE90E34109607F047FA082377480EA9A0
:1009E000CDE90E34109407F03FFAAB6C052143F0CB
:1009F0000403AB64AB6C224603F004030493049B32
:100A0000AB6C1D203343AB64AB6C33400593059B4B
:100A1000AB6C43F00203AB64AB6C03F002030693D0
:100A2000069B06F033F81D2006F06AF822460521E1
:100A30001E2006F02BF81E2006F062F82246052143
:100A4000502006F023F8502006F05AF8204607F010
:100A500037FF08B172B6FEE707F046FF034640B91C
:100A60005748584AC0E900230AF030F818B172B666
:100A7000FEE772B6FEE7544A544B1070544A4FF4E6
:100A800040711A60102299609A619A620F211322B4
:100A90003C2404275860D8609874D8631846C3E98A
:100AA0000D661E825E615E62DC61D9621A621F633E
:100AB00006F0BAFA034650BB0BAD0B90CDE90E0021
:100AC000CDE91000CDE91200C5E901004FF48070B6
:100AD0004FF4301C03214FF480523E4CC4E90233E2
:100AE000C4E90A3384F8203084F838303A4B208344
:100AF0002046C4E90467C4F804C0E161626384F875
:100B00003060236005F0FCFA18B172B6FEE772B6E9
:100B1000FEE70B902946204605F040FF08B172B66B
:100B2000FEE706230F937F2311932C4B1090139015
:100B30000EA9204612970E9305F010FC08B172B66C
:100B4000FEE7274B20460E930C230EA90F9305F0CA
:100B500005FC08B172B6FEE7224B20460E93122325
:100B60000EA90F9305F0FAFB034608B172B6FEE733
:100B70001D48C0E9053383801C4B0662036005F005
:100B8000F1FF08B172B6FEE700234FF402710222B2
:100B90001748C372174B8180C0F80720036007F025
:100BA000ADFE48B372B6FEE700ED00E00010024073
:100BB000000802420000024200040242001C0242FD
:100BC0005C25032000080C428002032058260320E5
:100BD00000A4004048270320008002424000201962
:100BE0000002B0250004002ABC2603200030024089
:100BF000D01F032000D4004041F63F76A34CA44A06
:100C0000CDE90E00C4E901001090A06120462260E9
:100C1000E6600AF0A9FB034608B172B6FEE720467B
:100C20000EA90E9310930AF0D1FB034608B172B6D9
:100C3000FEE7984CCDE90E331093A360A36142F216
:100C40000F73954A2046C4E90023E6600AF08CFB46
:100C5000034608B172B6FEE720460EA90E93109324
:100C60000AF0B4FB034608B172B6FEE74F264FF612
:100C7000FF748A488A4AC0E9043383608361026052
:100C80004660C4600AF070FB034608B172B6FEE726
:100C90008448C0E90163C0E90343C0E90533824BDE
:100CA00003600AF061FB08B172B6FEE74FF08041C5
:100CB0004FF0FF327D4C0B90CDE90E00CDE91000D6
:100CC000C5E90100C4E901002061A061204621605E
:100CD000E2600AF049FB08B172B6FEE74FF48053B8
:100CE00020460EA90E930AF08DF9034608B172B69C
:100CF000FEE7294620460B930D930AF067FB08B1E7
:100D000072B6FEE700246A4A01216A4B009246F25D
:100D100006002246CDE901440DF05EFB0246664D19
:100D2000664E00950121CDE90144654B326046F2E3
:100D3000060022460DF050FB624B634A01210092EF
:100D4000CDE9014422461860604B4FF47A600DF003
:100D500043FB5F4D5F4B224600930121CDE90144E7
:100D60005D4B28604FF47A600DF036FB5B4B2246FA
:100D700000935B4B0121CDE901441860594B4FF4BE
:100D8000A0400DF029FB584B22460093574B012100
:100D9000CDE901441860564B4FF4A0400DF01CFB08
:100DA000544B186001F03EFB0EF06AF93246524B8C
:100DB0005249009501F066FA514802F083FD51480E
:100DC00001F03AF85048514A514900F081FD0EA80F
:100DD0000E9401F01DFB20B90E9B13B94D4801F094
:100DE000EFFA0CF0E1FD00214B4A4C480CF02CFED0
:100DF00004464B4B00214B4A4B481C600CF024FE30
:100E000004464A4B00214A4A4A481C600CF01CFE2A
:100E100004463F4B0021484A48481C600CF014FE31
:100E20000446474B0021474A47481C600CF00CFE23
:100E30000446364B0021454A45481C600CF004FE30
:100E400004462E4B0021434A43481C600CF0FCFD35
:100E50000446424B0021424A42481C600CF0F4FD1B
:100E60000446414B0021414A41481C600CF0ECFD16
:100E70000446404B0021404A40481C600CF0E4FD11
:100E80003F4B18600CF0B2FDFEE700BF4423032087
:100E9000001400409023032000100040F82203209B
:100EA00000440140AC22032000480140DC23032021
:100EB0007C030320481F012058030320C4020320A1
:100EC00040BF0020C002032034030320A0AF002055
:100ED000B80203201003032000A00020EC0203202E
:100EE000B402032000500020C8020320B4270320CE
:100EF00000000020B0270320BC020320080D0320BF
:100F00005C250320BC26032058260320B8110320AB
:100F1000181B0320040063450C0901085502000852
:100F2000CC1F0320E808010859020008C81F03204D
:100F3000C408010809030008A00801089903000873
:100F4000681603207C0801081D04000858080108E1
:100F5000B904000834080108D50600085808032021
:100F600010080108F9070008A8030320EC0701088E
:100F7000FD070008A4030320C807010801080008B2
:100F8000A0030320094A0368934206D0084A93420B
:100F90000AD0084A934205D07047074A13680133C4
:100FA0001360704700F07ABF05F098B80014004055
:100FB000002C0140001000407C02032072B6FEE7C6
:100FC000704700BF70B50E4D0E4C2B6820891B6812
:100FD0000D491B6B80B298472B68208A0A4E1B680C
:100FE00006F174019B6E80B298472B68208B1B68BA
:100FF00006F1E8019B6F80B2BDE87040184700BF62
:101000007C00032054000320D82803200870704778
:1010100000787047030A08704B707047012994BF2D
:1010200000780088704700BF012908D94FF6FE23D9
:1010300002889A4203D8981AC0F34F0070470020E4
:10104000704700BF012911D94378FA2B07D8084A05
:10105000C3EB0330A2FB0020C0F30F10704740F633
:10106000FF72FF2B0CBF0020104670470020704716
:10107000D34D6210022907D94FF6FF73B0F8010073
:10108000984208BF0020704700207047042907D904
:101090004FF6FF73B0F80300984208BF0020704776
:1010A00000207047012907D94FF6FF730088984246
:1010B00008BF4FF4006070470020704701290ED927
:1010C0004FF6FF730088984209D047F27F53984249
:1010D00038BF1846A0F5EA407F3880B270474FF419
:1010E00000607047032986BFC078C0F381000020EC
:1010F000704700BF09B1007870470846704700BFCD
:10110000012906D9437803F00F03013BDBB2022B20
:1011100001D900207047024A32F81300704700BF1F
:101120003009010819B10178C1F381007047084600
:10113000704700BF032986BFC07800F0030000207D
:10114000704700BF034600B583B008465BBA022271
:101150000DF10601ADF8063004F01CFA03B000BD35
:101160008446002310B50C4682B00DF10600022221
:101170006146ADF8063004F00DFABDF80600012C0A
:1011800098BFC0B240BA80B202B010BD002300B513
:10119000012983B0ADF8063002D8184603B000BD6F
:1011A000014602220DF1060004F0F4F99DF8060054
:1011B00003B000BD38B50D4604460822FF2128467D
:1011C00004F0E4F9B4F5FB4F0ADAC4F5FA447F34CD
:1011D000640004F0FE03C4F307242B706C7038BD68
:1011E000002423466C702B7038BD00BF38B50D4607
:1011F0000822FF210446284604F0C8F9FA2204FB1D
:1012000002F2044BA3FB0213D21A03EB5203DB0AD4
:101210006B7038BD0101100038B50C460546082238
:10122000FF21204604F0B2F92B0A6570A37038BD87
:1012300038B50C4605460822FF21204604F0A6F9E1
:101240002B0AE570237138BD38B50C4605460822D7
:10125000FF21204604F09AF92B0A2570637038BDEF
:1012600038B50C4608220546FF21204604F08EF9C9
:1012700048F6802247F27F53954294BF5B199B1832
:101280009BB21A0A2370627038BD00BF38B50D4694
:1012900004460822FF2128467D3404F077F9AC701B
:1012A00038BD00BF38B50D4604460822FF21284648
:1012B00004F06CF9EB78A40023F00C0304F00C04A8
:1012C0002343EB7038BD00BF38B50C4605460822F5
:1012D000FF21204604F05AF9257038BDFF2838B5A3
:1012E0000D460FD9C3B2002B0CBF012403240822E2
:1012F000FF21284604F04AF96B7823F00F031C43C2
:101300006C7038BD031E18BF01235C00EFE700BFFF
:1013100038B50D4604460822FF21284604F036F968
:101320002B78A40023F00C0304F00C0423432B704F
:1013300038BD00BF38B50C4605460822FF212046BF
:1013400004F024F9E37805F0030523F003032B43AD
:10135000E37038BD38B50D4604460822FF21284603
:1013600004F014F9012C0AD0022C05D0032C0CBF78
:10137000D723FF23AB7038BDC723AB7038BDC32361
:10138000AB7038BD38B50C4605460822FF21204613
:1013900004F0FCF8EBB2022B12D0032B09D0042B83
:1013A0000CBF51230023FF2D88BF43F0040323709B
:1013B00038BD1123FF2D88BF43F00403237038BDCF
:1013C0000123FF2D88BF43F00403237038BD00BF05
:1013D00038B50C4605460822FF21204604F0D6F811
:1013E00015F0080F0CBF0021FA2115F0100F0CBFEB
:1013F0000022FA2215F0200F0CBF0023FA2315F06B
:10140000400F0CBF0020FA2015F0800FE0700CBFD9
:101410000020FA2015F0010F21700CBF0021FA21E5
:1014200015F0020F62700CBF0022FA2215F0040FB3
:10143000A3700CBF0023FA2320716171A271E371C4
:1014400038BD00BF022906D980787D38C0B2812816
:1014500088BF002070470020704700BF032906D9CD
:10146000C0787D38C0B2812888BF00207047002036
:10147000704700BF02290FD9837803F00C02042AB9
:1014800001D001207047C3F30113012B06D0002BBC
:101490000CBF0220012070470020704703207047D6
:1014A00007292DD903784278A3F1FA03B3FA83F31D
:1014B000FA2A4FEA531382784FEAC30308BF43F076
:1014C0001003FA2AC27808BF43F02003FA2A0279EF
:1014D00008BF43F04003FA2A427908BF43F0800373
:1014E000FA2A827908BF43F00103FA2AC27908BFB9
:1014F00043F00203FA2A08BF43F00403184670477A
:101500000020704700787047D9B103789A09012A02
:101510000ED003F03002102A15D003F00302012A86
:1015200014BF0120022003F00C03042B06D07047E7
:1015300003F00C03042B4FF00400F8D140F47F407B
:101540007047084670470320EDE700BF00787047FA
:1015500000787047007870470078704708707047CF
:1015600008707047087070470870704708707047BF
:10157000030A08704B707047012994BF00780088F7
:10158000704700BF38B50D460822FF2104462846A3
:1015900003F0FCFFFA2204FB02F2044BA3FB02134C
:1015A000D21A03EB5203DB0A6B7038BD0101100045
:1015B000012911D94378FA2B07D8084AC3EB033025
:1015C000A2FB0020C0F30F10704740F6FF72FF2B04
:1015D0000CBF00201046704700207047D34D6210AA
:1015E000034600B583B008465BBA02220DF106013E
:1015F000ADF8063003F0CEFF03B000BD034600B5E2
:1016000083B008465BBA02220DF10601ADF8063040
:1016100003F0C0FF03B000BD034600B583B0084629
:101620005BBA02220DF10601ADF8063003F0B2FFFD
:1016300003B000BD034600B583B008465BBA022282
:101640000DF10601ADF8063003F0A4FF03B000BDB4
:10165000034600B583B008465BBA02220DF10601CD
:10166000ADF8063003F096FF03B000BD034600B5A9
:1016700083B008465BBA02220DF10601ADF80630D0
:1016800003F088FF03B000BD034600B583B00846F1
:101690005BBA02220DF10601ADF8063003F07AFFC5
:1016A00003B000BD8446002310B50C4682B00DF196
:1016B000060002226146ADF8063003F06BFFBDF86C
:1016C0000600012C98BFC0B240BA80B202B010BD73
:1016D0008446002310B50C4682B00DF106000222AC
:1016E0006146ADF8063003F055FFBDF80600012C49
:1016F00098BFC0B240BA80B202B010BD8446002389
:1017000010B50C4682B00DF1060002226146ADF81C
:10171000063003F03FFFBDF80600012C98BFC0B2B1
:1017200040BA80B202B010BD8446002310B50C460A
:1017300082B00DF1060002226146ADF8063003F0DA
:1017400029FFBDF80600012C98BFC0B240BA80B294
:1017500002B010BD8446002310B50C4682B00DF1D6
:10176000060002226146ADF8063003F013FFBDF813
:101770000600012C98BFC0B240BA80B202B010BDC2
:101780008446002310B50C4682B00DF106000222FB
:101790006146ADF8063003F0FDFEBDF80600012CF1
:1017A00098BFC0B240BA80B202B010BD84460023D8
:1017B00010B50C4682B00DF1060002226146ADF86C
:1017C000063003F0E7FEBDF80600012C98BFC0B25A
:1017D00040BA80B202B010BD002300B5012983B029
:1017E000ADF8063002D8184603B000BD014602220B
:1017F0000DF1060003F0CEFEBDF80600000A03B0AE
:1018000000BD00BF012918D9037803F00302012AA3
:1018100017D003F00C02042A15D003F03002102A6E
:101820000DD003F0C003402B0FD0437803F0030327
:10183000012B0CBF062001207047002070470520B7
:10184000704702207047032070470420704700BF94
:101850004FF08041022201232DE9F041174C002571
:10186000C4E91123164E174FDFF86080E16311E0E1
:10187000D8F800202365937C003B18BF0123124950
:101880003868A36405F0BAFC78B96B1C022B4FF0E2
:10189000010511D056F8043B2564E364002BE7D022
:1018A0006FF0604201232265E9E7FFF787FB6B1CBD
:1018B000022B4FF00105EDD1BDE8F08100000320BF
:1018C000480A0108A82803203C0003207C000320CC
:1018D00038B50C46064D0749074B0A602860074992
:1018E00001201C600CF018FB054B186038BD00BFD0
:1018F000A8280320A0280320A4280320B827032019
:1019000008280320F0B54D4E83B0306805F020FD67
:10191000306805F089FB00286FD10022484D402136
:1019200048482A71EA602A616A61AA61AA60EA618C
:1019300085F8202006F046FC306805F009FD0822F5
:1019400002233068C0E90D2305F06EFB002871D139
:1019500000240222012340F2FF71C5E90B233A4F14
:10196000A9636C6202E00134082C0ED037F8023F04
:1019700036493068AC626B6305F040FC0028F2D059
:101980000134FFF71BFB082CF0D1FFF761FF0023A8
:10199000022230681146009305F05CFC002846D115
:1019A000306805F079FC00283ED100220121306822
:1019B00005F020FEA8BB00220621306805F01AFEC3
:1019C00060BB07224FF4F051306805F013FE10BBE6
:1019D00007228021306805F00DFEC8B900221C499D
:1019E000306805F007FE80B900224FF460213068AE
:1019F00005F000FE20B903B0F0BDFFF7DFFA8CE779
:101A000003B0BDE8F040FFF7D9BAFFF7D7FAEBE72C
:101A1000FFF7D4FAE2E7FFF7D1FAD9E7FFF7CEFAFA
:101A2000CFE7FFF7CBFAC6E7FFF7C8FABDE7FFF746
:101A3000C5FAB5E7FFF7C2FA8AE700BFA828032076
:101A400000000320000402424E0A01082400032083
:101A500000407100014B186805F07ABCA8280320EB
:101A6000FFF7F6BE384A394B904210B41B685BD082
:101A700015D9374A904248D037D8364A90422FD0AD
:101A8000354A1024801A4FF001014FF03F0218BF71
:101A90000120C3E9072459615DF8044B70474CF2FB
:101AA000503290423BD028D842F2107290420DD072
:101AB00044F62062904241D11921142213240020BF
:101AC000C3E9072459615DF8044B704732211324A0
:101AD00014220020C3E9072459615DF8044B7047C4
:101AE0000221142213240020EAE71C4A012190421B
:101AF000EDD03F2210240846E2E7194A90421DD15A
:101B00000521142213240020DAE70C2201211446B7
:101B10000020C3E9072459615DF8044B70470A218E
:101B2000142213240020CBE71324042114220020C4
:101B3000C3E9072459615DF8044B704701213F2236
:101B400010240846BCE700BF48E80100A82803208D
:101B500000350C0090D0030020A1070040420F0088
:101B6000A08601000346054A197800205161597882
:101B7000D16199781162DB78936170475826032010
:101B80000246024B00209A61704700BF582603208E
:101B9000034600B5064A93F801E093F800C082F8C6
:101BA00010E004499B7881F800C05374002000BD08
:101BB00058260320800203202DE9F047054682B015
:101BC000C0680F4603F0DAFCAB68B3F1005F3ED0AB
:101BD0000646824600F12409264C4FF0FF3120686A
:101BE0000CF058FA0128F8D1DFF89480D8F80000FA
:101BF0000CF036FC484517D202251F4A13792B43B7
:101C00001371002320681A4619460CF0E9F81B4AA4
:101C10000223126810680022114600920DF046FD62
:101C2000284602B0BDE8F08729464FF0FF33242252
:101C3000D8F800000CF036FC054686B94D450CD0AE
:101C40000D4A0125137943F008031371D9E74FF0CA
:101C5000000A4FF024095646BEE70025D1E7524658
:101C600039464FF0FF33D8F800000CF01BFC054458
:101C7000E4E700BF0828032000000320A428032075
:101C8000B02703202DE9F04700250C4682B0C90794
:101C90000646019516D4A20707D50221314A1379C9
:101CA00043F00103137133681965630738D4019B4E
:101CB0002BB14FF0E0234FF08052C3F8042D02B057
:101CC000BDE8F087DFF8A890DFF8988040214A4609
:101CD000254B05F0B5FBD8F81430D9F80C000133CA
:101CE000C8F8143003F04AFCDFF888A00746DAF899
:101CF00000000CF0B5FB07F12803984224D34946B5
:101D00002822DAF8000001AB0CF066FC002FC2D0EC
:101D10003A46DAF80000144901AB0CF05DFCBAE772
:101D20000424104B11499A69086801329A611A79A2
:101D3000002142F008021A71336800680DEB0402BA
:101D40001C650DF0D3FDB2E7D8F8183029460133F1
:101D5000C8F81830054B01AA1B6818680DF0C6FDBD
:101D600099E700BF0000032060280320A02803207B
:101D700038280320B4270320002110B50A4A0B4C51
:101D80001268236982B01068013301AA23610191AE
:101D90000DF0ACFD019B2BB14FF0E0234FF08052D2
:101DA000C3F8042D02B010BDA428032000000320B6
:101DB000002110B50A4A0B4C1268E36982B0106822
:101DC000013301AAE36101910DF090FD019B2BB15C
:101DD0004FF0E0234FF08052C3F8042D02B010BD45
:101DE000A02803200000032038B50C46104D2946DA
:101DF00005F0C0FBA10303D5EB68A3B90D4A13603E
:101E0000620309D52B690B4A012B13790CBF43F0F0
:101E1000040303F0FB031371230303D50122054BD5
:101E200083F8202038BD4FF00042024B1A60E7E7EC
:101E30000C28032000000320704700BF91B14FF031
:101E4000FF3210B4084C014410F8013B5340DBB2A0
:101E500054F82330884283EA1222F5D1D0435DF84A
:101E6000044B704708467047600A01080022014B86
:101E70001A607047B0280320034B1B689B7C03B992
:101E8000704700F073BE00BF7C000320024A136855
:101E900001331360704700BFB0280320024A136863
:101EA00001331360704700BFAC28032000200CF002
:101EB000B1BF00BF00200CF0ADBF00BF00200CF090
:101EC000A9BF00BF00200CF0A5BF00BF124B1B68CC
:101ED0001989F9B130B400245B68104A03EB411151
:101EE000D3E90050C2E900509D6898699561DD68AA
:101EF0002033556153F8105C8B42C2E9024553F818
:101F00000C5C02F1740242F8105C42F8040CE7D158
:101F100030BC7047704700BF7C000320B42803200A
:101F200070B500250D4B0E4A1B6815709C7C0D4B3F
:101F3000641B18BF0124644203F5AE76E4B2184670
:101F4000082221460EF0D4FA03467433B342C0E9A6
:101F50001155F4D1BDE87040FFF7B8BF7C000320F5
:101F600076000320D828032038B3144B1A68824225
:101F700023D02DE9F041847C0122003C18BF0124CC
:101F800000250F4E186037780E4B644203F5AE788B
:101F9000FFB23270E4B21846082221460EF0A8FAC9
:101FA000034674334345C0E91155F4D1FFF78EFF62
:101FB000FFF756FD3770BDE8F08170477C000320C5
:101FC00076000320D828032000293CD0F0B5744BBC
:101FD00083B01D68AF7C6FB906462C8A44B1EB68AC
:101FE00003EBC40C1C68B4420FD008336345F9D12D
:101FF00003B0F0BDC0F30743EF2B4FEA1024C0F34A
:102000001126EAD8674E2640E7E71C79E7B1B6F516
:102010006F4F49D04FF6D4539E4266D04FF60273AD
:102020009E4200F0AD800F2C10D12B681046DB6F64
:1020300000929847009A137803F00303032BD7D03C
:10204000594B1883D4E77047082C3BD02B681046B7
:1020500003EBC4035B689847102CC9D801A353F85D
:1020600024F000BF0D21000841210008472100088D
:102070004D21000853210008592100085F21000864
:10208000652100086B210008252100082D2100088A
:10209000352100083B210008192100081F210008F4
:1020A0004120000813210008C0F30720132860D046
:1020B0005A289DD12B6810465B6D98473A4AC3B2A7
:1020C000D37595E72B6810465B6C00910192984799
:1020D0000099354CC0B20129207389D0019A10466D
:1020E000FFF77AFB84F8200082E7C3B2212B4ED0A1
:1020F0005A2B7FF47DAF2B681046DB6C9847C3B238
:10210000032B3FF475AF284A937571E7264B58802F
:102110006EE7254BD8836BE7234B188268E7224B89
:10212000988365E7204BC0B2987561E71E4BC0B23B
:10213000D8755DE71C4B58835AE71B4B588257E70D
:10214000194B188054E7184BD88051E7164B9880EC
:102150004EE7154B98824BE7134B588148E7124BDB
:10216000188145E7104BD88142E70F4BC0B2187376
:102170003EE72B681046DB6A98470B4B588137E7E0
:102180001046FFF73FFB084B83F8200030E72B6831
:1021900010465B6F9847044AC3B2938328E700BF99
:1021A0007C00032000FF030054000320314B1B7808
:1021B000002B5DD12DE9F04FDFF8C4A003F0FF053F
:1021C000DAF8003083B01B89002B4ED02A4F064628
:1021D0003C464FF0740908E0DAF8003001351A89FE
:1021E000ABB29A4204F174043FD9E36E626EF31A03
:1021F0009342F1D3B4F9703009FB05FB002B0DDBE2
:10220000B4F868200BF1240052BA00EBE300ADF8FB
:1022100004203844022201A903F0BCF9B4F9721079
:1022200004F1240800294FEAE10112DB4046FFF7E0
:1022300005FEB4F972200190002AB8BF07320BF1F5
:10224000240000EBE200042238440DEB020103F00D
:10225000A1F90A4B41461A6820462261FFF7ACFCFF
:10226000A36EE6660133A366B6E703B0BDE8F08F60
:10227000704700BF76000320B4280320000003202D
:102280007C00032038B50446084B094D1A60094B01
:10229000049A29601A6000F04DF8204602F0A6FF6B
:1022A000204603F0DDF9002038BD00BF142A0320CA
:1022B000182A0320102A032038B5054602F0B6FF7D
:1022C0000446284603F0D8F92043C0B238BD00BF09
:1022D00070B5154B82B01B6804460D46164602F0D9
:1022E000DBFF01280AD0114B3246294620461B68E5
:1022F00003F0ECF901280BD002B070BD00220C4BAA
:1023000011461B681868022300920DF0CFF9EAE726
:1023100000220749022309680868114600920DF05F
:10232000C5F902B070BD00BF142A0320102A032093
:10233000182A032000B583B0102001A900F09EF8F0
:1023400008B903B000BD0021102000F07FF800386C
:1023500018BF012003B000BD00B583B0102001A953
:1023600000F08CF820B90146019820B903B000BDF7
:10237000012003B000BD102000F068F8003818BF3D
:10238000012003B000BD00BF70B5002682B0044636
:102390000D46102001A9019600F070F810B9019BBC
:1023A000A34202D8012002B070BD04F111002946F9
:1023B00080B200F063F8801B18BF012002B070BD2E
:1023C000002210B5114B82B01B78019213B9184648
:1023D00002B010BD044601A9102000F04FF840B92A
:1023E00001981130FF2804D8214680B200F02EF861
:1023F00018B10123184602B010BD01991020013117
:1024000000F024F8031E18BF0123E0E77700032043
:10241000014608B5102000F031F8003818BF01203F
:1024200008BD00BF10B505F037FA00200AF08CFB9C
:10243000044618B905F044FA204610BD002009F002
:1024400051FF05F03DFA204610BD00BF38B50446E7
:102450000D4605F021FA204629460AF01DFEC30567
:10246000044603D405F02CFA204638BD0AF014F8CF
:102470000443A4B205F024FA204638BD0AF06EB930
:1024800084462DE9F8430CF50055104695F82721B0
:102490000CF580540F461E46B4F89210B4F89430F0
:1024A00072B3002940F08E80072B40F2A0803E2BB3
:1024B00040F2B9804FF04008B3F5805F4246C14614
:1024C0005FD21B0A43F010030370B4F894300CF58C
:1024D00084514370023A1C31023003F05BF8012250
:1024E0000223A8F1020887F80090A4F89280A5F8CA
:1024F0001C2184F891300120C4F89860BDE8F8836D
:10250000B1B307224FF008085B1A1FFA83F9B5F838
:102510001C31914503F00F0343F0200300F8013B09
:10252000B4F8923003F5845303F11C030CEB030160
:102530004CD903F02FF887F80080B4F89230B5F842
:102540001C21013B9844A4F8928095F822313BB1BC
:10255000B2FBF3F103FB112313B9022384F891308A
:102560000132A5F81C210120C4F89860BDE8F88369
:10257000072B3CD94FF00808B3F5805F4246C146AF
:102580009FD310230360B4F894300CF584511B0AD8
:102590000371B4F89430063A43711C31063002F0EE
:1025A000F9FF01220223A8F1060887F80090A4F899
:1025B0009280A5F81C2184F891300120C4F898601D
:1025C000BDE8F8833F224FF040089DE74A4602F0FD
:1025D000E1FF032309F101023A7084F89130B4F865
:1025E0009230B5F81C219944A4F89290B8E700F80D
:1025F000013B0CF58451B4F894201C3102F0CAFF61
:1026000001210322B4F894300B443B70B4F89430A9
:102610000120A4F89230A5F81C1184F89120C4F888
:102620009860BDE8F8830170B4F894300CF58451DB
:102630004370B4F894201C31023002F0ABFFB4F8C0
:102640009430012103220233DFE700BF70B500247C
:102650000E4600F580530470C0F802400473846095
:10266000C3F89240C3F89840A3F88E40A3F8904076
:1026700000F50053054621464FF48452C3E9474410
:10268000C3F82861C3F824410D300DF031FF4FF439
:102690008452A8182146BDE870401C300DF028BFB8
:1026A000F0B591B0169D0446856019B39646127830
:1026B0008C46100903281DD8DFE800F0024C7A226E
:1026C000003B18BF012304F5005282F8263123781D
:1026D00023B10621002382F8241123709EF80050B4
:1026E000BCF1080F05F00F0500F2D1800123002D89
:1026F00040F0D680237B012B00F0A78011B0F0BD05
:1027000004F5805797F8911002F00F0204F5005677
:102710004B1E012A86F82121DBB200F00B81022A30
:1027200000F01181002A40F0FB80BCF1010F00F0A5
:102730001E819EF80130BCF1020F86F8223101D0D3
:102740009EF80220022986F82321D3D1012387F89D
:102750009130CFE7003B18BF012304F5005686F8FF
:102760002631227822B1062286F824210022227006
:10277000BCF1070FBED99EF800209EF8010002F0C0
:102780000F01014340F09C80DEF8022012BA072AB4
:10279000B0D9B2F5845F40F2F0800222072086F8BB
:1027A0001E2186F82401217096F81F21322159E05C
:1027B0002378012B9ED104F58057B7F88E1002F0D4
:1027C0000F0201F00F039A4240F0A2806088A388B4
:1027D00097F890201B1A9BB2002A00F0BE80551E6D
:1027E000AEB29E4280F0BC80944583D14A1C92B226
:1027F000EDB20D30A7F88E200EF101012A462044DB
:1028000002F0C8FE6388A2882B449BB29A42638080
:1028100000F0B08004F5005696F81F21002A3FF41E
:1028200069AFB7F88E30013B93FBF2F102FB113335
:10283000002B7FF45FAF96F8263196F81E11003B0F
:1028400018BF012341F030010CE004F5005696F862
:10285000263196F81E11003B18BF012396F81F2160
:1028600041F0300100208DF8012003228DF8001086
:1028700096F820112073D6F828015B058DF8021018
:1028800083616946C260FFF797F911B0F0BD002D72
:102890007FF430AF9EF801500223002D3FF42AAFA1
:1028A000ACEB03018D423FF725AF0EEB03012A4647
:1028B00004F10D0002F06EFE02236580237019E71B
:1028C000120202F470620243072A7FF613AF02215C
:1028D0000B46ACEB0303DDB204F58057A2807144D4
:1028E0002A4687F890C004F10D0002F053FE012340
:1028F00000226580237086F81E21A7F88E3096F896
:1029000026313021003B18BF012396F81F21A9E78B
:102910000421002304F5005282F824112370E9E613
:10292000012B3FF6E7AE0522032386F8252187F821
:102930009130DFE6012B3FF6DDAE0223C7F8985059
:1029400087F89130D6E6012B3FF6D4AE0822032358
:1029500086F8252187F89130CCE6072B3FF6CAAEE2
:102960009C457FF6C7AE4A1C92B2DDB241E786F8BD
:102970002221E7E602232370BCE606210B46A8E7E6
:102980000378012B01D0002070478268064B891A1A
:102990009942F8DD0321002300F5005282F824114A
:1029A00003700020704700BF400D03002DE9F04187
:1029B00000F58055144695F8912092B0561E012ED0
:1029C00005D9032A0ED0002012B0BDE8F081D5F859
:1029D0009830394ECB1AB3420BD9022300F5005080
:1029E00080F825310023012085F8913012B0BDE830
:1029F000F081012AE7D100F5005696F9237196F887
:102A00002321002F05DA0F32D2B2082A8CBF7F2291
:102A100001229A42D7D80B4602AA0DF10701FFF70F
:102A20002FFD9DF80780B8F1080F38D9B8F10C0FC9
:102A300037D9B8F1100F36D9B8F1140F35D9B8F12C
:102A4000180F34D9B8F1200F33D9B8F1310F34BF92
:102A50000E270F27384602F091FD80450AD2A0EBE1
:102A60000802013AD2B202AB0021013203EB0800A6
:102A70000DF03EFDE76096F82731003B18BF0123BB
:102A80005B05A36102E0012002F0A4FD204602A93B
:102A9000FFF792F80028F6D195F8912091E7474684
:102AA000D8E70927D6E70A27D4E70B27D2E70C2770
:102AB000D0E70D27CEE700BF400D030000F58052A0
:102AC000B2F89430B3F5845F14D892F891309BB982
:102AD00000F5005300204FF0010CA2F89200A3F87B
:102AE0001C01C2F8981093F8261183F8271182F878
:102AF00091C07047012070474FF0090C00F500535A
:102B000083F825C1E6E700BF830F032BC0F30D4018
:102B100020D0012B0ED0B3B9B0F5B97F21D01F233F
:102B20005FFA80FC000A012281F800C048708B70B7
:102B3000CA70704740F263539842F0D102204FF0C0
:102B4000740C0D23EFE79128E9D10B204FF0380CDE
:102B50000223E8E72928E2D102204FF07F0C092365
:102B6000E1E70B204FF0EF0CDDE700BF2DE9F04F60
:102B7000456893B0B5F1804F02D013B0BDE8F08F37
:102B80000668C068C6F307470C4602F0F7FCEA2F58
:102B9000C6F3072832D0EC2FEFD1B8F1130FECD1E8
:102BA0000728EAD92378102BE7D1E3793002C54909
:102BB000A27980B20143647908201B0443EA02230E
:102BC000234300224FF0FF34099123FA00F18DF8DE
:102BD00021308DF822101B0C0C9007A909A8CDE913
:102BE0000D22CDE90F220A958DF823300B92119218
:102BF00007948DF82040FEF7DFFFBEE70228BCD91E
:102C0000B8F1FF0F23D0B8F1130FB6D1A3786178D4
:102C100022781B0443EA01231343B3F56E4F40F0BF
:102C2000C480A94A33029BB21A4300234FF0804567
:102C30000824A64909A8CDE90A53CDE90C43CDE9FA
:102C40000E33CDE910330992FEF7B6FF95E7A3786E
:102C5000617822781B0443EA01231343B3F56E4FD6
:102C600000F02E814FF6C552934200F0CB804FF614
:102C7000CA62934281D14FF0000904A8CDF81090A8
:102C8000FFF7C6FB924B049AB3F81EA0012ACAF3C1
:102C9000400A4FEA8A1A4AF03F0A5FFA8AF440F281
:102CA0002981920002321FFA82FA8A4B0AF1060148
:102CB000A3FB0103C91A03EB5103C3F387074FF0CA
:102CC000804385490A930991082120230C91834967
:102CD00007AA08910DF1240B4FEA1A218DF81E1056
:102CE000584611468DF81C301546CDE90D99CDE9B1
:102CF0000F99CDF82C90CDF844908DF81DA08DF84B
:102D00001F70FEF759FF764B0993002F3FF435AF44
:102D1000CDE9027B4FF00108A3460DF123060822FE
:102D2000FF21284602F032FC334656469A4608F107
:102D3000FF34C4EBC4048DF81C80A4B20195A642F4
:102D40001ADDA3B243B3012B2DD0A7B2023F05A9D0
:102D5000B810CDF8149007F00307FFF715FB05989E
:102D600006A9FFF7D1FE0DEB07031B7E05F8013F17
:102D7000AA4504F10104E2D15346019D0398294676
:102D8000B24608F101081E46FEF716FF029B5FFAE5
:102D900088F84345C3D2F0E605F801BFAA4504F11F
:102DA0000104CED1E8E7FF23E0E74FF6C552934296
:102DB00028D04FF6CA6293423FF45DAF0827002245
:102DC000FF240A956FF0FE0506FA07F0454980B228
:102DD0000143099123FA07F18DF821308DF8221073
:102DE0001B0C07A909A8CDE90B27CDE90D22CDE9D8
:102DF0000F228DF82330119207958DF82040FEF7B1
:102E0000DBFEBAE6384802F0D9FB00224FF08041E1
:102E10000824314DCDE90A12099505462021CDE956
:102E20000C42CDE90E22CDE91022304A294B0892FE
:102E3000AA1D8DF81C10A3FB0213D21A07A803EBDE
:102E4000520325FA04F10DF1240BC3F387088DF822
:102E50001E100746014658468DF81D508DF81F80FC
:102E6000FEF7AAFE1E4B0993B8F1000F3FF485AEA2
:102E70000124DFF874900DF12306A4EB090A08225F
:102E8000FF21384602F082FB3A46631EC3EBC303C0
:102E90009BB2013B8DF81C404B440AEB03018D4271
:102EA00005DD13F8011F02F8011F9642F5D1013428
:102EB00039465846E4B2FEF77FFEA045DFD25CE615
:102EC0000B4AB2E61300EC1C1300EE18780E010852
:102ED000540003202549922413FFEC1CFFCAFE0076
:102EE00013FFEB1C1300E818600E0108FFC5FD007E
:102EF00013FFEE1808224FF0804316490C920991F7
:102F000007A908460D46FF210A93CDE90D99CDE9A1
:102F10000F99CDF82C90CDF8449002F037FBFF22AA
:102F2000049B8DF81C40012B8DF81D2006D0CDF898
:102F30001E90294609A8FEF73FFE1EE606A9484650
:102F4000CDF81890FFF720FA06980DF11E01FFF753
:102F5000DBFDEEE713CAFE182DE9F04314460278B4
:102F60000646013A1D4685B0092A11D8DFE812F05D
:102F70001C0010000A009A01100010000A00100046
:102F800076010A00012900F09A817F22122101E0D6
:102F90007F221121032322703278A17062702B806E
:102FA000002005B0BDE8F0830229EED14123237053
:102FB00043786370A62BE8D801A252F823F000BF33
:102FC00087340008693400088B2F00088B2F000815
:102FD00033340008293400088B2F00088B2F000899
:102FE0008B2F00088B2F00088B2F00088B2F0008D9
:102FF00013340008033400088B2F00088B2F0008BF
:103000008B2F0008D33300088B2F00088B2F00086C
:103010008B2F00088B2F00088B2F00088B2F0008A8
:103020008B2F00088B2F00088B2F00088B2F000898
:103030008B2F00088B2F00088B2F00083D340008D1
:10304000F7330008C93300088B2F00088B2F0008C6
:103050008B2F00088B2F00088B2F00088B2F000868
:103060008B2F00088B2F00088B2F00088B2F000858
:103070008B2F00088B2F00088B2F00088B2F000848
:10308000D3330008C93300088B2F00088B2F0008AA
:103090008B2F00088B2F00088B2F00088B2F000828
:1030A0008B2F00088B2F00088B2F00088B2F000818
:1030B0008B2F00088B2F00088B2F00088B2F000808
:1030C000B5340008A93400089D3400088B2F00088F
:1030D0008B2F00088B2F0008933400088B2F0008DB
:1030E0008B2F00088B2F00088B2F00088B2F0008D8
:1030F0008B2F0008C9330008C93300088B2F000844
:103100008B2F00088B2F00088B2F00088B2F0008B7
:103110008B2F00088B2F00088B2F00088B2F0008A7
:103120008B2F00088B2F00088B2F00088B2F000897
:103130008B2F00088B2F00088B2F00088B2F000887
:10314000DD3300088B2F00088B2F00088B2F000821
:103150008B2F00088B2F00088B2F00088B2F000867
:103160008B2F00088B2F00088B2F00088B2F000857
:103170008B2F00088B2F00088B2F00088B2F000847
:103180008B2F00088B2F00088B2F00088B2F000837
:103190008B2F00088B2F00088B2F00088B2F000827
:1031A0008B2F00088B2F00088B2F00088B2F000817
:1031B0008B2F00088B2F00088B2F00088B2F000807
:1031C000DD3300088B2F00088B2F00088B2F0008A1
:1031D0008B2F00088B2F00088B2F00088B2F0008E7
:1031E0008B2F00088B2F00088B2F00088B2F0008D7
:1031F0008B2F00088B2F00088B2F00088B2F0008C7
:103200008B2F00088B2F00088B2F00088B2F0008B6
:103210008B2F00088B2F00088B2F00088B2F0008A6
:103220008B2F00088B2F00088B2F00088B2F000896
:103230008B2F00088B2F00088B2F00088B2F000886
:103240005D3400088B2F00088B2F00088B2F00089F
:103250008B2F00088B2F0008EB33000802297FF426
:1032600094AE49232370437863700A2B3FF68DAEEA
:1032700001A252F823F000BF173300088B2F00087B
:10328000373300088B2F0008253300088B2F0008E8
:10329000B93300088B2F00088B2F00088B2F0008F4
:1032A0009B33000801297FF470AE0191FFF754F8B9
:1032B000019968BB337840332370298070E602A8F7
:1032C000FFF7A6F820BB029B5A1C52002A803278D6
:1032D00063704032DBB22270002B3FF461AE0746D0
:1032E00004F1020904F103080CE0039B1A0E09F82B
:1032F00017201B0C9DF8082008F817300137BA4238
:103300007FF64EAE384603A9FFF73EF80028ECD012
:103310007F2210213EE644F254020623C4F8022024
:103320002B803DE601236749A370E01C02F03EF9C3
:1033300013232B8034E614230120E61CA0703146B1
:103340002B80FFF79BF8E11D05460220FFF796F85A
:10335000034604F10B0103201D43FFF78FF80346DA
:1033600004F10F010420ADB21D43FFF787F80346B7
:1033700004F113010520ADB245EA0304FFF77EF81E
:10338000A4B244EA00039BB2002B3FF409AE112221
:103390000021304602F0FAF802E60123E61CA37091
:1033A00014220021304602F0F1F83046464902F07E
:1033B000FDF817232B80F3E5782207234349A271F8
:1033C000C4F802102B80EBE5042200232A806380DE
:1033D000E6E5032200232A80A370E1E506224FF0F0
:1033E00080732A80C4F80230DAE50622384B2A803E
:1033F000C4F80230D4E50622364B2A80C4F80230E5
:10340000CEE50322344B2A809B8AC3F30723A370A3
:10341000C6E50423304A2B809388C3F34A13A37074
:103420009388DB00E370BBE5032274232A80A3703A
:10343000B6E503224C232A80A370B1E504232B8038
:103440000BF01EFE254DA5FB00239B0BA3700BF07C
:1034500017FEA5FB00539B09E370A1E50622042398
:103460002A80C4F802309BE503A8FEF7D1FF38BBE1
:10347000039A02F07F02002306212980A270E370E4
:10348000237163718CE50622154B2A80C4F8023043
:1034900086E5032251232A80A37081E504224BF69E
:1034A00035732A8063807BE5062200232A80C4F8D6
:1034B000023075E506220B4B2A80C4F802306FE516
:1034C0000022D8E77007010880070108011234566E
:1034D000123456788001800154000320D34D6210CD
:1034E00098188003A40C0001814204D900F17840AF
:1034F000B0F5802F01D30020704701F178410139E8
:10350000B1F5802F2CBF002001207047814208D9DF
:10351000B0F1005F05D3044881428CBF0020012038
:1035200070470020704700BF00000420814211D97D
:10353000B0F1005F10D31A4B994219D9194B984238
:1035400008D9194881428CBF002001207047B0F192
:10355000006F15D200207047144B98420AD8144BC4
:103560009842F4D9134881428CBF00200120704753
:1035700001207047104881428CBF00200120704715
:103580000E4B9942E6D80E4BB3F8E030B3F5007F0E
:10359000EED00C4881428CBF00200120704700BF54
:1035A000000004203F20024040210240FFFFF90BB1
:1035B000FFFFF80B0080F90B0002FA0B000008086F
:1035C0000005FA0B0000040800B58BB001A804F058
:1035D0005FFB0598AA3818BF01200BB000BD00BFE3
:1035E00000B58BB072B601A804F052FB04214FF471
:1035F0000052079B019143F08063CDE9062304F05C
:103600004BF918B162B601200BB000BD04F064F9AB
:103610000028F7D101A804F019FA10B904F07EF9D6
:10362000F0E704F06DF904F04BF9EBE710B58AB060
:1036300004F032F9044604F04FF9044301A804F001
:1036400027FB04214FF480729DF81E30E4B2C3F3CF
:10365000001383F001031B05CDE90623019134B16A
:1036600004F04EF904F02CF901200AB010BD01A8B5
:1036700004F0ECF90028F3D104F050F9044604F00A
:103680003FF9044304F01CF9E4B22043C0B200380F
:1036900018BF01200AB010BD30B58BB004F0FCF8A3
:1036A000044601A804F0F4FA0023802207980221BE
:1036B00010F4801FCDE9033200930CBF02230123D5
:1036C000019101A86946029304F078FB054604F0D5
:1036D000F7F828432043C0B2003818BF01200BB0D0
:1036E00030BD00BF70B504F0D7F805460F4C104E42
:1036F000D4E90023B3F1FF3F08BFB2F1FF3F04F567
:10370000802107D0012004F045F9002818BF45F0BA
:103710000105EDB20834B442EAD104F0D1F82843EF
:10372000C0B2003818BF012070BD00BF00E0030820
:1037300000000408002330B58FB0009304F0ACF80B
:103740000223044605A8019304F0A2FA0B9B04226D
:1037500013F4801F4FF07C0014BF0223012369463D
:1037600003900DEB02000492029304F027FB054640
:1037700004F0A6F8054344EA0500C0B2003818BFBB
:1037800001200FB030BD00BF014608B5012004F094
:1037900001F9003818BF012008BD00BF0022014B0D
:1037A0001A6070471C2A032010B4264C2388002B73
:1037B0003FD0B3F57B6F41D240F6FF71224AC3EB95
:1037C0000333A2FB0323A1EBD32189B2B4F802C0D7
:1037D000A388BCF5E06F34BF4FF0000C4FF0010C34
:1037E0001A4AB3F5306F118082F802C013D2B3F5D4
:1037F000E06F21D2B3F5407F22D2B3F5807F8CBF3A
:1038000000230123D1789B00994208D1104B186006
:103810005DF8044B70470123D1789942F6D00C4CE7
:103820002168411AFA29F3D9D37020605DF8044B5E
:10383000704740F6FF71C9E70223EDE70021C5E7B5
:103840000323E9E7202A0320BFBF8C8278000320EE
:103850001C2A03200022014B1A707047262A0320DD
:10386000154B164A1B78108891787BB16FF4FC6376
:10387000C3183E2B124B14D91881188B60F0FF002F
:1038800080B2188321B9598A89B201E00C4B1881A2
:103890001982D27822B1198B01F47F410A431A832D
:1038A0007047588980B21881188BC0B21883588A23
:1038B00080B21882E6E700BF262A032078000320A2
:1038C00054000320014B1860704700BF282A0320D2
:1038D000704700BF00B5044B83B0186801A907F01A
:1038E000DBF9019803B000BD282A03200D4B0278B4
:1038F0001B68403201291A700FD900B5A1F1020EE0
:1039000010FA8EFE024610F801CF724503F801CF7F
:10391000F8D1054B1B68198000BD034B1B6819804B
:10392000704700BF542A0320502A032030B5437843
:10393000044685B013B98378442B0FD07F204FF015
:10394000310C03213C4B3D4A1B68126818702078EB
:1039500083F802C05870118005B030BD0B2903D028
:103960007F204FF0130CECE7354B1978022903D078
:103970004FF07F0C7F20E4E71B7F022B11D1314DEC
:103980006B7B13F0FB030FD07F20242503212A4BF0
:103990002A4A1B681268187020789D705870118030
:1039A000DAE74FF0330CE5E7D0F80300AB60012312
:1039B0002B73D4F8073000BA1BBAC1186B600192A0
:1039C0002860FFF791FD1C4B19681C4BD3F800C011
:1039D00040B36B68019A13F0070F0AD07F23702061
:1039E0000B70032394F800E0887081F801E0ACF8D4
:1039F000003023786A734FF20F04202540338DF88E
:103A00000C3003AA4B1EC81C8DF80D50ADF80E40AB
:103A100012F8011B03F8011F8342F9D10423ACF80B
:103A2000003099E77F22312003230A7022788870C2
:103A30004A70ACF800308FE7542A0320502A032044
:103A4000302A03205C2A032003780F2B40F2838066
:103A50002DE9F047A3F1100204460D468EB0772AF7
:103A60007FD8DFE812F0420232027E007E00C501FC
:103A70007E007E007E007E00AC017E007E007E0027
:103A80007E007E007E007E007E00F801E2010802DA
:103A90007E007E006C019F01920115027E0085016F
:103AA0007E002202D5017E005C017E007E0048017E
:103AB0002201ED00DD00D0007E007E007E007E0051
:103AC000320105017E007E007E007E007E007E00C9
:103AD0007E007E007E007E007E007E007E007E00F6
:103AE0007E007E007E007E007E007E007E007E00E6
:103AF0007E007E007E007E007E007E007E007E00D6
:103B00007E007E007E007E007E007E007E007E00C5
:103B10007E007E007E007E007E007E007E007E00B5
:103B20007E007E007E007E007E007E007E007E00A5
:103B30007E007E007E007E007E007E007E007E0095
:103B40007E007E007E007E007E007E001501C300A8
:103B5000B300A6008D00A24BA24A1B681268FFF7B3
:103B6000FBB97F20112503219E4B9D4A1B681268DB
:103B7000187020789D70587011800EB0BDE8F087E5
:103B8000012D40F2FA84427802F07F03012B00F00D
:103B90001485032B00F0FF847F2012250321914B15
:103BA0008F4A1B681268187020789D7058701180B9
:103BB000E3E77F20112503218A4B894A1B6812689D
:103BC000187020789D7058701180D6E7022D00F093
:103BD000A8847F2013250321824B814A1B68126829
:103BE000187020789D7058701180C6E77F201225CC
:103BF00003217C4B7A4A1B681268187020789D70EC
:103C000058701180B9E77F2011250321754B744A44
:103C10001B681268187020789D7058701180ACE78E
:103C2000704B6F4A012D1B68166800F0A9837F2135
:103C300013200322197021789870597032809CE704
:103C4000012D40F23B83684E737B012B00F01A85F7
:103C5000644A6349022B1268086800F0C2857F211C
:103C6000242503231170217895705170038084E717
:103C7000022D00F06D847F2013250321594B584AF3
:103C80001B681268187020789D705870118074E756
:103C90007F2011250321534B514A1B68126818706D
:103CA00020789D705870118067E7022D00F22D81F9
:103CB0007F20132503214B4B494A1B68126818705B
:103CC00020789D705870118057E7012D40F20383D2
:103CD000437803F00F02042A00F0C1847F201225EC
:103CE0000321404B3E4A1B681268187020789D7073
:103CF0005870118041E73D4BB3F8E030B3F5007FD9
:103D000000F09C847F2011250321364B344A1B6828
:103D10001268187020789D70587011802DE7032D5F
:103D200000F2FB807F20132503212E4B2C4A1B68B9
:103D30001268187020789D70587011801DE7012D51
:103D400040F2E382467806F07F06012E00F0CD8433
:103D5000022E00F0EB847F2012250321214B204A04
:103D60001B681268187020789D705870118004E7E5
:103D70007F20112503211B4B194A1B6812681870FC
:103D800020789D7058701180F7E67F20112503215F
:103D9000144B134A1B681268187020789D70587075
:103DA0001180EAE67F20112503210E4B0C4A1B6887
:103DB0001268187020789D7058701180DDE6094FE8
:103DC000022D3B6800F242827F2013250321044A22
:103DD0001870207812689D7058701180CDE600BF71
:103DE000502A0320542A03205C2A03200005FA0BE2
:103DF000042D00F0B3827F2013250321A44BA54A94
:103E00001B681268187020789D7058701180B4E695
:103E10007F20112503219E4B9E4A1B681268187053
:103E200020789D7058701180A7E6012D40F26082C5
:103E3000437803F00F02042A00F044847F20122507
:103E40000321934B934A1B681268187020789D7069
:103E50005870118091E6032D00F0A1827F20132578
:103E600003218B4B8B4A1B681268187020789D7059
:103E70005870118081E67F2011250321844B854AEB
:103E80001B681268187020789D705870118074E655
:103E90007F20112503217E4B7E4A1B681268187013
:103EA00020789D705870118067E6022D00F2F58130
:103EB0007F2013250321764B764A1B681268187001
:103EC00020789D705870118057E6714B714A022D11
:103ED0001B68166800F026827F21132003221970C8
:103EE000217898705970328047E6022D00F0F182F7
:103EF0007F2013250321664B664A1B6812681870E1
:103F000020789D705870118037E60222294620469D
:103F10000EB0BDE8F047FFF709BD90F901204378E6
:103F2000002ABCBF03F07F0343704388B8BF01265B
:103F30005BBA9BB2A8BF0026B3F5097F00F35F858B
:103F4000B3F5007F2ADBA3F50073242B26D8DFE826
:103F500013F0ED00D600C500B200A3009000680089
:103F600059005001480125002500250025002500A5
:103F700025001401FF00250025002500250025004F
:103F80002500250025002500250025002500250009
:103F9000250041012601760143003D007F203121AB
:103FA00003223B4B1B681870207899703949587070
:103FB0000B681A80002E3FF4E0AD354A1268127883
:103FC0007F2A3FF4DAAD00221A80D6E5052D00F0F5
:103FD00069877F201321E3E7042DFAD1FDF792FCD6
:103FE0000A2009F08BFD2A4B1A682A4B1B6821789E
:103FF0004031117061785170A1789170E178D17081
:104000001D80D7E7224A234B042D12681B6800F05D
:104010002D877F2113201170217890705170032516
:10402000EEE70B2DD5D9456887682DBA3FBA2846EB
:104030007919FFF77BFA0028B0D039462846FDF7FA
:10404000FDFE01460827124B25781A684035157089
:104050006078104B5070A0781B689070E078D17138
:10406000D070080E1071080CF940507191711F80CA
:10407000A0E7074A074B062D11681B6800F002876E
:104080007F2213200A70227888704A70032290E7FA
:10409000542A0320502A032071200421AB4B1A68B4
:1040A000AB4B107060781B685070A0789070E0780F
:1040B000D07019807EE7A54B71201968AB1E0A46A7
:1040C000087014FA83F3214614F8010F8B4202F8AA
:1040D000010FF8D19E4B1B681D806BE7FFF702FBB9
:1040E0009A4B1A689A4B1B68002800F00F877F21B3
:1040F00072201170217803259070517080E7FFF7CE
:1041000019FB924B1A68924B1B680028EFD121468D
:10411000207840301070A81E14FA80F00C4611F878
:10412000017F844202F8017FF8D169E7874A884B12
:10413000042D12681B687FF46CAF4178012900F0F0
:104140009487022940F089870020824908704EE751
:10415000042D7FF43EAF804B1A78022A00F0AA8724
:104160007F227F200321794B1B68187020789A707A
:10417000774A5870136819801CE7042D7FF429AF23
:10418000754B1A78022AEBD11B7F022B40F08F87E8
:104190004378012B00F0CF877F20122100E7052D07
:1041A0007FF417AF0079FDF7EBFCFDF7ABFB0A20BE
:1041B00009F0A4FC0420654B21781A68644B403157
:1041C0001B68117061785170A1789170E178D1709D
:1041D0001880EFE6072D7FF4FCAE0430FDF7C2FC3B
:1041E000E3E75D4B1B7F022B00F011867F2033211C
:1041F000D6E6082D7FF4EDAE4378012BCCD1C37900
:10420000042B7FF4CBAE807922796379000240EAF7
:10421000026040EA034040F00400FEF7D1F80028B5
:1042200000F056857F2072250321484A484B1268CA
:104230001B6810702078957050701980BAE6072DB1
:104240007FF4C7AE0430FDF7A3FCAEE7592204218A
:104250001A70427899705A70427802F07F02012AEF
:1042600000F09C82022A00F093827F251226032010
:10427000374A1D70257811689E705D70088094F92A
:104280000130002BBFF679AC3B681B787F2B3FF4E5
:1042900074AC0021136819806FE42F4B1E78022E36
:1042A00000F055827F220320284B29491B680968AA
:1042B0001A7024789A705C7008805EE47F20132561
:1042C0000321224B224A1B681268187020789D70C7
:1042D0005870118051E47F20132503211B4B1C4A89
:1042E0001B681268187020789D705870118044E423
:1042F0007F2013250321154B154A1B68126818707F
:1043000020789D705870118037E47F201325032199
:104310000E4B0F4A1B681268187020789D705870F9
:1043200011802AE40C4A1278012A00F07682427841
:1043300002F07F02012A00F0A9837F2112200322CC
:104340001970217898705970328016E4542A03202D
:10435000502A032076000320302A03204378FF2BC5
:1043600000F072827F2031250321A74BA74A1B68EA
:104370001268187020789D7058701180FFF7FDBB8F
:10438000A34A517B032900F032837F21242003229A
:1043900019702178987059703280FFF7EEBBB0F831
:1043A000012052BA90B20022A0F50071B1F5007F51
:1043B000CDE90122CDE903220092C0F06B82A0F585
:1043C0007142843A0C2A08D8DFE802F072076C6365
:1043D000070707075A07070715007F203125032124
:1043E000894B8A4A1B681268187020789D70587033
:1043F0001180FFF7C2BB69460120FEF73FF801A913
:1044000005460220FEF73AF8034602A903201D43A1
:10441000FEF734F8034603A90420ADB21D43FEF7AE
:104420002DF8034604A90520ADB21D43FEF726F87A
:10443000ADB20543ADB2112269460DF1170001F08E
:10444000A9F8002DC9D1142523786F4A6678116820
:10445000A2784033681E8DF814308DF816208DF840
:10446000156005AA4B1E11FA80F012F8011B03F823
:10447000011F8342F9D1654B1B681D80FFF77DBB8F
:104480000C2264490DF1170001F084F80F25237800
:10449000DBE7042260490DF1170001F07BF80725E6
:1044A0002378D2E75D4A042512788DF81720CCE7EF
:1044B0000C225B490DF1170001F06CF82023092252
:1044C000584909A88DF82330192501F063F823789D
:1044D000BBE7437803F07F03022B00F05B82032BE2
:1044E00000F04482012B40F06A8200224B494E4882
:1044F000C1E903220B70464B02605A734A610A7786
:104500008A6194F901306278002BFFF636AB5020B7
:104510003D4B3E491B6809685A7018700D80FFF7C3
:104520002CBB427802F07F03012B00F07F81022B2D
:1045300000F053827F2012250321334B334A1B683E
:104540001268187020789D7058701180FFF715BBA5
:104550004378002B00F09381802B3FF40EAB7F203B
:1045600012250321284B294A1B68126818702078ED
:104570009D7058701180FFF700BB7F201325032129
:10458000214B224A1B681268187020789D70587061
:104590001180FFF7F2BA244D2968002940F02E81DE
:1045A0007F202225184A194912680968107020785E
:1045B000957050700B80FFF7E0BA022D00F0378243
:1045C0008378103B032B00F2F285DFE803F0191724
:1045D000021B164B144A136094F90130002BFFF6AE
:1045E000CCAA0221084A237812684033074D137081
:1045F00060782B6850701980FFF7BFBA0C4BE9E761
:104600000C4BE7E70C4BE5E7542A0320502A032024
:104610005C2A03209005FA0BA8070108302A032022
:10462000900701089C070108582A032020A10700D1
:1046300090D0030048E8010040420F00022D00F234
:104640003C817F2013250321B14BB24A1B681268BD
:10465000187020789D7058701180FFF78EBA03F0A3
:10466000F002402A40F22C817F2012250321A84B22
:10467000A84A1B681268187020789D7058701180C5
:10468000FFF77BBAA91E11F007051FFA81F840F069
:104690009A80B36872684344934200F29480327BFC
:1046A0004378934200F042847F2073250321984B86
:1046B000984A1B681268187020789D705870118095
:1046C000FFF75BBA03F0F002402A40F229817F2015
:1046D000122503218E4B8F4A1B68126818702078B0
:1046E0009D7058701180FFF748BA40F26713ADF81B
:1046F0001430FFF7EFF8884A884B4240C3E90302C1
:104700001E7794F9013000BA002BCDF81600FFF6A1
:1047100034AA06217E4B05981B687E4A1860BDF8B6
:104720001800126898801180FFF727BA062D00F054
:10473000CB817F2013250321754B764A1B681268B5
:10474000187020789D7058701180FFF716BA4FF2DC
:104750008412B0F8013058BA80B220F008019142BA
:1047600000F0F68049F2F102934200F06382072DD7
:1047700000F057837F2013250321654B654A1B6892
:104780001268187020789D7058701180FFF7F5B985
:10479000032D00F0CE817F25132668E5032DFAD185
:1047A000002205A8DA70FDF733FE5A4A3B68166806
:1047B000002800F024837F211970722120789970DD
:1047C000587035805BE57F2071250321504B514A9D
:1047D0001B681268187020789D7058701180FFF760
:1047E000CCB9022D00F061817F2171250323117066
:1047F0002178957051700380FFF7BFB9130600F15F
:104800002481C7200221424B424A1B68126818705B
:10481000607858701180FFF7B0B97F2203211A70B9
:1048200000789A7058703180FFF7A7B911063FF5EC
:10483000A4A9C521364B374A1B6812681970417804
:1048400059701580FFF799B98378FF2B7FF48AADF3
:10485000C378FF2B7FF486ADFDF77EFD002800F0C6
:104860001D847F2072250321294B2A4A1B68126868
:10487000187020789D7058701180FFF77EB97E21E6
:10488000234B244A1B6812681970417859701580AF
:10489000FFF773B96946FDF7F1FD002800F02781A5
:1048A0007F2131201A4B1B4A1B681268197021782E
:1048B000987059701580FFF760B90122FFF726BB89
:1048C0001B095A1DAA4280F2D380002B00F0A78258
:1048D0000027591E0530C90010F8012F8A400839F9
:1048E0003A4311F1080F97B2F6D19E1DF3199D427C
:1048F00000F072827F2013250321054B054A1B68B7
:104900001268187020789D7058701180FFF735B9C3
:10491000542A0320502A032078563412302A0320C8
:10492000AF4A1278012A00F032811B099A1D954284
:1049300000F0EE817F2013250321AA4BAA4A1B68B1
:104940001268187020789D7058701180FFF715B9A3
:104950007F2031250321A34BA34A1B6812681870DE
:1049600020789D7058701180FFF707B99F4A928A8E
:1049700092B2B2F5805FC0F041817F208825994ACC
:1049800099491268096810702078957050700B80F2
:10499000FFF7F3B8954B9B8A9BB2B3F5805FC0F0ED
:1049A00003817F20222503218E4B8F4A1B681268CA
:1049B000187020789D7058701180FFF7DEB87F2046
:1049C00012250321874B884A1B68126818702078CB
:1049D0009D7058701180FFF7D0B812063FF5CDA832
:1049E000294620460EB0BDE8F047FEF77FBF042100
:1049F0005173027840321A703580FFF7BEB8B3F5B4
:104A00007F4F00F050814FF6017293427FF4C6AAA7
:104A1000042D7FF4DEAA4378012B7FF4BDAB704BED
:104A20001A78022A00F07C837E22FFF79ABB7F204F
:104A3000132503216B4B6C4A1B6812681870207891
:104A40009D7058701180FFF798B80123684C267844
:104A50002370FCF7FFFF4FF47A7009F04FF8F6B2BD
:104A60002868FCF7FFFFFCF74DFF2670FFF785B8BD
:104A70007F20132503215B4B5B4A1B68126818706B
:104A800020789D7058701180FFF777B851221A7006
:104A900042785A70358090F90130002BBFF66DA82E
:104AA0000EB0BDE8F04702F04BB8317B63788B4223
:104AB00000F050817F2173250323117021789570B8
:104AC00051700380FFF759B8454B9A69042A40F2A8
:104AD0000B817F2036250321424B434A1B68126815
:104AE000187020789D7058701180FFF746B8607874
:104AF0002378A478403304228DF8150069460DF11F
:104B000017008DF814308DF8164000F043FD354B3A
:104B10000DF113021868431E063012F8011F03F846
:104B2000011F9842F9D107222F4B1B681A80FFF70B
:104B300024B8002205A8DA70FDF76AFC8146002837
:104B400040F02D81059B002B00F0AA8280466E4626
:104B500012E09DF803203B685A55BDF8022003F887
:104B60002820009A2B44120A9A70009ADA70059B4A
:104B70000435984580F01F8140463146FDF704FC1E
:104B800008F101080028E4D04FF00109EFE77F2287
:104B90000320144B14491B6809681A7024789A7012
:104BA0005C700880FEF7E9BF00230D4A1148C2E996
:104BB0000333114903604B7353611377936194F985
:104BC00001306078002B1570FEF6D7AF5021054BF1
:104BD000054A1B681268587019701580FEF7CDBF22
:104BE000302A0320542A0320502A03205400032093
:104BF00076000320582A03205C2A03200022B349B0
:104C0000B348C1E903220B70B24B42731A604A6188
:104C10000A778A6194F9013060789342FEF6ADAF6D
:104C20005021AD4BAD4A1B68126858701970158041
:104C3000FEF7A3BF142D7FF49DADD4F8031001201F
:104C4000FDF704FCD4F8071005463046FDF7FEFBDF
:104C50000346D4F80B1003201D43FDF7F7FB034672
:104C6000D4F80F100420ADB21D43FDF7EFFB03464F
:104C7000E17C0520ADB21D43FDF7E8FBADB245EA8E
:104C800000039BB2944A954912680968002B00F012
:104C9000F0817F207225032310702078957050706A
:104CA0000B80FEF76ABF042D7FF493A94378012B94
:104CB0007FF472AA854B1A78022A7FF4B5AE1B7F67
:104CC000022B40F0F481FEF7E7FC00287FF4AAAA4B
:104CD00004212046FEF70AFE804B1B681A88002A32
:104CE0003EF44BAFFFF766B958685969411A092974
:104CF00000F2FA807F2037250321774B774A1B6823
:104D00001268187020789D7058701180FEF735BFBA
:104D1000002B00F08D800026013B411DDB0011F8C7
:104D2000012F9A40083B13F1080F46EA0206F6D11C
:104D300040F6FE739E427CD97F2031250321664BCD
:104D4000664A1B681268187020789D705870118030
:104D5000FEF713BF01333373237800214033137000
:104D6000637802F8013FB3680BE034680131E35C1B
:104D7000B1F57F6F02F8013FB36803F10103B3603F
:104D800003D07468A342F0D389B2726802319342AF
:104D90000180FEF4F2AE03237373FEF7EEBE7F22B2
:104DA00072203B681A7021784C4A597098701368C9
:104DB0001D80FFF764BAB9F1000F00F071817F2107
:104DC0003B687225197003212078444A58709D7001
:104DD00013681980FFF753BA3C4B1A78022A00F087
:104DE000F0807F227F2503203B4B3C491B680968EC
:104DF0001D7024789A705C700880FEF7BEBE062095
:104E000005995971090A19713080FFF738BABFF353
:104E10004F8FBFF36F8F431D9847FFF7CBB91F46E6
:104E200063E5D4F8031009BAFDF710FB034629E740
:104E30001E46D4F802502DBA71192846FEF776FBAB
:104E4000254B264A1B681168002800F01D81227836
:104E5000ED1A40321A709A1902E0E85C03F8010F6B
:104E60009A42FAD1731C0B80FEF787BE4178012964
:104E700000F0D980022940F0F08000201849087025
:104E8000FFF7B5B8828840F6FB7052BA92B2824200
:104E900040F2CD807F2231200A70227888704A70DB
:104EA000FFF7F4B84378012B7FF476A90379002B40
:104EB00000F04A81012B7FF471A80A48FDF754F8ED
:104EC00029462046FEF712FD06E700BF302A0320E0
:104ED0005C2A0320582A0320542A0320502A032046
:104EE000262A0320800E0108197F012900F0EF8097
:104EF0007F2024250321B64BB64A1B681268187020
:104F000020789D7058701180FEF737BE21462078BA
:104F100040301070A81E14FA80F00C4611F8017F82
:104F2000844202F8017FF8D1FFF76AB80133337386
:104F300002F0B2FCB8F1000F5ED02746AA46A9469F
:104F4000B0683B797A791B0403EB0263FA78397A0B
:104F500003EB02237A7A090401EB0261BA780AF1C1
:104F6000080A134419EB0302FB79083701EB03230A
:104F7000316801F58021084417F8021C0B44FEF744
:104F800003FC40EA0503B068D04500F10800DDB23B
:104F9000B060D6D802F094FCD6E901329A4224BF20
:104FA0000323737385B37F2172200322884B1B6810
:104FB0001970217898705970864B1B681A80FEF71B
:104FC000DCBD1B7F022B2CD1D4F802502DBA284611
:104FD0007919FEF79BFA002840F0BE807F2031252A
:104FE00003217B4B7B4A1B681268187020789D70E8
:104FF00058701180FEF7C1BD02F062FCD6E90123B2
:105000009A4201D8032373730220714A71492378AD
:105010001268647809684033137054700880FEF792
:10502000ACBD3322DEE66C480170FEF7E0BF7120B4
:105030000870084665784D70A5788D70E478002179
:10504000151F00F8034F02E000F8011F01318D42E7
:10505000FADC043292B2FEF7ACBF7F21122011704D
:10506000217890705170FEF7DABF5C480170FEF74E
:10507000BEBF60782378A57850700320403313704A
:1050800095700880FEF779BD7F20312503221870C6
:1050900020789D7058700A80FEF76FBD0121A0E452
:1050A0004C4A9B00116803330B80FFF7E8B83322AA
:1050B000FFF757B81B7F022BF9D14378012B7FF400
:1050C0006BA8FEF7B3FA00287FF4ACA800E6D4F88A
:1050D00002101D6909BA8D4212D000277F2658613F
:1050E0003525032001329A61394A3A4912681F77FF
:1050F000167023780968537095700880FEF73DBDDF
:105100001E7794F90130002BFEF637AD40F267218F
:105110002F4A304B12681B6811801E80FEF72DBD90
:105120001B7F022BC3D12E4B5B7B042BC9D07F206E
:105130002221FEF735BFFEF747FA00BBFEF750FA13
:1051400000287FF46FA8C3E52648FCF70DFF294629
:105150002046FEF7CBFBBFE5022F23D0042F1CD047
:10516000082F12D06FF00603E21D1B1B02E012F89D
:10517000011F29709918B942F9D3314631E40BF077
:10518000A7FA00287FF44EA8A2E5A168E0680BBA50
:1051900002BA3146C5E9002323E4A36831461BBAAD
:1051A0002B601EE4238931465BBA2B8019E47F22F1
:1051B000002631200321064B0B4D1B682E601A7010
:1051C000044A247812685C7098701180FEF7D5BC90
:1051D000542A0320502A0320262A03207600032085
:1051E0005C2A0320940E0108582A032038B50024B5
:1051F0000122094B09490A4D4C73586009490A4874
:10520000C3E90344C3E905442C601A701C77FDF719
:105210001DFA204638BD00BF302A03205C2A032037
:10522000582A03208000032058A00120114B01467A
:105230001A78032A02D01048FDF7A2BB41F2883049
:105240005A688A1A8242F6D900224FF0010C0B48A4
:1052500010B40B4C427383F800C01A7722600648E2
:105260005DF8044BC3E90322C3E905225960FDF749
:1052700087BB00BF302A032058A001205C2A0320EE
:10528000582A03200146024A0248FDF78FBB00BF9F
:10529000A800032058A001202DE9F043002585B087
:1052A00004468DF80D50ADF80E50D0E90050B0F125
:1052B000804F0F4690461E46C5F382690CD038B920
:1052C00040F2E1739D4263D040F2DF739D420ED005
:1052D000002005B0BDE8F083C5F30743DA2BC5F322
:1052E000072200F09980DB2BF2D1FF2AF0D1E06891
:1052F00000F044F90028EBD03B780F2BE8D8002BC6
:1053000000F09680072BE3D801388342E0D8A269E9
:105310000137ADF80E30A2F500120123B2FA82F285
:105320008DF80D30504B520983F826216168B1F198
:10533000804F00F08F8040F2E97200214B484C4BC7
:105340000260C3E9002141604FF0FF3301220DF1FB
:105350000D01306809F0A6F84FF0FF330222044631
:105360000DF10E01306809F09DF802464FF0FF3351
:10537000144439463068BDF80E2009F093F8BDF8A2
:105380000E3004440333A34244D0FBF717FE41E040
:1053900040F2E973364AC2E90030344AC2E90030CB
:1053A000E06800F0EBF8CDF80080A369314CA3F57C
:1053B0000013B3FA83F301463A4620465B09FDF732
:1053C0006FF92578022D83D100274FF0FF3301229A
:1053D0000DF10D0130688DF80D7009F063F82A4663
:1053E0004FF0FF330546A11C306809F05BF8024618
:1053F0004FF0FF3315443068628804F10D0109F065
:1054000051F8638805440333AB4201D0FBF7D6FD66
:105410000023237001205CE7132A7FF459AF2B028D
:105420009BB243EA896343F45A0343F01303B1E7A1
:10543000A269B2F5001F7FF44BAF08287FF648AF92
:105440007B78002B3FF444AF023883423FF640AFF5
:1054500002375EE72A0292B242EA896242F45A02B5
:1054600042F013026AE700BF58C001208000032009
:10547000A800032058A001204FF0000C10B5029C9A
:10548000A4F800C08C460D490B600D490C600D4915
:105490004860114622B1BDE810406046FEF7D4BA1C
:1054A0004FF07F0E8CF800201320032283F800E0D9
:1054B0009CF8001098705970228010BD542A032067
:1054C000502A0320302A03204FF0000C10B5029C14
:1054D000A4F800C08C460D490B600D490C600D49C5
:1054E0004860114622B1BDE810406046FEF7ACBAF4
:1054F0004FF07F0E8CF800201320032283F800E089
:105500009CF8001098705970228010BD542A032016
:10551000502A0320302A032038B5049A12884AB151
:105520001978512907D0C72904D1012A02D05B7804
:10553000032B08D038BD4FF4FA7008F0DFFABDE84D
:10554000384001F0FDBA4FF4FA7008F0D7FA0123A1
:10555000084C25782370FCF77DFA4FF47A7008F038
:10556000CDFA054BEDB21868FCF77CFAFCF7CAF9E6
:10557000257038BD76000320582A0320014BC0B2A5
:10558000185C704770100108704700BF0AB10AF03C
:10559000AFBF70474AB1013A4B1E0138114413F8AE
:1055A000012F8B4200F8012FF9D17047421E11F8EC
:1055B000013B02F8013F002BF9D1704708B5037891
:1055C0002BB10130FAF73CFE013080B208BD18461D
:1055D00008BD00BF4FF47A7202FB00F0024BA3FB40
:1055E0000030800908F08ABAD34D6210F8B54178CE
:1055F000072909D942F2FE2002221649164B0968F2
:105600001B6808801A80F8BD144D044628690144BF
:10561000FDF78CFF0F4A104B012816681F6805D054
:1056200042F2FE22022332803B80F8BDFF2333701A
:10563000637863B100232A6912780133DBB2F25434
:105640002A6901322A6161789942F5D8481C38806C
:10565000F8BD00BF702A03206C2A0320742A03209F
:1056600000220146034B1046C3E903221A70596019
:105670001A817047742A0320084B1A785AB14EF6E3
:1056800060215A68821A8A4205D90022C3E903229E
:1056900058601A701A810020704700BF742A0320D6
:1056A00038B5D0B20C46FFF76FFF074DE86002E057
:1056B0000A2008F023FA21462846FCF77DFA002844
:1056C000F6D1012038BD00BFD000032070B5D0E96D
:1056D0000042B2F1804F0D461E4682B007D01AB983
:1056E00040F252539C4219D0002002B070BDC4F366
:1056F0000743EF2BF8D1C4F30723132BF4D1E3B204
:105700003F2B01D05A2BEFD123029BB204F0E0547F
:105710001C4344F46F0444F0130401E040F253547A
:10572000124BC068C3E90042FFF728FFADF806003E
:105730000028D9D04FF0FF3302220DF10601306866
:1057400008F0B0FE4FF0FF3304462946BDF80620AE
:10575000306808F0A7FEBDF8063004440233A342C7
:1057600001D10120C1E7FBF729FCFAE7D0000320B3
:105770002DE9F041069D944F944E954C3560606044
:105780003B604AB1FF2018700878FF2824D094F8B5
:1057900000C0BCF1010F01D0BDE8F081CE38302847
:1057A00027D8DFE800F033262626262626262626BA
:1057B000262C2C262626262626262626262626267D
:1057C00026332626262626262626268D837C7461C9
:1057D00053264339AFA16C00012A00F098804A7823
:1057E000002A00F0948042F2FE21022219802A80D1
:1057F000D2E742F2FE01022219802A80CCE7002281
:10580000C3F801205A6008232B80C5E7002103223A
:10581000A3F801102A80BFE7002201200821C3F865
:105820000120A3F80520D8712980B5E7012A30D0DE
:105830004A78002AD7D104200821C3F80120A3F810
:105840000520644AD87129802261A5E7012A20D069
:10585000227A012A03D04A78002A00F082800021AF
:10586000022259702A8097E7052A12D9627A012A02
:1058700064D042F6FE11022219802A808CE70023B0
:105880000122C4E90333237023812A8084E7082A94
:105890004ED042F2FE11022219802A807CE7012AB2
:1058A000F7D0BDE8F0410846FFF7A0BE072AF0D9BF
:1058B0004B6808461BBA2361BDE8F041FFF796BE6E
:1058C000072AE6D94D68206995FA85F808EB0001AA
:1058D000FDF72CFE01283F68366857D042F2FE22C1
:1058E00002233A80338057E700215970227A06203C
:1058F000013A18BF01221201D970197159719A70B9
:10590000288049E7FE21022219802A8044E70022EC
:1059100001214FF4807608202F4FC4E90322228111
:105920002170C3F80170A3F80560D971288033E7AE
:1059300001224B681BBA23612A802DE7D1F802109F
:10594000E668264809BA7040884236D0002242F202
:10595000FE50022118802980C4E90322227022818E
:105960001AE7FDF7B7FF0121042206253B68E06036
:1059700061725A70E27B31689A70E289DA70E2688B
:10598000120A1A71E2685A710D8005E75DB10023B1
:105990001D46226912F8011B013398450D4422610E
:1059A000F8D895FA85F8032100220823C7F8048067
:1059B000A7F80110FA703380EEE62281002102225E
:1059C00059702A80E8E600BF702A03206C2A032061
:1059D000742A032080100108000108087856341248
:1059E00010B50F4B82B0186E002240F0010018660F
:1059F0001C6E072104F001040094009C9C6D6FF064
:105A0000010044F080549C659B6D03F0805301932A
:105A1000019B01F03BF802B0BDE8104003F0D0BE9E
:105A20000010024070B500210446ACB0942207A8D3
:105A3000CDE90211CDE9041106910AF059FD324B6E
:105A400022689A4201D02CB070BD03234FF48042EB
:105A50004FF08051CDE90723099318221123279194
:105A6000CDE90A23022108224FF0807307A8CDE96F
:105A70000D230C9104F082FD00283BD1234B00261E
:105A8000DA6C02A942F40052DA64DA6C204D02F4B6
:105A900000520092009ADA6C42F00102DA64DB6C88
:105AA000322203F001030193032301981948CDE941
:105AB0000223049602F0D8F980224FF48073052166
:105AC000C5E903626B614FF480622023C5E90116CA
:105AD00011492846C5E906232E62296001F0E4F841
