:020000040800F2
:100000000000042045690008C1670008C5670008B2
:10001000C9670008CD670008D16700089569000826
:10002000000000000000000000000000610E010858
:10003000D567000800000000F10D010895E60008F2
:100040009569000895690008956900089569000898
:100050009569000895690008956900089569000888
:100060009569000895690008956900089569000878
:100070009569000895690008956900089569000868
:100080009569000895690008956900089569000858
:100090009569000895690008956900089569000848
:1000A0009569000895690008956900089569000838
:1000B00095690008D9670008E56700089569000898
:1000C0009569000895690008956900089569000818
:1000D000956900089569000895690008F1670008AE
:1000E000FD6700089569000809680008956900081F
:1000F00095690008956900089569000895690008E8
:1001000095690008156800082168000895690008CD
:1001100095690008956900089569000895690008C7
:10012000956900082D68000839680008956900087D
:1001300045680008956900089569000895690008F8
:1001400095690008956900085168000895690008DC
:100150009569000895690008956900089569000887
:10016000956900085D6800089569000895690008B0
:100170009569000800000000956900080000000073
:100180006968000895690008956900089569000884
:100190009569000895690008956900089569000847
:1001A0009569000895690008956900089569000837
:1001B000956900080000000075680008956900084E
:1001C000956900080000000095690008956900081D
:1001D0009569000895690008956900089569000807
:1001E00095690008956900089569000895690008F7
:0401F000000000000B
:1002000010B5054C237833B9044B13B10448AFF350
:1002100000800123237010BD600203200000000055
:10022000B813010808B5034B1BB103490348AFF3EA
:10023000008008BD0000000064020320B81301081C
:10024000034613F8012B002AFBD1181A0138704716
:10025000704700BF02F01EB8F0B52B4C2B4E9BB080
:100260004FF0FF332822694620680FF087F82828CE
:10027000F6D1039805F02EFD054600283BD1029BE0
:10028000D3B929460AAA009802F0A0F80FF07CFD25
:100290000AA90246684602F01FFA0FF075FD0AA986
:1002A0000246684601F07EFE0FF06EFD0AA9024686
:1002B000684601F0D5FFD3E7B3F1005FEDD140F21E
:1002C0000372009B9342E8D10822039900279142D0
:1002D00028BF11460D46C6E90577B760019F0C4956
:1002E0000C48C6E90037F56005F000FD30460949C5
:1002F00001F0C6FCD1E74FF0FF332A4620680AA977
:100300000FF03CF8BBE700BFB827032090020320A2
:100310009005FA0B840203202DE9F0431F4D9BB09A
:10032000DFF8808001AE0AAF002404EBC401C4F101
:1003300024024FF0FF33286806EB81010FF01EF80E
:100340000444232CF1D9049805F0C4FC039B814696
:10035000B3F1005F00D0A0B9114807F0B5FD50B16E
:100360003A4631460E4807F079FCD8F80C30013394
:10037000C8F80C30D8E74FF0FF3201210FF098FF9A
:10038000EAE70024A9EB040239194FF0FF3328688B
:100390000EF0F4FF04444C45F4D3DDE7B42703200A
:1003A000582603200000032000B583B001F0ACFF05
:1003B00001F00CFB03221B491B4806F0E5FE03F08D
:1003C000E5FB00F037FE03F0FDFB0FF0DDFC01F074
:1003D000E3FD0FF0D9FC01F03DFF14480BF058FC91
:1003E00013480BF01DFC134C0FF0CEFC019003F0F2
:1003F000CFFB019803F0ECFB019800F033FE23786B
:100400002BB9019802F0D4F8019801F053FE01983D
:1004100001F030FF019802F053F90A2101A80FF012
:10042000F3FBE1E7182A0320482703209023032049
:10043000F8220320760003202DE9F0410026214D0B
:10044000DFF88C80204FA6B012E010F077FB98F810
:10045000003033B10B9B23B164200EF0D3F901F0CF
:10046000B5FA002202231146386800960FF0A2FF69
:100470004FF0FF32012100200FF01AFF10F050FB67
:10048000124807F077FE044606A9104807F0E2FC80
:1004900002A90E4807F006FD5422294611A8AC60B7
:1004A00010F032FF094B1E66189BB3F5003FCCD904
:1004B000AB689B02C9D5012385F820300B9301F06E
:1004C0002DFBC2E700000320181B03205826032041
:1004D0008002032000232DE9F04D84B07D4EDFF82B
:1004E0000082DFF804B27C4DDFF800A20DF10E07A8
:1004F0008DF80B3013E028680EF04AFE012808D969
:100500004FF0FF330222286803A90EF037FF0228BC
:1005100045D000214FF0FF3208460FF0C9FE306889
:100520000EF036FE0028E6D04FF0FF33012230688F
:100530000DF10B010EF022FF0128DCD130680EF026
:1005400027FE0128D7D94FF0FF330222306803A9D4
:100550000EF014FF0228CED1BDF80C20B2F5845F56
:10056000C9D8002A40F0A5809DF80B40002C52D13C
:100570000FF00AFC594B5A49BDF80C20009705F0C2
:1005800027FBBDF80E30002B79D10FF0FDFB534B4C
:100590005349BDF80C20009705F06AFBABE7BDF8A6
:1005A0000C20B2F5805FB4D272B10024121B08EBAC
:1005B00004014FF0FF3328680EF0E0FEBDF80C2078
:1005C000204484B2A242F1D10FF0DEFB434B4146FE
:1005D000BDF80C20009705F0ABFCBDF80E30002BE9
:1005E00097D039464FF0FF330222DAF800000EF0C0
:1005F000DDFDBDF80E204FF0FF333849DAF800007A
:100600000EF0D4FD002202231146DBF80000009218
:100610000FF0D0FE7DE70FF0B7FB304B3049BDF84F
:100620000C20009705F0FCFABDF80E30002BACD082
:100630002A490A787F2A08D1022BA6D98B78A3F100
:100640001102012AA1D9312B9FD0264839460446F0
:100650004FF0FF33022200680EF0A8FDBDF80E2017
:100660004FF0FF331D4920680EF0A0FD0022022349
:100670001146DBF8000000920FF09CFE85E7194858
:1006800039464FF0FF33022200680EF08FFD154807
:10069000BDF80E204FF0FF33104900680EF086FDC4
:1006A000022322462146DBF8000000940FF082FE70
:1006B0006BE70024121B4FF0FF3308EB0401306896
:1006C0000EF05CFEBDF80C2023189CB2A242F1D1C2
:1006D0004AE700BFC4020320B8020320507F012074
:1006E000D48F0120C002032058080320B402032045
:1006F0002DE9F04FDFF8148185B0404E404DDFF812
:1007000010A108F19C0908F5805B02AF14E028688D
:100710000EF03EFD012809D94FF0FF330222286870
:100720000DF106010EF02AFE022846D000214FF0FE
:10073000FF3208460FF0BCFD30680EF029FD01289D
:10074000E5D94FF0FF3302222E4930680EF016FE35
:100750000228DCD1B8F89420B2F5845FD7D872B102
:100760000024121B09EB04014FF0FF3330680EF038
:1007700005FEB8F89420204484B2A242F1D10FF0D3
:1007800003FB0146204802F09DFB0028BFD103E097
:100790009BF823010EF036F80FF0F6FA05F01EF97B
:1007A0000128B4D030680EF0F3FC0128AFD89AF8D5
:1007B0000030002BECD10A20ECE7BDF80620082A17
:1007C000B4D86AB10024121B39194FF0FF332868DE
:1007D0000EF0D4FDBDF80620204484B2A242F2D12E
:1007E0000FF0D2FA3946BDF8062005F039FB012892
:1007F0009CD00A200EF006F8F2E700BFC0020320EA
:10080000B4020320ECB0012058A0012058B0012010
:100810007600032001F042BD01F044BD002001F04C
:1008200045BD00BF0022024B02481A600BF030BAEF
:100830007C02032044230320014B1868704700BF4B
:100840007C0203200000000010B59EB04822002169
:100850000CA810F0CDFC00234FF40070CDE902335A
:10086000CDE90433CDE90733CDE90933019306938C
:100870000B9309F0D7FB08B172B6FEE70123022201
:10088000169311931993179210231D9207229FED2F
:100890001E7BCDE91A320324042312900CA81C936A
:1008A0008DED0C7B189409F0F9FD034608B172B682
:1008B000FEE70F22214601A8CDE9033305930294F8
:1008C000019209F097FC034608B172B6FEE7104AA0
:1008D0004FF0005C916D4BF67F3441F08071916573
:1008E000926D069302F080720092089322222023D8
:1008F00006A8CDE90A230099CDF81CC009940AF096
:100900002DFD1EB010BD00BF290000000000010039
:10091000001002402DE9F04194B072B64FF0006231
:10092000AA4B9A60BFF34F8F62B6002406F034F8EA
:10093000FFF78AFFCDE90E44CDE91044A44D12948F
:10094000EB6C4FF4604143F00403EB64EB6C224624
:1009500003F004030793079BEB6C9E4843F080036E
:10096000EB64EB6C012603F080030893089BEB6CAF
:100970004FF4007843F00103EB64EB6C082703F0BD
:1009800001030993099BEB6C43F00203EB64EB6CEE
:1009900003F002030A930A9B08F084F8224640F20F
:1009A00001118D4808F07EF8224641F2E4018B489F
:1009B00008F078F84FF4604386480EA9CDE90E366A
:1009C0001094119407F0C0FE40F2011382480EA962
:1009D000CDE90E36CDE9104407F0B6FE41F2E4034E
:1009E0007E480EA9CDE90E36CDE9104407F0ACFEE5
:1009F00079480EA9CDE90E84109607F0A5FE784837
:100A00000EA9CDE90E74109407F09EFEAB6C052183
:100A100043F00403AB64AB6C224603F0040304937D
:100A2000049BAB6C1D203343AB64AB6C334005932C
:100A3000059BAB6C43F00203AB64AB6C03F00203A9
:100A40000693069B06F092FC1D2006F0C9FC224688
:100A500005211E2006F08AFC1E2006F0C1FC22465D
:100A60000521502006F082FC502006F0B9FC2046FB
:100A700008F096FB08B172B6FEE708F0A5FB034646
:100A800048B958484360584B03600AF08FFC03464E
:100A900018B172B6FEE772B6FEE710224FF4407E40
:100AA0004FF03C0C0F2113240425504882618262D0
:100AB0004F4AC0E90E634360C360837413704D4BAB
:100AC000C0E907C40360C0E90C560682466146626D
:100AD000C0F808E0C16206F017FF0346D8B9072244
:100AE0004FF4E0614FF482744348C0E90433C0E935
:100AF0000833C0E90A3283600363404BC0F81880B2
:100B00000360C76147634460C1600AF073FE034637
:100B100018B172B6FEE772B6FEE70BAF0B90CDE9E7
:100B20000E00CDE91000CDE91200C7E901004FF435
:100B300080704FF4301C03214FF48052304CC4E9D4
:100B4000023384F82030A362E36284F838302D4BFE
:100B500020832046266184F830606561C4F804C0B3
:100B6000E1616263236005F03BFF08B172B6FEE706
:100B70000B903946204606F081FB08B172B6FEE7BD
:100B800006237F220F93204B109013900EA920462E
:100B9000129511920E9306F051F808B172B6FEE765
:100BA0000C231A4A20460EA90E920F9306F046F81F
:100BB00008B172B6FEE71223154A20460EA90E921E
:100BC0000F9306F03BF828B372B6FEE700ED00E0A5
:100BD00000100240000802420000024200040242EB
:100BE000001C02425C25032000080C42582603200A
:100BF0008002032000A40040F824032000380040B5
:100C00004827032000800242400020190002B0253E
:100C10000004002A002301225149C1E905338B80D9
:100C2000504B08460B600A6206F00CFC034608B104
:100C300072B6FEE74C484D4AC37202604FF402732D
:100C400002228380C0F8072008F0C8FA08B172B603
:100C5000FEE741F63F75464C464ACDE90E00C4E931
:100C600001001090A06120462260E5600BF000FAC0
:100C7000034608B172B6FEE720460EA90E93109304
:100C80000BF028FA034608B172B6FEE73A4CCDE9FC
:100C90000E331093A360A36142F20F73374A2046CC
:100CA000C4E90023E5600BF0E3F9034608B172B62E
:100CB000FEE720460EA90E9310930BF00BFA0346A5
:100CC00008B172B6FEE74F254FF6FF742C482D4A47
:100CD000C0E904338360836102604560C4600BF047
:100CE000C7F9034608B172B6FEE72748C0E90153C9
:100CF000C0E90343C0E90533244B03600BF0B8F9A6
:100D000008B172B6FEE74FF080414FF0FF32204C41
:100D10000B90CDE90E00CDE91000C7E90100C4E950
:100D200001002061A06120462160E2600BF0A0F983
:100D300008B172B6FEE74FF4805320460EA90E9319
:100D40000AF0E4FF08B172B6FEE700233946104806
:100D50000B930D930BF0BEF90446D8B172B6FEE7C3
:100D6000BC26032000300240D01F032000D40040E6
:100D7000442303200014004090230320001000406F
:100D8000F822032000440140AC2203200048014027
:100D9000DC230320624822460121624B0090CDE90A
:100DA000014446F206000EF09BF902465E4D5F4E8E
:100DB00000950121CDE901445D4B326046F2060009
:100DC00022460EF08DF95B4B5B4A01210092CDE982
:100DD000014422461860594B4FF47A600EF080F9B6
:100DE000574D584B224600930121CDE90144564B03
:100DF00028604FF47A600EF073F9544B224600934A
:100E0000534B0121CDE901441860524B4FF4A040EF
:100E10000EF066F9504B22460093504B0121CDE96C
:100E2000014418604E4B4FF4A0400EF059F94D4B61
:100E30004D4918604D4802F05BFF01F0F7FC0EF0E1
:100E4000A3FF32464A4B4B49009501F01FFC4A482C
:100E500002F08EFF494801F053F84948494A4A498F
:100E600000F09AFD0EA80E9401F0D6FC20B90E9B5E
:100E700013B9464801F0A8FC0DF01AFC0021444AC1
:100E800044480DF065FC0446434B0021434A444866
:100E90001C600DF05DFC0446424B0021424A434871
:100EA0001C600DF055FC0446374B0021404A414878
:100EB0001C600DF04DFC04462B4B00213E4A3F4880
:100EC0001C600DF045FC04462E4B00213C4A3D4879
:100ED0001C600DF03DFC0446264B00213A4A3B487D
:100EE0001C600DF035FC0446394B0021394A3A4864
:100EF0001C600DF02DFC0446384B0021384A39485F
:100F00001C600DF025FC0446374B0021374A384859
:100F10001C600DF01DFC374B18600DF0EBFBFEE77D
:100F20007C030320481F012058030320C402032030
:100F300040BF0020C002032034030320A0AF0020E4
:100F4000B80203201003032000A00020EC020320BD
:100F5000B402032000500020C8020320B827032059
:100F600000000020B427032068160320F824032083
:100F7000BC020320080D03205C250320BC260320AF
:100F800058260320B8110320181B03200400918069
:100F90001C17010855020008CC1F0320F816010891
:100FA00059020008C81F0320D416010819030008BD
:100FB000B0160108A90300088C16010839040008BE
:100FC00068160108D504000844160108F106000857
:100FD000580803202016010815080008A80303205C
:100FE000FC15010819080008A4030320D8150108FE
:100FF0001D080008A0030320094A0368934206D095
:10100000084A93420AD0084A934205D07047074ADB
:10101000136801331360704701F034B905F0CEBC9A
:1010200000140040002C0140001000407C0203200E
:1010300072B6FEE7024B0348DB8B037002F078BE0A
:1010400054000320B1270320054AD38B9BB211B172
:101050000343D383704723EA0003D383704700BF61
:101060005400032070B5154E154D336804461B68B7
:10107000A88B1B6F134980B298473368E88B1B68B5
:101080001149D3F8803080B2984740F6B7330F4A01
:10109000E98B9C4211700E4B01D8197831B10122B5
:1010A0001A700A48BDE8704002F042BEFF23137078
:1010B0000648BDE8704002F03BBE00BF7C00032044
:1010C0005400032044290320B8290320B12703201A
:1010D000B02703200870704700787047030A087033
:1010E0004B707047012994BF00780088704700BF9B
:1010F000012908D94FF6FE2302889A4203D8981A8C
:10110000C0F34F0070470020704700BF012911D97C
:101110004378FA2B07D8084AC3EB0330A2FB002020
:10112000C0F30F10704740F6FF72FF2B0CBF00207A
:101130001046704700207047D34D6210022907D92E
:101140004FF6FF73B0F80100984208BF00207047C7
:1011500000207047042907D94FF6FF73B0F8030049
:10116000984208BF0020704700207047012907D926
:101170004FF6FF730088984208BF4FF40060704735
:101180000020704701290ED94FF6FF73008898425E
:1011900009D047F27F53984238BF1846A0F5EA407D
:1011A0007F3880B270474FF400607047032986BFD4
:1011B000C078C0F381000020704700BF09B10078FB
:1011C00070470846704700BF012906D9437803F0ED
:1011D0000F03013BDBB2022B01D900207047024A0A
:1011E00032F81300704700BF4017010819B10178A9
:1011F000C1F3810070470846704700BF032986BFCE
:10120000C07800F003000020704700BF034600B51F
:1012100083B008465BBA02220DF10601ADF8063034
:1012200004F064FD03B000BD8446002310B50C46F5
:1012300082B00DF1060002226146ADF8063004F0DE
:1012400055FDBDF80600012C98BFC0B240BA80B26F
:1012500002B010BD002300B5012983B0ADF80630FF
:1012600002D8184603B000BD014602220DF1060067
:1012700004F03CFD9DF8060003B000BD38B50D46F6
:1012800004460822FF21284604F02CFDB4F5FB4F4C
:101290000ADAC4F5FA447F34640004F0FE03C4F3B0
:1012A00007242B706C7038BD002423466C702B70A3
:1012B00038BD00BF38B50D460822FF210446284638
:1012C00004F010FDFA2204FB02F2044BA3FB02130C
:1012D000D21A03EB5203DB0A6B7038BD0101100018
:1012E00038B50C4605460822FF21204604F0FAFCDA
:1012F0002B0A6570A37038BD38B50C460546082228
:10130000FF21204604F0EEFC2B0AE570237138BD66
:1013100038B50C4605460822FF21204604F0E2FCC1
:101320002B0A2570637038BD38B50C460822054677
:10133000FF21204604F0D6FC48F6802247F27F5376
:10134000954294BF5B199B189BB21A0A2370627076
:1013500038BD00BF38B50D4604460822FF21284697
:101360007D3404F0BFFCAC7038BD00BF38B50D460D
:1013700004460822FF21284604F0B4FCEB78A400C0
:1013800023F00C0304F00C042343EB7038BD00BFC2
:1013900038B50C4605460822FF21204604F0A2FC81
:1013A000257038BDFF2838B50D460FD9C3B2002BC4
:1013B0000CBF012403240822FF21284604F092FCDC
:1013C0006B7823F00F031C436C7038BD031E18BFED
:1013D00001235C00EFE700BF38B50D460446082244
:1013E000FF21284604F07EFC2B78A40023F00C0398
:1013F00004F00C0423432B7038BD00BF38B50C46F5
:1014000005460822FF21204604F06CFCE37805F035
:10141000030523F003032B43E37038BD38B50D46B5
:1014200004460822FF21284604F05CFC012C0AD067
:10143000022C05D0032C0CBFD723FF23AB7038BD83
:10144000C723AB7038BDC323AB7038BD38B50C466D
:1014500005460822FF21204604F044FCEBB2022B93
:1014600012D0032B09D0042B0CBF51230023FF2DD6
:1014700088BF43F00403237038BD1123FF2D88BFBC
:1014800043F00403237038BD0123FF2D88BF43F0D0
:101490000403237038BD00BF38B50C46054608224A
:1014A000FF21204604F01EFC15F0080F0CBF0021A0
:1014B000FA2115F0100F0CBF0022FA2215F0200FB0
:1014C0000CBF0023FA2315F0400F0CBF0020FA20B8
:1014D00015F0800FE0700CBF0020FA2015F0010F0E
:1014E00021700CBF0021FA2115F0020F62700CBFB1
:1014F0000022FA2215F0040FA3700CBF0023FA2378
:1015000020716171A271E37138BD00BF022906D953
:1015100080787D38C0B2812888BF002070470020C5
:10152000704700BF032906D9C0787D38C0B2812832
:1015300088BF002070470020704700BF02290FD9E4
:10154000837803F00C02042A01D001207047C3F312
:101550000113012B06D0002B0CBF02200120704785
:10156000002070470320704707292DD9037842785F
:10157000A3F1FA03B3FA83F3FA2A4FEA53138278FA
:101580004FEAC30308BF43F01003FA2AC27808BF2A
:1015900043F02003FA2A027908BF43F04003FA2AF5
:1015A000427908BF43F08003FA2A827908BF43F0EA
:1015B0000103FA2AC27908BF43F00203FA2A08BFDE
:1015C00043F00403184670470020704700787047C6
:1015D000D9B103789A09012A0ED003F03002102AFB
:1015E00015D003F00302012A14BF0120022003F0EA
:1015F0000C03042B06D0704703F00C03042B4FF0B0
:101600000400F8D140F47F4070470846704703203B
:10161000EDE700BF007870470078704700787047AA
:1016200000787047087070470870704708707047FE
:101630000870704708707047030A08704B70704755
:10164000012994BF00780088704700BF38B50D4667
:101650000822FF210446284604F044FBFA2204FB3A
:1016600002F2044BA3FB0213D21A03EB5203DB0A70
:101670006B7038BD01011000012911D94378FA2B94
:1016800007D8084AC3EB0330A2FB0020C0F30F10B9
:10169000704740F6FF72FF2B0CBF002010467047CA
:1016A00000207047D34D6210034600B583B0084652
:1016B0005BBA02220DF10601ADF8063004F016FB0C
:1016C00003B000BD034600B583B008465BBA0222F2
:1016D0000DF10601ADF8063004F008FB03B000BDC3
:1016E000034600B583B008465BBA02220DF106013D
:1016F000ADF8063004F0FAFA03B000BD034600B5B9
:1017000083B008465BBA02220DF10601ADF806303F
:1017100004F0ECFA03B000BD034600B583B0084600
:101720005BBA02220DF10601ADF8063004F0DEFAD4
:1017300003B000BD034600B583B008465BBA022281
:101740000DF10601ADF8063004F0D0FA03B000BD8B
:10175000034600B583B008465BBA02220DF10601CC
:10176000ADF8063004F0C2FA03B000BD8446002391
:1017700010B50C4682B00DF1060002226146ADF8AC
:10178000063004F0B3FABDF80600012C98BFC0B2D1
:1017900040BA80B202B010BD8446002310B50C469A
:1017A00082B00DF1060002226146ADF8063004F069
:1017B0009DFABDF80600012C98BFC0B240BA80B2B5
:1017C00002B010BD8446002310B50C4682B00DF166
:1017D000060002226146ADF8063004F087FABDF833
:1017E0000600012C98BFC0B240BA80B202B010BD52
:1017F0008446002310B50C4682B00DF1060002228B
:101800006146ADF8063004F071FABDF80600012C0F
:1018100098BFC0B240BA80B202B010BD8446002367
:1018200010B50C4682B00DF1060002226146ADF8FB
:10183000063004F05BFABDF80600012C98BFC0B278
:1018400040BA80B202B010BD8446002310B50C46E9
:1018500082B00DF1060002226146ADF8063004F0B8
:1018600045FABDF80600012C98BFC0B240BA80B25C
:1018700002B010BD8446002310B50C4682B00DF1B5
:10188000060002226146ADF8063004F02FFABDF8DA
:101890000600012C98BFC0B240BA80B202B010BDA1
:1018A000002300B5012983B0ADF8063002D81846F0
:1018B00003B000BD014602220DF1060004F016FA45
:1018C000BDF80600000A03B000BD00BF012918D909
:1018D000037803F00302012A17D003F00C02042A54
:1018E00015D003F03002102A0DD003F0C003402BB6
:1018F0000FD0437803F00303012B0CBF0620012017
:101900007047002070470520704702207047032071
:1019100070470420704700BF4FF08041022201232E
:101920002DE9F041174C0025C4E91123164E174F3D
:10193000DFF86080E16311E0D8F800202365937C34
:10194000003B18BF012312493868A36406F0C6F8AB
:1019500078B96B1C022B4FF0010511D056F8043BEF
:101960002564E364002BE7D06FF060420123226519
:10197000E9E7FFF75DFB6B1C022B4FF00105EDD192
:10198000BDE8F0810000032058180108AC280320AE
:101990003C0003207C00032038B50C46064D074967
:1019A000074B0A602860074901201C600DF038F9D8
:1019B000054B186038BD00BFAC280320A4280320C5
:1019C000A8280320BC2703200C280320F0B54D4E87
:1019D00083B0306806F02CF9306805F095FF0028D8
:1019E0006FD10022484D402148482A71EA602A619F
:1019F0006A61AA61AA60EA6185F8202007F052F8BE
:101A0000306806F015F90D2202233068C0E90D2375
:101A100005F07AFF002871D100240222012340F250
:101A2000FF71C5E90B233A4FA9636C6202E00134F0
:101A30000D2C0ED037F8023B36493068AC626B6330
:101A400006F04CF80028F2D00134FFF7F1FA0D2C23
:101A5000F0D1FFF761FF00230222306811460093A6
:101A600006F068F8002846D1306806F085F80028AE
:101A70003ED100220121306806F02CFAA8BB0022DA
:101A80000621306806F026FA60BB07224FF4F051B9
:101A9000306806F01FFA10BB07228021306806F07C
:101AA00019FAC8B900221C49306806F013FA80B947
:101AB00000224FF46021306806F00CFA20B903B020
:101AC000F0BDFFF7B5FA8CE703B0BDE8F040FFF7D3
:101AD000AFBAFFF7ADFAEBE7FFF7AAFAE2E7FFF7D5
:101AE000A7FAD9E7FFF7A4FACFE7FFF7A1FAC6E70D
:101AF000FFF79EFABDE7FFF79BFAB5E7FFF798FA05
:101B00008AE700BFAC280320000003200004024243
:101B1000601801082400032000407100014B186880
:101B200006F086B8AC280320FFF7F6BE384A394BDA
:101B3000904210B41B685BD015D9374A904248D008
:101B400037D8364A90422FD0354A1024801A4FF0A9
:101B500001014FF03F0218BF0120C3E9072459617A
:101B60005DF8044B70474CF2503290423BD028D87D
:101B700042F2107290420DD044F62062904241D160
:101B80001921142213240020C3E9072459615DF8A8
:101B9000044B70473221132414220020C3E9072488
:101BA00059615DF8044B7047022114221324002070
:101BB000EAE71C4A01219042EDD03F22102408465A
:101BC000E2E7194A90421DD1052114221324002076
:101BD000DAE70C22012114460020C3E907245961E9
:101BE0005DF8044B70470A21142213240020CBE730
:101BF0001324042114220020C3E9072459615DF84D
:101C0000044B704701213F2210240846BCE700BF67
:101C100048E80100AC28032000350C0090D00300F8
:101C200020A1070040420F00A08601000346054A9C
:101C30001978002051615978D16199781162DB7867
:101C400093617047582603200246024B00209A6198
:101C5000704700BF58260320034600B5064A93F894
:101C600001E093F800C082F810E004499B7881F805
:101C700000C05374002000BD5826032080020320BA
:101C80002DE9F047054682B0C0680F4604F022F8FF
:101C9000AB68B3F1005F3ED00646824600F12409EE
:101CA000264C4FF0FF3120680DF078F80128F8D16C
:101CB000DFF89480D8F800000DF056FA484517D2A6
:101CC00002251F4A13792B431371002320681A46FB
:101CD00019460CF009FF1B4A022312681068002203
:101CE000114600920EF066FB284602B0BDE8F08770
:101CF00029464FF0FF332422D8F800000DF056FAA1
:101D0000054686B94D450CD00D4A0125137943F09F
:101D100008031371D9E74FF0000A4FF02409564623
:101D2000BEE70025D1E7524639464FF0FF33D8F8D9
:101D300000000DF03BFA0544E4E700BF0C28032047
:101D400000000320A8280320B42703202DE9F04732
:101D500000250C4682B0C9070646019516D4A20795
:101D600007D50221314A137943F001031371336817
:101D70001965630738D4019B2BB14FF0E0234FF076
:101D80008052C3F8042D02B0BDE8F087DFF8A890B8
:101D9000DFF8988040214A46254B05F0C1FFD8F86E
:101DA0001430D9F80C000133C8F8143003F092FF56
:101DB000DFF888A00746DAF800000DF0D5F907F142
:101DC0002803984224D349462822DAF8000001ABC0
:101DD0000DF086FA002FC2D03A46DAF80000144916
:101DE00001AB0DF07DFABAE70424104B11499A6952
:101DF000086801329A611A79002142F008021A71CA
:101E0000336800680DEB04021C650EF0F3FBB2E7CB
:101E1000D8F8183029460133C8F81830054B01AA04
:101E20001B6818680EF0E6FB99E700BF000003206E
:101E300064280320A42803203C280320B82703207B
:101E4000002110B50A4A0B4C1268236982B0106851
:101E5000013301AA236101910EF0CCFB019B2BB150
:101E60004FF0E0234FF08052C3F8042D02B010BDB4
:101E7000A828032000000320002110B50A4A0B4CBB
:101E80001268E36982B01068013301AAE36101912D
:101E90000EF0B0FB019B2BB14FF0E0234FF08052CE
:101EA000C3F8042D02B010BDA428032000000320B5
:101EB00038B50C46104D294605F0CCFFA10303D5DB
:101EC000EB68A3B90D4A1360620309D52B690B4A6D
:101ED000012B13790CBF43F0040303F0FB031371D0
:101EE000230303D50122054B83F8202038BD4FF092
:101EF0000042024B1A60E7E710280320000003208D
:101F0000704700BF91B14FF0FF3210B4084C01444C
:101F100010F8013B5340DBB254F82330884283EA87
:101F20001222F5D1D0435DF8044B70470846704744
:101F30007C1801082DE9F8430024154E0F46306047
:101F40000846C6E90544C6E9014403F0F9FEE8B1D4
:101F5000804612E08146054603F0C2FE0346391969
:101F60004A460C482C44F360A4B203F0BFFE094972
:101F70000748FFF785FEA04508D9A8EB040008280C
:101F8000C0B2E7D908252846A946E5E7BDE8F883A9
:101F9000F0280320E42803200022014B1A60704738
:101FA0001429032038B5836804460D4643B1B3F1C4
:101FB000005F04D140F2727302689A4256D038BD75
:101FC00040F256420368934242D040F25742934255
:101FD00033D0304A93420FD0A368002BEFD1226850
:101FE000B2F58B6FEBD1E268002AE8D101212A4AD1
:101FF0002A481170036038BD2B78502BDFD16B78E5
:10200000342BDCD1AB78242BD9D1EB78242BD6D14F
:102010002B79572BD3D16B79302BD0D1AB79522B75
:10202000CDD1EB79442BCAD140F273701C49FFF734
:1020300081FFA368002BD2D0C1E7082228461949A6
:1020400003F060FE00B3A368002BB8D12368C0E79B
:102050004FF4EE601449FFF76DFFA2682368B2F1F8
:10206000005F0AD140F272729342A8D140F27270BE
:102070000E49FFF75FFFA2682368002A9FD140F254
:1020800057429342A5D1D8E740F271700849FFF753
:1020900051FFD8E7FECA7700B62803201429032091
:1020A000C0140108A0140108701401088814010864
:1020B000AC1401082DE9F843584B1B788BB1584FED
:1020C000584A3B68584903FB02F2B1EB720F32D217
:1020D000564A574903FB02F2B1EBB20F03D2013368
:1020E0003B60BDE8F883002340F2F2600021514DCF
:1020F000514EC5E90001C5E90533DFF84481348854
:10210000DFF84C91AB60002C79D1012003F0E8FDA1
:1021100088F80040E86041464648FFF7B1FD348842
:102120000134A4B2982C4FEAD40234805CD9002246
:102130003B683280D3E700234FF4DE6000213F4E3E
:102140003C4DB6F80080C5E90001C5E90533AB6038
:10215000B8F1000F5CD1022003F0C2FD384CE860FA
:1021600084F8018032883748531C9BB2812B28BFEA
:102170000023D143D2083380835C01F0070213416E
:1021800003F001032E492B482370FFF779FD00204F
:1021900040F2F16200232C4EC5E90023B6F800801E
:1021A000C5E90500A860B8F1000F2DD1012003F0AA
:1021B00097FD84F80080E86032882448531C9BB265
:1021C000912B28BF0023D143D2083380835C01F0D8
:1021D000070213415B0703F0005319491548AB6030
:1021E000FFF74EFD3B6873E7E34319F8022003F065
:1021F000070342FA03F3DB0785D43B686FE700204F
:1022000003F06EFDE86086E703F06AFDE860D3E75F
:10221000012003F065FD0A4CE860A3E7B62803201F
:1022200014290320CDCCCCCC99999919295C8FC263
:10223000285C8F02C0280320B0280320B428032084
:10224000B8280320DC140108B2280320F014010888
:10225000041501080022014B1A6070471C29032055
:10226000034B1B689B7C03B9704700F083BE00BF23
:102270007C000320024A136801331360704700BFDB
:102280001C290320024A136801331360704700BF02
:102290001829032000200DF041BC00BF00200DF0E4
:1022A0003DBC00BF00200DF039BC00BF00200DF088
:1022B00035BC00BF124B1B681989F9B130B400243A
:1022C0005B68104A03EB4111D3E90050C2E90050AA
:1022D0009D6898699561DD682033556153F8105CFD
:1022E0008B42C2E9024553F80C5C02F1740242F8D9
:1022F000105C42F8040CE7D130BC7047704700BF57
:102300007C0003202029032038B50025124B082229
:102310001B6812489C7C124B641B18BF012464424A
:10232000E4B221461D700EF063FF9FED097B0B4B5D
:10233000214603F17400A3F12404082283ED117BEC
:102340000EF056FFC4E93755BDE83840FFF7B2BF7D
:1023500000000000000000007C000320442903204E
:102360007600032048B3F8B5144B1A68824223D094
:10237000847C0121003C18BF0124114E6442E4B268
:1023800037781860082231700E4821460EF030FF71
:10239000002300220C4D2146C5E91A2305F19800BF
:1023A00008220EF025FF0023FFB2C5E93733FFF7FF
:1023B00081FFFFF7B9FB3770F8BD70477C00032041
:1023C00076000320442903202029032000293CD043
:1023D000F0B5744B83B01D68AF7C6FB906462C8A8C
:1023E00044B1EB6803EBC40C1C68B4420FD0083353
:1023F0006345F9D103B0F0BDC0F30743EF2B4FEABB
:102400001024C0F31126EAD8674E2640E7E71C796E
:10241000E7B1B6F56F4F49D04FF6D4539E4266D020
:102420004FF602739E4200F0AD800F2C10D12B6846
:102430001046DB6F00929847009A137803F003036D
:10244000032BD7D0594B1883D4E77047082C3BD0C7
:102450002B68104603EBC4035B689847102CC9D85F
:1024600001A353F824F000BF1125000845250008FA
:102470004B25000851250008572500085D25000858
:1024800063250008692500086F2500082925000834
:1024900031250008392500083F2500081D250008C2
:1024A000232500084524000817250008C0F307204D
:1024B000132860D05A289DD12B6810465B6D984731
:1024C0003A4AC3B2D37595E72B6810465B6C00910E
:1024D000019298470099354CC0B20129207389D0E8
:1024E000019A1046FFF7DCF984F8200082E7C3B2B6
:1024F000212B4ED05A2B7FF47DAF2B681046DB6C1E
:102500009847C3B2032B3FF475AF284A937571E720
:10251000264B58806EE7254BD8836BE7234B1882F8
:1025200068E7224B988365E7204BC0B2987561E756
:102530001E4BC0B2D8755DE71C4B58835AE71B4B46
:10254000588257E7194B188054E7184BD88051E749
:10255000164B98804EE7154B98824BE7134B5881EA
:1025600048E7124B188145E7104BD88142E70F4BE3
:10257000C0B218733EE72B681046DB6A98470B4BD6
:10258000588137E71046FFF7A1F9084B83F8200080
:1025900030E72B6810465B6F9847044AC3B29383B9
:1025A00028E700BF7C00032000FF03005400032045
:1025B000324B1B78002B5FD12DE9F04FDFF8C49030
:1025C00003F0FF05D9F8003083B01B89002B50D0F1
:1025D0002B4F06463C46DFF8B08008E0D9F80030C3
:1025E00001351A89ABB29A4204F1740441D9E36E01
:1025F000626EF31A9342F1D3C5F1000AB4F9703058
:102600000AF0740A0AF1240000EBE300002B3844BE
:1026100008DBB4F8683002225BBA01A9ADF80430D7
:1026200003F064FBB4F9723004F1240B002B4FEA81
:10263000E30112DB5846FFF765FC0422B4F972305F
:102640000190002B0AF12400B8BF073300EBE30030
:1026500038440DEB020103F049FBD8F8003059462D
:1026600023612046FFF70CFBA36EE6660133A366E9
:10267000B4E703B0BDE8F08F704700BF76000320D9
:10268000202903207C0003200000032038B50446E5
:10269000084B094D1A60094B049A29601A6000F032
:1026A0004DF8204603F04EF9204603F0B9FB002018
:1026B00038BD00BF0C2A0320102A0320082A03205B
:1026C00038B5054603F05EF90446284603F0B4FB2E
:1026D0002043C0B238BD00BF70B5154B82B01B6837
:1026E00004460D46164603F083F901280AD0114B23
:1026F0003246294620461B6803F0C8FB01280BD050
:1027000002B070BD00220C4B11461B6818680223F2
:1027100000920DF04FFEEAE7002207490223096804
:102720000868114600920DF045FE02B070BD00BF72
:102730000C2A0320082A0320102A032000B583B0A6
:10274000102001A900F09EF808B903B000BD0021D7
:10275000102000F07FF8003818BF012003B000BD42
:1027600000B583B0102001A900F08CF820B9014613
:10277000019820B903B000BD012003B000BD1020B6
:1027800000F068F8003818BF012003B000BD00BF9A
:1027900070B5002682B004460D46102001A90196AE
:1027A00000F070F810B9019BA34202D8012002B0DA
:1027B00070BD04F11100294680B200F063F8801B5F
:1027C00018BF012002B070BD002210B5114B82B0BD
:1027D0001B78019213B9184602B010BD044601A936
:1027E000102000F04FF840B901981130FF2804D8AC
:1027F000214680B200F02EF818B10123184602B02D
:1028000010BD01991020013100F024F8031E18BFFB
:102810000123E0E777000320014608B5102000F00F
:1028200031F8003818BF012008BD00BF10B505F011
:10283000A3FC00200BF00CF8044618B905F0B0FC1E
:10284000204610BD00200AF0D1FB05F0A9FC20466F
:1028500010BD00BF38B504460D4605F08DFC20467E
:1028600029460BF09DFAC305044603D405F098FCF5
:10287000204638BD0AF094FC0443A4B205F090FC55
:10288000204638BD0AF0EEBD84462DE9F8430CF52C
:102890000055104695F827210CF580540F461E462A
:1028A000B4F89210B4F8943072B3002940F08E80DE
:1028B000072B40F2A0803E2B40F2B9804FF0400839
:1028C000B3F5805F4246C1465FD21B0A43F0100356
:1028D0000370B4F894300CF584514370023A1C3103
:1028E000023003F003FA01220223A8F1020887F85C
:1028F0000090A4F89280A5F81C2184F89130012062
:10290000C4F89860BDE8F883B1B307224FF0080817
:102910005B1A1FFA83F9B5F81C31914503F00F03D8
:1029200043F0200300F8013BB4F8923003F58453E0
:1029300003F11C030CEB03014CD903F0D7F987F822
:102940000080B4F89230B5F81C21013B9844A4F8FB
:10295000928095F822313BB1B2FBF3F103FB1123D6
:1029600013B9022384F891300132A5F81C2101200B
:10297000C4F89860BDE8F883072B3CD94FF00808ED
:10298000B3F5805F4246C1469FD310230360B4F87D
:1029900094300CF584511B0A0371B4F89430063A54
:1029A00043711C31063003F0A1F901220223A8F182
:1029B000060887F80090A4F89280A5F81C2184F8F6
:1029C00091300120C4F89860BDE8F8833F224FF0B1
:1029D00040089DE74A4603F089F9032309F1010203
:1029E0003A7084F89130B4F89230B5F81C219944CB
:1029F000A4F89290B8E700F8013B0CF58451B4F8C4
:102A000094201C3103F072F901210322B4F89430B0
:102A10000B443B70B4F894300120A4F89230A5F830
:102A20001C1184F89120C4F89860BDE8F883017007
:102A3000B4F894300CF584514370B4F894201C31F0
:102A4000023003F053F9B4F8943001210322023329
:102A5000DFE700BF70B500240E4600F58053047018
:102A6000C0F8024004738460C3F89240C3F89840F1
:102A7000A3F88E40A3F8904000F500530546214688
:102A80004FF48452C3E94744C3F82861C3F8244192
:102A90000D300EF0ADFB4FF48452A8182146BDE86E
:102AA00070401C300EF0A4BBF0B591B0169D0446EA
:102AB000856019B3964612788C46100903281DD8F4
:102AC000DFE800F0024C7A22003B18BF012304F536
:102AD000005282F82631237823B10621002382F8A0
:102AE000241123709EF80050BCF1080F05F00F056B
:102AF00000F2D1800123002D40F0D680237B012BF2
:102B000000F0A78011B0F0BD04F5805797F8911040
:102B100002F00F0204F500564B1E012A86F821210F
:102B2000DBB200F00B81022A00F01181002A40F094
:102B3000FB80BCF1010F00F01E819EF80130BCF15A
:102B4000020F86F8223101D09EF80220022986F871
:102B50002321D3D1012387F89130CFE7003B18BF61
:102B6000012304F5005686F82631227822B1062288
:102B700086F8242100222270BCF1070FBED99EF8EE
:102B800000209EF8010002F00F01014340F09C80FC
:102B9000DEF8022012BA072AB0D9B2F5845F40F2FB
:102BA000F0800222072086F81E2186F82401217079
:102BB00096F81F21322159E02378012B9ED104F58C
:102BC0008057B7F88E1002F00F0201F00F039A42FF
:102BD00040F0A2806088A38897F890201B1A9BB2CF
:102BE000002A00F0BE80551EAEB29E4280F0BC802E
:102BF000944583D14A1C92B2EDB20D30A7F88E20D5
:102C00000EF101012A46204403F070F86388A2887F
:102C10002B449BB29A42638000F0B08004F50056CA
:102C200096F81F21002A3FF469AFB7F88E30013BB8
:102C300093FBF2F102FB1133002B7FF45FAF96F8A8
:102C4000263196F81E11003B18BF012341F03001D8
:102C50000CE004F5005696F8263196F81E11003B5C
:102C600018BF012396F81F2141F0300100208DF894
:102C7000012003228DF8001096F820112073D6F859
:102C800028015B058DF8021083616946C260FEF77A
:102C9000F7FF11B0F0BD002D7FF430AF9EF801506A
:102CA0000223002D3FF42AAFACEB03018D423FF726
:102CB00025AF0EEB03012A4604F10D0003F016F8D0
:102CC00002236580237019E7120202F47062024346
:102CD000072A7FF613AF02210B46ACEB0303DDB2EC
:102CE00004F58057A28071442A4687F890C004F109
:102CF0000D0002F0FBFF012300226580237086F89F
:102D00001E21A7F88E3096F826313021003B18BFDF
:102D1000012396F81F21A9E70421002304F500529E
:102D200082F824112370E9E6012B3FF6E7AE052275
:102D3000032386F8252187F89130DFE6012B3FF643
:102D4000DDAE0223C7F8985087F89130D6E6012B04
:102D50003FF6D4AE0822032386F8252187F8913068
:102D6000CCE6072B3FF6CAAE9C457FF6C7AE4A1CA1
:102D700092B2DDB241E786F82221E7E60223237012
:102D8000BCE606210B46A8E70378012B01D0002002
:102D900070478268064B891A9942F8DD03210023A7
:102DA00000F5005282F8241103700020704700BF24
:102DB000400D03002DE9F04100F58055144695F8CB
:102DC000912092B0561E012E05D9032A0ED0002064
:102DD00012B0BDE8F081D5F89830394ECB1AB34225
:102DE0000BD9022300F5005080F825310023012083
:102DF00085F8913012B0BDE8F081012AE7D100F5E5
:102E0000005696F9237196F82321002F05DA0F3228
:102E1000D2B2082A8CBF7F2201229A42D7D80B4611
:102E200002AA0DF10701FFF72FFD9DF80780B8F109
:102E3000080F38D9B8F10C0F37D9B8F1100F36D9BF
:102E4000B8F1140F35D9B8F1180F34D9B8F1200FF3
:102E500033D9B8F1310F34BF0E270F27384602F0AF
:102E600039FF80450AD2A0EB0802013AD2B202AB88
:102E70000021013203EB08000EF0BAF9E76096F882
:102E80002731003B18BF01235B05A36102E001204D
:102E900002F062FF204602A9FEF7F2FE0028F6D1FA
:102EA00095F8912091E74746D8E70927D6E70A2702
:102EB000D4E70B27D2E70C27D0E70D27CEE700BFDA
:102EC000400D030000F58052B2F89430B3F5845FF2
:102ED00014D892F891309BB900F5005300204FF0C0
:102EE000010CA2F89200A3F81C01C2F8981093F804
:102EF000261183F8271182F891C07047012070478E
:102F00004FF0090C00F5005383F825C1E6E700BF38
:102F1000830F032BC0F30D4020D0012B0ED0B3B98B
:102F2000B0F5B97F21D01F235FFA80FC000A01228F
:102F300081F800C048708B70CA70704740F26353CC
:102F40009842F0D102204FF0740C0D23EFE7912846
:102F5000E9D10B204FF0380C0223E8E72928E2D111
:102F600002204FF07F0C0923E1E70B204FF0EF0C1C
:102F7000DDE700BF2DE9F04F456893B0B5F1804F14
:102F800002D013B0BDE8F08F0668C068C6F30747EB
:102F90000C4602F09FFEEA2FC6F3072832D0EC2F32
:102FA000EFD1B8F1210FECD10728EAD92378102B03
:102FB000E7D1E3793002C549A27980B2014364794F
:102FC00008201B0443EA0223234300224FF0FF346E
:102FD000099123FA00F18DF821308DF822101B0C95
:102FE0000C9007A909A8CDE90D22CDE90F220A9579
:102FF0008DF823300B92119207948DF82040FEF744
:103000003FFEBEE70228BCD9B8F1FF0F23D0B8F1CC
:10301000210FB6D1A378617822781B0443EA0123FB
:103020001343B3F56E4F40F0C480A94A33029BB2FC
:103030001A4300234FF080450824A64909A8CDE98A
:103040000A53CDE90C43CDE90E33CDE91033099293
:10305000FEF716FE95E7A378617822781B0443EA11
:1030600001231343B3F56E4F00F02E814FF6C55286
:10307000934200F0CB804FF6CA62934281D14FF069
:10308000000904A8CDF81090FFF7C6FB924B049AF4
:10309000B3F81EA0012ACAF3400A4FEA8A1A4AF07E
:1030A0003F0A5FFA8AF440F22981920002321FFA45
:1030B00082FA8A4B0AF10601A3FB0103C91A03EB4A
:1030C0005103C3F387074FF0804385490A93099161
:1030D000082120230C91834907AA08910DF1240BA4
:1030E0004FEA1A218DF81E10584611468DF81C30F3
:1030F0001546CDE90D99CDE90F99CDF82C90CDF875
:1031000044908DF81DA08DF81F70FEF7B9FD764B29
:103110000993002F3FF435AFCDE9027B4FF0010852
:10312000A3460DF123060822FF21284602F0DAFD0E
:10313000334656469A4608F1FF34C4EBC4048DF872
:103140001C80A4B20195A6421ADDA3B243B3012BA1
:103150002DD0A7B2023F05A9B810CDF8149007F002
:103160000307FFF715FB059806A9FFF7D1FE0DEB46
:1031700007031B7E05F8013FAA4504F10104E2D1D3
:103180005346019D03982946B24608F101081E46A0
:10319000FEF776FD029B5FFA88F84345C3D2F0E65E
:1031A00005F801BFAA4504F10104CED1E8E7FF23E9
:1031B000E0E74FF6C552934228D04FF6CA629342D9
:1031C0003FF45DAF08270022FF240A956FF0FE054B
:1031D00006FA07F0454980B20143099123FA07F145
:1031E0008DF821308DF822101B0C07A909A8CDE914
:1031F0000B27CDE90D22CDE90F228DF82330119256
:1032000007958DF82040FEF73BFDBAE6384802F0FE
:1032100097FD00224FF080410824314DCDE90A127C
:10322000099505462021CDE90C42CDE90E22CDE9D4
:103230001022304A294B0892AA1D8DF81C10A3FBBE
:103240000213D21A07A803EB520325FA04F10DF179
:10325000240BC3F387088DF81E1007460146584615
:103260008DF81D508DF81F80FEF70AFD1E4B099347
:10327000B8F1000F3FF485AE0124DFF874900DF132
:103280002306A4EB090A0822FF21384602F02AFD92
:103290003A46631EC3EBC3039BB2013B8DF81C404F
:1032A0004B440AEB03018D4205DD13F8011F02F8C0
:1032B000011F9642F5D1013439465846E4B2FEF773
:1032C000DFFCA045DFD25CE60B4AB2E62100EC1C35
:1032D0002100EE18941C0108540003202549922473
:1032E00021FFEC1CFFCAFE0021FFEB1C2100E818A7
:1032F0007C1C0108FFC5FD0021FFEE1808224FF0DD
:10330000804316490C92099107A908460D46FF21F2
:103310000A93CDE90D99CDE90F99CDF82C90CDF810
:10332000449002F0DFFCFF22049B8DF81C40012B2F
:103330008DF81D2006D0CDF81E90294609A8FEF76D
:103340009FFC1EE606A94846CDF81890FFF720FA24
:1033500006980DF11E01FFF7DBFDEEE721CAFE180E
:103360002DE9F043144602780646013A1D4685B021
:10337000092A11D8DFE812F01C0010000A008201AF
:10338000100010000A0010005E010A00012900F080
:1033900082817F22122101E07F22112103232270EA
:1033A0003278A17062702B80002005B0BDE8F083F8
:1033B0000229EED141232370437863709A2BE8D819
:1033C00001A252F823F000BF01380008E1370008DD
:1033D00093330008933300083D3800083338000861
:1033E00093330008933300089333000893330008A5
:1033F00093330008933300081D3800080D38000887
:10340000933300089333000893330008AB37000868
:103410009333000893330008933300089333000874
:103420009333000893330008933300089333000864
:103430009333000893330008933300089333000854
:1034400093330008C1370008B5370008A1370008DA
:103450009333000893330008933300089333000834
:103460009333000893330008933300089333000824
:103470009333000893330008933300089333000814
:103480009333000893330008AB370008A1370008D6
:1034900093330008933300089333000893330008F4
:1034A00093330008933300089333000893330008E4
:1034B00093330008933300089333000893330008D4
:1034C0009333000893330008A538000899380008A2
:1034D0008D380008933300089333000893330008B5
:1034E00083380008933300089333000893330008AF
:1034F000933300089333000893330008A137000882
:10350000A137000893330008933300089333000871
:103510009333000893330008933300089333000873
:103520009333000893330008933300089333000863
:103530009333000879380008933300089333000868
:1035400093330008933300086B3800089333000866
:103550009333000893330008933300089333000833
:103560009333000893330008933300089333000823
:103570009333000893330008933300089333000813
:103580009333000893330008933300089333000803
:1035900093330008933300089333000893330008F3
:1035A00093330008933300089333000893330008E3
:1035B00093330008933300089333000893330008D3
:1035C00093330008933300085D38000893330008F4
:1035D00093330008933300089333000893330008B3
:1035E00093330008933300089333000893330008A3
:1035F0009333000893330008933300089333000893
:103600009333000893330008933300089333000882
:103610009333000893330008933300089333000872
:103620009333000893330008933300089333000862
:103630004738000802297FF4ACAE49232370437851
:1036400063700A2B3FF6A5AE01A252F823F000BF2B
:10365000EF360008933300080F3700089333000853
:10366000FD360008933300089137000893330008B3
:1036700093330008933300087337000801297FF45F
:1036800088AE0191FFF76CF8019968BB337840333D
:103690002370298088E602A8FFF7BEF820BB029BB2
:1036A0005A1C52002A80327863704032DBB222709A
:1036B000002B3FF479AE074604F1020904F1030838
:1036C0000CE0039B1A0E09F817201B0C9DF808202C
:1036D00008F8173001379742BFF466AE384603A9A1
:1036E000FFF756F80028ECD07F22102156E644F26E
:1036F00054020623C4F802202B8055E601236D49AD
:10370000A370E01C02F014FB13232B804CE614235F
:103710000120E61CA07031462B80FFF7B3F8E11DB5
:1037200005460220FFF7AEF8034604F10B01032023
:103730001D43FFF7A7F8034604F10F010420ADB2C3
:103740001D43FFF79FF8034604F113010520ADB2B6
:1037500045EA0304FFF796F8A4B244EA00039BB2DB
:10376000002B3FF421AE11220021304602F0BAFABC
:103770001AE60123E61CA37014220021304602F051
:10378000B1FA30464C4902F0D3FA17232B800BE6EE
:10379000782207234949A271C4F802102B8003E65E
:1037A000042200232A806380FEE5032200232A806E
:1037B000A370F9E50622424B2A80C4F80230F3E5F3
:1037C00004232B800CF0E0FA3E4DA5FB00239B0B5D
:1037D000A3700CF0D9FAA5FB00539B09E370E3E555
:1037E00003A8FFF719F8002862D1039A02F07F02BC
:1037F000002306212980A270E37023716371D3E551
:103800000622314B2A80C4F80230CDE503222F4B2B
:103810002A809B8AC3F30723A370C5E504232B4AA0
:103820002B809388C3F34A13A3709388DB00E37063
:10383000BAE5032274232A80A370B5E503224C2342
:103840002A80A370B0E509204FF46062002320496C
:103850002880C4F80210E2802372A5E506224FF00A
:1038600080432A80C4F802309EE506224FF0807320
:103870002A80C4F8023097E503226D232A80A370C2
:1038800092E5032251232A80A3708DE504224BF692
:1038900035732A80638087E5062200232A80C4F8D6
:1038A000023081E506220B4B2A80C4F802307BE50A
:1038B00000229DE718150108281501080112345649
:1038C00080018001D34D62109818800354000320BA
:1038D00006003240A40C0021814204D900F1784056
:1038E000B0F5802F01D30020704701F178410139F4
:1038F000B1F5802F2CBF002001207047814208D9EC
:10390000B0F1005F05D3044881428CBF0020012044
:1039100070470020704700BF00000420814211D989
:10392000B0F1005F10D31A4B994219D9194B984244
:1039300008D9194881428CBF002001207047B0F19E
:10394000006F15D200207047144B98420AD8144BD0
:103950009842F4D9134881428CBF0020012070475F
:1039600001207047104881428CBF00200120704721
:103970000E4B9942E6D80E4BB3F8E030B3F5007F1A
:10398000EED00C4881428CBF00200120704700BF60
:10399000000004203F20024040210240FFFFF90BBD
:1039A000FFFFF80B0080F90B0002FA0B000008087B
:1039B0000005FA0B0000040800B58BB001A804F064
:1039C000D7FD0598AA3818BF01200BB000BD00BF75
:1039D00000B58BB072B601A804F0CAFD04214FF403
:1039E0000052079B019143F08063CDE9062304F068
:1039F000C3FB18B162B601200BB000BD04F0DCFBC4
:103A00000028F7D101A804F091FC10B904F0F6FBEE
:103A1000F0E704F0E5FB04F0C3FBEBE710B58AB078
:103A200004F0AAFB044604F0C7FB044301A804F019
:103A30009FFD04214FF480729DF81E30E4B2C3F361
:103A4000001383F001031B05CDE90623019134B176
:103A500004F0C6FB04F0A4FB01200AB010BD01A8CD
:103A600004F064FC0028F3D104F0C8FB044604F021
:103A7000B7FB044304F094FBE4B22043C0B2003827
:103A800018BF01200AB010BD30B58BB004F074FB34
:103A9000044601A804F06CFD00238022079802214F
:103AA00010F4801FCDE9033200930CBF02230123E1
:103AB000019101A86946029304F0F0FD054604F067
:103AC0006FFB28432043C0B2003818BF01200BB061
:103AD00030BD00BF70B504F04FFB05460F4C104ED3
:103AE000D4E90023B3F1FF3F08BFB2F1FF3F04F573
:103AF000802107D0012004F0BDFB002818BF45F04D
:103B00000105EDB20834B442EAD104F049FB284380
:103B1000C0B2003818BF012070BD00BF00E003082C
:103B200000000408002330B58FB0009304F024FB9C
:103B30000223044605A8019304F01AFD0B9B0422FE
:103B400013F4801F4FF07C0014BF02230123694649
:103B500003900DEB02000492029304F09FFD0546D2
:103B600004F01EFB054344EA0500C0B2003818BF4C
:103B700001200FB030BD00BF014608B5012004F0A0
:103B800079FB003818BF012008BD00BF704700BF97
:103B9000094A0A4B52880A491878B2F5407F0870E2
:103BA00006D9B2F5206F8CBF032202221A7070472B
:103BB00001221A70704700BF182A032078000320E2
:103BC000142A03200022014B1A7070471E2A03207A
:103BD00070B505460120424B424C1B78424E991E5F
:103BE00081428CBF00210121A383FDF72DFA218B97
:103BF000022089B2FF2994BF00210121FDF724FA98
:103C0000F369002B62D14FF47A71384B96F820207B
:103C1000A3FB05039B0901FB1355B5F5FA7F34BFE0
:103C200000250125012A56D023889BB20F2B49D8A5
:103C3000218A89B2003918BF01210420FDF704FA56
:103C4000238BDBB2022B0BD0238BDBB2032B07D0F1
:103C5000218BC9B2A1F10401B1FA81F1490900E057
:103C600001210820FDF7F0F9238BDBB2032B2BD0C9
:103C7000218BC9B2A1F10401B1FA81F149091020E7
:103C8000FDF7E2F9218B2020C9B2A1F10401B1FABC
:103C900081F14909FDF7D8F9638B40209BB2FF2BD6
:103CA00094BF002105F00101FDF7CEF9638B802060
:103CB000DBB2002B0CBF002105F00101BDE8704014
:103CC000FDF7C2B90121B8E70121D8E7012102209F
:103CD000FDF7BAF997E729460220FDF7B5F9A3E702
:103CE000780003205400032000000320D34D62100D
:103CF000024A034B10601960704700BF242A03205A
:103D0000202A0320002100B5084B83B01B6801AABC
:103D1000186801910CF06EFC019B2BB14FF0E02371
:103D20004FF08052C3F8042D03B000BD202A0320B9
:103D300010B50446002204210B4804F0B3FE0B4BDF
:103D400001222146186807F0D7FD30B1BDE81040C8
:103D500001220421044804F0A5BE4FF0FF320121E6
:103D60000CF0A6FAF2E700BF00040242242A032066
:103D7000014B1860704700BF282A0320704700BF1E
:103D800000B5044B83B0186801A907F0F5FB019852
:103D900003B000BD282A03200D4B02781B68403277
:103DA00001291A700FD900B5A1F1020E10FA8EFE8A
:103DB000024610F801CF724503F801CFF8D1054B48
:103DC0001B68198000BD034B1B681980704700BF3A
:103DD000642A0320602A032030B54378044685B066
:103DE00013B98378442B0FD07F204FF0310C03217F
:103DF0003C4B3D4A1B6812681870207883F802C05B
:103E00005870118005B030BD0B2903D07F204FF0D2
:103E1000130CECE7354B1978022903D04FF07F0CD7
:103E20007F20E4E71B7F022B11D1314D6B7B13F018
:103E3000FB030FD07F20242503212A4B2A4A1B682D
:103E40001268187020789D7058701180DAE74FF072
:103E5000330CE5E7D0F80300AB6001232B73D4F8F3
:103E6000073000BA1BBAC1186B6001922860FFF7D7
:103E700033FD1C4B19681C4BD3F800C040B36B6872
:103E8000019A13F0070F0AD07F2370200B700323D1
:103E900094F800E0887081F801E0ACF800302378F5
:103EA0006A734FF20F04202540338DF80C3003AABB
:103EB0004B1EC81C8DF80D50ADF80E4012F8011BBA
:103EC00003F8011F8342F9D10423ACF8003099E7CD
:103ED0007F22312003230A70227888704A70ACF860
:103EE00000308FE7642A0320602A0320402A032041
:103EF0006C2A032003780F2B40F283802DE9F047D2
:103F0000A3F11002044688468EB0772A7FD8DFE8F6
:103F100012F0F101E0017E007E00CF017E007E0004
:103F20007E007E00B5017E007E007E007E007E0069
:103F30007E007E007E006002020236027E007E006D
:103F40007401A8019B0143027E008E017E002602BF
:103F500019027E0050027E007E0060014F01360192
:103F6000250118017E007E007E007E000101F00028
:103F70007E00DF007E007E007E007E007E007E00F0
:103F80007E007E007E007E007E007E007E007E0041
:103F90007E007E007E007E007E007E007E007E0031
:103FA0007E007E007E007E007E007E007E007E0021
:103FB0007E007E007E007E007E007E007E007E0011
:103FC0007E007E007E007E007E007E007E007E0001
:103FD0007E007E007E007E007E007E007E007E00F1
:103FE0007E007E007E007E007E007E007E007E00E1
:103FF0007E007E007E007E00D200C500B400A700D7
:104000008D00A74BA74A1B681268FFF7A9B97F204C
:1040100011250321A34BA24A1B681268187020784F
:104020009D70587011800EB0BDE8F087B8F1010F97
:1040300040F28385427802F07F03012B00F09D85DA
:10404000032B00F088857F2012250321954B944A8D
:104050001B681268187020789D7058701180E2E714
:104060007F20112503218F4B8D4A1B681268187021
:1040700020789D7058701180D5E7B8F1020F00F0DC
:1040800058847F2013250321864B854A1B681268BC
:10409000187020789D7058701180C4E77F20122519
:1040A0000321804B7E4A1B681268187020789D702F
:1040B00058701180B7E77F2011250321794B784A8A
:1040C0001B681268187020789D7058701180AAE7DC
:1040D000744BB8F1040F1B6800F006847F20132591
:1040E00003216F4A1870207812689D7058701180F3
:1040F00099E7B8F1020F00F007847F201325032110
:10410000684B674A1B681268187020789D70587059
:10411000118088E7B8F1010F40F2B183437803F0D2
:104120000F02042A00F097857F20122503215D4BA2
:104130005B4A1B681268187020789D705870118057
:1041400071E77F2011250321564B554A1B681268E1
:10415000187020789D705870118064E7514B504A58
:10416000B8F1010F1B68166800F09D847F211320B1
:1041700003221970217898705970328053E7B8F192
:10418000010F40F25283484E737B012B00F02F85C4
:10419000444A4349022B1268086800F0F2857F21E7
:1041A00024250323117021789570517003803AE71C
:1041B000B8F1020F00F21E817F2013250321394B35
:1041C000374A1B681268187020789D7058701180EB
:1041D00029E7364BB3F8E030B3F5007F00F0F58403
:1041E0007F20112503212F4B2D4A1B681268187060
:1041F00020789D705870118015E7B8F1010F40F2DA
:104200002283467806F07F06012E00F04985022EB3
:1042100000F034857F2012250321224B204A1B68A1
:104220001268187020789D7058701180FBE67F200E
:10423000112503211B4B1A4A1B681268187020783D
:104240009D7058701180EEE67F2011250321154BDB
:10425000134A1B681268187020789D70587011807E
:10426000E1E67F20112503210E4B0D4A1B681268E1
:10427000187020789D7058701180D4E6094EB8F1FE
:10428000020F336800F2BE807F2013250321044A09
:104290001870207812689D7058701180C3E600BFB6
:1042A000602A0320642A03206C2A03200005FA0BED
:1042B000B8F1040F00F0F1827F20132503219D4BFC
:1042C0009D4A1B681268187020789D705870118084
:1042D000A9E6984B984AB8F1020F1B68166800F0DF
:1042E000EE827F2113200322197021789870597073
:1042F000328098E6B8F1020F00F0F6837F20132594
:1043000003218C4B8C4A1B681268187020789D70B2
:104310005870118087E6B8F1010F40F2A28243780D
:1043200003F00F02042A00F083847F20122503216A
:10433000804B814A1B681268187020789D705870F5
:10434000118070E67F20112503217A4B7A4A1B6881
:104350001268187020789D705870118063E6B8F16B
:10436000020F76D87F2013250321724B724A1B68F7
:104370001268187020789D705870118053E67F2065
:10438000112503216B4B6C4A1B681268187020784A
:104390009D705870118046E67F2011250321654BE2
:1043A000654A1B681268187020789D7058701180DB
:1043B00039E6B8F1030F5DD87F20132503215D4B4B
:1043C0005D4A1B681268187020789D7058701180C3
:1043D00029E6B8F1030F00F0C3827F2013250321E3
:1043E000544B554A1B681268187020789D7058709D
:1043F000118018E60222414620460EB0BDE8F04783
:10440000FFF7EABC592204211A70427899705A7059
:10441000427802F07F02012A00F06B84022A00F049
:1044200060847F2512270320434A1D702578116878
:104430009F705D70088094F90130002BBFF6F3ADDA
:1044400033681B787F2B3FF4EEAD00211368198091
:10445000E9E53A4B1E78022E00F063847F220320A8
:10446000344B35491B6809681A7024789A705C705F
:104470000880D8E590F901204378002ABCBF03F0FA
:104480007F0343704388B8BF01265BBA9BB2A8BFC5
:104490000026B3F5097F00F3BE85B3F5007F2ADB64
:1044A000A3F50073242B26D8DFE813F0AC016C01D0
:1044B0008D0114017E015C01C300B20034012901A9
:1044C000F600EE002500250025002500A0008B0049
:1044D00025002500250025002500250025002500B4
:1044E00025002500250025002500250084007D00ED
:1044F00062004A003D007F20312103220D4B1B68E2
:104500001870207899700C4958700B681A80002E2A
:104510003FF489AD074A126812787F2A3FF483ADD1
:1045200000221A807FE5B8F1050F01F009807F2095
:104530001321E2E7642A0320602A0320402A032093
:10454000B8F1040FF3D1FDF741FA0A200AF05AF945
:10455000A94B1A68A94B1B6821784031117061780A
:104560005170A1789170E178D170A3F80080CEE706
:10457000B8F1070FDBD10430FDF76EFBFDF726FA2B
:104580000A200AF03FF904209B4B21781A689B4BC4
:1045900040311B68117061785170A1789170E17899
:1045A000D1701880B3E7B8F1050FC0D10079FDF7DD
:1045B0004BFBE3E7B8F1070FB9D10430FDF736FB49
:1045C000DCE7B8F1040FB2D18D4B1A78022A01F062
:1045D000F3807F227F200321874B1B68187020788F
:1045E0009A70864A58701368198090E7B8F1040FE2
:1045F0009DD1834B1A78022AEBD11B7F022B41F00D
:104600003A804378012B01F040817F20122174E72A
:10461000794A7A4BB8F1040F12681B6800F06A8778
:104620007F21132011702178907051704FF0030892
:104630009BE7B8F10B0F7FF67AAF456887682DBA14
:104640003FBA28467919FFF769F900283FF453AFBC
:1046500039462846FDF756FC01460827664B257863
:104660001A68403515706078644B5070A0781B68EC
:104670009070E078D171D070080E1071080CF9407C
:10468000507191711F8042E75D4B1B7F022B00F040
:104690003D877F20332130E7594B1B7F022BF8D118
:1046A00041F27A02A8F105039BB2934241F257808E
:1046B0007F2713250320504B504A1B6811681F7039
:1046C00024789D705C70088013681A88002A3FF473
:1046D000AAAC1CE7484B71201968A8F102030A46EE
:1046E000087014FA83F3214614F8010F8B4202F884
:1046F000010FF8D1414B1B68A3F8008007E7404B3E
:104700001B7F022BC5D1BFF34F8FBFF36F8F431DAC
:10471000984738E7B8F1080F7FF409AF4378012BC9
:104720007FF473AFC379042B7FF4E5AE80792279EF
:104730006379000240EA026040EA034040F004006E
:10474000FEF742F8002800F00A867F207225032138
:10475000294A2A4B12681B68107020789570507097
:104760001980D4E6244A254BB8F1060F11681B685E
:1047700000F09F867F2213200A70227888704A708A
:104780000322C3E6FFF7CEF91B4B1A681B4B1B68CD
:10479000002800F09E867F217220117021784FF052
:1047A000030890705170E0E671200421124B1A68E2
:1047B000124B107060781B685070A0789070E07891
:1047C000D0701980A3E6FFF785F90B4B1A680B4BE5
:1047D0001B680028DFD12146207840301070A8F1F6
:1047E000020014FA80F00C4611F8017FA04202F892
:1047F000017FF8D1B9E600BF642A0320602A0320B4
:10480000402A0320AF4AB04BB8F1040F12681B686E
:104810007FF406AF4178012901F00080022940F0C1
:10482000D9870020A949087096E67F201325032127
:10483000A44BA54A1B681268187020789D705870A8
:104840001180FFF7F0BB7F20132503219D4B9E4A6B
:104850001B681268187020789D7058701180FFF7DF
:10486000E2BB7F2013250321964B974A1B681268F1
:10487000187020789D7058701180FFF7D4BB7F208E
:10488000132503218F4B904A1B68126818702078FB
:104890009D7058701180FFF7C6BB4378FF2B00F066
:1048A000A1827F2031250321864B874A1B6812682D
:1048B000187020789D7058701180FFF7B4BB844A3F
:1048C0001278012A00F0B882427802F07F02012AB1
:1048D00000F0E9837F21122003221970217898705B
:1048E00059703280FFF79FBB4278772A00F0AD8283
:1048F0007F2012250321744A1870207812689D7059
:1049000058701180FFF78FBB4378002B00F0C682F0
:10491000802B3FF488AB7F2012250321694B6A4A24
:104920001B681268187020789D7058701180FFF70E
:104930007ABB427802F07F03012B00F06E82022BDB
:1049400000F056837F20122503215E4B5E4A1B68D0
:104950001268187020789D7058701180FFF763BB43
:104960000022B0F80110CDE9012248BA80B2A0F5CA
:104970000076B6F5007FCDE903220092C0F07A827E
:104980004FF29012904212D84FF28312904240F2AE
:104990000B83A0F5714084380C2808D8DFE800F0BC
:1049A00072076C63070707075A07070715007F2080
:1049B00031250321434B444A1B6812681870207844
:1049C0009D7058701180FFF72EBB69460120FDF7DE
:1049D00059FF01A905460220FDF754FF034602A92D
:1049E00003201D43FDF74EFF034603A90420ADB28B
:1049F0001D43FDF747FF034604A90520ADB21D4343
:104A0000FDF740FFADB20543ADB2112269460DF18D
:104A1000170001F06BF9002DC9D114212378294A20
:104A200065781068A27840334C1E8DF814308DF8EC
:104A300016208DF8155005AA431E10FA84F412F8BA
:104A4000010B03F8010FA342F9D11F4B1B6819801A
:104A5000FFF7E9BA1F490C220DF1170001F046F9E2
:104A60000F212378DBE71C4904220DF1170001F028
:104A70003DF907212378D2E7154A042112788DF8F1
:104A80001720CCE70C2215490DF1170001F02EF983
:104A900020231349092209A88DF8233001F026F9B3
:104AA00019212378BBE70F4A517B032900F0AA8222
:104AB0007F21242003221970217898705970328048
:104AC000FFF7B1BA642A0320602A0320760003208E
:104AD000402A03209005FA0B8C1501087415010873
:104AE000801501086C2A0320437803F07F03022B12
:104AF00000F04582032B00F02E82012B40F06A82E9
:104B00000022AE49AE48C1E903220B70AD4B0260F2
:104B10005A734A610A778A6194F901306278002BEE
:104B2000FFF681AA5020A84BA8491B6809685A7053
:104B30001870A1F80080FFF776BA7F2013250321B3
:104B4000A14BA24A1B681268187020789D7058709B
:104B50001180FFF768BA9A4D2968002940F01F813B
:104B60007F202225984A9949126809681070207898
:104B7000957050700B80FFF756BAB8F1020F00F035
:104B800084828378103B032B00F2B786DFE803F0C2
:104B90001917021B8E4B8A4A136094F90130002BBF
:104BA000FFF641AA0221884A237812684033874DD4
:104BB000137060782B6850701980FFF734BA854BFA
:104BC000E9E7854BE7E7854BE5E7B8F1020F00F22F
:104BD000B1817F20132503217B4B7C4A1B6812681F
:104BE000187020789D7058701180FFF71CBAA8F1DA
:104BF000020111F007051FFA81F840F0B480B36894
:104C000072684344934200F2AE80327B4378934211
:104C100000F0CA847F20732503216B4B6B4A1B680D
:104C20001268187020789D7058701180FFF7FBB9DA
:104C300003F0F002402A40F265817F201225032113
:104C4000614B624A1B681268187020789D7058701A
:104C50001180FFF7E8B903F0F002402A40F22A8100
:104C60007F2012250321584B584A1B681268187080
:104C700020789D7058701180FFF7D5B9B8F1060FF4
:104C800000F069827F20132503214F4B4F4A1B6898
:104C90001268187020789D7058701180FFF7C3B9A2
:104CA00040F26713ADF81430FFF76AF84C4A434BF3
:104CB0004240C3E903021E7794F9013000BA002B89
:104CC000CDF81600FFF6AFA906213F4B05981B68EB
:104CD0003E4A1860BDF81800126898801180FFF7EE
:104CE000A2B9B8F1030F00F056827F251327FFF712
:104CF0009ABBB8F1030FF8D1002205A8DA70FDF7CE
:104D00008BFD324A33681768002800F0B9837F2191
:104D100019707221207899705870A7F80080FFF7F9
:104D20008ABB4FF28412B0F8013058BA80B220F03A
:104D30000801914200F0018149F2F102934200F032
:104D40005982B8F1070F00F07C847F2013250321DE
:104D50001D4B1E4A1B681268187020789D70587091
:104D60001180FFF760B97F2071250321164B174A88
:104D70001B681268187020789D7058701180FFF7BA
:104D800052B9B8F1020F00F09E817F2171250323F3
:104D900011702178957051700380FFF744B91306A4
:104DA00000F16081C7200221074B084A1B68126886
:104DB0001870607858701180FFF735B9402A0320C9
:104DC000682A03206C2A0320642A0320602A032017
:104DD00020A1070090D0030048E8010040420F00E6
:104DE000785634128378FF2B7FF45BADC378FF2BAA
:104DF0007FF457ADFDF7B4FC002800F0CC847F2091
:104E000072250321B74BB84A1B68126818702078C6
:104E10009D7058701180FFF706B911063FF503A980
:104E2000C521B04BB04A1B6812681970417859709F
:104E3000A2F80080FFF7F7B87F2203211A700078EC
:104E40009A7058703180FFF7EEB8A84A1278012A9C
:104E500000F076818278132A00F023827F203125AA
:104E60000321A14A1870207812689D705870118033
:104E7000FFF7D9B86946FDF705FD002800F03E812F
:104E80007F213120974B984A1B681268197021784E
:104E900098705970A2F80080FFF7C5B87E21914B39
:104EA000914A1B681268197041785970A2F8008005
:104EB000FFF7B9B81B095A1D424580F2C580002B87
:104EC00000F0C6830027591E0530C90010F8012FD5
:104ED0008A4008393A4311F1080F97B2F6D19E1D66
:104EE000F319984500F079827F20132503217D4B2B
:104EF0007D4A1B681268187020789D705870118068
:104F0000FFF791B8794A1278012A00F037811B091E
:104F10009A1D904500F02A827F2013250321714BB2
:104F2000714A1B681268187020789D705870118043
:104F3000FFF779B80122FFF75EBA7F203125032100
:104F4000684B694A1B681268187020789D70587009
:104F50001180FFF768B8664A928A92B2B2F5805F14
:104F6000C0F082817F2088255E4A5F491268096807
:104F700010702078957050700B80FFF754B85C4B20
:104F80009B8A9BB2B3F5805FC0F09D817F20222574
:104F90000321544B544A1B681268187020789D7086
:104FA00058701180FFF73FB8B1F5007F00F0B38172
:104FB00044F27723994200F0A481B1F5807F7FF419
:104FC000F6AC13224B490DF1170000F08FFE1621AD
:104FD000237824E57F2012250321424B424A1B6897
:104FE0001268187020789D7058701180FFF71BB8F8
:104FF00012063FF518A8414620460EB0BDE8F0471E
:10500000FEF7CABE04215173027840321A70A6F826
:105010000080FFF708B8B3F57F4F00F08A814FF6A4
:10502000017293427FF467AAB8F1040F7FF47FAA5C
:105030004378012B7FF4E9AA2C4B1A78022A00F05E
:1050400018847E22FFF7C6BA7F2013250321254B43
:10505000254A1B681268187020789D70587011805E
:10506000FEF7E1BF0123244C26782370FCF756FDA0
:105070004FF47A7009F0C6FBF6B22868FCF756FDCB
:10508000FCF7A4FC2670FEF7CEBF7F20132503217A
:10509000144B154A1B681268187020789D70587060
:1050A0001180FEF7C0BF51221A7042785A70A6F8DC
:1050B000008090F90130002BBEF6B5AF0EB0BDE810
:1050C000F04702F0ADB9317B63788B4200F0B381D9
:1050D0007F2173250323117021789570517003800F
:1050E000FEF7A1BF642A0320602A0320402A032080
:1050F00054000320341501087600032060782378DB
:10510000A478403304228DF8150069460DF117008C
:105110008DF814308DF8164000F0E8FDB84B0DF115
:1051200013021868431E063012F8011F03F8011F0E
:105130009842F9D10722B34B1B681A80FEF773BF60
:105140007F220320AF491A70247809689A705C7036
:105150000880FEF768BFAC4B9A69042A40F22981A7
:105160007F2036250321A64BA64A1B6812681870BB
:1051700020789D7058701180FEF755BF7F22032064
:105180009F4BA0491B6809681A7024789A705C705C
:105190000880FEF748BF002205A8DA70FDF73CFB47
:1051A0008146002840F03A81059B002B00F02483C3
:1051B00005466F4614E09DF80320336803F8082085
:1051C000BDF8022003F82520009A4344120A9A7081
:1051D000009ADA70059B08F10408AB4240F258814E
:1051E00028463946FDF7D4FA01350028E3D04FF0C0
:1051F0000109EFE7B8F1140F7FF4A7ADD4F803105D
:105200000120FDF727FBD4F8071005463046FDF7CF
:1052100021FB0346D4F80B1003201D43FDF71AFBB6
:105220000346D4F80F100420ADB21D43FDF712FB66
:105230000346E17C0520ADB21D43FDF70BFBADB28B
:1052400045EA00039BB26E4A6E4912680968002B5A
:1052500000F0D9827F20722503231070207895708A
:1052600050700B80FEF7DFBE002267496748C1E936
:1052700003220B70664B42731A604A610A778A6197
:1052800094F9013060789342FEF6CDAE50215C4B2C
:105290005C4A1B68126858701970A2F80080FEF70B
:1052A000C2BEC278372A7FF4D9AD184680231422B3
:1052B00000F8013B574900F019FD1522514B1B68BE
:1052C0001A80FEF7B0BE00234F4A5148C2E90333AB
:1052D0004E4903604B7353611377936194F9013026
:1052E0006078002B82F80080FEF69DAE5021444B82
:1052F000444A1B68126858701970A2F80080FEF7C3
:1053000092BE454915220DF1170000F0EFFC18215F
:105310002378FFF784BB3C4B1B7F022B00F062829B
:1053200042F23F233322238041462378A270FFF7C5
:1053300076BBB8F1040F7FF4FAA84378012B7FF411
:1053400064A9314B1A78022A7FF47BAE1B7F022BB3
:1053500040F09181FEF798FB00287FF4F6A9042124
:105360002046FEF719FD274AFFF7AEB9002B00F0E3
:10537000FC800025013B411DDB0011F8012F9A4004
:10538000083B13F1080F45EA0205F6D140F6FE731B
:105390009D4240F2EB807F2031250321184B194AB2
:1053A0001B681268187020789D7058701180FEF785
:1053B0003ABE58685969411A092900F24B817F2089
:1053C000372503210E4B0F4A1B681268187020788E
:1053D0009D7058701180FEF726BE0B4B1A78022A7A
:1053E00000F0A2817F227F250320054B05491B6821
:1053F00009681D7024789A705C700880FEF713BEEF
:10540000642A0320602A0320402A03206C2A0320F8
:10541000682A0320A81501085C1501087F22722064
:1054200033681A702178BA4A597098701368A3F8D3
:105430000080FFF700B80133337323780021403335
:105440001370637802F8013FB3680BE034680131F0
:10545000E35CB1F57F6F02F8013FB36803F101032C
:10546000B36003D07468A342F0D389B2726802318A
:1054700093420180FEF4D7AD03237373FEF7D3BDCF
:10548000062005995971090A19713880FEF7D3BFB2
:10549000B9F1000F00F0B0817F21336872251970D7
:1054A000032120789A4A58709D7013681980FEF77E
:1054B000C2BF828840F6FB7052BA92B2824240F27A
:1054C000DD807F2231200A70227888704A70FFF7D1
:1054D00057B92146207840301070A8F1020014FA24
:1054E00080F00C4611F8017FA04202F8017FF8D14C
:1054F000FFF73BB84178012900F0D680022940F03F
:105500006981002083490870FFF726B841F27A02CA
:10551000A8F105039BB293423FF609A80023211D81
:105520007D4804F8083000F003FC7C497A4800F01C
:105530001FFC00287FF413AF7F203125FFF707B948
:105540004378012B7FF461A80379002B00F07A8166
:10555000012B7EF4D0AF7248FCF704FF4146204691
:10556000FEF71AFC6A4AFFF7AFB81D46D4F802707E
:105570003EBA3046A919FEF7D1F96A4B1B680028DC
:1055800000F00B8121781A46403158191970F31A2E
:1055900002E0995C02F8011F8242FAD15C4A6B1C5E
:1055A00012681380FEF73FBD0133337302F0E4FD50
:1055B000B8F1000F00F096802746AA46A946B068C9
:1055C0003B797A791B0403EB0263FA78397A03EBAF
:1055D00002237A7A090401EB0261BA780AF1080A17
:1055E000134419EB0302FB79083701EB03233168FD
:1055F00001F58021084417F8021C0B44FEF7BCFAA1
:1056000040EA0503B068D04500F10800DDB2B060A3
:10561000D6D802F0C5FDD6E901329A4224BF032351
:105620007373002D66D07F21722003223D4B1B68CF
:105630001970217898705970354B1B681A80FEF7E5
:10564000F2BCD4F8031009BAFDF704F90346FAE5F1
:105650001F4644E4197F01292AD07F2024250321F5
:10566000304B2B4A1B681268187020789D70587058
:105670001180FEF7D8BC3322FEF7ACBF7120087052
:10568000084665784D70A5788D70E4780021151F67
:1056900000F8034F02E000F8011F0131A942FADBD4
:1056A000043292B2FEF732BF1A480170FEF754BFBF
:1056B000D4F802101D6909BA8D4200F0B3800027AA
:1056C0007F2658613525032001329A61154A104919
:1056D00012681F77167023780968537095700880D8
:1056E000FEF7A1BC02F05CFDD6E901329A4201D37B
:1056F0000323737302200B4A0549237812686478E8
:1057000009684033137054700880FEF78CBC00BFEA
:10571000602A03201E2A03202C2A03204C1E010885
:105720009C1C0108642A03201B7F022B62D1D4F841
:1057300002502DBA28467919FEF7E0F8002840F00B
:10574000AD807F2031250321744B754A1B68126898
:10575000187020789D7058701180FEF764BC00238B
:10576000211D05A804F8083000F0E2FA6D4905A8EB
:1057700000F0FEFA00287FF4F2AD7F203121674B64
:10578000674A1B6818702078997003215870136855
:105790001980FEF799BF01212EE4634A974253D046
:1057A0007F20312503215E4A1870207812689D7091
:1057B00058701180FEF737BC1B7F022B7FF45BAF64
:1057C0004378012B7EF421AFFEF728F900287EF400
:1057D000BCAFC4E57F211220117021789070517008
:1057E000FEF724BF132251490DF1170000F07EFA95
:1057F000FFF7EDBB3322F6E5494A9B0011680333FE
:105800000B80FEF718BE60782378A57850700320CF
:105810004033137095700880FEF705BC4448017052
:10582000FEF79ABE1E7794F90130002BFEF6FBAB13
:1058300040F26721394A3A4B12681B6811801E807A
:10584000FEF7F1BB3B4887E6112DA9D821781A460F
:105850004031197038482B4403E010F8011B02F85E
:10586000011F9A42F9D12E4A6B1C12681380FEF771
:10587000DABB1B7F022B7FF4FEAE304B5B7B042B2D
:10588000A2D07F202221FEF738BEFEF795F8C8B9D6
:10589000FEF79EF800287EF458AF60E5022F26D070
:1058A000042F1ED0082F13D06FF00603E21D1B1B20
:1058B00002E012F8011F29709918B942F9D3314654
:1058C000FFF79ABB0BF084FD00287EF43EAF46E55F
:1058D000A168E0680BBA02BA3146C5E90023FFF7B8
:1058E0008BBBA36831461BBA2B60FFF785BB2389AE
:1058F00031465BBA2B80FFF77FBB7F220026312029
:105900000321064B0E4D1B682E601A70044A247842
:1059100012685C7098701180FEF785BB642A0320C2
:10592000602A03204C1E0108012345674815010821
:1059300076000320B01C0108941501086C2A03208E
:10594000682A032038B500240122094B09490A4D71
:105950004C73586009490A48C3E90344C3E9054444
:105960002C601A701C77FDF775F8204638BD00BF13
:10597000402A03206C2A0320682A03208000032089
:1059800058A00120114B01461A78032A02D0104872
:10599000FDF7FAB941F288305A688A1A8242F6D97C
:1059A00000224FF0010C0B4810B40B4C427383F8EB
:1059B00000C01A77226006485DF8044BC3E9032251
:1059C000C3E905225960FDF7DFB900BF402A032073
:1059D00058A001206C2A0320682A03200146024AAD
:1059E0000248FDF7E7B900BFA800032058A0012036
:1059F0002DE9F043002585B004468DF80D50ADF833
:105A00000E50D0E90050B0F1804F0F4690461E4630
:105A1000C5F382690CD038B940F2E3739D4263D07C
:105A200040F2DF739D420ED0002005B0BDE8F08348
:105A3000C5F30743DA2BC5F3072200F09980DB2B6F
:105A4000F2D1FF2AF0D1E06800F044F90028EBD051
:105A50003B780F2BE8D8002B00F09680072BE3D87B
:105A600001388342E0D8A2690137ADF80E30A2F5C3
:105A700000120123B2FA82F28DF80D30504B520918
:105A800083F826216168B1F1804F00F08F8040F2E9
:105A9000EB7200214B484C4B0260C3E9002141608E
:105AA0004FF0FF3301220DF10D01306809F07EFB4C
:105AB0004FF0FF33022204460DF10E01306809F069
:105AC00075FB02464FF0FF33144439463068BDF889
:105AD0000E2009F06BFBBDF80E3004440333A342E3
