:020000040800F2
:1000000000000420F5E7000829E600082DE60008B6
:1000100031E6000835E6000839E6000845E8000842
:100020000000000000000000000000003190010806
:100030003DE6000800000000C18F0108BD64010812
:1000400045E8000845E8000845E8000845E80008DC
:1000500045E8000845E8000845E8000845E80008CC
:1000600045E8000845E8000845E8000845E80008BC
:1000700045E8000845E8000845E8000845E80008AC
:1000800045E8000845E8000845E8000845E800089C
:1000900045E8000845E8000845E8000845E800088C
:1000A00045E8000845E8000845E8000845E800087C
:1000B00045E8000841E600084DE6000845E800086C
:1000C00045E8000845E8000845E8000845E800085C
:1000D00045E8000845E8000845E8000859E600083A
:1000E00065E6000845E8000871E6000845E80008F4
:1000F00045E8000845E8000845E8000845E800082C
:1001000045E800087DE6000889E6000845E80008A3
:1001100045E8000845E8000845E8000845E800080B
:1001200045E8000895E60008A1E6000845E8000853
:10013000ADE6000845E8000845E8000845E8000885
:1001400045E8000845E80008B9E6000845E8000869
:1001500045E8000845E8000845E8000845E80008CB
:1001600045E80008C5E6000845E8000845E800083D
:1001700045E800080000000045E800080000000015
:10018000D1E6000845E8000845E8000845E8000811
:1001900045E8000845E8000845E8000845E800088B
:1001A00045E8000845E8000845E8000845E800087B
:1001B00045E8000800000000DDE6000845E800080A
:1001C00045E800080000000045E8000845E8000890
:1001D00045E8000845E8000845E8000845E800084B
:1001E00045E8000845E8000845E8000845E800083B
:0401F000000000000B
:1002000010B5054C237833B9044B13B10448AFF350
:1002100000800123237010BDF803032000000000BC
:10022000DC9B010808B5034B1BB103490348AFF33E
:10023000008008BD00000000FC030320DC9B0108D7
:10024000034613F8012B002AFBD1181A0138704716
:10025000704700BF30B5214C214D83B04FF0FF33C4
:10026000022220680DF1060116F0C0FF022807D017
:100270002B78012B29D001211A480DF021FCEDE744
:1002800042F20303BDF806209A42F1D816494FF016
:10029000FF33206816F0AAFFBDF806108142E7D1AF
:1002A000114806F0BBFF0028D8D12B78BDF8061006
:1002B000012B0D480DD005F02FF90128CED12B7858
:1002C000B3FA83F35B092B70C8E708480DF066FCAE
:1002D000C4E703F0B1FE0128C0D1F0E71805032000
:1002E000EC04032008A8010840B80020E8A7010892
:1002F0002DE9F04F864C9BB0DFF83082854F864E5B
:100300000AAD4FF0FF3328226946206816F06EFFD1
:100310002828F6D103980DF0DDFD8346002840F033
:100320009A80029B002B77D10098D8F80030984231
:1003300000F099802A46594607F00EF817F00AFD9A
:1003400029460246684607F02DFF17F003FD2946AF
:10035000024668460AF0B4FA17F0FCFC2946024649
:10036000684606F051FF3B78002BCAD0069BB3F5D8
:10037000001F00F086800121BBF1080F28BF4FF05D
:10038000080B002289465FFA8BFBDDE9013000286B
:100390006FD13144002B00F0AA805420B054009853
:1003A0000DF040FC09EB00035FFA83F9069A06EBB7
:1003B0000901B2F5001F6FD00BF00F000DF0B0FC7B
:1003C00009EB00035FFA83FABBF1000F0CD0A946DA
:1003D000AB4419F8010B06EB0A010DF091FCD9456D
:1003E00050445FFA80FAF4D1FA78002A5ED17A7923
:1003F0001AB1069AB2F5001F7DD00D220AF1010153
:100400004548C9B206F80A200DF05AFB00283FF40F
:1004100078AF00233B7074E7B3F1005F9CD1009B81
:10042000B3F5E06F98D13D4801990360039B4160AB
:10043000082B28BF08231A460023C260C0E90533F1
:1004400083600822364937480DF050FD354933485E
:1004500003F052FC80E702464FF0FF332946206844
:1004600016F0C4FE5DE73049304803F045FC0098C3
:1004700060E77BB352204FF0000BB054314400983A
:100480008EE7059B0221B3F5801F14BF3023312373
:1004900001228946337078E7039800F00F000DF0D1
:1004A0003FFC09EB00035FFA83FA8DE717F052FC7B
:1004B0004EF6602C1E4B06EB0A01A3FB00E2920BEA
:1004C0000CFB120080B20DF0F9FB0AEB00035FFA9F
:1004D00083FA8CE772209B46B0540098314480B276
:1004E0000DF0D6FB09EB00035FFA83F95EE7742099
:1004F000B0540098F3E7049AB2F1004F7FF47DAF57
:1005000069220AF1010306F80A205FFA83FA74E708
:10051000943803207401032040B6002028040320EF
:100520009005FA0B1C040320E8390320F03903205E
:1005300073B2E7452DE9F0431F4D9BB0DFF8808093
:1005400001AE0AAF002404EBC401C4F124024FF051
:10055000FF33286806EB810116F048FE0444232C83
:10056000F1D904980DF0B6FC039B8146B3F1005F0E
:1005700000D0A0B911480EF079FF50B13A4631468B
:100580000E480EF033FED8F80C300133C8F80C30AA
:10059000D8E74FF0FF32012117F072FFEAE700249D
:1005A000A9EB040239194FF0FF33286816F01EFE3C
:1005B00004444C45F4D3DDE790380320F8270320AA
:1005C00010000320F0B583B006F06CFE03F098FA3B
:1005D00007F0E8FE00F0DCFD0AF004FF17F0BAFBBC
:1005E00006F008FE17F0B6FB06F008FE224812F0EF
:1005F000F3FE224812F0B8FE214922480AF07EF8A4
:10060000214D08F013FF214E214F05E001330CD19D
:100610000A2101A817F030FA17F09CFB32682B680A
:1006200001320190F2D101330BD04FF47A7401E022
:10063000013CEDD02846174903F05EFB0028F7D0B7
:10064000E6E70AF0CDFE01980AF0D2FE019800F02C
:10065000A1FD3B784BB1019806F0E2FD019807F04F
:100660009FFD01980AF060F8D2E7019806F06EFF4E
:10067000019806F0C1FDEEE7302503209824032001
:100680000818032098260320C4390320F0390320DA
:1006900092000320BC3903202DE9F04300262B4DA6
:1006A000DFF8B490DFF8B480294FA7B016E06302FA
:1006B00003D52B7943F080032B7198F8003033B1C8
:1006C0000B9B23B1642015F0D5FF03F019FA00222B
:1006D000022311463868009617F054FF4FF0FF329E
:1006E0000121002017F0CCFE18F002FB19480FF092
:1006F00013F8044606A917480EF074FE02A915481F
:100700000EF098FE5422294611A8AC6019F00EFA9A
:10071000104B1E66189BB3F5003F02D9AB689A02D6
:100720000CD418F0F3FA99F80030012BBFD123460E
:1007300011AA06A902A807F03DF8B8E7012385F839
:1007400020300B9303F066FAEBE700BF10000320A4
:10075000B81C0320F8270320BC3D03201804032005
:1007600000232DE9F04385B05B4C5C4EDFF87881C7
:100770005B4D0DF10E078DF80B3005E000214FF0B9
:10078000FF32084617F07CFE206816F039FC00287E
:10079000F4D04FF0FF33012220680DF10B0116F069
:1007A00025FD0128EAD1206816F02AFC0128E5D9A8
:1007B0004FF0FF330222206803A916F017FD02282C
:1007C000DCD1BDF80C20B2F5845FD7D8002A56D111
:1007D0009DF80B90B9F1000F16D117F0BBFA414B01
:1007E0003146BDF80C2000970DF09CF8BDF80E3096
:1007F000002B57D117F0AEFA31463A4BBDF80C201A
:1008000000970DF0DFF8B9E717F0A4FA354B33493C
:10081000BDF80C2000970DF0ADF8BDF80E3023B3F5
:1008200030490A787F2A08D1022B1ED98B78A3F190
:100830001102012A19D9312B17D04FF0FF330222B0
:100840003946D8F8000016F0E9FB4FF0FF33254990
:10085000BDF80E20D8F8000016F0E0FB00220223BD
:1008600011462868009217F08DFE17F073FA1D4BA1
:100870001A49BDF80C2000970DF0A4F87EE74FF060
:100880000009A2EB090206EB09014FF0FF332068D3
:1008900016F0ACFCBDF80C2081441FFA89F94A45DA
:1008A000EFD195E739464FF0FF330222D8F8000028
:1008B00016F0B4FBBDF80E204FF0FF330949D8F80D
:1008C000000016F0ABFB02234A4649462868CDF8E3
:1008D000009017F057FE8DE758040320BCA50020B8
:1008E000F809032038950020540403202DE9F8432B
:1008F000294E2A4DDFF8B08006F19C0706F5805995
:1009000005E000214FF0FF32084617F0B9FD2868D6
:1009100016F076FB0128F4D94FF0FF33022220496C
:10092000286816F063FC0228EBD1B6F89420B2F5E3
:10093000845FE6D86AB10024121B39194FF0FF33E7
:10094000286816F053FCB6F894200444A4B2A242DE
:10095000F2D117F0FFF90146124808F0A9F8002873
:10096000CFD117F0F7F90CF0E5FE0128C9D02868BF
:1009700016F046FB0128C4D898F8003053B199F816
:10098000230115F077FE17F0E5F90CF0D3FE0128EE
:10099000B7D0ECE70A20F4E7903E0220540403208D
:1009A000243F0220902E02209200032010B50C4913
:1009B0000C480DF041F80A4A0B490C4818F044FD68
:1009C000084C0B494FF0FF334FF40062206816F0DB
:1009D0000DFC01460028F4D005480DF045F8F0E77D
:1009E00048050320F00403206C2103201805032090
:1009F00044D8002006F024BC002006F025BC00BF2F
:100A00000022024B02481A6012F0E6BC14040320D4
:100A1000E4240320014B1868704700BF140403202E
:100A200010B59EB0482200210CA818F0DDFF00236D
:100A30004FF40070CDE90233CDE90433CDE907333B
:100A4000CDE90933019306930B9310F057FE08B1DB
:100A500072B6FEE70123022216931193199317929F
:100A600010231D9207229FED1E7BCDE91A3203242D
:100A7000042312900CA81C938DED0C7B189411F09C
:100A800079F8034608B172B6FEE70F22214601A8A5
:100A9000CDE9033305930294019210F017FF03464A
:100AA00008B172B6FEE7104A4FF0005C916D4BF64C
:100AB0007F3441F080719165926D069302F08072EF
:100AC000009208932222202306A8CDE90A23009948
:100AD000CDF81CC0099411F0ADFF1EB010BD00BFD1
:100AE0002900000000000100001002402DE9F04143
:100AF00094B072B64FF00062AC4B9A60BFF34F8F68
:100B000062B600240DF0A0FE08F09CFDFFF788FF00
:100B1000CDE90F44CDE91144A54D1394EB6C4FF48E
:100B2000604143F00403EB64EB6C224603F00403E2
:100B30000893089BEB6C9F4843F08003EB64EB6CDD
:100B4000012603F080030993099BEB6C4FF40078B6
:100B500043F00103EB64EB6C082703F001030A93F5
:100B60000A9BEB6C43F00203EB64EB6C03F00203B3
:100B70000B930B9B0FF06EFA224640F201118E4848
:100B80000FF068FA224641F2E4018C480FF062FA55
:100B90004FF4604387480FA9CDE90F3611941294A2
:100BA0000FF0A4F840F2011383480FA9CDE90F36E6
:100BB000CDE911440FF09AF841F2E4037F480FA900
:100BC000CDE90F36CDE911440FF090F87A480FA91E
:100BD000CDE90F8411960FF089F879480FA9CDE976
:100BE0000F7411940FF082F8AB6C052143F00403ED
:100BF000AB64AB6C224603F004030593059BAB6C1E
:100C00001D203343AB64AB6C33400693069BAB6C47
:100C100043F00203AB64AB6C03F002030793079B42
:100C20000DF048FE1D200DF07FFE224605211E20FE
:100C30000DF040FE1E200DF077FE224605215020CB
:100C40000DF038FE50200DF06FFE20460FF08AFDAB
:100C500008B172B6FEE70FF099FD034648B959484E
:100C60004360594B036011F00DFF034618B172B693
:100C7000FEE772B6FEE710224FF4407E4FF03C0CC8
:100C8000042113250F24514882618262504A436037
:100C9000C3608374C36313704E4BC0E907C5036020
:100CA000C0E90B41C0E90D66068246614662C0F8A4
:100CB00008E00EF0CDF8034658BB07224FF0FF3195
:100CC0004FF482754FF4E0644348C0E90A32434A66
:100CD000C0E90433C2E90533C2E90133D3601160CE
:100CE0003F4AC0E90833C2E90533C2E901338360F2
:100CF0000363D3603B4BC0F818800360C761476350
:100D00004560C460116012F0E1F8034618B172B694
:100D1000FEE772B6FEE73448344AC0E90533838003
:100D2000026006620DF032FE034608B172B6FEE7BD
:100D30004FF4027102222E48C3722E4B8180036051
:100D4000C0F807200FF02CFD034608B172B6FEE78D
:100D500041F63F75284C294ACDE90F0011902046F5
:100D6000C4E90133A3612260E56012F025FD03466A
:100D700008B172B6FEE720460FA90F93119312F047
:100D80004DFD034608B172B6FEE71D481D4ACDE988
:100D90000F33026042F20F72C0E902351193836192
:100DA000426012F009FD78B372B6FEE700ED00E094
:100DB0000010024000080242000002420004024209
:100DC000001C0242FC26032000080C42F8270320E6
:100DD0001804032000A4004098260320F0390320C3
:100DE000C4390320003800405C2803200030024052
:100DF0007021032000D40040E424032000140040AC
:100E00003025032000100040002395480FA90F93C0
:100E1000119312F003FD034608B172B6FEE74F25A9
:100E20004FF6FF748F48C0E90433836083618E4BB3
:100E3000C460C0E9003512F0BFFC034608B172B6C9
:100E4000FEE78A48C0E90153C0E90343C0E905331E
:100E5000874B036012F0B0FC034608B172B6FEE7A0
:100E60004FF080414FF0FF32824CCDE90F00CDE9C9
:100E70001100C4E901000CAD0C902061A061204676
:100E8000C5E901332160E26012F096FC08B172B648
:100E9000FEE74FF4805320460FA90F9312F0DAFAC1
:100EA000034608B172B6FEE7204629460C930E931E
:100EB00012F0B4FC044608B172B6FEE76E486F4902
:100EC00000902246CDE901446D4B0C7043F698200A
:100ED000012116F03DF805466A4E6B4A0096012145
:100EE000CDE90144694B156043F69820224616F07F
:100EF0002FF80546664E674A00960121CDE9014468
:100F0000654B156041F20100224616F021F80246B9
:100F1000624E634D00960121CDE90144614B2A6088
:100F200041F20100224616F013F85F4B5F4A01219F
:100F30000092CDE90144224618605D4B43F69820AB
:100F400016F006F85B4B5C4A01210092CDE90144A2
:100F500022461860594B43F6982015F0F9FF584B7C
:100F6000584E1860204607F0E9F9204607F000FACD
:100F700007F052FA16F0EEFE2A46534B53490096FC
:100F800007F0FCF852480AF0A9FD524806F018F99B
:100F90005148524A524902F099FD0FA80F9407F0A8
:100FA00089F910B90F9B002B55D015F095FA18F060
:100FB00037F900214B4A4C4815F0DEFA04464B4BFA
:100FC00000214B4A4B481C6015F0D6FA04464A4BA8
:100FD00000214A4A4A481C6015F0CEFA0446404BAC
:100FE0000021484A48481C6015F0C6FA0446474BA1
:100FF0000021474A47481C6015F0BEFA0446374BAB
:101000000021454A45481C6015F0B6FA04462F4BAE
:101010000021434A43481C6015F0AEFA0446424B97
:101020000021424A42481C6015F0A6FA0446414B92
:101030000021414A41481C6015F09EFA0446404B8D
:101040000021404A40481C6015F096FA3F4B18605A
:1010500015F064FAFEE73E4807F004F9A5E700BF83
:101060003025032098240320004401404C24032011
:10107000004801407C2503201C050320EC040320CC
:10108000DC1A0120F40403201805032044E00020AA
:10109000C8040320F004032034850020A4040320A6
:1010A00058040320307500205404032080040320DA
:1010B000983A0020943803205C04032000000020AC
:1010C000903803204C04032050040320A80E032072
:1010D000FC2603205C280320F82703205813032054
:1010E000B81C0320ACDB0108550200086C2103206A
:1010F00088DB0108F10200086821032064DB010895
:101100003505000840DB0108C50500080818032064
:101110001CDB010899060008F8DA010861070008DD
:10112000D4DA0108ED080008F8090320B0DA010854
:10113000AD090008480503208CDA0108F50900080C
:101140004405032068DA0108F90900084005032076
:10115000040029C0094A0368934206D0084A934212
:101160000AD0084A934205D07047074A13680133F2
:101170001360704706F05CB80DF078BB00140040B7
:10118000002C0140001000401404032072B6FEE75A
:10119000704700BF034B044A1B68D07D1B6803499E
:1011A0001B6D18472001032070000320F83C03202A
:1011B00040F69E732DE9F047DFF89CA02349244AAE
:1011C000DAF80040B1F800E012889C4204FB0E22DD
:1011D00038D800204FF0804140F69F764FF030081D
:1011E0003127DFF878901B4D09EB040C4B6A9342D2
:1011F000FCD32B69013013F48073C0B204F10104F5
:1012000072440ED118468CF80080B4420CF1010CE7
:10121000ECD10120CAF80040002309F80430BDE8F1
:10122000F0870A288CF80070EFD9142C02D80CF142
:10123000010CDBE7002309F804300020CAF8004065
:10124000BDE8F0870120DFF81490E5E70A000320ED
:101250000800032000040242EC280320F0280320A9
:1012600070B500244FF0804101254FF6FF7086B025
:10127000CDE90044CDE9024404940A681A4E22F0F4
:1012800001020A603288194B013A8A624C624D6150
:101290000A682A430A601A6822F001021A609862FA
:1012A0005C625D611A682A431A6002F0B3FC2A4648
:1012B0004FF400710E480EF0CDFE4FF48072002303
:1012C00069460B48CDE9002302940EF00FFD4FF460
:1012D0000073032269460648CDE900350392029463
:1012E0000EF004FD06B070BD0C0003200048014064
:1012F00000040242F0B5BDF81440012C45D94FF06E
:10130000300C0127013C83F800C000293FD10A2698
:101310003D4604E08C4675460127013E15D320FA70
:1013200006F101F0010105F1010EA54201F13001C4
:101330001FFA8EFE29DA8C455955EBD10137FFB2E1
:10134000052F4FD0013E7546E9D2002A0CBF30264A
:101350003126A54219DA691CB4455E5589B200F000
:10136000C1800127A14210DA30224D1C9642ADB255
:101370005A5400F0D980A54207DA881C80B25A5529
:1013800000221A54F0BDA54239DB0020F0BD1C2616
:101390003D4605E08C4675460127013E112EF2D0F0
:1013A00020FA06F101F0010105F1010EA54201F15B
:1013B00030011FFA8EFEE8DA8C455955EAD1013723
:1013C000FFB2052F01D07546E7E7CCF1610CA645C9
:1013D0005FFA8CFC05F10205D7DA012703F80EC08D
:1013E000ADB2DAE7CCF1610CA6455FFA8CFC05F1F1
:1013F0000205CADA012703F80EC0ADB28DE74FF03F
:10140000310E691CF44589B203F805E04FD0A142C2
:10141000BBDA03F801E0A91CF44602271FFA81FE9B
:1014200004E08C46AE460127013E22D320FA06F1A5
:1014300001F00101A64501F13001A6DA0EF1010526
:10144000614503F80E10ADB2EBD10137FFB2052FA5
:1014500001D0AE46E8E7CCF1610CA5425FFA8CFC06
:101460000EF1020E91DA012703F805C01FFA8EFE75
:10147000DAE7002A0CBF30253125A64585DA0EF1C2
:101480000102AC4503F80E5092B262D00121A24293
:10149000BFF67BAF3027561CBD42B6B29F5477D003
:1014A000A642BFF672AF023290B29F5568E7042F92
:1014B00028D0A142BFF669AF0237FFB205F1020E94
:1014C000052F03F801C01FFA8EFEAFD1A645BFF667
:1014D0005CAF4FF0300C033503F80EC001271FFA44
:1014E00085FEA3E70137FFB2052F7FF43BAFA14292
:1014F000BFF64BAFC6F16106F6B202355E54012766
:10150000A9B22FE7A142BFF640AF30275F54A91C14
:1015100089B28C427FF739AF05F1030E012703F83A
:1015200001C01FFA8EFE81E77A1CD2B2052A21D0B3
:10153000A542BFF62AAF881C042A5E5580B27FF40C
:101540001FAFA042BFF621AF312203311A5488B237
:1015500016E7791CC9B2052999D1A242BFF615AF89
:10156000C5F16105EDB20EF1020E9D5401211FFA85
:101570008EF28CE7A542BFF608AF31225A558A1C7D
:1015800092B294427FF701AFC81C80B29E54F7E636
:101590000131C9B2052910D0A642BFF6F6AE9D555D
:1015A000042902F10205ADB215D1A542BFF6EDAE98
:1015B0003121033290B25955E2E6A642BFF6E5AEBC
:1015C00031219955911C89B2A142BFF6DEAE03329A
:1015D00090B25D54D4E62846D2E600BF4B4B186863
:1015E000831C70D02DE9F04FC71C91B077D0411CFF
:1015F00002D14FF000090BE03024454B454A1978E1
:10160000127804AB0094FFF775FE8146002860D085
:101610004FF0804C404B414A1B88B2F800A0039326
:101620003F4B0AEB8A0E1F883E4B3F491C683F4EDA
:101630004FEA4E0E0B69DA05FCD5DCF8242092B295
:101640000B69DB05F6D5DCF824309B1A9E45F7D8EC
:101650000B6913F4807306D0736ABB422DD80B69F3
:1016600013F48073F8D1CCF82430B9F1000F1AD0FC
:101670001C464FF08040039ADFF8B880DFF8A8B02E
:1016800004AD436A9342FCD3DBF81030524413F4A8
:10169000807F15F8013B0DD0312BCBD10134A14512
:1016A00008F8013BEDD11F4BC3F80090002011B0AA
:1016B000BDE8F08F302BF1D0BCE70120194B1C6046
:1016C00011B0BDE8F08F4FF08043002200205A6235
:1016D000704717480CF062FA4FF0000998E74FF096
:1016E00080440E4B104A188800EB800040001369BC
:1016F000DE05FCD5616A89B21369DD05F7D5636A39
:101700005B1A8342F8D300236362CFE7040003200F
:10171000E9280320E8280320080003200A0003200A
:1017200000000320EC28032000040242004801408E
:10173000A4A80108F028032002783AB34FF0000C67
:1017400030B56346864631250BE02A2A07D10CF1D5
:10175000010C1FFA8CFC8EF8005000EB0C0EC25CE2
:1017600082B1A2F13001013301290CF101049BB2D5
:10177000EBD88EF80020C25C1FFA84FC00EB0C0E44
:10178000002AEED100238EF8003030BD0023037014
:10179000704700BF70B504460CF0D2FB14281ED968
:1017A00000F1FF3E1FFA8EFE14F80E3004EB0E051A
:1017B000312B2A4615D1831E9BB200EB040C0CEB97
:1017C00003002A262344A0EB0E0005E016701A46FB
:1017D0001178013B312906D1C11A0C29F6D9002014
:1017E00070BD00EB040C002220460126144610F8C0
:1017F000013BA3F1300101292FD862B386B3052A3A
:1018000042D0A3420FD0312B5ED0844515D010F8C2
:10181000011B0122A1F13003012B79D830231C4692
:101820000B46A342EFD10132312CD2B256D08445BF
:101830004FF001064FF03004D9D10FFA8EFEBEF101
:10184000000F06DB2A4615F801392A2B58D05F2BEA
:1018500037D0012070BD1C4601228445C7D1ECE77A
:10186000A3420DD08445E8D010F8011B1C46A1F11D
:101870003002012A22D80B46A3424FF00102F1D1D7
:1018800001320026D2B2E8E7A342A8D05F23844504
:1018900000F8013CD1D0034613F8011BA1F130023E
:1018A000012A20D86345C8D043783246A3F13004DA
:1018B000012C00F102000C46A0D9CEE7002601223F
:1018C000CBE730231370C4E78445B6D010F8011B72
:1018D000A1F13002012A1ED80122A0E7062A8CBFFE
:1018E00000260126B9E76345A7D01A780230A2F195
:1018F0003003DBB2012B96BF144600223246ACE720
:101900000EF1FF3E0FFA8EFEBEF1FF3F9AD1A0E727
:1019100030241646A1E701221C4616469DE700BF6B
:1019200070B571B3002344F2995600F1FF3C0CEB03
:1019300001051CF8012F5C00A2F13102B2FA82F21B
:101940004FEA933E47F6FE735209724503EA0403D9
:1019500018BF7340AC45ECD14A1E00F10E0C024496
:1019600000208C4412F8011F4000312908BF40F0CC
:101970000100944580B2F5D1C01AB0FA80F0400958
:1019800070BD0B46E8E700BF2DE9F04F8FB004466D
:101990000CF0D6FA122840F24B812378302B05D078
:1019A000B4480FB0BDE8F04F0CF0F8B8074606AEEB
:1019B000B1480CF0F3F800253146234604F10B0C36
:1019C00013F8012FA2F13100B0FA80F09C454FEAE4
:1019D000501001F8012B40EA4505F1D14FF0000805
:1019E000A6488DF823800CF0D9F806A80CF0D6F89C
:1019F000A3480CF0D3F803A928460CF013F903A868
:101A00008DF814800CF0CAF89E480CF0C7F894F8D2
:101A10000CA09D48657B8DF819808DF818A00CF0FE
:101A2000BDF806A80CF0BAF898480CF0B7F898483A
:101A30008DF818500CF0B2F806A80CF0AFF89348E7
:101A40000CF0ACF8312D40F0FD80262F40F2F680EE
:101A5000454606AA04F10D010DF12A0011F8013FD7
:101A600002F8013BA3F13103B3FA83F390424FEA4A
:101A7000531343EA4505F1D14FF0000885488DF82E
:101A80002A800CF08BF806A80CF088F87C480CF043
:101A900085F803A928460CF0C5F803A88DF8148032
:101AA0000CF07CF877480CF079F894F820A07A488C
:101AB0008DF819808DF818A00CF070F806A80CF0BD
:101AC0006DF872480CF06AF894F8213073488DF87C
:101AD00018300CF063F806A80CF060F86B480CF0B6
:101AE0005DF894F822306E488DF818300CF056F8F6
:101AF00006A80CF053F865480CF050F82322002596
:101B000004F1040C06A89444A11811F8013B00F854
:101B1000013BA3F13103B3FA83F38C454FEA53132E
:101B200043EA4505F1D14FF000095E4802F104088F
:101B300001928DF81C900CF031F806A80CF02EF8EC
:101B4000EDB24F480CF02AF803A928460CF0D8F85B
:101B500003A88DF80E9008EBC50B0CF01FF8494850
:101B60000CF01CF80BF10F03BB42019A00F2E78066
:101B7000BAF1300F00F0A680002506A90BF1FF3066
:101B8000204401F10F0710F8012F01F8012BA2F1F9
:101B90003102B2FA82F28F424FEA521242EA45050E
:101BA000F1D10027404801938DF827700BF0F6FF24
:101BB00006A80BF0F3FF32480BF0F0FF03A9A8B220
:101BC0000CF07CF803A88DF810700BF0E7FF374895
:101BD0000BF0E4FF59462046FFF7A2FE019B0028C8
:101BE00040D033480BF0DAFF019BE25CE118A2F130
:101BF0003003012B98BF012303D916E00133202BBA
:101C000036D006F8012B11F8012FA2F1300001287F
:101C1000F4D900226B4427481A760BF0BFFF06A8C0
:101C20000BF0BCFF19480BF0B9FF0FB0BDE8F08F07
:101C300021480FB0BDE8F04F0BF0B0BF1F480BF0CC
:101C4000ADFFF2E7A37B16488DF818308DF81980A8
:101C50000BF0A4FF06A80BF0A1FF0C480BF09EFFB1
:101C60000F224CE7164801930BF098FF019BBCE74D
:101C70001F23CEE7E0A80108F4A8010808A901087D
:101C800018A9010860D0010820A9010830A901089D
:101C900034A9010858A9010868A9010878A9010810
:101CA00088A9010898A90108D4A90108E4A9010894
:101CB000E8A90108FCA90108CCA8010844A9010869
:101CC000F0A90108082D3FF657AF002D3BD06B1E41
:101CD000DBB20C3202EBC30B0DF11F0700250DF137
:101CE000170204EB080111F8013B02F8013FA3F1D0
:101CF0003103B3FA83F397424FEA531343EA45059E
:101D0000F1D113488DF820900BF048FF06A80BF096
:101D100045FF10480BF042FF03A9E8B20BF0F0FFBB
:101D200003A808F108088DF80E900BF037FF0A4859
:101D30000BF034FFC345D1D10BF10F031CE707486B
:101D40000BF02CFF71E7C34602F1130314E700BF49
:101D5000C4A9010818A9010860D00108A8A90108B0
:101D6000002800F0F98030B583B004460CF0E8F8A4
:101D70000130235C25180BB9012038E02046774953
:101D80000CF0F6F848BB204675490CF0F1F820BB82
:101D9000204674490CF0ECF8002856D120467249D0
:101DA0000CF0E6F8002862D00A2128460DF107025F
:101DB0000CF048F99DF80730002BDDD04FF6FE738C
:101DC000421E9A42D8D8694B80B21A88684982422A
:101DD00008800BD34008188008E0284665490CF0BD
:101DE000C7F830B16FF00102634B1A60002003B0F6
:101DF00030BD284661490CF0BBF820B14FF0FF32EE
:101E00005D4B1A60F2E728465D490CF0B1F820B14D
:101E10006FF00202584B1A60E8E7102128460DF1D6
:101E200007020CF00FF99DF807300446002BA3D0F1
:101E3000B0F1005FA0D2B0F5006F03D3514B1A7818
:101E4000002A50D04C4B1C60D0E70A2128460DF1E7
:101E500007020CF0F7F89DF80730002B8CD04FF6F6
:101E6000FE73421E9A4287D8474B1880BEE7204631
:101E700046490CF07DF890B10A2128460DF1070281
:101E80000CF0E0F89DF80730002B3FF475AF384BAD
:101E90001B8883427FF670AF344B1880A6E720463C
:101EA0003B490CF065F880B128463A490CF060F8DF
:101EB000002837D0304B384A1B68A3F500639342A3
:101EC00046D900222F4B1A7090E7204633490CF078
:101ED0004FF870B128462F490CF04AF868B3002239
:101EE0002F4B1A7082E701222E481A700BF056FE13
:101EF000A8E720462C490CF03BF800283FF43CAF03
:101F00000DF107020A2128460CF09CF89DF80720E5
:101F1000002A3FF431AFB0F5803FBFF42DAF234A24
:101F2000108063E7284622490CF022F800283FF48D
:101F300023AF0122134B1A7058E728461C490CF0B6
:101F400017F800283FF418AF0122154B1A704DE71F
:101F500018480BF023FE0FE7012070470CAA010878
:101F600018AA010858AA010864AA01080800032059
:101F70000A00032014AA01080400032020AA010873
:101F800024AA0108E92803200C00032070AA0108F4
:101F900080AA01088CAA0108FFF7FF1FBCAA01084C
:101FA000E82803202CAA0108C0AA01080000032089
:101FB000B8AA010890AA010810B5364884B00BF001
:101FC000EDFD354B01A918880CF06AF801A80BF05B
:101FD000E5FD324C32480BF0E1FD32480BF0DEFDFE
:101FE00001A920680BF01EFE002301A88DF80C301B
:101FF0000BF0D4FD2368991C40D05A1C42D0033307
:1020000044D029480BF0CAFD284B01A918780CF0E0
:1020100047F801A80BF0C2FD25480BF0BFFD254B8A
:1020200001A918780CF03CF801A80BF0B7FD224884
:102030000BF0B4FD214B01A918880CF031F801A870
:102040000BF0ACFD1E480BF0A9FD1E4B01A9188832
:102050000CF026F801A80BF0A1FD1B480BF09EFD2B
:102060001A4B01A918880CF01BF801A80BF096FD7B
:1020700017480BF093FD002004B010BD15480BF07D
:102080008DFDBEE714480BF089FDBAE713480BF04D
:1020900085FDB6E7C8AA010800000320040003205C
:1020A000D4AA0108DCAA0108FCAA0108E928032037
:1020B00008AB0108E828032010AB01080C0003203E
:1020C00034AB01080A00032044AB010808000320D8
:1020D00030A90108E4AA0108ECAA0108F4AA010841
:1020E0002DE9F0410026104D104FFFF7B9F86E6250
:1020F0006A6A3B889A4212D24FF08044DFF83480FB
:10210000B8F800206662636A9342FCD34FF4007112
:1021100007480DF0A5FF6A6A3B889A42F0D301F0A8
:10212000EFFC0020BDE8F0810048014000000320E2
:10213000000402420A0003202DE9F04F7A4B91B0CF
:102140001B88B3F57A7F60D9FFF78AF872B6774BB0
:102150001868831C00F0D780C71C6DD0411C5BD170
:102160004FF000094FF0804C714B724A1B88B2F857
:1021700000A00393704B0AEB8A041D686A4B6F49F9
:10218000B3F800E06E4F64000B69DA05FCD5DCF8AB
:10219000242092B20B69DB05F6D5DCF824309B1ABB
:1021A000A342F7D30B6913F4807307D07B6A73459E
:1021B00000F2B1800B6913F48073F7D1CCF82430AE
:1021C000B9F1000F1AD01D464FF08040039ADFF896
:1021D0008C81DFF868B104AE436A9342FCD3DBF82C
:1021E0001030524413F4807F16F8013B0AD0312B93
:1021F000CAD10135A94508F8013BEDD14E4BC3F8D2
:10220000009032E0302BF4D0BEE74E480BF0C6FC15
:10221000002011B0BDE8F08F30244B4B4B4A1978A9
:10222000127804AB0094FFF765F88146002899D135
:1022300047480BF0B3FC93E74FF080443D4B3F4AD7
:10224000188800EB800040001369DE05FCD5616A48
:1022500089B21369DD05F7D5636A5B1A8342F8D347
:1022600000236362304BB3F800E00026344D6E6209
:102270006B6A73452FD22E4B4FF08041B3F800C0EC
:102280002C4B2E4C1F8802E06B6A73452ED22369BB
:1022900013F48073F8D162461846D5F824804B6257
:1022A0004B6A9342FCD32369013013F48073C0B2AC
:1022B00019D00B283A44F3D1A2EB0C024B6A93429B
:1022C000FCD36B6AA3EB08031E446B6A7345DED331
:1022D000204B03FB06F662B601F012FC124B1B8882
:1022E000B6FBF3F095E718463A44D9E762B601F039
:1022F00007FC184B0C4A06FB03F31088B3FBF0F005
:1023000011B0BDE8F08F4FF0804300225A62064BB7
:10231000B3F800E0A9E7084B1D6062B60E480BF069
:102320003DFC01F0EDFB73E70000032004000320F7
:10233000080003200A000320EC28032000040242C6
:102340000048014058AB0108E9280320E828032091
:10235000A4A80108A086010074AB0108F02803209E
:102360002A4B70B51B680333012B37D9FEF778FF72
:1023700072B60022264B5A62FFF730F928BBFEF7EF
:1023800017FF044600283AD162B6224E3368072B65
:102390002ED9214D28460BF001FC20480BF0FEFB06
:1023A00033682846EC54FFF7F5F9D8B128460BF00E
:1023B000F5FB1B480BF0F2FB2846FFF7BDF9FFF7D2
:1023C000E3FA01F09DFB204670BD62B615480BF0A4
:1023D000E5FB01F095FB0124204670BD12480BF08F
:1023E000DDFBF8E711480BF0D9FB01F089FBF3E7BF
:1023F0000F480BF0D3FB01F083FB204670BD62B6A3
:102400000C480BF0CBFB01F07BFBE4E7040003205E
:1024100000480140EC280320F028032008AC010804
:1024200020AC0108BCAB010888AB010810AC010866
:10243000F0AB0108D8AB01082DE9F04F91B0FEF7E1
:102440000FFF72B600254FF0804270497048714B03
:10245000556205604D621868811C00F0A180C31CA4
:1024600000F0B380421C7FD1AB464FF0804E6A4BE8
:102470006A481E886A4B06EB86041A88694BDFF8A7
:102480008C81B3F8009064000369DB05FCD5DEF8AD
:10249000241089B20369DF05F6D5DEF824305B1A13
:1024A000A342F7D3036913F4807307D0D8F824301C
:1024B0004B457ED8036913F48073F7D1CEF82430EE
:1024C000BBF1000F00F09B801D46574B11469A460A
:1024D0004FF0804703930DF1100C7B6A8B42FCD3C5
:1024E0004E4B31441B6913F4807F1CF8013B54D0E0
:1024F000312BC9D10135AB450AF8013BEDD1444B35
:1025000006FB0B22C3F800B040F69E739B451AD819
:102510004FF080414FF0300C3127039B0BF1FF301F
:10252000424D3E4C18444B6A9342FCD32369DB0571
:102530002DD500F8017FA8423244F4D140F69F73B4
:102540009B46334A13600024039B03F80B4062B69A
:1025500001F0D6FA34480BF021FB35480BF01EFB96
:10256000204611B0BDE8F08F324B334A1978302342
:102570001278009304ABFEF7BDFE834600287FF47B
:1025800074AF2E480BF00AFB214B1D686DE700F875
:1025900001CFA8423244C6D1D0E7302BAAD073E78E
:1025A0001D4B1F491E88204B5562AB460A8803937A
:1025B000AEE7174B1D6062B621480BF0EFFA01F051
:1025C0009FFA012011B0BDE8F08F134B13491E880C
:1025D00006EB860464000B69DF05FCD5506A80B207
:1025E0000B69DD05F7D5536A1B1AA342F8D3002304
:1025F0000B490D489B46039053620A8888E70A4BB3
:102600000393034BC3F800B082E700BF00480140CA
:10261000EC280320040003200A00032000040242E7
:102620000800032000000320F02803208E38032038
:1026300030A90108E9280320E8280320A4A80108FC
:1026400074AB0108002800F019812DE9F04F95B016
:1026500083460BF075FCB0F57A6F28BF4FF47A60B3
:10266000894E81463368033340F0C480FEF7F8FD9D
:1026700072B600254FF08044844B65625D6230681D
:10268000834B1D60831C00F0E380C71C00F0C580F5
:10269000471C00F0BA80302300937E4B1A787E4BA3
:1026A000197808ABFEF726FE8246002800F0AF80BE
:1026B0007A4B4FF0804E1A8879491346098802EB0D
:1026C0008204059177497848B1F800806F4F640023
:1026D0000169CE05FCD5DEF82460B6B20169C905F2
:1026E000F6D5DEF82410891B8C42F7D8016911F465
:1026F000807107D0796A414500F2B480016911F414
:102700008071F7D1CEF82410BAF1000F00F0B88034
:102710004FF0804C0D466549059E0691049108A92D
:1027200003910794DCF82410B142FBD35E49039C6B
:102730000969164411F4807F14F8011B039460D0DA
:10274000312960D1049C013504F8011BAA45049489
:10275000E8D105990024114418464FF080424FF407
:10276000007E4FF0300840F69F7C494D504E4E4F52
:102770002C60556A8542FCD3A1453FD91BF8045013
:10278000312D3BD0302D04D14FF0007A464DC5F8A5
:1027900018A0556A8D42FCD33D690134ED0544BF54
:1027A000312506F8015F3A4D58BF06F8018F6445A0
:1027B0002C6018441944DCD14FF47A6000224FF0A9
:1027C000804100FB03F3069880F89F2F4A6A9A42E3
:1027D000FCD34FF40072344B9A6162B601F090F969
:1027E00032480BF0DBF933480BF0D8F9002015B074
:1027F000BDE8F08F30480BF0D1F937E7C7F818E0A3
:10280000C7E730299ED0079C62E7AA4650E72B48CD
:102810000BF0C4F91E4B1D684AE7204B224D1A8865
:10282000134602EB820149002869C605FCD5666A99
:10283000B6B22869C005F7D5606A801B8842F8D314
:10284000002161621649098805911849069180E7BF
:10285000124A134B12881B8814496562059306912E
:10286000134676E70A4B1D6062B615480BF096F9E1
:1028700001F046F9012015B0BDE8F08F0120704746
:102880000A49069165E700BF0400032000480140A3
:10289000EC280320E8280320E92803200A0003206D
:1028A000080003200000032000040242F028032057
:1028B000EF28032030A9010830AC0108A4A80108C2
:1028C000BCAB01082DE9F04F91B0FEF7C9FC72B620
:1028D00000229C499C4B4A621868831C00F01881B6
:1028E000C71C00F04981441C02D14FF0000E0CE0DF
:1028F0003024964B964A1978127804AB0094FEF770
:10290000F9FC8646002800F017814FF08044914A78
:10291000914B1288B3F800C00392904B904A0CEB95
:102920008C05B2F800B01E688E49864F6D000A69AA
:10293000D005FCD5606A80B20A69D205F7D5626A13
:10294000121A9542F8D80A6912F4807207D07A6A8E
:102950005A4500F2D2800A6912F48072F7D162629D
:10296000BEF1000F00F0258116467F4A4FF08048E7
:102970009146039802920DF1100AD8F82420824261
:10298000FBD3784A6044126912F4807F1AF8012B55
:1029900000F0AA80312ACAD10136B64509F8012BC8
:1029A000EBD1039A0CFB0E2200244FF0804040F63E
:1029B0009E764FF0310830276A4D416A9142FCD330
:1029C0002969013411F480710AD1B64598BF029C7F
:1029D000624498BF04F80E700C460EF1010EECE74D
:1029E000B64598BF0299624498BF01F80E80092C41
:1029F0000EF1010EE1D10399DFF848A1594EC3F859
:102A000000E0511A0393DAF82400584533D840F611
:102A10008E739E452FD8029B0EF1FF351D4400207A
:102A20004FF080434FF031094FF030080EF10104B0
:102A30005F6A8F42FCD3052894BF4FF000774FF4B4
:102A40000077B7615F6A9742FCD337696144FF053D
:102A500054BF05F8018F05F8019FDAF8247062442D
:102A60005F4504EB000ECED801301028E0D1DAF833
:102A700024305B45CBD94FF08042039BC3F800E084
:102A8000536A8B42FCD32F4C636A5B4518D84FF0D6
:102A9000804300274FF000764FF400750CEB4C019B
:102AA000304849004FEA0C1C5F6286615A6A8A42CC
:102AB000FCD385615A6A6245FCD3626A5A45F3D9F0
:102AC000BEF57A6F14D20023029A02F80E3062B675
:102AD00001F016F824480BF061F824480BF05EF87A
:102AE000002011B0BDE8F08F302A3FF455AF1EE74B
:102AF0000023029A82F89F3FE9E71E6062B61C48F5
:102B00000BF04CF800F0FCFF012011B0BDE8F08F95
:102B10004FF08045104C144E104B0E481049B4F83D
:102B200000C002966A620288D3F800E00392B1F80E
:102B300000B00EFB0C2237E70E480BF02FF84FF0D9
:102B4000000EE2E60048014004000320E9280320CB
:102B5000E8280320080003200A000320EC280320B3
:102B60000000032000040242F028032030A90108DD
:102B7000BCAB0108A4A801084FF080420F4B1048DD
:102B8000B3F800C00CEB8C0149000369DE05FCD5ED
:102B9000546AA4B20369DD05F7D5536A1B1B8B4247
:102BA000F8D30024074D084B0295084808495462A1
:102BB000B9E70449039A0291F6E600BF0A00032030
:102BC00000040242F0280320EC2803200800032020
:102BD000000003202DE9F04FA24C93B0236803338B
:102BE000012B40F214818346FEF73AFB72B60026B1
:102BF0004FF080429C4B5E629C4B1E605662206888
:102C0000811C00F02581C31C00F04A81421C72D156
:102C100034464FF0804C964BDFF864A21D88954BEC
:102C200005EB850E1B8894490593944BDFF8388299
:102C3000B3F800904FEA4E0E0B69DB05FCD5DCF8CB
:102C4000242092B20B69DF05F6D5DCF824309B1AFC
:102C50009E45F7D80B6913F4807308D0D8F8243058
:102C60004B4500F2C6800B6913F48073F6D1CCF8A3
:102C70002430002C00F02E814FF080401E46804B07
:102C800006AF059A04930397436A9342FCD37A4BA9
:102C9000039F1B692A4413F4807F17F8013B0397B5
:102CA0003BD0312BC8D1049F013607F8013BB44219
:102CB0000497E9D16D4B1C60059B05FB043300268E
:102CC0004FF0804240F69E7C4FF031094FF03008C3
:102CD000694F0BF1060E516A9942FCD339690136EE
:102CE00011F4807104F101001AD1644521D90E4616
:102CF00004462B44EFE7634B1A7830230093624B72
:102D0000197806ABFEF7F6FA0446002881D15F4831
:102D10000AF044FF554B1E687BE7302BC3D08BE78E
:102D2000644598BF0AF80490B6452B4407D9044679
:102D3000D1E70AF804800E4601342B44CBE7014664
:102D40004FF08040059A9E1A426AB242FCD34FF07F
:102D500000774FF08040484A9761426A9A42FCD31C
:102D6000454A0234126912F4807F40F69E7255D1B2
:102D7000914261D93D48944204602E442B4442D88C
:102D80004FF080424FF4007C4FF031084FF0300E8E
:102D90003F4F394C5144506AB042FCD3C4F818C07C
:102DA000506A8342FCD82069C0051BD401F801EFAA
:102DB000B9422E442B44EED140F69F732B4A136048
:102DC00040F69F7300220AF8032062B600F098FED6
:102DD0002B480AF0E3FE2F480AF0E0FE002013B073
:102DE000BDE8F08F01F8018FB9422E442B44D2D1B7
:102DF000E2E71E4B28481C461E600AF0CFFE2368FF
:102E0000B3F57A6FDED300238AF89F3FDDE72348CE
:102E10000AF0C4FE012013B0BDE8F08F9142A9D89A
:102E2000124A2E44146031220AF8012040F69F72A3
:102E300094422B44A4D1C3E70C4A2E4414603022A0
:102E40000AF8012040F69F7294422B4498D1B7E7CC
:102E5000084B56621B88064A34461588DFF820A0C6
:102E600005932CE70400032000480140EC280320D0
:102E70000A0003200800032000040242000003208F
:102E8000F0280320E8280320E9280320A4A801084B
:102E90008E38032030A9010874AC010860AC010829
:102EA0000D4B0E491D8805EB850464000B69DF0599
:102EB000FCD5506A80B20B69DE05F7D5536A1B1A40
:102EC000A342F8D30024064B54621B88DFF814A0F9
:102ED0000593F4E6059BF2E60A0003200004024293
:102EE00008000320F02803209B4B2DE9F04F1B68BE
:102EF00093B00333012B40F224818146FEF7B0F9F1
:102F000072B60023DFF87CB2944ACBF82430DBF8A9
:102F100024301688B34280F0DA80914C09F106091A
:102F200000274FF080428C4B57621D688D4BA91CC7
:102F30001F6000F0D680EB1C00F0E480691C00F0FC
:102F4000CD8030230093884B28461A78874B197818
:102F500006ABFEF7CFF98246002800F0CB8038465A
:102F60004FF08047824BB3F800E0824B0EEB8E0CA3
:102F70001B884FEA4C0C04932369DA05FCD57A6A66
:102F800092B22369DB05F7D57B6A9B1A6345F8D3B8
:102F9000236913F4807308D0DBF82430B34200F2C5
:102FA000CA80236913F48073F6D17B62BAF1000FF3
:102FB00000F0C4804FF0804118466F4B049A039391
:102FC0000DF1180805954B6A9342FCD323697244AE
:102FD00013F4807F18F8013B1FD0312B1FD1039DC4
:102FE000013005F8013B82450395ECD1DDE904355C
:102FF00000FB0E3200274FF0804101304B6A9342B4
:10300000FCD32369013713F4807300F1010C08D05D
:10301000B945724409D96046F0E7302BDFD0059DF1
:10302000AAE71F4672440130E8E74FF080414D4B5C
:103030001860049BD21A4B6A9342FCD34FF0007382
:103040004FF080417244A3614B6A9342FCD34FF42A
:10305000007CC4F818C0DBF82430B34237D2023504
:103060007FF45EAF4FF080414FF0000E4FF0007BD9
:103070003F4B3B4D1F883F4BDFF808A1B3F8008062
:10308000002442462046C1F824E0C1F824E04B6AFF
:103090009A42FCD82B69013013F4807358D08145D3
:1030A00004F101043A44F2D8A2EB08024B6A9A42B6
:1030B000FCD8C5F818B03A444B6A9A42FCD8C5F817
:1030C00018C0DAF824309E42DAD8264B1C6062B66B
:1030D00000F016FD002013B0BDE8F08F3846BA4668
:1030E0003EE7244B57621A88214B3846B3F800E07C
:1030F00004927FE721480AF051FD184B1E88194BB6
:1031000018682DE71A4B1649B3F800E00EEB8E074E
:103110007F000B69D805FCD5506A80B20B69DB05CE
:10312000F7D5536A1B1ABB42F8D30020114B5062EB
:103130001A8804925EE70B4B1860C8E75046049A61
:1031400058E70F480AF02AFD012013B0BDE8F08FC0
:10315000184601343A449AE7040003200000032093
:1031600000040242EC280320E8280320E928032079
:103170000A00032008000320F0280320A4A8010867
:1031800060AC010800480140087070470078704743
:10319000030A08704B707047012994BF00780088BB
:1031A000704700BF012908D94FF6FE2302889A42D2
:1031B00003D8981AC0F34F0070470020704700BF33
:1031C000012911D94378FA2B07D8084AC3EB0330F9
:1031D000A2FB0020C0F30F10704740F6FF72FF2BD8
:1031E0000CBF00201046704700207047D34D62107E
:1031F000022907D94FF6FF73B0F80100984208BFC3
:103200000020704700207047042907D94FF6FF734C
:10321000B0F80300984208BF0020704700207047B4
:10322000012907D94FF6FF730088984208BF4FF471
:10323000006070470020704701290ED94FF6FF73D8
:103240000088984209D047F27F53984238BF184609
:10325000A0F5EA407F3880B270474FF400607047B5
:10326000032986BFC078C0F381000020704700BFEB
:1032700009B1007870470846704700BF012906D998
:10328000437803F00F03013BDBB2022B01D900208E
:103290007047024A32F81300704700BFD0DB0108C4
:1032A00019B10178C1F3810070470846704700BF2B
:1032B000032986BFC07800F003000020704700BFDC
:1032C000034600B583B008465BBA02220DF1060141
:1032D000ADF806300AF00AFE03B000BD84460023B4
:1032E00010B50C4682B00DF1060002226146ADF821
:1032F00006300AF0FBFDBDF80600012C98BFC0B2F5
:1033000040BA80B202B010BD002300B5012983B0DD
:10331000ADF8063002D8184603B000BD01460222BF
:103320000DF106000AF0E2FD9DF8060003B000BDB5
:1033300038B50D4604460822FF2128460AF0D2FD82
:10334000B4F5FB4F0ADAC4F5FA447F34640004F0A4
:10335000FE03C4F307242B706C7038BD0024234691
:103360006C702B7038BD00BF38B50D460822FF21A8
:10337000044628460AF0B6FDFA2204FB02F2044B8A
:10338000A3FB0213D21A03EB5203DB0A6B7038BDA6
:103390000101100038B50C4605460822FF212046E1
:1033A0000AF0A0FD2B0A6570A37038BD38B50C4635
:1033B00005460822FF2120460AF094FD2B0AE570FD
:1033C000237138BD38B50C4605460822FF2120463A
:1033D0000AF088FD2B0A2570637038BD38B50C469D
:1033E00008220546FF2120460AF07CFD48F680228F
:1033F00047F27F53954294BF5B199B189BB21A0A00
:103400002370627038BD00BF38B50D4604460822EF
:10341000FF2128467D340AF065FDAC7038BD00BF41
:1034200038B50D4604460822FF2128460AF05AFD09
:10343000EB78A40023F00C0304F00C042343EB709E
:1034400038BD00BF38B50C4605460822FF2120468E
:103450000AF048FD257038BDFF2838B50D460FD954
:10346000C3B2002B0CBF012403240822FF212846ED
:103470000AF038FD6B7823F00F031C436C7038BDE5
:10348000031E18BF01235C00EFE700BF38B50D46EF
:1034900004460822FF2128460AF024FD2B78A400C8
:1034A00023F00C0304F00C0423432B7038BD00BF41
:1034B00038B50C4605460822FF2120460AF012FDC9
:1034C000E37805F0030523F003032B43E37038BDD5
:1034D00038B50D4604460822FF2128460AF002FDB1
:1034E000012C0AD0022C05D0032C0CBFD723FF23BC
:1034F000AB7038BDC723AB7038BDC323AB7038BDCC
:1035000038B50C4605460822FF2120460AF0EAFCA1
:10351000EBB2022B12D0032B09D0042B0CBF51238A
:103520000023FF2D88BF43F00403237038BD11230F
:10353000FF2D88BF43F00403237038BD0123FF2D06
:1035400088BF43F00403237038BD00BF38B50C4674
:1035500005460822FF2120460AF0C4FC15F0080F9A
:103560000CBF0021FA2115F0100F0CBF0022FA2227
:1035700015F0200F0CBF0023FA2315F0400F0CBFED
:103580000020FA2015F0800FE0700CBF0020FA2018
:1035900015F0010F21700CBF0021FA2115F0020F68
:1035A00062700CBF0022FA2215F0040FA3700CBF4A
:1035B0000023FA2320716171A271E37138BD00BF4D
:1035C000022906D980787D38C0B2812888BF0020C2
:1035D00070470020704700BF032906D9C0787D38A6
:1035E000C0B2812888BF002070470020704700BF0C
:1035F00002290FD9837803F00C02042A01D001209C
:103600007047C3F30113012B06D0002B0CBF02201F
:1036100001207047002070470320704707292DD9EB
:1036200003784278A3F1FA03B3FA83F3FA2A4FEA54
:10363000531382784FEAC30308BF43F01003FA2AFA
:10364000C27808BF43F02003FA2A027908BF43F08A
:103650004003FA2A427908BF43F08003FA2A8279AC
:1036600008BF43F00103FA2AC27908BF43F00203FE
:10367000FA2A08BF43F00403184670470020704739
:1036800000787047D9B103789A09012A0ED003F067
:103690003002102A15D003F00302012A14BF0120C2
:1036A000022003F00C03042B06D0704703F00C0338
:1036B000042B4FF00400F8D140F47F4070470846D7
:1036C00070470320EDE700BF00787047007870472F
:1036D000007870470078704708707047087070472E
:1036E000087070470870704708707047030A0870C8
:1036F0004B707047012994BF00780088704700BF65
:1037000038B50D460822FF21044628460AF0EAFB98
:10371000FA2204FB02F2044BA3FB0213D21A03EBBE
:103720005203DB0A6B7038BD01011000012911D969
:103730004378FA2B07D8084AC3EB0330A2FB0020DA
:10374000C0F30F10704740F6FF72FF2B0CBF002034
:103750001046704700207047D34D6210034600B5F5
:1037600083B008465BBA02220DF10601ADF80630BF
:103770000AF0BCFB03B000BD034600B583B00846A9
:103780005BBA02220DF10601ADF806300AF0AEFB7D
:1037900003B000BD034600B583B008465BBA022201
:1037A0000DF10601ADF806300AF0A0FB03B000BD34
:1037B000034600B583B008465BBA02220DF106014C
:1037C000ADF806300AF092FB03B000BD034600B529
:1037D00083B008465BBA02220DF10601ADF806304F
:1037E0000AF084FB03B000BD034600B583B0084671
:1037F0005BBA02220DF10601ADF806300AF076FB45
:1038000003B000BD034600B583B008465BBA022290
:103810000DF10601ADF806300AF068FB03B000BDFB
:103820008446002310B50C4682B00DF1060002223A
:103830006146ADF806300AF059FBBDF80600012CD0
:1038400098BFC0B240BA80B202B010BD8446002317
:1038500010B50C4682B00DF1060002226146ADF8AB
:1038600006300AF043FBBDF80600012C98BFC0B239
:1038700040BA80B202B010BD8446002310B50C4699
:1038800082B00DF1060002226146ADF806300AF062
:103890002DFBBDF80600012C98BFC0B240BA80B223
:1038A00002B010BD8446002310B50C4682B00DF165
:1038B000060002226146ADF806300AF017FBBDF89B
:1038C0000600012C98BFC0B240BA80B202B010BD51
:1038D0008446002310B50C4682B00DF1060002228A
:1038E0006146ADF806300AF001FBBDF80600012C78
:1038F00098BFC0B240BA80B202B010BD8446002367
:1039000010B50C4682B00DF1060002226146ADF8FA
:1039100006300AF0EBFABDF80600012C98BFC0B2E1
:1039200040BA80B202B010BD8446002310B50C46E8
:1039300082B00DF1060002226146ADF806300AF0B1
:10394000D5FABDF80600012C98BFC0B240BA80B2CB
:1039500002B010BD002300B5012983B0ADF80630D8
:1039600002D8184603B000BD014602220DF1060040
:103970000AF0BCFABDF80600000A03B000BD00BFA3
:10398000012918D9037803F00302012A17D003F0A4
:103990000C02042A15D003F03002102A0DD003F0D7
:1039A000C003402B0FD0437803F00303012B0CBF5F
:1039B0000620012070470020704705207047022034
:1039C0007047032070470420704700BF2DE9F04F77
:1039D0003A4B8346984283B007D8394B984260D916
:1039E0004FF028094FF4487609E036494FF0250991
:1039F000B1FBFBF1C9B2192940F2EE265BD90124D3
:103A0000304B0134A4B2B3FBF4F1B1FBFBF1C9B20A
:103A10001929F6D8B4F5806F3FD201202A4BCDF892
:103A200004B01F6823186FF0004C4FF47A759B4662
:103A30001FFA83FAA1F1020EBEEB510F4FEA5103B8
:103A40001ADD01F1FF385FFA88F805FB03F2B2FBDB
:103A5000F1F2B21A002AB8BF5242624509DA914522
:103A600007DB00209446A8EB0302D2B2FB617C6125
:103A70003A6201337345E8DB124B1FFA8BF4B3FB58
:103A8000FAF1019BB4F5806FB1FBF3F10AF1010A81
:103A9000C9B203D004F1010BCCE7012003B0BDE8AB
:103AA000F08F08494FF02B09B1FBFBF1C9B219297E
:103AB00040F26B36A3D80124AFE700BF00350C00FD
:103AC00020A10700005A62028839032038B50C464D
:103AD000064D0749074B0A602860074901201C6012
:103AE00012F0D6FF054B186038BD00BF883903209F
:103AF000803903208439032098380320E8380320D4
:103B000030B53F4C83B020680BF05AFB20680BF0B7
:103B10009FF9002851D100223A4D40213A482A719C
:103B2000EA602A616A61AA61AA60EA6185F82020D8
:103B30000CF090FA206805F124010BF073FA0028CC
:103B40005BD1324920680BF06DFA002852D1002376
:103B500002222068114600930BF090FA002846D10B
:103B600020680BF0D1FA00283ED100220121206804
:103B70000BF082FCA8BB0022062120680BF07CFC25
:103B800060BB07224FF4F05120680BF075FC10BBAE
:103B90000722802120680BF06FFCC8B900221C4965
:103BA00020680BF069FC80B900224FF46021206886
:103BB0000BF062FC20B903B030BDFDF7E7FAAAE7CD
:103BC00003B0BDE83040FDF7E1BAFDF7DFFAEBE7FF
:103BD000FDF7DCFAE2E7FDF7D9FAD9E7FDF7D6FA07
:103BE000CFE7FDF7D3FAC6E7FDF7D0FABDE7FDF75B
:103BF000CDFAB5E7FDF7CAFAA9E7FDF7C7FAA0E7DE
:103C00008839032010000320000402424C000320E6
:103C100000407100014B18680BF0D2BA88390320BC
:103C2000704700BF082824D8DFE800F0080C101403
:103C3000171A1D2005001448FFF7C8BE42F2107085
:103C4000FFF7C4BE44F62060FFF7C0BE4CF2503010
:103C5000FFF7BCBE0D48FFF7B9BE0D48FFF7B6BE73
:103C60000C48FFF7B3BE0C48FFF7B0BE0B48FFF798
:103C7000ADBE0B4AA0F51C53103B934201D9012065
:103C80007047FFF7A3BE00BF40420F00A0860100AF
:103C900048E8010090D0030020A1070000350C0087
:103CA000301B0F000346054A1978002051615978EE
:103CB000D16199781162DB7893617047F82703200E
:103CC0000246024B00209A61704700BFF82703208C
:103CD000034600B5064A93F801E093F800C082F865
:103CE00010E004499B7881F800C05374002000BDA7
:103CF000F8270320180403202DE9F047054682B079
:103D0000C0680F460AF0E6F8AB68B3F1005F3ED03A
:103D10000646824600F12409264C4FF0FF31206808
:103D200012F074FF0128F8D1DFF89480D8F8000071
:103D300013F052F9484517D202251F4A13792B4335
:103D40001371002320681A46194612F005FE1B4A1B
:103D500002231268106800221146009214F012FC2F
:103D6000284602B0BDE8F08729464FF0FF332422F1
:103D7000D8F8000013F052F9054686B94D450CD02D
:103D80000D4A0125137943F008031371D9E74FF069
:103D9000000A4FF024095646BEE70025D1E75246F7
:103DA00039464FF0FF33D8F8000013F037F90544D7
:103DB000E4E700BFE8380320100003208439032023
:103DC0009038032030B40122002410200A4B042133
:103DD0001B684FF440751C82C3E90520DC60186243
:103DE0003F240F209A74C3E90125DC61C3E909214E
:103DF00030BC1963D8627047883903202DE9F04739
:103E000000250C4682B0C9070646019516D4A207C4
:103E100007D50221314A137943F001031371336846
:103E20001965630738D4019B2BB14FF0E0234FF0A5
:103E30008052C3F8042D02B0BDE8F087DFF8A890E7
:103E4000DFF8988040214A46254B0BF031FAD8F82C
:103E50001430D9F80C000133C8F814300AF03AF8DD
:103E6000DFF888A00746DAF8000013F0B5F807F18C
:103E70002803984224D349462822DAF8000001ABEF
:103E800013F066F9002FC2D03A46DAF80000144960
:103E900001AB13F05DF9BAE70424104B11499A699C
:103EA000086801329A611A79002142F008021A71F9
:103EB000336800680DEB04021C6514F083FCB2E764
:103EC000D8F8183029460133C8F81830054B01AA34
:103ED0001B68186814F076FC99E700BF10000320F7
:103EE00040390320803903201839032094380320F7
:103EF000002110B50A4A0B4C1268236982B0106881
:103F0000013301AA2361019114F05CFC019B2BB1E8
:103F10004FF0E0234FF08052C3F8042D02B010BDE3
:103F20008439032010000320002110B50A4A0B4CED
:103F30001268E36982B01068013301AAE36101915C
:103F400014F040FC019B2BB14FF0E0234FF0805266
:103F5000C3F8042D02B010BD8039032010000320E7
:103F600038B50C46104D29460BF03CFAA10303D599
:103F7000EB68A3B90D4A1360620309D52B690B4A9C
:103F8000012B13790CBF43F0040303F0FB031371FF
:103F9000230303D50122054B83F8202038BD4FF0C1
:103FA0000042024B1A60E7E7EC38032010000320C0
:103FB000F0B500250B7885B0074602950395CBB187
:103FC0000C460DF1FF3608E02046D5B209F026FF79
:103FD00014F8023F06F8010F23B163786A1C0BB393
:103FE000072DF1D18DF808502A4669460DF10900D8
:103FF00015F09CFD00230E4C0820C4E90533C4E9EC
:104000000133276009F06CFF082203460DEB020123
:104010000848E36009F06AFF20460649FFF76CFE96
:1040200005B0F0BD8DF80850002DDDD1E2E700BFEE
:10403000983903208C39032042F202032DE9F04322
:10404000002499428BB0445400F2BA80002900F059
:10405000808100F1FF3E0139F4467346014405E0DA
:104060000A2A1CBF025501348B4209D013F8012FD4
:10407000082AF5D1002CF7D08B4204F1FF34F5D19A
:104080000025AC42055540F35E812A460EEB040341
:104090001CF8011F202900F0898082B99C4505F198
:1040A00001050CF101010CD09CF80140202C7FD0BF
:1040B000994206D01CF8022F203A18BF01229C45D5
:1040C000E6D1A54901AA09F089FF0446002800F0BD
:1040D0008180A24909F04CFF002800F00F81012DDA
:1040E00040F3B1809C49002001AA09F077FF9C4968
:1040F000044609F03DFF002870D12046994909F097
:1041000037FF002800F0A481974809F047FD974841
:1041100009F044FD944809F041FD954809F03EFD41
:10412000944809F03BFD924809F038FD924809F0A7
:1041300035FD924809F032FD8D4809F02FFD904879
:1041400009F02CFD8F4809F029FD894809F026FD6A
:104150008D4809F023FD8D4809F020FD844809F0C1
:104160001DFD8B4809F01AFD8A4809F017FD8A48A1
:1041700009F014FD894809F011FD894809F00EFD88
:10418000884809F00BFD884809F008FD874809F0C8
:1041900005FD874809F002FD754809F0FFFC7248EB
:1041A00009F0FCFC834809F0F9FC0CE0002286E7EA
:1041B000994286D01CF8021F20297FF46FAF7EE75A
:1041C0007D4809F0EBFC7D4809F0E8FC00200BB0CD
:1041D000BDE8F0837A4809F0E1FCF4E7624809F0B1
:1041E000DDFC624809F0DAFC5F4809F0D7FC604862
:1041F00009F0D4FC734809F0D1FC5D4809F0CEFC0D
:104200005D4809F0CBFC704809F0C8FC584809F03B
:10421000C5FC5B4809F0C2FC6C4809F0BFFC54487F
:1042200009F0BCFC584809F0B9FC694809F0B6FC33
:104230004F4809F0B3FC564809F0B0FC654809F056
:10424000ADFC6548A6E7484809F0A8FC474809F0D6
:10425000A5FC454809F0A2FC454809F09FFC5F48D1
:1042600009F09CFC424809F099FC5D4809F096FC75
:104270005C4809F093FC5C4809F090FC5B4809F04D
:104280008DFC5B4809F08AFC5A4809F087FC5A48C3
:1042900009F084FC594809F081FC594809F07EFC7A
:1042A000584809F07BFC584809F078FC574809F059
:1042B00075FC574809F072FC564809F06FFC5648E7
:1042C00009F06CFC554809F069FC554809F066FC9A
:1042D000544809F063FC544809F060FC534809F065
:1042E0005DFC534809F05AFC214809F057FC51483D
:1042F00009F054FC1C4809F051FC64E720464E4983
:1043000009F036FE00287FF4EAAE20464B4909F05A
:104310002FFE00287FF4E3AE2046494909F028FE2D
:10432000074600287FF4DBAE2046464909F020FE10
:104330008046002800F00A81022D00F0DA80424811
:1043400009F02CFC3FE77FF4BCAE404809F026FCA6
:1043500039E70170F9E700BFB8AC0108E8AC010823
:1043600004AD0108A4AE01080CAD01084CAD010874
:1043700030A90108ACAE010888AD0108C0AE010843
:10438000CCAD0108FCAE0108F0AD010810AF01088A
:1043900044AE01085CAF01087CAF01088CAF010896
:1043A000ACAF0108BCAF0108DCAF0108ECAF0108FD
:1043B00018B00108E8B10108A0AC010830CF01082D
:1043C000BCAC010878AD010898AD0108D4AD010876
:1043D000FCAD010850AE010894AE01083CB20108E2
:1043E000E0B20108ECB2010860B30108E8B30108CB
:1043F00014B4010864B40108B4B4010804B5010898
:104400005CB50108C8B50108F0B501081CB6010883
:104410007CB60108E4B6010830B7010874B701089A
:10442000A0B70108F8B7010850B80108BCB80108E6
:1044300008B901083CB90108F0AC0108F8AC010862
:1044400000AD01082CB001085CB90108B4AC01084A
:104450002046914909F08CFD002846D08F4809F08C
:104460009DFB8F4809F09AFB8C4809F097FB8D481B
:1044700009F094FB8C4809F091FB8A4809F08EFB07
:104480008A4809F08BFB8A4809F088FB854809F0C7
:1044900085FB884809F082FB874809F07FFB81484B
:1044A00009F07CFB854809F079FB854809F076FB2B
:1044B0007C4809F073FB834809F070FB824809F0DF
:1044C0006DFB824809F06AFB814809F067FB81486F
:1044D00009F064FB804809F061FB804809F05EFB4D
:1044E0007F4809F05BFB7F4854E67F4809F056FBA4
:1044F00058E638467D4901AA09F070FD0378044664
:10450000002B3FF460AE051D413B232B13D8DFE8A1
:1045100003F0413931291212121212121212121220
:10452000121212121212121212121212121212126B
:104530001212413931296E4809F030FB14F8013F5D
:10454000002B3FF440AEA542DED13CE6204669494F
:1045500009F00EFD00284ED0022D1FD0664809F04C
:104560001DFB30E6654809F019FB0021442003F0EB
:10457000ABFEE3E7624809F011FB0021432003F0A2
:10458000A3FEDBE75F4809F009FB0021422003F0AE
:104590009BFED3E75C4809F001FBCFE74046534957
:1045A00001AA09F01BFD03780446002B3FF40BAE73
:1045B000051D413B232B13D8DFE803F03E36422E86
:1045C00012121212121212121212121212121212CB
:1045D0001212121212121212121212123E36422E1F
:1045E000434809F0DBFA14F8013F002B3FF4EBAD30
:1045F000A542DED1E7E52046444909F0B9FC002890
:1046000000F0B180012D00F0A680AE1E012E1FD952
:104610003F4809F0C3FAD6E53E4809F0BFFA012148
:10462000442003F051FEDEE73B4809F0B7FA0121D0
:10463000422003F049FED6E7384809F0AFFAD2E746
:10464000374809F0ABFA0121432003F03DFECAE7E9
:10465000264901AA002009F0C1FC09F003FCB0F5CD
:10466000006F80F098802F4F022D386000F08A8014
:104670001E4901AA002009F0B1FC064609F060FCC1
:10468000C107044600F18B80102800F2888035466F
:10469000DFF8948050E000BF2CB001080CAD010899
:1046A0004CAD010830A9010834B0010888AD0108FB
:1046B00048B00108CCAD010884B00108F0AD010894
:1046C00098B0010844AE0108E4B0010804B1010843
:1046D00018B1010838B101084CB101086CB10108EA
:1046E00080B10108ACB10108C0B10108B8AC010843
:1046F00064BA0108A4AE01088CBA010840BA0108E6
:104700001CBA0108F8B90108ACB9010864BB01087A
:1047100084BB010840BB0108F8BA0108DCBA0108F3
:104720001CBB0108F0390320E8390320284609F0B2
:1047300075FB023508F8010BAB1B9BB29C42F5D808
:10474000601CC0F3470009F0CBFB0346AC48FB609C
:1047500009F024FA37E54FF0FF32AA4BAA481A6055
:1047600009F01CFA2FE52046A84909F001FC0028B1
:1047700061D0012D52D0AE1E012E14D9A44809F0EB
:104780000DFA20E5002009F0ABFB0346A148FB60D1
:1047900009F004FA17E5A04809F000FA13E59F486C
:1047A00009F0FCF90FE59E4901AA002009F016FC6A
:1047B00009F058FBB0F5006F80F0AB80994F022DE7
:1047C000386000F09D8011F031FF282111F030FF9A
:1047D00001AA9349002009F001FC064609F0B0FB4C
:1047E000C2070446DBD41028D9D83546DFF89C82AE
:1047F00005E0284609F012FB023508F8010BAB1B57
:104800009BB2A342F5D3601CC0F3470009F068FBDC
:1048100003468548FB6009F0C1F9D4E44FF0FF324C
:10482000804B82481A6009F0B9F911F0FFFE182197
:1048300011F0FEFEC7E420467D4909F099FB10B354
:10484000032D03D07B4809F0A9F9BCE4744901AAFF
:10485000002009F0C3FB7249054601AA002009F0B7
:10486000BDFB0A21002209F0EDFB734904462846EE
:1048700009F07EFBA0B1714B71485C6109F08EF9C3
:10488000FFF73EF99FE420466E4909F071FB0746A9
:10489000002842D0032D0FD06B4809F07FF992E435
:1048A00028466A4909F064FB002843D0634B6848F6
:1048B000DC6109F073F9E3E75949002001AA09F026
:1048C0008DFB6449044609F053FB002874D040F284
:1048D000DF7401AA5249002009F080FB054609F067
:1048E0002FFB421E92B20D2A034661D8DB075FD42C
:1048F00020462946FFF75CFB574809F04FF962E470
:10490000002009F0EDFA03465448FB6009F046F92F
:1049100059E4534809F042F955E42046514909F059
:1049200027FB0646002851D0022D10D04E4809F032
:1049300035F948E428464D4909F01AFB002800F0F3
:10494000BD803E4B4A481C6209F028F998E738467A
:10495000334901AA09F042FB451E041D15F8012F39
:10496000A2F12A03002A3FF42EACA5423FF42BAC5F
:104970001A2B00F20E81DFE813F003010C010C0189
:104980000C010C010C010C010C010C010C010C01BF
:104990000C010C010C010C010C010C010C010C01AF
:1049A0000C010C010C010C018B00390098008F00E8
:1049B000304809F0F3F806E420462F4909F0D8FA08
:1049C000002800F0868040F2E17482E720462B49FF
:1049D00009F0CEFA0746002800F00281022D00F00F
:1049E000DC80274809F0DAF8FFF7EDBB254809F02D
:1049F000D5F840F2E1702449FFF7DAFAAEE700BFDC
:104A000008BC0108F03903206CBB010834BC010864
:104A100058BC0108D0BB0108ACBB0108F0BB0108C1
:104A2000B8AC0108C4390320CCBC01083CBC010867
:104A3000F4BC0108F8BC010858AA0108F8270320B3
:104A400014BD010858BE01085CBE01082CBD010858
:104A500034BD010898BE010830BF0108ACBC010894
:104A600080BC010844BF01084CBF010848BD0108D3
:104A700050BD010804BF01089CBE0108FCBF01082D
:104A800004C00108C0BF01088CBF0108BC39032065
:104A9000964809F083F861E7954809F07FF840F2FD
:104AA000E3709449FFF784FA58E7934809F076F8E1
:104AB00040F2E2708F49FFF77BFA4FE728468F49B3
:104AC00009F056FA68B18E4B8E489C6109F066F881
:104AD000D6E620468C4909F04BFA80B140F2E274E8
:104AE000F7E62846894909F043FA80B1003C18BF2F
:104AF0000124834B86481C7409F050F8C0E6204618
:104B0000844909F035FA80B140F2E374E1E62846C1
:104B1000814909F02DFA90B1003C18BF0124784B6F
:104B20007E485C7409F03AF8AAE620467C4909F010
:104B30001FFA90B17B4809F031F80024C9E62846F5
:104B4000794909F015FA60B1003C18BF0124774B90
:104B500077481C7009F022F892E6764809F01EF8B2
:104B6000EBE72846744909F003FA002872D0002CBC
:104B700069D1724809F012F80222614BDA607FE6CF
:104B80006F4809F00BF840F2DF705A49FFF710FA4E
:104B9000E4E6684809F002F8E0E63046694901AA0F
:104BA00009F01CFA451E041D15F8012FA2F12A0375
:104BB000002A3FF408ABA5423FF405AB1A2B3ED8C0
:104BC000DFE803F0343D3D3D3D3D3D3D3D3D3D3D58
:104BD0003D3D3D3D3D3D3D3D3D3D3D30274C1E0075
:104BE0002046594909F0C4F90646002867D0012D2E
:104BF0005AD0022D3BD0554808F0D0FFFFF7E3BA5A
:104C0000534808F0CBFF40F2E3705249FFF7D0F968
:104C1000CAE7514808F0C2FF40F2E1704D49FFF782
:104C2000C7F9C1E7314808F0B9FFBDE74B4808F0C4
:104C3000B5FF40F2DF704749FFF7BAF9B4E73D48E6
:104C400008F0ACFFB0E7464808F0A8FF00222C4B64
:104C5000DA6015E6434808F0A1FF11E6424808F083
:104C60009DFF40F2E2703B49FFF7A2F99CE735490E
:104C7000384601AA09F0B2F93C49044609F078F92E
:104C800088BB20463A4909F073F938B3394C3A48A1
:104C900002F02EFB214640F2DF70FFF789F937481A
:104CA00008F07CFFFFF78FBA354A334B12689A42FF
:104CB0000CBF3448344808F071FFFFF784BA20462F
:104CC000324909F055F90746002800F08D80012D82
:104CD00066D02F4808F062FFFFF775BA2D4808F03C
:104CE0005DFFFFF770BA2C4C2C48D1E798BF010844
:104CF000E8BF01088CBF0108D4BF010864BD0108EA
:104D0000F827032068BD0108A0BE01087CBD01088A
:104D100088BD0108A4BE0108B0BD0108C0BD0108DE
:104D2000A8BE0108ACBE0108DCBD010818040320C0
:104D3000E8BD0108E0BE010808BE01080CBE01087C
:104D400068BF0108B8AC0108B0C0010894B80108F8
:104D500090C0010844C0010850C001081CC00108EF
:104D600028BE010840BE010870C001080CC101083E
:104D700014C1010888AC0108D801020850C101081B
:104D800020010320BCC00108E4C0010874C101086F
:104D900080C101081CC1010894AC0108EC010208A3
:104DA00001AABB49304609F019F9BA4808F0F6FEE5
:104DB000304603F0C3FA322011F05CFC2946422051
:104DC00003F082FA06F092FE11F054FC29464320CB
:104DD00003F07AFA06F08AFE11F04CFC29464420D2
:104DE00003F072FAFFF7EFB92046AB4909F0C0F8BB
:104DF00030B1022D20D0A94808F0D0FEFFF7E3B96A
:104E00002046A74909F0B4F8002800F0C580012D1C
:104E100040F3BD8000209E4901AA09F0DFF8044656
:104E200000283FF4D0A99F4909F0A2F8E0B19E48BC
:104E300008F0B4FEFFF7C7B93846954901AA09F052
:104E4000CDF8451E041D15F8012FA2F14103002ADB
:104E50003FF4B9A9A5423FF4B6A9032B00F246835B
:104E6000DFE803F0912D240B2046904909F080F8EB
:104E700060B1FDF775FAFFF7A6B98D4808F08EFE10
:104E800040F2E3708B49FFF793F8DCE720468A494C
:104E900009F06EF80646D8B1884808F07FFEFDF7A5
:104EA0001FF9874808F07AFEFFF78DB9854808F0AA
:104EB00075FE40F2E2707F49FFF77AF8C3E7824857
:104EC00008F06CFE40F2E1707A49FFF771F8BAE73A
:104ED00020467E4909F04CF8002870D07C4808F044
:104EE0005DFEFDF729F94FF47A730446B0FBF3F049
:104EF00002A903FB104409F0D3F80A210346B4FBCE
:104F0000F1F24FF02E09642503F12808E84408F86F
:104F1000209CB2FBF1F8B4FBF5F54FF0200E4FF0FA
:104F2000250C0D2701FB124401FB18220DF1280866
:104F3000591C58FA81F1303501F8205C991C303247
:104F400058FA81F101F8202CDA1C58FA82F2303438
:104F500002F8204C1A1D58FA82F202F820EC5A1D71
:104F600058FA82F202F820CC9A1D073358FA82F2DE
:104F700058FA83F302F8207C02A803F8206C08F0AA
:104F80000DFEFFF720B9534808F008FE5BE75248D2
:104F900008F004FEFFF717B92046504908F0E8FF73
:104FA00000287FF434AF20464D4908F0E1FF28B3D4
:104FB000022D11D04B4808F0F1FDFFF704B920464F
:104FC000494908F0D5FF064600B3484808F0E6FD19
:104FD000FDF732FAFFF7F7B82D49002001AA08F0D3
:104FE000FDFF4349044608F0C3FFE8B1012005F086
:104FF0001BFF404808F0D2FDFFF7E5B820463E49C8
:1050000008F0B6FFF8B10120FFF7E1B820463B49B0
:1050100008F0AEFF002800F0BC80032D7ED0384899
:1050200008F0BCFDFFF7CFB82046364908F0A0FFD6
:10503000002800F08880022005F0F6FE2D4808F0D8
:10504000ADFDFFF7C0B820462F4908F091FF0028BA
:10505000D9D120462D4908F08BFF0028D3D1204616
:105060002B4908F085FF06460028CCD12046294967
:1050700008F07EFF002800F0A480012D00F097804A
:10508000022D40F3AA80244808F088FDFFF79BB862
:10509000B8AC0108A8C1010804C2010810C2010887
:1050A000C4C20108E8AC01080CC30108D4C9010856
:1050B00080C2010850C20108DCC90108E0C901082A
:1050C000ECC901085CC201082CC20108F4C901083E
:1050D000FCC9010898BF0108D0C20108C8C2010874
:1050E00004AD010874CB010814CA01081CCA0108E8
:1050F000B8AA0108C4CB010814CC010834CA0108BD
:105100003CCA01088CD0010818CC010820CC010849
:1051100028CC010830CC010888CC0108BD4901AA7F
:10512000304608F05BFF0A2102AA8DF8086008F0FB
:1051300089FF9DF80830C4B2012B11D0B64808F0A1
:105140002DFDFFF740B82046B44908F011FF90B19B
:10515000032005F069FEB24808F020FDFFF733B8E0
:10516000B04808F01BFD2046FDF7BEFEAE4808F033
:1051700015FDFFF728B82046AC4908F0F9FE0028D5
:105180005CD0042005F050FEA54808F007FDFFF7AD
:105190001AB82046A64908F0EBFE002800F08980E6
:1051A000032D32D0A34808F0F9FCFFF70CB8A24851
:1051B00008F0F4FCC82011F05DFA09F0D5FBFFF708
:1051C00002B820469D4908F0D3FE0646002843D089
:1051D0009B4808F0E3FCFEF7F6BF30468D4901AA74
:1051E00008F0FCFE451EC41C15F8012FA2F1410376
:1051F000002A3EF4E8AFA5423EF4E5AF032B00F2EF
:105200007981DFE803F0D0473865824901AA0020A0
:1052100008F0E4FE00230A2102AA8DF8083008F005
:1052200011FF9DF80830C4B2012B87D17D4808F0EA
:10523000B5FC2046FDF7CEFCFEF7C5BF20468149F0
:1052400008F096FE002868D0052005F0EDFD7448B2
:1052500008F0A4FCFEF7B7BF20467B4908F088FEA3
:10526000002800F0B680022D00F0A180774808F0F9
:1052700095FCFEF7A8BF764808F090FC002143207B
:1052800003F022F8322011F0F5F90121432003F058
:105290001BF8A9E76F4808F081FC0021422003F0C9
:1052A00013F8322011F0E6F90121422003F00CF846
:1052B0009AE72046684908F05BFE08B3674808F0A3
:1052C0006DFC032D13D0664808F068FCFEF77BBF29
:1052D000644808F063FC0021442002F0F5FF32200E
:1052E00011F0C8F90121442002F0EEFF7CE74949A2
:1052F00001AA002008F072FEFDF7A4F9FEF763BFD3
:105300002046594908F034FE064698B1574808F03F
:1053100045FCFDF7D7FAFEF756BF2046544908F082
:1053200027FED8B1062005F07FFD3D4808F036FC89
:10533000FEF749BF20464F4908F01AFE00B3042D7E
:10534000C1D1344901AA304608F048FEFCF708FDF7
:1053500088B9354808F022FCFEF735BF204646499B
:1053600008F006FEA8B1072005F05EFD2C4808F005
:1053700015FCFEF728BF414808F010FCFEF723BFDC
:1053800020463F4908F0F4FD40B1FCF715FEFEF75A
:105390001ABF3C4808F002FCFEF715BF3A4808F077
:1053A000FDFBFEF710BF394808F0F8FB1CE7194970
:1053B000304601AA08F012FE3549044608F0D8FD2F
:1053C000C8B1012005F088FA324808F0E7FBFEF783
:1053D000FABE2046304908F0CBFD002869D000F025
:1053E0003DFF002860D02D4808F0D8FB012000F0D8
:1053F00045FFFEF7E8BE2046294908F0B9FD002820
:1054000062D0284605F068FA264808F0C7FBFEF788
:10541000DABE00BFB8AC010874CA0108D0CB0108DD
:10542000C4CB010860CA01086CCA0108D4CB0108CA
:1054300088CA010894CA010838CC010894CD010833
:105440009CCD0108D8CB010818CE010820CE010858
:105450006CCD010858CD0108BCCA0108C4CA0108B6
:10546000D0CA010880CD0108F0CA0108F8CA0108B5
:10547000DCCB010814CB0108E0CB010818CB0108F4
:1054800034CB0108E4CB01083CCB01080CCD01086A
:10549000B8AA010840CE0108ACCE0108B4CE01087C
:1054A0008CD0010854CE0108144808F077FBFEF7B1
:1054B0008ABE134808F072FB204608F06FFB1148C3
:1054C00008F06CFBFEF77FBE20460F4908F050FD48
:1054D00038B1032005F000FA0C4808F05FFBFEF736
:1054E00072BE0B4808F05AFBFEF76DBE094808F083
:1054F00055FBA8E4074808F051FB75E6C4CE010847
:10550000D8CE0108ECCE0108D0CB010868CE010846
:105510007CCE0108A4C201082DE9F04703780546B6
:10552000A3F13002012A0E46A0B040F28F80002283
:10553000824FCDE90B227979012910D00024DFF8C0
:105540000082752BD8F80020CDE90D440A9213D1C2
:10555000132E00F06E81002020B0BDE8F087701E91
:10556000295C0024692904BF4FF000420646752BD0
:10557000CDE90D440A92EBD0295D2246722905EB54
:10558000040900F0E58000F2458152297FD05429BA
:105590007DD0233B562B00F23881DFE813F08F04D7
:1055A000360143045F033601360136013601360108
:1055B0003601360136013601360136013601360133
:1055C0003601360136013601360136013601360123
:1055D0003601360136015B01820436013601B9031A
:1055E00098038B03E003CF035B01CB03C303F703F3
:1055F000E803100472033703360136013601110344
:105600003601360145030303FA02EF02E5023601D3
:105610003601360160013601360168016301790205
:105620006B023601C40236015B01B902D402A10249
:105630003D022A0214023601C2019A013601850197
:10564000360136017C017501590248024FF4001100
:1056500042780C91302A00F0CD804FF48010374F03
:105660000B907979012900F0D98000233449722AFE
:105670000968CDE90D330A9105F1010966D063D8B7
:10568000522A02D0542A40F0C08001242246B71A80
:10569000092F40F2BA804FF080434FF0000A601C9F
:1056A00028440793CDF820A008F0ECFB069004F105
:1056B0000900284408F0ACFB99F800308046522BD2
:1056C000099003D14FF00053D0460893404608F0AC
:1056D00001FC053000B2B7EB400F40F096800A3471
:1056E000013EA64288BF00270DD9281908F096FB75
:1056F0000234E4B220AB53FA87F3B44203F8400C0F
:1057000007F10107F1D308F013FA10AC01210D489D
:1057100006AE08F023FA21463046FEF7EDFA0228DD
:1057200000F08B8008F010FA4046069D08F0D2FB8E
:1057300022460146284601F00FFE0CE774010320C3
:105740001000032030A90108742A5ED101242246EA
:10575000B71A042F59D94FF0000A601C2844CDE92C
:1057600007AA08F07FFB0690201D284408F050FB94
:1057700099F800308046722B099003D14FF0005306
:10578000D0460893404608F0A5FB052300B203EB82
:1057900040039F4239D10534013EA64288BF00270D
:1057A0000DD9281908F03AFB0234E4B220AB53FAC1
:1057B00087F3B44203F8400C07F10107F1D308F076
:1057C000B7F910AC0121B94806AE08F0C7F9214677
:1057D0003046FEF791FA0228A4D108F0B5F902E0AC
:1057E0000A2010F047FF21463046FEF785FA0228CE
:1057F000F6D099E70022AE4F0B92797901290DD0AE
:10580000AC4B0D921B680E920A930121AA4808F036
:1058100057F9A0E674297FF4BCAE99E7721EA95C23
:10582000692900F06B8300220124CDE90D220A9240
:10583000A2E6284601F0F6FE8DE608F085F902E0C2
:105840000A2010F017FF21463046FEF755FA0228CD
:10585000F6D069E71621994808F032F97BE69848B6
:1058600008F09CF90121914808F02AF973E6022E0C
:10587000CBD16B78934A303B18BF012301218B4871
:10588000137408F01DF966E6FEF73AF9012187481E
:1058900008F016F95FE6022EB7D16B78302B0CBFFB
:1058A000002301237B71DDE7052EAED10126854C57
:1058B000A819666108F0B2FA0346E81CE36108F033
:1058C000ADFA2062FEF71CF93146784808F0F8F886
:1058D00041E67D4808F062F940217A4809F0BCFDB4
:1058E00008F072F9794C774809F0C0FD08F06CF9BE
:1058F000206811F071FB08F067F92068744C11F012
:105900007FFB08F061F9206811F066FB08F05CF994
:10591000206811F075FB08F057F9644808F03EF96B
:1059200019E6022E7FF471AF6B78423B022B3FF6F3
:105930006CAF00234FF400124FF48011BB70CDE91F
:105940000B12099340F281123B7000234FF01409AF
:10595000CDE90623DFF85C8110AC06AE002002F032
:10596000EDFCFEF72FFAFEF7CBF8642010F082FE74
:105970006878012102F0C6FC6878012102F0A4FCDD
:10598000484610F077FE02E00A2010F073FE214630
:105990003046FEF7B1F90228F6D0322010F06AFE48
:1059A000D8F8143023B909F11409B9F5D27FD5D14B
:1059B000D8F81430002B3FF428AF01213B48397050
:1059C00008F07EF8C7E5012E7FF41FAF3146374857
:1059D00008F076F83F4801F0DBFE002002F0AEFC54
:1059E000002002F0C5FC642010F044FE08F0BCFF6B
:1059F000B1E5042E00F03483092E7FF406AF681C55
:105A000008F040FA03462B4A23F0004301212748BF
:105A1000136508F055F89EE50121244808F050F878
:105A20000123284A3B70D360FEF76AF893E5032E02
:105A30007FF4EBAE6878A0F14203022B3FF6E5AEAF
:105A4000AB78302B0CBF0021012102F03DFC09E7AF
:105A50007822214B8DF84020D3F890050DF14101BB
:105A600008F0E0F80D230A2110A88DF8493008F05D
:105A700027F870E5022E7FF4C8AE6B78302B00F06B
:105A80001683312B7FF4EEAE012001F07BFEE9E6B8
:105A9000022E7FF4BAAE6B78302B40F0C882012121
:105AA00000230E4A1170BB70DCE600BF30A901086C
:105AB000740103201000032008A80108A4CF0108E6
:105AC00074D00108F8270320BCCF010894380320C4
:105AD00090380320C4CF01080000FA0B9200032085
