:020000040800F2
:100000000000042025B2000859B000085DB00008C7
:1000100061B0000865B0000869B0000875B200085A
:10002000000000000000000000000000014901087D
:100030006DB0000800000000914801088D1D010806
:1000400075B2000875B2000875B2000875B20008F4
:1000500075B2000875B2000875B2000875B20008E4
:1000600075B2000875B2000875B2000875B20008D4
:1000700075B2000875B2000875B2000875B20008C4
:1000800075B2000875B2000875B2000875B20008B4
:1000900075B2000875B2000875B2000875B20008A4
:1000A00075B2000875B2000875B2000875B2000894
:1000B00075B2000871B000087DB0000875B2000884
:1000C00075B2000875B2000875B2000875B2000874
:1000D00075B2000875B2000875B2000889B0000852
:1000E00095B0000875B20008A1B0000875B200080C
:1000F00075B2000875B2000875B2000875B2000844
:1001000075B20008ADB00008B9B0000875B20008BB
:1001100075B2000875B2000875B2000875B2000823
:1001200075B20008C5B00008D1B0000875B200086B
:10013000DDB0000875B2000875B2000875B200089D
:1001400075B2000875B20008E9B0000875B2000881
:1001500075B2000875B2000875B2000875B20008E3
:1001600075B20008F5B0000875B2000875B2000855
:1001700075B200080000000075B200080000000021
:1001800001B1000875B2000875B2000875B2000828
:1001900075B2000875B2000875B2000875B20008A3
:1001A00075B2000875B2000875B2000875B2000893
:1001B00075B20008000000000DB1000875B200081B
:1001C00075B200080000000075B2000875B20008A2
:1001D00075B2000875B2000875B2000875B2000863
:1001E00075B2000875B2000875B2000875B2000853
:0401F000000000000B
:1002000010B5054C237833B9044B13B10448AFF350
:1002100000800123237010BD98030320000000001C
:10022000AC54010808B5034B1BB103490348AFF3B5
:10023000008008BD000000009C030320AC540108AE
:10024000034613F8012B002AFBD1181A0138704716
:10025000704700BF30B5214C214D83B04FF0FF33C4
:10026000022220680DF1060112F028FC022807D0B6
:100270002B78012B29D001211A480AF07FF9EDE7EC
:1002800042F20303BDF806209A42F1D816494FF016
:10029000FF33206812F012FCBDF806108142E7D14E
:1002A000114806F0E5FD0028D8D12B78BDF80610DE
:1002B000012B0D480DD004F09BFF0128CED12B78E7
:1002C000B3FA83F35B092B70C8E708480AF0C4F956
:1002D000C4E703F01DFD0128C0D1F0E7600403204E
:1002E00034040320D860010830770020B86001088A
:1002F0002DE9F04F834C9BB0DFF82482824F834E70
:100300000AAD4FF0FF3328226946206812F0D6FB71
:100310002828F6D103980AF0FFFA8346002840F017
:100320009380029B002B70D10098D8F8003098423F
:1003300000F092802A46594606F040FE13F072F90A
:1003400029460246684609F029F813F06BF9294658
:100350000246684606F082FD3B78002BD1D0069B12
:10036000B3F5001F00F086800121BBF1080F28BF04
:100370004FF0080B002289465FFA8BFBDDE9013064
:1003800000286FD13144002B00F0AA805420B054D3
:1003900000980AF083F909EB00035FFA83F9069AE3
:1003A00006EB0901B2F5001F6FD00BF00F000AF049
:1003B000F3F909EB00035FFA83FABBF1000F0CD0ED
:1003C000A946AB4419F8010B06EB0A010AF0D4F96F
:1003D000D94550445FFA80FAF4D1FA78002A5ED108
:1003E0007A791AB1069AB2F5001F7DD00D220AF172
:1003F00001014648C9B206F80A200AF0BFF80028F1
:100400003FF47FAF00233B707BE7B3F1005F9CD1EB
:10041000009BB3F5E06F98D13D4801990360039BC1
:100420004160082B28BF08231A460023C260C0E998
:10043000053383600822374937480AF079FA36498C
:10044000334803F0C5FA80E702464FF0FF332946F0
:10045000206812F033FB64E73049314803F0B8FA02
:10046000009867E77BB352204FF0000BB054314443
:1004700000988EE7059B0221B3F5801F14BF30233F
:10048000312301228946337078E7039800F00F008A
:100490000AF082F909EB00035FFA83FA8DE713F0A3
:1004A000C1F84EF6602C1F4B06EB0A01A3FB00E2DD
:1004B000920B0CFB120080B20AF03CF90AEB00032D
:1004C0005FFA83FA8CE772209B46B054009831445F
:1004D00080B20AF019F909EB00035FFA83F95EE7CD
:1004E0007420B0540098F3E7049AB2F1004F7FF4FF
:1004F0007DAF69220AF1010306F80A205FFA83FA48
:1005000074E700BFDC3703201001032030750020A2
:10051000C80303209005FA0BBC03032030390320E5
:100520003839032073B2E7452DE9F0431F4D9BB0E6
:10053000DFF8808001AE0AAF002404EBC401C4F1EF
:1005400024024FF0FF33286806EB810112F0B6FA5F
:100550000444232CF1D904980AF0DEF9039B814668
:10056000B3F1005F00D0A0B911480BF097FC50B177
:100570003A4631460E480BF051FBD8F80C300133A7
:10058000C8F80C30D8E74FF0FF32012113F0E0FB40
:10059000EAE70024A9EB040239194FF0FF33286879
:1005A00012F08CFA04444C45F4D3DDE7D83703202D
:1005B0004027032010000320F0B583B006F0A4FC10
:1005C00003F034F907F07AFC00F078FC09F0ECFB5A
:1005D00013F028F806F038FC13F024F806F038FC85
:1005E00021480FF03DFB21480FF002FB2049214834
:1005F00008F00EFE204D07F0E5FD204E204F05E0EF
:1006000001330CD10A2101A812F09EFE13F00AF862
:1006100032682B6801320190F2D101330BD04FF4D4
:100620007A7401E0013CEDD02846164903F0D0F978
:100630000028F7D0E6E709F0B5FB019809F0BAFB0E
:10064000019800F03DFC3B7833B1019806F012FCB4
:10065000019808F0F3FDD5E7019806F0A9FD01988F
:1006600006F0F4FBF1E700BF78240320E023032029
:1006700050170320E02503200C39032038390320CC
:1006800092000320043903202DE9F04300262B4D6E
:10069000DFF8B490DFF8B480294FA7B016E063020A
:1006A00003D52B7943F080032B7198F8003033B1D8
:1006B0000B9B23B1642011F045FC03F0B7F8002236
:1006C000022311463868009613F0C4FB4FF0FF3246
:1006D0000121002013F03CFB13F072FF19480BF0CE
:1006E00033FD044606A917480BF094FB02A91548F0
:1006F0000BF0B8FB5422294611A8AC6014F07EFE22
:10070000104B1E66189BB3F5003F02D9AB689A02E6
:100710000CD413F063FF99F80030012BBFD12346AE
:1007200011AA06A902A806F077FEB8E7012385F80A
:1007300020300B9303F004F9EBE700BF1000032017
:10074000001C032040270320083D0320B80303209A
:1007500006F0A8BB06F0AABB10B50C490C4809F07E
:10076000C9FE0A4A0B490C4814F0D6FA084C0B494A
:100770004FF0FF334FF40062206812F09FF90146FA
:100780000028F4D0054809F0CDFEF0E790040320DE
:1007900038040320B4200320600403203497002091
:1007A00006F078BB002006F079BB00BF0022024BA8
:1007B00002481A600FF054BAB40303202C2403201B
:1007C000014B1868704700BFB4030320000000000D
:1007D00010B59EB0482200210CA814F06DFD002336
:1007E0004FF40070CDE90233CDE90433CDE907338E
:1007F000CDE90933019306930B930DF0C3FB08B1C8
:1008000072B6FEE7012302221693119319931792F1
:1008100010231D9207229FED1E7BCDE91A3203247F
:10082000042312900CA81C938DED0C7B18940DF0F2
:10083000E5FD034608B172B6FEE70F22214601A886
:10084000CDE903330593029401920DF083FC034636
:1008500008B172B6FEE7104A4FF0005C916D4BF69E
:100860007F3441F080719165926D069302F0807241
:10087000009208932222202306A8CDE90A2300999A
:10088000CDF81CC009940EF019FD1EB010BD00BFBC
:1008900029000000000001000010024080B594B063
:1008A00072B64FF00062AD4B9A60BFF34F8F62B6E5
:1008B00000240AF0E1FC07F021FDFFF789FFCDE9F4
:1008C0000F44CDE91144A64D1394EB6C4FF46041F5
:1008D00043F00403EB64EB6C224603F0040308933B
:1008E000089BEB6C9F4843F08003EB64EB6C0126A4
:1008F00003F080030993099BEB6C4FF4007843F0FD
:100900000103EB64EB6C082703F001030A930A9BD5
:10091000EB6C43F00203EB64EB6C03F002030B930C
:100920000B9B0BF0DBFF224640F201118E480BF0CF
:10093000D5FF224641F2E4018C480BF0CFFF4FF483
:10094000604388480FA9CDE90F36119412940BF03B
:1009500011FE40F2011384480FA9CDE90F36CDE90D
:1009600011440BF007FE41F2E40380480FA9CDE9E2
:100970000F36CDE911440BF0FDFD7B480FA9CDE901
:100980000F8411960BF0F6FD79480FA9CDE90F748D
:1009900011940BF0EFFDAB6C052143F00403AB6445
:1009A000AB6C224603F004030593059BAB6C1D2042
:1009B0003343AB64AB6C33400693069BAB6C43F0A4
:1009C0000203AB64AB6C03F002030793079B0AF0CE
:1009D00089FC1D200AF0C0FC224605211E200AF0D9
:1009E00081FC1E200AF0B8FC2246052150200AF0A6
:1009F00079FC50200AF0B0FC20460CF0F7FA08B160
:100A000072B6FEE70CF006FB034648B9594843604E
:100A1000594B03600EF07AFC034618B172B6FEE73C
:100A200072B6FEE710224FF4407E4FF03C0C0421DA
:100A300013250F24514882618262514A4360C3608A
:100A40008374C36313704F4BC0E907C50360C0E9EB
:100A50000B41C0E90D66068246614662C0F808E0B7
:100A60000AF00EFF034658BB07224FF0FF314FF448
:100A700082754FF4E0644448C0E90A32434AC0E951
:100A80000433C2E90533C2E90133D3601160404A3F
:100A9000C0E90833C2E90533C2E901338360036367
:100AA000D3603C4BC0F818800360C7614763456062
:100AB000C46011600EF04EFE034618B172B6FEE738
:100AC00072B6FEE73448354AC0E9053383800260D8
:100AD00006620AF073FC034608B172B6FEE74FF4F3
:100AE000027102222E48C3722E4B81800360C0F82F
:100AF00007200CF099FA034608B172B6FEE741F6FA
:100B00003F75294C294ACDE90F0011902046C4E9D0
:100B10000133A3612260E5600FF092FA034608B149
:100B200072B6FEE720460FA90F9311930FF0BAFAA1
:100B3000034608B172B6FEE71D481E4ACDE90F33E1
:100B4000026042F20F72C0E9023511938361426084
:100B50000FF076FA80B372B6FEE700BF00ED00E05A
:100B6000001002400008024200000242000402425B
:100B7000001C02424426032000080C4240270320A8
:100B8000B803032000A40040E025032038390320E7
:100B90000C39032000380040A42703200030024015
:100BA000B820032000D400402C240320001400406F
:100BB000782403200010004000237D480FA90F93E4
:100BC00011930FF06FFA034608B172B6FEE74F2596
:100BD0004FF6FF747748C0E9043383608361764B36
:100BE000C460C0E900350FF02BFA034608B172B6B5
:100BF000FEE77248C0E90153C0E90343C0E9053389
:100C00006F4B03600FF01CFA034608B172B6FEE7A3
:100C10004FF080414FF0FF326A4CCDE90F00CDE933
:100C20001100C4E901000CAD0C902061A0612046C8
:100C3000C5E901332160E2600FF002FA08B172B633
:100C4000FEE74FF4805320460FA90F930FF046F8AC
:100C5000034608B172B6FEE7204629460C930E9370
:100C60000FF020FA044608B172B6FEE7564D574819
:100C7000009522460121CDE90144554B047043F60D
:100C8000982011F0CDFD0546524E534A00960121A1
:100C9000CDE90144514B156043F69820224611F0EE
:100CA000BFFD05464E4E4F4A00960121CDE9014455
:100CB0004D4B156043F69820224611F0B1FD0546D4
:100CC0004A4A4B4E0121CDE901444A4B009643F676
:100CD00098201560224611F0A3FD0246464B20469F
:100CE0001A6007F0B7F8204607F0CEF8434809F03D
:100CF000D7FB434806F08AF8424A4349434802F08A
:100D00007BFD11F051F813F0F3FE2146404A4148B3
:100D100011F09AF80146404B404A1960404821467C
:100D200011F092F801463F4B3F4A19603F48214677
:100D300011F08AF8034634493D4A0B603D4821468C
:100D400011F082F801463C4B3C4A19603C48214670
:100D500011F07AF803462B4D21463A4A3A482B6067
:100D600011F072F80546394B2146394A39481D6061
:100D700011F06AF80546384B2146384A38481D605C
:100D800011F062F80546374B2146374A37481D6057
:100D900011F05AF80546364B2146364A36481D6052
:100DA00011F052F8354B186011F020F8FEE700BF43
:100DB00078240320E02303200044014094230320EF
:100DC00000480140C42403206404032034040320A9
:100DD000CCD900203C04032060040320349F002071
:100DE0001004032038040320983A0020DC37032045
:100DF000EC03032000000020D83703204426032002
:100E0000A4270320A0120320001C03204027032056
:100E1000FC93010855020008B4200320D893010870
:100E2000F1020008B0200320B4930108290500084E
:100E300090930108B9050008501703206C9301082E
:100E4000890600084893010851070008F00D0320A7
:100E50002493010855070008400903200093010866
:100E60005907000890040320DC920108A10700083C
:100E70008C040320B8920108A50700088804032009
:100E8000094A0368934206D0084A93420AD0084AA6
:100E9000934205D07047074A1368013313607047C7
:100EA00005F0F0BF0AF0FAB900140040002C014030
:100EB00000100040B403032072B6FEE7704700BF85
:100EC000034B044A1B68D07D1B6803491B6D184700
:100ED0000C01032070000320443C032040F69E7365
:100EE0002DE9F047DFF89CA02349244ADAF80040B6
:100EF000B1F800E012889C4204FB0E2238D8002092
:100F00004FF0804140F69F764FF030083127DFF8F0
:100F100078901B4D09EB040C4B6A9342FCD32B6970
:100F2000013013F48073C0B204F1010472440ED195
:100F300018468CF80080B4420CF1010CECD1012071
:100F4000CAF80040002309F80430BDE8F0870A28F9
:100F50008CF80070EFD9142C02D80CF1010CDBE7EF
:100F6000002309F804300020CAF80040BDE8F087EB
:100F70000120DFF81490E5E70A00032008000320B1
:100F800000040242342803203828032070B50024CE
:100F90004FF0804101254FF6FF7086B0CDE9004447
:100FA000CDE9024404940A681A4E22F001020A6054
:100FB0003288194B013A8A624C624D610A682A43B1
:100FC0000A601A6822F001021A6098625C625D6130
:100FD0001A682A431A6002F0B3FC2A464FF40071E3
:100FE0000E480BF07BFC4FF48072002369460B48DF
:100FF000CDE9002302940BF0BDFA4FF400730322F5
:1010000069460648CDE90035039202940BF0B2FA26
:1010100006B070BD0C0003200048014000040242ED
:10102000F0B5BDF81440012C45D94FF0300C012724
:10103000013C83F800C000293FD10A263D4604E068
:101040008C4675460127013E15D320FA06F101F0C2
:10105000010105F1010EA54201F130011FFA8EFEDA
:1010600029DA8C455955EBD10137FFB2052F4FD006
:10107000013E7546E9D2002A0CBF30263126A54232
:1010800019DA691CB4455E5589B200F0C1800127A8
:10109000A14210DA30224D1C9642ADB25A5400F0F3
:1010A000D980A54207DA881C80B25A5500221A540A
:1010B000F0BDA54239DB0020F0BD1C263D4605E011
:1010C0008C4675460127013E112EF2D020FA06F11A
:1010D00001F0010105F1010EA54201F130011FFAF5
:1010E0008EFEE8DA8C455955EAD10137FFB2052F5B
:1010F00001D07546E7E7CCF1610CA6455FFA8CFCA0
:1011000005F10205D7DA012703F80EC0ADB2DAE720
:10111000CCF1610CA6455FFA8CFC05F10205CADA38
:10112000012703F80EC0ADB28DE74FF0310E691CF8
:10113000F44589B203F805E04FD0A142BBDA03F8C9
:1011400001E0A91CF44602271FFA81FE04E08C4648
:10115000AE460127013E22D320FA06F101F001013B
:10116000A64501F13001A6DA0EF10105614503F84B
:101170000E10ADB2EBD10137FFB2052F01D0AE4654
:10118000E8E7CCF1610CA5425FFA8CFC0EF1020E8F
:1011900091DA012703F805C01FFA8EFEDAE7002A6C
:1011A0000CBF30253125A64585DA0EF10102AC458C
:1011B00003F80E5092B262D00121A242BFF67BAF7B
:1011C0003027561CBD42B6B29F5477D0A642BFF618
:1011D00072AF023290B29F5568E7042F28D0A14227
:1011E000BFF669AF0237FFB205F1020E052F03F813
:1011F00001C01FFA8EFEAFD1A645BFF65CAF4FF01F
:10120000300C033503F80EC001271FFA85FEA3E753
:101210000137FFB2052F7FF43BAFA142BFF64BAFC2
:10122000C6F16106F6B202355E540127A9B22FE776
:10123000A142BFF640AF30275F54A91C89B28C424F
:101240007FF739AF05F1030E012703F801C01FFA3C
:101250008EFE81E77A1CD2B2052A21D0A542BFF6C4
:101260002AAF881C042A5E5580B27FF41FAFA042CB
:10127000BFF621AF312203311A5488B216E7791C28
:10128000C9B2052999D1A242BFF615AFC5F16105D2
:10129000EDB20EF1020E9D5401211FFA8EF28CE781
:1012A000A542BFF608AF31225A558A1C92B2944229
:1012B0007FF701AFC81C80B29E54F7E60131C9B276
:1012C000052910D0A642BFF6F6AE9D55042902F1BD
:1012D0000205ADB215D1A542BFF6EDAE3121033204
:1012E00090B25955E2E6A642BFF6E5AE31219955D6
:1012F000911C89B2A142BFF6DEAE033290B25D54BA
:10130000D4E62846D2E600BF4B4B1868831C70D049
:101310002DE9F04FC71C91B077D0411C02D14FF09E
:1013200000090BE03024454B454A1978127804AB8C
:101330000094FFF775FE8146002860D04FF0804C86
:10134000404B414A1B88B2F800A003933F4B0AEB85
:101350008A0E1F883E4B3F491C683F4E4FEA4E0E97
:101360000B69DA05FCD5DCF8242092B20B69DB05A9
:10137000F6D5DCF824309B1A9E45F7D80B6913F498
:10138000807306D0736ABB422DD80B6913F4807347
:10139000F8D1CCF82430B9F1000F1AD01C464FF028
:1013A0008040039ADFF8B880DFF8A8B004AD436A44
:1013B0009342FCD3DBF81030524413F4807F15F8CD
:1013C000013B0DD0312BCBD10134A14508F8013BB5
:1013D000EDD11F4BC3F80090002011B0BDE8F08F95
:1013E000302BF1D0BCE70120194B1C6011B0BDE8D7
:1013F000F08F4FF08043002200205A627047174858
:1014000009F02AF94FF0000998E74FF080440E4B9D
:10141000104A188800EB800040001369DE05FCD5F7
:10142000616A89B21369DD05F7D5636A5B1A834285
:10143000F8D300236362CFE70400032031280320A0
:1014400030280320080003200A00032000000320A6
:10145000342803200004024200480140746101085E
:101460003828032002783AB34FF0000C30B56346B9
:10147000864631250BE02A2A07D10CF1010C1FFA10
:101480008CFC8EF8005000EB0C0EC25C82B1A2F115
:101490003001013301290CF101049BB2EBD88EF825
:1014A0000020C25C1FFA84FC00EB0C0E002AEED177
:1014B00000238EF8003030BD00230370704700BF5A
:1014C00070B5044609F05EFA14281ED900F1FF3EFB
:1014D0001FFA8EFE14F80E3004EB0E05312B2A464F
:1014E00015D1831E9BB200EB040C0CEB03002A26E3
:1014F0002344A0EB0E0005E016701A461178013B5C
:10150000312906D1C11A0C29F6D9002070BD00EB93
:10151000040C002220460126144610F8013BA3F1DA
:10152000300101292FD862B386B3052A42D0A342E5
:101530000FD0312B5ED0844515D010F8011B01224D
:10154000A1F13003012B79D830231C460B46A3426E
:10155000EFD10132312CD2B256D084454FF0010682
:101560004FF03004D9D10FFA8EFEBEF1000F06DB2A
:101570002A4615F801392A2B58D05F2B37D0012085
:1015800070BD1C4601228445C7D1ECE7A3420DD0B3
:101590008445E8D010F8011B1C46A1F13002012A55
:1015A00022D80B46A3424FF00102F1D101320026AE
:1015B000D2B2E8E7A342A8D05F23844500F8013CFB
:1015C000D1D0034613F8011BA1F13002012A20D823
:1015D0006345C8D043783246A3F13004012C00F1B2
:1015E00002000C46A0D9CEE700260122CBE730232B
:1015F0001370C4E78445B6D010F8011BA1F1300286
:10160000012A1ED80122A0E7062A8CBF0026012647
:10161000B9E76345A7D01A780230A2F13003DBB2F4
:10162000012B96BF144600223246ACE70EF1FF3E76
:101630000FFA8EFEBEF1FF3F9AD1A0E73024164686
:10164000A1E701221C4616469DE700BF70B571B3A5
:10165000002344F2995600F1FF3C0CEB01051CF805
:10166000012F5C00A2F13102B2FA82F24FEA933EFE
:1016700047F6FE735209724503EA040318BF73402C
:10168000AC45ECD14A1E00F10E0C024400208C4403
:1016900012F8011F4000312908BF40F001009445B5
:1016A00080B2F5D1C01AB0FA80F0400970BD0B4687
:1016B000E8E700BF2DE9F04F8FB0044609F062F96A
:1016C000122840F24B812378302B05D0B4480FB05C
:1016D000BDE8F04F08F0C0BF074606AEB14808F0BD
:1016E000BBFF00253146234604F10B0C13F8012FF4
:1016F000A2F13100B0FA80F09C454FEA501001F899
:10170000012B40EA4505F1D14FF00008A6488DF8BD
:10171000238008F0A1FF06A808F09EFFA34808F068
:101720009BFF03A9284608F0B9FF03A88DF8148091
:1017300008F092FF9E4808F08FFF94F80CA09D4897
:10174000657B8DF819808DF818A008F085FF06A834
:1017500008F082FF984808F07FFF98488DF81850ED
:1017600008F07AFF06A808F077FF934808F074FFA6
:10177000312D40F0FD80262F40F2F680454606AA26
:1017800004F10D010DF12A0011F8013F02F8013BAF
:10179000A3F13103B3FA83F390424FEA531343EAC0
:1017A0004505F1D14FF0000885488DF82A8008F0F2
:1017B00053FF06A808F050FF7C4808F04DFF03A92E
:1017C000284608F06BFF03A88DF8148008F044FF4A
:1017D000774808F041FF94F820A07A488DF81980E6
:1017E0008DF818A008F038FF06A808F035FF7248F9
:1017F00008F032FF94F8213073488DF8183008F063
:101800002BFF06A808F028FF6B4808F025FF94F886
:1018100022306E488DF8183008F01EFF06A808F038
:101820001BFF654808F018FF2322002504F1040C73
:1018300006A89444A11811F8013B00F8013BA3F15C
:101840003103B3FA83F38C454FEA531343EA45055A
:10185000F1D14FF000095E4802F1040801928DF8C1
:101860001C9008F0F9FE06A808F0F6FEEDB24F480D
:1018700008F0F2FE03A9284608F07EFF03A88DF8C1
:101880000E9008EBC50B08F0E7FE494808F0E4FEAF
:101890000BF10F03BB42019A00F2E780BAF1300F5F
:1018A00000F0A680002506A90BF1FF30204401F1CD
:1018B0000F0710F8012F01F8012BA2F13102B2FA43
:1018C00082F28F424FEA521242EA4505F1D10027D7
:1018D000404801938DF8277008F0BEFE06A808F076
:1018E000BBFE324808F0B8FE03A9A8B208F022FFF8
:1018F00003A88DF8107008F0AFFE374808F0ACFE72
:1019000059462046FFF7A2FE019B002840D03348ED
:1019100008F0A2FE019BE25CE118A2F13003012B6A
:1019200098BF012303D916E00133202B36D006F8E7
:10193000012B11F8012FA2F130000128F4D9002267
:101940006B4427481A7608F087FE06A808F084FE44
:10195000194808F081FE0FB0BDE8F08F21480FB0A4
:10196000BDE8F04F08F078BE1F4808F075FEF2E7BA
:10197000A37B16488DF818308DF8198008F06CFE9E
:1019800006A808F069FE0C4808F066FE0F224CE736
:101990001648019308F060FE019BBCE71F23CEE7C9
:1019A000B0610108C4610108D8610108E86101085B
:1019B00030890108F0610108006201080462010831
:1019C000286201083862010848620108586201086B
:1019D00068620108A4620108B4620108B8620108E3
:1019E000CC6201089C61010814620108C062010810
:1019F000082D3FF657AF002D3BD06B1EDBB20C32EB
:101A000002EBC30B0DF11F0700250DF1170204EBCC
:101A1000080111F8013B02F8013FA3F13103B3FAC9
:101A200083F397424FEA531343EA4505F1D1134834
:101A30008DF8209008F010FE06A808F00DFE104862
:101A400008F00AFE03A9E8B208F096FE03A808F120
:101A500008088DF80E9008F0FFFD0A4808F0FCFD1C
:101A6000C345D1D10BF10F031CE7074808F0F4FD83
:101A700071E7C34602F1130314E700BF9462010843
:101A8000E86101083089010878620108002800F047
:101A9000F98030B583B0044608F074FF0130235C50
:101AA00025180BB9012038E02046774908F076FF69
:101AB00048BB2046754908F071FF20BB2046744999
:101AC00008F06CFF002856D12046724908F066FFE6
:101AD000002862D00A2128460DF1070208F0C8FF4D
:101AE0009DF80730002BDDD04FF6FE73421E9A4260
:101AF000D8D8694B80B21A886849824208800BD3D3
:101B00004008188008E02846654908F047FF30B1D2
:101B10006FF00102634B1A60002003B030BD28460D
:101B2000614908F03BFF20B14FF0FF325D4B1A6076
:101B3000F2E728465D4908F031FF20B16FF002025C
:101B4000584B1A60E8E7102128460DF1070208F00B
:101B50008FFF9DF807300446002BA3D0B0F1005F43
:101B6000A0D2B0F5006F03D3514B1A78002A50D0A1
:101B70004C4B1C60D0E70A2128460DF1070208F003
:101B800077FF9DF80730002B8CD04FF6FE73421E76
:101B90009A4287D8474B1880BEE72046464908F04E
:101BA000FDFE90B10A2128460DF1070208F060FF02
:101BB0009DF80730002B3FF475AF384B1B888342EC
:101BC0007FF670AF344B1880A6E720463B4908F0FB
:101BD000E5FE80B128463A4908F0E0FE002837D0FB
:101BE000304B384A1B68A3F50063934246D9002264
:101BF0002F4B1A7090E72046334908F0CFFE70B1A2
:101C000028462F4908F0CAFE68B300222F4B1A70ED
:101C100082E701222E481A7008F01EFDA8E7204630
:101C20002C4908F0BBFE00283FF43CAF0DF1070241
:101C30000A21284608F01CFF9DF80720002A3FF4DF
:101C400031AFB0F5803FBFF42DAF234A108063E77A
:101C50002846224908F0A2FE00283FF423AF0122C3
:101C6000134B1A7058E728461C4908F097FE0028C5
:101C70003FF418AF0122154B1A704DE7184808F0D1
:101C8000EBFC0FE701207047DC620108E862010805
:101C90002863010834630108080003200A000320B8
:101CA000E462010804000320F0620108F462010804
:101CB000312803200C000320406301085063010811
:101CC0005C630108FFF7FF1F8C63010830280320C5
:101CD000FC6201089063010800000320886301088A
:101CE0006063010810B5364884B008F0B5FC354B88
:101CF00001A9188808F0EAFE01A808F0ADFC324CF2
:101D0000324808F0A9FC324808F0A6FC01A9206876
:101D100008F0C4FC002301A88DF80C3008F09CFCEE
:101D20002368991C40D05A1C42D0033344D0294820
:101D300008F092FC284B01A9187808F0C7FE01A80A
:101D400008F08AFC254808F087FC254B01A9187883
:101D500008F0BCFE01A808F07FFC224808F07CFCDB
:101D6000214B01A9188808F0B1FE01A808F074FC05
:101D70001E4808F071FC1E4B01A9188808F0A6FE49
:101D800001A808F069FC1B4808F066FC1A4B01A981
:101D9000188808F09BFE01A808F05EFC174808F0C0
:101DA0005BFC002004B010BD154808F055FCBEE7F0
:101DB000144808F051FCBAE7134808F04DFCB6E7A8
:101DC000986301080000032004000320A4630108B5
:101DD000AC630108CC63010831280320D8630108F3
:101DE00030280320E06301080C000320046401088C
:101DF0000A0003201464010808000320006201089F
:101E0000B4630108BC630108C46301082DE9F04113
:101E10000026104D104FFFF7B9F86E626A6A3B88D2
:101E20009A4212D24FF08044DFF83480B8F8002094
:101E30006662636A9342FCD34FF4007107480AF06C
:101E400053FD6A6A3B889A42F0D301F0EFFC002010
:101E5000BDE8F08100480140000003200004024278
:101E60000A0003202DE9F04F7A4B91B01B88B3F59F
:101E70007A7F60D9FFF78AF872B6774B1868831CAF
:101E800000F0D780C71C6DD0411C5BD14FF000091A
:101E90004FF0804C714B724A1B88B2F800A003933C
:101EA000704B0AEB8A041D686A4B6F49B3F800E077
:101EB0006E4F64000B69DA05FCD5DCF8242092B281
:101EC0000B69DB05F6D5DCF824309B1AA342F7D367
:101ED0000B6913F4807307D07B6A734500F2B180FD
:101EE0000B6913F48073F7D1CCF82430B9F1000FEB
:101EF0001AD01D464FF08040039ADFF88C81DFF83E
:101F000068B104AE436A9342FCD3DBF8103052440C
:101F100013F4807F16F8013B0AD0312BCAD101356A
:101F2000A94508F8013BEDD14E4BC3F8009032E0D3
:101F3000302BF4D0BEE74E4808F08EFB002011B0E5
:101F4000BDE8F08F30244B4B4B4A1978127804AB24
:101F50000094FFF765F88146002899D1474808F0BA
:101F60007BFB93E74FF080443D4B3F4A188800EBE2
:101F7000800040001369DE05FCD5616A89B21369EF
:101F8000DD05F7D5636A5B1A8342F8D300236362E9
:101F9000304BB3F800E00026344D6E626B6A734537
:101FA0002FD22E4B4FF08041B3F800C02C4B2E4C5B
:101FB0001F8802E06B6A73452ED2236913F4807385
:101FC000F8D162461846D5F824804B624B6A93429A
:101FD000FCD32369013013F48073C0B219D00B28ED
:101FE0003A44F3D1A2EB0C024B6A9342FCD36B6AE6
:101FF000A3EB08031E446B6A7345DED3204B03FB3F
:1020000006F662B601F012FC124B1B88B6FBF3F029
:1020100095E718463A44D9E762B601F007FC184B39
:102020000C4A06FB03F31088B3FBF0F011B0BDE8D7
:10203000F08F4FF0804300225A62064BB3F800E065
:10204000A9E7084B1D6062B60E4808F005FB01F0D9
:10205000EDFB73E7000003200400032008000320C9
:102060000A000320342803200004024200480140F3
:1020700028640108312803203028032074610108F6
:10208000A086010044640108382803202A4B70B55B
:102090001B680333012B37D9FEF778FF72B6002295
:1020A000264B5A62FFF730F928BBFEF717FF0446AC
:1020B00000283AD162B6224E3368072B2ED9214D23
:1020C000284608F0C9FA204808F0C6FA33682846BE
:1020D000EC54FFF7F5F9D8B1284608F0BDFA1B48D3
:1020E00008F0BAFA2846FFF7BDF9FFF7E3FA01F066
:1020F0009DFB204670BD62B6154808F0ADFA01F0B0
:1021000095FB0124204670BD124808F0A5FAF8E7B7
:10211000114808F0A1FA01F089FBF3E70F4808F035
:102120009BFA01F083FB204670BD62B60C4808F0B4
:1021300093FA01F07BFBE4E7040003200048014030
:102140003428032038280320D8640108F0640108EB
:102150008C64010858640108E0640108C064010847
:10216000A86401082DE9F04F91B0FEF70FFF72B699
:1021700000254FF0804270497048714B55620560F0
:102180004D621868811C00F0A180C31C00F0B38070
:10219000421C7FD1AB464FF0804E6A4B6A481E8886
:1021A0006A4B06EB86041A88694BDFF88C81B3F81A
:1021B000009064000369DB05FCD5DEF8241089B2C9
:1021C0000369DF05F6D5DEF824305B1AA342F7D3A6
:1021D000036913F4807307D0D8F824304B457ED8B8
:1021E000036913F48073F7D1CEF82430BBF1000FEC
:1021F00000F09B801D46574B11469A464FF0804792
:1022000003930DF1100C7B6A8B42FCD34E4B31448F
:102210001B6913F4807F1CF8013B54D0312BC9D1CA
:102220000135AB450AF8013BEDD1444B06FB0B22CF
:10223000C3F800B040F69E739B451AD84FF080411A
:102240004FF0300C3127039B0BF1FF30424D3E4CD9
:1022500018444B6A9342FCD32369DB052DD500F863
:10226000017FA8423244F4D140F69F739B46334A23
:1022700013600024039B03F80B4062B601F0D6FA0A
:10228000344808F0E9F9354808F0E6F9204611B07D
:10229000BDE8F08F324B334A19783023127800931F
:1022A00004ABFEF7BDFE834600287FF474AF2E48D2
:1022B00008F0D2F9214B1D686DE700F801CFA84264
:1022C0003244C6D1D0E7302BAAD073E71D4B1F494B
:1022D0001E88204B5562AB460A880393AEE7174B26
:1022E0001D6062B6214808F0B7F901F09FFA01209D
:1022F00011B0BDE8F08F134B13491E8806EB86041E
:1023000064000B69DF05FCD5506A80B20B69DD05FE
:10231000F7D5536A1B1AA342F8D300230B490D4883
:102320009B46039053620A8888E70A4B0393034B4A
:10233000C3F800B082E700BF004801403428032002
:10234000040003200A0003200004024208000320C6
:102350000000032038280320D6370320006201083C
:1023600031280320302803207461010844640108E7
:10237000002800F019812DE9F04F95B0834608F050
:1023800001FBB0F57A6F28BF4FF47A60894E814621
:102390003368033340F0C480FEF7F8FD72B60025C1
:1023A0004FF08044844B65625D623068834B1D60F2
:1023B000831C00F0E380C71C00F0C580471C00F0C0
:1023C000BA80302300937E4B1A787E4B197808AB85
:1023D000FEF726FE8246002800F0AF807A4B4FF0D1
:1023E000804E1A8879491346098802EB82040591C8
:1023F00077497848B1F800806F4F64000169CE05D5
:10240000FCD5DEF82460B6B20169C905F6D5DEF860
:102410002410891B8C42F7D8016911F4807107D010
:10242000796A414500F2B480016911F48071F7D1F5
:10243000CEF82410BAF1000F00F0B8804FF0804CB5
:102440000D466549059E0691049108A903910794DC
:10245000DCF82410B142FBD35E49039C09691644A1
:1024600011F4807F14F8011B039460D0312960D1EE
:10247000049C013504F8011BAA450494E8D1059990
:102480000024114418464FF080424FF4007E4FF074
:10249000300840F69F7C494D504E4E4F2C60556A97
:1024A0008542FCD3A1453FD91BF80450312D3BD0C8
:1024B000302D04D14FF0007A464DC5F818A0556A6A
:1024C0008D42FCD33D690134ED0544BF312506F84A
:1024D000015F3A4D58BF06F8018F64452C601844DF
:1024E0001944DCD14FF47A6000224FF0804100FBA8
:1024F00003F3069880F89F2F4A6A9A42FCD34FF460
:102500000072344B9A6162B601F090F9324808F0DB
:10251000A3F8334808F0A0F8002015B0BDE8F08F0C
:10252000304808F099F837E7C7F818E0C7E73029CE
:102530009ED0079C62E7AA4650E72B4808F08CF82B
:102540001E4B1D684AE7204B224D1A88134602EBAA
:10255000820149002869C605FCD5666AB6B22869B9
:10256000C005F7D5606A801B8842F8D300216162FC
:102570001649098805911849069180E7124A134BBC
:1025800012881B881449656205930691134676E705
:102590000A4B1D6062B6154808F05EF801F046F976
:1025A000012015B0BDE8F08F012070470A4906915F
:1025B00065E700BF040003200048014034280320E1
:1025C00030280320312803200A00032008000320BC
:1025D000000003200004024238280320372803208B
:1025E0000062010800650108746101088C6401083B
:1025F0002DE9F04F91B0FEF7C9FC72B600229C495C
:102600009C4B4A621868831C00F01881C71C00F0BC
:102610004981441C02D14FF0000E0CE03024964B4F
:10262000964A1978127804AB0094FEF7F9FC8646B6
:10263000002800F017814FF08044914A914B128896
:10264000B3F800C00392904B904A0CEB8C05B2F8A3
:1026500000B01E688E49864F6D000A69D005FCD512
:10266000606A80B20A69D205F7D5626A121A954289
:10267000F8D80A6912F4807207D07A6A5A4500F2D3
:10268000D2800A6912F48072F7D16262BEF1000F43
:1026900000F0258116467F4A4FF080489146039806
:1026A00002920DF1100AD8F824208242FBD3784A16
:1026B0006044126912F4807F1AF8012B00F0AA809E
:1026C000312ACAD10136B64509F8012BEBD1039A5C
:1026D0000CFB0E2200244FF0804040F69E764FF017
:1026E000310830276A4D416A9142FCD3296901348F
:1026F00011F480710AD1B64598BF029C624498BF1C
:1027000004F80E700C460EF1010EECE7B64598BFCA
:102710000299624498BF01F80E80092C0EF1010E57
:10272000E1D10399DFF848A1594EC3F800E0511AEE
:102730000393DAF82400584533D840F68E739E454B
:102740002FD8029B0EF1FF351D4400204FF080432F
:102750004FF031094FF030080EF101045F6A8F42EB
:10276000FCD3052894BF4FF000774FF40077B76192
:102770005F6A9742FCD337696144FF0554BF05F88F
:10278000018F05F8019FDAF8247062445F4504EB7D
:10279000000ECED801301028E0D1DAF824305B45A5
:1027A000CBD94FF08042039BC3F800E0536A8B42C1
:1027B000FCD32F4C636A5B4518D84FF08043002749
:1027C0004FF000764FF400750CEB4C013048490097
:1027D0004FEA0C1C5F6286615A6A8A42FCD38561AB
:1027E0005A6A6245FCD3626A5A45F3D9BEF57A6FDC
:1027F00014D20023029A02F80E3062B601F016F8E5
:10280000244807F029FF244807F026FF002011B0D4
:10281000BDE8F08F302A3FF455AF1EE70023029A3F
:1028200082F89F3FE9E71E6062B61C4807F014FF7C
:1028300000F0FCFF012011B0BDE8F08F4FF08045A3
:10284000104C144E104B0E481049B4F800C00296BC
:102850006A620288D3F800E00392B1F800B00EFB80
:102860000C2237E70E4807F0F7FE4FF0000EE2E6C5
:1028700000480140040003203128032030280320B1
:10288000080003200A00032034280320000003204E
:102890000004024238280320006201088C64010809
:1028A000746101084FF080420F4B1048B3F800C02C
:1028B0000CEB8C0149000369DE05FCD5546AA4B217
:1028C0000369DD05F7D5536A1B1B8B42F8D300243F
:1028D000074D084B0295084808495462B9E7044976
:1028E000039A0291F6E600BF0A00032000040242A8
:1028F0003828032034280320080003200000032088
:102900002DE9F04FA24C93B023680333012B40F222
:1029100014818346FEF73AFB72B600264FF08042E0
:102920009C4B5E629C4B1E6056622068811C00F0CE
:102930002581C31C00F04A81421C72D134464FF0FD
:10294000804C964BDFF864A21D88954B05EB850EF5
:102950001B8894490593944BDFF83882B3F80090B4
:102960004FEA4E0E0B69DB05FCD5DCF8242092B251
:102970000B69DF05F6D5DCF824309B1A9E45F7D8A5
:102980000B6913F4807308D0D8F824304B4500F25B
:10299000C6800B6913F48073F6D1CCF82430002C78
:1029A00000F02E814FF080401E46804B06AF059A06
:1029B00004930397436A9342FCD37A4B039F1B69AA
:1029C0002A4413F4807F17F8013B03973BD0312B47
:1029D000C8D1049F013607F8013BB4420497E9D1FE
:1029E0006D4B1C60059B05FB043300264FF08042B5
:1029F00040F69E7C4FF031094FF03008694F0BF1E3
:102A0000060E516A9942FCD33969013611F480717E
:102A100004F101001AD1644521D90E4604462B4425
:102A2000EFE7634B1A7830230093624B197806ABBB
:102A3000FEF7F6FA0446002881D15F4807F00CFE45
:102A4000554B1E687BE7302BC3D08BE7644598BF9E
:102A50000AF80490B6452B4407D90446D1E70AF892
:102A600004800E4601342B44CBE701464FF08040F2
:102A7000059A9E1A426AB242FCD34FF000774FF09B
:102A80008040484A9761426A9A42FCD3454A0234E0
:102A9000126912F4807F40F69E7255D1914261D93D
:102AA0003D48944204602E442B4442D84FF080426B
:102AB0004FF4007C4FF031084FF0300E3F4F394C4F
:102AC0005144506AB042FCD3C4F818C0506A8342E3
:102AD000FCD82069C0051BD401F801EFB9422E448F
:102AE0002B44EED140F69F732B4A136040F69F7340
:102AF00000220AF8032062B600F098FE2B4807F087
:102B0000ABFD2F4807F0A8FD002013B0BDE8F08F03
:102B100001F8018FB9422E442B44D2D1E2E71E4B7B
:102B200028481C461E6007F097FD2368B3F57A6FAE
:102B3000DED300238AF89F3FDDE7234807F08CFDB2
:102B4000012013B0BDE8F08F9142A9D8124A2E445B
:102B5000146031220AF8012040F69F7294422B44FF
:102B6000A4D1C3E70C4A2E44146030220AF8012095
:102B700040F69F7294422B4498D1B7E7084B5662B7
:102B80001B88064A34461588DFF820A005932CE7F9
:102B90000400032000480140342803200A000320D9
:102BA000080003200004024200000320382803200C
:102BB000302803203128032074610108D637032010
:102BC0000062010844650108306501080D4B0E499B
:102BD0001D8805EB850464000B69DF05FCD5506A90
:102BE00080B20B69DE05F7D5536A1B1AA342F8D3EE
:102BF0000024064B54621B88DFF814A00593F4E60A
:102C0000059BF2E60A0003200004024208000320AC
:102C1000382803209B4B2DE9F04F1B6893B00333FA
:102C2000012B40F224818146FEF7B0F972B60023F1
:102C3000DFF87CB2944ACBF82430DBF824301688D5
:102C4000B34280F0DA80914C09F1060900274FF079
:102C500080428C4B57621D688D4BA91C1F6000F091
:102C6000D680EB1C00F0E480691C00F0CD8030239E
:102C70000093884B28461A78874B197806ABFEF7E5
:102C8000CFF98246002800F0CB8038464FF08047CD
:102C9000824BB3F800E0824B0EEB8E0C1B884FEAA0
:102CA0004C0C04932369DA05FCD57A6A92B2236945
:102CB000DB05F7D57B6A9B1A6345F8D3236913F4C8
:102CC000807308D0DBF82430B34200F2CA80236955
:102CD00013F48073F6D17B62BAF1000F00F0C48068
:102CE0004FF0804118466F4B049A03930DF118087A
:102CF00005954B6A9342FCD32369724413F4807F99
:102D000018F8013B1FD0312B1FD1039D013005F86E
:102D1000013B82450395ECD1DDE9043500FB0E3221
:102D200000274FF0804101304B6A9342FCD3236966
:102D3000013713F4807300F1010C08D0B9457244D7
:102D400009D96046F0E7302BDFD0059DAAE71F4682
:102D500072440130E8E74FF080414D4B1860049B0E
:102D6000D21A4B6A9342FCD34FF000734FF080416C
:102D70007244A3614B6A9342FCD34FF4007CC4F8C5
:102D800018C0DBF82430B34237D202357FF45EAF8F
:102D90004FF080414FF0000E4FF0007B3F4B3B4D1A
:102DA0001F883F4BDFF808A1B3F80080002442469B
:102DB0002046C1F824E0C1F824E04B6A9A42FCD8CE
:102DC0002B69013013F4807358D0814504F101045C
:102DD0003A44F2D8A2EB08024B6A9A42FCD8C5F8F2
:102DE00018B03A444B6A9A42FCD8C5F818C0DAF8D1
:102DF00024309E42DAD8264B1C6062B600F016FDE5
:102E0000002013B0BDE8F08F3846BA463EE7244BA9
:102E100057621A88214B3846B3F800E004927FE7E6
:102E2000214807F019FC184B1E88194B18682DE72C
:102E30001A4B1649B3F800E00EEB8E077F000B69C2
:102E4000D805FCD5506A80B20B69DB05F7D5536A0B
:102E50001B1ABB42F8D30020114B50621A8804920F
:102E60005EE70B4B1860C8E75046049A58E70F48D6
:102E700007F0F2FB012013B0BDE8F08F18460134D3
:102E80003A449AE7040003200000032000040242B1
:102E90003428032030280320312803200A0003208F
:102EA00008000320382803207461010830650108F8
:102EB000004801400870704700787047030A0870A6
:102EC0004B707047012994BF00780088704700BF9D
:102ED000012908D94FF6FE2302889A4203D8981A8E
:102EE000C0F34F0070470020704700BF012911D97F
:102EF0004378FA2B07D8084AC3EB0330A2FB002023
:102F0000C0F30F10704740F6FF72FF2B0CBF00207C
:102F10001046704700207047D34D6210022907D930
:102F20004FF6FF73B0F80100984208BF00207047C9
:102F300000207047042907D94FF6FF73B0F803004B
:102F4000984208BF0020704700207047012907D928
:102F50004FF6FF730088984208BF4FF40060704737
:102F60000020704701290ED94FF6FF730088984260
:102F700009D047F27F53984238BF1846A0F5EA407F
:102F80007F3880B270474FF400607047032986BFD6
:102F9000C078C0F381000020704700BF09B10078FD
:102FA00070470846704700BF012906D9437803F0EF
:102FB0000F03013BDBB2022B01D900207047024A0C
:102FC00032F81300704700BF2094010819B101784E
:102FD000C1F3810070470846704700BF032986BFD0
:102FE000C07800F003000020704700BF034600B522
:102FF00083B008465BBA02220DF10601ADF8063037
:1030000007F096FC03B000BD8446002310B50C46C3
:1030100082B00DF1060002226146ADF8063007F0DD
:1030200087FCBDF80600012C98BFC0B240BA80B240
:1030300002B010BD002300B5012983B0ADF8063001
:1030400002D8184603B000BD014602220DF1060069
:1030500007F06EFC9DF8060003B000BD38B50D46C4
:1030600004460822FF21284607F05EFCB4F5FB4F1A
:103070000ADAC4F5FA447F34640004F0FE03C4F3B2
:1030800007242B706C7038BD002423466C702B70A5
:1030900038BD00BF38B50D460822FF21044628463A
:1030A00007F042FCFA2204FB02F2044BA3FB0213DA
:1030B000D21A03EB5203DB0A6B7038BD010110001A
:1030C00038B50C4605460822FF21204607F02CFCA7
:1030D0002B0A6570A37038BD38B50C46054608222A
:1030E000FF21204607F020FC2B0AE570237138BD34
:1030F00038B50C4605460822FF21204607F014FC8F
:103100002B0A2570637038BD38B50C460822054679
:10311000FF21204607F008FC48F6802247F27F5343
:10312000954294BF5B199B189BB21A0A2370627078
:1031300038BD00BF38B50D4604460822FF21284699
:103140007D3407F0F1FBAC7038BD00BF38B50D46DB
:1031500004460822FF21284607F0E6FBEB78A4008E
:1031600023F00C0304F00C042343EB7038BD00BFC4
:1031700038B50C4605460822FF21204607F0D4FB4F
:10318000257038BDFF2838B50D460FD9C3B2002BC6
:103190000CBF012403240822FF21284607F0C4FBAA
:1031A0006B7823F00F031C436C7038BD031E18BFEF
:1031B00001235C00EFE700BF38B50D460446082246
:1031C000FF21284607F0B0FB2B78A40023F00C0366
:1031D00004F00C0423432B7038BD00BF38B50C46F7
:1031E00005460822FF21204607F09EFBE37805F004
:1031F000030523F003032B43E37038BD38B50D46B8
:1032000004460822FF21284607F08EFB012C0AD035
:10321000022C05D0032C0CBFD723FF23AB7038BD85
:10322000C723AB7038BDC323AB7038BD38B50C466F
:1032300005460822FF21204607F076FBEBB2022B61
:1032400012D0032B09D0042B0CBF51230023FF2DD8
:1032500088BF43F00403237038BD1123FF2D88BFBE
:1032600043F00403237038BD0123FF2D88BF43F0D2
:103270000403237038BD00BF38B50C46054608224C
:10328000FF21204607F050FB15F0080F0CBF00216E
:10329000FA2115F0100F0CBF0022FA2215F0200FB2
:1032A0000CBF0023FA2315F0400F0CBF0020FA20BA
:1032B00015F0800FE0700CBF0020FA2015F0010F10
:1032C00021700CBF0021FA2115F0020F62700CBFB3
:1032D0000022FA2215F0040FA3700CBF0023FA237A
:1032E00020716171A271E37138BD00BF022906D956
:1032F00080787D38C0B2812888BF002070470020C8
:10330000704700BF032906D9C0787D38C0B2812834
:1033100088BF002070470020704700BF02290FD9E6
:10332000837803F00C02042A01D001207047C3F314
:103330000113012B06D0002B0CBF02200120704787
:10334000002070470320704707292DD90378427861
:10335000A3F1FA03B3FA83F3FA2A4FEA53138278FC
:103360004FEAC30308BF43F01003FA2AC27808BF2C
:1033700043F02003FA2A027908BF43F04003FA2AF7
:10338000427908BF43F08003FA2A827908BF43F0EC
:103390000103FA2AC27908BF43F00203FA2A08BFE0
:1033A00043F00403184670470020704700787047C8
:1033B000D9B103789A09012A0ED003F03002102AFD
:1033C00015D003F00302012A14BF0120022003F0EC
:1033D0000C03042B06D0704703F00C03042B4FF0B2
:1033E0000400F8D140F47F4070470846704703203E
:1033F000EDE700BF007870470078704700787047AD
:103400000078704708707047087070470870704700
:103410000870704708707047030A08704B70704757
:10342000012994BF00780088704700BF38B50D4669
:103430000822FF210446284607F076FAFA2204FB08
:1034400002F2044BA3FB0213D21A03EB5203DB0A72
:103450006B7038BD01011000012911D94378FA2B96
:1034600007D8084AC3EB0330A2FB0020C0F30F10BB
:10347000704740F6FF72FF2B0CBF002010467047CC
:1034800000207047D34D6210034600B583B0084654
:103490005BBA02220DF10601ADF8063007F048FADA
:1034A00003B000BD034600B583B008465BBA0222F4
:1034B0000DF10601ADF8063007F03AFA03B000BD91
:1034C000034600B583B008465BBA02220DF106013F
:1034D000ADF8063007F02CFA03B000BD034600B586
:1034E00083B008465BBA02220DF10601ADF8063042
:1034F00007F01EFA03B000BD034600B583B00846CE
:103500005BBA02220DF10601ADF8063007F010FAA1
:1035100003B000BD034600B583B008465BBA022283
:103520000DF10601ADF8063007F002FA03B000BD58
:10353000034600B583B008465BBA02220DF10601CE
:10354000ADF8063007F0F4F903B000BD844600235F
:1035500010B50C4682B00DF1060002226146ADF8AE
:10356000063007F0E5F9BDF80600012C98BFC0B29F
:1035700040BA80B202B010BD8446002310B50C469C
:1035800082B00DF1060002226146ADF8063007F068
:10359000CFF9BDF80600012C98BFC0B240BA80B286
:1035A00002B010BD8446002310B50C4682B00DF168
:1035B000060002226146ADF8063007F0B9F9BDF801
:1035C0000600012C98BFC0B240BA80B202B010BD54
:1035D0008446002310B50C4682B00DF1060002228D
:1035E0006146ADF8063007F0A3F9BDF80600012CDE
:1035F00098BFC0B240BA80B202B010BD844600236A
:1036000010B50C4682B00DF1060002226146ADF8FD
:10361000063007F08DF9BDF80600012C98BFC0B246
:1036200040BA80B202B010BD8446002310B50C46EB
:1036300082B00DF1060002226146ADF8063007F0B7
:1036400077F9BDF80600012C98BFC0B240BA80B22D
:1036500002B010BD8446002310B50C4682B00DF1B7
:10366000060002226146ADF8063007F061F9BDF8A8
:103670000600012C98BFC0B240BA80B202B010BDA3
:10368000002300B5012983B0ADF8063002D81846F2
:1036900003B000BD014602220DF1060007F048F913
:1036A000BDF80600000A03B000BD00BF012918D90B
:1036B000037803F00302012A17D003F00C02042A56
:1036C00015D003F03002102A0DD003F0C003402BB8
:1036D0000FD0437803F00303012B0CBF0620012019
:1036E0007047002070470520704702207047032074
:1036F00070470420704700BF2DE9F04F3A4B8346D6
:10370000984283B007D8394B984260D94FF02809C6
:103710004FF4487609E036494FF02509B1FBFBF13B
:10372000C9B2192940F2EE265BD90124304B01348D
:10373000A4B2B3FBF4F1B1FBFBF1C9B21929F6D87D
:10374000B4F5806F3FD201202A4BCDF804B01F683A
:1037500023186FF0004C4FF47A759B461FFA83FADA
:10376000A1F1020EBEEB510F4FEA51031ADD01F138
:10377000FF385FFA88F805FB03F2B2FBF1F2B21AE8
:10378000002AB8BF5242624509DA914507DB0020A2
:103790009446A8EB0302D2B2FB617C613A6201332A
:1037A0007345E8DB124B1FFA8BF4B3FBFAF1019B74
:1037B000B4F5806FB1FBF3F10AF1010AC9B203D08D
:1037C00004F1010BCCE7012003B0BDE8F08F0849FC
:1037D0004FF02B09B1FBFBF1C9B2192940F26B364E
:1037E000A3D80124AFE700BF00350C0020A10700DB
:1037F000005A6202D038032038B50C46064D0749FE
:10380000074B0A602860074901201C600EF0A8FDE4
:10381000054B186038BD00BFD0380320C8380320DE
:10382000CC380320E03703203038032030B53F4C3C
:1038300083B0206808F0DCF9206808F021F800283F
:1038400051D100223A4D40213A482A71EA602A615A
:103850006A61AA61AA60EA6185F8202009F03EF851
:10386000206805F1240108F0F5F800285BD1324901
:10387000206808F0EFF8002852D1002302222068C7
:103880001146009308F012F9002846D1206808F08C
:1038900053F900283ED100220121206808F004FBE2
:1038A000A8BB00220621206808F0FEFA60BB0722B0
:1038B0004FF4F051206808F0F7FA10BB072280217E
:1038C000206808F0F1FAC8B900221C49206808F005
:1038D000EBFA80B900224FF46021206808F0E4FA86
:1038E00020B903B030BDFDF7E7FAAAE703B0BDE8A1
:1038F0003040FDF7E1BAFDF7DFFAEBE7FDF7DCFA60
:10390000E2E7FDF7D9FAD9E7FDF7D6FACFE7FDF7F9
:10391000D3FAC6E7FDF7D0FABDE7FDF7CDFAB5E774
:10392000FDF7CAFAA9E7FDF7C7FAA0E7D0380320E8
:1039300010000320000402424C00032000407100EC
:10394000014B186808F054B9D0380320704700BF05
:10395000082824D8DFE800F0080C1014171A1D20DE
:1039600005001448FFF7C8BE42F21070FFF7C4BE4E
:1039700044F62060FFF7C0BE4CF25030FFF7BCBEEB
:103980000D48FFF7B9BE0D48FFF7B6BE0C48FFF76C
:10399000B3BE0C48FFF7B0BE0B48FFF7ADBE0B4AF5
:1039A000A0F51C53103B934201D901207047FFF74B
:1039B000A3BE00BF40420F00A086010048E80100FE
:1039C00090D0030020A1070000350C00301B0F0031
:1039D0002DE9F047054682B0C0680F4606F09CFF0F
:1039E000AB68B3F1005F3ED00646824600F1240981
:1039F000264C4FF0FF3120680EF070FD0128F8D101
:103A0000DFF89480D8F800000EF04EFF484517D23A
:103A100002251F4A13792B431371002320681A468D
:103A200019460EF001FC1B4A02231268106800229E
:103A30001146009210F00EFA284602B0BDE8F08759
:103A400029464FF0FF332422D8F800000EF04EFF35
:103A5000054686B94D450CD00D4A0125137943F032
:103A600008031371D9E74FF0000A4FF024095646B6
:103A7000BEE70025D1E7524639464FF0FF33D8F86C
:103A800000000EF033FF0544E4E700BF30380320A8
:103A900010000320CC380320D837032030B4012293
:103AA000002410200A4B04211B684FF440751C822F
:103AB000C3E90520DC6018623F240F209A74C3E933
:103AC0000125DC61C3E9092130BC1963D862704764
:103AD000D03803202DE9F04700250C4682B0C907F5
:103AE0000646019516D4A20707D50221314A13795B
:103AF00043F00103137133681965630738D4019BE0
:103B00002BB14FF0E0234FF08052C3F8042D02B0E8
:103B1000BDE8F087DFF8A890DFF8988040214A469A
:103B2000254B08F0DDF8D8F81430D9F80C00013333
:103B3000C8F8143006F0F0FEDFF888A00746DAF87F
:103B400000000EF0B1FE07F12803984224D3494645
:103B50002822DAF8000001AB0EF062FF002FC2D07D
:103B60003A46DAF80000144901AB0EF059FFBAE703
:103B70000424104B11499A69086801329A611A7934
:103B8000002142F008021A71336800680DEB04024C
:103B90001C6510F07FFAB2E7D8F8183029460133D7
:103BA000C8F81830054B01AA1B68186810F072FAA3
:103BB00099E700BF1000032088380320C83803208D
:103BC00060380320DC370320002110B50A4A0B4C73
:103BD0001268236982B01068013301AA2361019140
:103BE00010F058FA019B2BB14FF0E0234FF08052B8
:103BF000C3F8042D02B010BDCC3803201000032000
:103C0000002110B50A4A0B4C1268E36982B01068B3
:103C1000013301AAE361019110F03CFA019B2BB141
:103C20004FF0E0234FF08052C3F8042D02B010BDD6
:103C3000C83803201000032038B50C46104D294623
:103C400008F0E8F8A10303D5EB68A3B90D4A1360A7
:103C5000620309D52B690B4A012B13790CBF43F082
:103C6000040303F0FB031371230303D50122054B67
:103C700083F8202038BD4FF00042024B1A60E7E77E
:103C80003438032010000320F0B500250B7885B0F0
:103C9000074602950395CBB10C460DF1FF3608E0BF
:103CA0002046D5B206F0DCFD14F8023F06F8010FFD
:103CB00023B163786A1C0BB3072DF1D18DF808503E
:103CC0002A4669460DF1090011F098FB00230E4CBD
:103CD0000820C4E90533C4E90133276006F022FE59
:103CE000082203460DEB02010848E36006F020FEBF
:103CF00020460649FFF76CFE05B0F0BD8DF8085070
:103D0000002DDDD1E2E700BFE0380320D4380320E6
:103D100042F202032DE9F043002499428BB044544F
:103D200000F2BA80002900F0808100F1FF3E0139E5
:103D3000F4467346014405E00A2A1CBF02550134CB
:103D40008B4209D013F8012F082AF5D1002CF7D0A7
:103D50008B4204F1FF34F5D10025AC42055540F308
:103D60005E812A460EEB04031CF8011F202900F097
:103D7000898082B99C4505F101050CF101010CD047
:103D80009CF80140202C7FD0994206D01CF8022FCD
:103D9000203A18BF01229C45E6D1A54901AA06F0A8
:103DA00033FE0446002800F08180A24906F0F6FDAB
:103DB000002800F00F81012D40F3B1809C490020C4
:103DC00001AA06F021FE9C49044606F0E7FD002802
:103DD00070D12046994906F0E1FD002800F0A48149
:103DE000974806F039FC974806F036FC944806F0F0
:103DF00033FC954806F030FC944806F02DFC9248C0
:103E000006F02AFC924806F027FC924806F024FCB3
:103E10008D4806F021FC904806F01EFC8F4806F005
:103E20001BFC894806F018FC8D4806F015FC8D48EF
:103E300006F012FC844806F00FFC8B4806F00CFCE0
:103E40008A4806F009FC8A4806F006FC894806F014
:103E500003FC894806F000FC884806F0FDFB884812
:103E600006F0FAFB874806F0F7FB874806F0F4FBFC
:103E7000754806F0F1FB724806F0EEFB834806F049
:103E8000EBFB0CE0002286E7994286D01CF8021F6B
:103E900020297FF46FAF7EE77D4806F0DDFB7D488B
:103EA00006F0DAFB00200BB0BDE8F0837A4806F09C
:103EB000D3FBF4E7624806F0CFFB624806F0CCFB88
:103EC0005F4806F0C9FB604806F0C6FB734806F081
:103ED000C3FB5D4806F0C0FB5D4806F0BDFB7048C3
:103EE00006F0BAFB584806F0B7FB5B4806F0B4FB97
:103EF0006C4806F0B1FB544806F0AEFB584806F09B
:103F0000ABFB694806F0A8FB4F4806F0A5FB5648F6
:103F100006F0A2FB654806F09FFB6548A6E7484807
:103F200006F09AFB474806F097FB454806F094FBDD
:103F3000454806F091FB5F4806F08EFB424806F0CC
:103F40008BFB5D4806F088FB5C4806F085FB5C480F
:103F500006F082FB5B4806F07FFB5B4806F07CFBCB
:103F60005A4806F079FB5A4806F076FB594806F0A5
:103F700073FB594806F070FB584806F06DFB584833
:103F800006F06AFB574806F067FB574806F064FBEB
:103F9000564806F061FB564806F05EFB554806F0B1
:103FA0005BFB554806F058FB544806F055FB544857
:103FB00006F052FB534806F04FFB534806F04CFB0B
:103FC000214806F049FB514806F046FB1C4806F024
:103FD00043FB64E720464E4906F0E0FC00287FF4EE
:103FE000EAAE20464B4906F0D9FC00287FF4E3AE48
:103FF0002046494906F0D2FC074600287FF4DBAE94
:104000002046464906F0CAFC8046002800F00A8196
:10401000022D00F0DA80424806F01EFB3FE77FF4F5
:10402000BCAE404806F018FB39E70170F9E700BF65
:1040300088650108B8650108D4650108746701083E
:10404000DC6501081C660108006201087C67010844
:1040500058660108906701089C660108CC67010852
:10406000C0660108E0670108146701082C680108B0
:104070004C6801085C6801087C6801088C680108CC
:10408000AC680108BC680108E8680108B86A010862
:1040900070650108008801088C6501084866010800
:1040A00068660108A4660108CC660108206701085B
:1040B000646701080C6B0108B06B0108BC6B010858
:1040C000306C0108B86C0108E46C0108346D01081B
:1040D000846D0108D46D01082C6E0108986E0108EA
:1040E000C06E0108EC6E01084C6F0108B46F010846
:1040F000007001084470010870700108C870010860
:10410000207101088C710108D87101080C72010836
:10411000C0650108C8650108D0650108FC68010890
:104120002C720108846501082046914906F036FC8E
:10413000002846D08F4806F08FFA8F4806F08CFA98
:104140008C4806F089FA8D4806F086FA8C4806F00D
:1041500083FA8A4806F080FA8A4806F07DFA8A488F
:1041600006F07AFA854806F077FA884806F074FA7D
:10417000874806F071FA814806F06EFA854806F025
:104180006BFA854806F068FA7C4806F065FA8348C1
:1041900006F062FA824806F05FFA824806F05CFA9E
:1041A000814806F059FA814806F056FA804806F030
:1041B00053FA804806F050FA7F4806F04DFA7F48DF
:1041C00054E67F4806F048FA58E638467D4901AA89
:1041D00006F01AFC03780446002B3FF460AE051D80
:1041E000413B232B13D8DFE803F041393129121268
:1041F000121212121212121212121212121212129F
:1042000012121212121212121212413931296E4870
:1042100006F022FA14F8013F002B3FF440AEA5420D
:10422000DED13CE62046694906F0B8FB00284ED0B6
:10423000022D1FD0664806F00FFA30E6654806F0FA
:104240000BFA0021442003F0CBFDE3E7624806F0BF
:1042500003FA0021432003F0C3FDDBE75F4806F0CB
:10426000FBF90021422003F0BBFDD3E75C4806F0D8
:10427000F3F9CFE74046534901AA06F0C5FB03789E
:104280000446002B3FF40BAE051D413B232B13D8F6
:10429000DFE803F03E36422E1212121212121212F0
:1042A00012121212121212121212121212121212EE
:1042B000121212123E36422E434806F0CDF914F87F
:1042C000013F002B3FF4EBADA542DED1E7E52046F0
:1042D000444906F063FB002800F0B180012D00F096
:1042E000A680AE1E012E1FD93F4806F0B5F9D6E5CF
:1042F0003E4806F0B1F90121442003F071FDDEE7EC
:104300003B4806F0A9F90121422003F069FDD6E7F8
:10431000384806F0A1F9D2E7374806F09DF90121A7
:10432000432003F05DFDCAE7264901AA002006F0FC
:104330006BFB06F0B9FAB0F5006F80F098802F4F54
:10434000022D386000F08A801E4901AA002006F084
:104350005BFB064606F016FBC107044600F18B80A6
:10436000102800F288803546DFF8948050E000BFC6
:10437000FC680108DC6501081C6601080062010890
:104380000469010858660108186901089C6601085B
:1043900054690108C06601086869010814670108CA
:1043A000B4690108D4690108E8690108086A0108CC
:1043B0001C6A01083C6A0108506A01087C6A01080D
:1043C000906A010888650108347301087467010860
:1043D0005C73010810730108EC720108C8720108CF
:1043E0007C720108347401085474010810740108C7
:1043F000C8730108AC730108EC7301083839032055
:1044000030390320284606F02BFA023508F8010B54
:10441000AB1B9BB29C42F5D8601CC0F3470006F072
:1044200081FA0346AC48FB6006F016F937E54FF019
:10443000FF32AA4BAA481A6006F00EF92FE5204673
:10444000A84906F0ABFA002861D0012D52D0AE1E6B
:10445000012E14D9A44806F0FFF820E5002006F04C
:1044600061FA0346A148FB6006F0F6F817E5A0489C
:1044700006F0F2F813E59F4806F0EEF80FE59E49C6
:1044800001AA002006F0C0FA06F00EFAB0F5006F9F
:1044900080F0AB80994F022D386000F09D800DF0C8
:1044A0002DFD28210DF02CFD01AA9349002006F0D6
:1044B000ABFA064606F066FAC2070446DBD41028BB
:1044C000D9D83546DFF89C8205E0284606F0C8F9C1
:1044D000023508F8010BAB1B9BB2A342F5D3601C5D
:1044E000C0F3470006F01EFA03468548FB6006F05D
:1044F000B3F8D4E44FF0FF32804B82481A6006F0E4
:10450000ABF80DF0FBFC18210DF0FAFCC7E42046D7
:104510007D4906F043FA10B3032D03D07B4806F023
:104520009BF8BCE4744901AA002006F06DFA7249B8
:10453000054601AA002006F067FA0A21002206F0CB
:1045400097FA73490446284606F028FAA0B1714B41
:1045500071485C6106F080F8FFF768F99FE4204637
:104560006E4906F01BFA0746002842D0032D0FD0F3
:104570006B4806F071F892E428466A4906F00EFA94
:10458000002843D0634B6848DC6106F065F8E3E738
:104590005949002001AA06F037FA6449044606F09A
:1045A000FDF9002874D040F2DF7401AA52490020BE
:1045B00006F02AFA054606F0E5F9421E92B20D2AE7
:1045C000034661D8DB075FD420462946FFF75CFB32
:1045D000574806F041F862E4002006F0A3F90346CC
:1045E0005448FB6006F038F859E4534806F034F8B4
:1045F00055E42046514906F0D1F90646002851D02D
:10460000022D10D04E4806F027F848E428464D49C0
:1046100006F0C4F9002800F0BD803E4B4A481C62F9
:1046200006F01AF898E73846334901AA06F0ECF983
:10463000451E041D15F8012FA2F12A03002A3FF49C
:104640002EACA5423FF42BAC1A2B00F20E81DFE812
:1046500013F003010C010C010C010C010C010C0105
:104660000C010C010C010C010C010C010C010C01E2
:104670000C010C010C010C010C010C010C010C01D2
:104680008B00390098008F00304805F0E5FF06E404
:1046900020462F4906F082F9002800F0868040F27B
:1046A000E17482E720462B4906F078F90746002896
:1046B00000F00281022D00F0DC80274805F0CCFFDD
:1046C000FFF7EDBB254805F0C7FF40F2E170244934
:1046D000FFF7DAFAAEE700BFD874010838390320D3
:1046E0003C7401080475010828750108A0740108CC
:1046F0007C740108C0740108886501080C39032026
:104700009C7501080C750108C4750108C87501087D
:104710002863010840270320E47501082877010871
:104720002C770108FC7501080476010868770108F8
:10473000007801087C75010850750108147801089B
:104740001C7801081876010820760108D477010842
:104750006C770108CC780108D478010890780108BA
:104760005C78010804390320964805F075FF61E77D
:10477000954805F071FF40F2E3709449FFF784FA21
:1047800058E7934805F068FF40F2E2708F49FFF761
:104790007BFA4FE728468F4906F000F968B18E4B47
:1047A0008E489C6105F058FFD6E620468C4906F0FD
:1047B000F5F880B140F2E274F7E62846894906F040
:1047C000EDF880B1003C18BF0124834B86481C746F
:1047D00005F042FFC0E62046844906F0DFF880B1CC
:1047E00040F2E374E1E62846814906F0D7F890B13B
:1047F000003C18BF0124784B7E485C7405F02CFF08
:10480000AAE620467C4906F0C9F890B17B4805F03D
:1048100023FF0024C9E62846794906F0BFF860B1B5
:10482000003C18BF0124774B77481C7005F014FF3B
:1048300092E6764805F010FFEBE72846744906F04B
:10484000ADF8002872D0002C69D1724805F004FF41
:104850000222614BDA607FE66F4805F0FDFE40F210
:10486000DF705A49FFF710FAE4E6684805F0F4FEF5
:10487000E0E63046694901AA06F0C6F8451E041D67
:1048800015F8012FA2F12A03002A3FF408ABA54234
:104890003FF405AB1A2B3ED8DFE803F0343D3D3D35
:1048A0003D3D3D3D3D3D3D3D3D3D3D3D3D3D3D3D38
:1048B0003D3D3D30274C1E002046594906F06EF81C
:1048C0000646002867D0012D5AD0022D3BD055480E
:1048D00005F0C2FEFFF7E3BA534805F0BDFE40F213
:1048E000E3705249FFF7D0F9CAE7514805F0B4FE2A
:1048F00040F2E1704D49FFF7C7F9C1E7314805F0D3
:10490000ABFEBDE74B4805F0A7FE40F2DF7047491C
:10491000FFF7BAF9B4E73D4805F09EFEB0E7464818
:1049200005F09AFE00222C4BDA6015E6434805F0AC
:1049300093FE11E6424805F08FFE40F2E2703B49DB
:10494000FFF7A2F99CE73549384601AA06F05CF862
:104950003C49044606F022F888BB20463A4906F056
:104960001DF838B3394C3A4802F0F4FA214640F2C7
:10497000DF70FFF789F9374805F06EFEFFF78FBA51
:10498000354A334B12689A420CBF3448344805F01C
:1049900063FEFFF784BA2046324905F0FFFF074661
:1049A000002800F08D80012D66D02F4805F054FEC0
:1049B000FFF775BA2D4805F04FFEFFF770BA2C4C83
:1049C0002C48D1E768780108B87801085C780108BC
:1049D000A4780108347601084027032038760108BE
:1049E000707701084C760108587601087477010841
:1049F0008076010890760108787701087C770108B5
:104A0000AC760108B8030320B8760108B077010836
:104A1000D8760108DC760108387801088865010835
:104A2000807901086471010860790108147901082E
:104A300020790108EC780108F87601081077010860
:104A400040790108DC790108E4790108586501081A
:104A500024BA0108207A01080C0103208C7901088E
:104A6000B4790108447A0108507A0108EC79010808
:104A70006465010838BA010801AABB49304605F04F
:104A8000C3FFBA4805F0E8FD304603F0E3F93220F1
:104A90000DF058FA2946422003F0A2F905F008FD6E
:104AA0000DF050FA2946432003F09AF905F000FD75
:104AB0000DF048FA2946442003F092F9FFF7EFB9C8
:104AC0002046AB4905F06AFF30B1022D20D0A9483D
:104AD00005F0C2FDFFF7E3B92046A74905F05EFFE8
:104AE000002800F0C580012D40F3BD8000209E49C4
:104AF00001AA05F089FF044600283FF4D0A99F4988
:104B000005F04CFFE0B19E4805F0A6FDFFF7C7B9E0
:104B10003846954901AA05F077FF451E041D15F892
:104B2000012FA2F14103002A3FF4B9A9A5423FF4A5
:104B3000B6A9032B00F24683DFE803F0912D240B86
:104B40002046904905F02AFF60B1FDF79FFAFFF774
:104B5000A6B98D4805F080FD40F2E3708B49FFF760
:104B600093F8DCE720468A4905F018FF0646D8B1DD
:104B7000884805F071FDFDF749F9874805F06CFD9F
:104B8000FFF78DB9854805F067FD40F2E2707F4977
:104B9000FFF77AF8C3E7824805F05EFD40F2E17066
:104BA0007A49FFF771F8BAE720467E4905F0F6FE2C
:104BB000002870D07C4805F04FFDFDF753F94FF405
:104BC0007A730446B0FBF3F002A903FB104405F02E
:104BD0007DFF0A210346B4FBF1F24FF02E09642554
:104BE00003F12808E84408F8209CB2FBF1F8B4FB74
:104BF000F5F54FF0200E4FF0250C0D2701FB124468
:104C000001FB18220DF12808591C58FA81F13035A2
:104C100001F8205C991C303258FA81F101F8202CFF
:104C2000DA1C58FA82F2303402F8204C1A1D58FA75
:104C300082F202F820EC5A1D58FA82F202F820CCD7
:104C40009A1D073358FA82F258FA83F302F8207C4F
:104C500002A803F8206C05F0FFFCFFF720B95348C9
:104C600005F0FAFC5BE7524805F0F6FCFFF717B9D0
:104C70002046504905F092FE00287FF434AF2046CC
:104C80004D4905F08BFE28B3022D11D04B4805F09D
:104C9000E3FCFFF704B92046494905F07FFE0646CC
:104CA00000B3484805F0D8FCFDF75CFAFFF7F7B809
:104CB0002D49002001AA05F0A7FE4349044605F04E
:104CC0006DFEE8B1012004F091FD404805F0C4FC00
:104CD000FFF7E5B820463E4905F060FEF8B1012037
:104CE000FFF7E1B820463B4905F058FE002800F0E8
:104CF000BC80032D7ED0384805F0AEFCFFF7CFB85E
:104D00002046364905F04AFE002800F0888002203F
:104D100004F06CFD2D4805F09FFCFFF7C0B820465D
:104D20002F4905F03BFE0028D9D120462D4905F03A
:104D300035FE0028D3D120462B4905F02FFE06462C
:104D40000028CCD12046294905F028FE002800F093
:104D5000A480012D00F09780022D40F3AA80244802
:104D600005F07AFCFFF79BB888650108787A01089E
:104D7000D47A0108E07A0108947B0108B86501083B
:104D8000DC7B0108A4820108507B0108207B01081C
:104D9000AC820108B0820108BC8201082C7B0108AA
:104DA000FC7A0108C4820108CC82010868780108F5
:104DB000A07B0108987B0108D465010844840108A0
:104DC000E4820108EC8201088863010894840108E8
:104DD000E4840108048301080C8301085C8901084C
:104DE000E8840108F0840108F884010800850108BE
:104DF00058850108BD4901AA304605F005FE0A2183
:104E000002AA8DF8086005F033FE9DF80830C4B2A0
:104E1000012B11D0B64805F01FFCFFF740B8204623
:104E2000B44905F0BBFD90B1032004F0DFFCB248AB
:104E300005F012FCFFF733B8B04805F00DFC204632
:104E4000FDF7E8FEAE4805F007FCFFF728B820465E
:104E5000AC4905F0A3FD00285CD0042004F0C6FC9A
:104E6000A54805F0F9FBFFF71AB82046A64905F05A
:104E700095FD002800F08980032D32D0A34805F06D
:104E8000EBFBFFF70CB8A24805F0E6FBC8200DF0DD
:104E900059F806F081FAFFF702B820469D4905F05F
:104EA0007DFD0646002843D09B4805F0D5FBFEF764
:104EB000F6BF30468D4901AA05F0A6FD451EC41C6B
:104EC00015F8012FA2F14103002A3EF4E8AFA542F4
:104ED0003EF4E5AF032B00F27981DFE803F0D04721
:104EE0003865824901AA002005F08EFD00230A21C1
:104EF00002AA8DF8083005F0BBFD9DF80830C4B259
:104F0000012B87D17D4805F0A7FB2046FDF7F8FC73
:104F1000FEF7C5BF2046814905F040FD002868D056
:104F2000052004F063FC744805F096FBFEF7B7BF5C
:104F300020467B4905F032FD002800F0B680022DA6
:104F400000F0A180774805F087FBFEF7A8BF764800
:104F500005F082FB0021432002F042FF32200CF0DA
:104F6000F1FF0121432002F03BFFA9E76F4805F064
:104F700073FB0021422002F033FF32200CF0E2FFED
:104F80000121422002F02CFF9AE72046684905F0F3
:104F900005FD08B3674805F05FFB032D13D0664895
:104FA00005F05AFBFEF77BBF644805F055FB002176
:104FB000442002F015FF32200CF0C4FF01214420F0
:104FC00002F00EFF7CE7494901AA002005F01CFD14
:104FD000FDF7CEF9FEF763BF2046594905F0DEFC28
:104FE000064698B1574805F037FBFDF701FBFEF781
:104FF00056BF2046544905F0D1FCD8B1062004F034
:10500000F5FB3D4805F028FBFEF749BF20464F4918
:1050100005F0C4FC00B3042DC1D1344901AA3046C7
:1050200005F0F2FCFCF732FD88B9354805F014FBB9
:10503000FEF735BF2046464905F0B0FCA8B1072071
:1050400004F0D4FB2C4805F007FBFEF728BF4148CD
:1050500005F002FBFEF723BF20463F4905F09EFC0A
:1050600040B1FCF73FFEFEF71ABF3C4805F0F4FAEA
:10507000FEF715BF3A4805F0EFFAFEF710BF3948C2
:1050800005F0EAFA1CE71949304601AA05F0BCFC14
:105090003549044605F082FCC8B1012004F088F9C6
:1050A000324805F0D9FAFEF7FABE2046304905F03D
:1050B00075FC002869D000F0F7FE002860D02D486C
:1050C00005F0CAFA012000F0FFFEFEF7E8BE204618
:1050D000294905F063FC002862D0284604F068F9ED
:1050E000264805F0B9FAFEF7DABE00BF8865010868
:1050F00044830108A08401089484010830830108D6
:105100003C830108A48401085883010864830108D2
:1051100008850108648601086C860108A8840108D6
:10512000E8860108F08601083C8601082886010807
:105130008C83010894830108A0830108508601082C
:10514000C0830108C8830108AC840108E483010816
:10515000B0840108E883010804840108B4840108CC
:105160000C840108DC8501088863010810870108A8
:105170007C870108848701085C890108248701086D
:10518000144805F069FAFEF78ABE134805F064FA80
:10519000204605F061FA114805F05EFAFEF77FBE81
:1051A00020460F4905F0FAFB38B1032004F000F95E
:1051B0000C4805F051FAFEF772BE0B4805F04CFAA8
:1051C000FEF76DBE094805F047FAA8E4074805F068
:1051D00043FA75E694870108A8870108BC8701088F
:1051E000A0840108388701084C870108747B0108F6
:1051F0002DE9F04703780546A3F13002012A0E4657
:105200009EB040F28F800022824FCDE90922797949
:10521000012910D00024DFF80082752BD8F8002077
:10522000CDE90B44089213D1132E00F06E810020BB
:105230001EB0BDE8F087701E295C0024692904BFF8
:105240004FF000420646752BCDE90B440892EBD097
:10525000295D2246722905EB040900F0E58000F281
:10526000458152297FD054297DD0233B562B00F213
:105270003881DFE813F0C00336013601AD03360193
:105280003601360136013601360136013601360166
:105290003601360136013601360136013601360156
:1052A00036013601360136013601360136015B0121
:1052B000420236013601A303820375036D03EE0338
:1052C0005B01E903E103C8032D04FF0313045F033B
:1052D000360136013601CF0236013601B502A7028A
:1052E000830278026E023601360136016001360112
:1052F0003601600263014403510336013403360171
:105300005B01290318030003F5022F02190236017D
:10531000C7019F0136018A013601360181017A01F8
:1053200068014F024FF4001142780A91302A00F0D0
:10533000CD804FF48010374F09907979012900F022
:10534000D98000233449722A0968CDE90B330891CA
:1053500005F1010966D063D8522A02D0542A40F0E0
:10536000C08001242246B71A092F40F2BA804FF0BC
:1053700080434FF0000A601C28440593CDF818A024
:1053800005F0A2FA049004F10900284405F062FA3D
:1053900099F800308046522B079003D14FF000530C
:1053A000D0460693404605F0B7FA053000B2B7EB99
:1053B000400F40F096800A34013EA64288BF002785
:1053C0000DD9281905F04CFA0234E4B21EAB53FA99
:1053D00087F3B44203F8400C07F10107F1D305F05D
:1053E00005F90EAC01210D4804AE05F015F9214672
:1053F0003046FEF7EDFA022800F08B8005F002F946
:105400004046049D05F088FA22460146284601F0F0
:10541000D5FD0CE7100103201000032000620108F5
:10542000742A5ED101242246B71A042F59D94FF0AD
:10543000000A601C2844CDE905AA05F035FA04905D
:10544000201D284405F006FA99F800308046722B9A
:10545000079003D14FF00053D0460693404605F025
:105460005BFA052300B203EB40039F4239D10534B8
:10547000013EA64288BF00270DD9281905F0F0F992
:105480000234E4B21EAB53FA87F3B44203F8400C83
:1054900007F10107F1D305F0A9F80EAC0121BC48D2
:1054A00004AE05F0B9F821463046FEF791FA02281D
:1054B000A4D105F0A7F802E00A200CF043FD214634
:1054C0003046FEF785FA0228F6D099E70022B14F60
:1054D0000992797901290DD0AF4B0B921B680C9280
:1054E00008930121AD4805F049F8A0E674297FF43E
:1054F000BCAE99E7721EA95C692900F030830022D6
:105500000124CDE90B220892A2E6284601F0BCFE58
:105510008DE605F077F802E00A200CF013FD214635
:105520003046FEF755FA0228F6D069E716219C4866
:1055300005F024F87BE69B4805F08EF8012194489D
:1055400005F01CF873E67822974B8DF83820D3F8D5
:1055500090050DF1390105F0A1F80D230A210EA8DF
:105560008DF8413005F00AF861E6FEF75FF9012198
:10557000874805F003F85AE6022EB2D16B78302B3B
:105580000CBF002301237B71D8E7052EA9D101268A
:10559000864CA819666105F063F90346E81CE361CF
:1055A00005F05EF92062FEF741F93146784804F0D3
:1055B000E5FF3CE67E4805F04FF840217B4806F0C9
:1055C00063FC05F05FF87B4C784806F067FC05F05B
:1055D00059F820680DF068F905F054F82068764C09
:1055E0000DF076F905F04EF820680DF05DF905F044
:1055F00049F820680DF06CF905F044F8644805F0AE
:105600002BF814E6022E7FF46CAF6B78423B022B32
:105610003FF667AF00234FF400124FF48011BB70C8
:10562000CDE90912079340F281123B7000234FF03D
:105630001409CDE90423DFF860810EAC04AE00202C
:1056400002F008FCFEF72AFAFEF7F0F864200CF0EE
:1056500079FC6878012102F0E1FB6878012102F011
:10566000BFFB48460CF06EFC02E00A200CF06AFC1E
:1056700021463046FEF7ACF90228F6D032200CF075
:1056800061FCD8F8143023B909F11409B9F5D27FB7
:10569000D5D1D8F81430002B3FF423AF01213C487A
:1056A000397004F06BFFC2E5012E7FF41AAF31466A
:1056B000374804F063FF414801F09CFE002002F0EF
:1056C000C9FB002002F0E0FB64200CF03BFC05F07D
:1056D00063FEACE5042E00F0F382092E7FF401AFE7
:1056E000681C05F0F1F803462B4A23F00043012122
:1056F0002748136504F042FF99E5022E7FF4F1AECE
:105700006B78302B00F0F782312B7FF417AF012339
:105710003B7113E7032E7FF4E4AE6878A0F14203F7
:10572000022B3FF6DEAEAB78302B0CBF00210121FF
:1057300002F056FB02E7022E7FF4D3AE6B781B4AD1
:10574000303B18BF012301211148137404F016FFE8
:105750006DE5022E7FF4C5AE6B78302B0CBF0023B5
:105760000123FB70EAE6022E7FF4BBAE6B78302B90
:105770000CBF0020012002F06DFBDFE60DF058FFAA
:10578000102840F2F6810E4804F066FF4FE500BF96
:10579000006201081001032010000320D8600108F6
:1057A00074880108448901080000FA0B402703208F
:1057B0008C880108DC370320D8370320948801083F
:1057C000A4880108022E7FF48CAE6B78303B032B4B
:1057D0003FF687AEDFE813F0C101B801B601AC01B6
:1057E00002F09AFB0F21002800F04D82C04804F01F
:1057F000C5FE0C21BF4804F0C1FE0121BE4804F0E3
:10580000BDFE0921BD4804F0B9FE0221BC4804F0E8
:10581000B5FE0CE5B31E062B3FF663AE0122002059
:10582000B84CA9182E4411F8013B00EB8000303B26
:1058300003EB4000DBB2092B8CBF002202F0010217
:10584000A0428CBF002202F001028E42EBD1002A5E
:105850003FF447AEFEF77CF800287FF442AE6DE6D9
:105860000121A94804F08AFE0123A84A3B70D360B5
:10587000FDF7DCFFDBE4092E7FF433AE681C04F097
:10588000FBFF0346A14C681D636104F0E9FF03467A
:10589000E81DE36104F0E4FF034601219A48236216
:1058A00004F06CFEC3E46A238DF8383004F000FE87
:1058B0000DF1390104F060FF0D2304210EA88DF8CD
:1058C0003B3004F05BFEB2E4022E7FF40AAE6B784C
:1058D0008E48302B00F0088206F00AF92EE6022EE0
:1058E0007FF4FFAD6B78302B00F00182312B0CBFC1
:1058F0004FF480724FF44072844B9A601EE6022E81
:105900007FF4EFAD6B78302B40F0C1810121002393
:105910007F4A1170BB7011E6022E7FF4E2AD6B7806
:10592000302B00F0F081312B7FF408AE012001F024
:105930005BFD03E6012E7FF4D4AD3146724804F0DE
:105940001DFE0022714B3E70DA60FDF76FFF6EE4C2
:105950004623704A0DF1390110798DF83830A9E7E6
:105960000EA96A4806F056FA6946684806F07AFABF
:1059700068460EA901F0F6FC59E4674805F002F804
:10598000431C9E427FF4ADAD634804F0FBFF6249C7
:105990000246681C05F020F800287FF4A2AD012122
:1059A000594804F0EBFDC8200CF0CCFA02F09AFC48
:1059B000002840F0AC8102F0E1FC92E5012E7FF47A
:1059C00090AD0023314650483B7004F0D7FD2EE4E3
:1059D000062E7FF486AD05225049681C04F0B4FF02
:1059E000002840F08B814E4804F036FE01214648E5
:1059F00004F0C4FD1BE4012E7FF473AD494804F0AC
:105A00002BFE304614E4072E7FF46BAD681C04F0C7
:105A100027FF03463D4CE81C636204F021FF034668
:105A2000681DE36204F01CFF03460121364823632E
:105A300004F0A4FDFFF7FBBB4A238DF8383004F0D7
:105A400045FD0DF1390186E5324801F06BFCFFF7A9
:105A5000EEBB032E00F04281052E7FF442AD681CA0
:105A600004F0FEFE0346294CE81CA36104F0F8FE96
:105A7000A06263E5042E00F01581092E7FF431AD9C
:105A8000681C04F021FF0346224A23F00043012151
:105A90001D48D36404F072FDFFF7C9BB4E23224DAD
:105AA000224E0DF139048DF8383015F8040B2146DB
:105AB00004F062FEB54204F10204F6D119210EA8E9
:105AC00004F05CFD0121104804F058FDFFF7AFBB66
:105AD000012E7FF406AD31460B4804F04FFD022243
