:020000040800F2
:1000000000000420F52B0008712A0008752A00085A
:10001000792A00087D2A0008812A0008452C00085A
:1000200000000000000000000000000031CA0008CD
:10003000852A000800000000C1C900085DA2000870
:10004000452C0008452C0008452C0008452C0008CC
:10005000452C0008452C0008452C0008452C0008BC
:10006000452C0008452C0008452C0008452C0008AC
:10007000452C0008452C0008452C0008452C00089C
:10008000452C0008452C0008452C0008452C00088C
:10009000452C0008452C0008452C0008452C00087C
:1000A000452C0008452C0008452C0008452C00086C
:1000B000452C0008892A0008952A0008452C0008CC
:1000C000452C0008452C0008452C0008452C00084C
:1000D000452C0008452C0008452C0008A12A0008E2
:1000E000AD2A0008452C0008B92A0008452C000854
:1000F000452C0008452C0008452C0008452C00081C
:10010000452C0008C52A0008D12A0008452C000803
:10011000452C0008452C0008452C0008452C0008FB
:10012000452C0008DD2A0008E92A0008452C0008B3
:10013000F52A0008452C0008452C0008452C00082D
:10014000452C0008452C0008012B0008452C000810
:10015000452C0008452C0008452C0008452C0008BB
:10016000452C00080D2B0008452C0008452C0008E4
:10017000452C000800000000452C0008000000008D
:10018000192B0008452C0008452C0008452C0008B8
:10019000452C0008452C0008452C0008452C00087B
:1001A000452C0008452C0008452C0008452C00086B
:1001B000452C000800000000252B0008452C0008F5
:1001C000452C000800000000452C0008452C0008C4
:1001D000452C0008452C0008452C0008452C00083B
:1001E000452C0008452C0008452C0008452C00082B
:0401F000000000000B
:1002000010B5054C237833B9044B13B10448AFF350
:1002100000800123237010BD28010320000000008E
:1002200088CF000808B5034B1BB103490348AFF35F
:10023000008008BD000000002C01032088CF0008CA
:10024000034613F8012B002AFBD1181A0138704716
:10025000704700BF01F0D8B9F0B5274C274E9BB0CE
:100260004FF0FF332822694620680AF06BFE2828E9
:10027000F6D1039801F05EFF0546002834D1029BB9
:100280009BB929460AAA009801F01CFA0BF060FB02
:100290000AA90246684601F087FB0BF059FB0AA940
:1002A0000246684601F096F9DAE7B3F1005FF4D14F
:1002B00040F20172009B9342EFD10822039900277C
:1002C000914228BF11460D46C6E90577B760019FE8
:1002D0000B490C48C6E90037F56001F037FF30469E
:1002E000084901F017F8D8E74FF0FF332A46206895
:1002F0000AA90AF027FEC2E730260320580103208E
:100300009005FA0B4C0103202DE9F0431F4D9BB0E3
:10031000DFF8808001AE0AAF002404EBC401C4F111
:1003200024024FF0FF33286806EB81010AF00AFE31
:100330000444232CF1D9049801F0FCFE039B814670
:10034000B3F1005F00D0A0B9114803F003FF50B132
:100350003A4631460E4803F0C7FDD8F80C30013359
:10036000C8F80C30D8E74FF0FF3201210BF084FDC4
:10037000EAE70024A9EB040239194FF0FF3328689B
:100380000AF0E0FD04444C45F4D3DDE72C260320BD
:10039000D42403200000032000B583B001F06EF9DF
:1003A00000F00AFF03221849184803F045F801F04D
:1003B00019FE00F0E5FC01F071FE0BF0C9FA01F046
:1003C00003F9134807F048FA124807F00DFA124CE7
:1003D0000BF0BEFA019001F00BFE019801F064FEF3
:1003E000019800F0CFFC237813B9019801F05CFA72
:1003F000019801F0F9F8019801F0D4FA0A2101A856
:100400000BF0E6F9E4E700BF98280320C425032099
:100410000C22032074210320760003202DE9F041F3
:100420000026214DDFF88C80204FA6B012E00CF0A2
:1004300069F998F8003033B10B9B23B1642009F0BF
:10044000C5FF00F0B9FE002202231146386800966D
:100450000BF094FD4FF0FF32012100200BF00CFD5A
:100460000CF042F9124803F0CBFF044606A91048ED
:1004700003F036FE02A90E4803F05AFE5422294624
:1004800011A8AC600CF028FD094B1E66189BB3F553
:10049000003FCCD9AB689B02C9D5012385F8203039
:1004A0000B9300F031FFC2E70000032094190320F2
:1004B000D4240320480103202DE9F04385B02C4DBE
:1004C0002C4EDFF8B880DFF8B8900DF10E0705E08C
:1004D00000214FF0FF3208460BF0CEFC28680AF0EE
:1004E0003BFC0128F4D94FF0FF330222286803A90E
:1004F0000AF028FD0228EBD1BDF80C20B2F5805F90
:10050000E6D26AB10024121B31194FF0FF3328687C
:100510000AF018FDBDF80C200444A4B2A242F2D1A6
:100520000BF016FA144B3146BDF80C20009701F081
:10053000E7FEBDF80E30002BCAD039464FF0FF332E
:100540000222D8F800000AF015FCBDF80E204FF08A
:10055000FF330949D8F800000AF00CFC00220223FE
:100560001146D9F8000000920BF008FDB0E700BF7B
:1005700080010320C4CF002040BF00207C01032065
:10058000D406032070B584B01B4D02AE05E00021F7
:100590004FF0FF3208460BF06FFC28680AF0DCFBD6
:1005A0000128F4D94FF0FF33022228680DF106012B
:1005B0000AF0C8FC0228EAD1BDF80620082AE6D8CD
:1005C0006AB10024121B31194FF0FF3328680AF07A
:1005D000B9FCBDF806200444A4B2A242F2D10BF04B
:1005E000B7F93146BDF8062001F022FE0128CED031
:1005F0000A2009F0EBFEF2E77C01032001F008B8C5
:1006000001F00AB8002001F00BB800BF0022024B35
:1006100002481A6007F020B944010320C0210320DA
:10062000014B1868704700BF440103200000000020
:1006300010B59EB0482200210CA80CF0C1FB00238D
:100640004FF40070CDE90233CDE90433CDE907332F
:10065000CDE90933019306930B9305F0DBFC08B158
:1006600072B6FEE701230222169311931993179293
:1006700010231D9207229FED1E7BCDE91A32032421
:10068000042312900CA81C938DED0C7B189405F09C
:10069000FDFE034608B172B6FEE70F22214601A80F
:1006A000CDE9033305930294019205F09BFD0346C7
:1006B00008B172B6FEE7104A4FF0005C916D4BF640
:1006C0007F3441F080719165926D069302F08072E3
:1006D000009208932222202306A8CDE90A2300993C
:1006E000CDF81CC0099406F031FE1EB010BD00BF4D
:1006F000290000000000010000100240F0B595B094
:1007000072B64FF00062AA4B9A60BFF34F8F62B689
:10071000002402F099FAFFF78BFFCDE90E44CDE9F2
:100720001044A44D1294EB6C4FF4604143F0040369
:10073000EB64EB6C224603F004030793079BEB6C1E
:100740009D4843F08003EB64EB6C012603F08003CB
:100750000893089BEB6C43F00103EB64EB6C03F034
:1007600001030993099BEB6C43F00203EB64EB6C10
:1007700003F002030A930A9B04F08CF9224640F22C
:1007800001118E4804F086F9224641F2E4018C48BA
:1007900004F080F94FF4604387480EA9CDE90E3686
:1007A0001094119403F0C8FF40F2011383480EA97E
:1007B000CDE90E36CDE9104403F0BEFF41F2E4036B
:1007C0007F480EA9CDE90E36CDE9104403F0B4FF01
:1007D0004FF4007379480EA9CDE90E34109603F05A
:1007E000ABFF082377480EA9CDE90E34109403F02F
:1007F000A3FFAB6C052143F00403AB64AB6C224652
:1008000003F004030493049BAB6C1D203343AB64DF
:10081000AB6C33400593059BAB6C43F00203AB64B8
:10082000AB6C03F002030693069B02F0F7FE1D205B
:1008300002F02EFF224605211E2002F0EFFE1E20B0
:1008400002F026FF22460521502002F0E7FE50204C
:1008500002F01EFF204604F09BFC08B172B6FEE7D2
:1008600004F0AAFC034640B95748584AC0E900239F
:1008700006F094FD18B172B6FEE772B6FEE7544A70
:10088000544B1070544A4FF440711A601022996012
:100890009A619A620F2113223C2404275860D86081
:1008A0009874D8631846C3E90D661E825E615E6265
:1008B000DC61D9621A621F6303F06CF9034650BB16
:1008C0000BAD0B90CDE90E00CDE91000CDE9120083
:1008D000C5E901004FF480704FF4301C03214FF440
:1008E00080523E4CC4E90233C4E90A3384F8203014
:1008F00084F838303A4B20832046C4E90467C4F8B2
:1009000004C0E161626384F83060236002F0C0F9E2
:1009100018B172B6FEE772B6FEE70B902946204684
:1009200002F004FE08B172B6FEE706230F937F23A0
:1009300011932C4B109013900EA9204612970E93F2
:1009400002F0D4FA08B172B6FEE7274B20460E93A8
:100950000C230EA90F9302F0C9FA08B172B6FEE794
:10096000224B20460E9312230EA90F9302F0BEFADB
:10097000034608B172B6FEE71D48C0E9053383801F
:100980001C4B0662036002F0A3FE08B172B6FEE7DC
:1009900000234FF4027102221748C372174B818063
:1009A000C0F80720036004F011FC48B372B6FEE7FC
:1009B00000ED00E000100240000802420000024288
:1009C00000040242001C0242D823032000080C420B
:1009D00048010320D424032000A40040C4250320A0
:1009E00000800242400020190002B0250004002AC5
:1009F00038250320003002404C1E032000D4004064
:100A000041F63F76964C974ACDE90E00C4E90100C5
:100A10001090A06120462260E66007F00DF90346C1
:100A200008B172B6FEE720460EA90E93109307F0A8
:100A300035F9034608B172B6FEE78B4CCDE90E33AB
:100A40001093A360A36142F20F73884A2046C4E961
:100A50000023E66007F0F0F8034608B172B6FEE73F
:100A600020460EA90E93109307F018F9034608B11B
:100A700072B6FEE74F264FF6FF747D487D4AC0E907
:100A800004338360836102604660C46007F0D4F879
:100A9000034608B172B6FEE77748C0E90163C0E9D2
:100AA0000343C0E90533754B036007F0C5F808B18F
:100AB00072B6FEE74FF080414FF0FF32704C0B9062
:100AC000CDE90E00CDE91000C5E90100C4E901003F
:100AD0002061A06120462160E26007F0ADF808B116
:100AE00072B6FEE74FF4805320460EA90E9306F02F
:100AF000F1FE034608B172B6FEE7294620460B9385
:100B00000D9307F0CBF808B172B6FEE700245D4AFA
:100B100001215D4B00924FF47A602246CDE90144F9
:100B20000AF0C2F80246594D594E0121CDE901445F
:100B3000584B00964FF47A602A6022460AF0B4F8C7
:100B4000554B564A01210092CDE9014422461860D6
:100B5000534B4FF4A0400AF0A7F8524B524A0121E0
:100B60000092CDE9014422461860504B4FF4A0405A
:100B70000AF09AF84E4B186000F090FF0AF0E8FE79
:100B80004C4B4D4A4D49009500F0FAFE4C4801F09F
:100B9000BDFA4C4800F0FEFC4B484C4A4C4900F072
:100BA000F1FA0EA80E9400F06FFF20B90E9B13B956
:100BB000484800F041FF09F05FFB0021464A4748E2
:100BC00009F0AAFB0446464B0021464A46481C60F1
:100BD00009F0A2FB0446454B0021454A45481C60EC
:100BE00009F09AFB04463A4B0021434A43481C60F3
:100BF00009F092FB0446424B0021424A42481C60E5
:100C000009F08AFB0446314B0021404A40481C60F1
:100C100009F082FB0446294B00213E4A3E481C60F5
:100C200009F07AFB04463D4B00213D4A3D481C60DB
:100C300009F072FB04463C4B00213C4A3C481C60D6
:100C400009F06AFB04463B4B00213B4A3B481C60D1
:100C500009F062FB3A4B186009F030FBFEE700BF79
:100C6000C0210320001400400C220320001000408B
:100C70007421032000440140282103200048014042
:100C800058220320F8010320A0AF00208001032098
:100C9000D401032000A000207C010320B001032028
:100CA00000500020302603208C010320000000208B
:100CB0002C2603208401032088010320840B0320B9
:100CC000D823032038250320D42403203410032004
:100CD000941903200400634594D1000855020008CC
:100CE000481E032070D1000859020008441E03204A
:100CF0004CD100080903000828D100089903000816
:100D0000E414032004D100081D040008E0D000080A
:100D1000B9040008BCD0000885050008D4060320EB
:100D200098D00008FD0500082402032074D00008B4
:100D3000010600082002032050D000080506000824
:100D40001C020320094A0368934206D0084A9342D2
:100D50000AD0084A934205D07047074A1368013306
:100D60001360704700F048BC01F080BF00140040E1
:100D7000002C0140001000404401032072B6FEE741
:100D8000704700BF70B50E4D0E4C2B6820891B6854
:100D90000D491B6B80B298472B68208A0A4E1B684E
:100DA00006F174019B6E80B298472B68208B1B68FC
:100DB00006F1E8019B6F80B2BDE87040184700BFA4
:100DC0007C00032054000320542703200870704740
:100DD00000787047030A08704B707047012994BF70
:100DE00000780088704700BF034600B583B008460E
:100DF0005BBA02220DF10601ADF8063001F0A6F94A
:100E000003B000BD8446002310B50C4682B00DF13E
:100E1000060002226146ADF8063001F097F9BDF8F0
:100E20000600012C98BFC0B240BA80B202B010BD1B
:100E3000002300B5012983B0ADF8063002D818466A
:100E400003B000BD014602220DF1060001F07EF95B
:100E50009DF8060003B000BD007870470078704729
:100E600000787047007870470078704708707047C6
:100E700008707047087070470870704708707047B6
:100E8000030A08704B707047012994BF00780088EE
:100E9000704700BF034600B583B008465BBA022224
:100EA0000DF10601ADF8063001F050F903B000BDB8
:100EB000034600B583B008465BBA02220DF1060175
:100EC000ADF8063001F042F903B000BD034600B5AD
:100ED00083B008465BBA02220DF10601ADF8063078
:100EE00001F034F903B000BD034600B583B00846F5
:100EF0005BBA02220DF10601ADF8063001F026F9C9
:100F000003B000BD034600B583B008465BBA0222B9
:100F10000DF10601ADF8063001F018F903B000BD7F
:100F2000034600B583B008465BBA02220DF1060104
:100F3000ADF8063001F00AF903B000BD034600B574
:100F400083B008465BBA02220DF10601ADF8063007
:100F500001F0FCF803B000BD8446002310B50C4638
:100F600082B00DF1060002226146ADF8063001F0B4
:100F7000EDF8BDF80600012C98BFC0B240BA80B2AF
:100F800002B010BD8446002310B50C4682B00DF1AE
:100F9000060002226146ADF8063001F0D7F8BDF830
:100FA0000600012C98BFC0B240BA80B202B010BD9A
:100FB0008446002310B50C4682B00DF106000222D3
:100FC0006146ADF8063001F0C1F8BDF80600012C0D
:100FD00098BFC0B240BA80B202B010BD84460023B0
:100FE00010B50C4682B00DF1060002226146ADF844
:100FF000063001F0ABF8BDF80600012C98BFC0B276
:1010000040BA80B202B010BD8446002310B50C4631
:1010100082B00DF1060002226146ADF8063001F003
:1010200095F8BDF80600012C98BFC0B240BA80B256
:1010300002B010BD8446002310B50C4682B00DF1FD
:10104000060002226146ADF8063001F07FF8BDF8D7
:101050000600012C98BFC0B240BA80B202B010BDE9
:101060008446002310B50C4682B00DF10600022222
:101070006146ADF8063001F069F8BDF80600012CB4
:1010800098BFC0B240BA80B202B010BD002300B514
:10109000012983B0ADF8063002D8184603B000BD70
:1010A000014602220DF1060001F050F8BDF80600DD
:1010B000000A03B000BD00BF012918D9037803F06E
:1010C0000302012A17D003F00C02042A15D003F002
:1010D0003002102A0DD003F0C003402B0FD043780C
:1010E00003F00303012B0CBF0620012070470020F2
:1010F0007047052070470220704703207047042086
:10110000704700BF4FF08041022201232DE9F041DA
:10111000174C0025C4E91123164E174FDFF86080E5
:10112000E16311E0D8F800202365937C003B18BFF1
:10113000012312493868A36402F016FE78B96B1CCB
:10114000022B4FF0010511D056F8043B2564E364EF
:10115000002BE7D06FF0604201232265E9E7FFF73B
:101160000DFE6B1C022B4FF00105EDD1BDE8F081A7
:101170000000032040D20008242703203C00032065
:101180007C00032038B50C46064D0749074B0A6022
:101190002860074901201C6009F026FB054B1860F8
:1011A00038BD00BF242703201C270320202703204D
:1011B0003426032084260320F0B54D4E83B03068DA
:1011C00002F07CFE306802F0E5FC00286FD10022BE
:1011D000484D402148482A71EA602A616A61AA6143
:1011E000AA60EA6185F8202003F054FC306802F020
:1011F00065FE062202233068C0E90D2302F0CAFC16
:10120000002871D100240222012340F2FF71C5E9B8
:101210000B233A4FA9636C6202E00134062C0ED016
:1012200037F8023B36493068AC626B6302F09CFDD4
:101230000028F2D00134FFF7A1FD062CF0D1FFF712
:1012400061FF0023022230681146009302F0B8FDCE
:10125000002846D1306802F0D5FD00283ED100229A
:101260000121306802F07CFFA8BB00220621306813
:1012700002F076FF60BB07224FF4F051306802F0B5
:101280006FFF10BB07228021306802F069FFC8B9E8
:1012900000221C49306802F063FF80B900224FF43D
:1012A0006021306802F05CFF20B903B0F0BDFFF7A9
:1012B00065FD8CE703B0BDE8F040FFF75FBDFFF7C9
:1012C0005DFDEBE7FFF75AFDE2E7FFF757FDD9E7D2
:1012D000FFF754FDCFE7FFF751FDC6E7FFF74EFDDF
:1012E000BDE7FFF74BFDB5E7FFF748FD8AE700BF15
:1012F00024270320000003200004024248D20008F3
:101300002400032000407100014B186802F0D6BD94
:10131000242703202DE9F047054682B0C0680F4618
:1013200000F008FFAB68B3F1005F3ED0064682468E
:1013300000F12409264C4FF0FF31206809F012FB20
:101340000128F8D1DFF89480D8F8000009F0F0FC0B
:10135000484517D202251F4A13792B4313710023E6
:1013600020681A46194609F0A3F91B4A022312689D
:1013700010680022114600920AF000FE284602B0D2
:10138000BDE8F08729464FF0FF332422D8F800004B
:1013900009F0F0FC054686B94D450CD00D4A0125F3
:1013A000137943F008031371D9E74FF0000A4FF0A7
:1013B00024095646BEE70025D1E7524639464FF08C
:1013C000FF33D8F8000009F0D5FC0544E4E700BF7E
:1013D0008426032000000320202703202C2603203E
:1013E0002DE9F04700250C4682B0C9070646019555
:1013F00016D4A20707D50221314A137943F001031D
:10140000137133681965630738D4019B2BB14FF012
:10141000E0234FF08052C3F8042D02B0BDE8F087FE
:10142000DFF8A890DFF8988040214A46254B02F06B
:10143000BDFDD8F81430D9F80C000133C8F81430C9
:1014400000F078FEDFF888A00746DAF8000009F01F
:101450006FFC07F12803984224D349462822DAF882
:10146000000001AB09F020FD002FC2D03A46DAF8A7
:101470000000144901AB09F017FDBAE70424104B32
:1014800011499A69086801329A611A79002142F07B
:1014900008021A71336800680DEB04021C650AF03B
:1014A0008DFEB2E7D8F8183029460133C8F8183055
:1014B000054B01AA1B6818680AF080FE99E700BF77
:1014C00000000320DC2603201C270320B426032071
:1014D00030260320002110B50A4A0B4C12682369FC
:1014E00082B01068013301AA236101910AF066FEFF
:1014F000019B2BB14FF0E0234FF08052C3F8042D35
:1015000002B010BD2027032000000320002110B5E9
:101510000A4A0B4C1268E36982B01068013301AAD1
:10152000E36101910AF04AFE019B2BB14FF0E023E9
:101530004FF08052C3F8042D02B010BD1C270320C9
:101540000000032038B50C46104D294602F0C8FDB6
:10155000A10303D5EB68A3B90D4A1360620309D553
:101560002B690B4A012B13790CBF43F0040303F0E2
:10157000FB031371230303D50122054B83F82020BD
:1015800038BD4FF00042024B1A60E7E7882603207F
:1015900000000320704700BF91B14FF0FF3210B43C
:1015A000084C014410F8013B5340DBB254F823309F
:1015B000884283EA1222F5D1D0435DF8044B70478C
:1015C0000846704754D200080022014B1A60704749
:1015D0002C270320034B1B689B7C03B9704700F04A
:1015E000BDBA00BF7C000320024A136801331360B8
:1015F000704700BF2C270320024A13680133136091
:10160000704700BF2827032000200AF06BB800BFF6
:1016100000200AF067B800BF00200AF063B800BFDE
:1016200000200AF05FB800BF124B1B681989F9B19E
:1016300030B400245B68104A03EB4111D3E9005039
:10164000C2E900509D6898699561DD682033556155
:1016500053F8105C8B42C2E9024553F80C5C02F16E
:10166000740242F8105C42F8040CE7D130BC7047B9
:10167000704700BF7C0003203027032070B5002591
:101680000D4B0E4A1B6815709C7C0D4B641B18BFDC
:101690000124644203F5AE76E4B2184608222146DE
:1016A0000BF08EFB03467433B342C0E91155F4D1FD
:1016B000BDE87040FFF7B8BF7C0003207600032030
:1016C0005427032000293CD0F0B5744B83B01D682B
:1016D000AF7C6FB906462C8A44B1EB6803EBC40CAF
:1016E0001C68B4420FD008336345F9D103B0F0BD94
:1016F000C0F30743EF2B4FEA1024C0F31126EAD8BA
:10170000674E2640E7E71C79E7B1B6F56F4F49D041
:101710004FF6D4539E4266D04FF602739E4200F0BD
:10172000AD800F2C10D12B681046DB6F00929847CC
:10173000009A137803F00303032BD7D0594B188377
:10174000D4E77047082C3BD02B68104603EBC4034A
:101750005B689847102CC9D801A353F824F000BF48
:10176000091800083D180008431800084918000827
:101770004F180008551800085B1800086118000889
:1017800067180008211800082918000831180008F7
:1017900037180008151800081B1800083D17000826
:1017A0000F180008C0F30720132860D05A289DD1D5
:1017B0002B6810465B6D98473A4AC3B2D37595E7DC
:1017C0002B6810465B6C0091019298470099354C4C
:1017D000C0B20129207389D0019A1046FFF756FC48
:1017E00084F8200082E7C3B2212B4ED05A2B7FF41D
:1017F0007DAF2B681046DB6C9847C3B2032B3FF4D8
:1018000075AF284A937571E7264B58806EE7254BD4
:10181000D8836BE7234B188268E7224B988365E7F0
:10182000204BC0B2987561E71E4BC0B2D8755DE71A
:101830001C4B58835AE71B4B588257E7194B1880AB
:1018400054E7184BD88051E7164B98804EE7154B5C
:1018500098824BE7134B588148E7124B188145E7B4
:10186000104BD88142E70F4BC0B218733EE72B688C
:101870001046DB6A98470B4B588137E71046FFF755
:101880001BFC084B83F8200030E72B6810465B6F89
:101890009847044AC3B2938328E700BF7C00032023
:1018A00000FF030054000320314B1B78002B5DD157
:1018B0002DE9F04FDFF8C4A003F0FF05DAF800309F
:1018C00083B01B89002B4ED02A4F06463C464FF072
:1018D000740908E0DAF8003001351A89ABB29A428F
:1018E00004F174043FD9E36E626EF31A9342F1D3AC
:1018F000B4F9703009FB05FB002B0DDBB4F8682050
:101900000BF1240052BA00EBE300ADF80420384498
:10191000022201A900F01AFCB4F9721004F12408A3
:1019200000294FEAE10112DB4046FFF735FEB4F92A
:1019300072200190002AB8BF07320BF1240000EB9F
:10194000E200042238440DEB020100F0FFFB0A4BD9
:1019500041461A6820462261FFF7DCFCA36EE6666A
:101960000133A366B6E703B0BDE8F08F704700BF50
:101970007600032030270320000003207C00032092
:1019800010B5029C054A064B14600446196000F02D
:1019900025F8204600F02CFC002010BD8C280320E8
:1019A0009028032000F030BC00B50A4B83B01B68C0
:1019B00000F054FC012801D003B000BD002206490C
:1019C000022309680868114600920AF0D7FA03B0AA
:1019D00000BD00BF8C2803209028032000B583B0F1
:1019E000102001A900F086F808B903B000BD00215D
:1019F000102000F067F8003818BF012003B000BDC8
:101A000070B5002682B004460D46102001A901964B
:101A100000F070F810B9019BA34202D8012002B077
:101A200070BD04F11100294680B200F063F8801BFC
:101A300018BF012002B070BD002210B5114B82B05A
:101A40001B78019213B9184602B010BD044601A9D3
:101A5000102000F04FF840B901981130FF2804D849
:101A6000214680B200F02EF818B10123184602B0CA
:101A700010BD01991020013100F024F8031E18BF99
:101A80000123E0E777000320014608B5102000F0AD
:101A900031F8003818BF012008BD00BF10B502F0B2
:101AA000B1FC002007F0B8FC044618B902F0BEFCF7
:101AB000204610BD002007F07DF802F0B7FC20465C
:101AC00010BD00BF38B504460D4602F09BFC204611
:101AD000294607F049FFC305044603D402F0A6FCDB
:101AE000204638BD07F040F90443A4B202F09EFC42
:101AF000204638BD07F09ABA830F032BC0F30D4080
:101B000020D0012B0ED0B3B9B0F5B97F21D01F235F
:101B10005FFA80FC000A012281F800C048708B70D7
:101B2000CA70704740F263539842F0D102204FF0E0
:101B3000740C0D23EFE79128E9D10B204FF0380CFE
:101B40000223E8E72928E2D102204FF07F0C092385
:101B5000E1E70B204FF0EF0CDDE700BF2DE9F04F80
:101B6000456893B0B5F1804F02D013B0BDE8F08F57
:101B70000668C068C6F307470C4600F0DBFAEA2F98
:101B8000C6F3072832D0EC2FEFD1B8F1130FECD108
:101B90000728EAD92378102BE7D1E3793002C54929
:101BA000A27980B20143647908201B0443EA02232E
:101BB000234300224FF0FF34099123FA00F18DF8FE
:101BC00021308DF822101B0C0C9007A909A8CDE933
:101BD0000D22CDE90F220A958DF823300B92119238
:101BE00007948DF82040FFF795FBBEE70228BCD98B
:101BF000B8F1FF0F23D0B8F1130FB6D1A3786178F5
:101C000022781B0443EA01231343B3F56E4F40F0DF
:101C1000C480A94A33029BB21A4300234FF0804587
:101C20000824A64909A8CDE90A53CDE90C43CDE91A
:101C30000E33CDE910330992FFF76CFB95E7A378DB
:101C4000617822781B0443EA01231343B3F56E4FF6
:101C500000F02E814FF6C552934200F0CB804FF634
:101C6000CA62934281D14FF0000904A8CDF81090C8
:101C7000FFF70AFF924B049AB3F81EA0012ACAF399
:101C8000400A4FEA8A1A4AF03F0A5FFA8AF440F2A1
:101C90002981920002321FFA82FA8A4B0AF1060168
:101CA000A3FB0103C91A03EB5103C3F387074FF0EA
:101CB000804385490A930991082120230C91834987
:101CC00007AA08910DF1240B4FEA1A218DF81E1076
:101CD000584611468DF81C301546CDE90D99CDE9D1
:101CE0000F99CDF82C90CDF844908DF81DA08DF86B
:101CF0001F70FFF70FFB764B0993002F3FF435AFB2
:101D0000CDE9027B4FF00108A3460DF1230608221E
:101D1000FF21284600F016FA334656469A4608F147
:101D2000FF34C4EBC4048DF81C80A4B20195A64214
:101D30001ADDA3B243B3012B2DD0A7B2023F05A9F0
:101D4000B810CDF8149007F00307FFF759FE059877
:101D500006A9FFF7D1FE0DEB07031B7E05F8013F37
:101D6000AA4504F10104E2D15346019D0398294696
:101D7000B24608F101081E46FFF7CCFA029B5FFA53
:101D800088F84345C3D2F0E605F801BFAA4504F13F
:101D90000104CED1E8E7FF23E0E74FF6C5529342B6
:101DA00028D04FF6CA6293423FF45DAF0827002265
:101DB000FF240A956FF0FE0506FA07F0454980B248
:101DC0000143099123FA07F18DF821308DF8221093
:101DD0001B0C07A909A8CDE90B27CDE90D22CDE9F8
:101DE0000F228DF82330119207958DF82040FFF7D0
:101DF00091FABAE6384800F0B5F900224FF0804178
:101E00000824314DCDE90A12099505462021CDE976
:101E10000C42CDE90E22CDE91022304A294B08921E
:101E2000AA1D8DF81C10A3FB0213D21A07A803EBFE
:101E3000520325FA04F10DF1240BC3F387088DF842
:101E40001E100746014658468DF81D508DF81F801C
:101E5000FFF760FA1E4B0993B8F1000F3FF485AE0F
:101E60000124DFF874900DF12306A4EB090A08227F
:101E7000FF21384600F066F93A46631EC3EBC30300
:101E80009BB2013B8DF81C404B440AEB03018D4291
:101E900005DD13F8011F02F8011F9642F5D1013448
:101EA00039465846E4B2FFF735FAA045DFD25CE682
:101EB0000B4AB2E61300EC1C1300EE186CD60008B7
:101EC000540003202549922413FFEC1CFFCAFE0096
:101ED00013FFEB1C1300E81854D60008FFC5FD00E3
:101EE00013FFEE1808224FF0804316490C92099117
:101EF00007A908460D46FF210A93CDE90D99CDE9C2
:101F00000F99CDF82C90CDF8449000F01BF9FF22EA
:101F1000049B8DF81C40012B8DF81D2006D0CDF8B8
:101F20001E90294609A8FFF7F5F91EE606A94846BE
:101F3000CDF81890FFF764FD06980DF11E01FFF72C
:101F4000DBFDEEE713CAFE18814211D9B0F1005F44
:101F500010D31A4B994219D9194B984208D91948EC
:101F600081428CBF002001207047B0F1006F15D274
:101F700000207047144B98420AD8144B9842F4D969
:101F8000134881428CBF0020012070470120704718
:101F9000104881428CBF0020012070470E4B9942AF
:101FA000E6D80E4BB3F8E030B3F5007FEED00C4826
:101FB00081428CBF00200120704700BF0000042038
:101FC0003F20024040210240FFFFF90BFFFFF80BCA
:101FD0000080F90B0002FA0B000008080005FA0B5C
:101FE000000004080022014B1A6070479428032067
:101FF00010B4264C2388002B3FD0B3F57B6F41D221
:1020000040F6FF71224AC3EB0333A2FB0323A1EB8B
:10201000D32189B2B4F802C0A388BCF5E06F34BF05
:102020004FF0000C4FF0010C1A4AB3F5306F1180DD
:1020300082F802C013D2B3F5E06F21D2B3F5407F2E
:1020400022D2B3F5807F8CBF00230123D1789B007F
:10205000994208D1104B18605DF8044B704701237A
:10206000D1789942F6D00C4C2168411AFA29F3D95B
:10207000D37020605DF8044B704740F6FF71C9E7EC
:102080000223EDE70021C5E70323E9E798280320B1
:10209000BFBF8C8278000320942803200022014BCC
:1020A0001A7070479E280320154B164A1B7810881B
:1020B00091787BB16FF4FC63C3183E2B124B14D99B
:1020C0001881188B60F0FF0080B2188321B9598AFB
:1020D00089B201E00C4B18811982D27822B1198B98
:1020E00001F47F410A431A837047588980B21881EE
:1020F000188BC0B21883588A80B21882E6E700BFF6
:102100009E2803207800032054000320014B186010
:10211000704700BFA0280320704700BF00B5044BE4
:1021200083B0186801A905F01FFA019803B000BD3B
:10213000A0280320014BC0B2185C704770D700087C
:10214000704700BF0AB10AF03BBE70474AB1013A7E
:102150004B1E0138114413F8012F8B4200F8012F58
:10216000F9D1704708B503782BB10130FEF768F854
:10217000013080B208BD184608BD00BFF8B54178EF
:10218000072909D942F2FE2002221649164B096896
:102190001B6808801A80F8BD144D04462869014464
:1021A000FFF7D2FE0F4A104B012816681F6805D0B2
:1021B00042F2FE22022332803B80F8BDFF233370BF
:1021C000637863B100232A6912780133DBB2F254D9
:1021D0002A6901322A6161789942F5D8481C388011
:1021E000F8BD00BFA8280320A4280320AC280320A2
:1021F00000220146034B1046C3E903221A705960BE
:102200001A817047AC280320084B1A785AB14EF651
:1022100060215A68821A8A4205D90022C3E9032242
:1022200058601A701A810020704700BFAC28032044
:1022300038B5D0B20C46FFF783FF074DE86002E0E7
:102240000A2008F0C3F821462846FFF763F8002863
:10225000F6D1012038BD00BF8000032070B5D0E961
:102260000042B2F1804F0D461E4682B007D01AB927
:1022700040F252539C4219D0002002B070BDC4F30A
:102280000743EF2BF8D1C4F30723132BF4D1E3B2A8
:102290003F2B01D05A2BEFD123029BB204F0E05424
:1022A0001C4344F46F0444F0130401E040F253541F
:1022B000124BC068C3E90042FFF73CFFADF80600CF
:1022C0000028D9D04FF0FF3302220DF1060130680B
:1022D00008F050FD4FF0FF3304462946BDF80620B4
:1022E000306808F047FDBDF8063004440233A342CD
:1022F00001D10120C1E7FEF741FDFAE7800003208C
:102300002DE9F041069D944F944E954C35606060E8
:102310003B604AB1FF2018700878FF2824D094F859
:1023200000C0BCF1010F01D0BDE8F081CE383028EB
:1023300027D8DFE800F0332626262626262626265E
:10234000262C2C2626262626262626262626262621
:1023500026332626262626262626268D837C74616D
:1023600053264339AFA16C00012A00F098804A78C7
:10237000002A00F0948042F2FE21022219802A8075
:10238000D2E742F2FE01022219802A80CCE7002225
:10239000C3F801205A6008232B80C5E700210322DF
:1023A000A3F801102A80BFE7002201200821C3F80A
:1023B0000120A3F80520D8712980B5E7012A30D083
:1023C0004A78002AD7D104200821C3F80120A3F8B5
:1023D0000520644AD87129802261A5E7012A20D00E
:1023E000227A012A03D04A78002A00F08280002154
:1023F000022259702A8097E7052A12D9627A012AA7
:1024000064D042F6FE11022219802A808CE7002354
:102410000122C4E90333237023812A8084E7082A38
:102420004ED042F2FE11022219802A807CE7012A56
:10243000F7D0BDE8F0410846FFF7A0BE072AF0D963
:102440004B6808461BBA2361BDE8F041FFF796BE12
:10245000072AE6D94D68206995FA85F808EB00014E
:10246000FFF772FD01283F68366857D042F2FE221E
:1024700002233A80338057E700215970227A0620E0
:10248000013A18BF01221201D970197159719A705D
:10249000288049E7FE21022219802A8044E7002291
:1024A00001214FF4807608202F4FC4E903222281B6
:1024B0002170C3F80170A3F80560D971288033E753
:1024C00001224B681BBA23612A802DE7D1F8021044
:1024D000E668264809BA7040884236D0002242F2A7
:1024E000FE50022118802980C4E903222270228133
:1024F0001AE7FFF713FE0121042206253B68E0607E
:1025000061725A70E27B31689A70E289DA70E2682F
:10251000120A1A71E2685A710D8005E75DB1002355
:102520001D46226912F8011B013398450D442261B2
:10253000F8D895FA85F8032100220823C7F804800B
:10254000A7F80110FA703380EEE622810021022202
:1025500059702A80E8E600BFA8280320A428032099
:10256000AC28032080D700080001080878563412F0
:1025700010B50F4B82B0186E002240F001001866B3
:102580001C6E072104F001040094009C9C6D6FF008
:10259000010044F080549C659B6D03F080530193CF
:1025A000019B01F03BF802B0BDE8104003F070BDA4
:1025B0000010024070B500210446ACB0942207A878
:1025C000CDE90211CDE9041106910AF0F9FB324B75
:1025D00022689A4201D02CB070BD03234FF4804290
:1025E0004FF08051CDE90723099318221123279139
:1025F000CDE90A23022108224FF0807307A8CDE914
:102600000D230C9104F022FC00283BD1234B002623
:10261000DA6C02A942F40052DA64DA6C204D02F45A
:1026200000520092009ADA6C42F00102DA64DB6C2C
:10263000322203F001030193032301981948CDE9E5
:102640000223049602F078F880224FF4807305216B
:10265000C5E903626B614FF480622023C5E901166E
:1026600011492846C5E906232E62296001F0D2F8F7
:1026700070B910210A4801F07DFA30B92565AC62C5
:102680002CB070BDFEF77AFBC0E7FEF777FBF5E7ED
:10269000FEF774FBEDE700BF00800242001002402D
:1026A0005C2503200000024208040240094B026836
:1026B0009A4200D07047A3F500539A6C82B042F45E
:1026C00080529A649B6C03F480530193019B02B087
:1026D000704700BF0030024010B500210446ACB086
:1026E000942207A8CDE90211CDE9041106910AF060
:1026F00067FB274B22689A4201D02CB010BD4FF0E7
:1027000000724FF0807307A80792219304F09EFB9C
:10271000002832D19FED1A6B9FED1B7B09241D4BC6
:1027200002A9DA6D1C4842F40072DA65DA6D02F42F
:1027300000720092009ADA6C42F00202DA64DB6CFA
:102740008DED026B03F0020301938DED047B019B81
:10275000069401F0F1FF00220521272000F05EFF22
:10276000272000F095FF00220521282000F056FFC9
:10277000282000F08DFF2CB010BDFEF7FFFAC9E74E
:102780000003000002000000000000000000000044
:1027900000A40040001002400004024208B5026894
:1027A0000A4B9A4200D008BD094A4FF44071D36DDC
:1027B000084823F40073D36502F0C4F8272000F022
:1027C00075FFBDE80840282000F070BF00A400405D
:1027D000001002400004024210B50446A6B0942244
:1027E000002101A80AF0ECFA114B22689A4201D0AC
:1027F00026B010BD4FF4802301A8019304F026FBFE
:1028000098B90C4B0022D86C052140F48020D86484
:10281000DB6C5E2003F480230093009B00F0FEFE3F
:102820005E2000F035FF26B010BDFEF7A7FAE8E7FE
:1028300000080C420010024000B5036887B0B3F1F5
:10284000804F0DD02E4A934238D02E4A934214D056
:102850002D4A934226D02D4A934244D007B000BD62
:1028600003F504339A6D42F001029A659B6D03F003
:1028700001030193019B07B000BD254B0022986D19
:10288000052140F0200098659B6D322003F0200365
:102890000393039B00F0C2FE322007B05DF804EB07
:1028A00000F0F6BE1A4B1A6E42F400321A661B6E26
:1028B00003F400330493049B07B000BD144B0022C3
:1028C000986D052140F0100098659B6D312003F054
:1028D00010030293029B00F0A1FE312007B05DF8C7
:1028E00004EB00F0D5BE0A4B1A6E42F480221A6641
:1028F0001B6E03F480230593059B07B000BD00BF4A
:102900000010004000140040004401400048014015
:10291000001002400000000010B500210446AEB0D7
:10292000942209A8CDE90411CDE9061108910AF015
:1029300047FA2D4B22689A4201D02EB010BD4FF4B9
:10294000005309A8099304F081FA00283FD19FEDB4
:10295000226B9FED237B0A22244C2548E36C04A9BB
:1029600043F00103E364E36C8DED046B03F00103BA
:102970000193019B8DED067B089201F0DDFEE36D76
:1029800043F40013E365E36D03F400130293029B29
:10299000A36DDB0018D4A36D43F08053A365A36D32
:1029A00003F080530393039B03F06AFBA36D23F0B2
:1029B0008053A36500220521492000F02FFE492005
:1029C00000F066FE2EB010BD03F05AFBF2E7FEF7F2
:1029D000D5F9BCE7AFF3008000180000020000004A
:1029E000000000000000000000D400400010024081
:1029F0000000024210B5014688B000222A2000F0F3
:102A00000DFE2A2000F044FE154B01A91A6E03A802
:102A100042F400621A661B6E124C03F400630293C8
:102A2000029B04F00BF904F0F1F80346002140F298
:102A3000E7300D4A2161A2FB0323A1609B0C0B49E7
:102A4000E060013B20462160636005F0F5F810B1BD
:102A5000012008B010BD204604F0FEFE08B010BDF5
:102A600000100240C028032083DE1B43002C0140DD
:102A7000FEE700BFFEE700BFFEE700BFFEE700BFC6
:102A8000FEE700BF704700BF014801F001B800BF7A
:102A90000C230320014800F0FBBF00BFA422032049
:102AA000014801F0E7BB00BFD4240320014801F036
:102AB000E1BB00BFD4240320014804F0BDBF00BF28
:102AC000C0280320014804F0B7BF00BF0C22032038
:102AD000014804F0B1BF00BFC0210320014801F04C
:102AE000DFBF00BF80240320014802F077B900BF98
:102AF00080240320014804F085BD00BF7423032017
:102B0000014805F063B900BFEC230320014802F03F
:102B1000ABBB00BF4C1E0320014800F0B9BF00BF93
:102B20005C250320014804F09FBC00BFD82303208C
:102B3000034AD2F8883043F47003C2F888307047F3
:102B400000ED00E0254B25491A68120754BFD3F861
:102B500094301B688A6858BFC3F3032302F00C0249
:102B600048BFC3F30313082A12D01D480C2A50F89B
:102B700023300FD01B49042A08BF0B46174A1A48B6
:102B800092681A49C2F30312825CD3400B6070470B
:102B9000174BF3E7C868CA6800F00301C2F30312D9
:102BA000022902F1010211D0032913D0B3FBF2F183
:102BB0000A4AD368D268C3F3062301FB03F3C2F3C6
:102BC000416201325200B3FBF2F3D7E70549B1FB92
:102BD000F2F1EDE70649B1FBF2F1E9E7001002403E
:102BE00088D700080024F400D0D70008A4000320F0
:102BF00080969800DFF834D0FFF79AFF002103E0B9
:102C00000B4B5B58435004310A480B4B42189A4215
:102C1000F6D30A4A02E0002342F8043B084B9A42EA
:102C2000F9D30AF033F9FDF769FDFEE7000004204F
:102C300004D80008000003202401032028010320F9
:102C400058560320FEE70000042010B500F0D4FC25
:102C5000FFF778FF0020FFF7CDFE10B101242046DA
:102C600010BD0446FFF784FC204610BD034A044B08
:102C700011681B780B441360704700BF0C290320B8
:102C8000A8000320014B1868704700BF0C290320DF
:102C9000002330B583B00193002800F09E80856D3D
:102CA0000446002D00F09C80226893689D0005D5A5
:102CB000936823F0204323F03F0393609368D80088
:102CC00019D45C4B5C481B6891689B09A0FB03030B
:102CD00021F010419B0921F03F0101335B0041F0DD
:102CE000805191600193019B2BB1019B013B0193AA
:102CF000019B002BF9D19368D90064D40120A36D06
:102D000043F01003A365E36D0343E365936813F099
:102D1000040FA36D5DD1DB065BD4A36D23F4817337
:102D200043F00203A3659368DD0708D4434B9B6817
:102D300013F0010F424B9B6801D1D90763D5E568B9
:102D4000636B94F820102B43A568012943EA05031F
:102D5000657E43EA453343EA01434FD0A16A21B17E
:102D6000E56A01F4707129430B43D5683549294060
:102D70001943D16093681B0716D494F83030257E30
:102D8000D1685B0043EA8533E56C21F4804121F092
:102D900006012B430B43D36094F83830012B3AD013
:102DA000136923F0010313612369012B1ED0136BF8
:102DB00023F00F031363A36D23F0030343F0010318
:102DC000A36503B030BD9368002013F0040FA36D1A
:102DD000A1D0A36D43F01003A365012003B030BD63
:102DE000FFF7E8FBE56584F854505DE7116BE36994
:102DF00021F00F01013B0B431363DCE7616A0139EA
:102E000043EA4143AAE7104965688B6823F47C13C1
:102E10002B438B6093E71169E36B256C6FF38A0199
:102E20002B430B43616C0B43A16C0B4343F0010339
:102E30001361B9E7A4000320632D3E050080024220
:102E40000081024207C0F0FF00830242704700BFCA
:102E5000704700BF08B5806AFFF7FAFF08BD00BFE2
:102E6000704700BF836A10B59A6D12F0500F9A6DCB
:102E70001DD1196842F400729A650A6812F0080FB1
:102E8000CA681BD012F4406F0DD1CA6894040AD4EA
:102E90009A6D22F480729A659A6DD10403D49A6D6A
:102EA00042F001029A651846FFF7D0FF10BDD20626
:102EB0000AD4BDE810401B6DDB6B18479007E7D5BF
:102EC0001846FFF7C3FFF1E71846FFF7C9FF10BD2B
:102ED000806A08B5836D43F040038365C36D43F09A
:102EE0000403C365FFF7BCFF08BD00BF0022F0B5B7
:102EF00083B0019290F85420012A00F0F380034639
:102F000001201A6883F854009068400709D5012011
:102F10009A6D42F020029A65002283F8542003B093
:102F2000F0BD1F24486802F1300500F01F0C4FEA85
:102F3000901E08680EF00C0EC0F3846000FA0CF0CE
:102F400004FA0CFC55F80E4024EA0C0C40EA0C0084
:102F500045F80E00906810F0040F906835D107070F
:102F600033D4072408688D68C0F30456B440C00DFC
:102F7000B5F1004F6FEA040400F0040000F0FC809B
:102F800002F11407B5403E5834402C433C50506980
:102F900020F0004050610E69D468042E086800F0EB
:102FA000B88002F1600757F826C0BA4D00F0F8402B
:102FB0000CEA05050543C4F3C10448696400A04058
:102FC000284340F0004047F826009068C60701D526
:102FD0000020A1E7CE680C68AF48D2F8B05006F0E8
:102FE0001807F840C4F31207204025EA07052843D4
:102FF000C2F8B000A948864226D0A9490C42E7D0C1
:10300000A848A94986688D68ED076ED4A74DAD68BC
:10301000EF073FF57CAFA64D06F0E077AC4200F03D
:103020005F81A44DAC4200F07F81A34DAC42CFD173
:103030007402CDD48A42CBD1826822F0E0723A4346
:1030400042F480028260C3E7002F51D094FAA4F0CA
:10305000002800F0D080B0FA80F0013000F01F00AE
:10306000092840F2C88094FAA4F0002800F0728188
:10307000B0FA80F00130800600F0F84094FAA4F530
:10308000002D00F06C810126B5FA85F5354405F078
:103090001F0506FA05F5284394FAA4F4002C00F065
:1030A0005C81B4FA84F4013404F01F0404EB44049A
:1030B0001E3C240544F0007407272043C50D8E688C
:1030C00005F0040502F1140C5CF80540C0F304504F
:1030D000864007FA00F024EA000030434CF805006F
:1030E0000C688AE7022003B0F0BD704A92680EE7D0
:1030F0000120A40E013404F01F06A40604F0F845D4
:10310000B040092E06EB460440EA0500D0D824055D
:10311000D2E7146E146EC0F31205C4F38464002D5C
:1031200034D1C0F38466B44200F08B80546E556E87
:1031300002F16004C5F3846502F1640CB54200F04D
:103140009480A568A56804F10807C5F38465C0F3F9
:103150008466AE4200F0B280E568E56804F10C06D2
:10316000C5F38464C0F38460A0427FF42EAF30685E
:1031700020F00040306028E702F1140635582C405A
:103180003450506940F00040506104E790FAA0F5D7
:103190001DB1B5FA85F5AC4253D0546E556E02F1AF
:1031A0006004C5F3846502F1640C90FAA0F604F1A2
:1031B0000807BE461EB1B6FA86F6AE4257D0A568DD
:1031C000A568C5F3846590FAA0FC04F10C06B64628
:1031D000BCF1000F03D0BCFA8CFCAC4570D0E568A4
:1031E000E468C4F3846490FAA0F000283FF4EDAEE4
:1031F000B0FA80F0B8E794FAA4F0002800F0A480B8
:10320000B0FA80F00130800600F0F84094FAA4F59E
:10321000002D00F097800126B5FA85F5354405F0BC
:103220001F0506FA05F5284394FAA4F4002C00F0D3
:103230008E80B4FA84F4013404F01F0404EB4404D7
:1032400065E71446106E02F1640C20F0004044F86B
:10325000600F506E0868556EC0F31206C5F38465A2
:10326000002EA2D1C0F3846668E704F1080EDCF8F2
:103270000000774620F00040CCF80000A068086805
:10328000A568C0F31206C5F38465002E3FF45FAF56
:1032900099E700BF00F0FF03FFFF070000007F4039
:1032A0000000088000830242008002420081024246
:1032B000000052C7000084CB0100008004F10C0E16
:1032C0003868764620F000403860E0680868E468B6
:1032D000C0F31205C4F38464002D3FF443AF82E7CA
:1032E00036023FF575AE8A427FF472AE82681D49A0
:1032F00022F0E0723A4342F4000282600A681A49FE
:103300009209A1FB02129209013202EB42029200E1
:103310000192019A002A3FF45BAE019A013A0192B0
:10332000019A002AF9D153E6F5013FF551AE8A42E0
:103330007FF44EAE826822F0E0723A4342F080722F
:10334000826045E602256EE74FF080605EE74FF44D
:103350004014B1E64FF0806090E6044CACE60225E4
:1033600099E600BFA4000320632D3E05000050FE37
:10337000002370B582B0019303689A68D2072CD4F9
:103380009968284A054611422AD19A68264922F0AE
:10339000004222F03F0242F001029A608B681E0256
:1033A00029D4FFF76FFC2B6806461A68D40714D49B
:1033B0001E4C9A68D00704D49A68224042F0010259
:1033C0009A60FFF75FFC821B022A2B6802D91A68F9
:1033D000D10705D51A68D207EBD5002002B070BD21
:1033E0000120AB6D43F01003AB65EB6D43F00103BF
:1033F000EB6502B070BD0E4B0E4A1B689B09A2FB29
:1034000003239B09013303EB43039B000193019BBF
:10341000002BC6D0019B013B0193019B002BF9D1EE
:10342000BFE700BF3F00008000830242C0FFFF7F74
:10343000A4000320632D3E052DE9F041364B0568BD
:103440009B68AD6815F0040516D1164690F8542017
:103450000446012A10D040F2212C03F01F0801235A
:103460002CFA08FC1CEA030C80F8543007D180F8D1
:1034700054C00120BDE8F0810220BDE8F0810F4674
:10348000FFF776FF002840D1A36D216823F4706315
:1034900023F0010343F48073A365204B994237D096
:1034A000A36D23F48013A365A36D002513F480534B
:1034B00018BFE36D206D18BF23F00603E3653346A4
:1034C0001C263A46164F4031C762164F0763164F07
:1034D000C76341F8406C84F8545051F83C5C45F0A7
:1034E000100541F83C5C51F8345C45F0010541F8A9
:1034F000345C00F005FA2268936823F0004323F05F
:103500003F0343F004039360B7E784F85450B0E7F7
:10351000B8F1000FC8D1C3E7008302420081024224
:10352000652E0008552E0008D12E000890F8542072
:10353000012A46D0034600220120F0B42B4D1C681E
:103540009AB0AC42169283F85400179208D0996D45
:1035500083F8542041F0200199651AB0F0BC7047FF
:10356000234A906840070BD5A26801209A6D42F06B
:1035700020029A65002283F854201AB0F0BC7047EC
:10358000A0684507F1D40D68EDB11A4E4F68B068D8
:1035900093F830C020F46040384340EA4C30B060CB
:1035A000A0689268C0070AD4D70708D4B2688968AF
:1035B00022F471620D4322F00F021543B560002022
:1035C000D8E7022070470B48816821F46041816090
:1035D000A1689268CD07F2D4D407F0D4826822F4AF
:1035E000716222F00F028260E9E700BF00800242B0
:1035F00000810242008302424FF6FF0C064903029B
:10360000CA6803F4E06302EA0C02134343F0BF63A9
:1036100043F40033CB60704700ED00E01A4B00B577
:10362000DB68C3F30223C3F1070EBEF1030F03F1FE
:10363000030C28BF4FF0030EBCF1060F1BD9A3F1FA
:10364000040C4FF0FF3303FA0CF322EA03024FF0AD
:10365000FF3303FA0EF321EA030303FA0CF31343D7
:103660005B010028DBB209DB00F1604000F561403E
:1036700080F8003300BD00229446E8E7034A00F0DA
:103680000F000244137600BD00ED00E0FCEC00E00A
:10369000002807DB012300F01F01034A40098B408B
:1036A00042F82030704700BF00E100E000280CDB4A
:1036B00001220649430900F01F002033824041F8EF
:1036C0002320BFF34F8FBFF36F8F704700E100E0FF
:1036D000002836D038B5437F044603F0FF0263B3B9
:1036E000022223796277F3B92368174A5A619A68EC
:1036F00022F018029A6062798AB122691A61012166
:103700009A68656922F060022A439A609A68A569FE
:1037100022F080022A439A606177002038BD4FF082
:10372000FF321A61EBE72046D4E9021200F00EF8EE
:1037300008B92368DFE7012038BD0277FEF7B6FF3E
:10374000CEE70120704700BFB71DC104CB071AD5D3
:103750001E2310B401E0013B17D321FA03FC1CF037
:10376000010FF8D0182A11D8DFE802F01610101057
:103770001010101024101010101010102110101024
:10378000101010101400012070472AB101205DF8BC
:10379000044B7047062BF9D8046800206161A368C8
:1037A00023F018031343A3605DF8044B7047072B05
:1037B000F2D9EBE70F2BEFD9E8E700BF1149036817
:1037C000C26C8B4288BF104922F0030294BF02F101
:1037D000804189184FF0010210B4DBB20B4CA3F109
:1037E0000803A4FB03430A4CC3F3041398BF01F579
:1037F000023102FA03F3C0E9141483655DF8044B47
:10380000704700BF0704024020080240CDCCCCCC5A
:103810008008024000285ED00268304B70B59A42A2
:10382000044646D92E4B2F491344A1FB03132E48BF
:103830001B099B000221C4E91203D4E90253206949
:103840002B430343606984F825100343A069116882
:103850000343E0696FF310110343206A03430B43F2
:1038600020461360FFF7AAFFD4E91461B5F5804F35
:10387000A06D27D06368DAB2013B032B3260486049
:1038800024D801210020194B194D1344013A01FAA3
:1038900002F218499B00E3656266256618604A6477
:1038A00000230122636484F8243084F8252018461C
:1038B00070BD114B0B491344A1FB03131B090F48A7
:1038C0009B00B7E700236360336048600023C4E9CE
:1038D00017336366E4E70120704700BF0704024026
:1038E000F8FBFDBFCDCCCCCC000402403F820010E1
:1038F0004009024000090240F8FFFDBF00000240FD
:10390000F0B590F82440012C0AD04FF0010C90F84B
:10391000254080F824C0644504D0002380F824307A
:103920000220F0BD0026D0E9157C4FF0020E04689D
:1039300080F825E046642668C56D26F001062660FD
:10394000C7F804C015B1D0E9186777600126C76CC5
:1039500007F01C0C876C06FA0CF67E6063608368C7
:10396000102B036B0BBFA260A160E160E260B3B1FA
:10397000236843F00E032360036D1A68D20303D556
:103980001A6842F480721A601DB12B6843F4807388
:103990002B602368002043F001032360F0BD2368FF
:1039A00023F004032360236843F00A032360E3E762
:1039B00090F825200346022A06D004225A640022E9
:1039C000012083F824207047026870B4046D1068E9
:1039D000D96C20F00E00106020689E6C20F480707E
:1039E0002060106801F01C0120F00100106001222D
:1039F000D3E91545D86D8A407260656030B1D3E96E
:103A00001814026822F4807202604C60012283F86C
:103A10002520002283F82420002070BC704700BFBE
:103A200090F825200346022A03D0042201205A647C
:103A30007047026870B5046D1068D96C20F00E00F4
:103A4000106010689E6C20F0010010602268D86D34
:103A500022F4807222600122D3E9154501F01C0195
:103A60008A407260656030B1D3E91814026822F4AC
:103A7000807202604C60012000211A6C83F82500DE
:103A800083F824100AB118469047002070BD00BF8B
:103A90000421F0B4C26C866C02F01C023568046824
:103AA000914029420346276812D017F0040F0FD027
:103AB0002268170439D42268950603D4226822F0BC
:103AC000040222601A6B716092B1F0BC1846104774
:103AD0000221914029420DD0B8070BD5226812F47B
:103AE000004F226829D0D4033CD45A6B002AECD171
:103AF000F0BC7047082191402942F9D03907F7D529
:103B00002168002021F00E0121600121DC6B01FA07
:103B100002F27260596483F8240083F82510002CA7
:103B2000E6D018462346F0BC184771602268D603D9
:103B300014D4036B002BF6D1DAE7900606D4226882
:103B400022F00A022260012283F825200020DA6A8E
:103B5000716083F82400002AB7D1C9E7836B002B7A
:103B6000E1D1C5E7DA6A002AAFD1C1E790F82500B4
:103B7000704700BF60B10368C8061A6805D5C9025E
:103B80004CBF42F4801222F4801200201A60704769
:103B900001207047002800F0D78038B590F85C30DD
:103BA000044603F0FF02002B70D02268936923F0D3
:103BB00010039361FFF766F8054604E0FFF762F82B
:103BC000401B0A2859D823689A691107F6D49A69C4
:103BD00042F001029A61FFF755F8054604E0FFF74D
:103BE00051F8401B0A2848D823689A69D207F6D5AD
:103BF0009A696068574942F002029A610860227C23
:103C0000012A9A690CBF22F0400242F040029A61F8
:103C1000627C012A9A690CBF42F4804222F48042FD
:103C20009A61A27C012A9A690CBF22F4805242F464
:103C300080529A619A69A06822F4407202439A61A4
:103C40009A69E16822F0A4029A611A69012922F0B6
:103C500010021A611FD011B302299A6976D042F07E
:103C600080029A611A69032942F010021A6116D182
:103C70009A6942F020029A6111E00322236E01202A
:103C800043F00103236684F85C2038BD80F85D2092
:103C9000FEF722FD89E79A6942F004029A61D4E9AD
:103CA0000612013A0139120242EA4162216AB0F574
:103CB000407F01F1FF3142EA0102616901F1FF3108
:103CC00042EA0142DA610ED1D4E90B02A16A013A5B
:103CD00001381201013942EA00220A43616A0139BE
:103CE00042EA0142DA60D3F8C020E06B616B024324
:103CF000C3F8C020D3F88020174822F4F81242EA13
:103D000001422064C3F88020D3F88020A16B134DBA
:103D100022F0706242EA01626564C3F88020104BB1
:103D200010494035C4E91253F033C4E914134FF479
:103D30005472002109F044F800230122236684F81C
:103D40005C201846A36538BD0120704742F0200270
:103D50009A61A4E700A5004000AC004070AC0040B0
:103D600088AD004060AE004090F85C200346013A08
:103D7000012A05D91A6E012042F002021A66704724
:103D80008A6870B4D1E9035448699207D1E90061A7
:103D900056B942EAC56202431B6C42EA0442002063
:103DA00070BC43F8212070475B6C44EA457443F8CB
:103DB0003140104303EBC103586070BC00207047D2
:103DC000844690F85C00012807D0DCF860300120C0
:103DD00043F00403CCF86030704710B40198DCF86D
:103DE000004040EA4303D4F8800043EA820242EAFA
:103DF000011120F03F030B430020C4F880305DF830
:103E0000044B704790F85C200346012A05D01A6ED7
:103E1000012042F004021A6670470222002110B409
:103E2000046880F85C20A269084622F00102A261C1
:103E30005DF8044B1966704790F85C300146022B20
:103E400017D10268936943F0010393619369DB071B
:103E500058BF0B2313D49069C00710D4013BFAD18B
:103E600003220B6E012043F001030B6681F85C20F6
:103E70007047036E43F0080303660120704793699F
:103E800023F01003936193691B0748BF0B2305D5EB
:103E90009069000702D5013BFAD1E1E74FF0010C30
:103EA00010B400249369204643F00203936181F823
:103EB0005CC08C655DF8044B704700BF88B110B5DD
:103EC0000446FFF7B9FF22682046D36D23F00303B1
:103ED000D365FEF763FC0023236684F85C30184644
:103EE00010BD0120704700BFF0B590F85C308646E9
:103EF000022B0BD10568D5F8C43013F4001C0BD08D
:103F0000036E43F4007303660120F0BD036E43F0BB
:103F1000080303660120F0BDD5F8C4604B680C6946
:103F200088680F68C6F30146002B37D1044344EA82
:103F30008744D1E906030343486906EBC6070343F8
:103F4000086A43EA0063C86843EA0043DEF85400A5
:103F500040F8374000EBC7004360134CCB68E35C8C
:103F6000A3B19378D7781B0443EA07631778043228
:103F70003B4312F8037C43EA07230CEB0007BB60CA
:103F8000CB680CF1040CE35C9C45EAD30123B340FD
:103F9000C5F8CC300020CEF85830F0BD3C43044387
:103FA00044F08044C5E700BFE0D700082DE9F041A8
:103FB00090F85C40022C64D1402905686DD0D5F89A
:103FC0009840270764D0D5F89870D5F89840C7F383
:103FD0000128E60107D5D5F88040E40544BF08F183
:103FE000010707F00308C46C08EBC80604EBC6041D
:103FF000266806F080465660D4F800C0002E66D1D0
:10400000CCF38A461660266806F00056966026684D
:1040100006F000461661A688D661B4F806C00CF01A
:104020000F0CC2F80CC0666806F48016566166680C
:1040300006F400169661E67906F07F061662274EB2
:10404000676816F80CE04FEAD77CC2F824C0BEF1CE
:10405000000F10D0013B04F1070EF4461EF8015F7B
:10406000ACF1060C03F8015FD568ACEB040C755D90
:104070006545F2D8056840292CD0C5F89C80002001
:1040800004E0036E43F0080303660120BDE8F081FD
:10409000036E43F480730366F7E7D5F89040270773
:1040A000F6D0D5F89070D5F89040C7F30128E60116
:1040B00007D5D5F88040A40544BF08F1010707F0F3
:1040C0000308846C08EBC80604EBC60490E72CF0E8
:1040D000604697E7C5F89480D1E700BFE0D70008B5
:1040E00003461B6830B45B6C002003F00704C3F385
:1040F0000222C1E90042C3F34014C3F38012C1E9B4
:104100000342C3F3C014C3F3C022C1E90542C3F3A1
:104110000034C3F3403203F01805C1E90742C3F38A
:104120008032C3F306438D60C1E9092330BC704778
:10413000034630B41B6800201B6CDCB2C3F3C035EF
:10414000C3F30622C3F30743C1E900428D60CB608D
:1041500030BC70470368D3F8C40000F00700704714
:10416000034690F85C000138012805D91A6E012039
:1041700042F002021A6670471B6870B411F007051E
:10418000986D01F0380420D0C6071ED4DD6D45F0CF
:104190000105DD650CB384071FD5D86D40F0020022
:1041A000D8650C0604D5D3F8DC001043C3F8DC0056
:1041B000C80504D5D3F8E0000243C3F8E0205A6DE7
:1041C000002070BC0A435A65704704B386071ED4AA
:1041D000DE6D46F00106DE6525BB11F4E07F01D0FF
:1041E0004607DAD411F4F05F01D00507D5D411F4F5
:1041F000604F01D0C406D0D411F4403F01D08606F0
:10420000CBD411F47C0FCCD04506C6D4C9E711F449
:10421000E07F0AD0460708D4DE6D46F00106DE6571
:10422000002DB7D0C507B5D5B7E711F4F05F01D0C1
:104230000607F1D511F4604F01D0C606ECD511F494
:10424000403F01D08606E7D511F47C0FE8D0460642
:10425000E2D5002D9ED0E5E7704700BF704700BF54
:10426000704700BF704700BF704700BF704700BF76
:10427000704700BF2DE9F84F036804461A6D596D69
:1042800002EA010A1A6D596D0AF4E05A02EA0109BC
:104290001A6D596D1E6D02EA01085A6D1F6D1640A8
:1042A0005A6DD3F854B01D6D1740690609F007091F
:1042B00008F0380806F4710607F4602702D51BF0F1
:1042C000400F73D1EA0502D51BF4807F5DD1BAF1AE
:1042D000000F4AD1B9F1000F35D1B8F1000F3CD130
:1042E000AB0502D51BF4007F75D1280602D51BF063
:1042F000800F78D1A90402D51BF4005F5BD12A049A
:1043000002D51BF4004F5ED16B040AD51BF4804F1D
:1043100007D04FF4804223681A65236E43F0800370
:1043200023664FB926B123681E65236E3343236687
:10433000236E2BBBBDE8F88F2368394620461F65E6
:10434000FDF700F9EEE7236849462046C3F8509090
:10435000FDF746F8B8F1000FC2D023684146204669
:10436000C3F85080FFF77AFFBAE72368514620462A
:10437000C3F850A0FFF770FFB9F1000FADD0E2E72E
:104380002046FDF7C3F8BDE8F88F4FF4807223682C
:104390002046D3F8D8C0D3F8E0101A650CEA010122
:1043A000FFF760FFBAF1000F94D0DEE740221A65F4
:1043B000FFF75EFF86E74FF40052236820461A6538
:1043C000FFF752FF9BE74FF40042236820461A652F
:1043D000FFF74CFF98E74FF40072236820461A65F8
:1043E000FFF73EFF81E7802223682046D3F8D4C040
:1043F000D3F8DC101A650CEA0101FDF76BF879E7D8
:10440000006E7047064B9A6A002A01DB0020704755
:104410000449054A99609A60986AC00F704700BFC6
:104420000020024023016745AB89EFCD044B9A6A17
:1044300042F000429A62986AC043C00F704700BFC2
:104440000020024070B5164C0546FEF71BFC236A9F
:10445000DE0306D56A1C18BF064612D1236AD803AC
:10446000FCD442F2FA010E4A136A0B4010D1136ACF
:104470000020DB0744BF0123136270BD236AD90308
:10448000EFD5FEF7FFFB801BA842F7D3032070BDDA
:10449000044C0120616813621943616070BD00BF64
:1044A00000200240B00003202DE9F0411A4C94F89E
:1044B00000C0BCF1010F2CD09846012323700023CB
:1044C00007464FF47A700D4616466360FFF7BAFF51
:1044D00018B100232370BDE8F081A760EFF31082CC
:1044E00072B60E4FBB6A43F00103BB622E60BFF38E
:1044F0006F8FC5F8048082F310884FF47A70FFF74D
:10450000A1FFA268BB6A22F0004223EA0203BB6259
:10451000DFE70220BDE8F081B00003200020024068
:104520000E4B1A6C510212D5C20703D59A6A42F09B
:1045300004029A62830704D5084A936A43F400434D
:104540009362064A936A43F48033936270479A6A8F
:1045500042F4004242F004029A62F2E70020024074
:10456000062243680260082B04D84FF48B72DA40AD
:10457000D20717D4334B1B6CDBB2AA2B05D0552BBB
:1045800003D0CC2B0CBFCC23BB232E49C2690361C3
:104590000B6C02F1FF3C23F0FF03BCF1010F8361C0
:1045A00018D970470722013B0260072BE2D801A20D
:1045B00052F823F027460008134600087545000806
:1045C000FF45000875450008754500087545000859
:1045D000EB4500080368012A43F0080303602CD070
:1045E0008B6C23F07F0303627047164AD36E03F08F
:1045F0007F038360D36EC3F30643C360BAE7114AF7
:10460000936E03F07F038360936EC3F30643C3602E
:10461000B0E70C4AD36D03F07F038360D36DC3F31F
:104620000643C360A6E7074A936D03F07F038360E8
:10463000936DC3F30643C3609CE74B6C23F07F0389
:1046400003627047002002400F4B1A6C12F4800F77
:104650009A6A01D0C90712D522F400629A620A4A06
:10466000936A23F47E7323F0020343EAC00343F00A
:1046700002039362936A43F480339362704742F477
:1046800000629A62EBE700BF002002402DE9F04192
:10469000274E3378012B3DD00122002304464FF4EE
:1046A0007A70884632707360FFF7CCFE074660BBB5
:1046B00048F204022368B36023F0004393422DD0F4
:1046C0004FF0FF33C8F80030D4E902532B449D4229
:1046D00006D312E00135D4E902321344AB420CD9BF
:1046E00028466168FFF7B0FF4FF47A70FFF7AAFE23
:1046F0000028EFD00746C8F800500E49B2688B6A10
:1047000022F0004223EA02038B6200233370384612
:10471000BDE8F08102273846BDE8F0816068FFF708
:10472000FFFE4FF47A70FFF78DFE0746E5E700BF06
:10473000B0000320002002402DE9F04F0C6883B048
:10474000002C00F0908000238946774F012202FA66
:1047500003F515EA040800F081800326D9F8041057
:1047600003FA02F201F0030E0EF1FF3A06FA02FC20
:10477000BAF1010F6FEA0C0CD9F8086076D9BEF1D6
:10478000030F01D1012E05D0C568964005EA0C053E
:104790002E43C66005680EFA02F205EA0C052A43AC
:1047A00011F4403F026059D04FF00F0C23F0030288
:1047B00002F1804202F53D3203F00306156EF60069
:1047C0000CFA06FC25EA0C0E584DA84222D005F53D
:1047D0008065A84200F08C80554DA84200F08F8083
:1047E000DFF850C160457CD0DFF84CC1604500F077
:1047F0008D80DFF848C1604500F08F80DFF840C150
:1048000060450CBF4FF0060C4FF0070C0CFA06F693
:104810004EEA060E6FEA0805C2F860E03A68CE027A
:1048200054BF2A4048EA02023A607A688E0254BFB6
:104830002A4048EA02027A60D7F884208E0354BFE7
:104840002A4048EA0202C7F88420D7F88020C9032A
:1048500054BF2A4048EA0202C7F88020013334FAE4
:1048600003F27FF473AF03B0BDE8F08F9640D0F849
:1048700008B00196D9F80C600BEA0C0B06FA02FAA4
:104880004AEA0B0AC0F808A0D0F804A0019E2AEA60
:10489000050AC1F300159D4045EA0A054560C56853
:1048A000BEF1020F05EA0C0546EA0506C6607FF474
:1048B00071AFD9F8105003F00706B600B540019566
:1048C0000F254FEAD30A00EB8A0ADAF820B005FA7E
:1048D00006F6019D2BEA060B45EA0B05CAF82050A7
:1048E00058E74FF0030C0CFA06F64EEA060E91E775
:1048F0004FF0010C0CFA06F64EEA060E8AE74FF06E
:10490000020C0CFA06F64EEA060E83E74FF0040C92
:104910000CFA06F64EEA060E7CE74FF0050C0CFA90
:1049200006F64EEA060E75E700F402400000024269
:1049300000080242000C024200100242001402422F
:1049400000180242002900F095802DE9F04F002365
:104950004FF00F094FF0030A474E01229A4012EA26
:10496000010E69D023F0030505F18045434F05F59D
:104970003D3503F00304D5F860C0E40009FA04F8FB
:10498000B84208EA0C0C1BD007F58067B84259D032
:104990003B4FB8425AD03B4FB84261D03A4FB84231
:1049A00063D0DFF8E8B0584555D0DFF8E4B058459B
:1049B0000CBF4FF0060B4FF0070B0BFA04F400E0AE
:1049C0000024A44517D1D6F8804024EA0E04C6F886
:1049D0008040D6F8844024EA0E04C6F88440746807
:1049E00024EA0E047460346824EA0E0434602C6EE9
:1049F00024EA08042C6604685D000AFA05F52C43D5
:104A00004FEAD30C046000EB8C0C03F00704DCF8D5
:104A100020E0A40009FA04F42EEA0404CCF82040B3
:104A2000846824EA05048460446824EA020242603F
:104A3000C26822EA0502C260013331FA03F28CD166
:104A4000BDE8F08F012707FA04F4BAE74FF0020B34
:104A50000BFA04F4B5E74FF0050B0BFA04F4B0E7DA
:104A60004FF0030B0BFA04F4ABE74FF0040B0BFA17
:104A700004F4A6E7704700BF00F4024000000242C1
:104A800000080242000C02420010024200140242DE
:104A9000001802420AB1816170478162704700BF0D
:104AA0000268436B9169126803B11847704700BFF1
:104AB000704700BF704700BF0022016810B50B6847
:104AC00080F842205A040CD50B6823F480430B6015
:104AD00090F84130292B0ED090F841302A2B24D069
:104AE00010BD1B04F4D50B6823F400430B6090F851
:104AF0004130292BF0D14FF0280C212380F841C000
:104B0000036390F84130002203EA0C03634514BFAD
:104B10006FF0F20C6FF0420C0B6803EA0C030B60B1
:104B200080F84020FFF7C4FF10BD2824222380F81E
:104B30004140036390F8413000222340A34214BF58
:104B40006FF0F4036FF044030C6823400B6080F8AF
:104B50004020FFF7AFFF10BD704700BF70B504687D
:104B6000C368A169A269022B4FEA1242A568844674
:104B7000E668C1F3004102F0FE020FD182EAD513CC
:104B800013F00603C5F3090206D1856C013585646F
:104B9000856C022D0CD070BD06F0FE020025236846
:104BA00023F0B80323608CF84050FFF7D5FF70BDA9
:104BB00008258364E56180F84030FFF7CDFF70BDC4
:104BC000704700BF0023202210B5174C4363C46216
:104BD000036380F8412080F842304B0712D5026809
:104BE000436A526A1A70436A028D013343624AB1C2
:104BF000438D013A013B9BB24385436C028543F0F0
:104C00000403436410240021036890F8412090F8C5
:104C100041201A6822F0FE021A60DC6180F8401020
:104C2000FFF7CEFF10BD00BF0000FFFF704700BFC1
:104C3000704700BF806A08B5836B0BB100221A640D
:104C4000C36B0BB100221A6490F84130602B4FF017
:104C5000000305D0036380F84030FFF7E7FF08BD8D
:104C6000202280F8403080F841200363FFF7E0FF06
:104C700008BD00BF70B50025554B90F8412080F865
:104C80004250C3624585436C283A0B43022A436471
:104C90000446036833D890F8411090F8412001F0A1
:104CA0002801282908BF462102F0280218BFF62152
:104CB000282A0CBFC9436FF0F60128201A680A4061
:104CC00044491A6084F84100A06B226B616318B1FB
:104CD000112A3ED0212A3CD0E06B18B1122A4ED0C6
:104CE000222A4CD094F84130602B4FF0000365D05D
:104CF0002046236384F84030FFF798FF70BD90F89A
:104D0000412090F841201A6822F0FE021A609A6948
:104D1000920748BF9D629A69D60703D49A6942F008
:104D200001029A6194F84120602A10D0202284F870
:104D300041209A6995060AD59A69D00605D51022B0
:104D4000DA61626C42F0040262642022DA610021BE
:104D5000BAE71A6851042CD4FEF708FF0128C1D025
:104D60000023A06B1C4A026484F84030FEF758FE12
:104D70000028C3D0A06BBDE87040036C18471A68C8
:104D8000120403D51A6822F400421A60FEF7EEFE00
:104D90000128A7D00023E06B0F4A026484F840305A
:104DA000FEF73EFE0028A9D0E06BBDE87040036C22
:104DB00018471A6822F480421A60CDE72022204664
:104DC00084F8412084F840302363FFF731FF70BD41
:104DD0000000FFFF3D500008354C0008036810B488
:104DE0009A69196812F4807F02F4806408D0090679
:104DF00026D4416C11F00B0F19D15DF8044B7047AC
:104E0000CCB10906F5D54FF48064416C920541F0B0
:104E100008014164DC61ECD54FF40071426C42F052
:104E200002024264D961416C11F00B0FE5D05DF8CC
:104E3000044BFFF71FBF9405DBD50A06ECD4D8E777
:104E4000416C41F0010141644FF48071D961002C43
:104E5000D9D19405CDD5DFE770B504462026036887
:104E60000D461968C06A94F84120DE61213A092A8A
:104E70000ED8DFE802F077050D0D0D0D0DAA7705B0
:104E8000222694F841201A6822F0FC021A60266358
:104E90005A68684E42F400425A605A6832405A607A
:104EA0009A69920744BF00229A629A69D60703D48E
:104EB0009A6942F001029A614A043BD51A6822F4C9
:104EC00080421A60A26B1AB11268526892B262856F
:104ED0006A070AD55A6A636A25F004051A70636A7C
:104EE00001336362238D002B68D1638D9BB21BB1AC
:104EF000636C43F004036364EB0601D5CE063AD439
:104F0000002384F84230666C6363002E68D1E36A44
:104F1000494DAB4218D194F841302046222B4FF036
:104F2000200384F8406084F84130266376D0FFF790
:104F3000BFFD70BD0E04CBD51A6822F400421A6082
:104F4000E26B002AC0D1C3E72046FFF7B5FD20235E
:104F5000E562204684F8413084F840602663FFF71C
:104F60002FFE70BD212694F841201A6822F0FA0223
:104F70001A6026638CE7638D9BB2002B3ED194F8B8
:104F80004130282B4DD094F841202368292A4FF036
:104F90001002DA61B4D110F5803FB1D09A6991075F
:104FA00044BF00229A629A69D20703D49A6942F0F8
:104FB00001029A612046FFF77FFDA1E7013B2385AF
:104FC000638D013B9BB263858FE7002694F84120F7
:104FD00094F841201A6822F0FE021A60266357E70F
:104FE0002046616CFFF746FE94F84130282BA0D193
:104FF00029462046BDE87040FFF7E4BD1022236833
:10500000DA61636C43F00403636430F080737FF40F
:1050100077AF2046616CFFF72DFE71E7FFF74AFD81
:1050200070BDB0F1007FAED129462046FFF7CAFD22
:1050300066E700BF00E800FE0000FFFF38B590F80B
:1050400040C0C56ABCF1010F70D04FF0010C11F0E7
:10505000200F04460B4680F840C002D012F0200F0B
:1050600053D1D80617D5D10615D5628D92B2002A34
:105070005ED194F84120282A00F0818094F84120E4
:105080002368292A4FF01002DA6164D00023184601
:1050900084F8403038BD590719D4190701D51007D5
:1050A0003AD49907F2D59307F0D5638D9BB2002BC4
:1050B0004DD0616A236811F8010B228D9862638DCF
:1050C000013A013B9BB2616263852285DEE75007AE
:1050D000E3D5638D9BB26BB12268636A526A1A7022
:1050E000638D616A228D013B0131013A9BB261629D
:1050F00022856385638D9BB2002BC7D115F5803F58
:10510000C4D02046FFF7D8FCC0E7FFF7A5FE002378
:10511000184684F84030BDE794F8413003F0280386
:10512000282B28D008222368DA61AFE7022038BD97
:1051300010222368DA61636C43F00403636435F082
:105140008073A3D12046616CFFF794FD9EE735F094
:1051500080739BD1D5E715F5803F97D09A69950765
:1051600044BF00229A629A69D007CAD49A6942F071
:1051700001029A61C5E72046FFF7F0FC86E7B5F12A
:10518000007F7FF47BAF19462046FFF71BFD7DE7CC
:1051900008490B6813F001030AD1024610B40C68E9
:1051A000184624F0040313435DF8044B0B6070476A
:1051B0000120704700040340034A0020136843F0B5
:1051C00001031360704700BF00040340002844D06F
:1051D00070B590F89132064603F0FF02C3B3032383
:1051E000306886F8913202F0B7FF3579FDB10021C1
:1051F0003346324601200C4611740131A942C2E9FE
:1052000008445074D47442F8284FF5D100210A465E
:1052100083F850110131A942C3E9582283F8512182
:1052200083F85321C3F8682103F12803F0D13346F2
:1052300053F8040B93E8060002F098FF01220021C6
:10524000B37A3173934286F8912208D0002070BD62
:1052500080F89022FDF760FBC1E7012070473046DF
:1052600000F0B4FE002070BD2DE9F84F054600683F
:1052700003F0F0FB10F400442BD1430500F17C82D5
:1052800047041BD410F4005140F09382C60400F18F
:10529000BD81040500F19284010600F16484820559
:1052A00000F1CE84C30512D52A68B2F8443023F445
:1052B00080731B041B0CA2F8443008E02A68B2F883
:1052C000443023F480431B041B0CA2F84430BDE897
:1052D000F88F2868B0F844301904F8D5B0F8444085
:1052E000A1B214F00F0436D111F0100100F0E180EA
:1052F000018811F400648BB200F0AA8095F8502167
:10530000B0F8503000EBC20212FA83F3B3F806345F
:10531000C3F30903082BC5F86C3140F06B84B5F872
:10532000562105F5267103F0A9FB40F68F732A6814
:10533000284611880B4043F08003138007F070FC6F
:105340002868B0F844301904C1D5B0F84440A1B27F
:1053500014F00F04C8D030F82430A7001FFA83F8E7
:105360001B0439D418F0800FB4D030F824309BB22D
:1053700023F4E14323F0700343F4004320F8243086
:105380003B1905EBC302D17CDB00012900F0EB8067
:10539000117C18F48079D2F828E04FEAC10C40F073
:1053A0005881B0F850401CFA84F40444B4F8024424
:1053B000C4F30904744580F00381AEEB040110339B
:1053C0009162E918536A23445362D36A2344D36237
:1053D00003F012F928687DE740F68F7330F8242037
:1053E0003919134043F0800320F8243005EBC10144
:1053F00091F85C3191F85021002B40F08580B0F895
:105400005030D20012FA83F30344B3F80694C9F380
:105410000909B9F1000F40F0E481391905EBC10326
:10542000D3F86C21C9004A44C3F86C21D3F8682131
:1054300022B1D3F860214A4540F2C6813B1905EB01
:10544000C303284693F8501107F0FCFB286889E74E
:105450001A047FF53FAF40F68F730288134043F084
:105460008003038095F85021B0F8503000EBC20261
:1054700012FA83F3B3F80634C3F30903C5F86C31A9
:10548000002B00F0B480D5F8641100293FF422AF5E
:10549000B5F8562103F0F2FAD5F86431D5F86C214D
:1054A000284613442146C5F8643107F0CBFB286831
:1054B00010E703889BB223F4E14323F0700343F425
:1054C000004303802A7CB0F8503000EBC20212FA8D
:1054D00083F3B3F802346A6AC3F309031A44284613
:1054E000EB626A6207F0B8FB2B7B2868002B3FF465
:1054F000F1AEAB6A002B7FF4EDAE2A7B42F0800266
:10550000A0F84C202B73E5E691F85331022B00F004
:10551000508230F822309BB223F4E04323F0700332
:1055200043F4004343F0C00320F8223091F8503197
:1055300030F82320DB0012F4804FB0F8502013FA2B
:1055400082F3034443D0B3F80294C9F30909B9F1D3
:10555000000F3FF462AFB1F858214B46D1F8641107
:1055600003F08CFA59E70021631C03EB830345F831
:105570003310137FDBB118F04008537C00F00A822F
:10558000002B40F05F82117CB0F8503000F20240F6
:1055900010FA83F333F83120C2F3090223F83120E3
:1055A00033F8312092B242F4004223F831202744EC
:1055B00005EBC7072846397C07F04EFB286889E6CB
:1055C0002846C2F8289007F047FB286882E6B3F81F
:1055D0000694C9F30909B9F1000F3FF41EAFB1F801
:1055E0005A214B46D1F8641103F048FA15E70388B5
:1055F00023F4804323F070031B041B0C83F44053FB
:1056000043F4004343F08003038063E62A68B2F862
:10561000403023F004031B041B0CA2F84030B2F806
:10562000403023F008031B041B0CA2F8403095F80F
:10563000C832012B00F01283284607F03DFB2A6890
:10564000B2F8443023F480531B041B0CA2F84430FE
:105650003DE608F4804918F04008B0F8503000F0FA
:10566000C88000F2024818FA83F333F83130C3F3EC
:10567000090373454AD34FF0000C537CC2F828C08D
:10568000002B40F0F882B0F8503018FA83F333F86A
:105690003120C2F3090223F8312033F8312092B2CD
:1056A00042F4004223F83120B0F8503000F20642B4
:1056B00012FA83F333F83120C2F3090223F83120C0
:1056C00033F8312092B242F4004223F831203B19E2
:1056D00005EBC303DB7C022B0FD130F8213023F420
:1056E000E04323F040031B041B0C83F0200343F42E
:1056F000004343F0800320F82130284607F0ACFA3D
:105700002868B9F1000F3FF4E5ADCBE0AEEB030E36
:10571000C2F828E0B9F1000F0FD030F821E02EF4E4
:10572000E04E2EF0700E4FEA0E4E4FEA1E4E4EF433
:10573000404E4EF0800E20F821E007EB040E05EB02
:10574000CE0E9EF83490B9F1010F00F0CB812744C2
:1057500005EBC7073A7C30F8223023F4E04323F00E
:1057600040031B041B0C83F0300343F4004343F05D
:10577000800320F82230ADE52A682846B2F844308C
:1057800023F480631B041B0CA2F8443007F072FA68
:1057900095F89032012B3FF49AAD012321462868F9
:1057A0002C7385F8903203F04FF985F89042BDE8EC
:1057B000F88F2A68B2F8443023F400531B041B0C02
:1057C000A2F84430BDE8F88FD3F8642101F5A87140
:1057D0004A4428682944C3F8642102F00DFF286870
:1057E000C0E5B1F856214B46D1F8641103F046F9F3
:1057F00013E600F2064A1AFA83F333F83130C3F3A2
:105800000903734561D9C2F828803B1905EBC3032E
:105810005B7C002B40F04182B0F8502000F2024344
:1058200013FA82F232F83130C3F3090322F831302F
:1058300032F831306FEA43436FEA53439BB222F8A8
:105840003130B0F850201AFA82F232F83130C3F316
:10585000090322F8313032F831306FEA43436FEAFE
:1058600053439BB222F831303B1905EBC303DB7C79
:10587000022B0FD130F8213023F4E04323F0400312
:105880001B041B0C83F0200343F4004343F080030C
:1058900020F82130284607F0DFF92868B9F1000F19
:1058A0007FF418AD3B1905EBC3031A7C30F82230A6
:1058B00023F4E04323F070031B041B0C43F4404328
:1058C00043F0800320F8223004E5AEEB030EC2F86B
:1058D00028E0BEF1000F98D0B9F1000F0FD130F8D9
:1058E00021E02EF4E04E2EF0700E4FEA0E4E4FEAFD
:1058F0001E4E4EF4404E4EF0800E20F821E007EB95
:10590000040E05EBCE0E9EF83480B8F1010F7FF443
:105910001EAFDEF8246006EB0308CEF82480D66ABA
:1059200006EB0309C2F82C90DEF83090DEF8202058
:105930009145C0F0D081A9EB0203CEF8303093B28C
:1059400007EB040E05EBCE0E9EF811B0BBF1000F75
:1059500040F0B681B0F850E01AFA8EFE3EF8319071
:10596000F444C9F309092EF83190002A40F0E4818B
:105970003EF831206FEA42426FEA524292B22EF86C
:1059800031203A1905EBC2024146528B03F066F80A
:105990002868DCE6002B62D0012B7FF408AEB0F85B
:1059A0005030127C00F2064010FA83F323F8328064
:1059B000FDE5B0F850C04FEAC20919FA8CFC18F4A2
:1059C000804ED1F8683184444FD0BCF802C4CCF387
:1059D000090C9C45E14600F24781A3EB0C03C1F89A
:1059E00068317BB930F8221021F4804121F0700138
:1059F0000904090C81F4005141F4004141F0800197
:105A000020F8221018F0400F0DD030F8223023F487
:105A1000E04323F070031B041B0C43F4004343F0EA
:105A2000C00320F82230BCF1000F3FF4F6AC391966
:105A300005EBC101B1F858216346D1F8641103F0B8
:105A40001DF8EAE4012B7FF4B2ADB0F85030127CBF
:105A500000F2024010FA83F323F83210A7E5B0F801
:105A60005030117C00F2064092E5BCF806C4CCF33D
:105A7000090C9C45E14600F2FB80A3EB0C03C1F846
:105A800068317BB930F8221021F4804121F0700197
:105A90000904090C81F4005141F4004141F08001F6
:105AA00020F8221018F0400F0DD130F8223023F4E6
:105AB000E04323F070031B041B0C43F4004343F04A
:105AC000C00320F82230BCF1000F3FF4A6AC391916
:105AD00005EBC101B1F85A216346D1F8641102F017
