:020000040800F2
:10000000000004205DEA000891E8000895E8000877
:1000100099E800089DE80008A1E80008ADEA00089A
:10002000000000000000000000000000319A0108FC
:10003000A5E8000800000000C19901084D6D010805
:10004000ADEA0008ADEA0008ADEA0008ADEA000834
:10005000ADEA0008ADEA0008ADEA0008ADEA000824
:10006000ADEA0008ADEA0008ADEA0008ADEA000814
:10007000ADEA0008ADEA0008ADEA0008ADEA000804
:10008000ADEA0008ADEA0008ADEA0008ADEA0008F4
:10009000ADEA0008ADEA0008ADEA0008ADEA0008E4
:1000A000ADEA0008ADEA0008ADEA0008ADEA0008D4
:1000B000ADEA0008A9E80008B5E80008ADEA0008C4
:1000C000ADEA0008ADEA0008ADEA0008ADEA0008B4
:1000D000ADEA0008ADEA0008ADEA0008C1E8000892
:1000E000CDE80008ADEA0008D9E80008ADEA00084C
:1000F000ADEA0008ADEA0008ADEA0008ADEA000884
:10010000ADEA0008E5E80008F1E80008ADEA0008FB
:10011000ADEA0008ADEA0008ADEA0008ADEA000863
:10012000ADEA0008FDE8000809E90008ADEA0008AA
:1001300015E90008ADEA0008ADEA0008ADEA0008DC
:10014000ADEA0008ADEA000821E90008ADEA0008C0
:10015000ADEA0008ADEA0008ADEA0008ADEA000823
:10016000ADEA00082DE90008ADEA0008ADEA000894
:10017000ADEA000800000000ADEA00080000000041
:1001800039E90008ADEA0008ADEA0008ADEA000868
:10019000ADEA0008ADEA0008ADEA0008ADEA0008E3
:1001A000ADEA0008ADEA0008ADEA0008ADEA0008D3
:1001B000ADEA00080000000045E90008ADEA0008CB
:1001C000ADEA000800000000ADEA0008ADEA000852
:1001D000ADEA0008ADEA0008ADEA0008ADEA0008A3
:1001E000ADEA0008ADEA0008ADEA0008ADEA000893
:0401F000000000000B
:1002000010B5054C237833B9044B13B10448AFF350
:1002100000800123237010BD300403200000000083
:100220004CA7010808B5034B1BB103490348AFF3C2
:10023000008008BD00000000340403204CA7010822
:10024000034613F8012B002AFBD1181A0138704716
:10025000704700BF30B5214C214D83B04FF0FF33C4
:10026000022220680DF1060117F036FD022807D0A2
:100270002B78012B29D001211A480DF053FDEDE711
:1002800042F20303BDF806209A42F1D816494FF016
:10029000FF33206817F020FDBDF806108142E7D13A
:1002A000114807F08DF80028D8D12B78BDF806103A
:1002B000012B0D480DD005F001FA0128CED12B7885
:1002C000B3FA83F35B092B70C8E708480DF098FD7B
:1002D000C4E703F083FF0128C0D1F0E750050320F5
:1002E0002405032078B3010840B8002058B3010862
:1002F0002DE9F04F8A4C9BB0DFF84092DFF8448242
:10030000884E0AAF4FF0FF3328226946206817F065
:10031000E3FC2828F6D103980DF00EFF8246002852
:100320005CD1029B002B39D10098D9F8003098425B
:1003300000F0B3803A46514607F0D8F818F00AFAB0
:1003400039460246684607F0F7FF18F003FA3946C7
:10035000024668460AF0CCFB18F0FCF93946024622
:10036000684607F023F898F80030002B3ED198F843
:100370001430002BC6D06C4BD3F8D80215F0C6FE53
:100380000028BFD03946684608F03EF90128B9D1A7
:10039000D8F810300133C8F81030B3E7B3F1005F7C
:1003A000DAD1009BB3F5E06FD6D1604A60481360A4
:1003B000039B1146082B28BF08230D46D36000235A
:1003C000019AC5E905334A6008225A49AB600DF02D
:1003D000BFFE2846564903F061FDBDE702464FF0D7
:1003E000FF333946206817F077FC9AE7069BB3F590
:1003F000001F60D00121BAF1080F28BF4FF0080A92
:1004000000200D465FFA8AFADDE90132002A3BD16D
:100410003144002B6BD05423335400980DF034FD3D
:100420000544EDB2069B7119B3F5001F3BD00AF0ED
:100430000F000DF0A7FD0544EDB2BAF1000F0AD090
:10044000BB46BA441BF8010B71190DF08BFDD34567
:100450000544EDB2F6D198F80330002B36D198F868
:1004600005301BB1069BB3F5001F4FD00D23691C4F
:100470002C48C9B273550DF055FC00283FF477AFF6
:10048000002388F8003072E7002B39D052234FF058
:10049000000A335431440098C0E72749274803F045
:1004A000FDFC009846E7039800F00F000DF06AFD90
:1004B0002B18DDB2C1E7059B0221B3F5801F14BFE5
:1004C0003023312301200D4633709DE718F042F9A7
:1004D0004EF660221A4B7119A3FB00C39B0B02FB63
:1004E000130080B20DF01CFD2B18DDB2B7E77423AA
:1004F0003354009880B20DF0FDFC2B18DDB291E76B
:100500009A467223314433540098F3E7049BB3F1C5
:10051000004FABD1692373550135EDB2A6E700BF9B
:10052000C839032040B60020A42203206004032021
:10053000540403209005FA0B183B0320203B0320B2
:1005400073B2E745740103202DE9F0431F4D9BB0C2
:10055000DFF8808001AE0AAF002404EBC401C4F1CF
:1005600024024FF0FF33286806EB810117F0B4FB3B
:100570000444232CF1D904980DF0DEFD039B814641
:10058000B3F1005F00D0A0B911480FF0A3F850B14B
:100590003A4631460E480EF05DFFD8F80C30013374
:1005A000C8F80C30D8E74FF0FF32012118F068FC92
:1005B000EAE70024A9EB040239194FF0FF33286859
:1005C00017F08AFB04444C45F4D3DDE7C43903201B
:1005D0002C29032010000320F0B583B006F02CFF77
:1005E00003F060FB07F0A8FF00F0A4FE0BF02CF86E
:1005F00018F0B0F806F0D0FE18F0ACF806F0D0FE17
:10060000224813F01DF8224812F0E2FF2149224847
:100610000AF08CF9214D09F021F8214E214F05E017
:1006200001330CD10A2101A817F026FF18F092F827
:1006300032682B6801320190F2D101330BD04FF4B4
:100640007A7401E0013CEDD02846174903F026FCFE
:100650000028F7D0E6E70AF0F5FF01980AF0FAFF64
:10066000019800F069FE3B784BB1019806F0AAFEB4
:10067000019807F05FFE01980AF06EF9D2E7019841
:1006800007F02EF8019806F089FEEEE764260320B5
:10069000CC2503203C190320CC270320F43A032067
:1006A000203B032092000320EC3A03202DE9F04385
:1006B00000262B4DDFF8B490DFF8B480294FA7B0A7
:1006C00016E0630203D52B7943F080032B7198F871
:1006D000003033B10B9B23B1642016F013FC03F000
:1006E000E1FA0022022311463868009618F04AFC0D
:1006F0004FF0FF320121002018F0C2FB18F0F8FF84
:1007000019480FF03DF9044606A917480EF09EFF60
:1007100002A915480EF0C2FF5422294611A8AC6068
:1007200019F0BCFF104B1E66189BB3F5003F02D9B1
:10073000AB689A020CD418F0E9FF99F80030012B4D
:10074000BFD1234611AA06A902A807F0FDF8B8E711
:10075000012385F820300B9303F02EFBEBE700BF5D
:1007600010000320EC1D03202C290320EC3E032065
:100770005004032000232DE9F04385B05B4C5C4E10
:10078000DFF878815B4D0DF10E078DF80B3005E039
:1007900000214FF0FF32084618F072FB206817F076
:1007A000A5F90028F4D04FF0FF33012220680DF1A5
:1007B0000B0117F091FA0128EAD1206817F096F999
:1007C0000128E5D94FF0FF330222206803A917F072
:1007D00083FA0228DCD1BDF80C20B2F5845FD7D8AB
:1007E000002A56D19DF80B90B9F1000F16D117F0E1
:1007F000B1FF414B3146BDF80C2000970DF0C4F914
:10080000BDF80E30002B57D117F0A4FF31463A4BFC
:10081000BDF80C2000970DF007FAB9E717F09AFF22
:10082000354B3349BDF80C2000970DF0D5F9BDF8D4
:100830000E3023B330490A787F2A08D1022B1ED903
:100840008B78A3F11102012A19D9312B17D04FF05F
:10085000FF3302223946D8F8000017F055F94FF05F
:10086000FF332549BDF80E20D8F8000017F04CF9E9
:100870000022022311462868009218F083FB17F02B
:1008800069FF1D4B1A49BDF80C2000970DF0CCF9FB
:100890007EE74FF00009A2EB090206EB09014FF0D9
:1008A000FF33206817F018FABDF80C2081441FFAB6
:1008B00089F94A45EFD195E739464FF0FF330222D7
:1008C000D8F8000017F020F9BDF80E204FF0FF33E4
:1008D0000949D8F8000017F017F902234A4649469B
:1008E0002868CDF8009018F04DFB8DE790040320A8
:1008F000BCA500202C0B0320389500208C0403207D
:100900002DE9F843294E2A4DDFF8B08006F19C0707
:1009100006F5805905E000214FF0FF32084618F037
:10092000AFFA286817F0E2F80128F4D94FF0FF3346
:1009300002222049286817F0CFF90228EBD1B6F837
:100940009420B2F5845FE6D86AB10024121B3919ED
:100950004FF0FF33286817F0BFF9B6F8942004442D
:10096000A4B2A242F2D117F0F5FE0146124808F0F7
:10097000B7F90028CFD117F0EDFE0DF00DF80128E2
:10098000C9D0286817F0B2F80128C4D898F8003008
:1009900053B199F8230116F0B5FA17F0DBFE0CF00D
:1009A000FBFF0128B7D0ECE70A20F4E790560220BD
:1009B0008C0403202457022090460220920003203A
:1009C00010B50C490C480DF069F90A4A0B490C485E
:1009D00019F044FA084C0B494FF0FF334FF4006212
:1009E000206817F079F901460028F4D005480DF089
:1009F0006DF9F0E77C06032028050320A0220320E0
:100A00005005032044D800202DE9F04F4FF0000A94
:100A10004FF0000B254D264C264EDFF89C909DB0E4
:100A20004FF0FF32286801A916F070FD012803D0AD
:100A3000236901332361F3E7019F7B68387AC3F3AD
:100A40008071DA0F23F0604E490792075B00CDE911
:100A500006ABCDE908ABCDE90410CDF808E0039270
:100A60001AD50CA902A803F019FA80460028D7D19C
:100A700064224346306801A916F024FC0128CFD037
:100A800020694346013020614FF0FF32D9F8000061
:100A900001A916F017FCC3E7D7F80C800DF04CFB4A
:100AA000414602460CA80DF053FBDAE7700603201E
:100AB00074010320C80503201C0603202DE9F04320
:100AC0001F4F204EDFF88480DFF8849085B002E06D
:100AD0003369013333614FF0FF32386803A916F0F0
:100AE00015FD01280446F3D10399D8F8D80215F072
:100AF000ADFA0546D8B94FF0FF322B46D9F80000C1
:100B000003A916F0DFFB0128E2D1D9F8000016F0A6
:100B10008BFE044615F070F98442DCD10A4800953A
:100B200002232A462946006818F02CFAD3E7234608
:100B30006422386803A916F0C5FB0128C8D1CAE7AA
:100B4000C805032074010320EC1D0320A422032008
:100B50001C0603200022024B02481A6012F070BDEE
:100B60004C04032018260320014B1868704700BF6F
:100B70004C0403200000000010B59EB04822002164
:100B80000CA819F0E9FC00234FF40070CDE9023302
:100B9000CDE90433CDE90733CDE909330193069359
:100BA0000B9310F0DFFE08B172B6FEE701230222BC
:100BB000169311931993179210231D9207229FEDFC
:100BC0001E7BCDE91A320324042312900CA81C9337
:100BD0008DED0C7B189411F001F9034608B172B643
:100BE000FEE70F22214601A8CDE9033305930294C5
:100BF000019210F09FFF034608B172B6FEE7104A5B
:100C00004FF0005C916D4BF67F3441F0807191653F
:100C1000926D069302F080720092089322222023A4
:100C200006A8CDE90A230099CDF81CC0099412F05A
:100C300035F81EB010BD00BF290000000000010003
:100C4000001002402DE9F04194B072B64FF00062FE
:100C5000AC4B9A60BFF34F8F62B600240DF028FFB3
:100C600008F008FEFFF788FFCDE90F44CDE91144F5
:100C7000A54D1394EB6C4FF4604143F00403EB6417
:100C8000EB6C224603F004030893089BEB6C9F482F
:100C900043F08003EB64EB6C012603F080030993BF
:100CA000099BEB6C4FF4007843F00103EB64EB6CB1
:100CB000082703F001030A930A9BEB6C43F002033D
:100CC000EB64EB6C03F002030B930B9B0FF0F6FA53
:100CD000224640F201118E480FF0F0FA224641F20E
:100CE000E4018C480FF0EAFA4FF4604387480FA9FB
:100CF000CDE90F36119412940FF02CF940F2011344
:100D000083480FA9CDE90F36CDE911440FF022F940
:100D100041F2E4037F480FA9CDE90F36CDE9114434
:100D20000FF018F97A480FA9CDE90F8411960FF04A
:100D300011F979480FA9CDE90F7411940FF00AF950
:100D4000AB6C052143F00403AB64AB6C224603F0AB
:100D500004030593059BAB6C1D203343AB64AB6C64
:100D600033400693069BAB6C43F00203AB64AB6C61
:100D700003F002030793079B0DF0D0FE1D200DF03A
:100D800007FF224605211E200DF0C8FE1E200DF093
:100D9000FFFE2246052150200DF0C0FE50200DF030
:100DA000F7FE20460FF012FE08B172B6FEE70FF014
:100DB00021FE034648B959484360594B036011F07E
:100DC00095FF034618B172B6FEE772B6FEE7102231
:100DD0004FF4407E4FF03C0C042113250F24514862
:100DE00082618262504A4360C3608374C36313703C
:100DF0004E4BC0E907C50360C0E90B41C0E90D6671
:100E0000068246614662C0F808E00EF055F90346D6
:100E100058BB07224FF0FF314FF482754FF4E06466
:100E20004348C0E90A32434AC0E90433C2E9053302
:100E3000C2E90133D36011603F4AC0E90833C2E917
:100E40000533C2E9013383600363D3603B4BC0F8D1
:100E500018800360C76147634560C460116012F089
:100E600069F9034618B172B6FEE772B6FEE7344878
:100E7000344AC0E905338380026006620DF0BAFE91
:100E8000034608B172B6FEE74FF4027102222E4803
:100E9000C3722E4B81800360C0F807200FF0B4FDB1
:100EA000034608B172B6FEE741F63F75284C294A61
:100EB000CDE90F0011902046C4E90133A3612260FF
:100EC000E56012F0ADFD034608B172B6FEE72046BC
:100ED0000FA90F93119312F0D5FD034608B172B616
:100EE000FEE71D481D4ACDE90F33026042F20F7242
:100EF000C0E9023511938361426012F091FD78B32D
:100F000072B6FEE700ED00E0001002400008024269
:100F10000000024200040242001C0242302803206A
:100F200000080C422C2903205004032000A4004098
:100F3000CC270320203B0320F43A03200038004054
:100F40009029032000300240A422032000D4004056
:100F500018260320001400406426032000100040DF
:100F60000023A2480FA90F93119312F08BFD0346A3
:100F700008B172B6FEE74F254FF6FF749C48C0E9F2
:100F80000433836083619B4BC460C0E9003512F079
:100F900047FD034608B172B6FEE79748C0E9015322
:100FA000C0E90343C0E90533944B036012F038FDF8
:100FB000034608B172B6FEE74FF080414FF0FF32B2
:100FC0008F4CCDE90F00CDE91100C4E901000CAD53
:100FD0000C902061A0612046C5E901332160E260E8
:100FE00012F01EFD08B172B6FEE74FF480532046A2
:100FF0000FA90F9312F062FB034608B172B6FEE729
:10100000204629460C930E9312F03CFD044608B18D
:1010100072B6FEE77B487C4900902246CDE9014448
:101020007A4B0C7043F69820012116F007FD054617
:10103000774E784A00960121CDE90144764B156040
:1010400043F69820224616F0F9FC0546734E744A82
:1010500000960121CDE90144724B156041F2010077
:10106000224616F0EBFC02466F4E704D00960121B1
:10107000CDE901446E4B2A6041F20100224616F090
:10108000DDFC6C4B6C4A01210092CDE90144224603
:1010900018606A4B43F6982016F0D0FC684B694AFA
:1010A00001210092CDE9014422461860664B43F6C7
:1010B000982016F0C3FC654B654E1860204607F07B
:1010C00007FA204607F01EFA07F070FA17F042FB05
:1010D0002A46604B6049009607F01AF95F480AF00B
:1010E0002FFE5F4806F03EF95E485F4A5F4902F016
:1010F000BFFD0FA80F9407F0A7F910B90F9B002BA5
:101100006FD015F031FE0421594A4FF4007015F0EC
:1011100017FF0446574B0421574A4FF400701C60D8
:1011200015F00EFF0446554B0421554A4FF400704C
:101130001C6015F005FF534B186018F071FD00217D
:10114000514A524815F060FE0446514B0021514A65
:1011500051481C6015F058FE0446504B0021504A7F
:1011600050481C6015F050FE0446404B00214E4A8A
:101170004E481C6015F048FE04464D4B00214D4A78
:101180004D481C6015F040FE0446374B00214B4A89
:101190004B481C6015F038FE04462F4B0021494A8D
:1011A00049481C6015F030FE0446484B0021484A6F
:1011B00048481C6015F028FE0446474B0021474A6A
:1011C00047481C6015F020FE0446464B0021464A65
:1011D00046481C6015F018FE454B186015F0E6FDFA
:1011E000FEE7444807F008F98BE700BF64260320B8
:1011F000CC25032000440140802503200048014005
:10120000B02603205405032024050320DC1A012006
:101210002C0503205005032044E000200005032096
:101220002805032034850020DC04032090040320DB
:10123000307500208C040320B8040320983A002065
:10124000C83903209404032000000020C43903207F
:101250008404032088040320DC0F032030280320AB
:10126000902903202C2903208C140320EC1D03203B
:1012700060E601087006032048E601081C0603200A
:1012800030E60108C8050320BCE701085502000844
:10129000A022032098E70108F10200089C22032005
:1012A00074E701084905000850E70108D90500085E
:1012B0003C1903202CE70108AD06000808E70108E7
:1012C00075070008E4E60108010900082C0B03205B
:1012D000C0E60108C10900087C0603209CE601085D
:1012E000090A00087806032078E60108BD0A00080C
:1012F00074060320040029C0094A0368934206D0FB
:10130000084A93420AD0084A934205D07047074AD8
:10131000136801331360704706F05CB80DF0DABB58
:1013200000140040002C0140001000404C04032039
:1013300072B6FEE7704700BF034B044A1B68D07DBE
:101340001B6803491B6D1847200103207000032010
:10135000283E032040F69E732DE9F047DFF89CA05D
:101360002349244ADAF80040B1F800E012889C4290
:1013700004FB0E2238D800204FF0804140F69F76C3
:101380004FF030083127DFF878901B4D09EB040C43
:101390004B6A9342FCD32B69013013F48073C0B2C3
:1013A00004F1010472440ED118468CF80080B44256
:1013B0000CF1010CECD10120CAF80040002309F81F
:1013C0000430BDE8F0870A288CF80070EFD9142C9F
:1013D00002D80CF1010CDBE7002309F804300020EF
:1013E000CAF80040BDE8F0870120DFF81490E5E777
:1013F0000A0003200800032000040242202A0320E0
:10140000242A032070B500244FF0804101254FF6B7
:10141000FF7086B0CDE90044CDE9024404940A6827
:101420001A4E22F001020A603288194B013A8A6290
:101430004C624D610A682A430A601A6822F0010270
:101440001A6098625C625D611A682A431A6002F051
:10145000B3FC2A464FF400710E480EF02FFF4FF4F4
:101460008072002369460B48CDE9002302940EF0F8
:1014700071FD4FF40073032269460648CDE900353B
:10148000039202940EF066FD06B070BD0C000320BE
:101490000048014000040242F0B5BDF81440012CA0
:1014A00045D94FF0300C0127013C83F800C00029DA
:1014B0003FD10A263D4604E08C4675460127013E91
:1014C00015D320FA06F101F0010105F1010EA54244
:1014D00001F130011FFA8EFE29DA8C455955EBD106
:1014E0000137FFB2052F4FD0013E7546E9D2002AE1
:1014F0000CBF30263126A54219DA691CB4455E5569
:1015000089B200F0C1800127A14210DA30224D1CBF
:101510009642ADB25A5400F0D980A54207DA881C31
:1015200080B25A5500221A54F0BDA54239DB002082
:10153000F0BD1C263D4605E08C4675460127013E60
:10154000112EF2D020FA06F101F0010105F1010E91
:10155000A54201F130011FFA8EFEE8DA8C4559559B
:10156000EAD10137FFB2052F01D07546E7E7CCF18C
:10157000610CA6455FFA8CFC05F10205D7DA01275C
:1015800003F80EC0ADB2DAE7CCF1610CA6455FFA04
:101590008CFC05F10205CADA012703F80EC0ADB2D2
:1015A0008DE74FF0310E691CF44589B203F805E070
:1015B0004FD0A142BBDA03F801E0A91CF446022790
:1015C0001FFA81FE04E08C46AE460127013E22D37D
:1015D00020FA06F101F00101A64501F13001A6DA79
:1015E0000EF10105614503F80E10ADB2EBD10137E4
:1015F000FFB2052F01D0AE46E8E7CCF1610CA54261
:101600005FFA8CFC0EF1020E91DA012703F805C097
:101610001FFA8EFEDAE7002A0CBF30253125A645D9
:1016200085DA0EF10102AC4503F80E5092B262D099
:101630000121A242BFF67BAF3027561CBD42B6B295
:101640009F5477D0A642BFF672AF023290B29F5538
:1016500068E7042F28D0A142BFF669AF0237FFB276
:1016600005F1020E052F03F801C01FFA8EFEAFD15F
:10167000A645BFF65CAF4FF0300C033503F80EC043
:1016800001271FFA85FEA3E70137FFB2052F7FF47C
:101690003BAFA142BFF64BAFC6F16106F6B20235D1
:1016A0005E540127A9B22FE7A142BFF640AF302711
:1016B0005F54A91C89B28C427FF739AF05F1030E44
:1016C000012703F801C01FFA8EFE81E77A1CD2B20F
:1016D000052A21D0A542BFF62AAF881C042A5E55F0
:1016E00080B27FF41FAFA042BFF621AF3122033199
:1016F0001A5488B216E7791CC9B2052999D1A242B9
:10170000BFF615AFC5F16105EDB20EF1020E9D54A5
:1017100001211FFA8EF28CE7A542BFF608AF3122F5
:101720005A558A1C92B294427FF701AFC81C80B20E
:101730009E54F7E60131C9B2052910D0A642BFF682
:10174000F6AE9D55042902F10205ADB215D1A542B0
:10175000BFF6EDAE3121033290B25955E2E6A64212
:10176000BFF6E5AE31219955911C89B2A142BFF671
:10177000DEAE033290B25D54D4E62846D2E600BF16
:101780004B4B1868831C70D02DE9F04FC71C91B0EB
:1017900077D0411C02D14FF000090BE03024454BBB
:1017A000454A1978127804AB0094FFF775FE81461C
:1017B000002860D04FF0804C404B414A1B88B2F863
:1017C00000A003933F4B0AEB8A0E1F883E4B3F4914
:1017D0001C683F4E4FEA4E0E0B69DA05FCD5DCF86B
:1017E000242092B20B69DB05F6D5DCF824309B1A75
:1017F0009E45F7D80B6913F4807306D0736ABB4219
:101800002DD80B6913F48073F8D1CCF82430B9F1DA
:10181000000F1AD01C464FF08040039ADFF8B880C2
:10182000DFF8A8B004AD436A9342FCD3DBF8103074
:10183000524413F4807F15F8013B0DD0312BCBD1EE
:101840000134A14508F8013BEDD11F4BC3F80090CE
:10185000002011B0BDE8F08F302BF1D0BCE70120A3
:10186000194B1C6011B0BDE8F08F4FF0804300228F
:1018700000205A62704717480CF0C2FA4FF0000976
:1018800098E74FF080440E4B104A188800EB800018
:1018900040001369DE05FCD5616A89B21369DD0574
:1018A000F7D5636A5B1A8342F8D300236362CFE7FC
:1018B000040003201D2A03201C2A03200800032003
:1018C0000A00032000000320202A03200004024213
:1018D000004801405CB40108242A032002783AB38E
:1018E0004FF0000C30B56346864631250BE02A2ABE
:1018F00007D10CF1010C1FFA8CFC8EF8005000EBA4
:101900000C0EC25C82B1A2F13001013301290CF14D
:1019100001049BB2EBD88EF80020C25C1FFA84FC55
:1019200000EB0C0E002AEED100238EF8003030BD03
:1019300000230370704700BF70B504460CF032FC02
:1019400014281ED900F1FF3E1FFA8EFE14F80E3047
:1019500004EB0E05312B2A4615D1831E9BB200EBFA
:10196000040C0CEB03002A262344A0EB0E0005E038
:1019700016701A461178013B312906D1C11A0C297B
:10198000F6D9002070BD00EB040C00222046012691
:10199000144610F8013BA3F1300101292FD862B39E
:1019A00086B3052A42D0A3420FD0312B5ED08445A6
:1019B00015D010F8011B0122A1F13003012B79D8B9
:1019C00030231C460B46A342EFD10132312CD2B258
:1019D00056D084454FF001064FF03004D9D10FFAAC
:1019E0008EFEBEF1000F06DB2A4615F801392A2BC0
:1019F00058D05F2B37D0012070BD1C460122844592
:101A0000C7D1ECE7A3420DD08445E8D010F8011B04
:101A10001C46A1F13002012A22D80B46A3424FF006
:101A20000102F1D101320026D2B2E8E7A342A8D0E8
:101A30005F23844500F8013CD1D0034613F8011B15
:101A4000A1F13002012A20D86345C8D0437832463C
:101A5000A3F13004012C00F102000C46A0D9CEE71E
:101A600000260122CBE730231370C4E78445B6D0AB
:101A700010F8011BA1F13002012A1ED80122A0E7B3
:101A8000062A8CBF00260126B9E76345A7D01A783D
:101A90000230A2F13003DBB2012B96BF14460022C4
:101AA0003246ACE70EF1FF3E0FFA8EFEBEF1FF3F6D
:101AB0009AD1A0E730241646A1E701221C4616461B
:101AC0009DE700BF70B571B3002344F2995600F151
:101AD000FF3C0CEB01051CF8012F5C00A2F1310268
:101AE000B2FA82F24FEA933E47F6FE73520972450C
:101AF00003EA040318BF7340AC45ECD14A1E00F161
:101B00000E0C024400208C4412F8011F40003129C1
:101B100008BF40F00100944580B2F5D1C01AB0FA78
:101B200080F0400970BD0B46E8E700BF2DE9F04F9B
:101B30008FB004460CF036FB122840F24B8123781C
:101B4000302B05D0B4480FB0BDE8F04F0CF058B9B9
:101B5000074606AEB1480CF053F90025314623463E
:101B600004F10B0C13F8012FA2F13100B0FA80F050
:101B70009C454FEA501001F8012B40EA4505F1D190
:101B80004FF00008A6488DF823800CF039F906A81C
:101B90000CF036F9A3480CF033F903A928460CF0F1
:101BA00073F903A88DF814800CF02AF99E480CF004
:101BB00027F994F80CA09D48657B8DF819808DF865
:101BC00018A00CF01DF906A80CF01AF998480CF0B2
:101BD00017F998488DF818500CF012F906A80CF077
:101BE0000FF993480CF00CF9312D40F0FD80262FB1
:101BF00040F2F680454606AA04F10D010DF12A00D7
:101C000011F8013F02F8013BA3F13103B3FA83F36A
:101C100090424FEA531343EA4505F1D14FF00008D3
:101C200085488DF82A800CF0EBF806A80CF0E8F84F
:101C30007C480CF0E5F803A928460CF025F903A828
:101C40008DF814800CF0DCF877480CF0D9F894F893
:101C500020A07A488DF819808DF818A00CF0D0F8E3
:101C600006A80CF0CDF872480CF0CAF894F82130B0
:101C700073488DF818300CF0C3F806A80CF0C0F8C3
:101C80006B480CF0BDF894F822306E488DF818308F
:101C90000CF0B6F806A80CF0B3F865480CF0B0F8F4
:101CA0002322002504F1040C06A89444A11811F87D
:101CB000013B00F8013BA3F13103B3FA83F38C45F8
:101CC0004FEA531343EA4505F1D14FF000095E484E
:101CD00002F1040801928DF81C900CF091F806A80E
:101CE0000CF08EF8EDB24F480CF08AF803A92846A4
:101CF0000CF038F903A88DF80E9008EBC50B0CF02A
:101D00007FF849480CF07CF80BF10F03BB42019AB5
:101D100000F2E780BAF1300F00F0A680002506A996
:101D20000BF1FF30204401F10F0710F8012F01F8EB
:101D3000012BA2F13102B2FA82F28F424FEA521223
:101D400042EA4505F1D10027404801938DF82770FC
:101D50000CF056F806A80CF053F832480CF050F886
:101D600003A9A8B20CF0DCF803A88DF810700CF0F1
:101D700047F837480CF044F859462046FFF7A2FED2
:101D8000019B002840D033480CF03AF8019BE25CFC
:101D9000E118A2F13003012B98BF012303D916E00B
:101DA0000133202B36D006F8012B11F8012FA2F1B8
:101DB00030000128F4D900226B4427481A760CF031
:101DC0001FF806A80CF01CF819480CF019F80FB011
:101DD000BDE8F08F21480FB0BDE8F04F0CF010B80F
:101DE0001F480CF00DF8F2E7A37B16488DF8183069
:101DF0008DF819800CF004F806A80CF001F80C48D6
:101E00000BF0FEFF0F224CE7164801930BF0F8FF92
:101E1000019BBCE71F23CEE798B40108ACB40108CE
:101E2000C0B40108D0B4010818DC0108D8B4010816
:101E3000E8B40108ECB4010810B5010820B50108A8
:101E400030B5010840B5010850B501088CB501084E
:101E50009CB50108A0B50108B4B5010884B4010817
:101E6000FCB40108A8B50108082D3FF657AF002DB6
:101E70003BD06B1EDBB20C3202EBC30B0DF11F0724
:101E800000250DF1170204EB080111F8013B02F8DF
:101E9000013FA3F13103B3FA83F397424FEA53139F
:101EA00043EA4505F1D113488DF820900BF0A8FFC7
:101EB00006A80BF0A5FF10480BF0A2FF03A9E8B29B
:101EC0000CF050F803A808F108088DF80E900BF0FC
:101ED00097FF0A480BF094FFC345D1D10BF10F03D4
:101EE0001CE707480BF08CFF71E7C34602F11303B0
:101EF00014E700BF7CB50108D0B4010818DC010864
:101F000060B50108002800F0F98030B583B00446C0
:101F10000CF048F90130235C25180BB9012038E09A
:101F2000204677490CF056F948BB204675490CF01D
:101F300051F920BB204674490CF04CF9002856D1C9
:101F4000204672490CF046F9002862D00A21284642
:101F50000DF107020CF0A8F99DF80730002BDDD039
:101F60004FF6FE73421E9A42D8D8694B80B21A8847
:101F70006849824208800BD34008188008E0284650
:101F800065490CF027F930B16FF00102634B1A601C
:101F9000002003B030BD284661490CF01BF920B188
:101FA0004FF0FF325D4B1A60F2E728465D490CF0B6
:101FB00011F920B16FF00202584B1A60E8E71021C6
:101FC00028460DF107020CF06FF99DF80730044622
:101FD000002BA3D0B0F1005FA0D2B0F5006F03D307
:101FE000514B1A78002A50D04C4B1C60D0E70A2184
:101FF00028460DF107020CF057F99DF80730002B29
:102000008CD04FF6FE73421E9A4287D8474B1880F9
:10201000BEE7204646490CF0DDF890B10A2128467B
:102020000DF107020CF040F99DF80730002B3FF44A
:1020300075AF384B1B8883427FF670AF344B1880E6
:10204000A6E720463B490CF0C5F880B128463A493E
:102050000CF0C0F8002837D0304B384A1B68A3F585
:102060000063934246D900222F4B1A7090E7204616
:1020700033490CF0AFF870B128462F490CF0AAF89C
:1020800068B300222F4B1A7082E701222E481A7083
:102090000BF0B6FEA8E720462C490CF09BF8002870
:1020A0003FF43CAF0DF107020A2128460CF0FCF882
:1020B0009DF80720002A3FF431AFB0F5803FBFF410
:1020C0002DAF234A108063E7284622490CF082F89E
:1020D00000283FF423AF0122134B1A7058E728461B
:1020E0001C490CF077F800283FF418AF0122154B7B
:1020F0001A704DE718480BF083FE0FE70120704778
:10210000C4B50108D0B5010810B601081CB6010815
:10211000080003200A000320CCB5010804000320B6
:10212000D8B50108DCB501081D2A03200C000320E6
:1021300028B6010838B6010844B60108FFF7FF1FAA
:1021400074B601081C2A0320E4B5010878B601081A
:102150000000032070B6010848B6010810B53648E3
:1021600084B00BF04DFE354B01A918880CF0CAF86D
:1021700001A80BF045FE324C32480BF041FE3248CC
:102180000BF03EFE01A920680BF07EFE002301A8A3
:102190008DF80C300BF034FE2368991C40D05A1C8B
:1021A00042D0033344D029480BF02AFE284B01A922
:1021B00018780CF0A7F801A80BF022FE25480BF0C8
:1021C0001FFE254B01A918780CF09CF801A80BF014
:1021D00017FE22480BF014FE214B01A918880CF0C1
:1021E00091F801A80BF00CFE1E480BF009FE1E4BE7
:1021F00001A918880CF086F801A80BF001FE1B4815
:102200000BF0FEFD1A4B01A918880CF07BF801A811
:102210000BF0F6FD17480BF0F3FD002004B010BDE5
:1022200015480BF0EDFDBEE714480BF0E9FDBAE7E9
:1022300013480BF0E5FDB6E780B601080000032067
:10224000040003208CB6010894B60108B4B6010856
:102250001D2A0320C0B601081C2A0320C8B60108A5
:102260000C000320ECB601080A000320FCB60108AC
:1022700008000320E8B401089CB60108A4B60108D0
:10228000ACB601082DE9F0410026104D104FFFF7C4
:10229000B9F86E626A6A3B889A4212D24FF0804463
:1022A000DFF83480B8F800206662636A9342FCD39A
:1022B0004FF4007107480EF007F86A6A3B889A42AB
:1022C000F0D301F0EFFC0020BDE8F08100480140B0
:1022D00000000320000402420A0003202DE9F04F11
:1022E0007A4B91B01B88B3F57A7F60D9FFF78AF8F3
:1022F00072B6774B1868831C00F0D780C71C6DD06E
:10230000411C5BD14FF000094FF0804C714B724A79
:102310001B88B2F800A00393704B0AEB8A041D6877
:102320006A4B6F49B3F800E06E4F64000B69DA0541
:10233000FCD5DCF8242092B20B69DB05F6D5DCF87D
:1023400024309B1AA342F7D30B6913F4807307D090
:102350007B6A734500F2B1800B6913F48073F7D187
:10236000CCF82430B9F1000F1AD01D464FF0804050
:10237000039ADFF88C81DFF868B104AE436A9342B8
:10238000FCD3DBF81030524413F4807F16F8013B85
:102390000AD0312BCAD10135A94508F8013BEDD14E
:1023A0004E4BC3F8009032E0302BF4D0BEE74E48DD
:1023B0000BF026FD002011B0BDE8F08F30244B4B10
:1023C0004B4A1978127804AB0094FFF765F8814600
:1023D000002899D147480BF013FD93E74FF0804454
:1023E0003D4B3F4A188800EB800040001369DE0532
:1023F000FCD5616A89B21369DD05F7D5636A5B1A9A
:102400008342F8D300236362304BB3F800E0002628
:10241000344D6E626B6A73452FD22E4B4FF0804164
:10242000B3F800C02C4B2E4C1F8802E06B6A73453A
:102430002ED2236913F48073F8D162461846D5F87A
:1024400024804B624B6A9342FCD32369013013F41E
:102450008073C0B219D00B283A44F3D1A2EB0C021E
:102460004B6A9342FCD36B6AA3EB08031E446B6A6E
:102470007345DED3204B03FB06F662B601F012FC77
:10248000124B1B88B6FBF3F095E718463A44D9E7A0
:1024900062B601F007FC184B0C4A06FB03F31088E8
:1024A000B3FBF0F011B0BDE8F08F4FF08043002295
:1024B0005A62064BB3F800E0A9E7084B1D6062B60C
:1024C0000E480BF09DFC01F0EDFB73E700000320CC
:1024D00004000320080003200A000320202A032010
:1024E000000402420048014010B701081D2A0320E1
:1024F0001C2A03205CB40108A08601002CB7010847
:10250000242A03202A4B70B51B680333012B37D9CB
:10251000FEF778FF72B60022264B5A62FFF730F9B9
:1025200028BBFEF717FF044600283AD162B6224EB8
:102530003368072B2ED9214D28460BF061FC20482B
:102540000BF05EFC33682846EC54FFF7F5F9D8B180
:1025500028460BF055FC1B480BF052FC2846FFF7B1
:10256000BDF9FFF7E3FA01F09DFB204670BD62B6AE
:1025700015480BF045FC01F095FB0124204670BD89
:1025800012480BF03DFCF8E711480BF039FC01F064
:1025900089FBF3E70F480BF033FC01F083FB204687
:1025A00070BD62B60C480BF02BFC01F07BFBE4E73E
:1025B0000400032000480140202A0320242A03208D
:1025C000C0B70108D8B7010874B7010840B70108BF
:1025D000C8B70108A8B7010890B701082DE9F04F66
:1025E00091B0FEF70FFF72B600254FF080427049A0
:1025F0007048714B556205604D621868811C00F08F
:10260000A180C31C00F0B380421C7FD1AB464FF0C9
:10261000804E6A4B6A481E886A4B06EB86041A880D
:10262000694BDFF88C81B3F8009064000369DB0527
:10263000FCD5DEF8241089B20369DF05F6D5DEF893
:1026400024305B1AA342F7D3036913F4807307D0D5
:10265000D8F824304B457ED8036913F48073F7D142
:10266000CEF82430BBF1000F00F09B801D46574B85
:1026700011469A464FF0804703930DF1100C7B6A88
:102680008B42FCD34E4B31441B6913F4807F1CF802
:10269000013B54D0312BC9D10135AB450AF8013B80
:1026A000EDD1444B06FB0B22C3F800B040F69E73FD
:1026B0009B451AD84FF080414FF0300C3127039BD7
:1026C0000BF1FF30424D3E4C18444B6A9342FCD311
:1026D0002369DB052DD500F8017FA8423244F4D1EF
:1026E00040F69F739B46334A13600024039B03F814
:1026F0000B4062B601F0D6FA34480BF081FB354846
:102700000BF07EFB204611B0BDE8F08F324B334A10
:10271000197830231278009304ABFEF7BDFE834690
:1027200000287FF474AF2E480BF06AFB214B1D6824
:102730006DE700F801CFA8423244C6D1D0E7302B74
:10274000AAD073E71D4B1F491E88204B5562AB462C
:102750000A880393AEE7174B1D6062B621480BF061
:102760004FFB01F09FFA012011B0BDE8F08F134B31
:1027700013491E8806EB860464000B69DF05FCD54F
:10278000506A80B20B69DD05F7D5536A1B1AA34264
:10279000F8D300230B490D489B46039053620A88E7
:1027A00088E70A4B0393034BC3F800B082E700BFEE
:1027B00000480140202A0320040003200A000320CF
:1027C000000402420800032000000320242A032002
:1027D000C2390320E8B401081D2A03201C2A032063
:1027E0005CB401082CB70108002800F019812DE91C
:1027F000F04F95B083460BF0D5FCB0F57A6F28BF4B
:102800004FF47A60894E81463368033340F0C480C8
:10281000FEF7F8FD72B600254FF08044844B6562E8
:102820005D623068834B1D60831C00F0E380C71C31
:1028300000F0C580471C00F0BA80302300937E4B27
:102840001A787E4B197808ABFEF726FE82460028E0
:1028500000F0AF807A4B4FF0804E1A8879491346CA
:10286000098802EB8204059177497848B1F8008025
:102870006F4F64000169CE05FCD5DEF82460B6B266
:102880000169C905F6D5DEF82410891B8C42F7D8FA
:10289000016911F4807107D0796A414500F2B48072
:1028A000016911F48071F7D1CEF82410BAF1000F4C
:1028B00000F0B8804FF0804C0D466549059E0691AA
:1028C000049108A903910794DCF82410B142FBD3CA
:1028D0005E49039C0969164411F4807F14F8011BBA
:1028E000039460D0312960D1049C013504F8011BA8
:1028F000AA450494E8D105990024114418464FF0E4
:1029000080424FF4007E4FF0300840F69F7C494DE6
:10291000504E4E4F2C60556A8542FCD3A1453FD99D
:102920001BF80450312D3BD0302D04D14FF0007AEC
:10293000464DC5F818A0556A8D42FCD33D69013457
:10294000ED0544BF312506F8015F3A4D58BF06F842
:10295000018F64452C6018441944DCD14FF47A602F
:1029600000224FF0804100FB03F3069880F89F2F70
:102970004A6A9A42FCD34FF40072344B9A6162B6B1
:1029800001F090F932480BF03BFA33480BF038FA7B
:10299000002015B0BDE8F08F30480BF031FA37E772
:1029A000C7F818E0C7E730299ED0079C62E7AA461F
:1029B00050E72B480BF024FA1E4B1D684AE7204BCA
:1029C000224D1A88134602EB820149002869C60588
:1029D000FCD5666AB6B22869C005F7D5606A801B67
:1029E0008842F8D300216162164909880591184987
:1029F000069180E7124A134B12881B8814496562BE
:102A000005930691134676E70A4B1D6062B615489A
:102A10000BF0F6F901F046F9012015B0BDE8F08F92
:102A2000012070470A49069165E700BF04000320B2
:102A300000480140202A03201C2A03201D2A0320CD
:102A40000A000320080003200000032000040242C3
:102A5000242A0320232A0320E8B40108E8B7010848
:102A60005CB4010874B701082DE9F04F91B0FEF78E
:102A7000C9FC72B600229C499C4B4A621868831CB0
:102A800000F01881C71C00F04981441C02D14FF0AE
:102A9000000E0CE03024964B964A1978127804AB5D
:102AA0000094FEF7F9FC8646002800F017814FF0ED
:102AB0008044914A914B1288B3F800C00392904B26
:102AC000904A0CEB8C05B2F800B01E688E49864F18
:102AD0006D000A69D005FCD5606A80B20A69D2052A
:102AE000F7D5626A121A9542F8D80A6912F4807210
:102AF00007D07A6A5A4500F2D2800A6912F48072CD
:102B0000F7D16262BEF1000F00F0258116467F4AC0
:102B10004FF080489146039802920DF1100AD8F8C0
:102B200024208242FBD3784A6044126912F4807FE9
:102B30001AF8012B00F0AA80312ACAD10136B64515
:102B400009F8012BEBD1039A0CFB0E2200244FF065
:102B5000804040F69E764FF0310830276A4D416A3A
:102B60009142FCD32969013411F480710AD1B64530
:102B700098BF029C624498BF04F80E700C460EF198
:102B8000010EECE7B64598BF0299624498BF01F880
:102B90000E80092C0EF1010EE1D10399DFF848A156
:102BA000594EC3F800E0511A0393DAF8240058454F
:102BB00033D840F68E739E452FD8029B0EF1FF3519
:102BC0001D4400204FF080434FF031094FF0300892
:102BD0000EF101045F6A8F42FCD3052894BF4FF0C9
:102BE00000774FF40077B7615F6A9742FCD337698B
:102BF0006144FF0554BF05F8018F05F8019FDAF81D
:102C0000247062445F4504EB000ECED801301028DA
:102C1000E0D1DAF824305B45CBD94FF08042039BFA
:102C2000C3F800E0536A8B42FCD32F4C636A5B45C8
:102C300018D84FF0804300274FF000764FF400750E
:102C40000CEB4C01304849004FEA0C1C5F62866176
:102C50005A6A8A42FCD385615A6A6245FCD3626A29
:102C60005A45F3D9BEF57A6F14D20023029A02F8BE
:102C70000E3062B601F016F824480BF0C1F8244873
:102C80000BF0BEF8002011B0BDE8F08F302A3FF401
:102C900055AF1EE70023029A82F89F3FE9E71E60C6
:102CA00062B61C480BF0ACF800F0FCFF012011B03C
:102CB000BDE8F08F4FF08045104C144E104B0E487D
:102CC0001049B4F800C002966A620288D3F800E0A6
:102CD0000392B1F800B00EFB0C2237E70E480BF060
:102CE0008FF84FF0000EE2E6004801400400032098
:102CF0001D2A03201C2A0320080003200A000320A9
:102D0000202A03200000032000040242242A03207A
:102D1000E8B4010874B701085CB401084FF08042C0
:102D20000F4B1048B3F800C00CEB8C01490003694D
:102D3000DE05FCD5546AA4B20369DD05F7D5536AF4
:102D40001B1B8B42F8D30024074D084B0295084803
:102D500008495462B9E70449039A0291F6E600BFB4
:102D60000A00032000040242242A0320202A032010
:102D700008000320000003202DE9F04FA24C93B07F
:102D800023680333012B40F214818346FEF73AFB9C
:102D900072B600264FF080429C4B5E629C4B1E60D8
:102DA00056622068811C00F02581C31C00F04A8116
:102DB000421C72D134464FF0804C964BDFF864A22F
:102DC0001D88954B05EB850E1B8894490593944B04
:102DD000DFF83882B3F800904FEA4E0E0B69DB053E
:102DE000FCD5DCF8242092B20B69DF05F6D5DCF8BF
:102DF00024309B1A9E45F7D80B6913F4807308D0D2
:102E0000D8F824304B4500F2C6800B6913F4807368
:102E1000F6D1CCF82430002C00F02E814FF0804009
:102E20001E46804B06AF059A04930397436A93426C
:102E3000FCD37A4B039F1B692A4413F4807F17F855
:102E4000013B03973BD0312BC8D1049F013607F8D3
:102E5000013BB4420497E9D16D4B1C60059B05FB17
:102E6000043300264FF0804240F69E7C4FF031093B
:102E70004FF03008694F0BF1060E516A9942FCD3AE
:102E80003969013611F4807104F101001AD16445E9
:102E900021D90E4604462B44EFE7634B1A783023C2
:102EA0000093624B197806ABFEF7F6FA0446002849
:102EB00081D15F480AF0A4FF554B1E687BE7302B99
:102EC000C3D08BE7644598BF0AF80490B6452B44FD
:102ED00007D90446D1E70AF804800E4601342B4492
:102EE000CBE701464FF08040059A9E1A426AB242F3
:102EF000FCD34FF000774FF08040484A9761426A18
:102F00009A42FCD3454A0234126912F4807F40F69B
:102F10009E7255D1914261D93D48944204602E443D
:102F20002B4442D84FF080424FF4007C4FF03108E0
:102F30004FF0300E3F4F394C5144506AB042FCD3F1
:102F4000C4F818C0506A8342FCD82069C0051BD45D
:102F500001F801EFB9422E442B44EED140F69F73A5
:102F60002B4A136040F69F7300220AF8032062B6D2
:102F700000F098FE2B480AF043FF2F480AF040FF6C
:102F8000002013B0BDE8F08F01F8018FB9422E4444
:102F90002B44D2D1E2E71E4B28481C461E600AF0A3
:102FA0002FFF2368B3F57A6FDED300238AF89F3FA3
:102FB000DDE723480AF024FF012013B0BDE8F08FBD
:102FC0009142A9D8124A2E44146031220AF80120F5
:102FD00040F69F7294422B44A4D1C3E70C4A2E447E
:102FE000146030220AF8012040F69F7294422B446C
:102FF00098D1B7E7084B56621B88064A34461588B5
:10300000DFF820A005932CE70400032000480140CE
:10301000202A03200A0003200800032000040242A3
:1030200000000320242A03201C2A03201D2A032039
:103030005CB40108C2390320E8B401082CB80108C7
:1030400018B801080D4B0E491D8805EB8504640076
:103050000B69DF05FCD5506A80B20B69DE05F7D538
:10306000536A1B1AA342F8D30024064B54621B88F0
:10307000DFF814A00593F4E6059BF2E60A000320AE
:103080000004024208000320242A03209B4B2DE960
:10309000F04F1B6893B00333012B40F2248181462B
:1030A000FEF7B0F972B60023DFF87CB2944ACBF891
:1030B0002430DBF824301688B34280F0DA80914C5B
:1030C00009F1060900274FF080428C4B57621D68BA
:1030D0008D4BA91C1F6000F0D680EB1C00F0E48033
:1030E000691C00F0CD8030230093884B28461A7865
:1030F000874B197806ABFEF7CFF98246002800F01F
:10310000CB8038464FF08047824BB3F800E0824BCB
:103110000EEB8E0C1B884FEA4C0C04932369DA05E6
:10312000FCD57A6A92B22369DB05F7D57B6A9B1AD4
:103130006345F8D3236913F4807308D0DBF8243097
:10314000B34200F2CA80236913F48073F6D17B6224
:10315000BAF1000F00F0C4804FF0804118466F4B69
:10316000049A03930DF1180805954B6A9342FCD31A
:103170002369724413F4807F18F8013B1FD0312B70
:103180001FD1039D013005F8013B82450395ECD129
:10319000DDE9043500FB0E3200274FF0804101309D
:1031A0004B6A9342FCD32369013713F4807300F117
:1031B000010C08D0B945724409D96046F0E7302BBC
:1031C000DFD0059DAAE71F4672440130E8E74FF0C3
:1031D00080414D4B1860049BD21A4B6A9342FCD33A
:1031E0004FF000734FF080417244A3614B6A9342E9
:1031F000FCD34FF4007CC4F818C0DBF82430B34291
:1032000037D202357FF45EAF4FF080414FF0000EB1
:103210004FF0007B3F4B3B4D1F883F4BDFF808A131
:10322000B3F80080002442462046C1F824E0C1F8EB
:1032300024E04B6A9A42FCD82B69013013F4807366
:1032400058D0814504F101043A44F2D8A2EB0802B7
:103250004B6A9A42FCD8C5F818B03A444B6A9A4275
:10326000FCD8C5F818C0DAF824309E42DAD8264BCC
:103270001C6062B600F016FD002013B0BDE8F08FB0
:103280003846BA463EE7244B57621A88214B3846E7
:10329000B3F800E004927FE721480AF0B1FD184B33
:1032A0001E88194B18682DE71A4B1649B3F800E031
:1032B0000EEB8E077F000B69D805FCD5506A80B2F3
:1032C0000B69DB05F7D5536A1B1ABB42F8D3002004
:1032D000114B50621A8804925EE70B4B1860C8E7E6
:1032E0005046049A58E70F480AF08AFD012013B0AF
:1032F000BDE8F08F184601343A449AE704000320F1
:103300000000032000040242202A03201C2A03207C
:103310001D2A03200A00032008000320242A03207A
:103320005CB4010818B801080048014008707047F3
:1033300000787047030A08704B707047012994BFEA
:1033400000780088704700BF012908D94FF6FE2396
:1033500002889A4203D8981AC0F34F0070470020A1
:10336000704700BF012911D94378FA2B07D8084AC2
:10337000C3EB0330A2FB0020C0F30F10704740F6F0
:10338000FF72FF2B0CBF00201046704700207047D3
:10339000D34D6210022907D94FF6FF73B0F8010030
:1033A000984208BF0020704700207047042907D9C1
:1033B0004FF6FF73B0F80300984208BF0020704733
:1033C00000207047012907D94FF6FF730088984203
:1033D00008BF4FF4006070470020704701290ED9E4
:1033E0004FF6FF730088984209D047F27F53984206
:1033F00038BF1846A0F5EA407F3880B270474FF4D6
:1034000000607047032986BFC078C0F381000020A8
:10341000704700BF09B1007870470846704700BF89
:10342000012906D9437803F00F03013BDBB2022BDD
:1034300001D900207047024A32F81300704700BFDC
:10344000E0E7010819B10178C1F38100704708462F
:10345000704700BF032986BFC07800F0030000203A
:10346000704700BF034600B583B008465BBA02222E
:103470000DF10601ADF806300AF06AFE03B000BD9A
:103480008446002310B50C4682B00DF106000222DE
:103490006146ADF806300AF05BFEBDF80600012C6F
:1034A00098BFC0B240BA80B202B010BD002300B5D0
:1034B000012983B0ADF8063002D8184603B000BD2C
:1034C000014602220DF106000AF042FE9DF80600B8
:1034D00003B000BD38B50D4604460822FF2128463A
:1034E0000AF032FEB4F5FB4F0ADAC4F5FA447F3431
:1034F000640004F0FE03C4F307242B706C7038BD25
:10350000002423466C702B7038BD00BF38B50D46C3
:103510000822FF21044628460AF016FEFA2204FB80
:1035200002F2044BA3FB0213D21A03EB5203DB0A91
:103530006B7038BD0101100038B50C4605460822F5
:10354000FF2120460AF000FE2B0A6570A37038BDEB
:1035500038B50C4605460822FF2120460AF0F4FD46
:103560002B0AE570237138BD38B50C460546082294
:10357000FF2120460AF0E8FD2B0A2570637038BD54
:1035800038B50C4608220546FF2120460AF0DCFD2E
:1035900048F6802247F27F53954294BF5B199B18EF
:1035A0009BB21A0A2370627038BD00BF38B50D4651
:1035B00004460822FF2128467D340AF0C5FDAC7080
:1035C00038BD00BF38B50D4604460822FF21284605
:1035D0000AF0BAFDEB78A40023F00C0304F00C040D
:1035E0002343EB7038BD00BF38B50C4605460822B2
:1035F000FF2120460AF0A8FD257038BDFF2838B508
:103600000D460FD9C3B2002B0CBF0124032408229E
:10361000FF2128460AF098FD6B7823F00F031C4326
:103620006C7038BD031E18BF01235C00EFE700BFBC
:1036300038B50D4604460822FF2128460AF084FDCD
:103640002B78A40023F00C0304F00C0423432B700C
:1036500038BD00BF38B50C4605460822FF2120467C
:103660000AF072FDE37805F0030523F003032B4312
:10367000E37038BD38B50D4604460822FF212846C0
:103680000AF062FD012C0AD0022C05D0032C0CBFDD
:10369000D723FF23AB7038BDC723AB7038BDC3231E
:1036A000AB7038BD38B50C4605460822FF212046D0
:1036B0000AF04AFDEBB2022B12D0032B09D0042BE7
:1036C0000CBF51230023FF2D88BF43F00403237058
:1036D00038BD1123FF2D88BF43F00403237038BD8C
:1036E0000123FF2D88BF43F00403237038BD00BFC2
:1036F00038B50C4605460822FF2120460AF024FD75
:1037000015F0080F0CBF0021FA2115F0100F0CBFA7
:103710000022FA2215F0200F0CBF0023FA2315F027
:10372000400F0CBF0020FA2015F0800FE0700CBF96
:103730000020FA2015F0010F21700CBF0021FA21A2
:1037400015F0020F62700CBF0022FA2215F0040F70
:10375000A3700CBF0023FA2320716171A271E37181
:1037600038BD00BF022906D980787D38C0B28128D3
:1037700088BF002070470020704700BF032906D98A
:10378000C0787D38C0B2812888BF002070470020F3
:10379000704700BF02290FD9837803F00C02042A76
:1037A00001D001207047C3F30113012B06D0002B79
:1037B0000CBF022001207047002070470320704793
:1037C00007292DD903784278A3F1FA03B3FA83F3DA
:1037D000FA2A4FEA531382784FEAC30308BF43F033
:1037E0001003FA2AC27808BF43F02003FA2A0279AC
:1037F00008BF43F04003FA2A427908BF43F0800330
:10380000FA2A827908BF43F00103FA2AC27908BF75
:1038100043F00203FA2A08BF43F004031846704736
:103820000020704700787047D9B103789A09012ABF
:103830000ED003F03002102A15D003F00302012A43
:1038400014BF0120022003F00C03042B06D07047A4
:1038500003F00C03042B4FF00400F8D140F47F4038
:103860007047084670470320EDE700BF00787047B7
:10387000007870470078704700787047087070478C
:10388000087070470870704708707047087070477C
:10389000030A08704B707047012994BF00780088B4
:1038A000704700BF38B50D460822FF210446284660
:1038B0000AF04AFCFA2204FB02F2044BA3FB0213B7
:1038C000D21A03EB5203DB0A6B7038BD0101100002
:1038D000012911D94378FA2B07D8084AC3EB0330E2
:1038E000A2FB0020C0F30F10704740F6FF72FF2BC1
:1038F0000CBF00201046704700207047D34D621067
:10390000034600B583B008465BBA02220DF10601FA
:10391000ADF806300AF01CFC03B000BD034600B54C
:1039200083B008465BBA02220DF10601ADF80630FD
:103930000AF00EFC03B000BD034600B583B0084694
:103940005BBA02220DF10601ADF806300AF000FC68
:1039500003B000BD034600B583B008465BBA02223F
:103960000DF10601ADF806300AF0F2FB03B000BD20
:10397000034600B583B008465BBA02220DF106018A
:10398000ADF806300AF0E4FB03B000BD034600B515
:1039900083B008465BBA02220DF10601ADF806308D
:1039A0000AF0D6FB03B000BD034600B583B008465D
:1039B0005BBA02220DF10601ADF806300AF0C8FB31
:1039C00003B000BD8446002310B50C4682B00DF153
:1039D000060002226146ADF806300AF0B9FBBDF8D8
:1039E0000600012C98BFC0B240BA80B202B010BD30
:1039F0008446002310B50C4682B00DF10600022269
:103A00006146ADF806300AF0A3FBBDF80600012CB4
:103A100098BFC0B240BA80B202B010BD8446002345
:103A200010B50C4682B00DF1060002226146ADF8D9
:103A300006300AF08DFBBDF80600012C98BFC0B21D
:103A400040BA80B202B010BD8446002310B50C46C7
:103A500082B00DF1060002226146ADF806300AF090
:103A600077FBBDF80600012C98BFC0B240BA80B207
:103A700002B010BD8446002310B50C4682B00DF193
:103A8000060002226146ADF806300AF061FBBDF87F
:103A90000600012C98BFC0B240BA80B202B010BD7F
:103AA0008446002310B50C4682B00DF106000222B8
:103AB0006146ADF806300AF04BFBBDF80600012C5C
:103AC00098BFC0B240BA80B202B010BD8446002395
:103AD00010B50C4682B00DF1060002226146ADF829
:103AE00006300AF035FBBDF80600012C98BFC0B2C5
:103AF00040BA80B202B010BD002300B5012983B0E6
:103B0000ADF8063002D8184603B000BD01460222C7
:103B10000DF106000AF01CFBBDF80600000A03B018
:103B200000BD00BF012918D9037803F00302012A60
:103B300017D003F00C02042A15D003F03002102A2B
:103B40000DD003F0C003402B0FD0437803F00303E4
:103B5000012B0CBF06200120704700207047052074
:103B6000704702207047032070470420704700BF51
:103B70002DE9F04F3A4B8346984283B007D8394B32
:103B8000984260D94FF028094FF4487609E0364949
:103B90004FF02509B1FBFBF1C9B2192940F2EE261D
:103BA0005BD90124304B0134A4B2B3FBF4F1B1FB77
:103BB000FBF1C9B21929F6D8B4F5806F3FD20120C4
:103BC0002A4BCDF804B01F6823186FF0004C4FF457
:103BD0007A759B461FFA83FAA1F1020EBEEB510FD4
:103BE0004FEA51031ADD01F1FF385FFA88F805FB4F
:103BF00003F2B2FBF1F2B21A002AB8BF5242624598
:103C000009DA914507DB00209446A8EB0302D2B203
:103C1000FB617C613A6201337345E8DB124B1FFAAA
:103C20008BF4B3FBFAF1019BB4F5806FB1FBF3F1B8
:103C30000AF1010AC9B203D004F1010BCCE701205B
:103C400003B0BDE8F08F08494FF02B09B1FBFBF141
:103C5000C9B2192940F26B36A3D80124AFE700BFDF
:103C600000350C0020A10700005A6202BC3A032074
:103C700038B50C46064D0749074B0A6028600749CE
:103C800001201C6013F0BAFB054B186038BD00BF63
:103C9000BC3A0320B43A0320B83A0320CC390320BD
:103CA0001C3A032030B53F4C83B020680BF0BCFBBE
:103CB00020680BF001FA002851D100223A4D402132
:103CC0003A482A71EA602A616A61AA61AA60EA61D7
:103CD00085F820200CF0F2FA206805F124010BF0A1
:103CE000D5FA00285BD1324920680BF0CFFA0028C2
:103CF00052D1002302222068114600930BF0F2FA01
:103D0000002846D120680BF033FB00283ED100226A
:103D1000012120680BF0E4FCA8BB002206212068EA
:103D20000BF0DEFC60BB07224FF4F05120680BF073
:103D3000D7FC10BB0722802120680BF0D1FCC8B94A
:103D400000221C4920680BF0CBFC80B900224FF404
:103D5000602120680BF0C4FC20B903B030BDFDF732
:103D6000E7FAAAE703B0BDE83040FDF7E1BAFDF796
:103D7000DFFAEBE7FDF7DCFAE2E7FDF7D9FAD9E77E
:103D8000FDF7D6FACFE7FDF7D3FAC6E7FDF7D0FA8D
:103D9000BDE7FDF7CDFAB5E7FDF7CAFAA9E7FDF7EC
:103DA000C7FAA0E7BC3A0320100003200004024237
:103DB0004C00032000407100014B18680BF034BB2D
:103DC000BC3A0320704700BF082824D8DFE800F081
:103DD000080C1014171A1D2005001448FFF7C8BE60
:103DE00042F21070FFF7C4BE44F62060FFF7C0BE79
:103DF0004CF25030FFF7BCBE0D48FFF7B9BE0D487E
:103E0000FFF7B6BE0C48FFF7B3BE0C48FFF7B0BED5
:103E10000B48FFF7ADBE0B4AA0F51C53103B934275
:103E200001D901207047FFF7A3BE00BF40420F0039
:103E3000A086010048E8010090D0030020A10700FF
:103E400000350C00301B0F000346054A197800208E
:103E500051615978D16199781162DB78936170472B
:103E60002C2903200246024B00209A61704700BFB4
:103E70002C290320034600B5064A93F801E093F885
:103E800000C082F810E004499B7881F800C05374A8
:103E9000002000BD2C290320500403202DE9F04709
:103EA000054682B0C0680F460AF046F9AB68B3F128
:103EB000005F3ED00646824600F12409264C4FF0B2
:103EC000FF31206813F0B6FB0128F8D1DFF89480A9
:103ED000D8F8000013F0F6FD484517D202251F4A16
:103EE00013792B431371002320681A46194613F0E7
:103EF000E9F91B4A02231268106800221146009259
:103F000015F040F8284602B0BDE8F08729464FF08A
:103F1000FF332422D8F8000013F0F6FD054686B9D9
:103F20004D450CD00D4A0125137943F00803137158
:103F3000D9E74FF0000A4FF024095646BEE70025A6
:103F4000D1E7524639464FF0FF33D8F8000013F05E
:103F5000DBFD0544E4E700BF1C3A0320100003200A
:103F6000B83A0320C439032030B4012200241020C1
:103F70000A4B04211B684FF440751C82C3E90520DD
:103F8000DC6018623F240F209A74C3E90125DC61CC
:103F9000C3E9092130BC1963D8627047BC3A0320D9
:103FA0002DE9F04700250C4682B0C9070646019569
:103FB00016D4A20707D50221314A137943F0010331
:103FC000137133681965630738D4019B2BB14FF027
:103FD000E0234FF08052C3F8042D02B0BDE8F08713
:103FE000DFF8A890DFF8988040214A46254B0BF077
:103FF00093FAD8F81430D9F80C000133C8F814300B
:104000000AF09AF8DFF888A00746DAF8000013F003
:1040100059FD07F12803984224D349462822DAF8AB
:10402000000001AB13F00AFE002FC2D03A46DAF8C6
:104030000000144901AB13F001FEBAE70424104B51
:1040400011499A69086801329A611A79002142F08F
:1040500008021A71336800680DEB04021C6515F044
:10406000B1F8B2E7D8F8183029460133C8F818304B
:10407000054B01AA1B68186815F0A4F899E700BF62
:1040800010000320743A0320B43A03204C3A032072
:10409000C8390320002110B50A4A0B4C1268236965
:1040A00082B01068013301AA2361019115F08AF8EA
:1040B000019B2BB14FF0E0234FF08052C3F8042D49
:1040C00002B010BDB83A032010000320002110B543
:1040D0000A4A0B4C1268E36982B01068013301AAE6
:1040E000E361019115F06EF8019B2BB14FF0E023D5
:1040F0004FF08052C3F8042D02B010BDB43A032033
:104100001000032038B50C46104D29460BF09EFADE
:10411000A10303D5EB68A3B90D4A1360620309D567
:104120002B690B4A012B13790CBF43F0040303F0F6
:10413000FB031371230303D50122054B83F82020D1
:1041400038BD4FF00042024B1A60E7E7203A0320E7
:1041500010000320F0B500250B7885B007460295C6
:104160000395CBB10C460DF1FF3608E02046D5B2E1
:1041700009F086FF14F8023F06F8010F23B16378B7
:104180006A1C0BB3072DF1D18DF808502A466946F9
:104190000DF1090016F082FA00230E4C0820C4E944
:1041A0000533C4E90133276009F0CCFF0822034638
:1041B0000DEB02010848E36009F0CAFF20460649FA
:1041C000FFF76CFE05B0F0BD8DF80850002DDDD175
:1041D000E2E700BFC83A0320C03A032042F20203DC
:1041E0002DE9F043002499428BB0445400F2BA8088
:1041F000002900F0808100F1FF3E0139F44673464A
:10420000014405E00A2A1CBF025501348B4209D043
:1042100013F8012F082AF5D1002CF7D08B4204F1B6
:10422000FF34F5D10025AC42055540F35E812A46A6
:104230000EEB04031CF8011F202900F0898082B9CD
:104240009C4505F101050CF101010CD09CF80140E1
:10425000202C7FD0994206D01CF8022F203A18BF9C
:1042600001229C45E6D1A54901AA09F0E9FF0446CF
:10427000002800F08180A24909F0ACFF002800F07E
:104280000F81012D40F3B1809C49002001AA09F063
:10429000D7FF9C49044609F09DFF002870D12046B5
:1042A000994909F097FF002800F0A481974809F088
:1042B000A7FD974809F0A4FD944809F0A1FD954891
:1042C00009F09EFD944809F09BFD924809F098FD85
:1042D000924809F095FD924809F092FD8D4809F049
:1042E0008FFD904809F08CFD8F4809F089FD8948C1
:1042F00009F086FD8D4809F083FD8D4809F080FDA9
:10430000844809F07DFD8B4809F07AFD8A4809F060
:1043100077FD8A4809F074FD894809F071FD8948E4
:1043200009F06EFD884809F06BFD884809F068FDCA
:10433000874809F065FD874809F062FD754809F076
:104340005FFD724809F05CFD834809F059FD0CE0FF
:10435000002286E7994286D01CF8021F20297FF4AC
:104360006FAF7EE77D4809F04BFD7D4809F048FDC1
:1043700000200BB0BDE8F0837A4809F041FDF4E776
:10438000624809F03DFD624809F03AFD5F4809F0D6
:1043900037FD604809F034FD734809F031FD5D4890
:1043A00009F02EFD5D4809F02BFD704809F028FD4D
:1043B000584809F025FD5B4809F022FD6C4809F0DA
:1043C0001FFD544809F01CFD584809F019FD6948C3
:1043D00009F016FD4F4809F013FD564809F010FD8D
:1043E000654809F00DFD6548A6E7484809F008FD55
:1043F000474809F005FD454809F002FD454809F028
:10440000FFFC5F4809F0FCFC424809F0F9FC5D48FC
:1044100009F0F6FC5C4809F0F3FC5C4809F0F0FC9C
:104420005B4809F0EDFC5B4809F0EAFC5A4809F0EA
:10443000E7FC5A4809F0E4FC594809F0E1FC594806
:1044400009F0DEFC584809F0DBFC584809F0D8FCBC
:10445000574809F0D5FC574809F0D2FC564809F0F6
:10446000CFFC564809F0CCFC554809F0C9FC55482A
:1044700009F0C6FC544809F0C3FC544809F0C0FCDC
:10448000534809F0BDFC534809F0BAFC214809F033
:10449000B7FC514809F0B4FC1C4809F0B1FC64E7D2
:1044A00020464E4909F096FE00287FF4EAAE2046E9
:1044B0004B4909F08FFE00287FF4E3AE20464949BE
:1044C00009F088FE074600287FF4DBAE2046464907
:1044D00009F080FE8046002800F00A81022D00F0DD
:1044E000DA80424809F08CFC3FE77FF4BCAE4048DC
:1044F00009F086FC39E70170F9E700BF70B80108E0
:10450000A0B80108BCB801085CBA0108C4B8010829
:1045100004B90108E8B4010864BA010840B9010807
:1045200078BA010884B90108B4BA0108A8B9010829
:10453000C8BA0108FCB9010814BB010834BB010862
:1045400044BB010864BB010874BB010894BB0108AB
:10455000A4BB0108D0BB0108A0BD010858B80108E0
:10456000E8DA010874B8010830B9010850B9010847
:104570008CB90108B4B9010808BA01084CBA01089D
:10458000F4BD010898BE0108A4BE010818BF0108C7
:10459000A0BF0108CCBF01081CC001086CC0010805
:1045A000BCC0010814C1010880C10108A8C10108EC
:1045B000D4C1010834C201089CC20108E8C2010844
:1045C0002CC3010858C30108B0C3010808C401087E
:1045D00074C40108C0C40108F4C40108A8B80108E3
:1045E000B0B80108B8B80108E4BB010814C5010857
:1045F0006CB801082046914909F0ECFD002846D02E
:104600008F4809F0FDFB8F4809F0FAFB8C4809F050
:10461000F7FB8D4809F0F4FB8C4809F0F1FB8A4860
:1046200009F0EEFB8A4809F0EBFB8A4809F0E8FB49
:10463000854809F0E5FB884809F0E2FB874809F066
:10464000DFFB814809F0DCFB854809F0D9FB854890
:1046500009F0D6FB7C4809F0D3FB834809F0D0FB76
:10466000824809F0CDFB824809F0CAFB814809F075
:10467000C7FB814809F0C4FB804809F0C1FB8048B2
:1046800009F0BEFB7F4809F0BBFB7F4854E67F483A
:1046900009F0B6FB58E638467D4901AA09F0D0FD7D
:1046A00003780446002B3FF460AE051D413B232BED
:1046B00013D8DFE803F04139312912121212121215
:1046C00012121212121212121212121212121212CA
:1046D000121212121212413931296E4809F090FB60
:1046E00014F8013F002B3FF440AEA542DED13CE67A
:1046F0002046694909F06EFD00284ED0022D1FD0DA
:10470000664809F07DFB30E6654809F079FB002139
:10471000442003F0A3FEE3E7624809F071FB0021A7
:10472000432003F09BFEDBE75F4809F069FB0021B3
:10473000422003F093FED3E75C4809F061FBCFE72A
:104740004046534901AA09F07BFD03780446002B3B
:104750003FF40BAE051D413B232B13D8DFE803F0DC
:104760003E36422E1212121212121212121212128D
:104770001212121212121212121212121212121219
:104780003E36422E434809F03BFB14F8013F002B14
:104790003FF4EBADA542DED1E7E52046444909F000
:1047A00019FD002800F0B180012D00F0A680AE1E9A
:1047B000012E1FD93F4809F023FBD6E53E4809F0FA
:1047C0001FFB0121442003F049FEDEE73B4809F0CE
:1047D00017FB0121422003F041FED6E7384809F0DB
:1047E0000FFBD2E7374809F00BFB0121432003F010
:1047F00035FECAE7264901AA002009F021FD09F08B
:1048000063FCB0F5006F80F098802F4F022D386068
:1048100000F08A801E4901AA002009F011FD064619
:1048200009F0C0FCC107044600F18B80102800F29B
:1048300088803546DFF8948050E000BFE4BB010873
:10484000C4B8010804B90108E8B40108ECBB0108C8
:1048500040B9010800BC010884B901083CBC01084A
:10486000A8B9010850BC0108FCB901089CBC0108AA
:10487000BCBC0108D0BC0108F0BC010804BD0108A3
:1048800024BD010838BD010864BD010878BD0108D8
:1048900070B801081CC601085CBA010844C60108CA
:1048A000F8C50108D4C50108B0C5010864C50108F0
:1048B0001CC701083CC70108F8C60108B0C60108BA
:1048C00094C60108D4C60108203B0320183B0320EE
:1048D000284609F0D5FB023508F8010BAB1B9BB24B
:1048E0009C42F5D8601CC0F3470009F02BFC03463E
:1048F000AC48FB6009F084FA37E54FF0FF32AA4B71
:10490000AA481A6009F07CFA2FE52046A84909F068
:1049100061FC002861D0012D52D0AE1E012E14D9A9
:10492000A44809F06DFA20E5002009F00BFC0346CD
:10493000A148FB6009F064FA17E5A04809F060FAA5
:1049400013E59F4809F05CFA0FE59E4901AA002093
:1049500009F076FC09F0B8FBB0F5006F80F0AB8091
:10496000994F022D386000F09D8012F0A7FA28219F
:1049700012F0A6FA01AA9349002009F061FC06464C
:1049800009F010FCC2070446DBD41028D9D83546FC
:10499000DFF89C8205E0284609F072FB023508F832
:1049A000010BAB1B9BB2A342F5D3601CC0F34700C5
:1049B00009F0C8FB03468548FB6009F021FAD4E4FE
:1049C0004FF0FF32804B82481A6009F019FA12F05A
:1049D00075FA182112F074FAC7E420467D4909F0EF
:1049E000F9FB10B3032D03D07B4809F009FABCE4AE
:1049F000744901AA002009F023FC7249054601AA66
:104A0000002009F01DFC0A21002209F04DFC734929
:104A10000446284609F0DEFBA0B1714B71485C6189
:104A200009F0EEF9FFF73EF99FE420466E4909F0E0
:104A3000D1FB0746002842D0032D0FD06B4809F068
:104A4000DFF992E428466A4909F0C4FB002843D004
:104A5000634B6848DC6109F0D3F9E3E7594900206A
:104A600001AA09F0EDFB6449044609F0B3FB0028F4
:104A700074D040F2DF7401AA5249002009F0E0FB33
:104A8000054609F08FFB421E92B20D2A034661D8FB
:104A9000DB075FD420462946FFF75CFB574809F047
:104AA000AFF962E4002009F04DFB03465448FB6077
:104AB00009F0A6F959E4534809F0A2F955E4204653
:104AC000514909F087FB0646002851D0022D10D02D
:104AD0004E4809F095F948E428464D4909F07AFB1B
:104AE000002800F0BD803E4B4A481C6209F088F95E
:104AF00098E73846334901AA09F0A2FB451E041D78
:104B000015F8012FA2F12A03002A3FF42EACA5428A
:104B10003FF42BAC1A2B00F20E81DFE813F00301F7
:104B20000C010C010C010C010C010C010C010C011D
:104B30000C010C010C010C010C010C010C010C010D
:104B40000C010C010C010C010C010C018B00390053
:104B500098008F00304809F053F906E420462F49A9
:104B600009F038FB002800F0868040F2E17482E70B
:104B700020462B4909F02EFB0746002800F0028151
:104B8000022D00F0DC80274809F03AF9FFF7EDBB71
:104B9000254809F035F940F2E1702449FFF7DAFAC7
:104BA000AEE700BFC0C70108203B032024C70108AF
:104BB000ECC7010810C8010888C7010864C70108CC
:104BC000A8C7010870B80108F43A032084C8010896
:104BD000F4C70108ACC80108B0C8010810B6010844
:104BE0002C290320CCC8010810CA010814CA0108E6
:104BF000E4C80108ECC8010850CA0108E8CA010865
:104C000064C8010838C80108FCCA010804CB0108BF
:104C100000C9010808C90108BCCA010854CA010832
:104C2000B4CB0108BCCB010878CB010844CB010808
:104C3000EC3A0320964809F0E3F861E7954809F05B
:104C4000DFF840F2E3709449FFF784FA58E793489D
:104C500009F0D6F840F2E2708F49FFF77BFA4FE790
:104C600028468F4909F0B6FA68B18E4B8E489C6190
:104C700009F0C6F8D6E620468C4909F0ABFA80B1B7
:104C800040F2E274F7E62846894909F0A3FA80B1B8
:104C9000003C18BF0124834B86481C7409F0B0F80F
:104CA000C0E62046844909F095FA80B140F2E374E9
:104CB000E1E62846814909F08DFA90B1003C18BF21
:104CC0000124784B7E485C7409F09AF8AAE62046E5
:104CD0007C4909F07FFA90B17B4809F091F80024F3
:104CE000C9E62846794909F075FA60B1003C18BF59
:104CF0000124774B77481C7009F082F892E67648D9
:104D000009F07EF8EBE72846744909F063FA0028B9
:104D100072D0002C69D1724809F072F80222614BFE
:104D2000DA607FE66F4809F06BF840F2DF705A49AD
:104D3000FFF710FAE4E6684809F062F8E0E630466A
:104D4000694901AA09F07CFA451E041D15F8012FD6
:104D5000A2F12A03002A3FF408ABA5423FF405ABB9
:104D60001A2B3ED8DFE803F0343D3D3D3D3D3D3D4F
:104D70003D3D3D3D3D3D3D3D3D3D3D3D3D3D3D3070
:104D8000274C1E002046594909F024FA06460028FF
:104D900067D0012D5AD0022D3BD0554809F030F88C
:104DA000FFF7E3BA534809F02BF840F2E370524999
:104DB000FFF7D0F9CAE7514809F022F840F2E17054
:104DC0004D49FFF7C7F9C1E7314809F019F8BDE7C8
:104DD0004B4809F015F840F2DF704749FFF7BAF980
:104DE000B4E73D4809F00CF8B0E7464809F008F888
:104DF00000222C4BDA6015E6434809F001F811E671
:104E0000424808F0FDFF40F2E2703B49FFF7A2F98B
:104E10009CE73549384601AA09F012FA3C49044694
:104E200009F0D8F988BB20463A4909F0D3F938B3DC
:104E3000394C3A4802F026FB214640F2DF70FFF77A
:104E400089F9374808F0DCFFFFF78FBA354A334B52
:104E500012689A420CBF3448344808F0D1FFFFF77B
:104E600084BA2046324909F0B5F90746002800F017
:104E70008D80012D66D02F4808F0C2FFFFF775BA6C
:104E80002D4808F0BDFFFFF770BA2C4C2C48D1E735
:104E900050CB0108A0CB010844CB01088CCB010802
:104EA0001CC901082C29032020C9010858CA01087F
:104EB00034C9010840C901085CCA010868C9010871
:104EC00078C9010860CA010864CA010894C90108C8
:104ED00050040320A0C9010898CA0108C0C90108EC
:104EE000C4C9010820CB010870B8010868CC0108CA
:104EF0004CC4010848CC0108FCCB010808CC0108CF
:104F0000D4CB0108E0C90108F8C9010828CC010880
:104F1000C4CC0108CCCC010840B80108E80D020857
:104F200008CD01082001032074CC01089CCC0108A5
:104F30002CCD010838CD0108D4CC01084CB80108AB
:104F4000FC0D020801AABB49304609F079F9BA48BC
:104F500008F056FF304603F0BBFA322011F0D2FFC2
:104F60002946422003F07AFA06F0F2FE11F0CAFF59
:104F70002946432003F072FA06F0EAFE11F0C2FF60
:104F80002946442003F06AFAFFF7EFB92046AB49FF
:104F900009F020F930B1022D20D0A94808F030FFE7
:104FA000FFF7E3B92046A74909F014F9002800F0FB
:104FB000C580012D40F3BD8000209E4901AA09F063
:104FC0003FF9044600283FF4D0A99F4909F002F9AF
:104FD000E0B19E4808F014FFFFF7C7B9384695497D
:104FE00001AA09F02DF9451E041D15F8012FA2F1A3
:104FF0004103002A3FF4B9A9A5423FF4B6A9032B07
:1050000000F24683DFE803F0912D240B20469049FF
:1050100009F0E0F860B1FDF775FAFFF7A6B98D4821
:1050200008F0EEFE40F2E3708B49FFF793F8DCE7FF
:1050300020468A4909F0CEF80646D8B1884808F0DB
:10504000DFFEFDF71FF9874808F0DAFEFFF78DB99C
:10505000854808F0D5FE40F2E2707F49FFF77AF804
:10506000C3E7824808F0CCFE40F2E1707A49FFF7CE
:1050700071F8BAE720467E4909F0ACF8002870D0F4
:105080007C4808F0BDFEFDF729F94FF47A73044619
:10509000B0FBF3F002A903FB104409F033F90A2135
:1050A0000346B4FBF1F24FF02E09642503F1280802
:1050B000E84408F8209CB2FBF1F8B4FBF5F54FF09A
:1050C000200E4FF0250C0D2701FB124401FB182286
:1050D0000DF12808591C58FA81F1303501F8205C8F
:1050E000991C303258FA81F101F8202CDA1C58FA58
:1050F00082F2303402F8204C1A1D58FA82F202F87B
:1051000020EC5A1D58FA82F202F820CC9A1D07337F
:1051100058FA82F258FA83F302F8207C02A803F8C6
:10512000206C08F06DFEFFF720B9534808F068FEC8
:105130005BE7524808F064FEFFF717B92046504974
:1051400009F048F800287FF434AF20464D4909F0B3
:1051500041F828B3022D11D04B4808F051FEFFF75B
:1051600004B92046494909F035F8064600B34848D5
:1051700008F046FEFDF732FAFFF7F7B82D49002098
:1051800001AA09F05DF84349044609F023F8E8B1A3
:10519000012005F07BFF404808F032FEFFF7E5B83C
:1051A00020463E4909F016F8F8B10120FFF7E1B8B2
:1051B00020463B4909F00EF8002800F0BC80032D82
:1051C0007ED0384808F01CFEFFF7CFB8204636499D
:1051D00009F000F8002800F08880022005F056FF52
:1051E0002D4808F00DFEFFF7C0B820462F4908F003
:1051F000F1FF0028D9D120462D4908F0EBFF002807
:10520000D3D120462B4908F0E5FF06460028CCD133
:105210002046294908F0DEFF002800F0A480012D77
:1052200000F09780022D40F3AA80244808F0E8FDA2
:10523000FFF79BB870B8010860CD0108BCCD01082C
:10524000C8CD01087CCE0108A0B80108C4CE010871
:105250008CD5010838CE010808CE010894D5010884
:1052600098D50108A4D5010814CE0108E4CD0108A1
:10527000ACD50108B4D5010850CB010888CE01088F
:1052800080CE0108BCB801082CD70108CCD5010894
:10529000D4D5010870B601087CD70108CCD7010825
:1052A000ECD50108F4D5010844DC0108D0D7010889
:1052B000D8D70108E0D70108E8D7010840D801088D
:1052C000BD4901AA304608F0BBFF0A2102AA8DF8A9
:1052D000086008F0E9FF9DF80830C4B2012B11D036
:1052E000B64808F08DFDFFF740B82046B44908F0F5
:1052F00071FF90B1032005F0C9FEB24808F080FDAF
:10530000FFF733B8B04808F07BFD2046FDF7BEFE3E
:10531000AE4808F075FDFFF728B82046AC4908F004
:1053200059FF00285CD0042005F0B0FEA54808F025
:1053300067FDFFF71AB82046A64908F04BFF002882
:1053400000F08980032D32D0A34808F059FDFFF703
:105350000CB8A24808F054FDC82011F0D3FD09F0A4
:1053600037FCFFF702B820469D4908F033FF064698
:10537000002843D09B4808F043FDFEF7F6BF3046B7
:105380008D4901AA08F05CFF451EC41C15F8012FC9
:10539000A2F14103002A3EF4E8AFA5423EF4E5AF96
:1053A000032B00F27981DFE803F0D04738658249AA
:1053B00001AA002008F044FF00230A2102AA8DF868
:1053C000083008F071FF9DF80830C4B2012B87D176
:1053D0007D4808F015FD2046FDF7CEFCFEF7C5BF61
:1053E0002046814908F0F6FE002868D0052005F027
:1053F0004DFE744808F004FDFEF7B7BF20467B4918
:1054000008F0E8FE002800F0B680022D00F0A18030
:10541000774808F0F5FCFEF7A8BF764808F0F0FCE6
:105420000021432003F01AF8322011F06BFD012116
:10543000432003F013F8A9E76F4808F0E1FC0021CE
:10544000422003F00BF8322011F05CFD01214220D4
:1054500003F004F89AE72046684908F0BBFE08B359
:10546000674808F0CDFC032D13D0664808F0C8FC4F
:10547000FEF77BBF644808F0C3FC0021442002F023
:10548000EDFF322011F03EFD0121442002F0E6FF45
:105490007CE7494901AA002008F0D2FEFDF7A4F9F3
:1054A000FEF763BF2046594908F094FE064698B1BE
:1054B000574808F0A5FCFDF7D7FAFEF756BF20467F
:1054C000544908F087FED8B1062005F0DFFD3D48BD
:1054D00008F096FCFEF749BF20464F4908F07AFED7
:1054E00000B3042DC1D1344901AA304608F0A8FE0A
:1054F000FCF708FD88B9354808F082FCFEF735BF97
:105500002046464908F066FEA8B1072005F0BEFD1A
:105510002C4808F075FCFEF728BF414808F070FCE5
:10552000FEF723BF20463F4908F054FE40B1FCF788
:1055300015FEFEF71ABF3C4808F062FCFEF715BFE7
:105540003A4808F05DFCFEF710BF394808F058FCF7
:105550001CE71949304601AA08F072FE3549044695
:1055600008F038FEC8B1012005F0CEFA324808F044
:1055700047FCFEF7FABE2046304908F02BFE002813
:1055800069D000F03DFF002860D02D4808F038FCBD
:10559000012000F045FFFEF7E8BE2046294908F04B
:1055A00019FE002862D0284605F0AEFA264808F019
:1055B00027FCFEF7DABE00BF70B801082CD6010840
:1055C00088D701087CD7010818D6010824D601081D
:1055D0008CD7010840D601084CD60108F0D7010845
:1055E0004CD9010854D9010890D70108D0D9010835
:1055F000D8D9010824D9010810D9010874D60108A6
:105600007CD6010888D6010838D90108A8D6010837
:10561000B0D6010894D70108CCD6010898D7010864
:10562000D0D60108ECD601089CD70108F4D60108B1
:10563000C4D8010870B60108F8D9010864DA010875
:105640006CDA010844DC01080CDA0108144808F09F
:10565000D7FBFEF78ABE134808F0D2FB204608F0BD
:10566000CFFB114808F0CCFBFEF77FBE20460F4968
:1056700008F0B0FD38B1032005F046FA0C4808F0F8
:10568000BFFBFEF772BE0B4808F0BAFBFEF76DBE1B
:10569000094808F0B5FBA8E4074808F0B1FB75E637
:1056A0007CDA010890DA0108A4DA010888D7010839
:1056B00020DA010834DA01085CCE01082DE9F04750
:1056C00003780546A3F13002012A0E46A0B040F24D
:1056D0008F800022824FCDE90B227979012910D0E9
:1056E0000024DFF80082752BD8F80020CDE90D44A6
:1056F0000A9213D1132E00F06E81002020B0BDE875
:10570000F087701E295C0024692904BF4FF0004215
:105710000646752BCDE90D440A92EBD0295D224651
:10572000722905EB040900F0E58000F24581522959
:105730007FD054297DD0233B562B00F23881DFE8FF
:1057400013F08F04360143045F033601360136013E
:105750003601360136013601360136013601360191
:105760003601360136013601360136013601360181
:10577000360136013601360136015B0182043601FD
:105780003601B90398038B03E003CF035B01CB031E
:10579000C303F703E803100472033703360136012D
:1057A000360111033601360145030303FA02EF0205
:1057B000E502360136013601600136013601680125
:1057C000630179026B023601C40236015B01B90242
:1057D000D402A1023D022A0214023601C2019A013A
:1057E00036018501360136017C01750159024802F6
:1057F0004FF4001142780C91302A00F0CD804FF424
:105800008010374F0B907979012900F0D98000235F
:105810003449722A0968CDE90D330A9105F101096D
:1058200066D063D8522A02D0542A40F0C0800124A6
:105830002246B71A092F40F2BA804FF080434FF04A
:10584000000A601C28440793CDF820A008F04CFC07
:10585000069004F10900284408F00CFC99F8003087
:105860008046522B099003D14FF00053D046089345
:10587000404608F061FC053000B2B7EB400F40F045
:1058800096800A34013EA64288BF00270DD9281908
:1058900008F0F6FB0234E4B220AB53FA87F3B442CB
:1058A00003F8400C07F10107F1D308F073FA10ACCC
:1058B00001210D4806AE08F083FA21463046FEF776
:1058C000EDFA022800F08B8008F070FA4046069D41
:1058D00008F032FC22460146284601F007FE0CE79C
:1058E0007401032010000320E8B40108742A5ED17B
:1058F00001242246B71A042F59D94FF0000A601C20
:105900002844CDE907AA08F0DFFB0690201D2844B3
:1059100008F0B0FB99F800308046722B099003D153
:105920004FF00053D0460893404608F005FC05238D
:1059300000B203EB40039F4239D10534013EA64239
:1059400088BF00270DD9281908F09AFB0234E4B269
:1059500020AB53FA87F3B44203F8400C07F1010778
:10596000F1D308F017FA10AC0121B94806AE08F0DF
:1059700027FA21463046FEF791FA0228A4D108F012
:1059800015FA02E00A2011F0BDFA21463046FEF772
:1059900085FA0228F6D099E70022AE4F0B9279796A
:1059A00001290DD0AC4B0D921B680E920A93012178
:1059B000AA4808F0B7F9A0E674297FF4BCAE99E7CD
:1059C000721EA95C692900F06B8300220124CDE9D5
:1059D0000D220A92A2E6284601F0EEFE8DE608F0BE
:1059E000E5F902E00A2011F08DFA21463046FEF773
:1059F00055FA0228F6D069E71621994808F092F97D
:105A00007BE6984808F0FCF90121914808F08AF9F2
:105A100073E6022ECBD16B78934A303B18BF01233B
:105A200001218B48137408F07DF966E6FEF73AF918
:105A30000121874808F076F95FE6022EB7D16B782E
:105A4000302B0CBF002301237B71DDE7052EAED187
:105A50000126854CA819666108F012FB0346E81C74
:105A6000E36108F00DFB2062FEF71CF9314678482F
:105A700008F058F941E67D4808F0C2F940217A481B
:105A800009F01EFE08F0D2F9794C774809F022FEA1
:105A900008F0CCF9206812F015F808F0C7F9206872
:105AA000744C12F023F808F0C1F9206812F00AF8DB
:105AB00008F0BCF9206812F019F808F0B7F964484A
:105AC00008F09EF919E6022E7FF471AF6B78423B25
:105AD000022B3FF66CAF00234FF400124FF48011FD
